{
	"data": {
		"bytecode": {
			"linkReferences": {},
			"object": "61018060405234801562000011575f80fd5b50306040518060400160405280600d81526020017f44756d6d7950726f746f636f6c00000000000000000000000000000000000000815250806040518060400160405280600181526020017f3100000000000000000000000000000000000000000000000000000000000000815250620000955f836200016c60201b90919060201c565b6101208181525050620000b36001826200016c60201b90919060201c565b6101408181525050818051906020012060e08181525050808051906020012061010081815250504660a08181525050620000f2620001c160201b60201c565b608081815250503073ffffffffffffffffffffffffffffffffffffffff1660c08173ffffffffffffffffffffffffffffffffffffffff16815250505050508073ffffffffffffffffffffffffffffffffffffffff166101608173ffffffffffffffffffffffffffffffffffffffff168152505050620007eb565b5f602083511015620001915762000189836200021d60201b60201c565b9050620001bb565b82620001a3836200028760201b60201c565b5f019081620001b39190620004f4565b5060ff5f1b90505b92915050565b5f7f8b73c3c69bb8fe3d512ecc4cf759cc79239f7b179b0ffacaa9a75d522b39400f60e0516101005146306040516020016200020295949392919062000646565b60405160208183030381529060405280519060200120905090565b5f80829050601f815111156200026c57826040517f305a27a90000000000000000000000000000000000000000000000000000000081526004016200026391906200072b565b60405180910390fd5b8051816200027a906200077c565b5f1c175f1b915050919050565b5f819050919050565b5f81519050919050565b7f4e487b71000000000000000000000000000000000000000000000000000000005f52604160045260245ffd5b7f4e487b71000000000000000000000000000000000000000000000000000000005f52602260045260245ffd5b5f60028204905060018216806200030c57607f821691505b602082108103620003225762000321620002c7565b5b50919050565b5f819050815f5260205f209050919050565b5f6020601f8301049050919050565b5f82821b905092915050565b5f60088302620003867fffffffffffffffffffffffffffffffffffffffffffffffffffffffffffffffff8262000349565b62000392868362000349565b95508019841693508086168417925050509392505050565b5f819050919050565b5f819050919050565b5f620003dc620003d6620003d084620003aa565b620003b3565b620003aa565b9050919050565b5f819050919050565b620003f783620003bc565b6200040f6200040682620003e3565b84845462000355565b825550505050565b5f90565b6200042562000417565b62000432818484620003ec565b505050565b5b8181101562000459576200044d5f826200041b565b60018101905062000438565b5050565b601f821115620004a857620004728162000328565b6200047d846200033a565b810160208510156200048d578190505b620004a56200049c856200033a565b83018262000437565b50505b505050565b5f82821c905092915050565b5f620004ca5f1984600802620004ad565b1980831691505092915050565b5f620004e48383620004b9565b9150826002028217905092915050565b620004ff8262000290565b67ffffffffffffffff8111156200051b576200051a6200029a565b5b620005278254620002f4565b620005348282856200045d565b5f60209050601f8311600181146200056a575f841562000555578287015190505b620005618582620004d7565b865550620005d0565b601f1984166200057a8662000328565b5f5b82811015620005a3578489015182556001820191506020850194506020810190506200057c565b86831015620005c35784890151620005bf601f891682620004b9565b8355505b6001600288020188555050505b505050505050565b5f819050919050565b620005ec81620005d8565b82525050565b620005fd81620003aa565b82525050565b5f73ffffffffffffffffffffffffffffffffffffffff82169050919050565b5f6200062e8262000603565b9050919050565b620006408162000622565b82525050565b5f60a0820190506200065b5f830188620005e1565b6200066a6020830187620005e1565b620006796040830186620005e1565b620006886060830185620005f2565b62000697608083018462000635565b9695505050505050565b5f82825260208201905092915050565b5f5b83811015620006d0578082015181840152602081019050620006b3565b5f8484015250505050565b5f601f19601f8301169050919050565b5f620006f78262000290565b620007038185620006a1565b935062000715818560208601620006b1565b6200072081620006db565b840191505092915050565b5f6020820190508181035f830152620007458184620006eb565b905092915050565b5f81519050919050565b5f819050602082019050919050565b5f620007738251620005d8565b80915050919050565b5f62000788826200074d565b82620007948462000757565b9050620007a18162000766565b92506020821015620007e457620007df7fffffffffffffffffffffffffffffffffffffffffffffffffffffffffffffffff8360200360080262000349565b831692505b5050919050565b60805160a05160c05160e05161010051610120516101405161016051612098620008475f395f61032c01525f61082c01525f6107f101525f61117501525f61115401525f610f7601525f610fcc01525f610ff501526120985ff3fe6080604052600436106100a6575f3560e01c806384b0196e1161006357806384b0196e146101da578063ccf96b4a1461020a578063ce97268014610226578063d09de08a14610242578063df905caf14610258578063e871debe14610274576100a6565b806319d8d38c146100aa5780633fb5c1cb146100e6578063572b6c051461010e5780637da0a8771461014a5780637ecebe00146101745780638381f58a146101b0575b5f80fd5b3480156100b5575f80fd5b506100d060048036038101906100cb919061132d565b6102b0565b6040516100dd919061138e565b60405180910390f35b3480156100f1575f80fd5b5061010c600480360381019061010791906113da565b6102e1565b005b348015610119575f80fd5b50610134600480360381019061012f919061145f565b6102eb565b604051610141919061138e565b60405180910390f35b348015610155575f80fd5b5061015e610329565b60405161016b9190611499565b60405180910390f35b34801561017f575f80fd5b5061019a6004803603810190610195919061145f565b610350565b6040516101a791906114c1565b60405180910390f35b3480156101bb575f80fd5b506101c4610396565b6040516101d191906114c1565b60405180910390f35b3480156101e5575f80fd5b506101ee61039c565b604051610201979695949392919061166d565b60405180910390f35b610224600480360381019061021f919061178b565b610441565b005b610240600480360381019061023b919061132d565b610592565b005b34801561024d575f80fd5b50610256610601565b005b610272600480360381019061026d919061132d565b61061a565b005b34801561027f575f80fd5b5061029a60048036038101906102959190611910565b6106ac565b6040516102a791906119a3565b60405180910390f35b5f805f806102bd85610742565b509250925092508280156102ce5750815b80156102d75750805b9350505050919050565b8060038190555050565b5f6102f4610329565b73ffffffffffffffffffffffffffffffffffffffff168273ffffffffffffffffffffffffffffffffffffffff16149050919050565b5f7f0000000000000000000000000000000000000000000000000000000000000000905090565b5f60025f8373ffffffffffffffffffffffffffffffffffffffff1673ffffffffffffffffffffffffffffffffffffffff1681526020019081526020015f20549050919050565b60035481565b5f6060805f805f60606103ad6107e9565b6103b5610823565b46305f801b5f67ffffffffffffffff8111156103d4576103d36117ec565b5b6040519080825280602002602001820160405280156104025781602001602082028036833780820191505090505b507f0f00000000000000000000000000000000000000000000000000000000000000959493929190965096509650965096509650965090919293949596565b5f8073ffffffffffffffffffffffffffffffffffffffff168273ffffffffffffffffffffffffffffffffffffffff161490505f805f5b8686905081101561053157868682818110610495576104946119bc565b5b90506020028101906104a791906119f5565b60400135836104b69190611a49565b92505f6104e78888848181106104cf576104ce6119bc565b5b90506020028101906104e191906119f5565b8661085e565b90508061052557878783818110610501576105006119bc565b5b905060200281019061051391906119f5565b60400135836105229190611a49565b92505b50806001019050610477565b503482146105785781346040517f70647f7900000000000000000000000000000000000000000000000000000000815260040161056f929190611a7c565b60405180910390fd5b5f811461058a576105898482610a87565b5b505050505050565b61059b816102b0565b6105da576040517f08c379a00000000000000000000000000000000000000000000000000000000081526004016105d190611aed565b60405180910390fd5b6105f4815f0160208101906105ef919061145f565b610b70565b506105fe8161061a565b50565b60035f81548092919061061390611b0b565b9190505550565b80604001353414610668578060400135346040517f70647f7900000000000000000000000000000000000000000000000000000000815260040161065f929190611a7c565b60405180910390fd5b61067381600161085e565b6106a9576040517f1425ea4200000000000000000000000000000000000000000000000000000000815260040160405180910390fd5b50565b5f6106c462015180426106bf9190611a49565b610bc3565b6107377f7f96328b83274ebc7c1cf4f7a3abda602b51a78b7fa1d86a2ce353d75e587cac878787876106f58c610350565b62015180426107049190611a49565b8960405160200161071c989796959493929190611ba4565b60405160208183030381529060405280519060200120610c5c565b905095945050505050565b5f805f805f8061075187610c75565b9150915061077087602001602081019061076b919061145f565b610dec565b428860800160208101906107849190611c62565b65ffffffffffff1610158380156107d75750885f0160208101906107a8919061145f565b73ffffffffffffffffffffffffffffffffffffffff168373ffffffffffffffffffffffffffffffffffffffff16145b83955095509550955050509193509193565b606061081e5f7f0000000000000000000000000000000000000000000000000000000000000000610e8290919063ffffffff16565b905090565b606061085960017f0000000000000000000000000000000000000000000000000000000000000000610e8290919063ffffffff16565b905090565b5f805f805f61086c87610742565b9350935093509350851561097a57836108d057866020016020810190610892919061145f565b306040517fd2650cd10000000000000000000000000000000000000000000000000000000081526004016108c7929190611c8d565b60405180910390fd5b82610924578660800160208101906108e89190611c62565b6040517f94eef58a00000000000000000000000000000000000000000000000000000000815260040161091b9190611cc3565b60405180910390fd5b816109795780875f01602081019061093c919061145f565b6040517fc845a056000000000000000000000000000000000000000000000000000000008152600401610970929190611c8d565b60405180910390fd5b5b8380156109845750815b801561098d5750825b15610a7d575f61099c82610b70565b90505f886060013590505f8960200160208101906109ba919061145f565b90505f8a6040013590505f8b8060a001906109d59190611cdc565b8d5f0160208101906109e7919061145f565b6040516020016109f993929190611db1565b60405160208183030381529060405290505f805f83516020850186888af19a505a9050610a26818e610f2f565b8673ffffffffffffffffffffffffffffffffffffffff167f842fb24a83793558587a3dab2be7674da4a51d09c5542d6dd354e5d0ea70813c878d604051610a6e929190611dda565b60405180910390a25050505050505b5050505092915050565b80471015610acc57306040517fcd786059000000000000000000000000000000000000000000000000000000008152600401610ac39190611499565b60405180910390fd5b5f8273ffffffffffffffffffffffffffffffffffffffff1682604051610af190611e24565b5f6040518083038185875af1925050503d805f8114610b2b576040519150601f19603f3d011682016040523d82523d5f602084013e610b30565b606091505b5050905080610b6b576040517f1425ea4200000000000000000000000000000000000000000000000000000000815260040160405180910390fd5b505050565b5f60025f8373ffffffffffffffffffffffffffffffffffffffff1673ffffffffffffffffffffffffffffffffffffffff1681526020019081526020015f205f815480929190600101919050559050919050565b610c5981604051602401610bd791906114c1565b6040516020818303038152906040527ff5b1bba9000000000000000000000000000000000000000000000000000000007bffffffffffffffffffffffffffffffffffffffffffffffffffffffff19166020820180517bffffffffffffffffffffffffffffffffffffffffffffffffffffffff8381831617835250505050610f4d565b50565b5f610c6e610c68610f73565b83611029565b9050919050565b5f805f80610db4858060c00190610c8c9190611cdc565b8080601f0160208091040260200160405190810160405280939291908181526020018383808284375f81840152601f19601f82011690508083019250505050505050610da67f7f96328b83274ebc7c1cf4f7a3abda602b51a78b7fa1d86a2ce353d75e587cac885f016020810190610d04919061145f565b896020016020810190610d17919061145f565b8a604001358b60600135610d3b8d5f016020810190610d36919061145f565b610350565b8d6080016020810190610d4e9190611c62565b8e8060a00190610d5e9190611cdc565b604051610d6c929190611e38565b6040518091039020604051602001610d8b989796959493929190611e50565b60405160208183030381529060405280519060200120610c5c565b61106990919063ffffffff16565b50915091505f6003811115610dcc57610dcb611ecc565b5b816003811115610ddf57610dde611ecc565b5b1482935093505050915091565b5f8030604051602401610dff9190611499565b60405160208183030381529060405263572b6c0560e01b6020820180517bffffffffffffffffffffffffffffffffffffffffffffffffffffffff838183161783525050505090505f805f60205f855160208701895afa92503d91505f519050828015610e6c575060208210155b8015610e7757505f81115b945050505050919050565b606060ff5f1b8314610e9e57610e97836110be565b9050610f29565b818054610eaa90611f26565b80601f0160208091040260200160405190810160405280929190818152602001828054610ed690611f26565b8015610f215780601f10610ef857610100808354040283529160200191610f21565b820191905f5260205f20905b815481529060010190602001808311610f0457829003601f168201915b505050505090505b92915050565b603f8160600135610f409190611f83565b821015610f4957fe5b5050565b5f815190505f6a636f6e736f6c652e6c6f679050602083015f808483855afa5050505050565b5f7f000000000000000000000000000000000000000000000000000000000000000073ffffffffffffffffffffffffffffffffffffffff163073ffffffffffffffffffffffffffffffffffffffff16148015610fee57507f000000000000000000000000000000000000000000000000000000000000000046145b1561101b577f00000000000000000000000000000000000000000000000000000000000000009050611026565b611023611130565b90505b90565b5f6040517f190100000000000000000000000000000000000000000000000000000000000081528360028201528260228201526042812091505092915050565b5f805f60418451036110a9575f805f602087015192506040870151915060608701515f1a905061109b888285856111c5565b9550955095505050506110b7565b5f600285515f1b9250925092505b9250925092565b60605f6110ca836112ac565b90505f602067ffffffffffffffff8111156110e8576110e76117ec565b5b6040519080825280601f01601f19166020018201604052801561111a5781602001600182028036833780820191505090505b5090508181528360208201528092505050919050565b5f7f8b73c3c69bb8fe3d512ecc4cf759cc79239f7b179b0ffacaa9a75d522b39400f7f00000000000000000000000000000000000000000000000000000000000000007f000000000000000000000000000000000000000000000000000000000000000046306040516020016111aa959493929190611fb3565b60405160208183030381529060405280519060200120905090565b5f805f7f7fffffffffffffffffffffffffffffff5d576e7357a4501ddfe92f46681b20a0845f1c1115611201575f6003859250925092506112a2565b5f6001888888886040515f8152602001604052604051611224949392919061201f565b6020604051602081039080840390855afa158015611244573d5f803e3d5ffd5b5050506020604051035190505f73ffffffffffffffffffffffffffffffffffffffff168173ffffffffffffffffffffffffffffffffffffffff1603611295575f60015f801b935093509350506112a2565b805f805f1b935093509350505b9450945094915050565b5f8060ff835f1c169050601f8111156112f1576040517fb3512b0c00000000000000000000000000000000000000000000000000000000815260040160405180910390fd5b80915050919050565b5f604051905090565b5f80fd5b5f80fd5b5f80fd5b5f60e082840312156113245761132361130b565b5b81905092915050565b5f6020828403121561134257611341611303565b5b5f82013567ffffffffffffffff81111561135f5761135e611307565b5b61136b8482850161130f565b91505092915050565b5f8115159050919050565b61138881611374565b82525050565b5f6020820190506113a15f83018461137f565b92915050565b5f819050919050565b6113b9816113a7565b81146113c3575f80fd5b50565b5f813590506113d4816113b0565b92915050565b5f602082840312156113ef576113ee611303565b5b5f6113fc848285016113c6565b91505092915050565b5f73ffffffffffffffffffffffffffffffffffffffff82169050919050565b5f61142e82611405565b9050919050565b61143e81611424565b8114611448575f80fd5b50565b5f8135905061145981611435565b92915050565b5f6020828403121561147457611473611303565b5b5f6114818482850161144b565b91505092915050565b61149381611424565b82525050565b5f6020820190506114ac5f83018461148a565b92915050565b6114bb816113a7565b82525050565b5f6020820190506114d45f8301846114b2565b92915050565b5f7fff0000000000000000000000000000000000000000000000000000000000000082169050919050565b61150e816114da565b82525050565b5f81519050919050565b5f82825260208201905092915050565b5f5b8381101561154b578082015181840152602081019050611530565b5f8484015250505050565b5f601f19601f8301169050919050565b5f61157082611514565b61157a818561151e565b935061158a81856020860161152e565b61159381611556565b840191505092915050565b5f819050919050565b6115b08161159e565b82525050565b5f81519050919050565b5f82825260208201905092915050565b5f819050602082019050919050565b6115e8816113a7565b82525050565b5f6115f983836115df565b60208301905092915050565b5f602082019050919050565b5f61161b826115b6565b61162581856115c0565b9350611630836115d0565b805f5b8381101561166057815161164788826115ee565b975061165283611605565b925050600181019050611633565b5085935050505092915050565b5f60e0820190506116805f83018a611505565b81810360208301526116928189611566565b905081810360408301526116a68188611566565b90506116b560608301876114b2565b6116c2608083018661148a565b6116cf60a08301856115a7565b81810360c08301526116e18184611611565b905098975050505050505050565b5f80fd5b5f80fd5b5f80fd5b5f8083601f8401126117105761170f6116ef565b5b8235905067ffffffffffffffff81111561172d5761172c6116f3565b5b602083019150836020820283011115611749576117486116f7565b5b9250929050565b5f61175a82611405565b9050919050565b61176a81611750565b8114611774575f80fd5b50565b5f8135905061178581611761565b92915050565b5f805f604084860312156117a2576117a1611303565b5b5f84013567ffffffffffffffff8111156117bf576117be611307565b5b6117cb868287016116fb565b935093505060206117de86828701611777565b9150509250925092565b5f80fd5b7f4e487b71000000000000000000000000000000000000000000000000000000005f52604160045260245ffd5b61182282611556565b810181811067ffffffffffffffff82111715611841576118406117ec565b5b80604052505050565b5f6118536112fa565b905061185f8282611819565b919050565b5f67ffffffffffffffff82111561187e5761187d6117ec565b5b61188782611556565b9050602081019050919050565b828183375f83830152505050565b5f6118b46118af84611864565b61184a565b9050828152602081018484840111156118d0576118cf6117e8565b5b6118db848285611894565b509392505050565b5f82601f8301126118f7576118f66116ef565b5b81356119078482602086016118a2565b91505092915050565b5f805f805f60a0868803121561192957611928611303565b5b5f6119368882890161144b565b95505060206119478882890161144b565b9450506040611958888289016113c6565b9350506060611969888289016113c6565b925050608086013567ffffffffffffffff81111561198a57611989611307565b5b611996888289016118e3565b9150509295509295909350565b5f6020820190506119b65f8301846115a7565b92915050565b7f4e487b71000000000000000000000000000000000000000000000000000000005f52603260045260245ffd5b5f80fd5b5f80fd5b5f80fd5b5f8235600160e003833603038112611a1057611a0f6119e9565b5b80830191505092915050565b7f4e487b71000000000000000000000000000000000000000000000000000000005f52601160045260245ffd5b5f611a53826113a7565b9150611a5e836113a7565b9250828201905080821115611a7657611a75611a1c565b5b92915050565b5f604082019050611a8f5f8301856114b2565b611a9c60208301846114b2565b9392505050565b7f57524f4e47235349474e455200000000000000000000000000000000000000005f82015250565b5f611ad7600c8361151e565b9150611ae282611aa3565b602082019050919050565b5f6020820190508181035f830152611b0481611acb565b9050919050565b5f611b15826113a7565b91507fffffffffffffffffffffffffffffffffffffffffffffffffffffffffffffffff8203611b4757611b46611a1c565b5b600182019050919050565b5f81519050919050565b5f82825260208201905092915050565b5f611b7682611b52565b611b808185611b5c565b9350611b9081856020860161152e565b611b9981611556565b840191505092915050565b5f61010082019050611bb85f83018b6115a7565b611bc5602083018a61148a565b611bd2604083018961148a565b611bdf60608301886114b2565b611bec60808301876114b2565b611bf960a08301866114b2565b611c0660c08301856114b2565b81810360e0830152611c188184611b6c565b90509998505050505050505050565b5f65ffffffffffff82169050919050565b611c4181611c27565b8114611c4b575f80fd5b50565b5f81359050611c5c81611c38565b92915050565b5f60208284031215611c7757611c76611303565b5b5f611c8484828501611c4e565b91505092915050565b5f604082019050611ca05f83018561148a565b611cad602083018461148a565b9392505050565b611cbd81611c27565b82525050565b5f602082019050611cd65f830184611cb4565b92915050565b5f8083356001602003843603038112611cf857611cf76119e9565b5b80840192508235915067ffffffffffffffff821115611d1a57611d196119ed565b5b602083019250600182023603831315611d3657611d356119f1565b5b509250929050565b5f81905092915050565b5f611d538385611d3e565b9350611d60838584611894565b82840190509392505050565b5f8160601b9050919050565b5f611d8282611d6c565b9050919050565b5f611d9382611d78565b9050919050565b611dab611da682611424565b611d89565b82525050565b5f611dbd828587611d48565b9150611dc98284611d9a565b601482019150819050949350505050565b5f604082019050611ded5f8301856114b2565b611dfa602083018461137f565b9392505050565b50565b5f611e0f5f83611d3e565b9150611e1a82611e01565b5f82019050919050565b5f611e2e82611e04565b9150819050919050565b5f611e44828486611d48565b91508190509392505050565b5f61010082019050611e645f83018b6115a7565b611e71602083018a61148a565b611e7e604083018961148a565b611e8b60608301886114b2565b611e9860808301876114b2565b611ea560a08301866114b2565b611eb260c0830185611cb4565b611ebf60e08301846115a7565b9998505050505050505050565b7f4e487b71000000000000000000000000000000000000000000000000000000005f52602160045260245ffd5b7f4e487b71000000000000000000000000000000000000000000000000000000005f52602260045260245ffd5b5f6002820490506001821680611f3d57607f821691505b602082108103611f5057611f4f611ef9565b5b50919050565b7f4e487b71000000000000000000000000000000000000000000000000000000005f52601260045260245ffd5b5f611f8d826113a7565b9150611f98836113a7565b925082611fa857611fa7611f56565b5b828204905092915050565b5f60a082019050611fc65f8301886115a7565b611fd360208301876115a7565b611fe060408301866115a7565b611fed60608301856114b2565b611ffa608083018461148a565b9695505050505050565b5f60ff82169050919050565b61201981612004565b82525050565b5f6080820190506120325f8301876115a7565b61203f6020830186612010565b61204c60408301856115a7565b61205960608301846115a7565b9594505050505056fea2646970667358221220a07589e4a629e755c2ad0a25479e204f8b0e496a2e3d17fe24e8605e73be7b8364736f6c63430008170033",
			"opcodes": "PUSH2 0x180 PUSH1 0x40 MSTORE CALLVALUE DUP1 ISZERO PUSH3 0x11 JUMPI PUSH0 DUP1 REVERT JUMPDEST POP ADDRESS PUSH1 0x40 MLOAD DUP1 PUSH1 0x40 ADD PUSH1 0x40 MSTORE DUP1 PUSH1 0xD DUP2 MSTORE PUSH1 0x20 ADD PUSH32 0x44756D6D7950726F746F636F6C00000000000000000000000000000000000000 DUP2 MSTORE POP DUP1 PUSH1 0x40 MLOAD DUP1 PUSH1 0x40 ADD PUSH1 0x40 MSTORE DUP1 PUSH1 0x1 DUP2 MSTORE PUSH1 0x20 ADD PUSH32 0x3100000000000000000000000000000000000000000000000000000000000000 DUP2 MSTORE POP PUSH3 0x95 PUSH0 DUP4 PUSH3 0x16C PUSH1 0x20 SHL SWAP1 SWAP2 SWAP1 PUSH1 0x20 SHR JUMP JUMPDEST PUSH2 0x120 DUP2 DUP2 MSTORE POP POP PUSH3 0xB3 PUSH1 0x1 DUP3 PUSH3 0x16C PUSH1 0x20 SHL SWAP1 SWAP2 SWAP1 PUSH1 0x20 SHR JUMP JUMPDEST PUSH2 0x140 DUP2 DUP2 MSTORE POP POP DUP2 DUP1 MLOAD SWAP1 PUSH1 0x20 ADD KECCAK256 PUSH1 0xE0 DUP2 DUP2 MSTORE POP POP DUP1 DUP1 MLOAD SWAP1 PUSH1 0x20 ADD KECCAK256 PUSH2 0x100 DUP2 DUP2 MSTORE POP POP CHAINID PUSH1 0xA0 DUP2 DUP2 MSTORE POP POP PUSH3 0xF2 PUSH3 0x1C1 PUSH1 0x20 SHL PUSH1 0x20 SHR JUMP JUMPDEST PUSH1 0x80 DUP2 DUP2 MSTORE POP POP ADDRESS PUSH20 0xFFFFFFFFFFFFFFFFFFFFFFFFFFFFFFFFFFFFFFFF AND PUSH1 0xC0 DUP2 PUSH20 0xFFFFFFFFFFFFFFFFFFFFFFFFFFFFFFFFFFFFFFFF AND DUP2 MSTORE POP POP POP POP POP DUP1 PUSH20 0xFFFFFFFFFFFFFFFFFFFFFFFFFFFFFFFFFFFFFFFF AND PUSH2 0x160 DUP2 PUSH20 0xFFFFFFFFFFFFFFFFFFFFFFFFFFFFFFFFFFFFFFFF AND DUP2 MSTORE POP POP POP PUSH3 0x7EB JUMP JUMPDEST PUSH0 PUSH1 0x20 DUP4 MLOAD LT ISZERO PUSH3 0x191 JUMPI PUSH3 0x189 DUP4 PUSH3 0x21D PUSH1 0x20 SHL PUSH1 0x20 SHR JUMP JUMPDEST SWAP1 POP PUSH3 0x1BB JUMP JUMPDEST DUP3 PUSH3 0x1A3 DUP4 PUSH3 0x287 PUSH1 0x20 SHL PUSH1 0x20 SHR JUMP JUMPDEST PUSH0 ADD SWAP1 DUP2 PUSH3 0x1B3 SWAP2 SWAP1 PUSH3 0x4F4 JUMP JUMPDEST POP PUSH1 0xFF PUSH0 SHL SWAP1 POP JUMPDEST SWAP3 SWAP2 POP POP JUMP JUMPDEST PUSH0 PUSH32 0x8B73C3C69BB8FE3D512ECC4CF759CC79239F7B179B0FFACAA9A75D522B39400F PUSH1 0xE0 MLOAD PUSH2 0x100 MLOAD CHAINID ADDRESS PUSH1 0x40 MLOAD PUSH1 0x20 ADD PUSH3 0x202 SWAP6 SWAP5 SWAP4 SWAP3 SWAP2 SWAP1 PUSH3 0x646 JUMP JUMPDEST PUSH1 0x40 MLOAD PUSH1 0x20 DUP2 DUP4 SUB SUB DUP2 MSTORE SWAP1 PUSH1 0x40 MSTORE DUP1 MLOAD SWAP1 PUSH1 0x20 ADD KECCAK256 SWAP1 POP SWAP1 JUMP JUMPDEST PUSH0 DUP1 DUP3 SWAP1 POP PUSH1 0x1F DUP2 MLOAD GT ISZERO PUSH3 0x26C JUMPI DUP3 PUSH1 0x40 MLOAD PUSH32 0x305A27A900000000000000000000000000000000000000000000000000000000 DUP2 MSTORE PUSH1 0x4 ADD PUSH3 0x263 SWAP2 SWAP1 PUSH3 0x72B JUMP JUMPDEST PUSH1 0x40 MLOAD DUP1 SWAP2 SUB SWAP1 REVERT JUMPDEST DUP1 MLOAD DUP2 PUSH3 0x27A SWAP1 PUSH3 0x77C JUMP JUMPDEST PUSH0 SHR OR PUSH0 SHL SWAP2 POP POP SWAP2 SWAP1 POP JUMP JUMPDEST PUSH0 DUP2 SWAP1 POP SWAP2 SWAP1 POP JUMP JUMPDEST PUSH0 DUP2 MLOAD SWAP1 POP SWAP2 SWAP1 POP JUMP JUMPDEST PUSH32 0x4E487B7100000000000000000000000000000000000000000000000000000000 PUSH0 MSTORE PUSH1 0x41 PUSH1 0x4 MSTORE PUSH1 0x24 PUSH0 REVERT JUMPDEST PUSH32 0x4E487B7100000000000000000000000000000000000000000000000000000000 PUSH0 MSTORE PUSH1 0x22 PUSH1 0x4 MSTORE PUSH1 0x24 PUSH0 REVERT JUMPDEST PUSH0 PUSH1 0x2 DUP3 DIV SWAP1 POP PUSH1 0x1 DUP3 AND DUP1 PUSH3 0x30C JUMPI PUSH1 0x7F DUP3 AND SWAP2 POP JUMPDEST PUSH1 0x20 DUP3 LT DUP2 SUB PUSH3 0x322 JUMPI PUSH3 0x321 PUSH3 0x2C7 JUMP JUMPDEST JUMPDEST POP SWAP2 SWAP1 POP JUMP JUMPDEST PUSH0 DUP2 SWAP1 POP DUP2 PUSH0 MSTORE PUSH1 0x20 PUSH0 KECCAK256 SWAP1 POP SWAP2 SWAP1 POP JUMP JUMPDEST PUSH0 PUSH1 0x20 PUSH1 0x1F DUP4 ADD DIV SWAP1 POP SWAP2 SWAP1 POP JUMP JUMPDEST PUSH0 DUP3 DUP3 SHL SWAP1 POP SWAP3 SWAP2 POP POP JUMP JUMPDEST PUSH0 PUSH1 0x8 DUP4 MUL PUSH3 0x386 PUSH32 0xFFFFFFFFFFFFFFFFFFFFFFFFFFFFFFFFFFFFFFFFFFFFFFFFFFFFFFFFFFFFFFFF DUP3 PUSH3 0x349 JUMP JUMPDEST PUSH3 0x392 DUP7 DUP4 PUSH3 0x349 JUMP JUMPDEST SWAP6 POP DUP1 NOT DUP5 AND SWAP4 POP DUP1 DUP7 AND DUP5 OR SWAP3 POP POP POP SWAP4 SWAP3 POP POP POP JUMP JUMPDEST PUSH0 DUP2 SWAP1 POP SWAP2 SWAP1 POP JUMP JUMPDEST PUSH0 DUP2 SWAP1 POP SWAP2 SWAP1 POP JUMP JUMPDEST PUSH0 PUSH3 0x3DC PUSH3 0x3D6 PUSH3 0x3D0 DUP5 PUSH3 0x3AA JUMP JUMPDEST PUSH3 0x3B3 JUMP JUMPDEST PUSH3 0x3AA JUMP JUMPDEST SWAP1 POP SWAP2 SWAP1 POP JUMP JUMPDEST PUSH0 DUP2 SWAP1 POP SWAP2 SWAP1 POP JUMP JUMPDEST PUSH3 0x3F7 DUP4 PUSH3 0x3BC JUMP JUMPDEST PUSH3 0x40F PUSH3 0x406 DUP3 PUSH3 0x3E3 JUMP JUMPDEST DUP5 DUP5 SLOAD PUSH3 0x355 JUMP JUMPDEST DUP3 SSTORE POP POP POP POP JUMP JUMPDEST PUSH0 SWAP1 JUMP JUMPDEST PUSH3 0x425 PUSH3 0x417 JUMP JUMPDEST PUSH3 0x432 DUP2 DUP5 DUP5 PUSH3 0x3EC JUMP JUMPDEST POP POP POP JUMP JUMPDEST JUMPDEST DUP2 DUP2 LT ISZERO PUSH3 0x459 JUMPI PUSH3 0x44D PUSH0 DUP3 PUSH3 0x41B JUMP JUMPDEST PUSH1 0x1 DUP2 ADD SWAP1 POP PUSH3 0x438 JUMP JUMPDEST POP POP JUMP JUMPDEST PUSH1 0x1F DUP3 GT ISZERO PUSH3 0x4A8 JUMPI PUSH3 0x472 DUP2 PUSH3 0x328 JUMP JUMPDEST PUSH3 0x47D DUP5 PUSH3 0x33A JUMP JUMPDEST DUP2 ADD PUSH1 0x20 DUP6 LT ISZERO PUSH3 0x48D JUMPI DUP2 SWAP1 POP JUMPDEST PUSH3 0x4A5 PUSH3 0x49C DUP6 PUSH3 0x33A JUMP JUMPDEST DUP4 ADD DUP3 PUSH3 0x437 JUMP JUMPDEST POP POP JUMPDEST POP POP POP JUMP JUMPDEST PUSH0 DUP3 DUP3 SHR SWAP1 POP SWAP3 SWAP2 POP POP JUMP JUMPDEST PUSH0 PUSH3 0x4CA PUSH0 NOT DUP5 PUSH1 0x8 MUL PUSH3 0x4AD JUMP JUMPDEST NOT DUP1 DUP4 AND SWAP2 POP POP SWAP3 SWAP2 POP POP JUMP JUMPDEST PUSH0 PUSH3 0x4E4 DUP4 DUP4 PUSH3 0x4B9 JUMP JUMPDEST SWAP2 POP DUP3 PUSH1 0x2 MUL DUP3 OR SWAP1 POP SWAP3 SWAP2 POP POP JUMP JUMPDEST PUSH3 0x4FF DUP3 PUSH3 0x290 JUMP JUMPDEST PUSH8 0xFFFFFFFFFFFFFFFF DUP2 GT ISZERO PUSH3 0x51B JUMPI PUSH3 0x51A PUSH3 0x29A JUMP JUMPDEST JUMPDEST PUSH3 0x527 DUP3 SLOAD PUSH3 0x2F4 JUMP JUMPDEST PUSH3 0x534 DUP3 DUP3 DUP6 PUSH3 0x45D JUMP JUMPDEST PUSH0 PUSH1 0x20 SWAP1 POP PUSH1 0x1F DUP4 GT PUSH1 0x1 DUP2 EQ PUSH3 0x56A JUMPI PUSH0 DUP5 ISZERO PUSH3 0x555 JUMPI DUP3 DUP8 ADD MLOAD SWAP1 POP JUMPDEST PUSH3 0x561 DUP6 DUP3 PUSH3 0x4D7 JUMP JUMPDEST DUP7 SSTORE POP PUSH3 0x5D0 JUMP JUMPDEST PUSH1 0x1F NOT DUP5 AND PUSH3 0x57A DUP7 PUSH3 0x328 JUMP JUMPDEST PUSH0 JUMPDEST DUP3 DUP2 LT ISZERO PUSH3 0x5A3 JUMPI DUP5 DUP10 ADD MLOAD DUP3 SSTORE PUSH1 0x1 DUP3 ADD SWAP2 POP PUSH1 0x20 DUP6 ADD SWAP5 POP PUSH1 0x20 DUP2 ADD SWAP1 POP PUSH3 0x57C JUMP JUMPDEST DUP7 DUP4 LT ISZERO PUSH3 0x5C3 JUMPI DUP5 DUP10 ADD MLOAD PUSH3 0x5BF PUSH1 0x1F DUP10 AND DUP3 PUSH3 0x4B9 JUMP JUMPDEST DUP4 SSTORE POP JUMPDEST PUSH1 0x1 PUSH1 0x2 DUP9 MUL ADD DUP9 SSTORE POP POP POP JUMPDEST POP POP POP POP POP POP JUMP JUMPDEST PUSH0 DUP2 SWAP1 POP SWAP2 SWAP1 POP JUMP JUMPDEST PUSH3 0x5EC DUP2 PUSH3 0x5D8 JUMP JUMPDEST DUP3 MSTORE POP POP JUMP JUMPDEST PUSH3 0x5FD DUP2 PUSH3 0x3AA JUMP JUMPDEST DUP3 MSTORE POP POP JUMP JUMPDEST PUSH0 PUSH20 0xFFFFFFFFFFFFFFFFFFFFFFFFFFFFFFFFFFFFFFFF DUP3 AND SWAP1 POP SWAP2 SWAP1 POP JUMP JUMPDEST PUSH0 PUSH3 0x62E DUP3 PUSH3 0x603 JUMP JUMPDEST SWAP1 POP SWAP2 SWAP1 POP JUMP JUMPDEST PUSH3 0x640 DUP2 PUSH3 0x622 JUMP JUMPDEST DUP3 MSTORE POP POP JUMP JUMPDEST PUSH0 PUSH1 0xA0 DUP3 ADD SWAP1 POP PUSH3 0x65B PUSH0 DUP4 ADD DUP9 PUSH3 0x5E1 JUMP JUMPDEST PUSH3 0x66A PUSH1 0x20 DUP4 ADD DUP8 PUSH3 0x5E1 JUMP JUMPDEST PUSH3 0x679 PUSH1 0x40 DUP4 ADD DUP7 PUSH3 0x5E1 JUMP JUMPDEST PUSH3 0x688 PUSH1 0x60 DUP4 ADD DUP6 PUSH3 0x5F2 JUMP JUMPDEST PUSH3 0x697 PUSH1 0x80 DUP4 ADD DUP5 PUSH3 0x635 JUMP JUMPDEST SWAP7 SWAP6 POP POP POP POP POP POP JUMP JUMPDEST PUSH0 DUP3 DUP3 MSTORE PUSH1 0x20 DUP3 ADD SWAP1 POP SWAP3 SWAP2 POP POP JUMP JUMPDEST PUSH0 JUMPDEST DUP4 DUP2 LT ISZERO PUSH3 0x6D0 JUMPI DUP1 DUP3 ADD MLOAD DUP2 DUP5 ADD MSTORE PUSH1 0x20 DUP2 ADD SWAP1 POP PUSH3 0x6B3 JUMP JUMPDEST PUSH0 DUP5 DUP5 ADD MSTORE POP POP POP POP JUMP JUMPDEST PUSH0 PUSH1 0x1F NOT PUSH1 0x1F DUP4 ADD AND SWAP1 POP SWAP2 SWAP1 POP JUMP JUMPDEST PUSH0 PUSH3 0x6F7 DUP3 PUSH3 0x290 JUMP JUMPDEST PUSH3 0x703 DUP2 DUP6 PUSH3 0x6A1 JUMP JUMPDEST SWAP4 POP PUSH3 0x715 DUP2 DUP6 PUSH1 0x20 DUP7 ADD PUSH3 0x6B1 JUMP JUMPDEST PUSH3 0x720 DUP2 PUSH3 0x6DB JUMP JUMPDEST DUP5 ADD SWAP2 POP POP SWAP3 SWAP2 POP POP JUMP JUMPDEST PUSH0 PUSH1 0x20 DUP3 ADD SWAP1 POP DUP2 DUP2 SUB PUSH0 DUP4 ADD MSTORE PUSH3 0x745 DUP2 DUP5 PUSH3 0x6EB JUMP JUMPDEST SWAP1 POP SWAP3 SWAP2 POP POP JUMP JUMPDEST PUSH0 DUP2 MLOAD SWAP1 POP SWAP2 SWAP1 POP JUMP JUMPDEST PUSH0 DUP2 SWAP1 POP PUSH1 0x20 DUP3 ADD SWAP1 POP SWAP2 SWAP1 POP JUMP JUMPDEST PUSH0 PUSH3 0x773 DUP3 MLOAD PUSH3 0x5D8 JUMP JUMPDEST DUP1 SWAP2 POP POP SWAP2 SWAP1 POP JUMP JUMPDEST PUSH0 PUSH3 0x788 DUP3 PUSH3 0x74D JUMP JUMPDEST DUP3 PUSH3 0x794 DUP5 PUSH3 0x757 JUMP JUMPDEST SWAP1 POP PUSH3 0x7A1 DUP2 PUSH3 0x766 JUMP JUMPDEST SWAP3 POP PUSH1 0x20 DUP3 LT ISZERO PUSH3 0x7E4 JUMPI PUSH3 0x7DF PUSH32 0xFFFFFFFFFFFFFFFFFFFFFFFFFFFFFFFFFFFFFFFFFFFFFFFFFFFFFFFFFFFFFFFF DUP4 PUSH1 0x20 SUB PUSH1 0x8 MUL PUSH3 0x349 JUMP JUMPDEST DUP4 AND SWAP3 POP JUMPDEST POP POP SWAP2 SWAP1 POP JUMP JUMPDEST PUSH1 0x80 MLOAD PUSH1 0xA0 MLOAD PUSH1 0xC0 MLOAD PUSH1 0xE0 MLOAD PUSH2 0x100 MLOAD PUSH2 0x120 MLOAD PUSH2 0x140 MLOAD PUSH2 0x160 MLOAD PUSH2 0x2098 PUSH3 0x847 PUSH0 CODECOPY PUSH0 PUSH2 0x32C ADD MSTORE PUSH0 PUSH2 0x82C ADD MSTORE PUSH0 PUSH2 0x7F1 ADD MSTORE PUSH0 PUSH2 0x1175 ADD MSTORE PUSH0 PUSH2 0x1154 ADD MSTORE PUSH0 PUSH2 0xF76 ADD MSTORE PUSH0 PUSH2 0xFCC ADD MSTORE PUSH0 PUSH2 0xFF5 ADD MSTORE PUSH2 0x2098 PUSH0 RETURN INVALID PUSH1 0x80 PUSH1 0x40 MSTORE PUSH1 0x4 CALLDATASIZE LT PUSH2 0xA6 JUMPI PUSH0 CALLDATALOAD PUSH1 0xE0 SHR DUP1 PUSH4 0x84B0196E GT PUSH2 0x63 JUMPI DUP1 PUSH4 0x84B0196E EQ PUSH2 0x1DA JUMPI DUP1 PUSH4 0xCCF96B4A EQ PUSH2 0x20A JUMPI DUP1 PUSH4 0xCE972680 EQ PUSH2 0x226 JUMPI DUP1 PUSH4 0xD09DE08A EQ PUSH2 0x242 JUMPI DUP1 PUSH4 0xDF905CAF EQ PUSH2 0x258 JUMPI DUP1 PUSH4 0xE871DEBE EQ PUSH2 0x274 JUMPI PUSH2 0xA6 JUMP JUMPDEST DUP1 PUSH4 0x19D8D38C EQ PUSH2 0xAA JUMPI DUP1 PUSH4 0x3FB5C1CB EQ PUSH2 0xE6 JUMPI DUP1 PUSH4 0x572B6C05 EQ PUSH2 0x10E JUMPI DUP1 PUSH4 0x7DA0A877 EQ PUSH2 0x14A JUMPI DUP1 PUSH4 0x7ECEBE00 EQ PUSH2 0x174 JUMPI DUP1 PUSH4 0x8381F58A EQ PUSH2 0x1B0 JUMPI JUMPDEST PUSH0 DUP1 REVERT JUMPDEST CALLVALUE DUP1 ISZERO PUSH2 0xB5 JUMPI PUSH0 DUP1 REVERT JUMPDEST POP PUSH2 0xD0 PUSH1 0x4 DUP1 CALLDATASIZE SUB DUP2 ADD SWAP1 PUSH2 0xCB SWAP2 SWAP1 PUSH2 0x132D JUMP JUMPDEST PUSH2 0x2B0 JUMP JUMPDEST PUSH1 0x40 MLOAD PUSH2 0xDD SWAP2 SWAP1 PUSH2 0x138E JUMP JUMPDEST PUSH1 0x40 MLOAD DUP1 SWAP2 SUB SWAP1 RETURN JUMPDEST CALLVALUE DUP1 ISZERO PUSH2 0xF1 JUMPI PUSH0 DUP1 REVERT JUMPDEST POP PUSH2 0x10C PUSH1 0x4 DUP1 CALLDATASIZE SUB DUP2 ADD SWAP1 PUSH2 0x107 SWAP2 SWAP1 PUSH2 0x13DA JUMP JUMPDEST PUSH2 0x2E1 JUMP JUMPDEST STOP JUMPDEST CALLVALUE DUP1 ISZERO PUSH2 0x119 JUMPI PUSH0 DUP1 REVERT JUMPDEST POP PUSH2 0x134 PUSH1 0x4 DUP1 CALLDATASIZE SUB DUP2 ADD SWAP1 PUSH2 0x12F SWAP2 SWAP1 PUSH2 0x145F JUMP JUMPDEST PUSH2 0x2EB JUMP JUMPDEST PUSH1 0x40 MLOAD PUSH2 0x141 SWAP2 SWAP1 PUSH2 0x138E JUMP JUMPDEST PUSH1 0x40 MLOAD DUP1 SWAP2 SUB SWAP1 RETURN JUMPDEST CALLVALUE DUP1 ISZERO PUSH2 0x155 JUMPI PUSH0 DUP1 REVERT JUMPDEST POP PUSH2 0x15E PUSH2 0x329 JUMP JUMPDEST PUSH1 0x40 MLOAD PUSH2 0x16B SWAP2 SWAP1 PUSH2 0x1499 JUMP JUMPDEST PUSH1 0x40 MLOAD DUP1 SWAP2 SUB SWAP1 RETURN JUMPDEST CALLVALUE DUP1 ISZERO PUSH2 0x17F JUMPI PUSH0 DUP1 REVERT JUMPDEST POP PUSH2 0x19A PUSH1 0x4 DUP1 CALLDATASIZE SUB DUP2 ADD SWAP1 PUSH2 0x195 SWAP2 SWAP1 PUSH2 0x145F JUMP JUMPDEST PUSH2 0x350 JUMP JUMPDEST PUSH1 0x40 MLOAD PUSH2 0x1A7 SWAP2 SWAP1 PUSH2 0x14C1 JUMP JUMPDEST PUSH1 0x40 MLOAD DUP1 SWAP2 SUB SWAP1 RETURN JUMPDEST CALLVALUE DUP1 ISZERO PUSH2 0x1BB JUMPI PUSH0 DUP1 REVERT JUMPDEST POP PUSH2 0x1C4 PUSH2 0x396 JUMP JUMPDEST PUSH1 0x40 MLOAD PUSH2 0x1D1 SWAP2 SWAP1 PUSH2 0x14C1 JUMP JUMPDEST PUSH1 0x40 MLOAD DUP1 SWAP2 SUB SWAP1 RETURN JUMPDEST CALLVALUE DUP1 ISZERO PUSH2 0x1E5 JUMPI PUSH0 DUP1 REVERT JUMPDEST POP PUSH2 0x1EE PUSH2 0x39C JUMP JUMPDEST PUSH1 0x40 MLOAD PUSH2 0x201 SWAP8 SWAP7 SWAP6 SWAP5 SWAP4 SWAP3 SWAP2 SWAP1 PUSH2 0x166D JUMP JUMPDEST PUSH1 0x40 MLOAD DUP1 SWAP2 SUB SWAP1 RETURN JUMPDEST PUSH2 0x224 PUSH1 0x4 DUP1 CALLDATASIZE SUB DUP2 ADD SWAP1 PUSH2 0x21F SWAP2 SWAP1 PUSH2 0x178B JUMP JUMPDEST PUSH2 0x441 JUMP JUMPDEST STOP JUMPDEST PUSH2 0x240 PUSH1 0x4 DUP1 CALLDATASIZE SUB DUP2 ADD SWAP1 PUSH2 0x23B SWAP2 SWAP1 PUSH2 0x132D JUMP JUMPDEST PUSH2 0x592 JUMP JUMPDEST STOP JUMPDEST CALLVALUE DUP1 ISZERO PUSH2 0x24D JUMPI PUSH0 DUP1 REVERT JUMPDEST POP PUSH2 0x256 PUSH2 0x601 JUMP JUMPDEST STOP JUMPDEST PUSH2 0x272 PUSH1 0x4 DUP1 CALLDATASIZE SUB DUP2 ADD SWAP1 PUSH2 0x26D SWAP2 SWAP1 PUSH2 0x132D JUMP JUMPDEST PUSH2 0x61A JUMP JUMPDEST STOP JUMPDEST CALLVALUE DUP1 ISZERO PUSH2 0x27F JUMPI PUSH0 DUP1 REVERT JUMPDEST POP PUSH2 0x29A PUSH1 0x4 DUP1 CALLDATASIZE SUB DUP2 ADD SWAP1 PUSH2 0x295 SWAP2 SWAP1 PUSH2 0x1910 JUMP JUMPDEST PUSH2 0x6AC JUMP JUMPDEST PUSH1 0x40 MLOAD PUSH2 0x2A7 SWAP2 SWAP1 PUSH2 0x19A3 JUMP JUMPDEST PUSH1 0x40 MLOAD DUP1 SWAP2 SUB SWAP1 RETURN JUMPDEST PUSH0 DUP1 PUSH0 DUP1 PUSH2 0x2BD DUP6 PUSH2 0x742 JUMP JUMPDEST POP SWAP3 POP SWAP3 POP SWAP3 POP DUP3 DUP1 ISZERO PUSH2 0x2CE JUMPI POP DUP2 JUMPDEST DUP1 ISZERO PUSH2 0x2D7 JUMPI POP DUP1 JUMPDEST SWAP4 POP POP POP POP SWAP2 SWAP1 POP JUMP JUMPDEST DUP1 PUSH1 0x3 DUP2 SWAP1 SSTORE POP POP JUMP JUMPDEST PUSH0 PUSH2 0x2F4 PUSH2 0x329 JUMP JUMPDEST PUSH20 0xFFFFFFFFFFFFFFFFFFFFFFFFFFFFFFFFFFFFFFFF AND DUP3 PUSH20 0xFFFFFFFFFFFFFFFFFFFFFFFFFFFFFFFFFFFFFFFF AND EQ SWAP1 POP SWAP2 SWAP1 POP JUMP JUMPDEST PUSH0 PUSH32 0x0 SWAP1 POP SWAP1 JUMP JUMPDEST PUSH0 PUSH1 0x2 PUSH0 DUP4 PUSH20 0xFFFFFFFFFFFFFFFFFFFFFFFFFFFFFFFFFFFFFFFF AND PUSH20 0xFFFFFFFFFFFFFFFFFFFFFFFFFFFFFFFFFFFFFFFF AND DUP2 MSTORE PUSH1 0x20 ADD SWAP1 DUP2 MSTORE PUSH1 0x20 ADD PUSH0 KECCAK256 SLOAD SWAP1 POP SWAP2 SWAP1 POP JUMP JUMPDEST PUSH1 0x3 SLOAD DUP2 JUMP JUMPDEST PUSH0 PUSH1 0x60 DUP1 PUSH0 DUP1 PUSH0 PUSH1 0x60 PUSH2 0x3AD PUSH2 0x7E9 JUMP JUMPDEST PUSH2 0x3B5 PUSH2 0x823 JUMP JUMPDEST CHAINID ADDRESS PUSH0 DUP1 SHL PUSH0 PUSH8 0xFFFFFFFFFFFFFFFF DUP2 GT ISZERO PUSH2 0x3D4 JUMPI PUSH2 0x3D3 PUSH2 0x17EC JUMP JUMPDEST JUMPDEST PUSH1 0x40 MLOAD SWAP1 DUP1 DUP3 MSTORE DUP1 PUSH1 0x20 MUL PUSH1 0x20 ADD DUP3 ADD PUSH1 0x40 MSTORE DUP1 ISZERO PUSH2 0x402 JUMPI DUP2 PUSH1 0x20 ADD PUSH1 0x20 DUP3 MUL DUP1 CALLDATASIZE DUP4 CALLDATACOPY DUP1 DUP3 ADD SWAP2 POP POP SWAP1 POP JUMPDEST POP PUSH32 0xF00000000000000000000000000000000000000000000000000000000000000 SWAP6 SWAP5 SWAP4 SWAP3 SWAP2 SWAP1 SWAP7 POP SWAP7 POP SWAP7 POP SWAP7 POP SWAP7 POP SWAP7 POP SWAP7 POP SWAP1 SWAP2 SWAP3 SWAP4 SWAP5 SWAP6 SWAP7 JUMP JUMPDEST PUSH0 DUP1 PUSH20 0xFFFFFFFFFFFFFFFFFFFFFFFFFFFFFFFFFFFFFFFF AND DUP3 PUSH20 0xFFFFFFFFFFFFFFFFFFFFFFFFFFFFFFFFFFFFFFFF AND EQ SWAP1 POP PUSH0 DUP1 PUSH0 JUMPDEST DUP7 DUP7 SWAP1 POP DUP2 LT ISZERO PUSH2 0x531 JUMPI DUP7 DUP7 DUP3 DUP2 DUP2 LT PUSH2 0x495 JUMPI PUSH2 0x494 PUSH2 0x19BC JUMP JUMPDEST JUMPDEST SWAP1 POP PUSH1 0x20 MUL DUP2 ADD SWAP1 PUSH2 0x4A7 SWAP2 SWAP1 PUSH2 0x19F5 JUMP JUMPDEST PUSH1 0x40 ADD CALLDATALOAD DUP4 PUSH2 0x4B6 SWAP2 SWAP1 PUSH2 0x1A49 JUMP JUMPDEST SWAP3 POP PUSH0 PUSH2 0x4E7 DUP9 DUP9 DUP5 DUP2 DUP2 LT PUSH2 0x4CF JUMPI PUSH2 0x4CE PUSH2 0x19BC JUMP JUMPDEST JUMPDEST SWAP1 POP PUSH1 0x20 MUL DUP2 ADD SWAP1 PUSH2 0x4E1 SWAP2 SWAP1 PUSH2 0x19F5 JUMP JUMPDEST DUP7 PUSH2 0x85E JUMP JUMPDEST SWAP1 POP DUP1 PUSH2 0x525 JUMPI DUP8 DUP8 DUP4 DUP2 DUP2 LT PUSH2 0x501 JUMPI PUSH2 0x500 PUSH2 0x19BC JUMP JUMPDEST JUMPDEST SWAP1 POP PUSH1 0x20 MUL DUP2 ADD SWAP1 PUSH2 0x513 SWAP2 SWAP1 PUSH2 0x19F5 JUMP JUMPDEST PUSH1 0x40 ADD CALLDATALOAD DUP4 PUSH2 0x522 SWAP2 SWAP1 PUSH2 0x1A49 JUMP JUMPDEST SWAP3 POP JUMPDEST POP DUP1 PUSH1 0x1 ADD SWAP1 POP PUSH2 0x477 JUMP JUMPDEST POP CALLVALUE DUP3 EQ PUSH2 0x578 JUMPI DUP2 CALLVALUE PUSH1 0x40 MLOAD PUSH32 0x70647F7900000000000000000000000000000000000000000000000000000000 DUP2 MSTORE PUSH1 0x4 ADD PUSH2 0x56F SWAP3 SWAP2 SWAP1 PUSH2 0x1A7C JUMP JUMPDEST PUSH1 0x40 MLOAD DUP1 SWAP2 SUB SWAP1 REVERT JUMPDEST PUSH0 DUP2 EQ PUSH2 0x58A JUMPI PUSH2 0x589 DUP5 DUP3 PUSH2 0xA87 JUMP JUMPDEST JUMPDEST POP POP POP POP POP POP JUMP JUMPDEST PUSH2 0x59B DUP2 PUSH2 0x2B0 JUMP JUMPDEST PUSH2 0x5DA JUMPI PUSH1 0x40 MLOAD PUSH32 0x8C379A000000000000000000000000000000000000000000000000000000000 DUP2 MSTORE PUSH1 0x4 ADD PUSH2 0x5D1 SWAP1 PUSH2 0x1AED JUMP JUMPDEST PUSH1 0x40 MLOAD DUP1 SWAP2 SUB SWAP1 REVERT JUMPDEST PUSH2 0x5F4 DUP2 PUSH0 ADD PUSH1 0x20 DUP2 ADD SWAP1 PUSH2 0x5EF SWAP2 SWAP1 PUSH2 0x145F JUMP JUMPDEST PUSH2 0xB70 JUMP JUMPDEST POP PUSH2 0x5FE DUP2 PUSH2 0x61A JUMP JUMPDEST POP JUMP JUMPDEST PUSH1 0x3 PUSH0 DUP2 SLOAD DUP1 SWAP3 SWAP2 SWAP1 PUSH2 0x613 SWAP1 PUSH2 0x1B0B JUMP JUMPDEST SWAP2 SWAP1 POP SSTORE POP JUMP JUMPDEST DUP1 PUSH1 0x40 ADD CALLDATALOAD CALLVALUE EQ PUSH2 0x668 JUMPI DUP1 PUSH1 0x40 ADD CALLDATALOAD CALLVALUE PUSH1 0x40 MLOAD PUSH32 0x70647F7900000000000000000000000000000000000000000000000000000000 DUP2 MSTORE PUSH1 0x4 ADD PUSH2 0x65F SWAP3 SWAP2 SWAP1 PUSH2 0x1A7C JUMP JUMPDEST PUSH1 0x40 MLOAD DUP1 SWAP2 SUB SWAP1 REVERT JUMPDEST PUSH2 0x673 DUP2 PUSH1 0x1 PUSH2 0x85E JUMP JUMPDEST PUSH2 0x6A9 JUMPI PUSH1 0x40 MLOAD PUSH32 0x1425EA4200000000000000000000000000000000000000000000000000000000 DUP2 MSTORE PUSH1 0x4 ADD PUSH1 0x40 MLOAD DUP1 SWAP2 SUB SWAP1 REVERT JUMPDEST POP JUMP JUMPDEST PUSH0 PUSH2 0x6C4 PUSH3 0x15180 TIMESTAMP PUSH2 0x6BF SWAP2 SWAP1 PUSH2 0x1A49 JUMP JUMPDEST PUSH2 0xBC3 JUMP JUMPDEST PUSH2 0x737 PUSH32 0x7F96328B83274EBC7C1CF4F7A3ABDA602B51A78B7FA1D86A2CE353D75E587CAC DUP8 DUP8 DUP8 DUP8 PUSH2 0x6F5 DUP13 PUSH2 0x350 JUMP JUMPDEST PUSH3 0x15180 TIMESTAMP PUSH2 0x704 SWAP2 SWAP1 PUSH2 0x1A49 JUMP JUMPDEST DUP10 PUSH1 0x40 MLOAD PUSH1 0x20 ADD PUSH2 0x71C SWAP9 SWAP8 SWAP7 SWAP6 SWAP5 SWAP4 SWAP3 SWAP2 SWAP1 PUSH2 0x1BA4 JUMP JUMPDEST PUSH1 0x40 MLOAD PUSH1 0x20 DUP2 DUP4 SUB SUB DUP2 MSTORE SWAP1 PUSH1 0x40 MSTORE DUP1 MLOAD SWAP1 PUSH1 0x20 ADD KECCAK256 PUSH2 0xC5C JUMP JUMPDEST SWAP1 POP SWAP6 SWAP5 POP POP POP POP POP JUMP JUMPDEST PUSH0 DUP1 PUSH0 DUP1 PUSH0 DUP1 PUSH2 0x751 DUP8 PUSH2 0xC75 JUMP JUMPDEST SWAP2 POP SWAP2 POP PUSH2 0x770 DUP8 PUSH1 0x20 ADD PUSH1 0x20 DUP2 ADD SWAP1 PUSH2 0x76B SWAP2 SWAP1 PUSH2 0x145F JUMP JUMPDEST PUSH2 0xDEC JUMP JUMPDEST TIMESTAMP DUP9 PUSH1 0x80 ADD PUSH1 0x20 DUP2 ADD SWAP1 PUSH2 0x784 SWAP2 SWAP1 PUSH2 0x1C62 JUMP JUMPDEST PUSH6 0xFFFFFFFFFFFF AND LT ISZERO DUP4 DUP1 ISZERO PUSH2 0x7D7 JUMPI POP DUP9 PUSH0 ADD PUSH1 0x20 DUP2 ADD SWAP1 PUSH2 0x7A8 SWAP2 SWAP1 PUSH2 0x145F JUMP JUMPDEST PUSH20 0xFFFFFFFFFFFFFFFFFFFFFFFFFFFFFFFFFFFFFFFF AND DUP4 PUSH20 0xFFFFFFFFFFFFFFFFFFFFFFFFFFFFFFFFFFFFFFFF AND EQ JUMPDEST DUP4 SWAP6 POP SWAP6 POP SWAP6 POP SWAP6 POP POP POP SWAP2 SWAP4 POP SWAP2 SWAP4 JUMP JUMPDEST PUSH1 0x60 PUSH2 0x81E PUSH0 PUSH32 0x0 PUSH2 0xE82 SWAP1 SWAP2 SWAP1 PUSH4 0xFFFFFFFF AND JUMP JUMPDEST SWAP1 POP SWAP1 JUMP JUMPDEST PUSH1 0x60 PUSH2 0x859 PUSH1 0x1 PUSH32 0x0 PUSH2 0xE82 SWAP1 SWAP2 SWAP1 PUSH4 0xFFFFFFFF AND JUMP JUMPDEST SWAP1 POP SWAP1 JUMP JUMPDEST PUSH0 DUP1 PUSH0 DUP1 PUSH0 PUSH2 0x86C DUP8 PUSH2 0x742 JUMP JUMPDEST SWAP4 POP SWAP4 POP SWAP4 POP SWAP4 POP DUP6 ISZERO PUSH2 0x97A JUMPI DUP4 PUSH2 0x8D0 JUMPI DUP7 PUSH1 0x20 ADD PUSH1 0x20 DUP2 ADD SWAP1 PUSH2 0x892 SWAP2 SWAP1 PUSH2 0x145F JUMP JUMPDEST ADDRESS PUSH1 0x40 MLOAD PUSH32 0xD2650CD100000000000000000000000000000000000000000000000000000000 DUP2 MSTORE PUSH1 0x4 ADD PUSH2 0x8C7 SWAP3 SWAP2 SWAP1 PUSH2 0x1C8D JUMP JUMPDEST PUSH1 0x40 MLOAD DUP1 SWAP2 SUB SWAP1 REVERT JUMPDEST DUP3 PUSH2 0x924 JUMPI DUP7 PUSH1 0x80 ADD PUSH1 0x20 DUP2 ADD SWAP1 PUSH2 0x8E8 SWAP2 SWAP1 PUSH2 0x1C62 JUMP JUMPDEST PUSH1 0x40 MLOAD PUSH32 0x94EEF58A00000000000000000000000000000000000000000000000000000000 DUP2 MSTORE PUSH1 0x4 ADD PUSH2 0x91B SWAP2 SWAP1 PUSH2 0x1CC3 JUMP JUMPDEST PUSH1 0x40 MLOAD DUP1 SWAP2 SUB SWAP1 REVERT JUMPDEST DUP2 PUSH2 0x979 JUMPI DUP1 DUP8 PUSH0 ADD PUSH1 0x20 DUP2 ADD SWAP1 PUSH2 0x93C SWAP2 SWAP1 PUSH2 0x145F JUMP JUMPDEST PUSH1 0x40 MLOAD PUSH32 0xC845A05600000000000000000000000000000000000000000000000000000000 DUP2 MSTORE PUSH1 0x4 ADD PUSH2 0x970 SWAP3 SWAP2 SWAP1 PUSH2 0x1C8D JUMP JUMPDEST PUSH1 0x40 MLOAD DUP1 SWAP2 SUB SWAP1 REVERT JUMPDEST JUMPDEST DUP4 DUP1 ISZERO PUSH2 0x984 JUMPI POP DUP2 JUMPDEST DUP1 ISZERO PUSH2 0x98D JUMPI POP DUP3 JUMPDEST ISZERO PUSH2 0xA7D JUMPI PUSH0 PUSH2 0x99C DUP3 PUSH2 0xB70 JUMP JUMPDEST SWAP1 POP PUSH0 DUP9 PUSH1 0x60 ADD CALLDATALOAD SWAP1 POP PUSH0 DUP10 PUSH1 0x20 ADD PUSH1 0x20 DUP2 ADD SWAP1 PUSH2 0x9BA SWAP2 SWAP1 PUSH2 0x145F JUMP JUMPDEST SWAP1 POP PUSH0 DUP11 PUSH1 0x40 ADD CALLDATALOAD SWAP1 POP PUSH0 DUP12 DUP1 PUSH1 0xA0 ADD SWAP1 PUSH2 0x9D5 SWAP2 SWAP1 PUSH2 0x1CDC JUMP JUMPDEST DUP14 PUSH0 ADD PUSH1 0x20 DUP2 ADD SWAP1 PUSH2 0x9E7 SWAP2 SWAP1 PUSH2 0x145F JUMP JUMPDEST PUSH1 0x40 MLOAD PUSH1 0x20 ADD PUSH2 0x9F9 SWAP4 SWAP3 SWAP2 SWAP1 PUSH2 0x1DB1 JUMP JUMPDEST PUSH1 0x40 MLOAD PUSH1 0x20 DUP2 DUP4 SUB SUB DUP2 MSTORE SWAP1 PUSH1 0x40 MSTORE SWAP1 POP PUSH0 DUP1 PUSH0 DUP4 MLOAD PUSH1 0x20 DUP6 ADD DUP7 DUP9 DUP11 CALL SWAP11 POP GAS SWAP1 POP PUSH2 0xA26 DUP2 DUP15 PUSH2 0xF2F JUMP JUMPDEST DUP7 PUSH20 0xFFFFFFFFFFFFFFFFFFFFFFFFFFFFFFFFFFFFFFFF AND PUSH32 0x842FB24A83793558587A3DAB2BE7674DA4A51D09C5542D6DD354E5D0EA70813C DUP8 DUP14 PUSH1 0x40 MLOAD PUSH2 0xA6E SWAP3 SWAP2 SWAP1 PUSH2 0x1DDA JUMP JUMPDEST PUSH1 0x40 MLOAD DUP1 SWAP2 SUB SWAP1 LOG2 POP POP POP POP POP POP JUMPDEST POP POP POP POP SWAP3 SWAP2 POP POP JUMP JUMPDEST DUP1 SELFBALANCE LT ISZERO PUSH2 0xACC JUMPI ADDRESS PUSH1 0x40 MLOAD PUSH32 0xCD78605900000000000000000000000000000000000000000000000000000000 DUP2 MSTORE PUSH1 0x4 ADD PUSH2 0xAC3 SWAP2 SWAP1 PUSH2 0x1499 JUMP JUMPDEST PUSH1 0x40 MLOAD DUP1 SWAP2 SUB SWAP1 REVERT JUMPDEST PUSH0 DUP3 PUSH20 0xFFFFFFFFFFFFFFFFFFFFFFFFFFFFFFFFFFFFFFFF AND DUP3 PUSH1 0x40 MLOAD PUSH2 0xAF1 SWAP1 PUSH2 0x1E24 JUMP JUMPDEST PUSH0 PUSH1 0x40 MLOAD DUP1 DUP4 SUB DUP2 DUP6 DUP8 GAS CALL SWAP3 POP POP POP RETURNDATASIZE DUP1 PUSH0 DUP2 EQ PUSH2 0xB2B JUMPI PUSH1 0x40 MLOAD SWAP2 POP PUSH1 0x1F NOT PUSH1 0x3F RETURNDATASIZE ADD AND DUP3 ADD PUSH1 0x40 MSTORE RETURNDATASIZE DUP3 MSTORE RETURNDATASIZE PUSH0 PUSH1 0x20 DUP5 ADD RETURNDATACOPY PUSH2 0xB30 JUMP JUMPDEST PUSH1 0x60 SWAP2 POP JUMPDEST POP POP SWAP1 POP DUP1 PUSH2 0xB6B JUMPI PUSH1 0x40 MLOAD PUSH32 0x1425EA4200000000000000000000000000000000000000000000000000000000 DUP2 MSTORE PUSH1 0x4 ADD PUSH1 0x40 MLOAD DUP1 SWAP2 SUB SWAP1 REVERT JUMPDEST POP POP POP JUMP JUMPDEST PUSH0 PUSH1 0x2 PUSH0 DUP4 PUSH20 0xFFFFFFFFFFFFFFFFFFFFFFFFFFFFFFFFFFFFFFFF AND PUSH20 0xFFFFFFFFFFFFFFFFFFFFFFFFFFFFFFFFFFFFFFFF AND DUP2 MSTORE PUSH1 0x20 ADD SWAP1 DUP2 MSTORE PUSH1 0x20 ADD PUSH0 KECCAK256 PUSH0 DUP2 SLOAD DUP1 SWAP3 SWAP2 SWAP1 PUSH1 0x1 ADD SWAP2 SWAP1 POP SSTORE SWAP1 POP SWAP2 SWAP1 POP JUMP JUMPDEST PUSH2 0xC59 DUP2 PUSH1 0x40 MLOAD PUSH1 0x24 ADD PUSH2 0xBD7 SWAP2 SWAP1 PUSH2 0x14C1 JUMP JUMPDEST PUSH1 0x40 MLOAD PUSH1 0x20 DUP2 DUP4 SUB SUB DUP2 MSTORE SWAP1 PUSH1 0x40 MSTORE PUSH32 0xF5B1BBA900000000000000000000000000000000000000000000000000000000 PUSH28 0xFFFFFFFFFFFFFFFFFFFFFFFFFFFFFFFFFFFFFFFFFFFFFFFFFFFFFFFF NOT AND PUSH1 0x20 DUP3 ADD DUP1 MLOAD PUSH28 0xFFFFFFFFFFFFFFFFFFFFFFFFFFFFFFFFFFFFFFFFFFFFFFFFFFFFFFFF DUP4 DUP2 DUP4 AND OR DUP4 MSTORE POP POP POP POP PUSH2 0xF4D JUMP JUMPDEST POP JUMP JUMPDEST PUSH0 PUSH2 0xC6E PUSH2 0xC68 PUSH2 0xF73 JUMP JUMPDEST DUP4 PUSH2 0x1029 JUMP JUMPDEST SWAP1 POP SWAP2 SWAP1 POP JUMP JUMPDEST PUSH0 DUP1 PUSH0 DUP1 PUSH2 0xDB4 DUP6 DUP1 PUSH1 0xC0 ADD SWAP1 PUSH2 0xC8C SWAP2 SWAP1 PUSH2 0x1CDC JUMP JUMPDEST DUP1 DUP1 PUSH1 0x1F ADD PUSH1 0x20 DUP1 SWAP2 DIV MUL PUSH1 0x20 ADD PUSH1 0x40 MLOAD SWAP1 DUP2 ADD PUSH1 0x40 MSTORE DUP1 SWAP4 SWAP3 SWAP2 SWAP1 DUP2 DUP2 MSTORE PUSH1 0x20 ADD DUP4 DUP4 DUP1 DUP3 DUP5 CALLDATACOPY PUSH0 DUP2 DUP5 ADD MSTORE PUSH1 0x1F NOT PUSH1 0x1F DUP3 ADD AND SWAP1 POP DUP1 DUP4 ADD SWAP3 POP POP POP POP POP POP POP PUSH2 0xDA6 PUSH32 0x7F96328B83274EBC7C1CF4F7A3ABDA602B51A78B7FA1D86A2CE353D75E587CAC DUP9 PUSH0 ADD PUSH1 0x20 DUP2 ADD SWAP1 PUSH2 0xD04 SWAP2 SWAP1 PUSH2 0x145F JUMP JUMPDEST DUP10 PUSH1 0x20 ADD PUSH1 0x20 DUP2 ADD SWAP1 PUSH2 0xD17 SWAP2 SWAP1 PUSH2 0x145F JUMP JUMPDEST DUP11 PUSH1 0x40 ADD CALLDATALOAD DUP12 PUSH1 0x60 ADD CALLDATALOAD PUSH2 0xD3B DUP14 PUSH0 ADD PUSH1 0x20 DUP2 ADD SWAP1 PUSH2 0xD36 SWAP2 SWAP1 PUSH2 0x145F JUMP JUMPDEST PUSH2 0x350 JUMP JUMPDEST DUP14 PUSH1 0x80 ADD PUSH1 0x20 DUP2 ADD SWAP1 PUSH2 0xD4E SWAP2 SWAP1 PUSH2 0x1C62 JUMP JUMPDEST DUP15 DUP1 PUSH1 0xA0 ADD SWAP1 PUSH2 0xD5E SWAP2 SWAP1 PUSH2 0x1CDC JUMP JUMPDEST PUSH1 0x40 MLOAD PUSH2 0xD6C SWAP3 SWAP2 SWAP1 PUSH2 0x1E38 JUMP JUMPDEST PUSH1 0x40 MLOAD DUP1 SWAP2 SUB SWAP1 KECCAK256 PUSH1 0x40 MLOAD PUSH1 0x20 ADD PUSH2 0xD8B SWAP9 SWAP8 SWAP7 SWAP6 SWAP5 SWAP4 SWAP3 SWAP2 SWAP1 PUSH2 0x1E50 JUMP JUMPDEST PUSH1 0x40 MLOAD PUSH1 0x20 DUP2 DUP4 SUB SUB DUP2 MSTORE SWAP1 PUSH1 0x40 MSTORE DUP1 MLOAD SWAP1 PUSH1 0x20 ADD KECCAK256 PUSH2 0xC5C JUMP JUMPDEST PUSH2 0x1069 SWAP1 SWAP2 SWAP1 PUSH4 0xFFFFFFFF AND JUMP JUMPDEST POP SWAP2 POP SWAP2 POP PUSH0 PUSH1 0x3 DUP2 GT ISZERO PUSH2 0xDCC JUMPI PUSH2 0xDCB PUSH2 0x1ECC JUMP JUMPDEST JUMPDEST DUP2 PUSH1 0x3 DUP2 GT ISZERO PUSH2 0xDDF JUMPI PUSH2 0xDDE PUSH2 0x1ECC JUMP JUMPDEST JUMPDEST EQ DUP3 SWAP4 POP SWAP4 POP POP POP SWAP2 POP SWAP2 JUMP JUMPDEST PUSH0 DUP1 ADDRESS PUSH1 0x40 MLOAD PUSH1 0x24 ADD PUSH2 0xDFF SWAP2 SWAP1 PUSH2 0x1499 JUMP JUMPDEST PUSH1 0x40 MLOAD PUSH1 0x20 DUP2 DUP4 SUB SUB DUP2 MSTORE SWAP1 PUSH1 0x40 MSTORE PUSH4 0x572B6C05 PUSH1 0xE0 SHL PUSH1 0x20 DUP3 ADD DUP1 MLOAD PUSH28 0xFFFFFFFFFFFFFFFFFFFFFFFFFFFFFFFFFFFFFFFFFFFFFFFFFFFFFFFF DUP4 DUP2 DUP4 AND OR DUP4 MSTORE POP POP POP POP SWAP1 POP PUSH0 DUP1 PUSH0 PUSH1 0x20 PUSH0 DUP6 MLOAD PUSH1 0x20 DUP8 ADD DUP10 GAS STATICCALL SWAP3 POP RETURNDATASIZE SWAP2 POP PUSH0 MLOAD SWAP1 POP DUP3 DUP1 ISZERO PUSH2 0xE6C JUMPI POP PUSH1 0x20 DUP3 LT ISZERO JUMPDEST DUP1 ISZERO PUSH2 0xE77 JUMPI POP PUSH0 DUP2 GT JUMPDEST SWAP5 POP POP POP POP POP SWAP2 SWAP1 POP JUMP JUMPDEST PUSH1 0x60 PUSH1 0xFF PUSH0 SHL DUP4 EQ PUSH2 0xE9E JUMPI PUSH2 0xE97 DUP4 PUSH2 0x10BE JUMP JUMPDEST SWAP1 POP PUSH2 0xF29 JUMP JUMPDEST DUP2 DUP1 SLOAD PUSH2 0xEAA SWAP1 PUSH2 0x1F26 JUMP JUMPDEST DUP1 PUSH1 0x1F ADD PUSH1 0x20 DUP1 SWAP2 DIV MUL PUSH1 0x20 ADD PUSH1 0x40 MLOAD SWAP1 DUP2 ADD PUSH1 0x40 MSTORE DUP1 SWAP3 SWAP2 SWAP1 DUP2 DUP2 MSTORE PUSH1 0x20 ADD DUP3 DUP1 SLOAD PUSH2 0xED6 SWAP1 PUSH2 0x1F26 JUMP JUMPDEST DUP1 ISZERO PUSH2 0xF21 JUMPI DUP1 PUSH1 0x1F LT PUSH2 0xEF8 JUMPI PUSH2 0x100 DUP1 DUP4 SLOAD DIV MUL DUP4 MSTORE SWAP2 PUSH1 0x20 ADD SWAP2 PUSH2 0xF21 JUMP JUMPDEST DUP3 ADD SWAP2 SWAP1 PUSH0 MSTORE PUSH1 0x20 PUSH0 KECCAK256 SWAP1 JUMPDEST DUP2 SLOAD DUP2 MSTORE SWAP1 PUSH1 0x1 ADD SWAP1 PUSH1 0x20 ADD DUP1 DUP4 GT PUSH2 0xF04 JUMPI DUP3 SWAP1 SUB PUSH1 0x1F AND DUP3 ADD SWAP2 JUMPDEST POP POP POP POP POP SWAP1 POP JUMPDEST SWAP3 SWAP2 POP POP JUMP JUMPDEST PUSH1 0x3F DUP2 PUSH1 0x60 ADD CALLDATALOAD PUSH2 0xF40 SWAP2 SWAP1 PUSH2 0x1F83 JUMP JUMPDEST DUP3 LT ISZERO PUSH2 0xF49 JUMPI INVALID JUMPDEST POP POP JUMP JUMPDEST PUSH0 DUP2 MLOAD SWAP1 POP PUSH0 PUSH11 0x636F6E736F6C652E6C6F67 SWAP1 POP PUSH1 0x20 DUP4 ADD PUSH0 DUP1 DUP5 DUP4 DUP6 GAS STATICCALL POP POP POP POP POP JUMP JUMPDEST PUSH0 PUSH32 0x0 PUSH20 0xFFFFFFFFFFFFFFFFFFFFFFFFFFFFFFFFFFFFFFFF AND ADDRESS PUSH20 0xFFFFFFFFFFFFFFFFFFFFFFFFFFFFFFFFFFFFFFFF AND EQ DUP1 ISZERO PUSH2 0xFEE JUMPI POP PUSH32 0x0 CHAINID EQ JUMPDEST ISZERO PUSH2 0x101B JUMPI PUSH32 0x0 SWAP1 POP PUSH2 0x1026 JUMP JUMPDEST PUSH2 0x1023 PUSH2 0x1130 JUMP JUMPDEST SWAP1 POP JUMPDEST SWAP1 JUMP JUMPDEST PUSH0 PUSH1 0x40 MLOAD PUSH32 0x1901000000000000000000000000000000000000000000000000000000000000 DUP2 MSTORE DUP4 PUSH1 0x2 DUP3 ADD MSTORE DUP3 PUSH1 0x22 DUP3 ADD MSTORE PUSH1 0x42 DUP2 KECCAK256 SWAP2 POP POP SWAP3 SWAP2 POP POP JUMP JUMPDEST PUSH0 DUP1 PUSH0 PUSH1 0x41 DUP5 MLOAD SUB PUSH2 0x10A9 JUMPI PUSH0 DUP1 PUSH0 PUSH1 0x20 DUP8 ADD MLOAD SWAP3 POP PUSH1 0x40 DUP8 ADD MLOAD SWAP2 POP PUSH1 0x60 DUP8 ADD MLOAD PUSH0 BYTE SWAP1 POP PUSH2 0x109B DUP9 DUP3 DUP6 DUP6 PUSH2 0x11C5 JUMP JUMPDEST SWAP6 POP SWAP6 POP SWAP6 POP POP POP POP PUSH2 0x10B7 JUMP JUMPDEST PUSH0 PUSH1 0x2 DUP6 MLOAD PUSH0 SHL SWAP3 POP SWAP3 POP SWAP3 POP JUMPDEST SWAP3 POP SWAP3 POP SWAP3 JUMP JUMPDEST PUSH1 0x60 PUSH0 PUSH2 0x10CA DUP4 PUSH2 0x12AC JUMP JUMPDEST SWAP1 POP PUSH0 PUSH1 0x20 PUSH8 0xFFFFFFFFFFFFFFFF DUP2 GT ISZERO PUSH2 0x10E8 JUMPI PUSH2 0x10E7 PUSH2 0x17EC JUMP JUMPDEST JUMPDEST PUSH1 0x40 MLOAD SWAP1 DUP1 DUP3 MSTORE DUP1 PUSH1 0x1F ADD PUSH1 0x1F NOT AND PUSH1 0x20 ADD DUP3 ADD PUSH1 0x40 MSTORE DUP1 ISZERO PUSH2 0x111A JUMPI DUP2 PUSH1 0x20 ADD PUSH1 0x1 DUP3 MUL DUP1 CALLDATASIZE DUP4 CALLDATACOPY DUP1 DUP3 ADD SWAP2 POP POP SWAP1 POP JUMPDEST POP SWAP1 POP DUP2 DUP2 MSTORE DUP4 PUSH1 0x20 DUP3 ADD MSTORE DUP1 SWAP3 POP POP POP SWAP2 SWAP1 POP JUMP JUMPDEST PUSH0 PUSH32 0x8B73C3C69BB8FE3D512ECC4CF759CC79239F7B179B0FFACAA9A75D522B39400F PUSH32 0x0 PUSH32 0x0 CHAINID ADDRESS PUSH1 0x40 MLOAD PUSH1 0x20 ADD PUSH2 0x11AA SWAP6 SWAP5 SWAP4 SWAP3 SWAP2 SWAP1 PUSH2 0x1FB3 JUMP JUMPDEST PUSH1 0x40 MLOAD PUSH1 0x20 DUP2 DUP4 SUB SUB DUP2 MSTORE SWAP1 PUSH1 0x40 MSTORE DUP1 MLOAD SWAP1 PUSH1 0x20 ADD KECCAK256 SWAP1 POP SWAP1 JUMP JUMPDEST PUSH0 DUP1 PUSH0 PUSH32 0x7FFFFFFFFFFFFFFFFFFFFFFFFFFFFFFF5D576E7357A4501DDFE92F46681B20A0 DUP5 PUSH0 SHR GT ISZERO PUSH2 0x1201 JUMPI PUSH0 PUSH1 0x3 DUP6 SWAP3 POP SWAP3 POP SWAP3 POP PUSH2 0x12A2 JUMP JUMPDEST PUSH0 PUSH1 0x1 DUP9 DUP9 DUP9 DUP9 PUSH1 0x40 MLOAD PUSH0 DUP2 MSTORE PUSH1 0x20 ADD PUSH1 0x40 MSTORE PUSH1 0x40 MLOAD PUSH2 0x1224 SWAP5 SWAP4 SWAP3 SWAP2 SWAP1 PUSH2 0x201F JUMP JUMPDEST PUSH1 0x20 PUSH1 0x40 MLOAD PUSH1 0x20 DUP2 SUB SWAP1 DUP1 DUP5 SUB SWAP1 DUP6 GAS STATICCALL ISZERO DUP1 ISZERO PUSH2 0x1244 JUMPI RETURNDATASIZE PUSH0 DUP1 RETURNDATACOPY RETURNDATASIZE PUSH0 REVERT JUMPDEST POP POP POP PUSH1 0x20 PUSH1 0x40 MLOAD SUB MLOAD SWAP1 POP PUSH0 PUSH20 0xFFFFFFFFFFFFFFFFFFFFFFFFFFFFFFFFFFFFFFFF AND DUP2 PUSH20 0xFFFFFFFFFFFFFFFFFFFFFFFFFFFFFFFFFFFFFFFF AND SUB PUSH2 0x1295 JUMPI PUSH0 PUSH1 0x1 PUSH0 DUP1 SHL SWAP4 POP SWAP4 POP SWAP4 POP POP PUSH2 0x12A2 JUMP JUMPDEST DUP1 PUSH0 DUP1 PUSH0 SHL SWAP4 POP SWAP4 POP SWAP4 POP POP JUMPDEST SWAP5 POP SWAP5 POP SWAP5 SWAP2 POP POP JUMP JUMPDEST PUSH0 DUP1 PUSH1 0xFF DUP4 PUSH0 SHR AND SWAP1 POP PUSH1 0x1F DUP2 GT ISZERO PUSH2 0x12F1 JUMPI PUSH1 0x40 MLOAD PUSH32 0xB3512B0C00000000000000000000000000000000000000000000000000000000 DUP2 MSTORE PUSH1 0x4 ADD PUSH1 0x40 MLOAD DUP1 SWAP2 SUB SWAP1 REVERT JUMPDEST DUP1 SWAP2 POP POP SWAP2 SWAP1 POP JUMP JUMPDEST PUSH0 PUSH1 0x40 MLOAD SWAP1 POP SWAP1 JUMP JUMPDEST PUSH0 DUP1 REVERT JUMPDEST PUSH0 DUP1 REVERT JUMPDEST PUSH0 DUP1 REVERT JUMPDEST PUSH0 PUSH1 0xE0 DUP3 DUP5 SUB SLT ISZERO PUSH2 0x1324 JUMPI PUSH2 0x1323 PUSH2 0x130B JUMP JUMPDEST JUMPDEST DUP2 SWAP1 POP SWAP3 SWAP2 POP POP JUMP JUMPDEST PUSH0 PUSH1 0x20 DUP3 DUP5 SUB SLT ISZERO PUSH2 0x1342 JUMPI PUSH2 0x1341 PUSH2 0x1303 JUMP JUMPDEST JUMPDEST PUSH0 DUP3 ADD CALLDATALOAD PUSH8 0xFFFFFFFFFFFFFFFF DUP2 GT ISZERO PUSH2 0x135F JUMPI PUSH2 0x135E PUSH2 0x1307 JUMP JUMPDEST JUMPDEST PUSH2 0x136B DUP5 DUP3 DUP6 ADD PUSH2 0x130F JUMP JUMPDEST SWAP2 POP POP SWAP3 SWAP2 POP POP JUMP JUMPDEST PUSH0 DUP2 ISZERO ISZERO SWAP1 POP SWAP2 SWAP1 POP JUMP JUMPDEST PUSH2 0x1388 DUP2 PUSH2 0x1374 JUMP JUMPDEST DUP3 MSTORE POP POP JUMP JUMPDEST PUSH0 PUSH1 0x20 DUP3 ADD SWAP1 POP PUSH2 0x13A1 PUSH0 DUP4 ADD DUP5 PUSH2 0x137F JUMP JUMPDEST SWAP3 SWAP2 POP POP JUMP JUMPDEST PUSH0 DUP2 SWAP1 POP SWAP2 SWAP1 POP JUMP JUMPDEST PUSH2 0x13B9 DUP2 PUSH2 0x13A7 JUMP JUMPDEST DUP2 EQ PUSH2 0x13C3 JUMPI PUSH0 DUP1 REVERT JUMPDEST POP JUMP JUMPDEST PUSH0 DUP2 CALLDATALOAD SWAP1 POP PUSH2 0x13D4 DUP2 PUSH2 0x13B0 JUMP JUMPDEST SWAP3 SWAP2 POP POP JUMP JUMPDEST PUSH0 PUSH1 0x20 DUP3 DUP5 SUB SLT ISZERO PUSH2 0x13EF JUMPI PUSH2 0x13EE PUSH2 0x1303 JUMP JUMPDEST JUMPDEST PUSH0 PUSH2 0x13FC DUP5 DUP3 DUP6 ADD PUSH2 0x13C6 JUMP JUMPDEST SWAP2 POP POP SWAP3 SWAP2 POP POP JUMP JUMPDEST PUSH0 PUSH20 0xFFFFFFFFFFFFFFFFFFFFFFFFFFFFFFFFFFFFFFFF DUP3 AND SWAP1 POP SWAP2 SWAP1 POP JUMP JUMPDEST PUSH0 PUSH2 0x142E DUP3 PUSH2 0x1405 JUMP JUMPDEST SWAP1 POP SWAP2 SWAP1 POP JUMP JUMPDEST PUSH2 0x143E DUP2 PUSH2 0x1424 JUMP JUMPDEST DUP2 EQ PUSH2 0x1448 JUMPI PUSH0 DUP1 REVERT JUMPDEST POP JUMP JUMPDEST PUSH0 DUP2 CALLDATALOAD SWAP1 POP PUSH2 0x1459 DUP2 PUSH2 0x1435 JUMP JUMPDEST SWAP3 SWAP2 POP POP JUMP JUMPDEST PUSH0 PUSH1 0x20 DUP3 DUP5 SUB SLT ISZERO PUSH2 0x1474 JUMPI PUSH2 0x1473 PUSH2 0x1303 JUMP JUMPDEST JUMPDEST PUSH0 PUSH2 0x1481 DUP5 DUP3 DUP6 ADD PUSH2 0x144B JUMP JUMPDEST SWAP2 POP POP SWAP3 SWAP2 POP POP JUMP JUMPDEST PUSH2 0x1493 DUP2 PUSH2 0x1424 JUMP JUMPDEST DUP3 MSTORE POP POP JUMP JUMPDEST PUSH0 PUSH1 0x20 DUP3 ADD SWAP1 POP PUSH2 0x14AC PUSH0 DUP4 ADD DUP5 PUSH2 0x148A JUMP JUMPDEST SWAP3 SWAP2 POP POP JUMP JUMPDEST PUSH2 0x14BB DUP2 PUSH2 0x13A7 JUMP JUMPDEST DUP3 MSTORE POP POP JUMP JUMPDEST PUSH0 PUSH1 0x20 DUP3 ADD SWAP1 POP PUSH2 0x14D4 PUSH0 DUP4 ADD DUP5 PUSH2 0x14B2 JUMP JUMPDEST SWAP3 SWAP2 POP POP JUMP JUMPDEST PUSH0 PUSH32 0xFF00000000000000000000000000000000000000000000000000000000000000 DUP3 AND SWAP1 POP SWAP2 SWAP1 POP JUMP JUMPDEST PUSH2 0x150E DUP2 PUSH2 0x14DA JUMP JUMPDEST DUP3 MSTORE POP POP JUMP JUMPDEST PUSH0 DUP2 MLOAD SWAP1 POP SWAP2 SWAP1 POP JUMP JUMPDEST PUSH0 DUP3 DUP3 MSTORE PUSH1 0x20 DUP3 ADD SWAP1 POP SWAP3 SWAP2 POP POP JUMP JUMPDEST PUSH0 JUMPDEST DUP4 DUP2 LT ISZERO PUSH2 0x154B JUMPI DUP1 DUP3 ADD MLOAD DUP2 DUP5 ADD MSTORE PUSH1 0x20 DUP2 ADD SWAP1 POP PUSH2 0x1530 JUMP JUMPDEST PUSH0 DUP5 DUP5 ADD MSTORE POP POP POP POP JUMP JUMPDEST PUSH0 PUSH1 0x1F NOT PUSH1 0x1F DUP4 ADD AND SWAP1 POP SWAP2 SWAP1 POP JUMP JUMPDEST PUSH0 PUSH2 0x1570 DUP3 PUSH2 0x1514 JUMP JUMPDEST PUSH2 0x157A DUP2 DUP6 PUSH2 0x151E JUMP JUMPDEST SWAP4 POP PUSH2 0x158A DUP2 DUP6 PUSH1 0x20 DUP7 ADD PUSH2 0x152E JUMP JUMPDEST PUSH2 0x1593 DUP2 PUSH2 0x1556 JUMP JUMPDEST DUP5 ADD SWAP2 POP POP SWAP3 SWAP2 POP POP JUMP JUMPDEST PUSH0 DUP2 SWAP1 POP SWAP2 SWAP1 POP JUMP JUMPDEST PUSH2 0x15B0 DUP2 PUSH2 0x159E JUMP JUMPDEST DUP3 MSTORE POP POP JUMP JUMPDEST PUSH0 DUP2 MLOAD SWAP1 POP SWAP2 SWAP1 POP JUMP JUMPDEST PUSH0 DUP3 DUP3 MSTORE PUSH1 0x20 DUP3 ADD SWAP1 POP SWAP3 SWAP2 POP POP JUMP JUMPDEST PUSH0 DUP2 SWAP1 POP PUSH1 0x20 DUP3 ADD SWAP1 POP SWAP2 SWAP1 POP JUMP JUMPDEST PUSH2 0x15E8 DUP2 PUSH2 0x13A7 JUMP JUMPDEST DUP3 MSTORE POP POP JUMP JUMPDEST PUSH0 PUSH2 0x15F9 DUP4 DUP4 PUSH2 0x15DF JUMP JUMPDEST PUSH1 0x20 DUP4 ADD SWAP1 POP SWAP3 SWAP2 POP POP JUMP JUMPDEST PUSH0 PUSH1 0x20 DUP3 ADD SWAP1 POP SWAP2 SWAP1 POP JUMP JUMPDEST PUSH0 PUSH2 0x161B DUP3 PUSH2 0x15B6 JUMP JUMPDEST PUSH2 0x1625 DUP2 DUP6 PUSH2 0x15C0 JUMP JUMPDEST SWAP4 POP PUSH2 0x1630 DUP4 PUSH2 0x15D0 JUMP JUMPDEST DUP1 PUSH0 JUMPDEST DUP4 DUP2 LT ISZERO PUSH2 0x1660 JUMPI DUP2 MLOAD PUSH2 0x1647 DUP9 DUP3 PUSH2 0x15EE JUMP JUMPDEST SWAP8 POP PUSH2 0x1652 DUP4 PUSH2 0x1605 JUMP JUMPDEST SWAP3 POP POP PUSH1 0x1 DUP2 ADD SWAP1 POP PUSH2 0x1633 JUMP JUMPDEST POP DUP6 SWAP4 POP POP POP POP SWAP3 SWAP2 POP POP JUMP JUMPDEST PUSH0 PUSH1 0xE0 DUP3 ADD SWAP1 POP PUSH2 0x1680 PUSH0 DUP4 ADD DUP11 PUSH2 0x1505 JUMP JUMPDEST DUP2 DUP2 SUB PUSH1 0x20 DUP4 ADD MSTORE PUSH2 0x1692 DUP2 DUP10 PUSH2 0x1566 JUMP JUMPDEST SWAP1 POP DUP2 DUP2 SUB PUSH1 0x40 DUP4 ADD MSTORE PUSH2 0x16A6 DUP2 DUP9 PUSH2 0x1566 JUMP JUMPDEST SWAP1 POP PUSH2 0x16B5 PUSH1 0x60 DUP4 ADD DUP8 PUSH2 0x14B2 JUMP JUMPDEST PUSH2 0x16C2 PUSH1 0x80 DUP4 ADD DUP7 PUSH2 0x148A JUMP JUMPDEST PUSH2 0x16CF PUSH1 0xA0 DUP4 ADD DUP6 PUSH2 0x15A7 JUMP JUMPDEST DUP2 DUP2 SUB PUSH1 0xC0 DUP4 ADD MSTORE PUSH2 0x16E1 DUP2 DUP5 PUSH2 0x1611 JUMP JUMPDEST SWAP1 POP SWAP9 SWAP8 POP POP POP POP POP POP POP POP JUMP JUMPDEST PUSH0 DUP1 REVERT JUMPDEST PUSH0 DUP1 REVERT JUMPDEST PUSH0 DUP1 REVERT JUMPDEST PUSH0 DUP1 DUP4 PUSH1 0x1F DUP5 ADD SLT PUSH2 0x1710 JUMPI PUSH2 0x170F PUSH2 0x16EF JUMP JUMPDEST JUMPDEST DUP3 CALLDATALOAD SWAP1 POP PUSH8 0xFFFFFFFFFFFFFFFF DUP2 GT ISZERO PUSH2 0x172D JUMPI PUSH2 0x172C PUSH2 0x16F3 JUMP JUMPDEST JUMPDEST PUSH1 0x20 DUP4 ADD SWAP2 POP DUP4 PUSH1 0x20 DUP3 MUL DUP4 ADD GT ISZERO PUSH2 0x1749 JUMPI PUSH2 0x1748 PUSH2 0x16F7 JUMP JUMPDEST JUMPDEST SWAP3 POP SWAP3 SWAP1 POP JUMP JUMPDEST PUSH0 PUSH2 0x175A DUP3 PUSH2 0x1405 JUMP JUMPDEST SWAP1 POP SWAP2 SWAP1 POP JUMP JUMPDEST PUSH2 0x176A DUP2 PUSH2 0x1750 JUMP JUMPDEST DUP2 EQ PUSH2 0x1774 JUMPI PUSH0 DUP1 REVERT JUMPDEST POP JUMP JUMPDEST PUSH0 DUP2 CALLDATALOAD SWAP1 POP PUSH2 0x1785 DUP2 PUSH2 0x1761 JUMP JUMPDEST SWAP3 SWAP2 POP POP JUMP JUMPDEST PUSH0 DUP1 PUSH0 PUSH1 0x40 DUP5 DUP7 SUB SLT ISZERO PUSH2 0x17A2 JUMPI PUSH2 0x17A1 PUSH2 0x1303 JUMP JUMPDEST JUMPDEST PUSH0 DUP5 ADD CALLDATALOAD PUSH8 0xFFFFFFFFFFFFFFFF DUP2 GT ISZERO PUSH2 0x17BF JUMPI PUSH2 0x17BE PUSH2 0x1307 JUMP JUMPDEST JUMPDEST PUSH2 0x17CB DUP7 DUP3 DUP8 ADD PUSH2 0x16FB JUMP JUMPDEST SWAP4 POP SWAP4 POP POP PUSH1 0x20 PUSH2 0x17DE DUP7 DUP3 DUP8 ADD PUSH2 0x1777 JUMP JUMPDEST SWAP2 POP POP SWAP3 POP SWAP3 POP SWAP3 JUMP JUMPDEST PUSH0 DUP1 REVERT JUMPDEST PUSH32 0x4E487B7100000000000000000000000000000000000000000000000000000000 PUSH0 MSTORE PUSH1 0x41 PUSH1 0x4 MSTORE PUSH1 0x24 PUSH0 REVERT JUMPDEST PUSH2 0x1822 DUP3 PUSH2 0x1556 JUMP JUMPDEST DUP2 ADD DUP2 DUP2 LT PUSH8 0xFFFFFFFFFFFFFFFF DUP3 GT OR ISZERO PUSH2 0x1841 JUMPI PUSH2 0x1840 PUSH2 0x17EC JUMP JUMPDEST JUMPDEST DUP1 PUSH1 0x40 MSTORE POP POP POP JUMP JUMPDEST PUSH0 PUSH2 0x1853 PUSH2 0x12FA JUMP JUMPDEST SWAP1 POP PUSH2 0x185F DUP3 DUP3 PUSH2 0x1819 JUMP JUMPDEST SWAP2 SWAP1 POP JUMP JUMPDEST PUSH0 PUSH8 0xFFFFFFFFFFFFFFFF DUP3 GT ISZERO PUSH2 0x187E JUMPI PUSH2 0x187D PUSH2 0x17EC JUMP JUMPDEST JUMPDEST PUSH2 0x1887 DUP3 PUSH2 0x1556 JUMP JUMPDEST SWAP1 POP PUSH1 0x20 DUP2 ADD SWAP1 POP SWAP2 SWAP1 POP JUMP JUMPDEST DUP3 DUP2 DUP4 CALLDATACOPY PUSH0 DUP4 DUP4 ADD MSTORE POP POP POP JUMP JUMPDEST PUSH0 PUSH2 0x18B4 PUSH2 0x18AF DUP5 PUSH2 0x1864 JUMP JUMPDEST PUSH2 0x184A JUMP JUMPDEST SWAP1 POP DUP3 DUP2 MSTORE PUSH1 0x20 DUP2 ADD DUP5 DUP5 DUP5 ADD GT ISZERO PUSH2 0x18D0 JUMPI PUSH2 0x18CF PUSH2 0x17E8 JUMP JUMPDEST JUMPDEST PUSH2 0x18DB DUP5 DUP3 DUP6 PUSH2 0x1894 JUMP JUMPDEST POP SWAP4 SWAP3 POP POP POP JUMP JUMPDEST PUSH0 DUP3 PUSH1 0x1F DUP4 ADD SLT PUSH2 0x18F7 JUMPI PUSH2 0x18F6 PUSH2 0x16EF JUMP JUMPDEST JUMPDEST DUP2 CALLDATALOAD PUSH2 0x1907 DUP5 DUP3 PUSH1 0x20 DUP7 ADD PUSH2 0x18A2 JUMP JUMPDEST SWAP2 POP POP SWAP3 SWAP2 POP POP JUMP JUMPDEST PUSH0 DUP1 PUSH0 DUP1 PUSH0 PUSH1 0xA0 DUP7 DUP9 SUB SLT ISZERO PUSH2 0x1929 JUMPI PUSH2 0x1928 PUSH2 0x1303 JUMP JUMPDEST JUMPDEST PUSH0 PUSH2 0x1936 DUP9 DUP3 DUP10 ADD PUSH2 0x144B JUMP JUMPDEST SWAP6 POP POP PUSH1 0x20 PUSH2 0x1947 DUP9 DUP3 DUP10 ADD PUSH2 0x144B JUMP JUMPDEST SWAP5 POP POP PUSH1 0x40 PUSH2 0x1958 DUP9 DUP3 DUP10 ADD PUSH2 0x13C6 JUMP JUMPDEST SWAP4 POP POP PUSH1 0x60 PUSH2 0x1969 DUP9 DUP3 DUP10 ADD PUSH2 0x13C6 JUMP JUMPDEST SWAP3 POP POP PUSH1 0x80 DUP7 ADD CALLDATALOAD PUSH8 0xFFFFFFFFFFFFFFFF DUP2 GT ISZERO PUSH2 0x198A JUMPI PUSH2 0x1989 PUSH2 0x1307 JUMP JUMPDEST JUMPDEST PUSH2 0x1996 DUP9 DUP3 DUP10 ADD PUSH2 0x18E3 JUMP JUMPDEST SWAP2 POP POP SWAP3 SWAP6 POP SWAP3 SWAP6 SWAP1 SWAP4 POP JUMP JUMPDEST PUSH0 PUSH1 0x20 DUP3 ADD SWAP1 POP PUSH2 0x19B6 PUSH0 DUP4 ADD DUP5 PUSH2 0x15A7 JUMP JUMPDEST SWAP3 SWAP2 POP POP JUMP JUMPDEST PUSH32 0x4E487B7100000000000000000000000000000000000000000000000000000000 PUSH0 MSTORE PUSH1 0x32 PUSH1 0x4 MSTORE PUSH1 0x24 PUSH0 REVERT JUMPDEST PUSH0 DUP1 REVERT JUMPDEST PUSH0 DUP1 REVERT JUMPDEST PUSH0 DUP1 REVERT JUMPDEST PUSH0 DUP3 CALLDATALOAD PUSH1 0x1 PUSH1 0xE0 SUB DUP4 CALLDATASIZE SUB SUB DUP2 SLT PUSH2 0x1A10 JUMPI PUSH2 0x1A0F PUSH2 0x19E9 JUMP JUMPDEST JUMPDEST DUP1 DUP4 ADD SWAP2 POP POP SWAP3 SWAP2 POP POP JUMP JUMPDEST PUSH32 0x4E487B7100000000000000000000000000000000000000000000000000000000 PUSH0 MSTORE PUSH1 0x11 PUSH1 0x4 MSTORE PUSH1 0x24 PUSH0 REVERT JUMPDEST PUSH0 PUSH2 0x1A53 DUP3 PUSH2 0x13A7 JUMP JUMPDEST SWAP2 POP PUSH2 0x1A5E DUP4 PUSH2 0x13A7 JUMP JUMPDEST SWAP3 POP DUP3 DUP3 ADD SWAP1 POP DUP1 DUP3 GT ISZERO PUSH2 0x1A76 JUMPI PUSH2 0x1A75 PUSH2 0x1A1C JUMP JUMPDEST JUMPDEST SWAP3 SWAP2 POP POP JUMP JUMPDEST PUSH0 PUSH1 0x40 DUP3 ADD SWAP1 POP PUSH2 0x1A8F PUSH0 DUP4 ADD DUP6 PUSH2 0x14B2 JUMP JUMPDEST PUSH2 0x1A9C PUSH1 0x20 DUP4 ADD DUP5 PUSH2 0x14B2 JUMP JUMPDEST SWAP4 SWAP3 POP POP POP JUMP JUMPDEST PUSH32 0x57524F4E47235349474E45520000000000000000000000000000000000000000 PUSH0 DUP3 ADD MSTORE POP JUMP JUMPDEST PUSH0 PUSH2 0x1AD7 PUSH1 0xC DUP4 PUSH2 0x151E JUMP JUMPDEST SWAP2 POP PUSH2 0x1AE2 DUP3 PUSH2 0x1AA3 JUMP JUMPDEST PUSH1 0x20 DUP3 ADD SWAP1 POP SWAP2 SWAP1 POP JUMP JUMPDEST PUSH0 PUSH1 0x20 DUP3 ADD SWAP1 POP DUP2 DUP2 SUB PUSH0 DUP4 ADD MSTORE PUSH2 0x1B04 DUP2 PUSH2 0x1ACB JUMP JUMPDEST SWAP1 POP SWAP2 SWAP1 POP JUMP JUMPDEST PUSH0 PUSH2 0x1B15 DUP3 PUSH2 0x13A7 JUMP JUMPDEST SWAP2 POP PUSH32 0xFFFFFFFFFFFFFFFFFFFFFFFFFFFFFFFFFFFFFFFFFFFFFFFFFFFFFFFFFFFFFFFF DUP3 SUB PUSH2 0x1B47 JUMPI PUSH2 0x1B46 PUSH2 0x1A1C JUMP JUMPDEST JUMPDEST PUSH1 0x1 DUP3 ADD SWAP1 POP SWAP2 SWAP1 POP JUMP JUMPDEST PUSH0 DUP2 MLOAD SWAP1 POP SWAP2 SWAP1 POP JUMP JUMPDEST PUSH0 DUP3 DUP3 MSTORE PUSH1 0x20 DUP3 ADD SWAP1 POP SWAP3 SWAP2 POP POP JUMP JUMPDEST PUSH0 PUSH2 0x1B76 DUP3 PUSH2 0x1B52 JUMP JUMPDEST PUSH2 0x1B80 DUP2 DUP6 PUSH2 0x1B5C JUMP JUMPDEST SWAP4 POP PUSH2 0x1B90 DUP2 DUP6 PUSH1 0x20 DUP7 ADD PUSH2 0x152E JUMP JUMPDEST PUSH2 0x1B99 DUP2 PUSH2 0x1556 JUMP JUMPDEST DUP5 ADD SWAP2 POP POP SWAP3 SWAP2 POP POP JUMP JUMPDEST PUSH0 PUSH2 0x100 DUP3 ADD SWAP1 POP PUSH2 0x1BB8 PUSH0 DUP4 ADD DUP12 PUSH2 0x15A7 JUMP JUMPDEST PUSH2 0x1BC5 PUSH1 0x20 DUP4 ADD DUP11 PUSH2 0x148A JUMP JUMPDEST PUSH2 0x1BD2 PUSH1 0x40 DUP4 ADD DUP10 PUSH2 0x148A JUMP JUMPDEST PUSH2 0x1BDF PUSH1 0x60 DUP4 ADD DUP9 PUSH2 0x14B2 JUMP JUMPDEST PUSH2 0x1BEC PUSH1 0x80 DUP4 ADD DUP8 PUSH2 0x14B2 JUMP JUMPDEST PUSH2 0x1BF9 PUSH1 0xA0 DUP4 ADD DUP7 PUSH2 0x14B2 JUMP JUMPDEST PUSH2 0x1C06 PUSH1 0xC0 DUP4 ADD DUP6 PUSH2 0x14B2 JUMP JUMPDEST DUP2 DUP2 SUB PUSH1 0xE0 DUP4 ADD MSTORE PUSH2 0x1C18 DUP2 DUP5 PUSH2 0x1B6C JUMP JUMPDEST SWAP1 POP SWAP10 SWAP9 POP POP POP POP POP POP POP POP POP JUMP JUMPDEST PUSH0 PUSH6 0xFFFFFFFFFFFF DUP3 AND SWAP1 POP SWAP2 SWAP1 POP JUMP JUMPDEST PUSH2 0x1C41 DUP2 PUSH2 0x1C27 JUMP JUMPDEST DUP2 EQ PUSH2 0x1C4B JUMPI PUSH0 DUP1 REVERT JUMPDEST POP JUMP JUMPDEST PUSH0 DUP2 CALLDATALOAD SWAP1 POP PUSH2 0x1C5C DUP2 PUSH2 0x1C38 JUMP JUMPDEST SWAP3 SWAP2 POP POP JUMP JUMPDEST PUSH0 PUSH1 0x20 DUP3 DUP5 SUB SLT ISZERO PUSH2 0x1C77 JUMPI PUSH2 0x1C76 PUSH2 0x1303 JUMP JUMPDEST JUMPDEST PUSH0 PUSH2 0x1C84 DUP5 DUP3 DUP6 ADD PUSH2 0x1C4E JUMP JUMPDEST SWAP2 POP POP SWAP3 SWAP2 POP POP JUMP JUMPDEST PUSH0 PUSH1 0x40 DUP3 ADD SWAP1 POP PUSH2 0x1CA0 PUSH0 DUP4 ADD DUP6 PUSH2 0x148A JUMP JUMPDEST PUSH2 0x1CAD PUSH1 0x20 DUP4 ADD DUP5 PUSH2 0x148A JUMP JUMPDEST SWAP4 SWAP3 POP POP POP JUMP JUMPDEST PUSH2 0x1CBD DUP2 PUSH2 0x1C27 JUMP JUMPDEST DUP3 MSTORE POP POP JUMP JUMPDEST PUSH0 PUSH1 0x20 DUP3 ADD SWAP1 POP PUSH2 0x1CD6 PUSH0 DUP4 ADD DUP5 PUSH2 0x1CB4 JUMP JUMPDEST SWAP3 SWAP2 POP POP JUMP JUMPDEST PUSH0 DUP1 DUP4 CALLDATALOAD PUSH1 0x1 PUSH1 0x20 SUB DUP5 CALLDATASIZE SUB SUB DUP2 SLT PUSH2 0x1CF8 JUMPI PUSH2 0x1CF7 PUSH2 0x19E9 JUMP JUMPDEST JUMPDEST DUP1 DUP5 ADD SWAP3 POP DUP3 CALLDATALOAD SWAP2 POP PUSH8 0xFFFFFFFFFFFFFFFF DUP3 GT ISZERO PUSH2 0x1D1A JUMPI PUSH2 0x1D19 PUSH2 0x19ED JUMP JUMPDEST JUMPDEST PUSH1 0x20 DUP4 ADD SWAP3 POP PUSH1 0x1 DUP3 MUL CALLDATASIZE SUB DUP4 SGT ISZERO PUSH2 0x1D36 JUMPI PUSH2 0x1D35 PUSH2 0x19F1 JUMP JUMPDEST JUMPDEST POP SWAP3 POP SWAP3 SWAP1 POP JUMP JUMPDEST PUSH0 DUP2 SWAP1 POP SWAP3 SWAP2 POP POP JUMP JUMPDEST PUSH0 PUSH2 0x1D53 DUP4 DUP6 PUSH2 0x1D3E JUMP JUMPDEST SWAP4 POP PUSH2 0x1D60 DUP4 DUP6 DUP5 PUSH2 0x1894 JUMP JUMPDEST DUP3 DUP5 ADD SWAP1 POP SWAP4 SWAP3 POP POP POP JUMP JUMPDEST PUSH0 DUP2 PUSH1 0x60 SHL SWAP1 POP SWAP2 SWAP1 POP JUMP JUMPDEST PUSH0 PUSH2 0x1D82 DUP3 PUSH2 0x1D6C JUMP JUMPDEST SWAP1 POP SWAP2 SWAP1 POP JUMP JUMPDEST PUSH0 PUSH2 0x1D93 DUP3 PUSH2 0x1D78 JUMP JUMPDEST SWAP1 POP SWAP2 SWAP1 POP JUMP JUMPDEST PUSH2 0x1DAB PUSH2 0x1DA6 DUP3 PUSH2 0x1424 JUMP JUMPDEST PUSH2 0x1D89 JUMP JUMPDEST DUP3 MSTORE POP POP JUMP JUMPDEST PUSH0 PUSH2 0x1DBD DUP3 DUP6 DUP8 PUSH2 0x1D48 JUMP JUMPDEST SWAP2 POP PUSH2 0x1DC9 DUP3 DUP5 PUSH2 0x1D9A JUMP JUMPDEST PUSH1 0x14 DUP3 ADD SWAP2 POP DUP2 SWAP1 POP SWAP5 SWAP4 POP POP POP POP JUMP JUMPDEST PUSH0 PUSH1 0x40 DUP3 ADD SWAP1 POP PUSH2 0x1DED PUSH0 DUP4 ADD DUP6 PUSH2 0x14B2 JUMP JUMPDEST PUSH2 0x1DFA PUSH1 0x20 DUP4 ADD DUP5 PUSH2 0x137F JUMP JUMPDEST SWAP4 SWAP3 POP POP POP JUMP JUMPDEST POP JUMP JUMPDEST PUSH0 PUSH2 0x1E0F PUSH0 DUP4 PUSH2 0x1D3E JUMP JUMPDEST SWAP2 POP PUSH2 0x1E1A DUP3 PUSH2 0x1E01 JUMP JUMPDEST PUSH0 DUP3 ADD SWAP1 POP SWAP2 SWAP1 POP JUMP JUMPDEST PUSH0 PUSH2 0x1E2E DUP3 PUSH2 0x1E04 JUMP JUMPDEST SWAP2 POP DUP2 SWAP1 POP SWAP2 SWAP1 POP JUMP JUMPDEST PUSH0 PUSH2 0x1E44 DUP3 DUP5 DUP7 PUSH2 0x1D48 JUMP JUMPDEST SWAP2 POP DUP2 SWAP1 POP SWAP4 SWAP3 POP POP POP JUMP JUMPDEST PUSH0 PUSH2 0x100 DUP3 ADD SWAP1 POP PUSH2 0x1E64 PUSH0 DUP4 ADD DUP12 PUSH2 0x15A7 JUMP JUMPDEST PUSH2 0x1E71 PUSH1 0x20 DUP4 ADD DUP11 PUSH2 0x148A JUMP JUMPDEST PUSH2 0x1E7E PUSH1 0x40 DUP4 ADD DUP10 PUSH2 0x148A JUMP JUMPDEST PUSH2 0x1E8B PUSH1 0x60 DUP4 ADD DUP9 PUSH2 0x14B2 JUMP JUMPDEST PUSH2 0x1E98 PUSH1 0x80 DUP4 ADD DUP8 PUSH2 0x14B2 JUMP JUMPDEST PUSH2 0x1EA5 PUSH1 0xA0 DUP4 ADD DUP7 PUSH2 0x14B2 JUMP JUMPDEST PUSH2 0x1EB2 PUSH1 0xC0 DUP4 ADD DUP6 PUSH2 0x1CB4 JUMP JUMPDEST PUSH2 0x1EBF PUSH1 0xE0 DUP4 ADD DUP5 PUSH2 0x15A7 JUMP JUMPDEST SWAP10 SWAP9 POP POP POP POP POP POP POP POP POP JUMP JUMPDEST PUSH32 0x4E487B7100000000000000000000000000000000000000000000000000000000 PUSH0 MSTORE PUSH1 0x21 PUSH1 0x4 MSTORE PUSH1 0x24 PUSH0 REVERT JUMPDEST PUSH32 0x4E487B7100000000000000000000000000000000000000000000000000000000 PUSH0 MSTORE PUSH1 0x22 PUSH1 0x4 MSTORE PUSH1 0x24 PUSH0 REVERT JUMPDEST PUSH0 PUSH1 0x2 DUP3 DIV SWAP1 POP PUSH1 0x1 DUP3 AND DUP1 PUSH2 0x1F3D JUMPI PUSH1 0x7F DUP3 AND SWAP2 POP JUMPDEST PUSH1 0x20 DUP3 LT DUP2 SUB PUSH2 0x1F50 JUMPI PUSH2 0x1F4F PUSH2 0x1EF9 JUMP JUMPDEST JUMPDEST POP SWAP2 SWAP1 POP JUMP JUMPDEST PUSH32 0x4E487B7100000000000000000000000000000000000000000000000000000000 PUSH0 MSTORE PUSH1 0x12 PUSH1 0x4 MSTORE PUSH1 0x24 PUSH0 REVERT JUMPDEST PUSH0 PUSH2 0x1F8D DUP3 PUSH2 0x13A7 JUMP JUMPDEST SWAP2 POP PUSH2 0x1F98 DUP4 PUSH2 0x13A7 JUMP JUMPDEST SWAP3 POP DUP3 PUSH2 0x1FA8 JUMPI PUSH2 0x1FA7 PUSH2 0x1F56 JUMP JUMPDEST JUMPDEST DUP3 DUP3 DIV SWAP1 POP SWAP3 SWAP2 POP POP JUMP JUMPDEST PUSH0 PUSH1 0xA0 DUP3 ADD SWAP1 POP PUSH2 0x1FC6 PUSH0 DUP4 ADD DUP9 PUSH2 0x15A7 JUMP JUMPDEST PUSH2 0x1FD3 PUSH1 0x20 DUP4 ADD DUP8 PUSH2 0x15A7 JUMP JUMPDEST PUSH2 0x1FE0 PUSH1 0x40 DUP4 ADD DUP7 PUSH2 0x15A7 JUMP JUMPDEST PUSH2 0x1FED PUSH1 0x60 DUP4 ADD DUP6 PUSH2 0x14B2 JUMP JUMPDEST PUSH2 0x1FFA PUSH1 0x80 DUP4 ADD DUP5 PUSH2 0x148A JUMP JUMPDEST SWAP7 SWAP6 POP POP POP POP POP POP JUMP JUMPDEST PUSH0 PUSH1 0xFF DUP3 AND SWAP1 POP SWAP2 SWAP1 POP JUMP JUMPDEST PUSH2 0x2019 DUP2 PUSH2 0x2004 JUMP JUMPDEST DUP3 MSTORE POP POP JUMP JUMPDEST PUSH0 PUSH1 0x80 DUP3 ADD SWAP1 POP PUSH2 0x2032 PUSH0 DUP4 ADD DUP8 PUSH2 0x15A7 JUMP JUMPDEST PUSH2 0x203F PUSH1 0x20 DUP4 ADD DUP7 PUSH2 0x2010 JUMP JUMPDEST PUSH2 0x204C PUSH1 0x40 DUP4 ADD DUP6 PUSH2 0x15A7 JUMP JUMPDEST PUSH2 0x2059 PUSH1 0x60 DUP4 ADD DUP5 PUSH2 0x15A7 JUMP JUMPDEST SWAP6 SWAP5 POP POP POP POP POP JUMP INVALID LOG2 PUSH5 0x6970667358 0x22 SLT KECCAK256 LOG0 PUSH22 0x89E4A629E755C2AD0A25479E204F8B0E496A2E3D17FE 0x24 0xE8 PUSH1 0x5E PUSH20 0xBE7B8364736F6C63430008170033000000000000 "
		},
		"gasEstimates": {
			"creation": {
				"codeDepositCost": "1668800",
				"executionCost": "infinite",
				"totalCost": "infinite"
			},
			"external": {
				"eip712Domain()": "infinite",
				"execute((address,address,uint256,uint256,uint48,bytes,bytes))": "infinite",
				"executeBatch((address,address,uint256,uint256,uint48,bytes,bytes)[],address)": "infinite",
				"executeForwardRequest((address,address,uint256,uint256,uint48,bytes,bytes))": "infinite",
				"generateMessage(address,address,uint256,uint256,bytes)": "infinite",
				"increment()": "24563",
				"isTrustedForwarder(address)": "infinite",
				"nonces(address)": "2918",
				"number()": "2536",
				"setNumber(uint256)": "22538",
				"trustedForwarder()": "infinite",
				"verify((address,address,uint256,uint256,uint48,bytes,bytes))": "infinite"
			}
		},
		"methodIdentifiers": {
			"eip712Domain()": "84b0196e",
			"execute((address,address,uint256,uint256,uint48,bytes,bytes))": "df905caf",
			"executeBatch((address,address,uint256,uint256,uint48,bytes,bytes)[],address)": "ccf96b4a",
			"executeForwardRequest((address,address,uint256,uint256,uint48,bytes,bytes))": "ce972680",
			"generateMessage(address,address,uint256,uint256,bytes)": "e871debe",
			"increment()": "d09de08a",
			"isTrustedForwarder(address)": "572b6c05",
			"nonces(address)": "7ecebe00",
			"number()": "8381f58a",
			"setNumber(uint256)": "3fb5c1cb",
			"trustedForwarder()": "7da0a877",
			"verify((address,address,uint256,uint256,uint48,bytes,bytes))": "19d8d38c"
		}
	},
	"abi": [
		{
			"inputs": [],
			"stateMutability": "nonpayable",
			"type": "constructor"
		},
		{
			"inputs": [
				{
					"internalType": "address",
					"name": "account",
					"type": "address"
				}
			],
			"name": "AddressInsufficientBalance",
			"type": "error"
		},
		{
			"inputs": [
				{
					"internalType": "uint48",
					"name": "deadline",
					"type": "uint48"
				}
			],
			"name": "ERC2771ForwarderExpiredRequest",
			"type": "error"
		},
		{
			"inputs": [
				{
					"internalType": "address",
					"name": "signer",
					"type": "address"
				},
				{
					"internalType": "address",
					"name": "from",
					"type": "address"
				}
			],
			"name": "ERC2771ForwarderInvalidSigner",
			"type": "error"
		},
		{
			"inputs": [
				{
					"internalType": "uint256",
					"name": "requestedValue",
					"type": "uint256"
				},
				{
					"internalType": "uint256",
					"name": "msgValue",
					"type": "uint256"
				}
			],
			"name": "ERC2771ForwarderMismatchedValue",
			"type": "error"
		},
		{
			"inputs": [
				{
					"internalType": "address",
					"name": "target",
					"type": "address"
				},
				{
					"internalType": "address",
					"name": "forwarder",
					"type": "address"
				}
			],
			"name": "ERC2771UntrustfulTarget",
			"type": "error"
		},
		{
			"inputs": [],
			"name": "FailedInnerCall",
			"type": "error"
		},
		{
			"inputs": [
				{
					"internalType": "address",
					"name": "account",
					"type": "address"
				},
				{
					"internalType": "uint256",
					"name": "currentNonce",
					"type": "uint256"
				}
			],
			"name": "InvalidAccountNonce",
			"type": "error"
		},
		{
			"inputs": [],
			"name": "InvalidShortString",
			"type": "error"
		},
		{
			"inputs": [
				{
					"internalType": "string",
					"name": "str",
					"type": "string"
				}
			],
			"name": "StringTooLong",
			"type": "error"
		},
		{
			"anonymous": false,
			"inputs": [],
			"name": "EIP712DomainChanged",
			"type": "event"
		},
		{
			"anonymous": false,
			"inputs": [
				{
					"indexed": true,
					"internalType": "address",
					"name": "signer",
					"type": "address"
				},
				{
					"indexed": false,
					"internalType": "uint256",
					"name": "nonce",
					"type": "uint256"
				},
				{
					"indexed": false,
					"internalType": "bool",
					"name": "success",
					"type": "bool"
				}
			],
			"name": "ExecutedForwardRequest",
			"type": "event"
		},
		{
			"inputs": [],
			"name": "eip712Domain",
			"outputs": [
				{
					"internalType": "bytes1",
					"name": "fields",
					"type": "bytes1"
				},
				{
					"internalType": "string",
					"name": "name",
					"type": "string"
				},
				{
					"internalType": "string",
					"name": "version",
					"type": "string"
				},
				{
					"internalType": "uint256",
					"name": "chainId",
					"type": "uint256"
				},
				{
					"internalType": "address",
					"name": "verifyingContract",
					"type": "address"
				},
				{
					"internalType": "bytes32",
					"name": "salt",
					"type": "bytes32"
				},
				{
					"internalType": "uint256[]",
					"name": "extensions",
					"type": "uint256[]"
				}
			],
			"stateMutability": "view",
			"type": "function"
		},
		{
			"inputs": [
				{
					"components": [
						{
							"internalType": "address",
							"name": "from",
							"type": "address"
						},
						{
							"internalType": "address",
							"name": "to",
							"type": "address"
						},
						{
							"internalType": "uint256",
							"name": "value",
							"type": "uint256"
						},
						{
							"internalType": "uint256",
							"name": "gas",
							"type": "uint256"
						},
						{
							"internalType": "uint48",
							"name": "deadline",
							"type": "uint48"
						},
						{
							"internalType": "bytes",
							"name": "data",
							"type": "bytes"
						},
						{
							"internalType": "bytes",
							"name": "signature",
							"type": "bytes"
						}
					],
					"internalType": "struct ERC2771Forwarder.ForwardRequestData",
					"name": "request",
					"type": "tuple"
				}
			],
			"name": "execute",
			"outputs": [],
			"stateMutability": "payable",
			"type": "function"
		},
		{
			"inputs": [
				{
					"components": [
						{
							"internalType": "address",
							"name": "from",
							"type": "address"
						},
						{
							"internalType": "address",
							"name": "to",
							"type": "address"
						},
						{
							"internalType": "uint256",
							"name": "value",
							"type": "uint256"
						},
						{
							"internalType": "uint256",
							"name": "gas",
							"type": "uint256"
						},
						{
							"internalType": "uint48",
							"name": "deadline",
							"type": "uint48"
						},
						{
							"internalType": "bytes",
							"name": "data",
							"type": "bytes"
						},
						{
							"internalType": "bytes",
							"name": "signature",
							"type": "bytes"
						}
					],
					"internalType": "struct ERC2771Forwarder.ForwardRequestData[]",
					"name": "requests",
					"type": "tuple[]"
				},
				{
					"internalType": "address payable",
					"name": "refundReceiver",
					"type": "address"
				}
			],
			"name": "executeBatch",
			"outputs": [],
			"stateMutability": "payable",
			"type": "function"
		},
		{
			"inputs": [
				{
					"components": [
						{
							"internalType": "address",
							"name": "from",
							"type": "address"
						},
						{
							"internalType": "address",
							"name": "to",
							"type": "address"
						},
						{
							"internalType": "uint256",
							"name": "value",
							"type": "uint256"
						},
						{
							"internalType": "uint256",
							"name": "gas",
							"type": "uint256"
						},
						{
							"internalType": "uint48",
							"name": "deadline",
							"type": "uint48"
						},
						{
							"internalType": "bytes",
							"name": "data",
							"type": "bytes"
						},
						{
							"internalType": "bytes",
							"name": "signature",
							"type": "bytes"
						}
					],
					"internalType": "struct ERC2771Forwarder.ForwardRequestData",
					"name": "metaTx",
					"type": "tuple"
				}
			],
			"name": "executeForwardRequest",
			"outputs": [],
			"stateMutability": "payable",
			"type": "function"
		},
		{
			"inputs": [
				{
					"internalType": "address",
					"name": "_from",
					"type": "address"
				},
				{
					"internalType": "address",
					"name": "_to",
					"type": "address"
				},
				{
					"internalType": "uint256",
					"name": "_value",
					"type": "uint256"
				},
				{
					"internalType": "uint256",
					"name": "_gas",
					"type": "uint256"
				},
				{
					"internalType": "bytes",
					"name": "_data",
					"type": "bytes"
				}
			],
			"name": "generateMessage",
			"outputs": [
				{
					"internalType": "bytes32",
					"name": "",
					"type": "bytes32"
				}
			],
			"stateMutability": "view",
			"type": "function"
		},
		{
			"inputs": [],
			"name": "increment",
			"outputs": [],
			"stateMutability": "nonpayable",
			"type": "function"
		},
		{
			"inputs": [
				{
					"internalType": "address",
					"name": "forwarder",
					"type": "address"
				}
			],
			"name": "isTrustedForwarder",
			"outputs": [
				{
					"internalType": "bool",
					"name": "",
					"type": "bool"
				}
			],
			"stateMutability": "view",
			"type": "function"
		},
		{
			"inputs": [
				{
					"internalType": "address",
					"name": "owner",
					"type": "address"
				}
			],
			"name": "nonces",
			"outputs": [
				{
					"internalType": "uint256",
					"name": "",
					"type": "uint256"
				}
			],
			"stateMutability": "view",
			"type": "function"
		},
		{
			"inputs": [],
			"name": "number",
			"outputs": [
				{
					"internalType": "uint256",
					"name": "",
					"type": "uint256"
				}
			],
			"stateMutability": "view",
			"type": "function"
		},
		{
			"inputs": [
				{
					"internalType": "uint256",
					"name": "newNumber",
					"type": "uint256"
				}
			],
			"name": "setNumber",
			"outputs": [],
			"stateMutability": "nonpayable",
			"type": "function"
		},
		{
			"inputs": [],
			"name": "trustedForwarder",
			"outputs": [
				{
					"internalType": "address",
					"name": "",
					"type": "address"
				}
			],
			"stateMutability": "view",
			"type": "function"
		},
		{
			"inputs": [
				{
					"components": [
						{
							"internalType": "address",
							"name": "from",
							"type": "address"
						},
						{
							"internalType": "address",
							"name": "to",
							"type": "address"
						},
						{
							"internalType": "uint256",
							"name": "value",
							"type": "uint256"
						},
						{
							"internalType": "uint256",
							"name": "gas",
							"type": "uint256"
						},
						{
							"internalType": "uint48",
							"name": "deadline",
							"type": "uint48"
						},
						{
							"internalType": "bytes",
							"name": "data",
							"type": "bytes"
						},
						{
							"internalType": "bytes",
							"name": "signature",
							"type": "bytes"
						}
					],
					"internalType": "struct ERC2771Forwarder.ForwardRequestData",
					"name": "request",
					"type": "tuple"
				}
			],
			"name": "verify",
			"outputs": [
				{
					"internalType": "bool",
					"name": "",
					"type": "bool"
				}
			],
			"stateMutability": "view",
			"type": "function"
		}
	]
}