{
	"data": {
		"bytecode": {
			"linkReferences": {},
			"object": "608060405234801561000f575f80fd5b5061010e8061001d5f395ff3fe6080604052348015600e575f80fd5b5060043610603a575f3560e01c80630a9254e414603e5780633a768463146040578063c0406226146076575b5f80fd5b005b605a737109709ecfa91a80626ff3989d68f67f5b1dd12d81565b6040516001600160a01b03909116815260200160405180910390f35b603e604080516302bf260160e61b81529051737109709ecfa91a80626ff3989d68f67f5b1dd12d9163afc98040916004808301925f92919082900301818387803b15801560c1575f80fd5b505af115801560d2573d5f803e3d5ffd5b5050505056fea2646970667358221220b5a7047af8688c3f754ba1b25c53066d2d45cbb6cad6ebfc6cf753aca6ce452e64736f6c63430008140033",
			"opcodes": "PUSH1 0x80 PUSH1 0x40 MSTORE CALLVALUE DUP1 ISZERO PUSH2 0xF JUMPI PUSH0 DUP1 REVERT JUMPDEST POP PUSH2 0x10E DUP1 PUSH2 0x1D PUSH0 CODECOPY PUSH0 RETURN INVALID PUSH1 0x80 PUSH1 0x40 MSTORE CALLVALUE DUP1 ISZERO PUSH1 0xE JUMPI PUSH0 DUP1 REVERT JUMPDEST POP PUSH1 0x4 CALLDATASIZE LT PUSH1 0x3A JUMPI PUSH0 CALLDATALOAD PUSH1 0xE0 SHR DUP1 PUSH4 0xA9254E4 EQ PUSH1 0x3E JUMPI DUP1 PUSH4 0x3A768463 EQ PUSH1 0x40 JUMPI DUP1 PUSH4 0xC0406226 EQ PUSH1 0x76 JUMPI JUMPDEST PUSH0 DUP1 REVERT JUMPDEST STOP JUMPDEST PUSH1 0x5A PUSH20 0x7109709ECFA91A80626FF3989D68F67F5B1DD12D DUP2 JUMP JUMPDEST PUSH1 0x40 MLOAD PUSH1 0x1 PUSH1 0x1 PUSH1 0xA0 SHL SUB SWAP1 SWAP2 AND DUP2 MSTORE PUSH1 0x20 ADD PUSH1 0x40 MLOAD DUP1 SWAP2 SUB SWAP1 RETURN JUMPDEST PUSH1 0x3E PUSH1 0x40 DUP1 MLOAD PUSH4 0x2BF2601 PUSH1 0xE6 SHL DUP2 MSTORE SWAP1 MLOAD PUSH20 0x7109709ECFA91A80626FF3989D68F67F5B1DD12D SWAP2 PUSH4 0xAFC98040 SWAP2 PUSH1 0x4 DUP1 DUP4 ADD SWAP3 PUSH0 SWAP3 SWAP2 SWAP1 DUP3 SWAP1 SUB ADD DUP2 DUP4 DUP8 DUP1 EXTCODESIZE ISZERO DUP1 ISZERO PUSH1 0xC1 JUMPI PUSH0 DUP1 REVERT JUMPDEST POP GAS CALL ISZERO DUP1 ISZERO PUSH1 0xD2 JUMPI RETURNDATASIZE PUSH0 DUP1 RETURNDATACOPY RETURNDATASIZE PUSH0 REVERT JUMPDEST POP POP POP POP JUMP INVALID LOG2 PUSH5 0x6970667358 0x22 SLT KECCAK256 0xB5 0xA7 DIV PUSH27 0xF8688C3F754BA1B25C53066D2D45CBB6CAD6EBFC6CF753ACA6CE45 0x2E PUSH5 0x736F6C6343 STOP ADDMOD EQ STOP CALLER "
		},
		"gasEstimates": {
			"creation": {
				"codeDepositCost": "54000",
				"executionCost": "103",
				"totalCost": "54103"
			},
			"external": {
				"run()": "infinite",
				"setUp()": "97",
				"vm()": "203"
			}
		},
		"methodIdentifiers": {
			"run()": "c0406226",
			"setUp()": "0a9254e4",
			"vm()": "3a768463"
		}
	},
	"abi": [
		{
			"inputs": [],
			"name": "run",
			"outputs": [],
			"stateMutability": "nonpayable",
			"type": "function"
		},
		{
			"inputs": [],
			"name": "setUp",
			"outputs": [],
			"stateMutability": "nonpayable",
			"type": "function"
		},
		{
			"inputs": [],
			"name": "vm",
			"outputs": [
				{
					"internalType": "contract Vm",
					"name": "",
					"type": "address"
				}
			],
			"stateMutability": "view",
			"type": "function"
		}
	]
}