{
	"src/Message.sol": {
		"VerifySignature": {
			"abi": [
				{
					"inputs": [
						{
							"internalType": "bytes32",
							"name": "_messageHash",
							"type": "bytes32"
						}
					],
					"name": "getEthSignedMessageHash",
					"outputs": [
						{
							"internalType": "bytes32",
							"name": "",
							"type": "bytes32"
						}
					],
					"stateMutability": "pure",
					"type": "function"
				},
				{
					"inputs": [
						{
							"internalType": "address",
							"name": "_to",
							"type": "address"
						},
						{
							"internalType": "uint256",
							"name": "_message",
							"type": "uint256"
						}
					],
					"name": "getMessageHash",
					"outputs": [
						{
							"internalType": "bytes32",
							"name": "",
							"type": "bytes32"
						}
					],
					"stateMutability": "pure",
					"type": "function"
				},
				{
					"inputs": [
						{
							"internalType": "bytes32",
							"name": "_ethSignedMessageHash",
							"type": "bytes32"
						},
						{
							"internalType": "bytes",
							"name": "_signature",
							"type": "bytes"
						}
					],
					"name": "recoverSigner",
					"outputs": [
						{
							"internalType": "address",
							"name": "",
							"type": "address"
						}
					],
					"stateMutability": "pure",
					"type": "function"
				},
				{
					"inputs": [
						{
							"internalType": "bytes",
							"name": "sig",
							"type": "bytes"
						}
					],
					"name": "splitSignature",
					"outputs": [
						{
							"internalType": "bytes32",
							"name": "r",
							"type": "bytes32"
						},
						{
							"internalType": "bytes32",
							"name": "s",
							"type": "bytes32"
						},
						{
							"internalType": "uint8",
							"name": "v",
							"type": "uint8"
						}
					],
					"stateMutability": "pure",
					"type": "function"
				},
				{
					"inputs": [
						{
							"internalType": "address",
							"name": "_signer",
							"type": "address"
						},
						{
							"internalType": "address",
							"name": "_to",
							"type": "address"
						},
						{
							"internalType": "uint256",
							"name": "_message",
							"type": "uint256"
						},
						{
							"internalType": "bytes",
							"name": "signature",
							"type": "bytes"
						}
					],
					"name": "verify",
					"outputs": [
						{
							"internalType": "bool",
							"name": "",
							"type": "bool"
						}
					],
					"stateMutability": "pure",
					"type": "function"
				}
			],
			"devdoc": {
				"kind": "dev",
				"methods": {},
				"version": 1
			},
			"evm": {
				"assembly": "    /* \"src/Message.sol\":385:4600  contract VerifySignature {... */\n  mstore(0x40, 0x80)\n  callvalue\n  dup1\n  iszero\n  tag_1\n  jumpi\n  0x00\n  dup1\n  revert\ntag_1:\n  pop\n  dataSize(sub_0)\n  dup1\n  dataOffset(sub_0)\n  0x00\n  codecopy\n  0x00\n  return\nstop\n\nsub_0: assembly {\n        /* \"src/Message.sol\":385:4600  contract VerifySignature {... */\n      mstore(0x40, 0x80)\n      callvalue\n      dup1\n      iszero\n      tag_1\n      jumpi\n      0x00\n      dup1\n      revert\n    tag_1:\n      pop\n      jumpi(tag_2, lt(calldatasize, 0x04))\n      shr(0xe0, calldataload(0x00))\n      dup1\n      0x512c91df\n      eq\n      tag_3\n      jumpi\n      dup1\n      0x93e9f8fc\n      eq\n      tag_4\n      jumpi\n      dup1\n      0x97aba7f9\n      eq\n      tag_5\n      jumpi\n      dup1\n      0xa7bb5803\n      eq\n      tag_6\n      jumpi\n      dup1\n      0xfa540801\n      eq\n      tag_7\n      jumpi\n    tag_2:\n      0x00\n      dup1\n      revert\n        /* \"src/Message.sol\":1009:1184  function getMessageHash(... */\n    tag_3:\n      tag_8\n      0x04\n      dup1\n      calldatasize\n      sub\n      dup2\n      add\n      swap1\n      tag_9\n      swap2\n      swap1\n      tag_10\n      jump\t// in\n    tag_9:\n      tag_11\n      jump\t// in\n    tag_8:\n      mload(0x40)\n      tag_12\n      swap2\n      swap1\n      tag_13\n      jump\t// in\n    tag_12:\n      mload(0x40)\n      dup1\n      swap2\n      sub\n      swap1\n      return\n        /* \"src/Message.sol\":3102:3482  function verify(... */\n    tag_4:\n      tag_14\n      0x04\n      dup1\n      calldatasize\n      sub\n      dup2\n      add\n      swap1\n      tag_15\n      swap2\n      swap1\n      tag_16\n      jump\t// in\n    tag_15:\n      tag_17\n      jump\t// in\n    tag_14:\n      mload(0x40)\n      tag_18\n      swap2\n      swap1\n      tag_19\n      jump\t// in\n    tag_18:\n      mload(0x40)\n      dup1\n      swap2\n      sub\n      swap1\n      return\n        /* \"src/Message.sol\":3490:3764  function recoverSigner(... */\n    tag_5:\n      tag_20\n      0x04\n      dup1\n      calldatasize\n      sub\n      dup2\n      add\n      swap1\n      tag_21\n      swap2\n      swap1\n      tag_22\n      jump\t// in\n    tag_21:\n      tag_23\n      jump\t// in\n    tag_20:\n      mload(0x40)\n      tag_24\n      swap2\n      swap1\n      tag_25\n      jump\t// in\n    tag_24:\n      mload(0x40)\n      dup1\n      swap2\n      sub\n      swap1\n      return\n        /* \"src/Message.sol\":3772:4597  function splitSignature(... */\n    tag_6:\n      tag_26\n      0x04\n      dup1\n      calldatasize\n      sub\n      dup2\n      add\n      swap1\n      tag_27\n      swap2\n      swap1\n      tag_28\n      jump\t// in\n    tag_27:\n      tag_29\n      jump\t// in\n    tag_26:\n      mload(0x40)\n      tag_30\n      swap4\n      swap3\n      swap2\n      swap1\n      tag_31\n      jump\t// in\n    tag_30:\n      mload(0x40)\n      dup1\n      swap2\n      sub\n      swap1\n      return\n        /* \"src/Message.sol\":1931:2348  function getEthSignedMessageHash(... */\n    tag_7:\n      tag_32\n      0x04\n      dup1\n      calldatasize\n      sub\n      dup2\n      add\n      swap1\n      tag_33\n      swap2\n      swap1\n      tag_34\n      jump\t// in\n    tag_33:\n      tag_35\n      jump\t// in\n    tag_32:\n      mload(0x40)\n      tag_36\n      swap2\n      swap1\n      tag_13\n      jump\t// in\n    tag_36:\n      mload(0x40)\n      dup1\n      swap2\n      sub\n      swap1\n      return\n        /* \"src/Message.sol\":1009:1184  function getMessageHash(... */\n    tag_11:\n        /* \"src/Message.sol\":1107:1114  bytes32 */\n      0x00\n        /* \"src/Message.sol\":1161:1164  _to */\n      dup3\n        /* \"src/Message.sol\":1166:1174  _message */\n      dup3\n        /* \"src/Message.sol\":1144:1175  abi.encodePacked(_to, _message) */\n      add(0x20, mload(0x40))\n      tag_38\n      swap3\n      swap2\n      swap1\n      tag_39\n      jump\t// in\n    tag_38:\n      mload(0x40)\n      0x20\n      dup2\n      dup4\n      sub\n      sub\n      dup2\n      mstore\n      swap1\n      0x40\n      mstore\n        /* \"src/Message.sol\":1134:1176  keccak256(abi.encodePacked(_to, _message)) */\n      dup1\n      mload\n      swap1\n      0x20\n      add\n      keccak256\n        /* \"src/Message.sol\":1127:1176  return keccak256(abi.encodePacked(_to, _message)) */\n      swap1\n      pop\n        /* \"src/Message.sol\":1009:1184  function getMessageHash(... */\n      swap3\n      swap2\n      pop\n      pop\n      jump\t// out\n        /* \"src/Message.sol\":3102:3482  function verify(... */\n    tag_17:\n        /* \"src/Message.sol\":3251:3255  bool */\n      0x00\n        /* \"src/Message.sol\":3268:3287  bytes32 messageHash */\n      dup1\n        /* \"src/Message.sol\":3290:3319  getMessageHash(_to, _message) */\n      tag_41\n        /* \"src/Message.sol\":3305:3308  _to */\n      dup6\n        /* \"src/Message.sol\":3310:3318  _message */\n      dup6\n        /* \"src/Message.sol\":3290:3304  getMessageHash */\n      tag_11\n        /* \"src/Message.sol\":3290:3319  getMessageHash(_to, _message) */\n      jump\t// in\n    tag_41:\n        /* \"src/Message.sol\":3268:3319  bytes32 messageHash = getMessageHash(_to, _message) */\n      swap1\n      pop\n        /* \"src/Message.sol\":3330:3358  bytes32 ethSignedMessageHash */\n      0x00\n        /* \"src/Message.sol\":3361:3397  getEthSignedMessageHash(messageHash) */\n      tag_42\n        /* \"src/Message.sol\":3385:3396  messageHash */\n      dup3\n        /* \"src/Message.sol\":3361:3384  getEthSignedMessageHash */\n      tag_35\n        /* \"src/Message.sol\":3361:3397  getEthSignedMessageHash(messageHash) */\n      jump\t// in\n    tag_42:\n        /* \"src/Message.sol\":3330:3397  bytes32 ethSignedMessageHash = getEthSignedMessageHash(messageHash) */\n      swap1\n      pop\n        /* \"src/Message.sol\":3467:3474  _signer */\n      dup7\n        /* \"src/Message.sol\":3417:3474  recoverSigner(ethSignedMessageHash, signature) == _signer */\n      0xffffffffffffffffffffffffffffffffffffffff\n      and\n        /* \"src/Message.sol\":3417:3463  recoverSigner(ethSignedMessageHash, signature) */\n      tag_43\n        /* \"src/Message.sol\":3431:3451  ethSignedMessageHash */\n      dup3\n        /* \"src/Message.sol\":3453:3462  signature */\n      dup7\n        /* \"src/Message.sol\":3417:3430  recoverSigner */\n      tag_23\n        /* \"src/Message.sol\":3417:3463  recoverSigner(ethSignedMessageHash, signature) */\n      jump\t// in\n    tag_43:\n        /* \"src/Message.sol\":3417:3474  recoverSigner(ethSignedMessageHash, signature) == _signer */\n      0xffffffffffffffffffffffffffffffffffffffff\n      and\n      eq\n        /* \"src/Message.sol\":3410:3474  return recoverSigner(ethSignedMessageHash, signature) == _signer */\n      swap3\n      pop\n      pop\n      pop\n        /* \"src/Message.sol\":3102:3482  function verify(... */\n      swap5\n      swap4\n      pop\n      pop\n      pop\n      pop\n      jump\t// out\n        /* \"src/Message.sol\":3490:3764  function recoverSigner(... */\n    tag_23:\n        /* \"src/Message.sol\":3615:3622  address */\n      0x00\n        /* \"src/Message.sol\":3636:3645  bytes32 r */\n      dup1\n        /* \"src/Message.sol\":3647:3656  bytes32 s */\n      0x00\n        /* \"src/Message.sol\":3658:3665  uint8 v */\n      dup1\n        /* \"src/Message.sol\":3669:3695  splitSignature(_signature) */\n      tag_45\n        /* \"src/Message.sol\":3684:3694  _signature */\n      dup6\n        /* \"src/Message.sol\":3669:3683  splitSignature */\n      tag_29\n        /* \"src/Message.sol\":3669:3695  splitSignature(_signature) */\n      jump\t// in\n    tag_45:\n        /* \"src/Message.sol\":3635:3695  (bytes32 r, bytes32 s, uint8 v) = splitSignature(_signature) */\n      swap3\n      pop\n      swap3\n      pop\n      swap3\n      pop\n        /* \"src/Message.sol\":3715:3756  ecrecover(_ethSignedMessageHash, v, r, s) */\n      0x01\n        /* \"src/Message.sol\":3725:3746  _ethSignedMessageHash */\n      dup7\n        /* \"src/Message.sol\":3748:3749  v */\n      dup3\n        /* \"src/Message.sol\":3751:3752  r */\n      dup6\n        /* \"src/Message.sol\":3754:3755  s */\n      dup6\n        /* \"src/Message.sol\":3715:3756  ecrecover(_ethSignedMessageHash, v, r, s) */\n      mload(0x40)\n      0x00\n      dup2\n      mstore\n      0x20\n      add\n      0x40\n      mstore\n      mload(0x40)\n      tag_46\n      swap5\n      swap4\n      swap3\n      swap2\n      swap1\n      tag_47\n      jump\t// in\n    tag_46:\n      0x20\n      mload(0x40)\n      0x20\n      dup2\n      sub\n      swap1\n      dup1\n      dup5\n      sub\n      swap1\n      dup6\n      gas\n      staticcall\n      iszero\n      dup1\n      iszero\n      tag_49\n      jumpi\n      returndatasize\n      0x00\n      dup1\n      returndatacopy\n      revert(0x00, returndatasize)\n    tag_49:\n      pop\n      pop\n      pop\n      mload(sub(mload(0x40), 0x20))\n        /* \"src/Message.sol\":3708:3756  return ecrecover(_ethSignedMessageHash, v, r, s) */\n      swap4\n      pop\n      pop\n      pop\n      pop\n        /* \"src/Message.sol\":3490:3764  function recoverSigner(... */\n      swap3\n      swap2\n      pop\n      pop\n      jump\t// out\n        /* \"src/Message.sol\":3772:4597  function splitSignature(... */\n    tag_29:\n        /* \"src/Message.sol\":3851:3860  bytes32 r */\n      0x00\n        /* \"src/Message.sol\":3862:3871  bytes32 s */\n      dup1\n        /* \"src/Message.sol\":3873:3880  uint8 v */\n      0x00\n        /* \"src/Message.sol\":3915:3917  65 */\n      0x41\n        /* \"src/Message.sol\":3901:3904  sig */\n      dup5\n        /* \"src/Message.sol\":3901:3911  sig.length */\n      mload\n        /* \"src/Message.sol\":3901:3917  sig.length == 65 */\n      eq\n        /* \"src/Message.sol\":3893:3946  require(sig.length == 65, \"invalid signature length\") */\n      tag_51\n      jumpi\n      mload(0x40)\n      0x08c379a000000000000000000000000000000000000000000000000000000000\n      dup2\n      mstore\n      0x04\n      add\n      tag_52\n      swap1\n      tag_53\n      jump\t// in\n    tag_52:\n      mload(0x40)\n      dup1\n      swap2\n      sub\n      swap1\n      revert\n    tag_51:\n        /* \"src/Message.sol\":4355:4357  32 */\n      0x20\n        /* \"src/Message.sol\":4350:4353  sig */\n      dup5\n        /* \"src/Message.sol\":4346:4358  add(sig, 32) */\n      add\n        /* \"src/Message.sol\":4340:4359  mload(add(sig, 32)) */\n      mload\n        /* \"src/Message.sol\":4335:4359  r := mload(add(sig, 32)) */\n      swap3\n      pop\n        /* \"src/Message.sol\":4425:4427  64 */\n      0x40\n        /* \"src/Message.sol\":4420:4423  sig */\n      dup5\n        /* \"src/Message.sol\":4416:4428  add(sig, 64) */\n      add\n        /* \"src/Message.sol\":4410:4429  mload(add(sig, 64)) */\n      mload\n        /* \"src/Message.sol\":4405:4429  s := mload(add(sig, 64)) */\n      swap2\n      pop\n        /* \"src/Message.sol\":4532:4534  96 */\n      0x60\n        /* \"src/Message.sol\":4527:4530  sig */\n      dup5\n        /* \"src/Message.sol\":4523:4535  add(sig, 96) */\n      add\n        /* \"src/Message.sol\":4517:4536  mload(add(sig, 96)) */\n      mload\n        /* \"src/Message.sol\":4514:4515  0 */\n      0x00\n        /* \"src/Message.sol\":4509:4537  byte(0, mload(add(sig, 96))) */\n      byte\n        /* \"src/Message.sol\":4504:4537  v := byte(0, mload(add(sig, 96))) */\n      swap1\n      pop\n        /* \"src/Message.sol\":3772:4597  function splitSignature(... */\n      swap2\n      swap4\n      swap1\n      swap3\n      pop\n      jump\t// out\n        /* \"src/Message.sol\":1931:2348  function getEthSignedMessageHash(... */\n    tag_35:\n        /* \"src/Message.sol\":2023:2030  bytes32 */\n      0x00\n        /* \"src/Message.sol\":2312:2324  _messageHash */\n      dup2\n        /* \"src/Message.sol\":2259:2325  abi.encodePacked(\"\\x19Ethereum Signed Message:\\n32\", _messageHash) */\n      add(0x20, mload(0x40))\n      tag_55\n      swap2\n      swap1\n      tag_56\n      jump\t// in\n    tag_55:\n      mload(0x40)\n      0x20\n      dup2\n      dup4\n      sub\n      sub\n      dup2\n      mstore\n      swap1\n      0x40\n      mstore\n        /* \"src/Message.sol\":2231:2340  keccak256(... */\n      dup1\n      mload\n      swap1\n      0x20\n      add\n      keccak256\n        /* \"src/Message.sol\":2211:2340  return... */\n      swap1\n      pop\n        /* \"src/Message.sol\":1931:2348  function getEthSignedMessageHash(... */\n      swap2\n      swap1\n      pop\n      jump\t// out\n        /* \"#utility.yul\":7:82   */\n    tag_57:\n        /* \"#utility.yul\":40:46   */\n      0x00\n        /* \"#utility.yul\":73:75   */\n      0x40\n        /* \"#utility.yul\":67:76   */\n      mload\n        /* \"#utility.yul\":57:76   */\n      swap1\n      pop\n        /* \"#utility.yul\":7:82   */\n      swap1\n      jump\t// out\n        /* \"#utility.yul\":88:205   */\n    tag_58:\n        /* \"#utility.yul\":197:198   */\n      0x00\n        /* \"#utility.yul\":194:195   */\n      dup1\n        /* \"#utility.yul\":187:199   */\n      revert\n        /* \"#utility.yul\":211:328   */\n    tag_59:\n        /* \"#utility.yul\":320:321   */\n      0x00\n        /* \"#utility.yul\":317:318   */\n      dup1\n        /* \"#utility.yul\":310:322   */\n      revert\n        /* \"#utility.yul\":334:460   */\n    tag_60:\n        /* \"#utility.yul\":371:378   */\n      0x00\n        /* \"#utility.yul\":411:453   */\n      0xffffffffffffffffffffffffffffffffffffffff\n        /* \"#utility.yul\":404:409   */\n      dup3\n        /* \"#utility.yul\":400:454   */\n      and\n        /* \"#utility.yul\":389:454   */\n      swap1\n      pop\n        /* \"#utility.yul\":334:460   */\n      swap2\n      swap1\n      pop\n      jump\t// out\n        /* \"#utility.yul\":466:562   */\n    tag_61:\n        /* \"#utility.yul\":503:510   */\n      0x00\n        /* \"#utility.yul\":532:556   */\n      tag_106\n        /* \"#utility.yul\":550:555   */\n      dup3\n        /* \"#utility.yul\":532:556   */\n      tag_60\n      jump\t// in\n    tag_106:\n        /* \"#utility.yul\":521:556   */\n      swap1\n      pop\n        /* \"#utility.yul\":466:562   */\n      swap2\n      swap1\n      pop\n      jump\t// out\n        /* \"#utility.yul\":568:690   */\n    tag_62:\n        /* \"#utility.yul\":641:665   */\n      tag_108\n        /* \"#utility.yul\":659:664   */\n      dup2\n        /* \"#utility.yul\":641:665   */\n      tag_61\n      jump\t// in\n    tag_108:\n        /* \"#utility.yul\":634:639   */\n      dup2\n        /* \"#utility.yul\":631:666   */\n      eq\n        /* \"#utility.yul\":621:684   */\n      tag_109\n      jumpi\n        /* \"#utility.yul\":680:681   */\n      0x00\n        /* \"#utility.yul\":677:678   */\n      dup1\n        /* \"#utility.yul\":670:682   */\n      revert\n        /* \"#utility.yul\":621:684   */\n    tag_109:\n        /* \"#utility.yul\":568:690   */\n      pop\n      jump\t// out\n        /* \"#utility.yul\":696:835   */\n    tag_63:\n        /* \"#utility.yul\":742:747   */\n      0x00\n        /* \"#utility.yul\":780:786   */\n      dup2\n        /* \"#utility.yul\":767:787   */\n      calldataload\n        /* \"#utility.yul\":758:787   */\n      swap1\n      pop\n        /* \"#utility.yul\":796:829   */\n      tag_111\n        /* \"#utility.yul\":823:828   */\n      dup2\n        /* \"#utility.yul\":796:829   */\n      tag_62\n      jump\t// in\n    tag_111:\n        /* \"#utility.yul\":696:835   */\n      swap3\n      swap2\n      pop\n      pop\n      jump\t// out\n        /* \"#utility.yul\":841:918   */\n    tag_64:\n        /* \"#utility.yul\":878:885   */\n      0x00\n        /* \"#utility.yul\":907:912   */\n      dup2\n        /* \"#utility.yul\":896:912   */\n      swap1\n      pop\n        /* \"#utility.yul\":841:918   */\n      swap2\n      swap1\n      pop\n      jump\t// out\n        /* \"#utility.yul\":924:1046   */\n    tag_65:\n        /* \"#utility.yul\":997:1021   */\n      tag_114\n        /* \"#utility.yul\":1015:1020   */\n      dup2\n        /* \"#utility.yul\":997:1021   */\n      tag_64\n      jump\t// in\n    tag_114:\n        /* \"#utility.yul\":990:995   */\n      dup2\n        /* \"#utility.yul\":987:1022   */\n      eq\n        /* \"#utility.yul\":977:1040   */\n      tag_115\n      jumpi\n        /* \"#utility.yul\":1036:1037   */\n      0x00\n        /* \"#utility.yul\":1033:1034   */\n      dup1\n        /* \"#utility.yul\":1026:1038   */\n      revert\n        /* \"#utility.yul\":977:1040   */\n    tag_115:\n        /* \"#utility.yul\":924:1046   */\n      pop\n      jump\t// out\n        /* \"#utility.yul\":1052:1191   */\n    tag_66:\n        /* \"#utility.yul\":1098:1103   */\n      0x00\n        /* \"#utility.yul\":1136:1142   */\n      dup2\n        /* \"#utility.yul\":1123:1143   */\n      calldataload\n        /* \"#utility.yul\":1114:1143   */\n      swap1\n      pop\n        /* \"#utility.yul\":1152:1185   */\n      tag_117\n        /* \"#utility.yul\":1179:1184   */\n      dup2\n        /* \"#utility.yul\":1152:1185   */\n      tag_65\n      jump\t// in\n    tag_117:\n        /* \"#utility.yul\":1052:1191   */\n      swap3\n      swap2\n      pop\n      pop\n      jump\t// out\n        /* \"#utility.yul\":1197:1671   */\n    tag_10:\n        /* \"#utility.yul\":1265:1271   */\n      0x00\n        /* \"#utility.yul\":1273:1279   */\n      dup1\n        /* \"#utility.yul\":1322:1324   */\n      0x40\n        /* \"#utility.yul\":1310:1319   */\n      dup4\n        /* \"#utility.yul\":1301:1308   */\n      dup6\n        /* \"#utility.yul\":1297:1320   */\n      sub\n        /* \"#utility.yul\":1293:1325   */\n      slt\n        /* \"#utility.yul\":1290:1409   */\n      iszero\n      tag_119\n      jumpi\n        /* \"#utility.yul\":1328:1407   */\n      tag_120\n      tag_58\n      jump\t// in\n    tag_120:\n        /* \"#utility.yul\":1290:1409   */\n    tag_119:\n        /* \"#utility.yul\":1448:1449   */\n      0x00\n        /* \"#utility.yul\":1473:1526   */\n      tag_121\n        /* \"#utility.yul\":1518:1525   */\n      dup6\n        /* \"#utility.yul\":1509:1515   */\n      dup3\n        /* \"#utility.yul\":1498:1507   */\n      dup7\n        /* \"#utility.yul\":1494:1516   */\n      add\n        /* \"#utility.yul\":1473:1526   */\n      tag_63\n      jump\t// in\n    tag_121:\n        /* \"#utility.yul\":1463:1526   */\n      swap3\n      pop\n        /* \"#utility.yul\":1419:1536   */\n      pop\n        /* \"#utility.yul\":1575:1577   */\n      0x20\n        /* \"#utility.yul\":1601:1654   */\n      tag_122\n        /* \"#utility.yul\":1646:1653   */\n      dup6\n        /* \"#utility.yul\":1637:1643   */\n      dup3\n        /* \"#utility.yul\":1626:1635   */\n      dup7\n        /* \"#utility.yul\":1622:1644   */\n      add\n        /* \"#utility.yul\":1601:1654   */\n      tag_66\n      jump\t// in\n    tag_122:\n        /* \"#utility.yul\":1591:1654   */\n      swap2\n      pop\n        /* \"#utility.yul\":1546:1664   */\n      pop\n        /* \"#utility.yul\":1197:1671   */\n      swap3\n      pop\n      swap3\n      swap1\n      pop\n      jump\t// out\n        /* \"#utility.yul\":1677:1754   */\n    tag_67:\n        /* \"#utility.yul\":1714:1721   */\n      0x00\n        /* \"#utility.yul\":1743:1748   */\n      dup2\n        /* \"#utility.yul\":1732:1748   */\n      swap1\n      pop\n        /* \"#utility.yul\":1677:1754   */\n      swap2\n      swap1\n      pop\n      jump\t// out\n        /* \"#utility.yul\":1760:1878   */\n    tag_68:\n        /* \"#utility.yul\":1847:1871   */\n      tag_125\n        /* \"#utility.yul\":1865:1870   */\n      dup2\n        /* \"#utility.yul\":1847:1871   */\n      tag_67\n      jump\t// in\n    tag_125:\n        /* \"#utility.yul\":1842:1845   */\n      dup3\n        /* \"#utility.yul\":1835:1872   */\n      mstore\n        /* \"#utility.yul\":1760:1878   */\n      pop\n      pop\n      jump\t// out\n        /* \"#utility.yul\":1884:2106   */\n    tag_13:\n        /* \"#utility.yul\":1977:1981   */\n      0x00\n        /* \"#utility.yul\":2015:2017   */\n      0x20\n        /* \"#utility.yul\":2004:2013   */\n      dup3\n        /* \"#utility.yul\":2000:2018   */\n      add\n        /* \"#utility.yul\":1992:2018   */\n      swap1\n      pop\n        /* \"#utility.yul\":2028:2099   */\n      tag_127\n        /* \"#utility.yul\":2096:2097   */\n      0x00\n        /* \"#utility.yul\":2085:2094   */\n      dup4\n        /* \"#utility.yul\":2081:2098   */\n      add\n        /* \"#utility.yul\":2072:2078   */\n      dup5\n        /* \"#utility.yul\":2028:2099   */\n      tag_68\n      jump\t// in\n    tag_127:\n        /* \"#utility.yul\":1884:2106   */\n      swap3\n      swap2\n      pop\n      pop\n      jump\t// out\n        /* \"#utility.yul\":2112:2229   */\n    tag_69:\n        /* \"#utility.yul\":2221:2222   */\n      0x00\n        /* \"#utility.yul\":2218:2219   */\n      dup1\n        /* \"#utility.yul\":2211:2223   */\n      revert\n        /* \"#utility.yul\":2235:2352   */\n    tag_70:\n        /* \"#utility.yul\":2344:2345   */\n      0x00\n        /* \"#utility.yul\":2341:2342   */\n      dup1\n        /* \"#utility.yul\":2334:2346   */\n      revert\n        /* \"#utility.yul\":2358:2460   */\n    tag_71:\n        /* \"#utility.yul\":2399:2405   */\n      0x00\n        /* \"#utility.yul\":2450:2452   */\n      0x1f\n        /* \"#utility.yul\":2446:2453   */\n      not\n        /* \"#utility.yul\":2441:2443   */\n      0x1f\n        /* \"#utility.yul\":2434:2439   */\n      dup4\n        /* \"#utility.yul\":2430:2444   */\n      add\n        /* \"#utility.yul\":2426:2454   */\n      and\n        /* \"#utility.yul\":2416:2454   */\n      swap1\n      pop\n        /* \"#utility.yul\":2358:2460   */\n      swap2\n      swap1\n      pop\n      jump\t// out\n        /* \"#utility.yul\":2466:2646   */\n    tag_72:\n        /* \"#utility.yul\":2514:2591   */\n      0x4e487b7100000000000000000000000000000000000000000000000000000000\n        /* \"#utility.yul\":2511:2512   */\n      0x00\n        /* \"#utility.yul\":2504:2592   */\n      mstore\n        /* \"#utility.yul\":2611:2615   */\n      0x41\n        /* \"#utility.yul\":2608:2609   */\n      0x04\n        /* \"#utility.yul\":2601:2616   */\n      mstore\n        /* \"#utility.yul\":2635:2639   */\n      0x24\n        /* \"#utility.yul\":2632:2633   */\n      0x00\n        /* \"#utility.yul\":2625:2640   */\n      revert\n        /* \"#utility.yul\":2652:2933   */\n    tag_73:\n        /* \"#utility.yul\":2735:2762   */\n      tag_133\n        /* \"#utility.yul\":2757:2761   */\n      dup3\n        /* \"#utility.yul\":2735:2762   */\n      tag_71\n      jump\t// in\n    tag_133:\n        /* \"#utility.yul\":2727:2733   */\n      dup2\n        /* \"#utility.yul\":2723:2763   */\n      add\n        /* \"#utility.yul\":2865:2871   */\n      dup2\n        /* \"#utility.yul\":2853:2863   */\n      dup2\n        /* \"#utility.yul\":2850:2872   */\n      lt\n        /* \"#utility.yul\":2829:2847   */\n      0xffffffffffffffff\n        /* \"#utility.yul\":2817:2827   */\n      dup3\n        /* \"#utility.yul\":2814:2848   */\n      gt\n        /* \"#utility.yul\":2811:2873   */\n      or\n        /* \"#utility.yul\":2808:2896   */\n      iszero\n      tag_134\n      jumpi\n        /* \"#utility.yul\":2876:2894   */\n      tag_135\n      tag_72\n      jump\t// in\n    tag_135:\n        /* \"#utility.yul\":2808:2896   */\n    tag_134:\n        /* \"#utility.yul\":2916:2926   */\n      dup1\n        /* \"#utility.yul\":2912:2914   */\n      0x40\n        /* \"#utility.yul\":2905:2927   */\n      mstore\n        /* \"#utility.yul\":2695:2933   */\n      pop\n        /* \"#utility.yul\":2652:2933   */\n      pop\n      pop\n      jump\t// out\n        /* \"#utility.yul\":2939:3068   */\n    tag_74:\n        /* \"#utility.yul\":2973:2979   */\n      0x00\n        /* \"#utility.yul\":3000:3020   */\n      tag_137\n      tag_57\n      jump\t// in\n    tag_137:\n        /* \"#utility.yul\":2990:3020   */\n      swap1\n      pop\n        /* \"#utility.yul\":3029:3062   */\n      tag_138\n        /* \"#utility.yul\":3057:3061   */\n      dup3\n        /* \"#utility.yul\":3049:3055   */\n      dup3\n        /* \"#utility.yul\":3029:3062   */\n      tag_73\n      jump\t// in\n    tag_138:\n        /* \"#utility.yul\":2939:3068   */\n      swap2\n      swap1\n      pop\n      jump\t// out\n        /* \"#utility.yul\":3074:3381   */\n    tag_75:\n        /* \"#utility.yul\":3135:3139   */\n      0x00\n        /* \"#utility.yul\":3225:3243   */\n      0xffffffffffffffff\n        /* \"#utility.yul\":3217:3223   */\n      dup3\n        /* \"#utility.yul\":3214:3244   */\n      gt\n        /* \"#utility.yul\":3211:3267   */\n      iszero\n      tag_140\n      jumpi\n        /* \"#utility.yul\":3247:3265   */\n      tag_141\n      tag_72\n      jump\t// in\n    tag_141:\n        /* \"#utility.yul\":3211:3267   */\n    tag_140:\n        /* \"#utility.yul\":3285:3314   */\n      tag_142\n        /* \"#utility.yul\":3307:3313   */\n      dup3\n        /* \"#utility.yul\":3285:3314   */\n      tag_71\n      jump\t// in\n    tag_142:\n        /* \"#utility.yul\":3277:3314   */\n      swap1\n      pop\n        /* \"#utility.yul\":3369:3373   */\n      0x20\n        /* \"#utility.yul\":3363:3367   */\n      dup2\n        /* \"#utility.yul\":3359:3374   */\n      add\n        /* \"#utility.yul\":3351:3374   */\n      swap1\n      pop\n        /* \"#utility.yul\":3074:3381   */\n      swap2\n      swap1\n      pop\n      jump\t// out\n        /* \"#utility.yul\":3387:3533   */\n    tag_76:\n        /* \"#utility.yul\":3484:3490   */\n      dup3\n        /* \"#utility.yul\":3479:3482   */\n      dup2\n        /* \"#utility.yul\":3474:3477   */\n      dup4\n        /* \"#utility.yul\":3461:3491   */\n      calldatacopy\n        /* \"#utility.yul\":3525:3526   */\n      0x00\n        /* \"#utility.yul\":3516:3522   */\n      dup4\n        /* \"#utility.yul\":3511:3514   */\n      dup4\n        /* \"#utility.yul\":3507:3523   */\n      add\n        /* \"#utility.yul\":3500:3527   */\n      mstore\n        /* \"#utility.yul\":3387:3533   */\n      pop\n      pop\n      pop\n      jump\t// out\n        /* \"#utility.yul\":3539:3962   */\n    tag_77:\n        /* \"#utility.yul\":3616:3621   */\n      0x00\n        /* \"#utility.yul\":3641:3706   */\n      tag_145\n        /* \"#utility.yul\":3657:3705   */\n      tag_146\n        /* \"#utility.yul\":3698:3704   */\n      dup5\n        /* \"#utility.yul\":3657:3705   */\n      tag_75\n      jump\t// in\n    tag_146:\n        /* \"#utility.yul\":3641:3706   */\n      tag_74\n      jump\t// in\n    tag_145:\n        /* \"#utility.yul\":3632:3706   */\n      swap1\n      pop\n        /* \"#utility.yul\":3729:3735   */\n      dup3\n        /* \"#utility.yul\":3722:3727   */\n      dup2\n        /* \"#utility.yul\":3715:3736   */\n      mstore\n        /* \"#utility.yul\":3767:3771   */\n      0x20\n        /* \"#utility.yul\":3760:3765   */\n      dup2\n        /* \"#utility.yul\":3756:3772   */\n      add\n        /* \"#utility.yul\":3805:3808   */\n      dup5\n        /* \"#utility.yul\":3796:3802   */\n      dup5\n        /* \"#utility.yul\":3791:3794   */\n      dup5\n        /* \"#utility.yul\":3787:3803   */\n      add\n        /* \"#utility.yul\":3784:3809   */\n      gt\n        /* \"#utility.yul\":3781:3893   */\n      iszero\n      tag_147\n      jumpi\n        /* \"#utility.yul\":3812:3891   */\n      tag_148\n      tag_70\n      jump\t// in\n    tag_148:\n        /* \"#utility.yul\":3781:3893   */\n    tag_147:\n        /* \"#utility.yul\":3902:3956   */\n      tag_149\n        /* \"#utility.yul\":3949:3955   */\n      dup5\n        /* \"#utility.yul\":3944:3947   */\n      dup3\n        /* \"#utility.yul\":3939:3942   */\n      dup6\n        /* \"#utility.yul\":3902:3956   */\n      tag_76\n      jump\t// in\n    tag_149:\n        /* \"#utility.yul\":3622:3962   */\n      pop\n        /* \"#utility.yul\":3539:3962   */\n      swap4\n      swap3\n      pop\n      pop\n      pop\n      jump\t// out\n        /* \"#utility.yul\":3981:4319   */\n    tag_78:\n        /* \"#utility.yul\":4036:4041   */\n      0x00\n        /* \"#utility.yul\":4085:4088   */\n      dup3\n        /* \"#utility.yul\":4078:4082   */\n      0x1f\n        /* \"#utility.yul\":4070:4076   */\n      dup4\n        /* \"#utility.yul\":4066:4083   */\n      add\n        /* \"#utility.yul\":4062:4089   */\n      slt\n        /* \"#utility.yul\":4052:4174   */\n      tag_151\n      jumpi\n        /* \"#utility.yul\":4093:4172   */\n      tag_152\n      tag_69\n      jump\t// in\n    tag_152:\n        /* \"#utility.yul\":4052:4174   */\n    tag_151:\n        /* \"#utility.yul\":4210:4216   */\n      dup2\n        /* \"#utility.yul\":4197:4217   */\n      calldataload\n        /* \"#utility.yul\":4235:4313   */\n      tag_153\n        /* \"#utility.yul\":4309:4312   */\n      dup5\n        /* \"#utility.yul\":4301:4307   */\n      dup3\n        /* \"#utility.yul\":4294:4298   */\n      0x20\n        /* \"#utility.yul\":4286:4292   */\n      dup7\n        /* \"#utility.yul\":4282:4299   */\n      add\n        /* \"#utility.yul\":4235:4313   */\n      tag_77\n      jump\t// in\n    tag_153:\n        /* \"#utility.yul\":4226:4313   */\n      swap2\n      pop\n        /* \"#utility.yul\":4042:4319   */\n      pop\n        /* \"#utility.yul\":3981:4319   */\n      swap3\n      swap2\n      pop\n      pop\n      jump\t// out\n        /* \"#utility.yul\":4325:5268   */\n    tag_16:\n        /* \"#utility.yul\":4420:4426   */\n      0x00\n        /* \"#utility.yul\":4428:4434   */\n      dup1\n        /* \"#utility.yul\":4436:4442   */\n      0x00\n        /* \"#utility.yul\":4444:4450   */\n      dup1\n        /* \"#utility.yul\":4493:4496   */\n      0x80\n        /* \"#utility.yul\":4481:4490   */\n      dup6\n        /* \"#utility.yul\":4472:4479   */\n      dup8\n        /* \"#utility.yul\":4468:4491   */\n      sub\n        /* \"#utility.yul\":4464:4497   */\n      slt\n        /* \"#utility.yul\":4461:4581   */\n      iszero\n      tag_155\n      jumpi\n        /* \"#utility.yul\":4500:4579   */\n      tag_156\n      tag_58\n      jump\t// in\n    tag_156:\n        /* \"#utility.yul\":4461:4581   */\n    tag_155:\n        /* \"#utility.yul\":4620:4621   */\n      0x00\n        /* \"#utility.yul\":4645:4698   */\n      tag_157\n        /* \"#utility.yul\":4690:4697   */\n      dup8\n        /* \"#utility.yul\":4681:4687   */\n      dup3\n        /* \"#utility.yul\":4670:4679   */\n      dup9\n        /* \"#utility.yul\":4666:4688   */\n      add\n        /* \"#utility.yul\":4645:4698   */\n      tag_63\n      jump\t// in\n    tag_157:\n        /* \"#utility.yul\":4635:4698   */\n      swap5\n      pop\n        /* \"#utility.yul\":4591:4708   */\n      pop\n        /* \"#utility.yul\":4747:4749   */\n      0x20\n        /* \"#utility.yul\":4773:4826   */\n      tag_158\n        /* \"#utility.yul\":4818:4825   */\n      dup8\n        /* \"#utility.yul\":4809:4815   */\n      dup3\n        /* \"#utility.yul\":4798:4807   */\n      dup9\n        /* \"#utility.yul\":4794:4816   */\n      add\n        /* \"#utility.yul\":4773:4826   */\n      tag_63\n      jump\t// in\n    tag_158:\n        /* \"#utility.yul\":4763:4826   */\n      swap4\n      pop\n        /* \"#utility.yul\":4718:4836   */\n      pop\n        /* \"#utility.yul\":4875:4877   */\n      0x40\n        /* \"#utility.yul\":4901:4954   */\n      tag_159\n        /* \"#utility.yul\":4946:4953   */\n      dup8\n        /* \"#utility.yul\":4937:4943   */\n      dup3\n        /* \"#utility.yul\":4926:4935   */\n      dup9\n        /* \"#utility.yul\":4922:4944   */\n      add\n        /* \"#utility.yul\":4901:4954   */\n      tag_66\n      jump\t// in\n    tag_159:\n        /* \"#utility.yul\":4891:4954   */\n      swap3\n      pop\n        /* \"#utility.yul\":4846:4964   */\n      pop\n        /* \"#utility.yul\":5031:5033   */\n      0x60\n        /* \"#utility.yul\":5020:5029   */\n      dup6\n        /* \"#utility.yul\":5016:5034   */\n      add\n        /* \"#utility.yul\":5003:5035   */\n      calldataload\n        /* \"#utility.yul\":5062:5080   */\n      0xffffffffffffffff\n        /* \"#utility.yul\":5054:5060   */\n      dup2\n        /* \"#utility.yul\":5051:5081   */\n      gt\n        /* \"#utility.yul\":5048:5165   */\n      iszero\n      tag_160\n      jumpi\n        /* \"#utility.yul\":5084:5163   */\n      tag_161\n      tag_59\n      jump\t// in\n    tag_161:\n        /* \"#utility.yul\":5048:5165   */\n    tag_160:\n        /* \"#utility.yul\":5189:5251   */\n      tag_162\n        /* \"#utility.yul\":5243:5250   */\n      dup8\n        /* \"#utility.yul\":5234:5240   */\n      dup3\n        /* \"#utility.yul\":5223:5232   */\n      dup9\n        /* \"#utility.yul\":5219:5241   */\n      add\n        /* \"#utility.yul\":5189:5251   */\n      tag_78\n      jump\t// in\n    tag_162:\n        /* \"#utility.yul\":5179:5251   */\n      swap2\n      pop\n        /* \"#utility.yul\":4974:5261   */\n      pop\n        /* \"#utility.yul\":4325:5268   */\n      swap3\n      swap6\n      swap2\n      swap5\n      pop\n      swap3\n      pop\n      jump\t// out\n        /* \"#utility.yul\":5274:5364   */\n    tag_79:\n        /* \"#utility.yul\":5308:5315   */\n      0x00\n        /* \"#utility.yul\":5351:5356   */\n      dup2\n        /* \"#utility.yul\":5344:5357   */\n      iszero\n        /* \"#utility.yul\":5337:5358   */\n      iszero\n        /* \"#utility.yul\":5326:5358   */\n      swap1\n      pop\n        /* \"#utility.yul\":5274:5364   */\n      swap2\n      swap1\n      pop\n      jump\t// out\n        /* \"#utility.yul\":5370:5479   */\n    tag_80:\n        /* \"#utility.yul\":5451:5472   */\n      tag_165\n        /* \"#utility.yul\":5466:5471   */\n      dup2\n        /* \"#utility.yul\":5451:5472   */\n      tag_79\n      jump\t// in\n    tag_165:\n        /* \"#utility.yul\":5446:5449   */\n      dup3\n        /* \"#utility.yul\":5439:5473   */\n      mstore\n        /* \"#utility.yul\":5370:5479   */\n      pop\n      pop\n      jump\t// out\n        /* \"#utility.yul\":5485:5695   */\n    tag_19:\n        /* \"#utility.yul\":5572:5576   */\n      0x00\n        /* \"#utility.yul\":5610:5612   */\n      0x20\n        /* \"#utility.yul\":5599:5608   */\n      dup3\n        /* \"#utility.yul\":5595:5613   */\n      add\n        /* \"#utility.yul\":5587:5613   */\n      swap1\n      pop\n        /* \"#utility.yul\":5623:5688   */\n      tag_167\n        /* \"#utility.yul\":5685:5686   */\n      0x00\n        /* \"#utility.yul\":5674:5683   */\n      dup4\n        /* \"#utility.yul\":5670:5687   */\n      add\n        /* \"#utility.yul\":5661:5667   */\n      dup5\n        /* \"#utility.yul\":5623:5688   */\n      tag_80\n      jump\t// in\n    tag_167:\n        /* \"#utility.yul\":5485:5695   */\n      swap3\n      swap2\n      pop\n      pop\n      jump\t// out\n        /* \"#utility.yul\":5701:5823   */\n    tag_81:\n        /* \"#utility.yul\":5774:5798   */\n      tag_169\n        /* \"#utility.yul\":5792:5797   */\n      dup2\n        /* \"#utility.yul\":5774:5798   */\n      tag_67\n      jump\t// in\n    tag_169:\n        /* \"#utility.yul\":5767:5772   */\n      dup2\n        /* \"#utility.yul\":5764:5799   */\n      eq\n        /* \"#utility.yul\":5754:5817   */\n      tag_170\n      jumpi\n        /* \"#utility.yul\":5813:5814   */\n      0x00\n        /* \"#utility.yul\":5810:5811   */\n      dup1\n        /* \"#utility.yul\":5803:5815   */\n      revert\n        /* \"#utility.yul\":5754:5817   */\n    tag_170:\n        /* \"#utility.yul\":5701:5823   */\n      pop\n      jump\t// out\n        /* \"#utility.yul\":5829:5968   */\n    tag_82:\n        /* \"#utility.yul\":5875:5880   */\n      0x00\n        /* \"#utility.yul\":5913:5919   */\n      dup2\n        /* \"#utility.yul\":5900:5920   */\n      calldataload\n        /* \"#utility.yul\":5891:5920   */\n      swap1\n      pop\n        /* \"#utility.yul\":5929:5962   */\n      tag_172\n        /* \"#utility.yul\":5956:5961   */\n      dup2\n        /* \"#utility.yul\":5929:5962   */\n      tag_81\n      jump\t// in\n    tag_172:\n        /* \"#utility.yul\":5829:5968   */\n      swap3\n      swap2\n      pop\n      pop\n      jump\t// out\n        /* \"#utility.yul\":5974:6626   */\n    tag_22:\n        /* \"#utility.yul\":6051:6057   */\n      0x00\n        /* \"#utility.yul\":6059:6065   */\n      dup1\n        /* \"#utility.yul\":6108:6110   */\n      0x40\n        /* \"#utility.yul\":6096:6105   */\n      dup4\n        /* \"#utility.yul\":6087:6094   */\n      dup6\n        /* \"#utility.yul\":6083:6106   */\n      sub\n        /* \"#utility.yul\":6079:6111   */\n      slt\n        /* \"#utility.yul\":6076:6195   */\n      iszero\n      tag_174\n      jumpi\n        /* \"#utility.yul\":6114:6193   */\n      tag_175\n      tag_58\n      jump\t// in\n    tag_175:\n        /* \"#utility.yul\":6076:6195   */\n    tag_174:\n        /* \"#utility.yul\":6234:6235   */\n      0x00\n        /* \"#utility.yul\":6259:6312   */\n      tag_176\n        /* \"#utility.yul\":6304:6311   */\n      dup6\n        /* \"#utility.yul\":6295:6301   */\n      dup3\n        /* \"#utility.yul\":6284:6293   */\n      dup7\n        /* \"#utility.yul\":6280:6302   */\n      add\n        /* \"#utility.yul\":6259:6312   */\n      tag_82\n      jump\t// in\n    tag_176:\n        /* \"#utility.yul\":6249:6312   */\n      swap3\n      pop\n        /* \"#utility.yul\":6205:6322   */\n      pop\n        /* \"#utility.yul\":6389:6391   */\n      0x20\n        /* \"#utility.yul\":6378:6387   */\n      dup4\n        /* \"#utility.yul\":6374:6392   */\n      add\n        /* \"#utility.yul\":6361:6393   */\n      calldataload\n        /* \"#utility.yul\":6420:6438   */\n      0xffffffffffffffff\n        /* \"#utility.yul\":6412:6418   */\n      dup2\n        /* \"#utility.yul\":6409:6439   */\n      gt\n        /* \"#utility.yul\":6406:6523   */\n      iszero\n      tag_177\n      jumpi\n        /* \"#utility.yul\":6442:6521   */\n      tag_178\n      tag_59\n      jump\t// in\n    tag_178:\n        /* \"#utility.yul\":6406:6523   */\n    tag_177:\n        /* \"#utility.yul\":6547:6609   */\n      tag_179\n        /* \"#utility.yul\":6601:6608   */\n      dup6\n        /* \"#utility.yul\":6592:6598   */\n      dup3\n        /* \"#utility.yul\":6581:6590   */\n      dup7\n        /* \"#utility.yul\":6577:6599   */\n      add\n        /* \"#utility.yul\":6547:6609   */\n      tag_78\n      jump\t// in\n    tag_179:\n        /* \"#utility.yul\":6537:6609   */\n      swap2\n      pop\n        /* \"#utility.yul\":6332:6619   */\n      pop\n        /* \"#utility.yul\":5974:6626   */\n      swap3\n      pop\n      swap3\n      swap1\n      pop\n      jump\t// out\n        /* \"#utility.yul\":6632:6750   */\n    tag_83:\n        /* \"#utility.yul\":6719:6743   */\n      tag_181\n        /* \"#utility.yul\":6737:6742   */\n      dup2\n        /* \"#utility.yul\":6719:6743   */\n      tag_61\n      jump\t// in\n    tag_181:\n        /* \"#utility.yul\":6714:6717   */\n      dup3\n        /* \"#utility.yul\":6707:6744   */\n      mstore\n        /* \"#utility.yul\":6632:6750   */\n      pop\n      pop\n      jump\t// out\n        /* \"#utility.yul\":6756:6978   */\n    tag_25:\n        /* \"#utility.yul\":6849:6853   */\n      0x00\n        /* \"#utility.yul\":6887:6889   */\n      0x20\n        /* \"#utility.yul\":6876:6885   */\n      dup3\n        /* \"#utility.yul\":6872:6890   */\n      add\n        /* \"#utility.yul\":6864:6890   */\n      swap1\n      pop\n        /* \"#utility.yul\":6900:6971   */\n      tag_183\n        /* \"#utility.yul\":6968:6969   */\n      0x00\n        /* \"#utility.yul\":6957:6966   */\n      dup4\n        /* \"#utility.yul\":6953:6970   */\n      add\n        /* \"#utility.yul\":6944:6950   */\n      dup5\n        /* \"#utility.yul\":6900:6971   */\n      tag_83\n      jump\t// in\n    tag_183:\n        /* \"#utility.yul\":6756:6978   */\n      swap3\n      swap2\n      pop\n      pop\n      jump\t// out\n        /* \"#utility.yul\":6984:7491   */\n    tag_28:\n        /* \"#utility.yul\":7052:7058   */\n      0x00\n        /* \"#utility.yul\":7101:7103   */\n      0x20\n        /* \"#utility.yul\":7089:7098   */\n      dup3\n        /* \"#utility.yul\":7080:7087   */\n      dup5\n        /* \"#utility.yul\":7076:7099   */\n      sub\n        /* \"#utility.yul\":7072:7104   */\n      slt\n        /* \"#utility.yul\":7069:7188   */\n      iszero\n      tag_185\n      jumpi\n        /* \"#utility.yul\":7107:7186   */\n      tag_186\n      tag_58\n      jump\t// in\n    tag_186:\n        /* \"#utility.yul\":7069:7188   */\n    tag_185:\n        /* \"#utility.yul\":7255:7256   */\n      0x00\n        /* \"#utility.yul\":7244:7253   */\n      dup3\n        /* \"#utility.yul\":7240:7257   */\n      add\n        /* \"#utility.yul\":7227:7258   */\n      calldataload\n        /* \"#utility.yul\":7285:7303   */\n      0xffffffffffffffff\n        /* \"#utility.yul\":7277:7283   */\n      dup2\n        /* \"#utility.yul\":7274:7304   */\n      gt\n        /* \"#utility.yul\":7271:7388   */\n      iszero\n      tag_187\n      jumpi\n        /* \"#utility.yul\":7307:7386   */\n      tag_188\n      tag_59\n      jump\t// in\n    tag_188:\n        /* \"#utility.yul\":7271:7388   */\n    tag_187:\n        /* \"#utility.yul\":7412:7474   */\n      tag_189\n        /* \"#utility.yul\":7466:7473   */\n      dup5\n        /* \"#utility.yul\":7457:7463   */\n      dup3\n        /* \"#utility.yul\":7446:7455   */\n      dup6\n        /* \"#utility.yul\":7442:7464   */\n      add\n        /* \"#utility.yul\":7412:7474   */\n      tag_78\n      jump\t// in\n    tag_189:\n        /* \"#utility.yul\":7402:7474   */\n      swap2\n      pop\n        /* \"#utility.yul\":7198:7484   */\n      pop\n        /* \"#utility.yul\":6984:7491   */\n      swap3\n      swap2\n      pop\n      pop\n      jump\t// out\n        /* \"#utility.yul\":7497:7583   */\n    tag_84:\n        /* \"#utility.yul\":7532:7539   */\n      0x00\n        /* \"#utility.yul\":7572:7576   */\n      0xff\n        /* \"#utility.yul\":7565:7570   */\n      dup3\n        /* \"#utility.yul\":7561:7577   */\n      and\n        /* \"#utility.yul\":7550:7577   */\n      swap1\n      pop\n        /* \"#utility.yul\":7497:7583   */\n      swap2\n      swap1\n      pop\n      jump\t// out\n        /* \"#utility.yul\":7589:7701   */\n    tag_85:\n        /* \"#utility.yul\":7672:7694   */\n      tag_192\n        /* \"#utility.yul\":7688:7693   */\n      dup2\n        /* \"#utility.yul\":7672:7694   */\n      tag_84\n      jump\t// in\n    tag_192:\n        /* \"#utility.yul\":7667:7670   */\n      dup3\n        /* \"#utility.yul\":7660:7695   */\n      mstore\n        /* \"#utility.yul\":7589:7701   */\n      pop\n      pop\n      jump\t// out\n        /* \"#utility.yul\":7707:8141   */\n    tag_31:\n        /* \"#utility.yul\":7852:7856   */\n      0x00\n        /* \"#utility.yul\":7890:7892   */\n      0x60\n        /* \"#utility.yul\":7879:7888   */\n      dup3\n        /* \"#utility.yul\":7875:7893   */\n      add\n        /* \"#utility.yul\":7867:7893   */\n      swap1\n      pop\n        /* \"#utility.yul\":7903:7974   */\n      tag_194\n        /* \"#utility.yul\":7971:7972   */\n      0x00\n        /* \"#utility.yul\":7960:7969   */\n      dup4\n        /* \"#utility.yul\":7956:7973   */\n      add\n        /* \"#utility.yul\":7947:7953   */\n      dup7\n        /* \"#utility.yul\":7903:7974   */\n      tag_68\n      jump\t// in\n    tag_194:\n        /* \"#utility.yul\":7984:8056   */\n      tag_195\n        /* \"#utility.yul\":8052:8054   */\n      0x20\n        /* \"#utility.yul\":8041:8050   */\n      dup4\n        /* \"#utility.yul\":8037:8055   */\n      add\n        /* \"#utility.yul\":8028:8034   */\n      dup6\n        /* \"#utility.yul\":7984:8056   */\n      tag_68\n      jump\t// in\n    tag_195:\n        /* \"#utility.yul\":8066:8134   */\n      tag_196\n        /* \"#utility.yul\":8130:8132   */\n      0x40\n        /* \"#utility.yul\":8119:8128   */\n      dup4\n        /* \"#utility.yul\":8115:8133   */\n      add\n        /* \"#utility.yul\":8106:8112   */\n      dup5\n        /* \"#utility.yul\":8066:8134   */\n      tag_85\n      jump\t// in\n    tag_196:\n        /* \"#utility.yul\":7707:8141   */\n      swap5\n      swap4\n      pop\n      pop\n      pop\n      pop\n      jump\t// out\n        /* \"#utility.yul\":8147:8476   */\n    tag_34:\n        /* \"#utility.yul\":8206:8212   */\n      0x00\n        /* \"#utility.yul\":8255:8257   */\n      0x20\n        /* \"#utility.yul\":8243:8252   */\n      dup3\n        /* \"#utility.yul\":8234:8241   */\n      dup5\n        /* \"#utility.yul\":8230:8253   */\n      sub\n        /* \"#utility.yul\":8226:8258   */\n      slt\n        /* \"#utility.yul\":8223:8342   */\n      iszero\n      tag_198\n      jumpi\n        /* \"#utility.yul\":8261:8340   */\n      tag_199\n      tag_58\n      jump\t// in\n    tag_199:\n        /* \"#utility.yul\":8223:8342   */\n    tag_198:\n        /* \"#utility.yul\":8381:8382   */\n      0x00\n        /* \"#utility.yul\":8406:8459   */\n      tag_200\n        /* \"#utility.yul\":8451:8458   */\n      dup5\n        /* \"#utility.yul\":8442:8448   */\n      dup3\n        /* \"#utility.yul\":8431:8440   */\n      dup6\n        /* \"#utility.yul\":8427:8449   */\n      add\n        /* \"#utility.yul\":8406:8459   */\n      tag_82\n      jump\t// in\n    tag_200:\n        /* \"#utility.yul\":8396:8459   */\n      swap2\n      pop\n        /* \"#utility.yul\":8352:8469   */\n      pop\n        /* \"#utility.yul\":8147:8476   */\n      swap3\n      swap2\n      pop\n      pop\n      jump\t// out\n        /* \"#utility.yul\":8482:8576   */\n    tag_86:\n        /* \"#utility.yul\":8515:8523   */\n      0x00\n        /* \"#utility.yul\":8563:8568   */\n      dup2\n        /* \"#utility.yul\":8559:8561   */\n      0x60\n        /* \"#utility.yul\":8555:8569   */\n      shl\n        /* \"#utility.yul\":8534:8569   */\n      swap1\n      pop\n        /* \"#utility.yul\":8482:8576   */\n      swap2\n      swap1\n      pop\n      jump\t// out\n        /* \"#utility.yul\":8582:8676   */\n    tag_87:\n        /* \"#utility.yul\":8621:8628   */\n      0x00\n        /* \"#utility.yul\":8650:8670   */\n      tag_203\n        /* \"#utility.yul\":8664:8669   */\n      dup3\n        /* \"#utility.yul\":8650:8670   */\n      tag_86\n      jump\t// in\n    tag_203:\n        /* \"#utility.yul\":8639:8670   */\n      swap1\n      pop\n        /* \"#utility.yul\":8582:8676   */\n      swap2\n      swap1\n      pop\n      jump\t// out\n        /* \"#utility.yul\":8682:8782   */\n    tag_88:\n        /* \"#utility.yul\":8721:8728   */\n      0x00\n        /* \"#utility.yul\":8750:8776   */\n      tag_205\n        /* \"#utility.yul\":8770:8775   */\n      dup3\n        /* \"#utility.yul\":8750:8776   */\n      tag_87\n      jump\t// in\n    tag_205:\n        /* \"#utility.yul\":8739:8776   */\n      swap1\n      pop\n        /* \"#utility.yul\":8682:8782   */\n      swap2\n      swap1\n      pop\n      jump\t// out\n        /* \"#utility.yul\":8788:8945   */\n    tag_89:\n        /* \"#utility.yul\":8893:8938   */\n      tag_207\n        /* \"#utility.yul\":8913:8937   */\n      tag_208\n        /* \"#utility.yul\":8931:8936   */\n      dup3\n        /* \"#utility.yul\":8913:8937   */\n      tag_61\n      jump\t// in\n    tag_208:\n        /* \"#utility.yul\":8893:8938   */\n      tag_88\n      jump\t// in\n    tag_207:\n        /* \"#utility.yul\":8888:8891   */\n      dup3\n        /* \"#utility.yul\":8881:8939   */\n      mstore\n        /* \"#utility.yul\":8788:8945   */\n      pop\n      pop\n      jump\t// out\n        /* \"#utility.yul\":8951:9030   */\n    tag_90:\n        /* \"#utility.yul\":8990:8997   */\n      0x00\n        /* \"#utility.yul\":9019:9024   */\n      dup2\n        /* \"#utility.yul\":9008:9024   */\n      swap1\n      pop\n        /* \"#utility.yul\":8951:9030   */\n      swap2\n      swap1\n      pop\n      jump\t// out\n        /* \"#utility.yul\":9036:9193   */\n    tag_91:\n        /* \"#utility.yul\":9141:9186   */\n      tag_211\n        /* \"#utility.yul\":9161:9185   */\n      tag_212\n        /* \"#utility.yul\":9179:9184   */\n      dup3\n        /* \"#utility.yul\":9161:9185   */\n      tag_64\n      jump\t// in\n    tag_212:\n        /* \"#utility.yul\":9141:9186   */\n      tag_90\n      jump\t// in\n    tag_211:\n        /* \"#utility.yul\":9136:9139   */\n      dup3\n        /* \"#utility.yul\":9129:9187   */\n      mstore\n        /* \"#utility.yul\":9036:9193   */\n      pop\n      pop\n      jump\t// out\n        /* \"#utility.yul\":9199:9596   */\n    tag_39:\n        /* \"#utility.yul\":9339:9342   */\n      0x00\n        /* \"#utility.yul\":9354:9429   */\n      tag_214\n        /* \"#utility.yul\":9425:9428   */\n      dup3\n        /* \"#utility.yul\":9416:9422   */\n      dup6\n        /* \"#utility.yul\":9354:9429   */\n      tag_89\n      jump\t// in\n    tag_214:\n        /* \"#utility.yul\":9454:9456   */\n      0x14\n        /* \"#utility.yul\":9449:9452   */\n      dup3\n        /* \"#utility.yul\":9445:9457   */\n      add\n        /* \"#utility.yul\":9438:9457   */\n      swap2\n      pop\n        /* \"#utility.yul\":9467:9542   */\n      tag_215\n        /* \"#utility.yul\":9538:9541   */\n      dup3\n        /* \"#utility.yul\":9529:9535   */\n      dup5\n        /* \"#utility.yul\":9467:9542   */\n      tag_91\n      jump\t// in\n    tag_215:\n        /* \"#utility.yul\":9567:9569   */\n      0x20\n        /* \"#utility.yul\":9562:9565   */\n      dup3\n        /* \"#utility.yul\":9558:9570   */\n      add\n        /* \"#utility.yul\":9551:9570   */\n      swap2\n      pop\n        /* \"#utility.yul\":9587:9590   */\n      dup2\n        /* \"#utility.yul\":9580:9590   */\n      swap1\n      pop\n        /* \"#utility.yul\":9199:9596   */\n      swap4\n      swap3\n      pop\n      pop\n      pop\n      jump\t// out\n        /* \"#utility.yul\":9602:10147   */\n    tag_47:\n        /* \"#utility.yul\":9775:9779   */\n      0x00\n        /* \"#utility.yul\":9813:9816   */\n      0x80\n        /* \"#utility.yul\":9802:9811   */\n      dup3\n        /* \"#utility.yul\":9798:9817   */\n      add\n        /* \"#utility.yul\":9790:9817   */\n      swap1\n      pop\n        /* \"#utility.yul\":9827:9898   */\n      tag_217\n        /* \"#utility.yul\":9895:9896   */\n      0x00\n        /* \"#utility.yul\":9884:9893   */\n      dup4\n        /* \"#utility.yul\":9880:9897   */\n      add\n        /* \"#utility.yul\":9871:9877   */\n      dup8\n        /* \"#utility.yul\":9827:9898   */\n      tag_68\n      jump\t// in\n    tag_217:\n        /* \"#utility.yul\":9908:9976   */\n      tag_218\n        /* \"#utility.yul\":9972:9974   */\n      0x20\n        /* \"#utility.yul\":9961:9970   */\n      dup4\n        /* \"#utility.yul\":9957:9975   */\n      add\n        /* \"#utility.yul\":9948:9954   */\n      dup7\n        /* \"#utility.yul\":9908:9976   */\n      tag_85\n      jump\t// in\n    tag_218:\n        /* \"#utility.yul\":9986:10058   */\n      tag_219\n        /* \"#utility.yul\":10054:10056   */\n      0x40\n        /* \"#utility.yul\":10043:10052   */\n      dup4\n        /* \"#utility.yul\":10039:10057   */\n      add\n        /* \"#utility.yul\":10030:10036   */\n      dup6\n        /* \"#utility.yul\":9986:10058   */\n      tag_68\n      jump\t// in\n    tag_219:\n        /* \"#utility.yul\":10068:10140   */\n      tag_220\n        /* \"#utility.yul\":10136:10138   */\n      0x60\n        /* \"#utility.yul\":10125:10134   */\n      dup4\n        /* \"#utility.yul\":10121:10139   */\n      add\n        /* \"#utility.yul\":10112:10118   */\n      dup5\n        /* \"#utility.yul\":10068:10140   */\n      tag_68\n      jump\t// in\n    tag_220:\n        /* \"#utility.yul\":9602:10147   */\n      swap6\n      swap5\n      pop\n      pop\n      pop\n      pop\n      pop\n      jump\t// out\n        /* \"#utility.yul\":10153:10322   */\n    tag_92:\n        /* \"#utility.yul\":10237:10248   */\n      0x00\n        /* \"#utility.yul\":10271:10277   */\n      dup3\n        /* \"#utility.yul\":10266:10269   */\n      dup3\n        /* \"#utility.yul\":10259:10278   */\n      mstore\n        /* \"#utility.yul\":10311:10315   */\n      0x20\n        /* \"#utility.yul\":10306:10309   */\n      dup3\n        /* \"#utility.yul\":10302:10316   */\n      add\n        /* \"#utility.yul\":10287:10316   */\n      swap1\n      pop\n        /* \"#utility.yul\":10153:10322   */\n      swap3\n      swap2\n      pop\n      pop\n      jump\t// out\n        /* \"#utility.yul\":10328:10502   */\n    tag_93:\n        /* \"#utility.yul\":10468:10494   */\n      0x696e76616c6964207369676e6174757265206c656e6774680000000000000000\n        /* \"#utility.yul\":10464:10465   */\n      0x00\n        /* \"#utility.yul\":10456:10462   */\n      dup3\n        /* \"#utility.yul\":10452:10466   */\n      add\n        /* \"#utility.yul\":10445:10495   */\n      mstore\n        /* \"#utility.yul\":10328:10502   */\n      pop\n      jump\t// out\n        /* \"#utility.yul\":10508:10874   */\n    tag_94:\n        /* \"#utility.yul\":10650:10653   */\n      0x00\n        /* \"#utility.yul\":10671:10738   */\n      tag_224\n        /* \"#utility.yul\":10735:10737   */\n      0x18\n        /* \"#utility.yul\":10730:10733   */\n      dup4\n        /* \"#utility.yul\":10671:10738   */\n      tag_92\n      jump\t// in\n    tag_224:\n        /* \"#utility.yul\":10664:10738   */\n      swap2\n      pop\n        /* \"#utility.yul\":10747:10840   */\n      tag_225\n        /* \"#utility.yul\":10836:10839   */\n      dup3\n        /* \"#utility.yul\":10747:10840   */\n      tag_93\n      jump\t// in\n    tag_225:\n        /* \"#utility.yul\":10865:10867   */\n      0x20\n        /* \"#utility.yul\":10860:10863   */\n      dup3\n        /* \"#utility.yul\":10856:10868   */\n      add\n        /* \"#utility.yul\":10849:10868   */\n      swap1\n      pop\n        /* \"#utility.yul\":10508:10874   */\n      swap2\n      swap1\n      pop\n      jump\t// out\n        /* \"#utility.yul\":10880:11299   */\n    tag_53:\n        /* \"#utility.yul\":11046:11050   */\n      0x00\n        /* \"#utility.yul\":11084:11086   */\n      0x20\n        /* \"#utility.yul\":11073:11082   */\n      dup3\n        /* \"#utility.yul\":11069:11087   */\n      add\n        /* \"#utility.yul\":11061:11087   */\n      swap1\n      pop\n        /* \"#utility.yul\":11133:11142   */\n      dup2\n        /* \"#utility.yul\":11127:11131   */\n      dup2\n        /* \"#utility.yul\":11123:11143   */\n      sub\n        /* \"#utility.yul\":11119:11120   */\n      0x00\n        /* \"#utility.yul\":11108:11117   */\n      dup4\n        /* \"#utility.yul\":11104:11121   */\n      add\n        /* \"#utility.yul\":11097:11144   */\n      mstore\n        /* \"#utility.yul\":11161:11292   */\n      tag_227\n        /* \"#utility.yul\":11287:11291   */\n      dup2\n        /* \"#utility.yul\":11161:11292   */\n      tag_94\n      jump\t// in\n    tag_227:\n        /* \"#utility.yul\":11153:11292   */\n      swap1\n      pop\n        /* \"#utility.yul\":10880:11299   */\n      swap2\n      swap1\n      pop\n      jump\t// out\n        /* \"#utility.yul\":11305:11453   */\n    tag_95:\n        /* \"#utility.yul\":11407:11418   */\n      0x00\n        /* \"#utility.yul\":11444:11447   */\n      dup2\n        /* \"#utility.yul\":11429:11447   */\n      swap1\n      pop\n        /* \"#utility.yul\":11305:11453   */\n      swap3\n      swap2\n      pop\n      pop\n      jump\t// out\n        /* \"#utility.yul\":11459:11673   */\n    tag_96:\n        /* \"#utility.yul\":11599:11665   */\n      0x19457468657265756d205369676e6564204d6573736167653a0a333200000000\n        /* \"#utility.yul\":11595:11596   */\n      0x00\n        /* \"#utility.yul\":11587:11593   */\n      dup3\n        /* \"#utility.yul\":11583:11597   */\n      add\n        /* \"#utility.yul\":11576:11666   */\n      mstore\n        /* \"#utility.yul\":11459:11673   */\n      pop\n      jump\t// out\n        /* \"#utility.yul\":11679:12081   */\n    tag_97:\n        /* \"#utility.yul\":11839:11842   */\n      0x00\n        /* \"#utility.yul\":11860:11945   */\n      tag_231\n        /* \"#utility.yul\":11942:11944   */\n      0x1c\n        /* \"#utility.yul\":11937:11940   */\n      dup4\n        /* \"#utility.yul\":11860:11945   */\n      tag_95\n      jump\t// in\n    tag_231:\n        /* \"#utility.yul\":11853:11945   */\n      swap2\n      pop\n        /* \"#utility.yul\":11954:12047   */\n      tag_232\n        /* \"#utility.yul\":12043:12046   */\n      dup3\n        /* \"#utility.yul\":11954:12047   */\n      tag_96\n      jump\t// in\n    tag_232:\n        /* \"#utility.yul\":12072:12074   */\n      0x1c\n        /* \"#utility.yul\":12067:12070   */\n      dup3\n        /* \"#utility.yul\":12063:12075   */\n      add\n        /* \"#utility.yul\":12056:12075   */\n      swap1\n      pop\n        /* \"#utility.yul\":11679:12081   */\n      swap2\n      swap1\n      pop\n      jump\t// out\n        /* \"#utility.yul\":12087:12166   */\n    tag_98:\n        /* \"#utility.yul\":12126:12133   */\n      0x00\n        /* \"#utility.yul\":12155:12160   */\n      dup2\n        /* \"#utility.yul\":12144:12160   */\n      swap1\n      pop\n        /* \"#utility.yul\":12087:12166   */\n      swap2\n      swap1\n      pop\n      jump\t// out\n        /* \"#utility.yul\":12172:12329   */\n    tag_99:\n        /* \"#utility.yul\":12277:12322   */\n      tag_235\n        /* \"#utility.yul\":12297:12321   */\n      tag_236\n        /* \"#utility.yul\":12315:12320   */\n      dup3\n        /* \"#utility.yul\":12297:12321   */\n      tag_67\n      jump\t// in\n    tag_236:\n        /* \"#utility.yul\":12277:12322   */\n      tag_98\n      jump\t// in\n    tag_235:\n        /* \"#utility.yul\":12272:12275   */\n      dup3\n        /* \"#utility.yul\":12265:12323   */\n      mstore\n        /* \"#utility.yul\":12172:12329   */\n      pop\n      pop\n      jump\t// out\n        /* \"#utility.yul\":12335:12857   */\n    tag_56:\n        /* \"#utility.yul\":12548:12551   */\n      0x00\n        /* \"#utility.yul\":12570:12718   */\n      tag_238\n        /* \"#utility.yul\":12714:12717   */\n      dup3\n        /* \"#utility.yul\":12570:12718   */\n      tag_97\n      jump\t// in\n    tag_238:\n        /* \"#utility.yul\":12563:12718   */\n      swap2\n      pop\n        /* \"#utility.yul\":12728:12803   */\n      tag_239\n        /* \"#utility.yul\":12799:12802   */\n      dup3\n        /* \"#utility.yul\":12790:12796   */\n      dup5\n        /* \"#utility.yul\":12728:12803   */\n      tag_99\n      jump\t// in\n    tag_239:\n        /* \"#utility.yul\":12828:12830   */\n      0x20\n        /* \"#utility.yul\":12823:12826   */\n      dup3\n        /* \"#utility.yul\":12819:12831   */\n      add\n        /* \"#utility.yul\":12812:12831   */\n      swap2\n      pop\n        /* \"#utility.yul\":12848:12851   */\n      dup2\n        /* \"#utility.yul\":12841:12851   */\n      swap1\n      pop\n        /* \"#utility.yul\":12335:12857   */\n      swap3\n      swap2\n      pop\n      pop\n      jump\t// out\n\n    auxdata: 0xa2646970667358221220e2c35e74803ca8f8dbc705b4c93dfdb987ec325fc4e68d0f208076ceb642acdf64736f6c63430008170033\n}\n",
				"bytecode": {
					"linkReferences": {},
					"object": "608060405234801561000f575f80fd5b5061095d8061001d5f395ff3fe608060405234801561000f575f80fd5b5060043610610055575f3560e01c8063512c91df1461005957806393e9f8fc1461008957806397aba7f9146100b9578063a7bb5803146100e9578063fa5408011461011b575b5f80fd5b610073600480360381019061006e9190610377565b61014b565b60405161008091906103cd565b60405180910390f35b6100a3600480360381019061009e9190610522565b61017d565b6040516100b091906105bc565b60405180910390f35b6100d360048036038101906100ce91906105ff565b6101db565b6040516100e09190610668565b60405180910390f35b61010360048036038101906100fe9190610681565b610245565b604051610112939291906106e3565b60405180910390f35b61013560048036038101906101309190610718565b6102aa565b60405161014291906103cd565b60405180910390f35b5f828260405160200161015f9291906107a8565b60405160208183030381529060405280519060200120905092915050565b5f80610189858561014b565b90505f610195826102aa565b90508673ffffffffffffffffffffffffffffffffffffffff166101b882866101db565b73ffffffffffffffffffffffffffffffffffffffff161492505050949350505050565b5f805f806101e885610245565b9250925092506001868285856040515f815260200160405260405161021094939291906107d3565b6020604051602081039080840390855afa158015610230573d5f803e3d5ffd5b50505060206040510351935050505092915050565b5f805f604184511461028c576040517f08c379a000000000000000000000000000000000000000000000000000000000815260040161028390610870565b60405180910390fd5b602084015192506040840151915060608401515f1a90509193909250565b5f816040516020016102bc9190610902565b604051602081830303815290604052805190602001209050919050565b5f604051905090565b5f80fd5b5f80fd5b5f73ffffffffffffffffffffffffffffffffffffffff82169050919050565b5f610313826102ea565b9050919050565b61032381610309565b811461032d575f80fd5b50565b5f8135905061033e8161031a565b92915050565b5f819050919050565b61035681610344565b8114610360575f80fd5b50565b5f813590506103718161034d565b92915050565b5f806040838503121561038d5761038c6102e2565b5b5f61039a85828601610330565b92505060206103ab85828601610363565b9150509250929050565b5f819050919050565b6103c7816103b5565b82525050565b5f6020820190506103e05f8301846103be565b92915050565b5f80fd5b5f80fd5b5f601f19601f8301169050919050565b7f4e487b71000000000000000000000000000000000000000000000000000000005f52604160045260245ffd5b610434826103ee565b810181811067ffffffffffffffff82111715610453576104526103fe565b5b80604052505050565b5f6104656102d9565b9050610471828261042b565b919050565b5f67ffffffffffffffff8211156104905761048f6103fe565b5b610499826103ee565b9050602081019050919050565b828183375f83830152505050565b5f6104c66104c184610476565b61045c565b9050828152602081018484840111156104e2576104e16103ea565b5b6104ed8482856104a6565b509392505050565b5f82601f830112610509576105086103e6565b5b81356105198482602086016104b4565b91505092915050565b5f805f806080858703121561053a576105396102e2565b5b5f61054787828801610330565b945050602061055887828801610330565b935050604061056987828801610363565b925050606085013567ffffffffffffffff81111561058a576105896102e6565b5b610596878288016104f5565b91505092959194509250565b5f8115159050919050565b6105b6816105a2565b82525050565b5f6020820190506105cf5f8301846105ad565b92915050565b6105de816103b5565b81146105e8575f80fd5b50565b5f813590506105f9816105d5565b92915050565b5f8060408385031215610615576106146102e2565b5b5f610622858286016105eb565b925050602083013567ffffffffffffffff811115610643576106426102e6565b5b61064f858286016104f5565b9150509250929050565b61066281610309565b82525050565b5f60208201905061067b5f830184610659565b92915050565b5f60208284031215610696576106956102e2565b5b5f82013567ffffffffffffffff8111156106b3576106b26102e6565b5b6106bf848285016104f5565b91505092915050565b5f60ff82169050919050565b6106dd816106c8565b82525050565b5f6060820190506106f65f8301866103be565b61070360208301856103be565b61071060408301846106d4565b949350505050565b5f6020828403121561072d5761072c6102e2565b5b5f61073a848285016105eb565b91505092915050565b5f8160601b9050919050565b5f61075982610743565b9050919050565b5f61076a8261074f565b9050919050565b61078261077d82610309565b610760565b82525050565b5f819050919050565b6107a261079d82610344565b610788565b82525050565b5f6107b38285610771565b6014820191506107c38284610791565b6020820191508190509392505050565b5f6080820190506107e65f8301876103be565b6107f360208301866106d4565b61080060408301856103be565b61080d60608301846103be565b95945050505050565b5f82825260208201905092915050565b7f696e76616c6964207369676e6174757265206c656e67746800000000000000005f82015250565b5f61085a601883610816565b915061086582610826565b602082019050919050565b5f6020820190508181035f8301526108878161084e565b9050919050565b5f81905092915050565b7f19457468657265756d205369676e6564204d6573736167653a0a3332000000005f82015250565b5f6108cc601c8361088e565b91506108d782610898565b601c82019050919050565b5f819050919050565b6108fc6108f7826103b5565b6108e2565b82525050565b5f61090c826108c0565b915061091882846108eb565b6020820191508190509291505056fea2646970667358221220e2c35e74803ca8f8dbc705b4c93dfdb987ec325fc4e68d0f208076ceb642acdf64736f6c63430008170033",
					"opcodes": "PUSH1 0x80 PUSH1 0x40 MSTORE CALLVALUE DUP1 ISZERO PUSH2 0xF JUMPI PUSH0 DUP1 REVERT JUMPDEST POP PUSH2 0x95D DUP1 PUSH2 0x1D PUSH0 CODECOPY PUSH0 RETURN INVALID PUSH1 0x80 PUSH1 0x40 MSTORE CALLVALUE DUP1 ISZERO PUSH2 0xF JUMPI PUSH0 DUP1 REVERT JUMPDEST POP PUSH1 0x4 CALLDATASIZE LT PUSH2 0x55 JUMPI PUSH0 CALLDATALOAD PUSH1 0xE0 SHR DUP1 PUSH4 0x512C91DF EQ PUSH2 0x59 JUMPI DUP1 PUSH4 0x93E9F8FC EQ PUSH2 0x89 JUMPI DUP1 PUSH4 0x97ABA7F9 EQ PUSH2 0xB9 JUMPI DUP1 PUSH4 0xA7BB5803 EQ PUSH2 0xE9 JUMPI DUP1 PUSH4 0xFA540801 EQ PUSH2 0x11B JUMPI JUMPDEST PUSH0 DUP1 REVERT JUMPDEST PUSH2 0x73 PUSH1 0x4 DUP1 CALLDATASIZE SUB DUP2 ADD SWAP1 PUSH2 0x6E SWAP2 SWAP1 PUSH2 0x377 JUMP JUMPDEST PUSH2 0x14B JUMP JUMPDEST PUSH1 0x40 MLOAD PUSH2 0x80 SWAP2 SWAP1 PUSH2 0x3CD JUMP JUMPDEST PUSH1 0x40 MLOAD DUP1 SWAP2 SUB SWAP1 RETURN JUMPDEST PUSH2 0xA3 PUSH1 0x4 DUP1 CALLDATASIZE SUB DUP2 ADD SWAP1 PUSH2 0x9E SWAP2 SWAP1 PUSH2 0x522 JUMP JUMPDEST PUSH2 0x17D JUMP JUMPDEST PUSH1 0x40 MLOAD PUSH2 0xB0 SWAP2 SWAP1 PUSH2 0x5BC JUMP JUMPDEST PUSH1 0x40 MLOAD DUP1 SWAP2 SUB SWAP1 RETURN JUMPDEST PUSH2 0xD3 PUSH1 0x4 DUP1 CALLDATASIZE SUB DUP2 ADD SWAP1 PUSH2 0xCE SWAP2 SWAP1 PUSH2 0x5FF JUMP JUMPDEST PUSH2 0x1DB JUMP JUMPDEST PUSH1 0x40 MLOAD PUSH2 0xE0 SWAP2 SWAP1 PUSH2 0x668 JUMP JUMPDEST PUSH1 0x40 MLOAD DUP1 SWAP2 SUB SWAP1 RETURN JUMPDEST PUSH2 0x103 PUSH1 0x4 DUP1 CALLDATASIZE SUB DUP2 ADD SWAP1 PUSH2 0xFE SWAP2 SWAP1 PUSH2 0x681 JUMP JUMPDEST PUSH2 0x245 JUMP JUMPDEST PUSH1 0x40 MLOAD PUSH2 0x112 SWAP4 SWAP3 SWAP2 SWAP1 PUSH2 0x6E3 JUMP JUMPDEST PUSH1 0x40 MLOAD DUP1 SWAP2 SUB SWAP1 RETURN JUMPDEST PUSH2 0x135 PUSH1 0x4 DUP1 CALLDATASIZE SUB DUP2 ADD SWAP1 PUSH2 0x130 SWAP2 SWAP1 PUSH2 0x718 JUMP JUMPDEST PUSH2 0x2AA JUMP JUMPDEST PUSH1 0x40 MLOAD PUSH2 0x142 SWAP2 SWAP1 PUSH2 0x3CD JUMP JUMPDEST PUSH1 0x40 MLOAD DUP1 SWAP2 SUB SWAP1 RETURN JUMPDEST PUSH0 DUP3 DUP3 PUSH1 0x40 MLOAD PUSH1 0x20 ADD PUSH2 0x15F SWAP3 SWAP2 SWAP1 PUSH2 0x7A8 JUMP JUMPDEST PUSH1 0x40 MLOAD PUSH1 0x20 DUP2 DUP4 SUB SUB DUP2 MSTORE SWAP1 PUSH1 0x40 MSTORE DUP1 MLOAD SWAP1 PUSH1 0x20 ADD KECCAK256 SWAP1 POP SWAP3 SWAP2 POP POP JUMP JUMPDEST PUSH0 DUP1 PUSH2 0x189 DUP6 DUP6 PUSH2 0x14B JUMP JUMPDEST SWAP1 POP PUSH0 PUSH2 0x195 DUP3 PUSH2 0x2AA JUMP JUMPDEST SWAP1 POP DUP7 PUSH20 0xFFFFFFFFFFFFFFFFFFFFFFFFFFFFFFFFFFFFFFFF AND PUSH2 0x1B8 DUP3 DUP7 PUSH2 0x1DB JUMP JUMPDEST PUSH20 0xFFFFFFFFFFFFFFFFFFFFFFFFFFFFFFFFFFFFFFFF AND EQ SWAP3 POP POP POP SWAP5 SWAP4 POP POP POP POP JUMP JUMPDEST PUSH0 DUP1 PUSH0 DUP1 PUSH2 0x1E8 DUP6 PUSH2 0x245 JUMP JUMPDEST SWAP3 POP SWAP3 POP SWAP3 POP PUSH1 0x1 DUP7 DUP3 DUP6 DUP6 PUSH1 0x40 MLOAD PUSH0 DUP2 MSTORE PUSH1 0x20 ADD PUSH1 0x40 MSTORE PUSH1 0x40 MLOAD PUSH2 0x210 SWAP5 SWAP4 SWAP3 SWAP2 SWAP1 PUSH2 0x7D3 JUMP JUMPDEST PUSH1 0x20 PUSH1 0x40 MLOAD PUSH1 0x20 DUP2 SUB SWAP1 DUP1 DUP5 SUB SWAP1 DUP6 GAS STATICCALL ISZERO DUP1 ISZERO PUSH2 0x230 JUMPI RETURNDATASIZE PUSH0 DUP1 RETURNDATACOPY RETURNDATASIZE PUSH0 REVERT JUMPDEST POP POP POP PUSH1 0x20 PUSH1 0x40 MLOAD SUB MLOAD SWAP4 POP POP POP POP SWAP3 SWAP2 POP POP JUMP JUMPDEST PUSH0 DUP1 PUSH0 PUSH1 0x41 DUP5 MLOAD EQ PUSH2 0x28C JUMPI PUSH1 0x40 MLOAD PUSH32 0x8C379A000000000000000000000000000000000000000000000000000000000 DUP2 MSTORE PUSH1 0x4 ADD PUSH2 0x283 SWAP1 PUSH2 0x870 JUMP JUMPDEST PUSH1 0x40 MLOAD DUP1 SWAP2 SUB SWAP1 REVERT JUMPDEST PUSH1 0x20 DUP5 ADD MLOAD SWAP3 POP PUSH1 0x40 DUP5 ADD MLOAD SWAP2 POP PUSH1 0x60 DUP5 ADD MLOAD PUSH0 BYTE SWAP1 POP SWAP2 SWAP4 SWAP1 SWAP3 POP JUMP JUMPDEST PUSH0 DUP2 PUSH1 0x40 MLOAD PUSH1 0x20 ADD PUSH2 0x2BC SWAP2 SWAP1 PUSH2 0x902 JUMP JUMPDEST PUSH1 0x40 MLOAD PUSH1 0x20 DUP2 DUP4 SUB SUB DUP2 MSTORE SWAP1 PUSH1 0x40 MSTORE DUP1 MLOAD SWAP1 PUSH1 0x20 ADD KECCAK256 SWAP1 POP SWAP2 SWAP1 POP JUMP JUMPDEST PUSH0 PUSH1 0x40 MLOAD SWAP1 POP SWAP1 JUMP JUMPDEST PUSH0 DUP1 REVERT JUMPDEST PUSH0 DUP1 REVERT JUMPDEST PUSH0 PUSH20 0xFFFFFFFFFFFFFFFFFFFFFFFFFFFFFFFFFFFFFFFF DUP3 AND SWAP1 POP SWAP2 SWAP1 POP JUMP JUMPDEST PUSH0 PUSH2 0x313 DUP3 PUSH2 0x2EA JUMP JUMPDEST SWAP1 POP SWAP2 SWAP1 POP JUMP JUMPDEST PUSH2 0x323 DUP2 PUSH2 0x309 JUMP JUMPDEST DUP2 EQ PUSH2 0x32D JUMPI PUSH0 DUP1 REVERT JUMPDEST POP JUMP JUMPDEST PUSH0 DUP2 CALLDATALOAD SWAP1 POP PUSH2 0x33E DUP2 PUSH2 0x31A JUMP JUMPDEST SWAP3 SWAP2 POP POP JUMP JUMPDEST PUSH0 DUP2 SWAP1 POP SWAP2 SWAP1 POP JUMP JUMPDEST PUSH2 0x356 DUP2 PUSH2 0x344 JUMP JUMPDEST DUP2 EQ PUSH2 0x360 JUMPI PUSH0 DUP1 REVERT JUMPDEST POP JUMP JUMPDEST PUSH0 DUP2 CALLDATALOAD SWAP1 POP PUSH2 0x371 DUP2 PUSH2 0x34D JUMP JUMPDEST SWAP3 SWAP2 POP POP JUMP JUMPDEST PUSH0 DUP1 PUSH1 0x40 DUP4 DUP6 SUB SLT ISZERO PUSH2 0x38D JUMPI PUSH2 0x38C PUSH2 0x2E2 JUMP JUMPDEST JUMPDEST PUSH0 PUSH2 0x39A DUP6 DUP3 DUP7 ADD PUSH2 0x330 JUMP JUMPDEST SWAP3 POP POP PUSH1 0x20 PUSH2 0x3AB DUP6 DUP3 DUP7 ADD PUSH2 0x363 JUMP JUMPDEST SWAP2 POP POP SWAP3 POP SWAP3 SWAP1 POP JUMP JUMPDEST PUSH0 DUP2 SWAP1 POP SWAP2 SWAP1 POP JUMP JUMPDEST PUSH2 0x3C7 DUP2 PUSH2 0x3B5 JUMP JUMPDEST DUP3 MSTORE POP POP JUMP JUMPDEST PUSH0 PUSH1 0x20 DUP3 ADD SWAP1 POP PUSH2 0x3E0 PUSH0 DUP4 ADD DUP5 PUSH2 0x3BE JUMP JUMPDEST SWAP3 SWAP2 POP POP JUMP JUMPDEST PUSH0 DUP1 REVERT JUMPDEST PUSH0 DUP1 REVERT JUMPDEST PUSH0 PUSH1 0x1F NOT PUSH1 0x1F DUP4 ADD AND SWAP1 POP SWAP2 SWAP1 POP JUMP JUMPDEST PUSH32 0x4E487B7100000000000000000000000000000000000000000000000000000000 PUSH0 MSTORE PUSH1 0x41 PUSH1 0x4 MSTORE PUSH1 0x24 PUSH0 REVERT JUMPDEST PUSH2 0x434 DUP3 PUSH2 0x3EE JUMP JUMPDEST DUP2 ADD DUP2 DUP2 LT PUSH8 0xFFFFFFFFFFFFFFFF DUP3 GT OR ISZERO PUSH2 0x453 JUMPI PUSH2 0x452 PUSH2 0x3FE JUMP JUMPDEST JUMPDEST DUP1 PUSH1 0x40 MSTORE POP POP POP JUMP JUMPDEST PUSH0 PUSH2 0x465 PUSH2 0x2D9 JUMP JUMPDEST SWAP1 POP PUSH2 0x471 DUP3 DUP3 PUSH2 0x42B JUMP JUMPDEST SWAP2 SWAP1 POP JUMP JUMPDEST PUSH0 PUSH8 0xFFFFFFFFFFFFFFFF DUP3 GT ISZERO PUSH2 0x490 JUMPI PUSH2 0x48F PUSH2 0x3FE JUMP JUMPDEST JUMPDEST PUSH2 0x499 DUP3 PUSH2 0x3EE JUMP JUMPDEST SWAP1 POP PUSH1 0x20 DUP2 ADD SWAP1 POP SWAP2 SWAP1 POP JUMP JUMPDEST DUP3 DUP2 DUP4 CALLDATACOPY PUSH0 DUP4 DUP4 ADD MSTORE POP POP POP JUMP JUMPDEST PUSH0 PUSH2 0x4C6 PUSH2 0x4C1 DUP5 PUSH2 0x476 JUMP JUMPDEST PUSH2 0x45C JUMP JUMPDEST SWAP1 POP DUP3 DUP2 MSTORE PUSH1 0x20 DUP2 ADD DUP5 DUP5 DUP5 ADD GT ISZERO PUSH2 0x4E2 JUMPI PUSH2 0x4E1 PUSH2 0x3EA JUMP JUMPDEST JUMPDEST PUSH2 0x4ED DUP5 DUP3 DUP6 PUSH2 0x4A6 JUMP JUMPDEST POP SWAP4 SWAP3 POP POP POP JUMP JUMPDEST PUSH0 DUP3 PUSH1 0x1F DUP4 ADD SLT PUSH2 0x509 JUMPI PUSH2 0x508 PUSH2 0x3E6 JUMP JUMPDEST JUMPDEST DUP2 CALLDATALOAD PUSH2 0x519 DUP5 DUP3 PUSH1 0x20 DUP7 ADD PUSH2 0x4B4 JUMP JUMPDEST SWAP2 POP POP SWAP3 SWAP2 POP POP JUMP JUMPDEST PUSH0 DUP1 PUSH0 DUP1 PUSH1 0x80 DUP6 DUP8 SUB SLT ISZERO PUSH2 0x53A JUMPI PUSH2 0x539 PUSH2 0x2E2 JUMP JUMPDEST JUMPDEST PUSH0 PUSH2 0x547 DUP8 DUP3 DUP9 ADD PUSH2 0x330 JUMP JUMPDEST SWAP5 POP POP PUSH1 0x20 PUSH2 0x558 DUP8 DUP3 DUP9 ADD PUSH2 0x330 JUMP JUMPDEST SWAP4 POP POP PUSH1 0x40 PUSH2 0x569 DUP8 DUP3 DUP9 ADD PUSH2 0x363 JUMP JUMPDEST SWAP3 POP POP PUSH1 0x60 DUP6 ADD CALLDATALOAD PUSH8 0xFFFFFFFFFFFFFFFF DUP2 GT ISZERO PUSH2 0x58A JUMPI PUSH2 0x589 PUSH2 0x2E6 JUMP JUMPDEST JUMPDEST PUSH2 0x596 DUP8 DUP3 DUP9 ADD PUSH2 0x4F5 JUMP JUMPDEST SWAP2 POP POP SWAP3 SWAP6 SWAP2 SWAP5 POP SWAP3 POP JUMP JUMPDEST PUSH0 DUP2 ISZERO ISZERO SWAP1 POP SWAP2 SWAP1 POP JUMP JUMPDEST PUSH2 0x5B6 DUP2 PUSH2 0x5A2 JUMP JUMPDEST DUP3 MSTORE POP POP JUMP JUMPDEST PUSH0 PUSH1 0x20 DUP3 ADD SWAP1 POP PUSH2 0x5CF PUSH0 DUP4 ADD DUP5 PUSH2 0x5AD JUMP JUMPDEST SWAP3 SWAP2 POP POP JUMP JUMPDEST PUSH2 0x5DE DUP2 PUSH2 0x3B5 JUMP JUMPDEST DUP2 EQ PUSH2 0x5E8 JUMPI PUSH0 DUP1 REVERT JUMPDEST POP JUMP JUMPDEST PUSH0 DUP2 CALLDATALOAD SWAP1 POP PUSH2 0x5F9 DUP2 PUSH2 0x5D5 JUMP JUMPDEST SWAP3 SWAP2 POP POP JUMP JUMPDEST PUSH0 DUP1 PUSH1 0x40 DUP4 DUP6 SUB SLT ISZERO PUSH2 0x615 JUMPI PUSH2 0x614 PUSH2 0x2E2 JUMP JUMPDEST JUMPDEST PUSH0 PUSH2 0x622 DUP6 DUP3 DUP7 ADD PUSH2 0x5EB JUMP JUMPDEST SWAP3 POP POP PUSH1 0x20 DUP4 ADD CALLDATALOAD PUSH8 0xFFFFFFFFFFFFFFFF DUP2 GT ISZERO PUSH2 0x643 JUMPI PUSH2 0x642 PUSH2 0x2E6 JUMP JUMPDEST JUMPDEST PUSH2 0x64F DUP6 DUP3 DUP7 ADD PUSH2 0x4F5 JUMP JUMPDEST SWAP2 POP POP SWAP3 POP SWAP3 SWAP1 POP JUMP JUMPDEST PUSH2 0x662 DUP2 PUSH2 0x309 JUMP JUMPDEST DUP3 MSTORE POP POP JUMP JUMPDEST PUSH0 PUSH1 0x20 DUP3 ADD SWAP1 POP PUSH2 0x67B PUSH0 DUP4 ADD DUP5 PUSH2 0x659 JUMP JUMPDEST SWAP3 SWAP2 POP POP JUMP JUMPDEST PUSH0 PUSH1 0x20 DUP3 DUP5 SUB SLT ISZERO PUSH2 0x696 JUMPI PUSH2 0x695 PUSH2 0x2E2 JUMP JUMPDEST JUMPDEST PUSH0 DUP3 ADD CALLDATALOAD PUSH8 0xFFFFFFFFFFFFFFFF DUP2 GT ISZERO PUSH2 0x6B3 JUMPI PUSH2 0x6B2 PUSH2 0x2E6 JUMP JUMPDEST JUMPDEST PUSH2 0x6BF DUP5 DUP3 DUP6 ADD PUSH2 0x4F5 JUMP JUMPDEST SWAP2 POP POP SWAP3 SWAP2 POP POP JUMP JUMPDEST PUSH0 PUSH1 0xFF DUP3 AND SWAP1 POP SWAP2 SWAP1 POP JUMP JUMPDEST PUSH2 0x6DD DUP2 PUSH2 0x6C8 JUMP JUMPDEST DUP3 MSTORE POP POP JUMP JUMPDEST PUSH0 PUSH1 0x60 DUP3 ADD SWAP1 POP PUSH2 0x6F6 PUSH0 DUP4 ADD DUP7 PUSH2 0x3BE JUMP JUMPDEST PUSH2 0x703 PUSH1 0x20 DUP4 ADD DUP6 PUSH2 0x3BE JUMP JUMPDEST PUSH2 0x710 PUSH1 0x40 DUP4 ADD DUP5 PUSH2 0x6D4 JUMP JUMPDEST SWAP5 SWAP4 POP POP POP POP JUMP JUMPDEST PUSH0 PUSH1 0x20 DUP3 DUP5 SUB SLT ISZERO PUSH2 0x72D JUMPI PUSH2 0x72C PUSH2 0x2E2 JUMP JUMPDEST JUMPDEST PUSH0 PUSH2 0x73A DUP5 DUP3 DUP6 ADD PUSH2 0x5EB JUMP JUMPDEST SWAP2 POP POP SWAP3 SWAP2 POP POP JUMP JUMPDEST PUSH0 DUP2 PUSH1 0x60 SHL SWAP1 POP SWAP2 SWAP1 POP JUMP JUMPDEST PUSH0 PUSH2 0x759 DUP3 PUSH2 0x743 JUMP JUMPDEST SWAP1 POP SWAP2 SWAP1 POP JUMP JUMPDEST PUSH0 PUSH2 0x76A DUP3 PUSH2 0x74F JUMP JUMPDEST SWAP1 POP SWAP2 SWAP1 POP JUMP JUMPDEST PUSH2 0x782 PUSH2 0x77D DUP3 PUSH2 0x309 JUMP JUMPDEST PUSH2 0x760 JUMP JUMPDEST DUP3 MSTORE POP POP JUMP JUMPDEST PUSH0 DUP2 SWAP1 POP SWAP2 SWAP1 POP JUMP JUMPDEST PUSH2 0x7A2 PUSH2 0x79D DUP3 PUSH2 0x344 JUMP JUMPDEST PUSH2 0x788 JUMP JUMPDEST DUP3 MSTORE POP POP JUMP JUMPDEST PUSH0 PUSH2 0x7B3 DUP3 DUP6 PUSH2 0x771 JUMP JUMPDEST PUSH1 0x14 DUP3 ADD SWAP2 POP PUSH2 0x7C3 DUP3 DUP5 PUSH2 0x791 JUMP JUMPDEST PUSH1 0x20 DUP3 ADD SWAP2 POP DUP2 SWAP1 POP SWAP4 SWAP3 POP POP POP JUMP JUMPDEST PUSH0 PUSH1 0x80 DUP3 ADD SWAP1 POP PUSH2 0x7E6 PUSH0 DUP4 ADD DUP8 PUSH2 0x3BE JUMP JUMPDEST PUSH2 0x7F3 PUSH1 0x20 DUP4 ADD DUP7 PUSH2 0x6D4 JUMP JUMPDEST PUSH2 0x800 PUSH1 0x40 DUP4 ADD DUP6 PUSH2 0x3BE JUMP JUMPDEST PUSH2 0x80D PUSH1 0x60 DUP4 ADD DUP5 PUSH2 0x3BE JUMP JUMPDEST SWAP6 SWAP5 POP POP POP POP POP JUMP JUMPDEST PUSH0 DUP3 DUP3 MSTORE PUSH1 0x20 DUP3 ADD SWAP1 POP SWAP3 SWAP2 POP POP JUMP JUMPDEST PUSH32 0x696E76616C6964207369676E6174757265206C656E6774680000000000000000 PUSH0 DUP3 ADD MSTORE POP JUMP JUMPDEST PUSH0 PUSH2 0x85A PUSH1 0x18 DUP4 PUSH2 0x816 JUMP JUMPDEST SWAP2 POP PUSH2 0x865 DUP3 PUSH2 0x826 JUMP JUMPDEST PUSH1 0x20 DUP3 ADD SWAP1 POP SWAP2 SWAP1 POP JUMP JUMPDEST PUSH0 PUSH1 0x20 DUP3 ADD SWAP1 POP DUP2 DUP2 SUB PUSH0 DUP4 ADD MSTORE PUSH2 0x887 DUP2 PUSH2 0x84E JUMP JUMPDEST SWAP1 POP SWAP2 SWAP1 POP JUMP JUMPDEST PUSH0 DUP2 SWAP1 POP SWAP3 SWAP2 POP POP JUMP JUMPDEST PUSH32 0x19457468657265756D205369676E6564204D6573736167653A0A333200000000 PUSH0 DUP3 ADD MSTORE POP JUMP JUMPDEST PUSH0 PUSH2 0x8CC PUSH1 0x1C DUP4 PUSH2 0x88E JUMP JUMPDEST SWAP2 POP PUSH2 0x8D7 DUP3 PUSH2 0x898 JUMP JUMPDEST PUSH1 0x1C DUP3 ADD SWAP1 POP SWAP2 SWAP1 POP JUMP JUMPDEST PUSH0 DUP2 SWAP1 POP SWAP2 SWAP1 POP JUMP JUMPDEST PUSH2 0x8FC PUSH2 0x8F7 DUP3 PUSH2 0x3B5 JUMP JUMPDEST PUSH2 0x8E2 JUMP JUMPDEST DUP3 MSTORE POP POP JUMP JUMPDEST PUSH0 PUSH2 0x90C DUP3 PUSH2 0x8C0 JUMP JUMPDEST SWAP2 POP PUSH2 0x918 DUP3 DUP5 PUSH2 0x8EB JUMP JUMPDEST PUSH1 0x20 DUP3 ADD SWAP2 POP DUP2 SWAP1 POP SWAP3 SWAP2 POP POP JUMP INVALID LOG2 PUSH5 0x6970667358 0x22 SLT KECCAK256 0xE2 0xC3 0x5E PUSH21 0x803CA8F8DBC705B4C93DFDB987EC325FC4E68D0F20 DUP1 PUSH23 0xCEB642ACDF64736F6C6343000817003300000000000000 "
				},
				"gasEstimates": {
					"creation": {
						"codeDepositCost": "479400",
						"executionCost": "509",
						"totalCost": "479909"
					},
					"external": {
						"getEthSignedMessageHash(bytes32)": "infinite",
						"getMessageHash(address,uint256)": "infinite",
						"recoverSigner(bytes32,bytes)": "infinite",
						"splitSignature(bytes)": "infinite",
						"verify(address,address,uint256,bytes)": "infinite"
					}
				},
				"methodIdentifiers": {
					"getEthSignedMessageHash(bytes32)": "fa540801",
					"getMessageHash(address,uint256)": "512c91df",
					"recoverSigner(bytes32,bytes)": "97aba7f9",
					"splitSignature(bytes)": "a7bb5803",
					"verify(address,address,uint256,bytes)": "93e9f8fc"
				}
			},
			"storageLayout": {
				"storage": [],
				"types": null
			},
			"userdoc": {
				"kind": "user",
				"methods": {
					"getEthSignedMessageHash(bytes32)": {
						"notice": "for 0x...b2, signature is: 0xe35664ee982c1e215a442884ed7722762837a15a505e1bf3aad7c560afb33c645fa41f1f547b27edccbbde088d6c68b1c731c637879d94f654020810392f975f1b"
					},
					"getMessageHash(address,uint256)": {
						"notice": "This function returns the same regardless of who's calling it (pure) return: 0xde04b3e97a340583644438433dfc02a1c389def22b3ed841f9a0204c77e81bf9 goerli: hash = 0x3d9bef4d93a63d194967758b74b8cb66835d2dba655fb3eba4b1f840fcc7cb7b"
					},
					"verify(address,address,uint256,bytes)": {
						"notice": "signer = 0xAb8483F64d9C6d1EcF9b849Ae677dD3315835cb2 to = 0x0fC5025C764cE34df352757e82f7B5c4Df39A836 message = 0xde04b3e97a340583644438433dfc02a1c389def22b3ed841f9a0204c77e81bf9 signature = 0xe35664ee982c1e215a442884ed7722762837a15a505e1bf3aad7c560afb33c645fa41f1f547b27edccbbde088d6c68b1c731c637879d94f654020810392f975f1b"
					}
				},
				"version": 1
			}
		}
	}
}