{
	"data": {
		"bytecode": {
			"linkReferences": {},
			"object": "6080604081815234620001e157620037b48038038091620000218286620001f9565b84398201918181840312620001e15780516001600160a01b03808216929091839003620001e1576020928382015160018060401b0392838211620001e157019286601f85011215620001e157835192808411620001e557601f1994875194620000928888601f8401160187620001f9565b80865287860199888284010111620001e1578988620000b293016200021d565b60019384600555620000c43362000240565b5f98338a52858852888a209660ff19978789825416179055620000e73062000240565b308b52868952898b208789825416179055895191898301938785528a84528b84019484861087871117620001cd57858d528451902095610bb980860194939291858f019190821188831017620001b857601f928f97969594928f90620001629362002bfb8c395251809281606088015260808701906200021d565b01160103019089f5918215620001ae579187918798936003989452878752838320911660018060a01b031982541617905560028552209182541617905552516129469081620002b58239f35b86513d89823e3d90fd5b50634e487b7160e01b8f52604160045260248ffd5b634e487b7160e01b8e52604160045260248efd5b5f80fd5b634e487b7160e01b5f52604160045260245ffd5b601f909101601f19168101906001600160401b03821190821017620001e557604052565b5f5b8381106200022f5750505f910152565b81810151838201526020016200021f565b5f80549068010000000000000000821015620002a057600182018082558210156200028c57808052602090200180546001600160a01b0319166001600160a01b03909216919091179055565b634e487b7160e01b81526032600452602490fd5b634e487b7160e01b81526041600452602490fdfe608060409080825260049081361015620001b4575b50361562000020575f80fd5b5f903382526020926003845260018060a01b0391828285205416156200019e5733845260038552828285205416926175308034029034820414341517156200018b5786670de0b6b3a7640000879204956024865180948193636299a6ef60e01b83528a898401525af1801562000181579087916200014e575b505033855260038652828520541690858351809263281b420f60e21b825281855afa9485156200014357809562000107575b7fe68ae65c1dbf46ad8b9f7d8480f82cf65625a69c1979075be1e7516471fd3e4a608088888888888151943386528501528301526060820152a1005b909194508582813d83116200013b575b620001238183620019bd565b810103126200013857505192816080620000cb565b80fd5b503d62000117565b8351903d90823e3d90fd5b813d831162000179575b620001648183620019bd565b810103126200017557855f62000099565b8480fd5b503d62000158565b84513d88823e3d90fd5b634e487b7160e01b865260118352602486fd5b6024915190639c363e2560e01b82523390820152fd5b5f90813560e01c90816301ffc9a7146200179c575080630467319614620016e05780630ab9bb6214620016c257806310c030a314620004b857806314bfd6d0146200167c578063150b7a0214620015695780631785f53c146200142f57806335e3e084146200138657806346e7ad99146200124b57806348971acd146200100f578063508aa6d91462000ee05780635709d11514620004b857806363a846f81462000e9e5780636fe86f161462000e6a578063704802751462000d8257806381e7e20e1462000d405780639f56d1351462000d23578063a15ab08d1462000c82578063a7e1ddc214620008d3578063b37bf09c146200089b578063b66c484e146200086a578063bc197c811462000722578063be500fb9146200051f578063c2bb812014620004be578063de68a00114620004b8578063f23a6e611462000377578063f6d8a74414620003385763f9e937710362000014578234620003345780600319360112620003345760243580151503620003345751908152602090f35b5080fd5b5082346200033457602036600319011262000334576020916001600160a01b0390829082620003666200180a565b168152600385522054169051908152f35b50829034620001385760a03660031901126200013857620003976200180a565b50620003a262001821565b926084356001600160401b038111620004b457620003c49036908301620017d6565b5050600160055403620004a6578160055560018060a01b0380941693848352602094600386528185852054161562000490578391869183526003825285832054166024865180948193636299a6ef60e01b83526103e8888401525af180156200048657849291869162000451575b5050338352845290206003905560016005555163f23a6e6160e01b8152f35b90809293503d83116200047e575b6200046b8183620019bd565b8101031262000334578290848662000432565b503d6200045f565b84513d85823e3d90fd5b82602491865191639c363e2560e01b8352820152fd5b82516303cb96db60e21b8152fd5b8280fd5b620018c2565b50919034620004b4576020366003190112620004b4576001600160a01b03620004e66200180a565b168084528160205282842054156200050b579282916020948252845220549051908152f35b602492519163961c9a4f60e01b8352820152fd5b5090346200033457602080600319360112620004b45781356001600160401b0381116200071e5782846200055887933690840162001939565b92906200056584620019f3565b916200057486519384620019bd565b8483526200058285620019f3565b8388019590601f1901368737845b818110620005d9575050505083519485948186019282875251809352850193925b828110620005c157505050500390f35b835185528695509381019392810192600101620005b1565b96979596939594936001600160a01b038062000601620005fb84868962001a0b565b62001a30565b1686526002875260ff8a872054161562000709578062000627620005fb84868962001a0b565b1686526003808852818b8820541615620006df57818891849362000652620005fb8997898c62001a0b565b16895282528b882054168b519384809263281b420f60e21b82525afa8015620006d55786906200069b575b600192506200068d828a62001a45565b520197969593949762000590565b50908681813d8311620006cd575b620006b58183620019bd565b81010312620006c95790600191516200067d565b8580fd5b503d620006a9565b8a513d88823e3d90fd5b50620006f5620005fb602495938c958862001a0b565b9251632e86c5bb60e21b8152921690820152fd5b620006f5620005fb602495938c958862001a0b565b8380fd5b50829034620001385760a03660031901126200013857620007426200180a565b506200074d62001821565b926001600160401b036044358181116200071e5762000770903690840162001939565b50506064358181116200071e576200078c903690840162001939565b5050608435908111620004b457620007a89036908301620017d6565b5050600160055403620004a6578160055560018060a01b0380941693848352602094600386528185852054161562000490578391869183526003825285832054166024865180948193636299a6ef60e01b83526103e8888401525af180156200048657849291869162000835575b5050338352845290206003905560016005555163bc197c8160e01b8152f35b90809293503d831162000862575b6200084f8183620019bd565b8101031262000334578290848662000816565b503d62000843565b838234620001385781600319360112620001385750620008896200180a565b505180620008978162001838565b0390f35b509134620004b45736600319011262000334578035906001600160401b038211620004b457620008ce9136910162001939565b505080f35b5034620001385760803660031901126200013857620008f16200180a565b90620008fc62001821565b906044918235606494853560016005540362000c725784600555620009213362001b1e565b6001600160a01b038281169390919084620009f857505050505047908651602081018181106001600160401b03821117620009e5578852839052829182918291905af16200096e62001ca2565b501562000988575050506020905b60016005555160018152f35b907f5472616e7366657248656c7065723a3a736166655472616e736665724554483a7308115512081d1c985b9cd9995c8819985a5b195960621b926020608496519562461bcd60e51b875286015260346024860152840152820152fd5b634e487b7160e01b855260418852602485fd5b848796949597526020968a88528b872054600181145f1462000b1b575050508951918683019363a9059cbb60e01b855216602483015286820152858152608081018181106001600160401b0382111762000b08578493929184918b5251925af162000a6262001ca2565b8162000ad3575b501562000a7e57505050506020905b6200097c565b6c185b9cd9995c8819985a5b1959609a1b92917f5472616e7366657248656c7065723a3a736166655472616e736665723a20747291608496519562461bcd60e51b8752860152602d6024860152840152820152fd5b8051801592508390831562000aed575b5050505f62000a69565b62000aff935082018101910162001cd6565b5f828162000ae3565b634e487b7160e01b855260418952602485fd5b6002819d9c9d9b96989a94939597999b145f1462000bd55750505088519388850195632142170760e11b8752306024870152169084015281830152815260a081018181106001600160401b03821117620009e5578652516020965062000a7894939283929083905af19062000b8f62001ca2565b8262000b9e575b505062001cf0565b809192505191821592831562000bba575b5050505f8062000b96565b62000bcc935082018101910162001cd6565b5f808062000baf565b919492916002190162000c5c575089519489860196637921219560e11b88523060248801521690850152830152608482015260a060a4820152600260c482015261060f60f31b60e482015260e4815261012081018181106001600160401b03821117620009e5578652516020965062000a7894939283929083905af19062000b8f62001ca2565b8b6024918c519163961c9a4f60e01b8352820152fd5b88516303cb96db60e21b81528890fd5b509034620003345782600319360112620003345762000ca06200180a565b916024356001600160401b038111620003345762000cc29036908401620017d6565b91909260016005540362000d15575060055562000cf89162000cf19162000ce93362001b1e565b369162001b6e565b8262001ba9565b600160055582516001600160a01b03928316815291166020820152f35b85516303cb96db60e21b8152fd5b508234620003345780600319360112620003345751908152602090f35b50823462000334576020366003190112620003345760209160ff9082906001600160a01b0362000d6f6200180a565b1681526002855220541690519015158152f35b5082903462000138576020366003190112620001385762000da26200180a565b9060016005540362000e5b578060055562000dbd3362001b1e565b6001600160a01b038216815260016020819052838220805460ff191690911790558054906801000000000000000082101562000e48579162000e0f82620008979594600162000e2d95019055620018ef565b90919060018060a01b038084549260031b9316831b921b1916179055565b62000e3762001a5a565b90600160055551918291826200187d565b634e487b7160e01b815260418552602490fd5b5050516303cb96db60e21b8152fd5b50823462000334578060031936011262000334579060209162000e8c6200180a565b5062000e9762001821565b5051908152f35b50823462000334576020366003190112620003345760209160ff9082906001600160a01b0362000ecd6200180a565b1681526001855220541690519015158152f35b508234620003345762000ef3366200196c565b9095600193929396876005540362001000578660055562000f143362001b1e565b865b85811062000f2c57602088888b60055551908152f35b6001600160a01b038062000f46620005fb848a8a62001a0b565b16895260206002815260ff898b2054161562000fea578162000f6e620005fb858b8b62001a0b565b168a52600390818152828a8c2054161562000fd45791879184938262000fae8f97808e62000fa7620005fb8f94620005fb958f62001a0b565b9862001a0b565b168d5252898b2091166bffffffffffffffffffffffff60a01b8254161790550162000f16565b60248a8785620006f5620005fb898f8f62001a0b565b6024898684620006f5620005fb888e8e62001a0b565b5084516303cb96db60e21b8152fd5b509134620004b45780600319360112620004b4578135906001600160401b03808311620001755736602384011215620001755782840135916024916200105584620019f3565b946200106483519687620019bd565b848652602094848688019160051b8301019136831162001247578501905b828210620012265750505082359081116200122257620010a6903690870162001939565b9590926001968760055403620012125788600555620010c53362001b1e565b8651968188036200120257895b888110620010e2578a8a60055580f35b6001600160a01b0380620010f7838562001a45565b51168c526002895260ff878d20541615620011f2578062001119838562001a45565b51168c526003808a52878d2054821615620011ce57818a918e936200113f868862001a45565b5116845282528883205416866200115885888d62001a0b565b358a519485938492636299a6ef60e01b84528c8401525af18015620011c4578b92918a916200118b575b505001620010d2565b90809293503d8311620011bc575b620011a58183620019bd565b81010312620011b8578990885f62001182565b8a80fd5b503d62001199565b87513d8e823e3d90fd5b85878984620011de878962001a45565b5116905191632e86c5bb60e21b8352820152fd5b9250620011de9195939562001a45565b845163512509d360e11b81528490fd5b83516303cb96db60e21b81528390fd5b8680fd5b81356001600160a01b0381168103620011b857815290860190860162001082565b8980fd5b508234620003345760209283600319360112620004b45780356001600160401b0381116200071e5762001282903690830162001939565b845b818110620012ce5784518781526060518189018190528190818801906080908b8b5b828110620012b657505050500390f35b835185528695509381019392810192600101620012a6565b83876001600160a01b0380620012ea620005fb86888a62001a0b565b16895260038252878920541687519283809263efedc66960e01b82525afa9081156200137c57879162001349575b506060518210156200133657600582901b6080015260010162001284565b634e487b7160e01b875260328552602487fd5b90508781813d831162001374575b620013638183620019bd565b810103126200122257518862001318565b503d62001357565b86513d89823e3d90fd5b5082903462000138576200139a366200196c565b620013aa94929391943362001b1e565b8084036200141f57825b848110620013c6576020875160018152f35b620013d381838862001a0b565b35888110156200140c57600191906001600160a01b03620013fa620005fb848a8962001a0b565b168652896020528886205501620013b4565b634e487b7160e01b855260218952602485fd5b855163512509d360e11b81528790fd5b508290346200013857602036600319011262000138576200144f6200180a565b9060016005540362000e5b57806005556200146a3362001b1e565b6001600160a01b038281168083526001602052848320549193909160ff16156200155957620014ab918352600160205284832060ff19815416905562001ad2565b81545f1991908281019081116200154657620014ff9185620014d1620014db93620018ef565b93905492620018ef565b92909360031b1c169060018060a01b038084549260031b9316831b921b1916179055565b81548015620015335762000897955001916200151b83620018ef565b909182549160031b1b191690555562000e3762001a5a565b634e487b7160e01b835260318652602483fd5b634e487b7160e01b845260118752602484fd5b8451638129bbcd60e01b81528690fd5b50829034620001385760803660031901126200013857620015896200180a565b506200159462001821565b926064356001600160401b038111620004b457620015b69036908301620017d6565b5050600160055403620004a6578160055560018060a01b038094169384835260209460038652818585205416156200049057602486926103e8923387528585526002888820558652600384528686205416938587519586948593636299a6ef60e01b85528401525af18015620016725790849162001643575b5060016005558251630a85bd0160e11b8152f35b813d83116200166a575b620016598183620019bd565b81010312620001385782816200162f565b503d6200164d565b83513d84823e3d90fd5b50919034620004b4576020366003190112620004b45735918054831015620001385750620016ac602092620018ef565b905491519160018060a01b039160031b1c168152f35b50823462000334576020366003190112620003345751908152602090f35b50823462000334576020366003190112620003345782356001600160401b038111620004b457620017159036908501620017d6565b9093338452600260205260ff838520541662001785575062001748620017416020958493369162001b6e565b3362001ba9565b33845260028552818420805460ff1916600117905560038552922080546001600160a01b0319166001600160a01b03909316928317905551908152f35b602490835190632e86c5bb60e21b82523390820152fd5b90508234620004b4576020366003190112620004b4573563ffffffff60e01b8116809103620004b4576301ffc9a760e01b14815260209150f35b9181601f8401121562001806578235916001600160401b0383116200180657602083818601950101116200180657565b5f80fd5b600435906001600160a01b03821682036200180657565b602435906001600160a01b03821682036200180657565b602060408183019282815260605180945201916080915f5b8281106200185f575050505090565b83516001600160a01b03168552938101939281019260010162001850565b602090816040818301928281528551809452019301915f5b828110620018a4575050505090565b83516001600160a01b03168552938101939281019260010162001895565b34620018065760203660031901126200180657620018df6200180a565b5060405180620008978162001838565b905f91825481101562001925578280527f290decd9548b62a8d60345a988386fc84ba6bc95484008f6362f93160ef3e563019190565b634e487b7160e01b83526032600452602483fd5b9181601f8401121562001806578235916001600160401b03831162001806576020808501948460051b0101116200180657565b604060031982011262001806576001600160401b03916004358381116200180657826200199c9160040162001939565b939093926024359182116200180657620019b99160040162001939565b9091565b90601f801991011681019081106001600160401b03821117620019df57604052565b634e487b7160e01b5f52604160045260245ffd5b6001600160401b038111620019df5760051b60200190565b919081101562001a1c5760051b0190565b634e487b7160e01b5f52603260045260245ffd5b356001600160a01b0381168103620018065790565b805182101562001a1c5760209160051b010190565b604051905f5480835282602091828201905f80527f290decd9548b62a8d60345a988386fc84ba6bc95484008f6362f93160ef3e563935f905b82821062001aae5750505062001aac92500383620019bd565b565b85546001600160a01b03168452600195860195889550938101939091019062001a93565b905f915f54905f5b82811062001ae757505050565b62001af281620018ef565b905460039190911b1c6001600160a01b039081169083161462001b185760010162001ada565b93505050565b6001600160a01b03165f9081526001602052604090205460ff161562001b4057565b6040516331696e9760e21b8152600490fd5b6001600160401b038111620019df57601f01601f191660200190565b92919262001b7c8262001b52565b9162001b8c6040519384620019bd565b82948184528183011162001806578281602093845f960137010152565b90604090815160209182820160018060a01b0380961692838252848152858101916001600160401b039082841082851117620019df578388528251902093610bb980840192838a0190811186821017620019df5788908a9594939262001d58883952805190816060840152885f5b83811062001c89575050505f60808284010152601f8019910116010301905ff590811562001c7f5790600392915f5282825284845f2091166bffffffffffffffffffffffff60a01b82541617905560028152825f20600160ff19825416179055525f20541690565b83513d5f823e3d90fd5b828101820151858201608001528b96508a910162001c17565b3d1562001cd1573d9062001cb68262001b52565b9162001cc66040519384620019bd565b82523d5f602084013e565b606090565b908160209103126200180657518015158103620018065790565b1562001cf857565b60405162461bcd60e51b815260206004820152603160248201527f5472616e7366657248656c7065723a3a7472616e7366657246726f6d3a207472604482015270185b9cd9995c919c9bdb4819985a5b1959607a1b6064820152608490fdfe608060405234620002145762000bb9803803806200001d8162000218565b9283398101906020908181840312620002145780516001600160401b039182821162000214570191601f9084828501121562000214578351838111620001eb57601f1994620000728285018716840162000218565b96828852838383010111620002145782905f5b838110620001ff5750505f9187010152600193846007558551938411620001eb5784548581811c91168015620001e0575b83821014620001cc5783811162000184575b5081928411600114620001225750508192935f9262000116575b50505f19600383901b1c191690821b1790555b5f80546001600160a01b0319163317905560405161097a90816200023f8239f35b015190505f80620000e2565b5f858152828120918516969193925b8782106200016c5750508385961062000153575b505050811b019055620000f5565b01515f1960f88460031b161c191690555f808062000145565b80878596829496860151815501950193019062000131565b855f52825f208480870160051c820192858810620001c2575b0160051c019086905b828110620001b6575050620000c8565b5f8155018690620001a6565b925081926200019d565b634e487b7160e01b5f52602260045260245ffd5b90607f1690620000b6565b634e487b7160e01b5f52604160045260245ffd5b81810183015189820184015284920162000085565b5f80fd5b6040519190601f01601f191682016001600160401b03811183821017620001eb5760405256fe608060409080825260049182361015610016575f80fd5b5f92833560e01c92836306fdde0314610683575082630ab9bb621461066757826310c030a314610173578263172cfa4c146106535782633f4ba83a1461062c57826340affa941461054557826354aea127146105265782635709d115146101735782635d1a7355146104ff5782636299a6ef1461045857826363a846f8146103bf578263712b772f146103895782638456cb591461035f5782639d3c1c7b14610329578263a06d083c1461030a578263b66c484e146102df578263c2bb812014610244578263c550a1ca14610220578263cfdad40a146101fd578263dd71a4301461017857508163de68a00114610173578163efedc66914610150575063ffc08b6d14610121575f80fd5b3461014d5761010036600319011261014d576064358015150361014d5760a43560ff81160361014d5780f35b80fd5b90503461016f578160031936011261016f576020906003549051908152f35b5080fd5b610856565b83823461016f57608036600319011261016f57823560ff81160361016f576064359067ffffffffffffffff908183116101f957366023840112156101f957828501359182116101e657906101da6024926020601f19601f8501160190516107c3565b369201011161014d5780f35b634e487b7160e01b845260418552602484fd5b8380fd5b9091503461021c578260031936011261021c5760209250549051908152f35b8280fd5b83823461016f578160031936011261016f5760209060ff6006541690519015158152f35b83823461016f576020928360031936011261021c57836102626107f9565b84548451630615dc0960e51b81526001600160a01b039283169481019490945283916024918391165afa9283156102d45780936102a2575b505051908152f35b909192508382813d83116102cd575b6102bb81836107c3565b8101031261014d57505190838061029a565b503d6102b1565b8251903d90823e3d90fd5b50823461014d578160031936011261014d57506102fa6107f9565b50518061030681610813565b0390f35b83823461016f578160031936011261016f576020906002549051908152f35b83903461016f57602036600319011261016f57359182151580930361016f5760209260ff80196006541691161760065551908152f35b833461014d578060031936011261014d57610379336108c6565b600160ff19600854161760085580f35b83823461016f578060031936011261016f576103a36107f9565b506024356001600160a01b0381160361016f5751908152602090f35b91503461021c57602036600319011261021c5760206103dc6107f9565b84548351630c7508df60e31b81526001600160a01b039283169581019590955284916024918391165afa91821561044e576020939261041f575b50519015158152f35b610440919250833d8111610447575b61043881836107c3565b8101906108ae565b905f610416565b503d61042e565b81513d85823e3d90fd5b90833461014d57602036600319011261014d578235908082136104ca575b8082129182610491575b602084426005556002549051908152f35b6002549081039280158285131691841216176104b7575060209250600255828080610480565b634e487b7160e01b815260118452602490fd5b600254828101908284831291129080158216911516176104ec57600255610476565b634e487b7160e01b825260118552602482fd5b833461014d57606036600319011261014d576044356001600160a01b0381160361014d5780f35b83823461016f578160031936011261016f576020906005549051908152f35b83903461016f5761010036600319011261016f5767ffffffffffffffff9080358281116101f957610579903690830161087d565b50506024358281116101f957610592903690830161087d565b50506044358281116101f9576105ab903690830161087d565b50506064358281116101f9576105c4903690830161087d565b50506084358281116101f9576105dd903690830161087d565b505060a4358281116101f9576105f6903690830161087d565b505060c4358281116101f95761060f903690830161087d565b505060e43591821161021c576106279136910161087d565b505080f35b833461014d578060031936011261014d57610646336108c6565b60ff196008541660085580f35b83823461016f5736600319011261014d5780f35b83823461016f57602036600319011261016f5751908152602090f35b8290853461014d578060031936011261014d5780600180549081811c9181811680156107b9575b60209889851082146107a657509183918995938895865290815f14610785575060011461072a575b50506106e492509593929503826107c3565b82519382859384528251928382860152825b84811061071457505050828201840152601f01601f19168101030190f35b81810183015188820188015287955082016106f6565b8086527fb10e2d527612073b26eecdfd717e6a320cf44b4afac2b0732d9fcbe2b7fa0cf69492508591905b81831061076d5750889450508201016106e4886106d2565b85548884018501529485019487945091830191610755565b9150506106e494925060ff191682840152151560051b8201018692886106d2565b634e487b7160e01b875260229052602486fd5b92607f16926106aa565b90601f8019910116810190811067ffffffffffffffff8211176107e557604052565b634e487b7160e01b5f52604160045260245ffd5b600435906001600160a01b038216820361080f57565b5f80fd5b602060408183019282815260605180945201916080915f5b828110610839575050505090565b83516001600160a01b03168552938101939281019260010161082b565b3461080f57602036600319011261080f5761086f6107f9565b506040518061030681610813565b9181601f8401121561080f5782359167ffffffffffffffff831161080f576020808501948460051b01011161080f57565b9081602091031261080f5751801515810361080f5790565b5f54604051630c7508df60e31b81526001600160a01b0392831660048201529160209183916024918391165afa908115610939575f9161091b575b501561090957565b6040516331696e9760e21b8152600490fd5b610933915060203d81116104475761043881836107c3565b5f610901565b6040513d5f823e3d90fdfea264697066735822122024171fd4c41b3e51f8f16a54fc8638eab3e7ef6daef4165effc92523d4fb600764736f6c63430008150033a2646970667358221220acc5cb2ace0c83b86e0daed93f2918bb3e698c33d478822eccc0903feb1ca24d64736f6c63430008150033608060405234620002145762000bb9803803806200001d8162000218565b9283398101906020908181840312620002145780516001600160401b039182821162000214570191601f9084828501121562000214578351838111620001eb57601f1994620000728285018716840162000218565b96828852838383010111620002145782905f5b838110620001ff5750505f9187010152600193846007558551938411620001eb5784548581811c91168015620001e0575b83821014620001cc5783811162000184575b5081928411600114620001225750508192935f9262000116575b50505f19600383901b1c191690821b1790555b5f80546001600160a01b0319163317905560405161097a90816200023f8239f35b015190505f80620000e2565b5f858152828120918516969193925b8782106200016c5750508385961062000153575b505050811b019055620000f5565b01515f1960f88460031b161c191690555f808062000145565b80878596829496860151815501950193019062000131565b855f52825f208480870160051c820192858810620001c2575b0160051c019086905b828110620001b6575050620000c8565b5f8155018690620001a6565b925081926200019d565b634e487b7160e01b5f52602260045260245ffd5b90607f1690620000b6565b634e487b7160e01b5f52604160045260245ffd5b81810183015189820184015284920162000085565b5f80fd5b6040519190601f01601f191682016001600160401b03811183821017620001eb5760405256fe608060409080825260049182361015610016575f80fd5b5f92833560e01c92836306fdde0314610683575082630ab9bb621461066757826310c030a314610173578263172cfa4c146106535782633f4ba83a1461062c57826340affa941461054557826354aea127146105265782635709d115146101735782635d1a7355146104ff5782636299a6ef1461045857826363a846f8146103bf578263712b772f146103895782638456cb591461035f5782639d3c1c7b14610329578263a06d083c1461030a578263b66c484e146102df578263c2bb812014610244578263c550a1ca14610220578263cfdad40a146101fd578263dd71a4301461017857508163de68a00114610173578163efedc66914610150575063ffc08b6d14610121575f80fd5b3461014d5761010036600319011261014d576064358015150361014d5760a43560ff81160361014d5780f35b80fd5b90503461016f578160031936011261016f576020906003549051908152f35b5080fd5b610856565b83823461016f57608036600319011261016f57823560ff81160361016f576064359067ffffffffffffffff908183116101f957366023840112156101f957828501359182116101e657906101da6024926020601f19601f8501160190516107c3565b369201011161014d5780f35b634e487b7160e01b845260418552602484fd5b8380fd5b9091503461021c578260031936011261021c5760209250549051908152f35b8280fd5b83823461016f578160031936011261016f5760209060ff6006541690519015158152f35b83823461016f576020928360031936011261021c57836102626107f9565b84548451630615dc0960e51b81526001600160a01b039283169481019490945283916024918391165afa9283156102d45780936102a2575b505051908152f35b909192508382813d83116102cd575b6102bb81836107c3565b8101031261014d57505190838061029a565b503d6102b1565b8251903d90823e3d90fd5b50823461014d578160031936011261014d57506102fa6107f9565b50518061030681610813565b0390f35b83823461016f578160031936011261016f576020906002549051908152f35b83903461016f57602036600319011261016f57359182151580930361016f5760209260ff80196006541691161760065551908152f35b833461014d578060031936011261014d57610379336108c6565b600160ff19600854161760085580f35b83823461016f578060031936011261016f576103a36107f9565b506024356001600160a01b0381160361016f5751908152602090f35b91503461021c57602036600319011261021c5760206103dc6107f9565b84548351630c7508df60e31b81526001600160a01b039283169581019590955284916024918391165afa91821561044e576020939261041f575b50519015158152f35b610440919250833d8111610447575b61043881836107c3565b8101906108ae565b905f610416565b503d61042e565b81513d85823e3d90fd5b90833461014d57602036600319011261014d578235908082136104ca575b8082129182610491575b602084426005556002549051908152f35b6002549081039280158285131691841216176104b7575060209250600255828080610480565b634e487b7160e01b815260118452602490fd5b600254828101908284831291129080158216911516176104ec57600255610476565b634e487b7160e01b825260118552602482fd5b833461014d57606036600319011261014d576044356001600160a01b0381160361014d5780f35b83823461016f578160031936011261016f576020906005549051908152f35b83903461016f5761010036600319011261016f5767ffffffffffffffff9080358281116101f957610579903690830161087d565b50506024358281116101f957610592903690830161087d565b50506044358281116101f9576105ab903690830161087d565b50506064358281116101f9576105c4903690830161087d565b50506084358281116101f9576105dd903690830161087d565b505060a4358281116101f9576105f6903690830161087d565b505060c4358281116101f95761060f903690830161087d565b505060e43591821161021c576106279136910161087d565b505080f35b833461014d578060031936011261014d57610646336108c6565b60ff196008541660085580f35b83823461016f5736600319011261014d5780f35b83823461016f57602036600319011261016f5751908152602090f35b8290853461014d578060031936011261014d5780600180549081811c9181811680156107b9575b60209889851082146107a657509183918995938895865290815f14610785575060011461072a575b50506106e492509593929503826107c3565b82519382859384528251928382860152825b84811061071457505050828201840152601f01601f19168101030190f35b81810183015188820188015287955082016106f6565b8086527fb10e2d527612073b26eecdfd717e6a320cf44b4afac2b0732d9fcbe2b7fa0cf69492508591905b81831061076d5750889450508201016106e4886106d2565b85548884018501529485019487945091830191610755565b9150506106e494925060ff191682840152151560051b8201018692886106d2565b634e487b7160e01b875260229052602486fd5b92607f16926106aa565b90601f8019910116810190811067ffffffffffffffff8211176107e557604052565b634e487b7160e01b5f52604160045260245ffd5b600435906001600160a01b038216820361080f57565b5f80fd5b602060408183019282815260605180945201916080915f5b828110610839575050505090565b83516001600160a01b03168552938101939281019260010161082b565b3461080f57602036600319011261080f5761086f6107f9565b506040518061030681610813565b9181601f8401121561080f5782359167ffffffffffffffff831161080f576020808501948460051b01011161080f57565b9081602091031261080f5751801515810361080f5790565b5f54604051630c7508df60e31b81526001600160a01b0392831660048201529160209183916024918391165afa908115610939575f9161091b575b501561090957565b6040516331696e9760e21b8152600490fd5b610933915060203d81116104475761043881836107c3565b5f610901565b6040513d5f823e3d90fdfea264697066735822122024171fd4c41b3e51f8f16a54fc8638eab3e7ef6daef4165effc92523d4fb600764736f6c63430008150033",
			"opcodes": "PUSH1 0x80 PUSH1 0x40 DUP2 DUP2 MSTORE CALLVALUE PUSH3 0x1E1 JUMPI PUSH3 0x37B4 DUP1 CODESIZE SUB DUP1 SWAP2 PUSH3 0x21 DUP3 DUP7 PUSH3 0x1F9 JUMP JUMPDEST DUP5 CODECOPY DUP3 ADD SWAP2 DUP2 DUP2 DUP5 SUB SLT PUSH3 0x1E1 JUMPI DUP1 MLOAD PUSH1 0x1 PUSH1 0x1 PUSH1 0xA0 SHL SUB DUP1 DUP3 AND SWAP3 SWAP1 SWAP2 DUP4 SWAP1 SUB PUSH3 0x1E1 JUMPI PUSH1 0x20 SWAP3 DUP4 DUP3 ADD MLOAD PUSH1 0x1 DUP1 PUSH1 0x40 SHL SUB SWAP3 DUP4 DUP3 GT PUSH3 0x1E1 JUMPI ADD SWAP3 DUP7 PUSH1 0x1F DUP6 ADD SLT ISZERO PUSH3 0x1E1 JUMPI DUP4 MLOAD SWAP3 DUP1 DUP5 GT PUSH3 0x1E5 JUMPI PUSH1 0x1F NOT SWAP5 DUP8 MLOAD SWAP5 PUSH3 0x92 DUP9 DUP9 PUSH1 0x1F DUP5 ADD AND ADD DUP8 PUSH3 0x1F9 JUMP JUMPDEST DUP1 DUP7 MSTORE DUP8 DUP7 ADD SWAP10 DUP9 DUP3 DUP5 ADD ADD GT PUSH3 0x1E1 JUMPI DUP10 DUP9 PUSH3 0xB2 SWAP4 ADD PUSH3 0x21D JUMP JUMPDEST PUSH1 0x1 SWAP4 DUP5 PUSH1 0x5 SSTORE PUSH3 0xC4 CALLER PUSH3 0x240 JUMP JUMPDEST PUSH0 SWAP9 CALLER DUP11 MSTORE DUP6 DUP9 MSTORE DUP9 DUP11 KECCAK256 SWAP7 PUSH1 0xFF NOT SWAP8 DUP8 DUP10 DUP3 SLOAD AND OR SWAP1 SSTORE PUSH3 0xE7 ADDRESS PUSH3 0x240 JUMP JUMPDEST ADDRESS DUP12 MSTORE DUP7 DUP10 MSTORE DUP10 DUP12 KECCAK256 DUP8 DUP10 DUP3 SLOAD AND OR SWAP1 SSTORE DUP10 MLOAD SWAP2 DUP10 DUP4 ADD SWAP4 DUP8 DUP6 MSTORE DUP11 DUP5 MSTORE DUP12 DUP5 ADD SWAP5 DUP5 DUP7 LT DUP8 DUP8 GT OR PUSH3 0x1CD JUMPI DUP6 DUP14 MSTORE DUP5 MLOAD SWAP1 KECCAK256 SWAP6 PUSH2 0xBB9 DUP1 DUP7 ADD SWAP5 SWAP4 SWAP3 SWAP2 DUP6 DUP16 ADD SWAP2 SWAP1 DUP3 GT DUP9 DUP4 LT OR PUSH3 0x1B8 JUMPI PUSH1 0x1F SWAP3 DUP16 SWAP8 SWAP7 SWAP6 SWAP5 SWAP3 DUP16 SWAP1 PUSH3 0x162 SWAP4 PUSH3 0x2BFB DUP13 CODECOPY MSTORE MLOAD DUP1 SWAP3 DUP2 PUSH1 0x60 DUP9 ADD MSTORE PUSH1 0x80 DUP8 ADD SWAP1 PUSH3 0x21D JUMP JUMPDEST ADD AND ADD SUB ADD SWAP1 DUP10 CREATE2 SWAP2 DUP3 ISZERO PUSH3 0x1AE JUMPI SWAP2 DUP8 SWAP2 DUP8 SWAP9 SWAP4 PUSH1 0x3 SWAP9 SWAP5 MSTORE DUP8 DUP8 MSTORE DUP4 DUP4 KECCAK256 SWAP2 AND PUSH1 0x1 DUP1 PUSH1 0xA0 SHL SUB NOT DUP3 SLOAD AND OR SWAP1 SSTORE PUSH1 0x2 DUP6 MSTORE KECCAK256 SWAP2 DUP3 SLOAD AND OR SWAP1 SSTORE MSTORE MLOAD PUSH2 0x2946 SWAP1 DUP2 PUSH3 0x2B5 DUP3 CODECOPY RETURN JUMPDEST DUP7 MLOAD RETURNDATASIZE DUP10 DUP3 RETURNDATACOPY RETURNDATASIZE SWAP1 REVERT JUMPDEST POP PUSH4 0x4E487B71 PUSH1 0xE0 SHL DUP16 MSTORE PUSH1 0x41 PUSH1 0x4 MSTORE PUSH1 0x24 DUP16 REVERT JUMPDEST PUSH4 0x4E487B71 PUSH1 0xE0 SHL DUP15 MSTORE PUSH1 0x41 PUSH1 0x4 MSTORE PUSH1 0x24 DUP15 REVERT JUMPDEST PUSH0 DUP1 REVERT JUMPDEST PUSH4 0x4E487B71 PUSH1 0xE0 SHL PUSH0 MSTORE PUSH1 0x41 PUSH1 0x4 MSTORE PUSH1 0x24 PUSH0 REVERT JUMPDEST PUSH1 0x1F SWAP1 SWAP2 ADD PUSH1 0x1F NOT AND DUP2 ADD SWAP1 PUSH1 0x1 PUSH1 0x1 PUSH1 0x40 SHL SUB DUP3 GT SWAP1 DUP3 LT OR PUSH3 0x1E5 JUMPI PUSH1 0x40 MSTORE JUMP JUMPDEST PUSH0 JUMPDEST DUP4 DUP2 LT PUSH3 0x22F JUMPI POP POP PUSH0 SWAP2 ADD MSTORE JUMP JUMPDEST DUP2 DUP2 ADD MLOAD DUP4 DUP3 ADD MSTORE PUSH1 0x20 ADD PUSH3 0x21F JUMP JUMPDEST PUSH0 DUP1 SLOAD SWAP1 PUSH9 0x10000000000000000 DUP3 LT ISZERO PUSH3 0x2A0 JUMPI PUSH1 0x1 DUP3 ADD DUP1 DUP3 SSTORE DUP3 LT ISZERO PUSH3 0x28C JUMPI DUP1 DUP1 MSTORE PUSH1 0x20 SWAP1 KECCAK256 ADD DUP1 SLOAD PUSH1 0x1 PUSH1 0x1 PUSH1 0xA0 SHL SUB NOT AND PUSH1 0x1 PUSH1 0x1 PUSH1 0xA0 SHL SUB SWAP1 SWAP3 AND SWAP2 SWAP1 SWAP2 OR SWAP1 SSTORE JUMP JUMPDEST PUSH4 0x4E487B71 PUSH1 0xE0 SHL DUP2 MSTORE PUSH1 0x32 PUSH1 0x4 MSTORE PUSH1 0x24 SWAP1 REVERT JUMPDEST PUSH4 0x4E487B71 PUSH1 0xE0 SHL DUP2 MSTORE PUSH1 0x41 PUSH1 0x4 MSTORE PUSH1 0x24 SWAP1 REVERT INVALID PUSH1 0x80 PUSH1 0x40 SWAP1 DUP1 DUP3 MSTORE PUSH1 0x4 SWAP1 DUP2 CALLDATASIZE LT ISZERO PUSH3 0x1B4 JUMPI JUMPDEST POP CALLDATASIZE ISZERO PUSH3 0x20 JUMPI PUSH0 DUP1 REVERT JUMPDEST PUSH0 SWAP1 CALLER DUP3 MSTORE PUSH1 0x20 SWAP3 PUSH1 0x3 DUP5 MSTORE PUSH1 0x1 DUP1 PUSH1 0xA0 SHL SUB SWAP2 DUP3 DUP3 DUP6 KECCAK256 SLOAD AND ISZERO PUSH3 0x19E JUMPI CALLER DUP5 MSTORE PUSH1 0x3 DUP6 MSTORE DUP3 DUP3 DUP6 KECCAK256 SLOAD AND SWAP3 PUSH2 0x7530 DUP1 CALLVALUE MUL SWAP1 CALLVALUE DUP3 DIV EQ CALLVALUE ISZERO OR ISZERO PUSH3 0x18B JUMPI DUP7 PUSH8 0xDE0B6B3A7640000 DUP8 SWAP3 DIV SWAP6 PUSH1 0x24 DUP7 MLOAD DUP1 SWAP5 DUP2 SWAP4 PUSH4 0x6299A6EF PUSH1 0xE0 SHL DUP4 MSTORE DUP11 DUP10 DUP5 ADD MSTORE GAS CALL DUP1 ISZERO PUSH3 0x181 JUMPI SWAP1 DUP8 SWAP2 PUSH3 0x14E JUMPI JUMPDEST POP POP CALLER DUP6 MSTORE PUSH1 0x3 DUP7 MSTORE DUP3 DUP6 KECCAK256 SLOAD AND SWAP1 DUP6 DUP4 MLOAD DUP1 SWAP3 PUSH4 0x281B420F PUSH1 0xE2 SHL DUP3 MSTORE DUP2 DUP6 GAS STATICCALL SWAP5 DUP6 ISZERO PUSH3 0x143 JUMPI DUP1 SWAP6 PUSH3 0x107 JUMPI JUMPDEST PUSH32 0xE68AE65C1DBF46AD8B9F7D8480F82CF65625A69C1979075BE1E7516471FD3E4A PUSH1 0x80 DUP9 DUP9 DUP9 DUP9 DUP9 DUP2 MLOAD SWAP5 CALLER DUP7 MSTORE DUP6 ADD MSTORE DUP4 ADD MSTORE PUSH1 0x60 DUP3 ADD MSTORE LOG1 STOP JUMPDEST SWAP1 SWAP2 SWAP5 POP DUP6 DUP3 DUP2 RETURNDATASIZE DUP4 GT PUSH3 0x13B JUMPI JUMPDEST PUSH3 0x123 DUP2 DUP4 PUSH3 0x19BD JUMP JUMPDEST DUP2 ADD SUB SLT PUSH3 0x138 JUMPI POP MLOAD SWAP3 DUP2 PUSH1 0x80 PUSH3 0xCB JUMP JUMPDEST DUP1 REVERT JUMPDEST POP RETURNDATASIZE PUSH3 0x117 JUMP JUMPDEST DUP4 MLOAD SWAP1 RETURNDATASIZE SWAP1 DUP3 RETURNDATACOPY RETURNDATASIZE SWAP1 REVERT JUMPDEST DUP2 RETURNDATASIZE DUP4 GT PUSH3 0x179 JUMPI JUMPDEST PUSH3 0x164 DUP2 DUP4 PUSH3 0x19BD JUMP JUMPDEST DUP2 ADD SUB SLT PUSH3 0x175 JUMPI DUP6 PUSH0 PUSH3 0x99 JUMP JUMPDEST DUP5 DUP1 REVERT JUMPDEST POP RETURNDATASIZE PUSH3 0x158 JUMP JUMPDEST DUP5 MLOAD RETURNDATASIZE DUP9 DUP3 RETURNDATACOPY RETURNDATASIZE SWAP1 REVERT JUMPDEST PUSH4 0x4E487B71 PUSH1 0xE0 SHL DUP7 MSTORE PUSH1 0x11 DUP4 MSTORE PUSH1 0x24 DUP7 REVERT JUMPDEST PUSH1 0x24 SWAP2 MLOAD SWAP1 PUSH4 0x9C363E25 PUSH1 0xE0 SHL DUP3 MSTORE CALLER SWAP1 DUP3 ADD MSTORE REVERT JUMPDEST PUSH0 SWAP1 DUP2 CALLDATALOAD PUSH1 0xE0 SHR SWAP1 DUP2 PUSH4 0x1FFC9A7 EQ PUSH3 0x179C JUMPI POP DUP1 PUSH4 0x4673196 EQ PUSH3 0x16E0 JUMPI DUP1 PUSH4 0xAB9BB62 EQ PUSH3 0x16C2 JUMPI DUP1 PUSH4 0x10C030A3 EQ PUSH3 0x4B8 JUMPI DUP1 PUSH4 0x14BFD6D0 EQ PUSH3 0x167C JUMPI DUP1 PUSH4 0x150B7A02 EQ PUSH3 0x1569 JUMPI DUP1 PUSH4 0x1785F53C EQ PUSH3 0x142F JUMPI DUP1 PUSH4 0x35E3E084 EQ PUSH3 0x1386 JUMPI DUP1 PUSH4 0x46E7AD99 EQ PUSH3 0x124B JUMPI DUP1 PUSH4 0x48971ACD EQ PUSH3 0x100F JUMPI DUP1 PUSH4 0x508AA6D9 EQ PUSH3 0xEE0 JUMPI DUP1 PUSH4 0x5709D115 EQ PUSH3 0x4B8 JUMPI DUP1 PUSH4 0x63A846F8 EQ PUSH3 0xE9E JUMPI DUP1 PUSH4 0x6FE86F16 EQ PUSH3 0xE6A JUMPI DUP1 PUSH4 0x70480275 EQ PUSH3 0xD82 JUMPI DUP1 PUSH4 0x81E7E20E EQ PUSH3 0xD40 JUMPI DUP1 PUSH4 0x9F56D135 EQ PUSH3 0xD23 JUMPI DUP1 PUSH4 0xA15AB08D EQ PUSH3 0xC82 JUMPI DUP1 PUSH4 0xA7E1DDC2 EQ PUSH3 0x8D3 JUMPI DUP1 PUSH4 0xB37BF09C EQ PUSH3 0x89B JUMPI DUP1 PUSH4 0xB66C484E EQ PUSH3 0x86A JUMPI DUP1 PUSH4 0xBC197C81 EQ PUSH3 0x722 JUMPI DUP1 PUSH4 0xBE500FB9 EQ PUSH3 0x51F JUMPI DUP1 PUSH4 0xC2BB8120 EQ PUSH3 0x4BE JUMPI DUP1 PUSH4 0xDE68A001 EQ PUSH3 0x4B8 JUMPI DUP1 PUSH4 0xF23A6E61 EQ PUSH3 0x377 JUMPI DUP1 PUSH4 0xF6D8A744 EQ PUSH3 0x338 JUMPI PUSH4 0xF9E93771 SUB PUSH3 0x14 JUMPI DUP3 CALLVALUE PUSH3 0x334 JUMPI DUP1 PUSH1 0x3 NOT CALLDATASIZE ADD SLT PUSH3 0x334 JUMPI PUSH1 0x24 CALLDATALOAD DUP1 ISZERO ISZERO SUB PUSH3 0x334 JUMPI MLOAD SWAP1 DUP2 MSTORE PUSH1 0x20 SWAP1 RETURN JUMPDEST POP DUP1 REVERT JUMPDEST POP DUP3 CALLVALUE PUSH3 0x334 JUMPI PUSH1 0x20 CALLDATASIZE PUSH1 0x3 NOT ADD SLT PUSH3 0x334 JUMPI PUSH1 0x20 SWAP2 PUSH1 0x1 PUSH1 0x1 PUSH1 0xA0 SHL SUB SWAP1 DUP3 SWAP1 DUP3 PUSH3 0x366 PUSH3 0x180A JUMP JUMPDEST AND DUP2 MSTORE PUSH1 0x3 DUP6 MSTORE KECCAK256 SLOAD AND SWAP1 MLOAD SWAP1 DUP2 MSTORE RETURN JUMPDEST POP DUP3 SWAP1 CALLVALUE PUSH3 0x138 JUMPI PUSH1 0xA0 CALLDATASIZE PUSH1 0x3 NOT ADD SLT PUSH3 0x138 JUMPI PUSH3 0x397 PUSH3 0x180A JUMP JUMPDEST POP PUSH3 0x3A2 PUSH3 0x1821 JUMP JUMPDEST SWAP3 PUSH1 0x84 CALLDATALOAD PUSH1 0x1 PUSH1 0x1 PUSH1 0x40 SHL SUB DUP2 GT PUSH3 0x4B4 JUMPI PUSH3 0x3C4 SWAP1 CALLDATASIZE SWAP1 DUP4 ADD PUSH3 0x17D6 JUMP JUMPDEST POP POP PUSH1 0x1 PUSH1 0x5 SLOAD SUB PUSH3 0x4A6 JUMPI DUP2 PUSH1 0x5 SSTORE PUSH1 0x1 DUP1 PUSH1 0xA0 SHL SUB DUP1 SWAP5 AND SWAP4 DUP5 DUP4 MSTORE PUSH1 0x20 SWAP5 PUSH1 0x3 DUP7 MSTORE DUP2 DUP6 DUP6 KECCAK256 SLOAD AND ISZERO PUSH3 0x490 JUMPI DUP4 SWAP2 DUP7 SWAP2 DUP4 MSTORE PUSH1 0x3 DUP3 MSTORE DUP6 DUP4 KECCAK256 SLOAD AND PUSH1 0x24 DUP7 MLOAD DUP1 SWAP5 DUP2 SWAP4 PUSH4 0x6299A6EF PUSH1 0xE0 SHL DUP4 MSTORE PUSH2 0x3E8 DUP9 DUP5 ADD MSTORE GAS CALL DUP1 ISZERO PUSH3 0x486 JUMPI DUP5 SWAP3 SWAP2 DUP7 SWAP2 PUSH3 0x451 JUMPI JUMPDEST POP POP CALLER DUP4 MSTORE DUP5 MSTORE SWAP1 KECCAK256 PUSH1 0x3 SWAP1 SSTORE PUSH1 0x1 PUSH1 0x5 SSTORE MLOAD PUSH4 0xF23A6E61 PUSH1 0xE0 SHL DUP2 MSTORE RETURN JUMPDEST SWAP1 DUP1 SWAP3 SWAP4 POP RETURNDATASIZE DUP4 GT PUSH3 0x47E JUMPI JUMPDEST PUSH3 0x46B DUP2 DUP4 PUSH3 0x19BD JUMP JUMPDEST DUP2 ADD SUB SLT PUSH3 0x334 JUMPI DUP3 SWAP1 DUP5 DUP7 PUSH3 0x432 JUMP JUMPDEST POP RETURNDATASIZE PUSH3 0x45F JUMP JUMPDEST DUP5 MLOAD RETURNDATASIZE DUP6 DUP3 RETURNDATACOPY RETURNDATASIZE SWAP1 REVERT JUMPDEST DUP3 PUSH1 0x24 SWAP2 DUP7 MLOAD SWAP2 PUSH4 0x9C363E25 PUSH1 0xE0 SHL DUP4 MSTORE DUP3 ADD MSTORE REVERT JUMPDEST DUP3 MLOAD PUSH4 0x3CB96DB PUSH1 0xE2 SHL DUP2 MSTORE REVERT JUMPDEST DUP3 DUP1 REVERT JUMPDEST PUSH3 0x18C2 JUMP JUMPDEST POP SWAP2 SWAP1 CALLVALUE PUSH3 0x4B4 JUMPI PUSH1 0x20 CALLDATASIZE PUSH1 0x3 NOT ADD SLT PUSH3 0x4B4 JUMPI PUSH1 0x1 PUSH1 0x1 PUSH1 0xA0 SHL SUB PUSH3 0x4E6 PUSH3 0x180A JUMP JUMPDEST AND DUP1 DUP5 MSTORE DUP2 PUSH1 0x20 MSTORE DUP3 DUP5 KECCAK256 SLOAD ISZERO PUSH3 0x50B JUMPI SWAP3 DUP3 SWAP2 PUSH1 0x20 SWAP5 DUP3 MSTORE DUP5 MSTORE KECCAK256 SLOAD SWAP1 MLOAD SWAP1 DUP2 MSTORE RETURN JUMPDEST PUSH1 0x24 SWAP3 MLOAD SWAP2 PUSH4 0x961C9A4F PUSH1 0xE0 SHL DUP4 MSTORE DUP3 ADD MSTORE REVERT JUMPDEST POP SWAP1 CALLVALUE PUSH3 0x334 JUMPI PUSH1 0x20 DUP1 PUSH1 0x3 NOT CALLDATASIZE ADD SLT PUSH3 0x4B4 JUMPI DUP2 CALLDATALOAD PUSH1 0x1 PUSH1 0x1 PUSH1 0x40 SHL SUB DUP2 GT PUSH3 0x71E JUMPI DUP3 DUP5 PUSH3 0x558 DUP8 SWAP4 CALLDATASIZE SWAP1 DUP5 ADD PUSH3 0x1939 JUMP JUMPDEST SWAP3 SWAP1 PUSH3 0x565 DUP5 PUSH3 0x19F3 JUMP JUMPDEST SWAP2 PUSH3 0x574 DUP7 MLOAD SWAP4 DUP5 PUSH3 0x19BD JUMP JUMPDEST DUP5 DUP4 MSTORE PUSH3 0x582 DUP6 PUSH3 0x19F3 JUMP JUMPDEST DUP4 DUP9 ADD SWAP6 SWAP1 PUSH1 0x1F NOT ADD CALLDATASIZE DUP8 CALLDATACOPY DUP5 JUMPDEST DUP2 DUP2 LT PUSH3 0x5D9 JUMPI POP POP POP POP DUP4 MLOAD SWAP5 DUP6 SWAP5 DUP2 DUP7 ADD SWAP3 DUP3 DUP8 MSTORE MLOAD DUP1 SWAP4 MSTORE DUP6 ADD SWAP4 SWAP3 JUMPDEST DUP3 DUP2 LT PUSH3 0x5C1 JUMPI POP POP POP POP SUB SWAP1 RETURN JUMPDEST DUP4 MLOAD DUP6 MSTORE DUP7 SWAP6 POP SWAP4 DUP2 ADD SWAP4 SWAP3 DUP2 ADD SWAP3 PUSH1 0x1 ADD PUSH3 0x5B1 JUMP JUMPDEST SWAP7 SWAP8 SWAP6 SWAP7 SWAP4 SWAP6 SWAP5 SWAP4 PUSH1 0x1 PUSH1 0x1 PUSH1 0xA0 SHL SUB DUP1 PUSH3 0x601 PUSH3 0x5FB DUP5 DUP7 DUP10 PUSH3 0x1A0B JUMP JUMPDEST PUSH3 0x1A30 JUMP JUMPDEST AND DUP7 MSTORE PUSH1 0x2 DUP8 MSTORE PUSH1 0xFF DUP11 DUP8 KECCAK256 SLOAD AND ISZERO PUSH3 0x709 JUMPI DUP1 PUSH3 0x627 PUSH3 0x5FB DUP5 DUP7 DUP10 PUSH3 0x1A0B JUMP JUMPDEST AND DUP7 MSTORE PUSH1 0x3 DUP1 DUP9 MSTORE DUP2 DUP12 DUP9 KECCAK256 SLOAD AND ISZERO PUSH3 0x6DF JUMPI DUP2 DUP9 SWAP2 DUP5 SWAP4 PUSH3 0x652 PUSH3 0x5FB DUP10 SWAP8 DUP10 DUP13 PUSH3 0x1A0B JUMP JUMPDEST AND DUP10 MSTORE DUP3 MSTORE DUP12 DUP9 KECCAK256 SLOAD AND DUP12 MLOAD SWAP4 DUP5 DUP1 SWAP3 PUSH4 0x281B420F PUSH1 0xE2 SHL DUP3 MSTORE GAS STATICCALL DUP1 ISZERO PUSH3 0x6D5 JUMPI DUP7 SWAP1 PUSH3 0x69B JUMPI JUMPDEST PUSH1 0x1 SWAP3 POP PUSH3 0x68D DUP3 DUP11 PUSH3 0x1A45 JUMP JUMPDEST MSTORE ADD SWAP8 SWAP7 SWAP6 SWAP4 SWAP5 SWAP8 PUSH3 0x590 JUMP JUMPDEST POP SWAP1 DUP7 DUP2 DUP2 RETURNDATASIZE DUP4 GT PUSH3 0x6CD JUMPI JUMPDEST PUSH3 0x6B5 DUP2 DUP4 PUSH3 0x19BD JUMP JUMPDEST DUP2 ADD SUB SLT PUSH3 0x6C9 JUMPI SWAP1 PUSH1 0x1 SWAP2 MLOAD PUSH3 0x67D JUMP JUMPDEST DUP6 DUP1 REVERT JUMPDEST POP RETURNDATASIZE PUSH3 0x6A9 JUMP JUMPDEST DUP11 MLOAD RETURNDATASIZE DUP9 DUP3 RETURNDATACOPY RETURNDATASIZE SWAP1 REVERT JUMPDEST POP PUSH3 0x6F5 PUSH3 0x5FB PUSH1 0x24 SWAP6 SWAP4 DUP13 SWAP6 DUP9 PUSH3 0x1A0B JUMP JUMPDEST SWAP3 MLOAD PUSH4 0x2E86C5BB PUSH1 0xE2 SHL DUP2 MSTORE SWAP3 AND SWAP1 DUP3 ADD MSTORE REVERT JUMPDEST PUSH3 0x6F5 PUSH3 0x5FB PUSH1 0x24 SWAP6 SWAP4 DUP13 SWAP6 DUP9 PUSH3 0x1A0B JUMP JUMPDEST DUP4 DUP1 REVERT JUMPDEST POP DUP3 SWAP1 CALLVALUE PUSH3 0x138 JUMPI PUSH1 0xA0 CALLDATASIZE PUSH1 0x3 NOT ADD SLT PUSH3 0x138 JUMPI PUSH3 0x742 PUSH3 0x180A JUMP JUMPDEST POP PUSH3 0x74D PUSH3 0x1821 JUMP JUMPDEST SWAP3 PUSH1 0x1 PUSH1 0x1 PUSH1 0x40 SHL SUB PUSH1 0x44 CALLDATALOAD DUP2 DUP2 GT PUSH3 0x71E JUMPI PUSH3 0x770 SWAP1 CALLDATASIZE SWAP1 DUP5 ADD PUSH3 0x1939 JUMP JUMPDEST POP POP PUSH1 0x64 CALLDATALOAD DUP2 DUP2 GT PUSH3 0x71E JUMPI PUSH3 0x78C SWAP1 CALLDATASIZE SWAP1 DUP5 ADD PUSH3 0x1939 JUMP JUMPDEST POP POP PUSH1 0x84 CALLDATALOAD SWAP1 DUP2 GT PUSH3 0x4B4 JUMPI PUSH3 0x7A8 SWAP1 CALLDATASIZE SWAP1 DUP4 ADD PUSH3 0x17D6 JUMP JUMPDEST POP POP PUSH1 0x1 PUSH1 0x5 SLOAD SUB PUSH3 0x4A6 JUMPI DUP2 PUSH1 0x5 SSTORE PUSH1 0x1 DUP1 PUSH1 0xA0 SHL SUB DUP1 SWAP5 AND SWAP4 DUP5 DUP4 MSTORE PUSH1 0x20 SWAP5 PUSH1 0x3 DUP7 MSTORE DUP2 DUP6 DUP6 KECCAK256 SLOAD AND ISZERO PUSH3 0x490 JUMPI DUP4 SWAP2 DUP7 SWAP2 DUP4 MSTORE PUSH1 0x3 DUP3 MSTORE DUP6 DUP4 KECCAK256 SLOAD AND PUSH1 0x24 DUP7 MLOAD DUP1 SWAP5 DUP2 SWAP4 PUSH4 0x6299A6EF PUSH1 0xE0 SHL DUP4 MSTORE PUSH2 0x3E8 DUP9 DUP5 ADD MSTORE GAS CALL DUP1 ISZERO PUSH3 0x486 JUMPI DUP5 SWAP3 SWAP2 DUP7 SWAP2 PUSH3 0x835 JUMPI JUMPDEST POP POP CALLER DUP4 MSTORE DUP5 MSTORE SWAP1 KECCAK256 PUSH1 0x3 SWAP1 SSTORE PUSH1 0x1 PUSH1 0x5 SSTORE MLOAD PUSH4 0xBC197C81 PUSH1 0xE0 SHL DUP2 MSTORE RETURN JUMPDEST SWAP1 DUP1 SWAP3 SWAP4 POP RETURNDATASIZE DUP4 GT PUSH3 0x862 JUMPI JUMPDEST PUSH3 0x84F DUP2 DUP4 PUSH3 0x19BD JUMP JUMPDEST DUP2 ADD SUB SLT PUSH3 0x334 JUMPI DUP3 SWAP1 DUP5 DUP7 PUSH3 0x816 JUMP JUMPDEST POP RETURNDATASIZE PUSH3 0x843 JUMP JUMPDEST DUP4 DUP3 CALLVALUE PUSH3 0x138 JUMPI DUP2 PUSH1 0x3 NOT CALLDATASIZE ADD SLT PUSH3 0x138 JUMPI POP PUSH3 0x889 PUSH3 0x180A JUMP JUMPDEST POP MLOAD DUP1 PUSH3 0x897 DUP2 PUSH3 0x1838 JUMP JUMPDEST SUB SWAP1 RETURN JUMPDEST POP SWAP2 CALLVALUE PUSH3 0x4B4 JUMPI CALLDATASIZE PUSH1 0x3 NOT ADD SLT PUSH3 0x334 JUMPI DUP1 CALLDATALOAD SWAP1 PUSH1 0x1 PUSH1 0x1 PUSH1 0x40 SHL SUB DUP3 GT PUSH3 0x4B4 JUMPI PUSH3 0x8CE SWAP2 CALLDATASIZE SWAP2 ADD PUSH3 0x1939 JUMP JUMPDEST POP POP DUP1 RETURN JUMPDEST POP CALLVALUE PUSH3 0x138 JUMPI PUSH1 0x80 CALLDATASIZE PUSH1 0x3 NOT ADD SLT PUSH3 0x138 JUMPI PUSH3 0x8F1 PUSH3 0x180A JUMP JUMPDEST SWAP1 PUSH3 0x8FC PUSH3 0x1821 JUMP JUMPDEST SWAP1 PUSH1 0x44 SWAP2 DUP3 CALLDATALOAD PUSH1 0x64 SWAP5 DUP6 CALLDATALOAD PUSH1 0x1 PUSH1 0x5 SLOAD SUB PUSH3 0xC72 JUMPI DUP5 PUSH1 0x5 SSTORE PUSH3 0x921 CALLER PUSH3 0x1B1E JUMP JUMPDEST PUSH1 0x1 PUSH1 0x1 PUSH1 0xA0 SHL SUB DUP3 DUP2 AND SWAP4 SWAP1 SWAP2 SWAP1 DUP5 PUSH3 0x9F8 JUMPI POP POP POP POP POP SELFBALANCE SWAP1 DUP7 MLOAD PUSH1 0x20 DUP2 ADD DUP2 DUP2 LT PUSH1 0x1 PUSH1 0x1 PUSH1 0x40 SHL SUB DUP3 GT OR PUSH3 0x9E5 JUMPI DUP9 MSTORE DUP4 SWAP1 MSTORE DUP3 SWAP2 DUP3 SWAP2 DUP3 SWAP2 SWAP1 GAS CALL PUSH3 0x96E PUSH3 0x1CA2 JUMP JUMPDEST POP ISZERO PUSH3 0x988 JUMPI POP POP POP PUSH1 0x20 SWAP1 JUMPDEST PUSH1 0x1 PUSH1 0x5 SSTORE MLOAD PUSH1 0x1 DUP2 MSTORE RETURN JUMPDEST SWAP1 PUSH32 0x5472616E7366657248656C7065723A3A736166655472616E736665724554483A PUSH20 0x8115512081D1C985B9CD9995C8819985A5B1959 PUSH1 0x62 SHL SWAP3 PUSH1 0x20 PUSH1 0x84 SWAP7 MLOAD SWAP6 PUSH3 0x461BCD PUSH1 0xE5 SHL DUP8 MSTORE DUP7 ADD MSTORE PUSH1 0x34 PUSH1 0x24 DUP7 ADD MSTORE DUP5 ADD MSTORE DUP3 ADD MSTORE REVERT JUMPDEST PUSH4 0x4E487B71 PUSH1 0xE0 SHL DUP6 MSTORE PUSH1 0x41 DUP9 MSTORE PUSH1 0x24 DUP6 REVERT JUMPDEST DUP5 DUP8 SWAP7 SWAP5 SWAP6 SWAP8 MSTORE PUSH1 0x20 SWAP7 DUP11 DUP9 MSTORE DUP12 DUP8 KECCAK256 SLOAD PUSH1 0x1 DUP2 EQ PUSH0 EQ PUSH3 0xB1B JUMPI POP POP POP DUP10 MLOAD SWAP2 DUP7 DUP4 ADD SWAP4 PUSH4 0xA9059CBB PUSH1 0xE0 SHL DUP6 MSTORE AND PUSH1 0x24 DUP4 ADD MSTORE DUP7 DUP3 ADD MSTORE DUP6 DUP2 MSTORE PUSH1 0x80 DUP2 ADD DUP2 DUP2 LT PUSH1 0x1 PUSH1 0x1 PUSH1 0x40 SHL SUB DUP3 GT OR PUSH3 0xB08 JUMPI DUP5 SWAP4 SWAP3 SWAP2 DUP5 SWAP2 DUP12 MSTORE MLOAD SWAP3 GAS CALL PUSH3 0xA62 PUSH3 0x1CA2 JUMP JUMPDEST DUP2 PUSH3 0xAD3 JUMPI JUMPDEST POP ISZERO PUSH3 0xA7E JUMPI POP POP POP POP PUSH1 0x20 SWAP1 JUMPDEST PUSH3 0x97C JUMP JUMPDEST PUSH13 0x185B9CD9995C8819985A5B1959 PUSH1 0x9A SHL SWAP3 SWAP2 PUSH32 0x5472616E7366657248656C7065723A3A736166655472616E736665723A207472 SWAP2 PUSH1 0x84 SWAP7 MLOAD SWAP6 PUSH3 0x461BCD PUSH1 0xE5 SHL DUP8 MSTORE DUP7 ADD MSTORE PUSH1 0x2D PUSH1 0x24 DUP7 ADD MSTORE DUP5 ADD MSTORE DUP3 ADD MSTORE REVERT JUMPDEST DUP1 MLOAD DUP1 ISZERO SWAP3 POP DUP4 SWAP1 DUP4 ISZERO PUSH3 0xAED JUMPI JUMPDEST POP POP POP PUSH0 PUSH3 0xA69 JUMP JUMPDEST PUSH3 0xAFF SWAP4 POP DUP3 ADD DUP2 ADD SWAP2 ADD PUSH3 0x1CD6 JUMP JUMPDEST PUSH0 DUP3 DUP2 PUSH3 0xAE3 JUMP JUMPDEST PUSH4 0x4E487B71 PUSH1 0xE0 SHL DUP6 MSTORE PUSH1 0x41 DUP10 MSTORE PUSH1 0x24 DUP6 REVERT JUMPDEST PUSH1 0x2 DUP2 SWAP14 SWAP13 SWAP14 SWAP12 SWAP7 SWAP9 SWAP11 SWAP5 SWAP4 SWAP6 SWAP8 SWAP10 SWAP12 EQ PUSH0 EQ PUSH3 0xBD5 JUMPI POP POP POP DUP9 MLOAD SWAP4 DUP9 DUP6 ADD SWAP6 PUSH4 0x21421707 PUSH1 0xE1 SHL DUP8 MSTORE ADDRESS PUSH1 0x24 DUP8 ADD MSTORE AND SWAP1 DUP5 ADD MSTORE DUP2 DUP4 ADD MSTORE DUP2 MSTORE PUSH1 0xA0 DUP2 ADD DUP2 DUP2 LT PUSH1 0x1 PUSH1 0x1 PUSH1 0x40 SHL SUB DUP3 GT OR PUSH3 0x9E5 JUMPI DUP7 MSTORE MLOAD PUSH1 0x20 SWAP7 POP PUSH3 0xA78 SWAP5 SWAP4 SWAP3 DUP4 SWAP3 SWAP1 DUP4 SWAP1 GAS CALL SWAP1 PUSH3 0xB8F PUSH3 0x1CA2 JUMP JUMPDEST DUP3 PUSH3 0xB9E JUMPI JUMPDEST POP POP PUSH3 0x1CF0 JUMP JUMPDEST DUP1 SWAP2 SWAP3 POP MLOAD SWAP2 DUP3 ISZERO SWAP3 DUP4 ISZERO PUSH3 0xBBA JUMPI JUMPDEST POP POP POP PUSH0 DUP1 PUSH3 0xB96 JUMP JUMPDEST PUSH3 0xBCC SWAP4 POP DUP3 ADD DUP2 ADD SWAP2 ADD PUSH3 0x1CD6 JUMP JUMPDEST PUSH0 DUP1 DUP1 PUSH3 0xBAF JUMP JUMPDEST SWAP2 SWAP5 SWAP3 SWAP2 PUSH1 0x2 NOT ADD PUSH3 0xC5C JUMPI POP DUP10 MLOAD SWAP5 DUP10 DUP7 ADD SWAP7 PUSH4 0x79212195 PUSH1 0xE1 SHL DUP9 MSTORE ADDRESS PUSH1 0x24 DUP9 ADD MSTORE AND SWAP1 DUP6 ADD MSTORE DUP4 ADD MSTORE PUSH1 0x84 DUP3 ADD MSTORE PUSH1 0xA0 PUSH1 0xA4 DUP3 ADD MSTORE PUSH1 0x2 PUSH1 0xC4 DUP3 ADD MSTORE PUSH2 0x60F PUSH1 0xF3 SHL PUSH1 0xE4 DUP3 ADD MSTORE PUSH1 0xE4 DUP2 MSTORE PUSH2 0x120 DUP2 ADD DUP2 DUP2 LT PUSH1 0x1 PUSH1 0x1 PUSH1 0x40 SHL SUB DUP3 GT OR PUSH3 0x9E5 JUMPI DUP7 MSTORE MLOAD PUSH1 0x20 SWAP7 POP PUSH3 0xA78 SWAP5 SWAP4 SWAP3 DUP4 SWAP3 SWAP1 DUP4 SWAP1 GAS CALL SWAP1 PUSH3 0xB8F PUSH3 0x1CA2 JUMP JUMPDEST DUP12 PUSH1 0x24 SWAP2 DUP13 MLOAD SWAP2 PUSH4 0x961C9A4F PUSH1 0xE0 SHL DUP4 MSTORE DUP3 ADD MSTORE REVERT JUMPDEST DUP9 MLOAD PUSH4 0x3CB96DB PUSH1 0xE2 SHL DUP2 MSTORE DUP9 SWAP1 REVERT JUMPDEST POP SWAP1 CALLVALUE PUSH3 0x334 JUMPI DUP3 PUSH1 0x3 NOT CALLDATASIZE ADD SLT PUSH3 0x334 JUMPI PUSH3 0xCA0 PUSH3 0x180A JUMP JUMPDEST SWAP2 PUSH1 0x24 CALLDATALOAD PUSH1 0x1 PUSH1 0x1 PUSH1 0x40 SHL SUB DUP2 GT PUSH3 0x334 JUMPI PUSH3 0xCC2 SWAP1 CALLDATASIZE SWAP1 DUP5 ADD PUSH3 0x17D6 JUMP JUMPDEST SWAP2 SWAP1 SWAP3 PUSH1 0x1 PUSH1 0x5 SLOAD SUB PUSH3 0xD15 JUMPI POP PUSH1 0x5 SSTORE PUSH3 0xCF8 SWAP2 PUSH3 0xCF1 SWAP2 PUSH3 0xCE9 CALLER PUSH3 0x1B1E JUMP JUMPDEST CALLDATASIZE SWAP2 PUSH3 0x1B6E JUMP JUMPDEST DUP3 PUSH3 0x1BA9 JUMP JUMPDEST PUSH1 0x1 PUSH1 0x5 SSTORE DUP3 MLOAD PUSH1 0x1 PUSH1 0x1 PUSH1 0xA0 SHL SUB SWAP3 DUP4 AND DUP2 MSTORE SWAP2 AND PUSH1 0x20 DUP3 ADD MSTORE RETURN JUMPDEST DUP6 MLOAD PUSH4 0x3CB96DB PUSH1 0xE2 SHL DUP2 MSTORE REVERT JUMPDEST POP DUP3 CALLVALUE PUSH3 0x334 JUMPI DUP1 PUSH1 0x3 NOT CALLDATASIZE ADD SLT PUSH3 0x334 JUMPI MLOAD SWAP1 DUP2 MSTORE PUSH1 0x20 SWAP1 RETURN JUMPDEST POP DUP3 CALLVALUE PUSH3 0x334 JUMPI PUSH1 0x20 CALLDATASIZE PUSH1 0x3 NOT ADD SLT PUSH3 0x334 JUMPI PUSH1 0x20 SWAP2 PUSH1 0xFF SWAP1 DUP3 SWAP1 PUSH1 0x1 PUSH1 0x1 PUSH1 0xA0 SHL SUB PUSH3 0xD6F PUSH3 0x180A JUMP JUMPDEST AND DUP2 MSTORE PUSH1 0x2 DUP6 MSTORE KECCAK256 SLOAD AND SWAP1 MLOAD SWAP1 ISZERO ISZERO DUP2 MSTORE RETURN JUMPDEST POP DUP3 SWAP1 CALLVALUE PUSH3 0x138 JUMPI PUSH1 0x20 CALLDATASIZE PUSH1 0x3 NOT ADD SLT PUSH3 0x138 JUMPI PUSH3 0xDA2 PUSH3 0x180A JUMP JUMPDEST SWAP1 PUSH1 0x1 PUSH1 0x5 SLOAD SUB PUSH3 0xE5B JUMPI DUP1 PUSH1 0x5 SSTORE PUSH3 0xDBD CALLER PUSH3 0x1B1E JUMP JUMPDEST PUSH1 0x1 PUSH1 0x1 PUSH1 0xA0 SHL SUB DUP3 AND DUP2 MSTORE PUSH1 0x1 PUSH1 0x20 DUP2 SWAP1 MSTORE DUP4 DUP3 KECCAK256 DUP1 SLOAD PUSH1 0xFF NOT AND SWAP1 SWAP2 OR SWAP1 SSTORE DUP1 SLOAD SWAP1 PUSH9 0x10000000000000000 DUP3 LT ISZERO PUSH3 0xE48 JUMPI SWAP2 PUSH3 0xE0F DUP3 PUSH3 0x897 SWAP6 SWAP5 PUSH1 0x1 PUSH3 0xE2D SWAP6 ADD SWAP1 SSTORE PUSH3 0x18EF JUMP JUMPDEST SWAP1 SWAP2 SWAP1 PUSH1 0x1 DUP1 PUSH1 0xA0 SHL SUB DUP1 DUP5 SLOAD SWAP3 PUSH1 0x3 SHL SWAP4 AND DUP4 SHL SWAP3 SHL NOT AND OR SWAP1 SSTORE JUMP JUMPDEST PUSH3 0xE37 PUSH3 0x1A5A JUMP JUMPDEST SWAP1 PUSH1 0x1 PUSH1 0x5 SSTORE MLOAD SWAP2 DUP3 SWAP2 DUP3 PUSH3 0x187D JUMP JUMPDEST PUSH4 0x4E487B71 PUSH1 0xE0 SHL DUP2 MSTORE PUSH1 0x41 DUP6 MSTORE PUSH1 0x24 SWAP1 REVERT JUMPDEST POP POP MLOAD PUSH4 0x3CB96DB PUSH1 0xE2 SHL DUP2 MSTORE REVERT JUMPDEST POP DUP3 CALLVALUE PUSH3 0x334 JUMPI DUP1 PUSH1 0x3 NOT CALLDATASIZE ADD SLT PUSH3 0x334 JUMPI SWAP1 PUSH1 0x20 SWAP2 PUSH3 0xE8C PUSH3 0x180A JUMP JUMPDEST POP PUSH3 0xE97 PUSH3 0x1821 JUMP JUMPDEST POP MLOAD SWAP1 DUP2 MSTORE RETURN JUMPDEST POP DUP3 CALLVALUE PUSH3 0x334 JUMPI PUSH1 0x20 CALLDATASIZE PUSH1 0x3 NOT ADD SLT PUSH3 0x334 JUMPI PUSH1 0x20 SWAP2 PUSH1 0xFF SWAP1 DUP3 SWAP1 PUSH1 0x1 PUSH1 0x1 PUSH1 0xA0 SHL SUB PUSH3 0xECD PUSH3 0x180A JUMP JUMPDEST AND DUP2 MSTORE PUSH1 0x1 DUP6 MSTORE KECCAK256 SLOAD AND SWAP1 MLOAD SWAP1 ISZERO ISZERO DUP2 MSTORE RETURN JUMPDEST POP DUP3 CALLVALUE PUSH3 0x334 JUMPI PUSH3 0xEF3 CALLDATASIZE PUSH3 0x196C JUMP JUMPDEST SWAP1 SWAP6 PUSH1 0x1 SWAP4 SWAP3 SWAP4 SWAP7 DUP8 PUSH1 0x5 SLOAD SUB PUSH3 0x1000 JUMPI DUP7 PUSH1 0x5 SSTORE PUSH3 0xF14 CALLER PUSH3 0x1B1E JUMP JUMPDEST DUP7 JUMPDEST DUP6 DUP2 LT PUSH3 0xF2C JUMPI PUSH1 0x20 DUP9 DUP9 DUP12 PUSH1 0x5 SSTORE MLOAD SWAP1 DUP2 MSTORE RETURN JUMPDEST PUSH1 0x1 PUSH1 0x1 PUSH1 0xA0 SHL SUB DUP1 PUSH3 0xF46 PUSH3 0x5FB DUP5 DUP11 DUP11 PUSH3 0x1A0B JUMP JUMPDEST AND DUP10 MSTORE PUSH1 0x20 PUSH1 0x2 DUP2 MSTORE PUSH1 0xFF DUP10 DUP12 KECCAK256 SLOAD AND ISZERO PUSH3 0xFEA JUMPI DUP2 PUSH3 0xF6E PUSH3 0x5FB DUP6 DUP12 DUP12 PUSH3 0x1A0B JUMP JUMPDEST AND DUP11 MSTORE PUSH1 0x3 SWAP1 DUP2 DUP2 MSTORE DUP3 DUP11 DUP13 KECCAK256 SLOAD AND ISZERO PUSH3 0xFD4 JUMPI SWAP2 DUP8 SWAP2 DUP5 SWAP4 DUP3 PUSH3 0xFAE DUP16 SWAP8 DUP1 DUP15 PUSH3 0xFA7 PUSH3 0x5FB DUP16 SWAP5 PUSH3 0x5FB SWAP6 DUP16 PUSH3 0x1A0B JUMP JUMPDEST SWAP9 PUSH3 0x1A0B JUMP JUMPDEST AND DUP14 MSTORE MSTORE DUP10 DUP12 KECCAK256 SWAP2 AND PUSH12 0xFFFFFFFFFFFFFFFFFFFFFFFF PUSH1 0xA0 SHL DUP3 SLOAD AND OR SWAP1 SSTORE ADD PUSH3 0xF16 JUMP JUMPDEST PUSH1 0x24 DUP11 DUP8 DUP6 PUSH3 0x6F5 PUSH3 0x5FB DUP10 DUP16 DUP16 PUSH3 0x1A0B JUMP JUMPDEST PUSH1 0x24 DUP10 DUP7 DUP5 PUSH3 0x6F5 PUSH3 0x5FB DUP9 DUP15 DUP15 PUSH3 0x1A0B JUMP JUMPDEST POP DUP5 MLOAD PUSH4 0x3CB96DB PUSH1 0xE2 SHL DUP2 MSTORE REVERT JUMPDEST POP SWAP2 CALLVALUE PUSH3 0x4B4 JUMPI DUP1 PUSH1 0x3 NOT CALLDATASIZE ADD SLT PUSH3 0x4B4 JUMPI DUP2 CALLDATALOAD SWAP1 PUSH1 0x1 PUSH1 0x1 PUSH1 0x40 SHL SUB DUP1 DUP4 GT PUSH3 0x175 JUMPI CALLDATASIZE PUSH1 0x23 DUP5 ADD SLT ISZERO PUSH3 0x175 JUMPI DUP3 DUP5 ADD CALLDATALOAD SWAP2 PUSH1 0x24 SWAP2 PUSH3 0x1055 DUP5 PUSH3 0x19F3 JUMP JUMPDEST SWAP5 PUSH3 0x1064 DUP4 MLOAD SWAP7 DUP8 PUSH3 0x19BD JUMP JUMPDEST DUP5 DUP7 MSTORE PUSH1 0x20 SWAP5 DUP5 DUP7 DUP9 ADD SWAP2 PUSH1 0x5 SHL DUP4 ADD ADD SWAP2 CALLDATASIZE DUP4 GT PUSH3 0x1247 JUMPI DUP6 ADD SWAP1 JUMPDEST DUP3 DUP3 LT PUSH3 0x1226 JUMPI POP POP POP DUP3 CALLDATALOAD SWAP1 DUP2 GT PUSH3 0x1222 JUMPI PUSH3 0x10A6 SWAP1 CALLDATASIZE SWAP1 DUP8 ADD PUSH3 0x1939 JUMP JUMPDEST SWAP6 SWAP1 SWAP3 PUSH1 0x1 SWAP7 DUP8 PUSH1 0x5 SLOAD SUB PUSH3 0x1212 JUMPI DUP9 PUSH1 0x5 SSTORE PUSH3 0x10C5 CALLER PUSH3 0x1B1E JUMP JUMPDEST DUP7 MLOAD SWAP7 DUP2 DUP9 SUB PUSH3 0x1202 JUMPI DUP10 JUMPDEST DUP9 DUP2 LT PUSH3 0x10E2 JUMPI DUP11 DUP11 PUSH1 0x5 SSTORE DUP1 RETURN JUMPDEST PUSH1 0x1 PUSH1 0x1 PUSH1 0xA0 SHL SUB DUP1 PUSH3 0x10F7 DUP4 DUP6 PUSH3 0x1A45 JUMP JUMPDEST MLOAD AND DUP13 MSTORE PUSH1 0x2 DUP10 MSTORE PUSH1 0xFF DUP8 DUP14 KECCAK256 SLOAD AND ISZERO PUSH3 0x11F2 JUMPI DUP1 PUSH3 0x1119 DUP4 DUP6 PUSH3 0x1A45 JUMP JUMPDEST MLOAD AND DUP13 MSTORE PUSH1 0x3 DUP1 DUP11 MSTORE DUP8 DUP14 KECCAK256 SLOAD DUP3 AND ISZERO PUSH3 0x11CE JUMPI DUP2 DUP11 SWAP2 DUP15 SWAP4 PUSH3 0x113F DUP7 DUP9 PUSH3 0x1A45 JUMP JUMPDEST MLOAD AND DUP5 MSTORE DUP3 MSTORE DUP9 DUP4 KECCAK256 SLOAD AND DUP7 PUSH3 0x1158 DUP6 DUP9 DUP14 PUSH3 0x1A0B JUMP JUMPDEST CALLDATALOAD DUP11 MLOAD SWAP5 DUP6 SWAP4 DUP5 SWAP3 PUSH4 0x6299A6EF PUSH1 0xE0 SHL DUP5 MSTORE DUP13 DUP5 ADD MSTORE GAS CALL DUP1 ISZERO PUSH3 0x11C4 JUMPI DUP12 SWAP3 SWAP2 DUP11 SWAP2 PUSH3 0x118B JUMPI JUMPDEST POP POP ADD PUSH3 0x10D2 JUMP JUMPDEST SWAP1 DUP1 SWAP3 SWAP4 POP RETURNDATASIZE DUP4 GT PUSH3 0x11BC JUMPI JUMPDEST PUSH3 0x11A5 DUP2 DUP4 PUSH3 0x19BD JUMP JUMPDEST DUP2 ADD SUB SLT PUSH3 0x11B8 JUMPI DUP10 SWAP1 DUP9 PUSH0 PUSH3 0x1182 JUMP JUMPDEST DUP11 DUP1 REVERT JUMPDEST POP RETURNDATASIZE PUSH3 0x1199 JUMP JUMPDEST DUP8 MLOAD RETURNDATASIZE DUP15 DUP3 RETURNDATACOPY RETURNDATASIZE SWAP1 REVERT JUMPDEST DUP6 DUP8 DUP10 DUP5 PUSH3 0x11DE DUP8 DUP10 PUSH3 0x1A45 JUMP JUMPDEST MLOAD AND SWAP1 MLOAD SWAP2 PUSH4 0x2E86C5BB PUSH1 0xE2 SHL DUP4 MSTORE DUP3 ADD MSTORE REVERT JUMPDEST SWAP3 POP PUSH3 0x11DE SWAP2 SWAP6 SWAP4 SWAP6 PUSH3 0x1A45 JUMP JUMPDEST DUP5 MLOAD PUSH4 0x512509D3 PUSH1 0xE1 SHL DUP2 MSTORE DUP5 SWAP1 REVERT JUMPDEST DUP4 MLOAD PUSH4 0x3CB96DB PUSH1 0xE2 SHL DUP2 MSTORE DUP4 SWAP1 REVERT JUMPDEST DUP7 DUP1 REVERT JUMPDEST DUP2 CALLDATALOAD PUSH1 0x1 PUSH1 0x1 PUSH1 0xA0 SHL SUB DUP2 AND DUP2 SUB PUSH3 0x11B8 JUMPI DUP2 MSTORE SWAP1 DUP7 ADD SWAP1 DUP7 ADD PUSH3 0x1082 JUMP JUMPDEST DUP10 DUP1 REVERT JUMPDEST POP DUP3 CALLVALUE PUSH3 0x334 JUMPI PUSH1 0x20 SWAP3 DUP4 PUSH1 0x3 NOT CALLDATASIZE ADD SLT PUSH3 0x4B4 JUMPI DUP1 CALLDATALOAD PUSH1 0x1 PUSH1 0x1 PUSH1 0x40 SHL SUB DUP2 GT PUSH3 0x71E JUMPI PUSH3 0x1282 SWAP1 CALLDATASIZE SWAP1 DUP4 ADD PUSH3 0x1939 JUMP JUMPDEST DUP5 JUMPDEST DUP2 DUP2 LT PUSH3 0x12CE JUMPI DUP5 MLOAD DUP8 DUP2 MSTORE PUSH1 0x60 MLOAD DUP2 DUP10 ADD DUP2 SWAP1 MSTORE DUP2 SWAP1 DUP2 DUP9 ADD SWAP1 PUSH1 0x80 SWAP1 DUP12 DUP12 JUMPDEST DUP3 DUP2 LT PUSH3 0x12B6 JUMPI POP POP POP POP SUB SWAP1 RETURN JUMPDEST DUP4 MLOAD DUP6 MSTORE DUP7 SWAP6 POP SWAP4 DUP2 ADD SWAP4 SWAP3 DUP2 ADD SWAP3 PUSH1 0x1 ADD PUSH3 0x12A6 JUMP JUMPDEST DUP4 DUP8 PUSH1 0x1 PUSH1 0x1 PUSH1 0xA0 SHL SUB DUP1 PUSH3 0x12EA PUSH3 0x5FB DUP7 DUP9 DUP11 PUSH3 0x1A0B JUMP JUMPDEST AND DUP10 MSTORE PUSH1 0x3 DUP3 MSTORE DUP8 DUP10 KECCAK256 SLOAD AND DUP8 MLOAD SWAP3 DUP4 DUP1 SWAP3 PUSH4 0xEFEDC669 PUSH1 0xE0 SHL DUP3 MSTORE GAS STATICCALL SWAP1 DUP2 ISZERO PUSH3 0x137C JUMPI DUP8 SWAP2 PUSH3 0x1349 JUMPI JUMPDEST POP PUSH1 0x60 MLOAD DUP3 LT ISZERO PUSH3 0x1336 JUMPI PUSH1 0x5 DUP3 SWAP1 SHL PUSH1 0x80 ADD MSTORE PUSH1 0x1 ADD PUSH3 0x1284 JUMP JUMPDEST PUSH4 0x4E487B71 PUSH1 0xE0 SHL DUP8 MSTORE PUSH1 0x32 DUP6 MSTORE PUSH1 0x24 DUP8 REVERT JUMPDEST SWAP1 POP DUP8 DUP2 DUP2 RETURNDATASIZE DUP4 GT PUSH3 0x1374 JUMPI JUMPDEST PUSH3 0x1363 DUP2 DUP4 PUSH3 0x19BD JUMP JUMPDEST DUP2 ADD SUB SLT PUSH3 0x1222 JUMPI MLOAD DUP9 PUSH3 0x1318 JUMP JUMPDEST POP RETURNDATASIZE PUSH3 0x1357 JUMP JUMPDEST DUP7 MLOAD RETURNDATASIZE DUP10 DUP3 RETURNDATACOPY RETURNDATASIZE SWAP1 REVERT JUMPDEST POP DUP3 SWAP1 CALLVALUE PUSH3 0x138 JUMPI PUSH3 0x139A CALLDATASIZE PUSH3 0x196C JUMP JUMPDEST PUSH3 0x13AA SWAP5 SWAP3 SWAP4 SWAP2 SWAP5 CALLER PUSH3 0x1B1E JUMP JUMPDEST DUP1 DUP5 SUB PUSH3 0x141F JUMPI DUP3 JUMPDEST DUP5 DUP2 LT PUSH3 0x13C6 JUMPI PUSH1 0x20 DUP8 MLOAD PUSH1 0x1 DUP2 MSTORE RETURN JUMPDEST PUSH3 0x13D3 DUP2 DUP4 DUP9 PUSH3 0x1A0B JUMP JUMPDEST CALLDATALOAD DUP9 DUP2 LT ISZERO PUSH3 0x140C JUMPI PUSH1 0x1 SWAP2 SWAP1 PUSH1 0x1 PUSH1 0x1 PUSH1 0xA0 SHL SUB PUSH3 0x13FA PUSH3 0x5FB DUP5 DUP11 DUP10 PUSH3 0x1A0B JUMP JUMPDEST AND DUP7 MSTORE DUP10 PUSH1 0x20 MSTORE DUP9 DUP7 KECCAK256 SSTORE ADD PUSH3 0x13B4 JUMP JUMPDEST PUSH4 0x4E487B71 PUSH1 0xE0 SHL DUP6 MSTORE PUSH1 0x21 DUP10 MSTORE PUSH1 0x24 DUP6 REVERT JUMPDEST DUP6 MLOAD PUSH4 0x512509D3 PUSH1 0xE1 SHL DUP2 MSTORE DUP8 SWAP1 REVERT JUMPDEST POP DUP3 SWAP1 CALLVALUE PUSH3 0x138 JUMPI PUSH1 0x20 CALLDATASIZE PUSH1 0x3 NOT ADD SLT PUSH3 0x138 JUMPI PUSH3 0x144F PUSH3 0x180A JUMP JUMPDEST SWAP1 PUSH1 0x1 PUSH1 0x5 SLOAD SUB PUSH3 0xE5B JUMPI DUP1 PUSH1 0x5 SSTORE PUSH3 0x146A CALLER PUSH3 0x1B1E JUMP JUMPDEST PUSH1 0x1 PUSH1 0x1 PUSH1 0xA0 SHL SUB DUP3 DUP2 AND DUP1 DUP4 MSTORE PUSH1 0x1 PUSH1 0x20 MSTORE DUP5 DUP4 KECCAK256 SLOAD SWAP2 SWAP4 SWAP1 SWAP2 PUSH1 0xFF AND ISZERO PUSH3 0x1559 JUMPI PUSH3 0x14AB SWAP2 DUP4 MSTORE PUSH1 0x1 PUSH1 0x20 MSTORE DUP5 DUP4 KECCAK256 PUSH1 0xFF NOT DUP2 SLOAD AND SWAP1 SSTORE PUSH3 0x1AD2 JUMP JUMPDEST DUP2 SLOAD PUSH0 NOT SWAP2 SWAP1 DUP3 DUP2 ADD SWAP1 DUP2 GT PUSH3 0x1546 JUMPI PUSH3 0x14FF SWAP2 DUP6 PUSH3 0x14D1 PUSH3 0x14DB SWAP4 PUSH3 0x18EF JUMP JUMPDEST SWAP4 SWAP1 SLOAD SWAP3 PUSH3 0x18EF JUMP JUMPDEST SWAP3 SWAP1 SWAP4 PUSH1 0x3 SHL SHR AND SWAP1 PUSH1 0x1 DUP1 PUSH1 0xA0 SHL SUB DUP1 DUP5 SLOAD SWAP3 PUSH1 0x3 SHL SWAP4 AND DUP4 SHL SWAP3 SHL NOT AND OR SWAP1 SSTORE JUMP JUMPDEST DUP2 SLOAD DUP1 ISZERO PUSH3 0x1533 JUMPI PUSH3 0x897 SWAP6 POP ADD SWAP2 PUSH3 0x151B DUP4 PUSH3 0x18EF JUMP JUMPDEST SWAP1 SWAP2 DUP3 SLOAD SWAP2 PUSH1 0x3 SHL SHL NOT AND SWAP1 SSTORE SSTORE PUSH3 0xE37 PUSH3 0x1A5A JUMP JUMPDEST PUSH4 0x4E487B71 PUSH1 0xE0 SHL DUP4 MSTORE PUSH1 0x31 DUP7 MSTORE PUSH1 0x24 DUP4 REVERT JUMPDEST PUSH4 0x4E487B71 PUSH1 0xE0 SHL DUP5 MSTORE PUSH1 0x11 DUP8 MSTORE PUSH1 0x24 DUP5 REVERT JUMPDEST DUP5 MLOAD PUSH4 0x8129BBCD PUSH1 0xE0 SHL DUP2 MSTORE DUP7 SWAP1 REVERT JUMPDEST POP DUP3 SWAP1 CALLVALUE PUSH3 0x138 JUMPI PUSH1 0x80 CALLDATASIZE PUSH1 0x3 NOT ADD SLT PUSH3 0x138 JUMPI PUSH3 0x1589 PUSH3 0x180A JUMP JUMPDEST POP PUSH3 0x1594 PUSH3 0x1821 JUMP JUMPDEST SWAP3 PUSH1 0x64 CALLDATALOAD PUSH1 0x1 PUSH1 0x1 PUSH1 0x40 SHL SUB DUP2 GT PUSH3 0x4B4 JUMPI PUSH3 0x15B6 SWAP1 CALLDATASIZE SWAP1 DUP4 ADD PUSH3 0x17D6 JUMP JUMPDEST POP POP PUSH1 0x1 PUSH1 0x5 SLOAD SUB PUSH3 0x4A6 JUMPI DUP2 PUSH1 0x5 SSTORE PUSH1 0x1 DUP1 PUSH1 0xA0 SHL SUB DUP1 SWAP5 AND SWAP4 DUP5 DUP4 MSTORE PUSH1 0x20 SWAP5 PUSH1 0x3 DUP7 MSTORE DUP2 DUP6 DUP6 KECCAK256 SLOAD AND ISZERO PUSH3 0x490 JUMPI PUSH1 0x24 DUP7 SWAP3 PUSH2 0x3E8 SWAP3 CALLER DUP8 MSTORE DUP6 DUP6 MSTORE PUSH1 0x2 DUP9 DUP9 KECCAK256 SSTORE DUP7 MSTORE PUSH1 0x3 DUP5 MSTORE DUP7 DUP7 KECCAK256 SLOAD AND SWAP4 DUP6 DUP8 MLOAD SWAP6 DUP7 SWAP5 DUP6 SWAP4 PUSH4 0x6299A6EF PUSH1 0xE0 SHL DUP6 MSTORE DUP5 ADD MSTORE GAS CALL DUP1 ISZERO PUSH3 0x1672 JUMPI SWAP1 DUP5 SWAP2 PUSH3 0x1643 JUMPI JUMPDEST POP PUSH1 0x1 PUSH1 0x5 SSTORE DUP3 MLOAD PUSH4 0xA85BD01 PUSH1 0xE1 SHL DUP2 MSTORE RETURN JUMPDEST DUP2 RETURNDATASIZE DUP4 GT PUSH3 0x166A JUMPI JUMPDEST PUSH3 0x1659 DUP2 DUP4 PUSH3 0x19BD JUMP JUMPDEST DUP2 ADD SUB SLT PUSH3 0x138 JUMPI DUP3 DUP2 PUSH3 0x162F JUMP JUMPDEST POP RETURNDATASIZE PUSH3 0x164D JUMP JUMPDEST DUP4 MLOAD RETURNDATASIZE DUP5 DUP3 RETURNDATACOPY RETURNDATASIZE SWAP1 REVERT JUMPDEST POP SWAP2 SWAP1 CALLVALUE PUSH3 0x4B4 JUMPI PUSH1 0x20 CALLDATASIZE PUSH1 0x3 NOT ADD SLT PUSH3 0x4B4 JUMPI CALLDATALOAD SWAP2 DUP1 SLOAD DUP4 LT ISZERO PUSH3 0x138 JUMPI POP PUSH3 0x16AC PUSH1 0x20 SWAP3 PUSH3 0x18EF JUMP JUMPDEST SWAP1 SLOAD SWAP2 MLOAD SWAP2 PUSH1 0x1 DUP1 PUSH1 0xA0 SHL SUB SWAP2 PUSH1 0x3 SHL SHR AND DUP2 MSTORE RETURN JUMPDEST POP DUP3 CALLVALUE PUSH3 0x334 JUMPI PUSH1 0x20 CALLDATASIZE PUSH1 0x3 NOT ADD SLT PUSH3 0x334 JUMPI MLOAD SWAP1 DUP2 MSTORE PUSH1 0x20 SWAP1 RETURN JUMPDEST POP DUP3 CALLVALUE PUSH3 0x334 JUMPI PUSH1 0x20 CALLDATASIZE PUSH1 0x3 NOT ADD SLT PUSH3 0x334 JUMPI DUP3 CALLDATALOAD PUSH1 0x1 PUSH1 0x1 PUSH1 0x40 SHL SUB DUP2 GT PUSH3 0x4B4 JUMPI PUSH3 0x1715 SWAP1 CALLDATASIZE SWAP1 DUP6 ADD PUSH3 0x17D6 JUMP JUMPDEST SWAP1 SWAP4 CALLER DUP5 MSTORE PUSH1 0x2 PUSH1 0x20 MSTORE PUSH1 0xFF DUP4 DUP6 KECCAK256 SLOAD AND PUSH3 0x1785 JUMPI POP PUSH3 0x1748 PUSH3 0x1741 PUSH1 0x20 SWAP6 DUP5 SWAP4 CALLDATASIZE SWAP2 PUSH3 0x1B6E JUMP JUMPDEST CALLER PUSH3 0x1BA9 JUMP JUMPDEST CALLER DUP5 MSTORE PUSH1 0x2 DUP6 MSTORE DUP2 DUP5 KECCAK256 DUP1 SLOAD PUSH1 0xFF NOT AND PUSH1 0x1 OR SWAP1 SSTORE PUSH1 0x3 DUP6 MSTORE SWAP3 KECCAK256 DUP1 SLOAD PUSH1 0x1 PUSH1 0x1 PUSH1 0xA0 SHL SUB NOT AND PUSH1 0x1 PUSH1 0x1 PUSH1 0xA0 SHL SUB SWAP1 SWAP4 AND SWAP3 DUP4 OR SWAP1 SSTORE MLOAD SWAP1 DUP2 MSTORE RETURN JUMPDEST PUSH1 0x24 SWAP1 DUP4 MLOAD SWAP1 PUSH4 0x2E86C5BB PUSH1 0xE2 SHL DUP3 MSTORE CALLER SWAP1 DUP3 ADD MSTORE REVERT JUMPDEST SWAP1 POP DUP3 CALLVALUE PUSH3 0x4B4 JUMPI PUSH1 0x20 CALLDATASIZE PUSH1 0x3 NOT ADD SLT PUSH3 0x4B4 JUMPI CALLDATALOAD PUSH4 0xFFFFFFFF PUSH1 0xE0 SHL DUP2 AND DUP1 SWAP2 SUB PUSH3 0x4B4 JUMPI PUSH4 0x1FFC9A7 PUSH1 0xE0 SHL EQ DUP2 MSTORE PUSH1 0x20 SWAP2 POP RETURN JUMPDEST SWAP2 DUP2 PUSH1 0x1F DUP5 ADD SLT ISZERO PUSH3 0x1806 JUMPI DUP3 CALLDATALOAD SWAP2 PUSH1 0x1 PUSH1 0x1 PUSH1 0x40 SHL SUB DUP4 GT PUSH3 0x1806 JUMPI PUSH1 0x20 DUP4 DUP2 DUP7 ADD SWAP6 ADD ADD GT PUSH3 0x1806 JUMPI JUMP JUMPDEST PUSH0 DUP1 REVERT JUMPDEST PUSH1 0x4 CALLDATALOAD SWAP1 PUSH1 0x1 PUSH1 0x1 PUSH1 0xA0 SHL SUB DUP3 AND DUP3 SUB PUSH3 0x1806 JUMPI JUMP JUMPDEST PUSH1 0x24 CALLDATALOAD SWAP1 PUSH1 0x1 PUSH1 0x1 PUSH1 0xA0 SHL SUB DUP3 AND DUP3 SUB PUSH3 0x1806 JUMPI JUMP JUMPDEST PUSH1 0x20 PUSH1 0x40 DUP2 DUP4 ADD SWAP3 DUP3 DUP2 MSTORE PUSH1 0x60 MLOAD DUP1 SWAP5 MSTORE ADD SWAP2 PUSH1 0x80 SWAP2 PUSH0 JUMPDEST DUP3 DUP2 LT PUSH3 0x185F JUMPI POP POP POP POP SWAP1 JUMP JUMPDEST DUP4 MLOAD PUSH1 0x1 PUSH1 0x1 PUSH1 0xA0 SHL SUB AND DUP6 MSTORE SWAP4 DUP2 ADD SWAP4 SWAP3 DUP2 ADD SWAP3 PUSH1 0x1 ADD PUSH3 0x1850 JUMP JUMPDEST PUSH1 0x20 SWAP1 DUP2 PUSH1 0x40 DUP2 DUP4 ADD SWAP3 DUP3 DUP2 MSTORE DUP6 MLOAD DUP1 SWAP5 MSTORE ADD SWAP4 ADD SWAP2 PUSH0 JUMPDEST DUP3 DUP2 LT PUSH3 0x18A4 JUMPI POP POP POP POP SWAP1 JUMP JUMPDEST DUP4 MLOAD PUSH1 0x1 PUSH1 0x1 PUSH1 0xA0 SHL SUB AND DUP6 MSTORE SWAP4 DUP2 ADD SWAP4 SWAP3 DUP2 ADD SWAP3 PUSH1 0x1 ADD PUSH3 0x1895 JUMP JUMPDEST CALLVALUE PUSH3 0x1806 JUMPI PUSH1 0x20 CALLDATASIZE PUSH1 0x3 NOT ADD SLT PUSH3 0x1806 JUMPI PUSH3 0x18DF PUSH3 0x180A JUMP JUMPDEST POP PUSH1 0x40 MLOAD DUP1 PUSH3 0x897 DUP2 PUSH3 0x1838 JUMP JUMPDEST SWAP1 PUSH0 SWAP2 DUP3 SLOAD DUP2 LT ISZERO PUSH3 0x1925 JUMPI DUP3 DUP1 MSTORE PUSH32 0x290DECD9548B62A8D60345A988386FC84BA6BC95484008F6362F93160EF3E563 ADD SWAP2 SWAP1 JUMP JUMPDEST PUSH4 0x4E487B71 PUSH1 0xE0 SHL DUP4 MSTORE PUSH1 0x32 PUSH1 0x4 MSTORE PUSH1 0x24 DUP4 REVERT JUMPDEST SWAP2 DUP2 PUSH1 0x1F DUP5 ADD SLT ISZERO PUSH3 0x1806 JUMPI DUP3 CALLDATALOAD SWAP2 PUSH1 0x1 PUSH1 0x1 PUSH1 0x40 SHL SUB DUP4 GT PUSH3 0x1806 JUMPI PUSH1 0x20 DUP1 DUP6 ADD SWAP5 DUP5 PUSH1 0x5 SHL ADD ADD GT PUSH3 0x1806 JUMPI JUMP JUMPDEST PUSH1 0x40 PUSH1 0x3 NOT DUP3 ADD SLT PUSH3 0x1806 JUMPI PUSH1 0x1 PUSH1 0x1 PUSH1 0x40 SHL SUB SWAP2 PUSH1 0x4 CALLDATALOAD DUP4 DUP2 GT PUSH3 0x1806 JUMPI DUP3 PUSH3 0x199C SWAP2 PUSH1 0x4 ADD PUSH3 0x1939 JUMP JUMPDEST SWAP4 SWAP1 SWAP4 SWAP3 PUSH1 0x24 CALLDATALOAD SWAP2 DUP3 GT PUSH3 0x1806 JUMPI PUSH3 0x19B9 SWAP2 PUSH1 0x4 ADD PUSH3 0x1939 JUMP JUMPDEST SWAP1 SWAP2 JUMP JUMPDEST SWAP1 PUSH1 0x1F DUP1 NOT SWAP2 ADD AND DUP2 ADD SWAP1 DUP2 LT PUSH1 0x1 PUSH1 0x1 PUSH1 0x40 SHL SUB DUP3 GT OR PUSH3 0x19DF JUMPI PUSH1 0x40 MSTORE JUMP JUMPDEST PUSH4 0x4E487B71 PUSH1 0xE0 SHL PUSH0 MSTORE PUSH1 0x41 PUSH1 0x4 MSTORE PUSH1 0x24 PUSH0 REVERT JUMPDEST PUSH1 0x1 PUSH1 0x1 PUSH1 0x40 SHL SUB DUP2 GT PUSH3 0x19DF JUMPI PUSH1 0x5 SHL PUSH1 0x20 ADD SWAP1 JUMP JUMPDEST SWAP2 SWAP1 DUP2 LT ISZERO PUSH3 0x1A1C JUMPI PUSH1 0x5 SHL ADD SWAP1 JUMP JUMPDEST PUSH4 0x4E487B71 PUSH1 0xE0 SHL PUSH0 MSTORE PUSH1 0x32 PUSH1 0x4 MSTORE PUSH1 0x24 PUSH0 REVERT JUMPDEST CALLDATALOAD PUSH1 0x1 PUSH1 0x1 PUSH1 0xA0 SHL SUB DUP2 AND DUP2 SUB PUSH3 0x1806 JUMPI SWAP1 JUMP JUMPDEST DUP1 MLOAD DUP3 LT ISZERO PUSH3 0x1A1C JUMPI PUSH1 0x20 SWAP2 PUSH1 0x5 SHL ADD ADD SWAP1 JUMP JUMPDEST PUSH1 0x40 MLOAD SWAP1 PUSH0 SLOAD DUP1 DUP4 MSTORE DUP3 PUSH1 0x20 SWAP2 DUP3 DUP3 ADD SWAP1 PUSH0 DUP1 MSTORE PUSH32 0x290DECD9548B62A8D60345A988386FC84BA6BC95484008F6362F93160EF3E563 SWAP4 PUSH0 SWAP1 JUMPDEST DUP3 DUP3 LT PUSH3 0x1AAE JUMPI POP POP POP PUSH3 0x1AAC SWAP3 POP SUB DUP4 PUSH3 0x19BD JUMP JUMPDEST JUMP JUMPDEST DUP6 SLOAD PUSH1 0x1 PUSH1 0x1 PUSH1 0xA0 SHL SUB AND DUP5 MSTORE PUSH1 0x1 SWAP6 DUP7 ADD SWAP6 DUP9 SWAP6 POP SWAP4 DUP2 ADD SWAP4 SWAP1 SWAP2 ADD SWAP1 PUSH3 0x1A93 JUMP JUMPDEST SWAP1 PUSH0 SWAP2 PUSH0 SLOAD SWAP1 PUSH0 JUMPDEST DUP3 DUP2 LT PUSH3 0x1AE7 JUMPI POP POP POP JUMP JUMPDEST PUSH3 0x1AF2 DUP2 PUSH3 0x18EF JUMP JUMPDEST SWAP1 SLOAD PUSH1 0x3 SWAP2 SWAP1 SWAP2 SHL SHR PUSH1 0x1 PUSH1 0x1 PUSH1 0xA0 SHL SUB SWAP1 DUP2 AND SWAP1 DUP4 AND EQ PUSH3 0x1B18 JUMPI PUSH1 0x1 ADD PUSH3 0x1ADA JUMP JUMPDEST SWAP4 POP POP POP JUMP JUMPDEST PUSH1 0x1 PUSH1 0x1 PUSH1 0xA0 SHL SUB AND PUSH0 SWAP1 DUP2 MSTORE PUSH1 0x1 PUSH1 0x20 MSTORE PUSH1 0x40 SWAP1 KECCAK256 SLOAD PUSH1 0xFF AND ISZERO PUSH3 0x1B40 JUMPI JUMP JUMPDEST PUSH1 0x40 MLOAD PUSH4 0x31696E97 PUSH1 0xE2 SHL DUP2 MSTORE PUSH1 0x4 SWAP1 REVERT JUMPDEST PUSH1 0x1 PUSH1 0x1 PUSH1 0x40 SHL SUB DUP2 GT PUSH3 0x19DF JUMPI PUSH1 0x1F ADD PUSH1 0x1F NOT AND PUSH1 0x20 ADD SWAP1 JUMP JUMPDEST SWAP3 SWAP2 SWAP3 PUSH3 0x1B7C DUP3 PUSH3 0x1B52 JUMP JUMPDEST SWAP2 PUSH3 0x1B8C PUSH1 0x40 MLOAD SWAP4 DUP5 PUSH3 0x19BD JUMP JUMPDEST DUP3 SWAP5 DUP2 DUP5 MSTORE DUP2 DUP4 ADD GT PUSH3 0x1806 JUMPI DUP3 DUP2 PUSH1 0x20 SWAP4 DUP5 PUSH0 SWAP7 ADD CALLDATACOPY ADD ADD MSTORE JUMP JUMPDEST SWAP1 PUSH1 0x40 SWAP1 DUP2 MLOAD PUSH1 0x20 SWAP2 DUP3 DUP3 ADD PUSH1 0x1 DUP1 PUSH1 0xA0 SHL SUB DUP1 SWAP7 AND SWAP3 DUP4 DUP3 MSTORE DUP5 DUP2 MSTORE DUP6 DUP2 ADD SWAP2 PUSH1 0x1 PUSH1 0x1 PUSH1 0x40 SHL SUB SWAP1 DUP3 DUP5 LT DUP3 DUP6 GT OR PUSH3 0x19DF JUMPI DUP4 DUP9 MSTORE DUP3 MLOAD SWAP1 KECCAK256 SWAP4 PUSH2 0xBB9 DUP1 DUP5 ADD SWAP3 DUP4 DUP11 ADD SWAP1 DUP2 GT DUP7 DUP3 LT OR PUSH3 0x19DF JUMPI DUP9 SWAP1 DUP11 SWAP6 SWAP5 SWAP4 SWAP3 PUSH3 0x1D58 DUP9 CODECOPY MSTORE DUP1 MLOAD SWAP1 DUP2 PUSH1 0x60 DUP5 ADD MSTORE DUP9 PUSH0 JUMPDEST DUP4 DUP2 LT PUSH3 0x1C89 JUMPI POP POP POP PUSH0 PUSH1 0x80 DUP3 DUP5 ADD ADD MSTORE PUSH1 0x1F DUP1 NOT SWAP2 ADD AND ADD SUB ADD SWAP1 PUSH0 CREATE2 SWAP1 DUP2 ISZERO PUSH3 0x1C7F JUMPI SWAP1 PUSH1 0x3 SWAP3 SWAP2 PUSH0 MSTORE DUP3 DUP3 MSTORE DUP5 DUP5 PUSH0 KECCAK256 SWAP2 AND PUSH12 0xFFFFFFFFFFFFFFFFFFFFFFFF PUSH1 0xA0 SHL DUP3 SLOAD AND OR SWAP1 SSTORE PUSH1 0x2 DUP2 MSTORE DUP3 PUSH0 KECCAK256 PUSH1 0x1 PUSH1 0xFF NOT DUP3 SLOAD AND OR SWAP1 SSTORE MSTORE PUSH0 KECCAK256 SLOAD AND SWAP1 JUMP JUMPDEST DUP4 MLOAD RETURNDATASIZE PUSH0 DUP3 RETURNDATACOPY RETURNDATASIZE SWAP1 REVERT JUMPDEST DUP3 DUP2 ADD DUP3 ADD MLOAD DUP6 DUP3 ADD PUSH1 0x80 ADD MSTORE DUP12 SWAP7 POP DUP11 SWAP2 ADD PUSH3 0x1C17 JUMP JUMPDEST RETURNDATASIZE ISZERO PUSH3 0x1CD1 JUMPI RETURNDATASIZE SWAP1 PUSH3 0x1CB6 DUP3 PUSH3 0x1B52 JUMP JUMPDEST SWAP2 PUSH3 0x1CC6 PUSH1 0x40 MLOAD SWAP4 DUP5 PUSH3 0x19BD JUMP JUMPDEST DUP3 MSTORE RETURNDATASIZE PUSH0 PUSH1 0x20 DUP5 ADD RETURNDATACOPY JUMP JUMPDEST PUSH1 0x60 SWAP1 JUMP JUMPDEST SWAP1 DUP2 PUSH1 0x20 SWAP2 SUB SLT PUSH3 0x1806 JUMPI MLOAD DUP1 ISZERO ISZERO DUP2 SUB PUSH3 0x1806 JUMPI SWAP1 JUMP JUMPDEST ISZERO PUSH3 0x1CF8 JUMPI JUMP JUMPDEST PUSH1 0x40 MLOAD PUSH3 0x461BCD PUSH1 0xE5 SHL DUP2 MSTORE PUSH1 0x20 PUSH1 0x4 DUP3 ADD MSTORE PUSH1 0x31 PUSH1 0x24 DUP3 ADD MSTORE PUSH32 0x5472616E7366657248656C7065723A3A7472616E7366657246726F6D3A207472 PUSH1 0x44 DUP3 ADD MSTORE PUSH17 0x185B9CD9995C919C9BDB4819985A5B1959 PUSH1 0x7A SHL PUSH1 0x64 DUP3 ADD MSTORE PUSH1 0x84 SWAP1 REVERT INVALID PUSH1 0x80 PUSH1 0x40 MSTORE CALLVALUE PUSH3 0x214 JUMPI PUSH3 0xBB9 DUP1 CODESIZE SUB DUP1 PUSH3 0x1D DUP2 PUSH3 0x218 JUMP JUMPDEST SWAP3 DUP4 CODECOPY DUP2 ADD SWAP1 PUSH1 0x20 SWAP1 DUP2 DUP2 DUP5 SUB SLT PUSH3 0x214 JUMPI DUP1 MLOAD PUSH1 0x1 PUSH1 0x1 PUSH1 0x40 SHL SUB SWAP2 DUP3 DUP3 GT PUSH3 0x214 JUMPI ADD SWAP2 PUSH1 0x1F SWAP1 DUP5 DUP3 DUP6 ADD SLT ISZERO PUSH3 0x214 JUMPI DUP4 MLOAD DUP4 DUP2 GT PUSH3 0x1EB JUMPI PUSH1 0x1F NOT SWAP5 PUSH3 0x72 DUP3 DUP6 ADD DUP8 AND DUP5 ADD PUSH3 0x218 JUMP JUMPDEST SWAP7 DUP3 DUP9 MSTORE DUP4 DUP4 DUP4 ADD ADD GT PUSH3 0x214 JUMPI DUP3 SWAP1 PUSH0 JUMPDEST DUP4 DUP2 LT PUSH3 0x1FF JUMPI POP POP PUSH0 SWAP2 DUP8 ADD ADD MSTORE PUSH1 0x1 SWAP4 DUP5 PUSH1 0x7 SSTORE DUP6 MLOAD SWAP4 DUP5 GT PUSH3 0x1EB JUMPI DUP5 SLOAD DUP6 DUP2 DUP2 SHR SWAP2 AND DUP1 ISZERO PUSH3 0x1E0 JUMPI JUMPDEST DUP4 DUP3 LT EQ PUSH3 0x1CC JUMPI DUP4 DUP2 GT PUSH3 0x184 JUMPI JUMPDEST POP DUP2 SWAP3 DUP5 GT PUSH1 0x1 EQ PUSH3 0x122 JUMPI POP POP DUP2 SWAP3 SWAP4 PUSH0 SWAP3 PUSH3 0x116 JUMPI JUMPDEST POP POP PUSH0 NOT PUSH1 0x3 DUP4 SWAP1 SHL SHR NOT AND SWAP1 DUP3 SHL OR SWAP1 SSTORE JUMPDEST PUSH0 DUP1 SLOAD PUSH1 0x1 PUSH1 0x1 PUSH1 0xA0 SHL SUB NOT AND CALLER OR SWAP1 SSTORE PUSH1 0x40 MLOAD PUSH2 0x97A SWAP1 DUP2 PUSH3 0x23F DUP3 CODECOPY RETURN JUMPDEST ADD MLOAD SWAP1 POP PUSH0 DUP1 PUSH3 0xE2 JUMP JUMPDEST PUSH0 DUP6 DUP2 MSTORE DUP3 DUP2 KECCAK256 SWAP2 DUP6 AND SWAP7 SWAP2 SWAP4 SWAP3 JUMPDEST DUP8 DUP3 LT PUSH3 0x16C JUMPI POP POP DUP4 DUP6 SWAP7 LT PUSH3 0x153 JUMPI JUMPDEST POP POP POP DUP2 SHL ADD SWAP1 SSTORE PUSH3 0xF5 JUMP JUMPDEST ADD MLOAD PUSH0 NOT PUSH1 0xF8 DUP5 PUSH1 0x3 SHL AND SHR NOT AND SWAP1 SSTORE PUSH0 DUP1 DUP1 PUSH3 0x145 JUMP JUMPDEST DUP1 DUP8 DUP6 SWAP7 DUP3 SWAP5 SWAP7 DUP7 ADD MLOAD DUP2 SSTORE ADD SWAP6 ADD SWAP4 ADD SWAP1 PUSH3 0x131 JUMP JUMPDEST DUP6 PUSH0 MSTORE DUP3 PUSH0 KECCAK256 DUP5 DUP1 DUP8 ADD PUSH1 0x5 SHR DUP3 ADD SWAP3 DUP6 DUP9 LT PUSH3 0x1C2 JUMPI JUMPDEST ADD PUSH1 0x5 SHR ADD SWAP1 DUP7 SWAP1 JUMPDEST DUP3 DUP2 LT PUSH3 0x1B6 JUMPI POP POP PUSH3 0xC8 JUMP JUMPDEST PUSH0 DUP2 SSTORE ADD DUP7 SWAP1 PUSH3 0x1A6 JUMP JUMPDEST SWAP3 POP DUP2 SWAP3 PUSH3 0x19D JUMP JUMPDEST PUSH4 0x4E487B71 PUSH1 0xE0 SHL PUSH0 MSTORE PUSH1 0x22 PUSH1 0x4 MSTORE PUSH1 0x24 PUSH0 REVERT JUMPDEST SWAP1 PUSH1 0x7F AND SWAP1 PUSH3 0xB6 JUMP JUMPDEST PUSH4 0x4E487B71 PUSH1 0xE0 SHL PUSH0 MSTORE PUSH1 0x41 PUSH1 0x4 MSTORE PUSH1 0x24 PUSH0 REVERT JUMPDEST DUP2 DUP2 ADD DUP4 ADD MLOAD DUP10 DUP3 ADD DUP5 ADD MSTORE DUP5 SWAP3 ADD PUSH3 0x85 JUMP JUMPDEST PUSH0 DUP1 REVERT JUMPDEST PUSH1 0x40 MLOAD SWAP2 SWAP1 PUSH1 0x1F ADD PUSH1 0x1F NOT AND DUP3 ADD PUSH1 0x1 PUSH1 0x1 PUSH1 0x40 SHL SUB DUP2 GT DUP4 DUP3 LT OR PUSH3 0x1EB JUMPI PUSH1 0x40 MSTORE JUMP INVALID PUSH1 0x80 PUSH1 0x40 SWAP1 DUP1 DUP3 MSTORE PUSH1 0x4 SWAP2 DUP3 CALLDATASIZE LT ISZERO PUSH2 0x16 JUMPI PUSH0 DUP1 REVERT JUMPDEST PUSH0 SWAP3 DUP4 CALLDATALOAD PUSH1 0xE0 SHR SWAP3 DUP4 PUSH4 0x6FDDE03 EQ PUSH2 0x683 JUMPI POP DUP3 PUSH4 0xAB9BB62 EQ PUSH2 0x667 JUMPI DUP3 PUSH4 0x10C030A3 EQ PUSH2 0x173 JUMPI DUP3 PUSH4 0x172CFA4C EQ PUSH2 0x653 JUMPI DUP3 PUSH4 0x3F4BA83A EQ PUSH2 0x62C JUMPI DUP3 PUSH4 0x40AFFA94 EQ PUSH2 0x545 JUMPI DUP3 PUSH4 0x54AEA127 EQ PUSH2 0x526 JUMPI DUP3 PUSH4 0x5709D115 EQ PUSH2 0x173 JUMPI DUP3 PUSH4 0x5D1A7355 EQ PUSH2 0x4FF JUMPI DUP3 PUSH4 0x6299A6EF EQ PUSH2 0x458 JUMPI DUP3 PUSH4 0x63A846F8 EQ PUSH2 0x3BF JUMPI DUP3 PUSH4 0x712B772F EQ PUSH2 0x389 JUMPI DUP3 PUSH4 0x8456CB59 EQ PUSH2 0x35F JUMPI DUP3 PUSH4 0x9D3C1C7B EQ PUSH2 0x329 JUMPI DUP3 PUSH4 0xA06D083C EQ PUSH2 0x30A JUMPI DUP3 PUSH4 0xB66C484E EQ PUSH2 0x2DF JUMPI DUP3 PUSH4 0xC2BB8120 EQ PUSH2 0x244 JUMPI DUP3 PUSH4 0xC550A1CA EQ PUSH2 0x220 JUMPI DUP3 PUSH4 0xCFDAD40A EQ PUSH2 0x1FD JUMPI DUP3 PUSH4 0xDD71A430 EQ PUSH2 0x178 JUMPI POP DUP2 PUSH4 0xDE68A001 EQ PUSH2 0x173 JUMPI DUP2 PUSH4 0xEFEDC669 EQ PUSH2 0x150 JUMPI POP PUSH4 0xFFC08B6D EQ PUSH2 0x121 JUMPI PUSH0 DUP1 REVERT JUMPDEST CALLVALUE PUSH2 0x14D JUMPI PUSH2 0x100 CALLDATASIZE PUSH1 0x3 NOT ADD SLT PUSH2 0x14D JUMPI PUSH1 0x64 CALLDATALOAD DUP1 ISZERO ISZERO SUB PUSH2 0x14D JUMPI PUSH1 0xA4 CALLDATALOAD PUSH1 0xFF DUP2 AND SUB PUSH2 0x14D JUMPI DUP1 RETURN JUMPDEST DUP1 REVERT JUMPDEST SWAP1 POP CALLVALUE PUSH2 0x16F JUMPI DUP2 PUSH1 0x3 NOT CALLDATASIZE ADD SLT PUSH2 0x16F JUMPI PUSH1 0x20 SWAP1 PUSH1 0x3 SLOAD SWAP1 MLOAD SWAP1 DUP2 MSTORE RETURN JUMPDEST POP DUP1 REVERT JUMPDEST PUSH2 0x856 JUMP JUMPDEST DUP4 DUP3 CALLVALUE PUSH2 0x16F JUMPI PUSH1 0x80 CALLDATASIZE PUSH1 0x3 NOT ADD SLT PUSH2 0x16F JUMPI DUP3 CALLDATALOAD PUSH1 0xFF DUP2 AND SUB PUSH2 0x16F JUMPI PUSH1 0x64 CALLDATALOAD SWAP1 PUSH8 0xFFFFFFFFFFFFFFFF SWAP1 DUP2 DUP4 GT PUSH2 0x1F9 JUMPI CALLDATASIZE PUSH1 0x23 DUP5 ADD SLT ISZERO PUSH2 0x1F9 JUMPI DUP3 DUP6 ADD CALLDATALOAD SWAP2 DUP3 GT PUSH2 0x1E6 JUMPI SWAP1 PUSH2 0x1DA PUSH1 0x24 SWAP3 PUSH1 0x20 PUSH1 0x1F NOT PUSH1 0x1F DUP6 ADD AND ADD SWAP1 MLOAD PUSH2 0x7C3 JUMP JUMPDEST CALLDATASIZE SWAP3 ADD ADD GT PUSH2 0x14D JUMPI DUP1 RETURN JUMPDEST PUSH4 0x4E487B71 PUSH1 0xE0 SHL DUP5 MSTORE PUSH1 0x41 DUP6 MSTORE PUSH1 0x24 DUP5 REVERT JUMPDEST DUP4 DUP1 REVERT JUMPDEST SWAP1 SWAP2 POP CALLVALUE PUSH2 0x21C JUMPI DUP3 PUSH1 0x3 NOT CALLDATASIZE ADD SLT PUSH2 0x21C JUMPI PUSH1 0x20 SWAP3 POP SLOAD SWAP1 MLOAD SWAP1 DUP2 MSTORE RETURN JUMPDEST DUP3 DUP1 REVERT JUMPDEST DUP4 DUP3 CALLVALUE PUSH2 0x16F JUMPI DUP2 PUSH1 0x3 NOT CALLDATASIZE ADD SLT PUSH2 0x16F JUMPI PUSH1 0x20 SWAP1 PUSH1 0xFF PUSH1 0x6 SLOAD AND SWAP1 MLOAD SWAP1 ISZERO ISZERO DUP2 MSTORE RETURN JUMPDEST DUP4 DUP3 CALLVALUE PUSH2 0x16F JUMPI PUSH1 0x20 SWAP3 DUP4 PUSH1 0x3 NOT CALLDATASIZE ADD SLT PUSH2 0x21C JUMPI DUP4 PUSH2 0x262 PUSH2 0x7F9 JUMP JUMPDEST DUP5 SLOAD DUP5 MLOAD PUSH4 0x615DC09 PUSH1 0xE5 SHL DUP2 MSTORE PUSH1 0x1 PUSH1 0x1 PUSH1 0xA0 SHL SUB SWAP3 DUP4 AND SWAP5 DUP2 ADD SWAP5 SWAP1 SWAP5 MSTORE DUP4 SWAP2 PUSH1 0x24 SWAP2 DUP4 SWAP2 AND GAS STATICCALL SWAP3 DUP4 ISZERO PUSH2 0x2D4 JUMPI DUP1 SWAP4 PUSH2 0x2A2 JUMPI JUMPDEST POP POP MLOAD SWAP1 DUP2 MSTORE RETURN JUMPDEST SWAP1 SWAP2 SWAP3 POP DUP4 DUP3 DUP2 RETURNDATASIZE DUP4 GT PUSH2 0x2CD JUMPI JUMPDEST PUSH2 0x2BB DUP2 DUP4 PUSH2 0x7C3 JUMP JUMPDEST DUP2 ADD SUB SLT PUSH2 0x14D JUMPI POP MLOAD SWAP1 DUP4 DUP1 PUSH2 0x29A JUMP JUMPDEST POP RETURNDATASIZE PUSH2 0x2B1 JUMP JUMPDEST DUP3 MLOAD SWAP1 RETURNDATASIZE SWAP1 DUP3 RETURNDATACOPY RETURNDATASIZE SWAP1 REVERT JUMPDEST POP DUP3 CALLVALUE PUSH2 0x14D JUMPI DUP2 PUSH1 0x3 NOT CALLDATASIZE ADD SLT PUSH2 0x14D JUMPI POP PUSH2 0x2FA PUSH2 0x7F9 JUMP JUMPDEST POP MLOAD DUP1 PUSH2 0x306 DUP2 PUSH2 0x813 JUMP JUMPDEST SUB SWAP1 RETURN JUMPDEST DUP4 DUP3 CALLVALUE PUSH2 0x16F JUMPI DUP2 PUSH1 0x3 NOT CALLDATASIZE ADD SLT PUSH2 0x16F JUMPI PUSH1 0x20 SWAP1 PUSH1 0x2 SLOAD SWAP1 MLOAD SWAP1 DUP2 MSTORE RETURN JUMPDEST DUP4 SWAP1 CALLVALUE PUSH2 0x16F JUMPI PUSH1 0x20 CALLDATASIZE PUSH1 0x3 NOT ADD SLT PUSH2 0x16F JUMPI CALLDATALOAD SWAP2 DUP3 ISZERO ISZERO DUP1 SWAP4 SUB PUSH2 0x16F JUMPI PUSH1 0x20 SWAP3 PUSH1 0xFF DUP1 NOT PUSH1 0x6 SLOAD AND SWAP2 AND OR PUSH1 0x6 SSTORE MLOAD SWAP1 DUP2 MSTORE RETURN JUMPDEST DUP4 CALLVALUE PUSH2 0x14D JUMPI DUP1 PUSH1 0x3 NOT CALLDATASIZE ADD SLT PUSH2 0x14D JUMPI PUSH2 0x379 CALLER PUSH2 0x8C6 JUMP JUMPDEST PUSH1 0x1 PUSH1 0xFF NOT PUSH1 0x8 SLOAD AND OR PUSH1 0x8 SSTORE DUP1 RETURN JUMPDEST DUP4 DUP3 CALLVALUE PUSH2 0x16F JUMPI DUP1 PUSH1 0x3 NOT CALLDATASIZE ADD SLT PUSH2 0x16F JUMPI PUSH2 0x3A3 PUSH2 0x7F9 JUMP JUMPDEST POP PUSH1 0x24 CALLDATALOAD PUSH1 0x1 PUSH1 0x1 PUSH1 0xA0 SHL SUB DUP2 AND SUB PUSH2 0x16F JUMPI MLOAD SWAP1 DUP2 MSTORE PUSH1 0x20 SWAP1 RETURN JUMPDEST SWAP2 POP CALLVALUE PUSH2 0x21C JUMPI PUSH1 0x20 CALLDATASIZE PUSH1 0x3 NOT ADD SLT PUSH2 0x21C JUMPI PUSH1 0x20 PUSH2 0x3DC PUSH2 0x7F9 JUMP JUMPDEST DUP5 SLOAD DUP4 MLOAD PUSH4 0xC7508DF PUSH1 0xE3 SHL DUP2 MSTORE PUSH1 0x1 PUSH1 0x1 PUSH1 0xA0 SHL SUB SWAP3 DUP4 AND SWAP6 DUP2 ADD SWAP6 SWAP1 SWAP6 MSTORE DUP5 SWAP2 PUSH1 0x24 SWAP2 DUP4 SWAP2 AND GAS STATICCALL SWAP2 DUP3 ISZERO PUSH2 0x44E JUMPI PUSH1 0x20 SWAP4 SWAP3 PUSH2 0x41F JUMPI JUMPDEST POP MLOAD SWAP1 ISZERO ISZERO DUP2 MSTORE RETURN JUMPDEST PUSH2 0x440 SWAP2 SWAP3 POP DUP4 RETURNDATASIZE DUP2 GT PUSH2 0x447 JUMPI JUMPDEST PUSH2 0x438 DUP2 DUP4 PUSH2 0x7C3 JUMP JUMPDEST DUP2 ADD SWAP1 PUSH2 0x8AE JUMP JUMPDEST SWAP1 PUSH0 PUSH2 0x416 JUMP JUMPDEST POP RETURNDATASIZE PUSH2 0x42E JUMP JUMPDEST DUP2 MLOAD RETURNDATASIZE DUP6 DUP3 RETURNDATACOPY RETURNDATASIZE SWAP1 REVERT JUMPDEST SWAP1 DUP4 CALLVALUE PUSH2 0x14D JUMPI PUSH1 0x20 CALLDATASIZE PUSH1 0x3 NOT ADD SLT PUSH2 0x14D JUMPI DUP3 CALLDATALOAD SWAP1 DUP1 DUP3 SGT PUSH2 0x4CA JUMPI JUMPDEST DUP1 DUP3 SLT SWAP2 DUP3 PUSH2 0x491 JUMPI JUMPDEST PUSH1 0x20 DUP5 TIMESTAMP PUSH1 0x5 SSTORE PUSH1 0x2 SLOAD SWAP1 MLOAD SWAP1 DUP2 MSTORE RETURN JUMPDEST PUSH1 0x2 SLOAD SWAP1 DUP2 SUB SWAP3 DUP1 ISZERO DUP3 DUP6 SGT AND SWAP2 DUP5 SLT AND OR PUSH2 0x4B7 JUMPI POP PUSH1 0x20 SWAP3 POP PUSH1 0x2 SSTORE DUP3 DUP1 DUP1 PUSH2 0x480 JUMP JUMPDEST PUSH4 0x4E487B71 PUSH1 0xE0 SHL DUP2 MSTORE PUSH1 0x11 DUP5 MSTORE PUSH1 0x24 SWAP1 REVERT JUMPDEST PUSH1 0x2 SLOAD DUP3 DUP2 ADD SWAP1 DUP3 DUP5 DUP4 SLT SWAP2 SLT SWAP1 DUP1 ISZERO DUP3 AND SWAP2 ISZERO AND OR PUSH2 0x4EC JUMPI PUSH1 0x2 SSTORE PUSH2 0x476 JUMP JUMPDEST PUSH4 0x4E487B71 PUSH1 0xE0 SHL DUP3 MSTORE PUSH1 0x11 DUP6 MSTORE PUSH1 0x24 DUP3 REVERT JUMPDEST DUP4 CALLVALUE PUSH2 0x14D JUMPI PUSH1 0x60 CALLDATASIZE PUSH1 0x3 NOT ADD SLT PUSH2 0x14D JUMPI PUSH1 0x44 CALLDATALOAD PUSH1 0x1 PUSH1 0x1 PUSH1 0xA0 SHL SUB DUP2 AND SUB PUSH2 0x14D JUMPI DUP1 RETURN JUMPDEST DUP4 DUP3 CALLVALUE PUSH2 0x16F JUMPI DUP2 PUSH1 0x3 NOT CALLDATASIZE ADD SLT PUSH2 0x16F JUMPI PUSH1 0x20 SWAP1 PUSH1 0x5 SLOAD SWAP1 MLOAD SWAP1 DUP2 MSTORE RETURN JUMPDEST DUP4 SWAP1 CALLVALUE PUSH2 0x16F JUMPI PUSH2 0x100 CALLDATASIZE PUSH1 0x3 NOT ADD SLT PUSH2 0x16F JUMPI PUSH8 0xFFFFFFFFFFFFFFFF SWAP1 DUP1 CALLDATALOAD DUP3 DUP2 GT PUSH2 0x1F9 JUMPI PUSH2 0x579 SWAP1 CALLDATASIZE SWAP1 DUP4 ADD PUSH2 0x87D JUMP JUMPDEST POP POP PUSH1 0x24 CALLDATALOAD DUP3 DUP2 GT PUSH2 0x1F9 JUMPI PUSH2 0x592 SWAP1 CALLDATASIZE SWAP1 DUP4 ADD PUSH2 0x87D JUMP JUMPDEST POP POP PUSH1 0x44 CALLDATALOAD DUP3 DUP2 GT PUSH2 0x1F9 JUMPI PUSH2 0x5AB SWAP1 CALLDATASIZE SWAP1 DUP4 ADD PUSH2 0x87D JUMP JUMPDEST POP POP PUSH1 0x64 CALLDATALOAD DUP3 DUP2 GT PUSH2 0x1F9 JUMPI PUSH2 0x5C4 SWAP1 CALLDATASIZE SWAP1 DUP4 ADD PUSH2 0x87D JUMP JUMPDEST POP POP PUSH1 0x84 CALLDATALOAD DUP3 DUP2 GT PUSH2 0x1F9 JUMPI PUSH2 0x5DD SWAP1 CALLDATASIZE SWAP1 DUP4 ADD PUSH2 0x87D JUMP JUMPDEST POP POP PUSH1 0xA4 CALLDATALOAD DUP3 DUP2 GT PUSH2 0x1F9 JUMPI PUSH2 0x5F6 SWAP1 CALLDATASIZE SWAP1 DUP4 ADD PUSH2 0x87D JUMP JUMPDEST POP POP PUSH1 0xC4 CALLDATALOAD DUP3 DUP2 GT PUSH2 0x1F9 JUMPI PUSH2 0x60F SWAP1 CALLDATASIZE SWAP1 DUP4 ADD PUSH2 0x87D JUMP JUMPDEST POP POP PUSH1 0xE4 CALLDATALOAD SWAP2 DUP3 GT PUSH2 0x21C JUMPI PUSH2 0x627 SWAP2 CALLDATASIZE SWAP2 ADD PUSH2 0x87D JUMP JUMPDEST POP POP DUP1 RETURN JUMPDEST DUP4 CALLVALUE PUSH2 0x14D JUMPI DUP1 PUSH1 0x3 NOT CALLDATASIZE ADD SLT PUSH2 0x14D JUMPI PUSH2 0x646 CALLER PUSH2 0x8C6 JUMP JUMPDEST PUSH1 0xFF NOT PUSH1 0x8 SLOAD AND PUSH1 0x8 SSTORE DUP1 RETURN JUMPDEST DUP4 DUP3 CALLVALUE PUSH2 0x16F JUMPI CALLDATASIZE PUSH1 0x3 NOT ADD SLT PUSH2 0x14D JUMPI DUP1 RETURN JUMPDEST DUP4 DUP3 CALLVALUE PUSH2 0x16F JUMPI PUSH1 0x20 CALLDATASIZE PUSH1 0x3 NOT ADD SLT PUSH2 0x16F JUMPI MLOAD SWAP1 DUP2 MSTORE PUSH1 0x20 SWAP1 RETURN JUMPDEST DUP3 SWAP1 DUP6 CALLVALUE PUSH2 0x14D JUMPI DUP1 PUSH1 0x3 NOT CALLDATASIZE ADD SLT PUSH2 0x14D JUMPI DUP1 PUSH1 0x1 DUP1 SLOAD SWAP1 DUP2 DUP2 SHR SWAP2 DUP2 DUP2 AND DUP1 ISZERO PUSH2 0x7B9 JUMPI JUMPDEST PUSH1 0x20 SWAP9 DUP10 DUP6 LT DUP3 EQ PUSH2 0x7A6 JUMPI POP SWAP2 DUP4 SWAP2 DUP10 SWAP6 SWAP4 DUP9 SWAP6 DUP7 MSTORE SWAP1 DUP2 PUSH0 EQ PUSH2 0x785 JUMPI POP PUSH1 0x1 EQ PUSH2 0x72A JUMPI JUMPDEST POP POP PUSH2 0x6E4 SWAP3 POP SWAP6 SWAP4 SWAP3 SWAP6 SUB DUP3 PUSH2 0x7C3 JUMP JUMPDEST DUP3 MLOAD SWAP4 DUP3 DUP6 SWAP4 DUP5 MSTORE DUP3 MLOAD SWAP3 DUP4 DUP3 DUP7 ADD MSTORE DUP3 JUMPDEST DUP5 DUP2 LT PUSH2 0x714 JUMPI POP POP POP DUP3 DUP3 ADD DUP5 ADD MSTORE PUSH1 0x1F ADD PUSH1 0x1F NOT AND DUP2 ADD SUB ADD SWAP1 RETURN JUMPDEST DUP2 DUP2 ADD DUP4 ADD MLOAD DUP9 DUP3 ADD DUP9 ADD MSTORE DUP8 SWAP6 POP DUP3 ADD PUSH2 0x6F6 JUMP JUMPDEST DUP1 DUP7 MSTORE PUSH32 0xB10E2D527612073B26EECDFD717E6A320CF44B4AFAC2B0732D9FCBE2B7FA0CF6 SWAP5 SWAP3 POP DUP6 SWAP2 SWAP1 JUMPDEST DUP2 DUP4 LT PUSH2 0x76D JUMPI POP DUP9 SWAP5 POP POP DUP3 ADD ADD PUSH2 0x6E4 DUP9 PUSH2 0x6D2 JUMP JUMPDEST DUP6 SLOAD DUP9 DUP5 ADD DUP6 ADD MSTORE SWAP5 DUP6 ADD SWAP5 DUP8 SWAP5 POP SWAP2 DUP4 ADD SWAP2 PUSH2 0x755 JUMP JUMPDEST SWAP2 POP POP PUSH2 0x6E4 SWAP5 SWAP3 POP PUSH1 0xFF NOT AND DUP3 DUP5 ADD MSTORE ISZERO ISZERO PUSH1 0x5 SHL DUP3 ADD ADD DUP7 SWAP3 DUP9 PUSH2 0x6D2 JUMP JUMPDEST PUSH4 0x4E487B71 PUSH1 0xE0 SHL DUP8 MSTORE PUSH1 0x22 SWAP1 MSTORE PUSH1 0x24 DUP7 REVERT JUMPDEST SWAP3 PUSH1 0x7F AND SWAP3 PUSH2 0x6AA JUMP JUMPDEST SWAP1 PUSH1 0x1F DUP1 NOT SWAP2 ADD AND DUP2 ADD SWAP1 DUP2 LT PUSH8 0xFFFFFFFFFFFFFFFF DUP3 GT OR PUSH2 0x7E5 JUMPI PUSH1 0x40 MSTORE JUMP JUMPDEST PUSH4 0x4E487B71 PUSH1 0xE0 SHL PUSH0 MSTORE PUSH1 0x41 PUSH1 0x4 MSTORE PUSH1 0x24 PUSH0 REVERT JUMPDEST PUSH1 0x4 CALLDATALOAD SWAP1 PUSH1 0x1 PUSH1 0x1 PUSH1 0xA0 SHL SUB DUP3 AND DUP3 SUB PUSH2 0x80F JUMPI JUMP JUMPDEST PUSH0 DUP1 REVERT JUMPDEST PUSH1 0x20 PUSH1 0x40 DUP2 DUP4 ADD SWAP3 DUP3 DUP2 MSTORE PUSH1 0x60 MLOAD DUP1 SWAP5 MSTORE ADD SWAP2 PUSH1 0x80 SWAP2 PUSH0 JUMPDEST DUP3 DUP2 LT PUSH2 0x839 JUMPI POP POP POP POP SWAP1 JUMP JUMPDEST DUP4 MLOAD PUSH1 0x1 PUSH1 0x1 PUSH1 0xA0 SHL SUB AND DUP6 MSTORE SWAP4 DUP2 ADD SWAP4 SWAP3 DUP2 ADD SWAP3 PUSH1 0x1 ADD PUSH2 0x82B JUMP JUMPDEST CALLVALUE PUSH2 0x80F JUMPI PUSH1 0x20 CALLDATASIZE PUSH1 0x3 NOT ADD SLT PUSH2 0x80F JUMPI PUSH2 0x86F PUSH2 0x7F9 JUMP JUMPDEST POP PUSH1 0x40 MLOAD DUP1 PUSH2 0x306 DUP2 PUSH2 0x813 JUMP JUMPDEST SWAP2 DUP2 PUSH1 0x1F DUP5 ADD SLT ISZERO PUSH2 0x80F JUMPI DUP3 CALLDATALOAD SWAP2 PUSH8 0xFFFFFFFFFFFFFFFF DUP4 GT PUSH2 0x80F JUMPI PUSH1 0x20 DUP1 DUP6 ADD SWAP5 DUP5 PUSH1 0x5 SHL ADD ADD GT PUSH2 0x80F JUMPI JUMP JUMPDEST SWAP1 DUP2 PUSH1 0x20 SWAP2 SUB SLT PUSH2 0x80F JUMPI MLOAD DUP1 ISZERO ISZERO DUP2 SUB PUSH2 0x80F JUMPI SWAP1 JUMP JUMPDEST PUSH0 SLOAD PUSH1 0x40 MLOAD PUSH4 0xC7508DF PUSH1 0xE3 SHL DUP2 MSTORE PUSH1 0x1 PUSH1 0x1 PUSH1 0xA0 SHL SUB SWAP3 DUP4 AND PUSH1 0x4 DUP3 ADD MSTORE SWAP2 PUSH1 0x20 SWAP2 DUP4 SWAP2 PUSH1 0x24 SWAP2 DUP4 SWAP2 AND GAS STATICCALL SWAP1 DUP2 ISZERO PUSH2 0x939 JUMPI PUSH0 SWAP2 PUSH2 0x91B JUMPI JUMPDEST POP ISZERO PUSH2 0x909 JUMPI JUMP JUMPDEST PUSH1 0x40 MLOAD PUSH4 0x31696E97 PUSH1 0xE2 SHL DUP2 MSTORE PUSH1 0x4 SWAP1 REVERT JUMPDEST PUSH2 0x933 SWAP2 POP PUSH1 0x20 RETURNDATASIZE DUP2 GT PUSH2 0x447 JUMPI PUSH2 0x438 DUP2 DUP4 PUSH2 0x7C3 JUMP JUMPDEST PUSH0 PUSH2 0x901 JUMP JUMPDEST PUSH1 0x40 MLOAD RETURNDATASIZE PUSH0 DUP3 RETURNDATACOPY RETURNDATASIZE SWAP1 REVERT INVALID LOG2 PUSH5 0x6970667358 0x22 SLT KECCAK256 0x24 OR 0x1F 0xD4 0xC4 SHL RETURNDATACOPY MLOAD 0xF8 CALL PUSH11 0x54FC8638EAB3E7EF6DAEF4 AND 0x5E SELFDESTRUCT 0xC9 0x25 0x23 0xD4 0xFB PUSH1 0x7 PUSH5 0x736F6C6343 STOP ADDMOD ISZERO STOP CALLER LOG2 PUSH5 0x6970667358 0x22 SLT KECCAK256 0xAC 0xC5 0xCB 0x2A 0xCE 0xC DUP4 0xB8 PUSH15 0xDAED93F2918BB3E698C33D478822E 0xCC 0xC0 SWAP1 EXTCODEHASH 0xEB SHR LOG2 0x4D PUSH5 0x736F6C6343 STOP ADDMOD ISZERO STOP CALLER PUSH1 0x80 PUSH1 0x40 MSTORE CALLVALUE PUSH3 0x214 JUMPI PUSH3 0xBB9 DUP1 CODESIZE SUB DUP1 PUSH3 0x1D DUP2 PUSH3 0x218 JUMP JUMPDEST SWAP3 DUP4 CODECOPY DUP2 ADD SWAP1 PUSH1 0x20 SWAP1 DUP2 DUP2 DUP5 SUB SLT PUSH3 0x214 JUMPI DUP1 MLOAD PUSH1 0x1 PUSH1 0x1 PUSH1 0x40 SHL SUB SWAP2 DUP3 DUP3 GT PUSH3 0x214 JUMPI ADD SWAP2 PUSH1 0x1F SWAP1 DUP5 DUP3 DUP6 ADD SLT ISZERO PUSH3 0x214 JUMPI DUP4 MLOAD DUP4 DUP2 GT PUSH3 0x1EB JUMPI PUSH1 0x1F NOT SWAP5 PUSH3 0x72 DUP3 DUP6 ADD DUP8 AND DUP5 ADD PUSH3 0x218 JUMP JUMPDEST SWAP7 DUP3 DUP9 MSTORE DUP4 DUP4 DUP4 ADD ADD GT PUSH3 0x214 JUMPI DUP3 SWAP1 PUSH0 JUMPDEST DUP4 DUP2 LT PUSH3 0x1FF JUMPI POP POP PUSH0 SWAP2 DUP8 ADD ADD MSTORE PUSH1 0x1 SWAP4 DUP5 PUSH1 0x7 SSTORE DUP6 MLOAD SWAP4 DUP5 GT PUSH3 0x1EB JUMPI DUP5 SLOAD DUP6 DUP2 DUP2 SHR SWAP2 AND DUP1 ISZERO PUSH3 0x1E0 JUMPI JUMPDEST DUP4 DUP3 LT EQ PUSH3 0x1CC JUMPI DUP4 DUP2 GT PUSH3 0x184 JUMPI JUMPDEST POP DUP2 SWAP3 DUP5 GT PUSH1 0x1 EQ PUSH3 0x122 JUMPI POP POP DUP2 SWAP3 SWAP4 PUSH0 SWAP3 PUSH3 0x116 JUMPI JUMPDEST POP POP PUSH0 NOT PUSH1 0x3 DUP4 SWAP1 SHL SHR NOT AND SWAP1 DUP3 SHL OR SWAP1 SSTORE JUMPDEST PUSH0 DUP1 SLOAD PUSH1 0x1 PUSH1 0x1 PUSH1 0xA0 SHL SUB NOT AND CALLER OR SWAP1 SSTORE PUSH1 0x40 MLOAD PUSH2 0x97A SWAP1 DUP2 PUSH3 0x23F DUP3 CODECOPY RETURN JUMPDEST ADD MLOAD SWAP1 POP PUSH0 DUP1 PUSH3 0xE2 JUMP JUMPDEST PUSH0 DUP6 DUP2 MSTORE DUP3 DUP2 KECCAK256 SWAP2 DUP6 AND SWAP7 SWAP2 SWAP4 SWAP3 JUMPDEST DUP8 DUP3 LT PUSH3 0x16C JUMPI POP POP DUP4 DUP6 SWAP7 LT PUSH3 0x153 JUMPI JUMPDEST POP POP POP DUP2 SHL ADD SWAP1 SSTORE PUSH3 0xF5 JUMP JUMPDEST ADD MLOAD PUSH0 NOT PUSH1 0xF8 DUP5 PUSH1 0x3 SHL AND SHR NOT AND SWAP1 SSTORE PUSH0 DUP1 DUP1 PUSH3 0x145 JUMP JUMPDEST DUP1 DUP8 DUP6 SWAP7 DUP3 SWAP5 SWAP7 DUP7 ADD MLOAD DUP2 SSTORE ADD SWAP6 ADD SWAP4 ADD SWAP1 PUSH3 0x131 JUMP JUMPDEST DUP6 PUSH0 MSTORE DUP3 PUSH0 KECCAK256 DUP5 DUP1 DUP8 ADD PUSH1 0x5 SHR DUP3 ADD SWAP3 DUP6 DUP9 LT PUSH3 0x1C2 JUMPI JUMPDEST ADD PUSH1 0x5 SHR ADD SWAP1 DUP7 SWAP1 JUMPDEST DUP3 DUP2 LT PUSH3 0x1B6 JUMPI POP POP PUSH3 0xC8 JUMP JUMPDEST PUSH0 DUP2 SSTORE ADD DUP7 SWAP1 PUSH3 0x1A6 JUMP JUMPDEST SWAP3 POP DUP2 SWAP3 PUSH3 0x19D JUMP JUMPDEST PUSH4 0x4E487B71 PUSH1 0xE0 SHL PUSH0 MSTORE PUSH1 0x22 PUSH1 0x4 MSTORE PUSH1 0x24 PUSH0 REVERT JUMPDEST SWAP1 PUSH1 0x7F AND SWAP1 PUSH3 0xB6 JUMP JUMPDEST PUSH4 0x4E487B71 PUSH1 0xE0 SHL PUSH0 MSTORE PUSH1 0x41 PUSH1 0x4 MSTORE PUSH1 0x24 PUSH0 REVERT JUMPDEST DUP2 DUP2 ADD DUP4 ADD MLOAD DUP10 DUP3 ADD DUP5 ADD MSTORE DUP5 SWAP3 ADD PUSH3 0x85 JUMP JUMPDEST PUSH0 DUP1 REVERT JUMPDEST PUSH1 0x40 MLOAD SWAP2 SWAP1 PUSH1 0x1F ADD PUSH1 0x1F NOT AND DUP3 ADD PUSH1 0x1 PUSH1 0x1 PUSH1 0x40 SHL SUB DUP2 GT DUP4 DUP3 LT OR PUSH3 0x1EB JUMPI PUSH1 0x40 MSTORE JUMP INVALID PUSH1 0x80 PUSH1 0x40 SWAP1 DUP1 DUP3 MSTORE PUSH1 0x4 SWAP2 DUP3 CALLDATASIZE LT ISZERO PUSH2 0x16 JUMPI PUSH0 DUP1 REVERT JUMPDEST PUSH0 SWAP3 DUP4 CALLDATALOAD PUSH1 0xE0 SHR SWAP3 DUP4 PUSH4 0x6FDDE03 EQ PUSH2 0x683 JUMPI POP DUP3 PUSH4 0xAB9BB62 EQ PUSH2 0x667 JUMPI DUP3 PUSH4 0x10C030A3 EQ PUSH2 0x173 JUMPI DUP3 PUSH4 0x172CFA4C EQ PUSH2 0x653 JUMPI DUP3 PUSH4 0x3F4BA83A EQ PUSH2 0x62C JUMPI DUP3 PUSH4 0x40AFFA94 EQ PUSH2 0x545 JUMPI DUP3 PUSH4 0x54AEA127 EQ PUSH2 0x526 JUMPI DUP3 PUSH4 0x5709D115 EQ PUSH2 0x173 JUMPI DUP3 PUSH4 0x5D1A7355 EQ PUSH2 0x4FF JUMPI DUP3 PUSH4 0x6299A6EF EQ PUSH2 0x458 JUMPI DUP3 PUSH4 0x63A846F8 EQ PUSH2 0x3BF JUMPI DUP3 PUSH4 0x712B772F EQ PUSH2 0x389 JUMPI DUP3 PUSH4 0x8456CB59 EQ PUSH2 0x35F JUMPI DUP3 PUSH4 0x9D3C1C7B EQ PUSH2 0x329 JUMPI DUP3 PUSH4 0xA06D083C EQ PUSH2 0x30A JUMPI DUP3 PUSH4 0xB66C484E EQ PUSH2 0x2DF JUMPI DUP3 PUSH4 0xC2BB8120 EQ PUSH2 0x244 JUMPI DUP3 PUSH4 0xC550A1CA EQ PUSH2 0x220 JUMPI DUP3 PUSH4 0xCFDAD40A EQ PUSH2 0x1FD JUMPI DUP3 PUSH4 0xDD71A430 EQ PUSH2 0x178 JUMPI POP DUP2 PUSH4 0xDE68A001 EQ PUSH2 0x173 JUMPI DUP2 PUSH4 0xEFEDC669 EQ PUSH2 0x150 JUMPI POP PUSH4 0xFFC08B6D EQ PUSH2 0x121 JUMPI PUSH0 DUP1 REVERT JUMPDEST CALLVALUE PUSH2 0x14D JUMPI PUSH2 0x100 CALLDATASIZE PUSH1 0x3 NOT ADD SLT PUSH2 0x14D JUMPI PUSH1 0x64 CALLDATALOAD DUP1 ISZERO ISZERO SUB PUSH2 0x14D JUMPI PUSH1 0xA4 CALLDATALOAD PUSH1 0xFF DUP2 AND SUB PUSH2 0x14D JUMPI DUP1 RETURN JUMPDEST DUP1 REVERT JUMPDEST SWAP1 POP CALLVALUE PUSH2 0x16F JUMPI DUP2 PUSH1 0x3 NOT CALLDATASIZE ADD SLT PUSH2 0x16F JUMPI PUSH1 0x20 SWAP1 PUSH1 0x3 SLOAD SWAP1 MLOAD SWAP1 DUP2 MSTORE RETURN JUMPDEST POP DUP1 REVERT JUMPDEST PUSH2 0x856 JUMP JUMPDEST DUP4 DUP3 CALLVALUE PUSH2 0x16F JUMPI PUSH1 0x80 CALLDATASIZE PUSH1 0x3 NOT ADD SLT PUSH2 0x16F JUMPI DUP3 CALLDATALOAD PUSH1 0xFF DUP2 AND SUB PUSH2 0x16F JUMPI PUSH1 0x64 CALLDATALOAD SWAP1 PUSH8 0xFFFFFFFFFFFFFFFF SWAP1 DUP2 DUP4 GT PUSH2 0x1F9 JUMPI CALLDATASIZE PUSH1 0x23 DUP5 ADD SLT ISZERO PUSH2 0x1F9 JUMPI DUP3 DUP6 ADD CALLDATALOAD SWAP2 DUP3 GT PUSH2 0x1E6 JUMPI SWAP1 PUSH2 0x1DA PUSH1 0x24 SWAP3 PUSH1 0x20 PUSH1 0x1F NOT PUSH1 0x1F DUP6 ADD AND ADD SWAP1 MLOAD PUSH2 0x7C3 JUMP JUMPDEST CALLDATASIZE SWAP3 ADD ADD GT PUSH2 0x14D JUMPI DUP1 RETURN JUMPDEST PUSH4 0x4E487B71 PUSH1 0xE0 SHL DUP5 MSTORE PUSH1 0x41 DUP6 MSTORE PUSH1 0x24 DUP5 REVERT JUMPDEST DUP4 DUP1 REVERT JUMPDEST SWAP1 SWAP2 POP CALLVALUE PUSH2 0x21C JUMPI DUP3 PUSH1 0x3 NOT CALLDATASIZE ADD SLT PUSH2 0x21C JUMPI PUSH1 0x20 SWAP3 POP SLOAD SWAP1 MLOAD SWAP1 DUP2 MSTORE RETURN JUMPDEST DUP3 DUP1 REVERT JUMPDEST DUP4 DUP3 CALLVALUE PUSH2 0x16F JUMPI DUP2 PUSH1 0x3 NOT CALLDATASIZE ADD SLT PUSH2 0x16F JUMPI PUSH1 0x20 SWAP1 PUSH1 0xFF PUSH1 0x6 SLOAD AND SWAP1 MLOAD SWAP1 ISZERO ISZERO DUP2 MSTORE RETURN JUMPDEST DUP4 DUP3 CALLVALUE PUSH2 0x16F JUMPI PUSH1 0x20 SWAP3 DUP4 PUSH1 0x3 NOT CALLDATASIZE ADD SLT PUSH2 0x21C JUMPI DUP4 PUSH2 0x262 PUSH2 0x7F9 JUMP JUMPDEST DUP5 SLOAD DUP5 MLOAD PUSH4 0x615DC09 PUSH1 0xE5 SHL DUP2 MSTORE PUSH1 0x1 PUSH1 0x1 PUSH1 0xA0 SHL SUB SWAP3 DUP4 AND SWAP5 DUP2 ADD SWAP5 SWAP1 SWAP5 MSTORE DUP4 SWAP2 PUSH1 0x24 SWAP2 DUP4 SWAP2 AND GAS STATICCALL SWAP3 DUP4 ISZERO PUSH2 0x2D4 JUMPI DUP1 SWAP4 PUSH2 0x2A2 JUMPI JUMPDEST POP POP MLOAD SWAP1 DUP2 MSTORE RETURN JUMPDEST SWAP1 SWAP2 SWAP3 POP DUP4 DUP3 DUP2 RETURNDATASIZE DUP4 GT PUSH2 0x2CD JUMPI JUMPDEST PUSH2 0x2BB DUP2 DUP4 PUSH2 0x7C3 JUMP JUMPDEST DUP2 ADD SUB SLT PUSH2 0x14D JUMPI POP MLOAD SWAP1 DUP4 DUP1 PUSH2 0x29A JUMP JUMPDEST POP RETURNDATASIZE PUSH2 0x2B1 JUMP JUMPDEST DUP3 MLOAD SWAP1 RETURNDATASIZE SWAP1 DUP3 RETURNDATACOPY RETURNDATASIZE SWAP1 REVERT JUMPDEST POP DUP3 CALLVALUE PUSH2 0x14D JUMPI DUP2 PUSH1 0x3 NOT CALLDATASIZE ADD SLT PUSH2 0x14D JUMPI POP PUSH2 0x2FA PUSH2 0x7F9 JUMP JUMPDEST POP MLOAD DUP1 PUSH2 0x306 DUP2 PUSH2 0x813 JUMP JUMPDEST SUB SWAP1 RETURN JUMPDEST DUP4 DUP3 CALLVALUE PUSH2 0x16F JUMPI DUP2 PUSH1 0x3 NOT CALLDATASIZE ADD SLT PUSH2 0x16F JUMPI PUSH1 0x20 SWAP1 PUSH1 0x2 SLOAD SWAP1 MLOAD SWAP1 DUP2 MSTORE RETURN JUMPDEST DUP4 SWAP1 CALLVALUE PUSH2 0x16F JUMPI PUSH1 0x20 CALLDATASIZE PUSH1 0x3 NOT ADD SLT PUSH2 0x16F JUMPI CALLDATALOAD SWAP2 DUP3 ISZERO ISZERO DUP1 SWAP4 SUB PUSH2 0x16F JUMPI PUSH1 0x20 SWAP3 PUSH1 0xFF DUP1 NOT PUSH1 0x6 SLOAD AND SWAP2 AND OR PUSH1 0x6 SSTORE MLOAD SWAP1 DUP2 MSTORE RETURN JUMPDEST DUP4 CALLVALUE PUSH2 0x14D JUMPI DUP1 PUSH1 0x3 NOT CALLDATASIZE ADD SLT PUSH2 0x14D JUMPI PUSH2 0x379 CALLER PUSH2 0x8C6 JUMP JUMPDEST PUSH1 0x1 PUSH1 0xFF NOT PUSH1 0x8 SLOAD AND OR PUSH1 0x8 SSTORE DUP1 RETURN JUMPDEST DUP4 DUP3 CALLVALUE PUSH2 0x16F JUMPI DUP1 PUSH1 0x3 NOT CALLDATASIZE ADD SLT PUSH2 0x16F JUMPI PUSH2 0x3A3 PUSH2 0x7F9 JUMP JUMPDEST POP PUSH1 0x24 CALLDATALOAD PUSH1 0x1 PUSH1 0x1 PUSH1 0xA0 SHL SUB DUP2 AND SUB PUSH2 0x16F JUMPI MLOAD SWAP1 DUP2 MSTORE PUSH1 0x20 SWAP1 RETURN JUMPDEST SWAP2 POP CALLVALUE PUSH2 0x21C JUMPI PUSH1 0x20 CALLDATASIZE PUSH1 0x3 NOT ADD SLT PUSH2 0x21C JUMPI PUSH1 0x20 PUSH2 0x3DC PUSH2 0x7F9 JUMP JUMPDEST DUP5 SLOAD DUP4 MLOAD PUSH4 0xC7508DF PUSH1 0xE3 SHL DUP2 MSTORE PUSH1 0x1 PUSH1 0x1 PUSH1 0xA0 SHL SUB SWAP3 DUP4 AND SWAP6 DUP2 ADD SWAP6 SWAP1 SWAP6 MSTORE DUP5 SWAP2 PUSH1 0x24 SWAP2 DUP4 SWAP2 AND GAS STATICCALL SWAP2 DUP3 ISZERO PUSH2 0x44E JUMPI PUSH1 0x20 SWAP4 SWAP3 PUSH2 0x41F JUMPI JUMPDEST POP MLOAD SWAP1 ISZERO ISZERO DUP2 MSTORE RETURN JUMPDEST PUSH2 0x440 SWAP2 SWAP3 POP DUP4 RETURNDATASIZE DUP2 GT PUSH2 0x447 JUMPI JUMPDEST PUSH2 0x438 DUP2 DUP4 PUSH2 0x7C3 JUMP JUMPDEST DUP2 ADD SWAP1 PUSH2 0x8AE JUMP JUMPDEST SWAP1 PUSH0 PUSH2 0x416 JUMP JUMPDEST POP RETURNDATASIZE PUSH2 0x42E JUMP JUMPDEST DUP2 MLOAD RETURNDATASIZE DUP6 DUP3 RETURNDATACOPY RETURNDATASIZE SWAP1 REVERT JUMPDEST SWAP1 DUP4 CALLVALUE PUSH2 0x14D JUMPI PUSH1 0x20 CALLDATASIZE PUSH1 0x3 NOT ADD SLT PUSH2 0x14D JUMPI DUP3 CALLDATALOAD SWAP1 DUP1 DUP3 SGT PUSH2 0x4CA JUMPI JUMPDEST DUP1 DUP3 SLT SWAP2 DUP3 PUSH2 0x491 JUMPI JUMPDEST PUSH1 0x20 DUP5 TIMESTAMP PUSH1 0x5 SSTORE PUSH1 0x2 SLOAD SWAP1 MLOAD SWAP1 DUP2 MSTORE RETURN JUMPDEST PUSH1 0x2 SLOAD SWAP1 DUP2 SUB SWAP3 DUP1 ISZERO DUP3 DUP6 SGT AND SWAP2 DUP5 SLT AND OR PUSH2 0x4B7 JUMPI POP PUSH1 0x20 SWAP3 POP PUSH1 0x2 SSTORE DUP3 DUP1 DUP1 PUSH2 0x480 JUMP JUMPDEST PUSH4 0x4E487B71 PUSH1 0xE0 SHL DUP2 MSTORE PUSH1 0x11 DUP5 MSTORE PUSH1 0x24 SWAP1 REVERT JUMPDEST PUSH1 0x2 SLOAD DUP3 DUP2 ADD SWAP1 DUP3 DUP5 DUP4 SLT SWAP2 SLT SWAP1 DUP1 ISZERO DUP3 AND SWAP2 ISZERO AND OR PUSH2 0x4EC JUMPI PUSH1 0x2 SSTORE PUSH2 0x476 JUMP JUMPDEST PUSH4 0x4E487B71 PUSH1 0xE0 SHL DUP3 MSTORE PUSH1 0x11 DUP6 MSTORE PUSH1 0x24 DUP3 REVERT JUMPDEST DUP4 CALLVALUE PUSH2 0x14D JUMPI PUSH1 0x60 CALLDATASIZE PUSH1 0x3 NOT ADD SLT PUSH2 0x14D JUMPI PUSH1 0x44 CALLDATALOAD PUSH1 0x1 PUSH1 0x1 PUSH1 0xA0 SHL SUB DUP2 AND SUB PUSH2 0x14D JUMPI DUP1 RETURN JUMPDEST DUP4 DUP3 CALLVALUE PUSH2 0x16F JUMPI DUP2 PUSH1 0x3 NOT CALLDATASIZE ADD SLT PUSH2 0x16F JUMPI PUSH1 0x20 SWAP1 PUSH1 0x5 SLOAD SWAP1 MLOAD SWAP1 DUP2 MSTORE RETURN JUMPDEST DUP4 SWAP1 CALLVALUE PUSH2 0x16F JUMPI PUSH2 0x100 CALLDATASIZE PUSH1 0x3 NOT ADD SLT PUSH2 0x16F JUMPI PUSH8 0xFFFFFFFFFFFFFFFF SWAP1 DUP1 CALLDATALOAD DUP3 DUP2 GT PUSH2 0x1F9 JUMPI PUSH2 0x579 SWAP1 CALLDATASIZE SWAP1 DUP4 ADD PUSH2 0x87D JUMP JUMPDEST POP POP PUSH1 0x24 CALLDATALOAD DUP3 DUP2 GT PUSH2 0x1F9 JUMPI PUSH2 0x592 SWAP1 CALLDATASIZE SWAP1 DUP4 ADD PUSH2 0x87D JUMP JUMPDEST POP POP PUSH1 0x44 CALLDATALOAD DUP3 DUP2 GT PUSH2 0x1F9 JUMPI PUSH2 0x5AB SWAP1 CALLDATASIZE SWAP1 DUP4 ADD PUSH2 0x87D JUMP JUMPDEST POP POP PUSH1 0x64 CALLDATALOAD DUP3 DUP2 GT PUSH2 0x1F9 JUMPI PUSH2 0x5C4 SWAP1 CALLDATASIZE SWAP1 DUP4 ADD PUSH2 0x87D JUMP JUMPDEST POP POP PUSH1 0x84 CALLDATALOAD DUP3 DUP2 GT PUSH2 0x1F9 JUMPI PUSH2 0x5DD SWAP1 CALLDATASIZE SWAP1 DUP4 ADD PUSH2 0x87D JUMP JUMPDEST POP POP PUSH1 0xA4 CALLDATALOAD DUP3 DUP2 GT PUSH2 0x1F9 JUMPI PUSH2 0x5F6 SWAP1 CALLDATASIZE SWAP1 DUP4 ADD PUSH2 0x87D JUMP JUMPDEST POP POP PUSH1 0xC4 CALLDATALOAD DUP3 DUP2 GT PUSH2 0x1F9 JUMPI PUSH2 0x60F SWAP1 CALLDATASIZE SWAP1 DUP4 ADD PUSH2 0x87D JUMP JUMPDEST POP POP PUSH1 0xE4 CALLDATALOAD SWAP2 DUP3 GT PUSH2 0x21C JUMPI PUSH2 0x627 SWAP2 CALLDATASIZE SWAP2 ADD PUSH2 0x87D JUMP JUMPDEST POP POP DUP1 RETURN JUMPDEST DUP4 CALLVALUE PUSH2 0x14D JUMPI DUP1 PUSH1 0x3 NOT CALLDATASIZE ADD SLT PUSH2 0x14D JUMPI PUSH2 0x646 CALLER PUSH2 0x8C6 JUMP JUMPDEST PUSH1 0xFF NOT PUSH1 0x8 SLOAD AND PUSH1 0x8 SSTORE DUP1 RETURN JUMPDEST DUP4 DUP3 CALLVALUE PUSH2 0x16F JUMPI CALLDATASIZE PUSH1 0x3 NOT ADD SLT PUSH2 0x14D JUMPI DUP1 RETURN JUMPDEST DUP4 DUP3 CALLVALUE PUSH2 0x16F JUMPI PUSH1 0x20 CALLDATASIZE PUSH1 0x3 NOT ADD SLT PUSH2 0x16F JUMPI MLOAD SWAP1 DUP2 MSTORE PUSH1 0x20 SWAP1 RETURN JUMPDEST DUP3 SWAP1 DUP6 CALLVALUE PUSH2 0x14D JUMPI DUP1 PUSH1 0x3 NOT CALLDATASIZE ADD SLT PUSH2 0x14D JUMPI DUP1 PUSH1 0x1 DUP1 SLOAD SWAP1 DUP2 DUP2 SHR SWAP2 DUP2 DUP2 AND DUP1 ISZERO PUSH2 0x7B9 JUMPI JUMPDEST PUSH1 0x20 SWAP9 DUP10 DUP6 LT DUP3 EQ PUSH2 0x7A6 JUMPI POP SWAP2 DUP4 SWAP2 DUP10 SWAP6 SWAP4 DUP9 SWAP6 DUP7 MSTORE SWAP1 DUP2 PUSH0 EQ PUSH2 0x785 JUMPI POP PUSH1 0x1 EQ PUSH2 0x72A JUMPI JUMPDEST POP POP PUSH2 0x6E4 SWAP3 POP SWAP6 SWAP4 SWAP3 SWAP6 SUB DUP3 PUSH2 0x7C3 JUMP JUMPDEST DUP3 MLOAD SWAP4 DUP3 DUP6 SWAP4 DUP5 MSTORE DUP3 MLOAD SWAP3 DUP4 DUP3 DUP7 ADD MSTORE DUP3 JUMPDEST DUP5 DUP2 LT PUSH2 0x714 JUMPI POP POP POP DUP3 DUP3 ADD DUP5 ADD MSTORE PUSH1 0x1F ADD PUSH1 0x1F NOT AND DUP2 ADD SUB ADD SWAP1 RETURN JUMPDEST DUP2 DUP2 ADD DUP4 ADD MLOAD DUP9 DUP3 ADD DUP9 ADD MSTORE DUP8 SWAP6 POP DUP3 ADD PUSH2 0x6F6 JUMP JUMPDEST DUP1 DUP7 MSTORE PUSH32 0xB10E2D527612073B26EECDFD717E6A320CF44B4AFAC2B0732D9FCBE2B7FA0CF6 SWAP5 SWAP3 POP DUP6 SWAP2 SWAP1 JUMPDEST DUP2 DUP4 LT PUSH2 0x76D JUMPI POP DUP9 SWAP5 POP POP DUP3 ADD ADD PUSH2 0x6E4 DUP9 PUSH2 0x6D2 JUMP JUMPDEST DUP6 SLOAD DUP9 DUP5 ADD DUP6 ADD MSTORE SWAP5 DUP6 ADD SWAP5 DUP8 SWAP5 POP SWAP2 DUP4 ADD SWAP2 PUSH2 0x755 JUMP JUMPDEST SWAP2 POP POP PUSH2 0x6E4 SWAP5 SWAP3 POP PUSH1 0xFF NOT AND DUP3 DUP5 ADD MSTORE ISZERO ISZERO PUSH1 0x5 SHL DUP3 ADD ADD DUP7 SWAP3 DUP9 PUSH2 0x6D2 JUMP JUMPDEST PUSH4 0x4E487B71 PUSH1 0xE0 SHL DUP8 MSTORE PUSH1 0x22 SWAP1 MSTORE PUSH1 0x24 DUP7 REVERT JUMPDEST SWAP3 PUSH1 0x7F AND SWAP3 PUSH2 0x6AA JUMP JUMPDEST SWAP1 PUSH1 0x1F DUP1 NOT SWAP2 ADD AND DUP2 ADD SWAP1 DUP2 LT PUSH8 0xFFFFFFFFFFFFFFFF DUP3 GT OR PUSH2 0x7E5 JUMPI PUSH1 0x40 MSTORE JUMP JUMPDEST PUSH4 0x4E487B71 PUSH1 0xE0 SHL PUSH0 MSTORE PUSH1 0x41 PUSH1 0x4 MSTORE PUSH1 0x24 PUSH0 REVERT JUMPDEST PUSH1 0x4 CALLDATALOAD SWAP1 PUSH1 0x1 PUSH1 0x1 PUSH1 0xA0 SHL SUB DUP3 AND DUP3 SUB PUSH2 0x80F JUMPI JUMP JUMPDEST PUSH0 DUP1 REVERT JUMPDEST PUSH1 0x20 PUSH1 0x40 DUP2 DUP4 ADD SWAP3 DUP3 DUP2 MSTORE PUSH1 0x60 MLOAD DUP1 SWAP5 MSTORE ADD SWAP2 PUSH1 0x80 SWAP2 PUSH0 JUMPDEST DUP3 DUP2 LT PUSH2 0x839 JUMPI POP POP POP POP SWAP1 JUMP JUMPDEST DUP4 MLOAD PUSH1 0x1 PUSH1 0x1 PUSH1 0xA0 SHL SUB AND DUP6 MSTORE SWAP4 DUP2 ADD SWAP4 SWAP3 DUP2 ADD SWAP3 PUSH1 0x1 ADD PUSH2 0x82B JUMP JUMPDEST CALLVALUE PUSH2 0x80F JUMPI PUSH1 0x20 CALLDATASIZE PUSH1 0x3 NOT ADD SLT PUSH2 0x80F JUMPI PUSH2 0x86F PUSH2 0x7F9 JUMP JUMPDEST POP PUSH1 0x40 MLOAD DUP1 PUSH2 0x306 DUP2 PUSH2 0x813 JUMP JUMPDEST SWAP2 DUP2 PUSH1 0x1F DUP5 ADD SLT ISZERO PUSH2 0x80F JUMPI DUP3 CALLDATALOAD SWAP2 PUSH8 0xFFFFFFFFFFFFFFFF DUP4 GT PUSH2 0x80F JUMPI PUSH1 0x20 DUP1 DUP6 ADD SWAP5 DUP5 PUSH1 0x5 SHL ADD ADD GT PUSH2 0x80F JUMPI JUMP JUMPDEST SWAP1 DUP2 PUSH1 0x20 SWAP2 SUB SLT PUSH2 0x80F JUMPI MLOAD DUP1 ISZERO ISZERO DUP2 SUB PUSH2 0x80F JUMPI SWAP1 JUMP JUMPDEST PUSH0 SLOAD PUSH1 0x40 MLOAD PUSH4 0xC7508DF PUSH1 0xE3 SHL DUP2 MSTORE PUSH1 0x1 PUSH1 0x1 PUSH1 0xA0 SHL SUB SWAP3 DUP4 AND PUSH1 0x4 DUP3 ADD MSTORE SWAP2 PUSH1 0x20 SWAP2 DUP4 SWAP2 PUSH1 0x24 SWAP2 DUP4 SWAP2 AND GAS STATICCALL SWAP1 DUP2 ISZERO PUSH2 0x939 JUMPI PUSH0 SWAP2 PUSH2 0x91B JUMPI JUMPDEST POP ISZERO PUSH2 0x909 JUMPI JUMP JUMPDEST PUSH1 0x40 MLOAD PUSH4 0x31696E97 PUSH1 0xE2 SHL DUP2 MSTORE PUSH1 0x4 SWAP1 REVERT JUMPDEST PUSH2 0x933 SWAP2 POP PUSH1 0x20 RETURNDATASIZE DUP2 GT PUSH2 0x447 JUMPI PUSH2 0x438 DUP2 DUP4 PUSH2 0x7C3 JUMP JUMPDEST PUSH0 PUSH2 0x901 JUMP JUMPDEST PUSH1 0x40 MLOAD RETURNDATASIZE PUSH0 DUP3 RETURNDATACOPY RETURNDATASIZE SWAP1 REVERT INVALID LOG2 PUSH5 0x6970667358 0x22 SLT KECCAK256 0x24 OR 0x1F 0xD4 0xC4 SHL RETURNDATACOPY MLOAD 0xF8 CALL PUSH11 0x54FC8638EAB3E7EF6DAEF4 AND 0x5E SELFDESTRUCT 0xC9 0x25 0x23 0xD4 0xFB PUSH1 0x7 PUSH5 0x736F6C6343 STOP ADDMOD ISZERO STOP CALLER "
		},
		"gasEstimates": {
			"creation": {
				"codeDepositCost": "2113200",
				"executionCost": "infinite",
				"totalCost": "infinite"
			},
			"external": {
				"addAdmin(address)": "infinite",
				"admin(address)": "2713",
				"admins(uint256)": "6715",
				"batchSetSmartAccounts(address[],address[])": "infinite",
				"batchUpdate(address[],int256[])": "infinite",
				"create(address,string)": "infinite",
				"credits(address[])": "infinite",
				"deactivate(uint256,bool)": "796",
				"move(address,address,uint256,uint256)": "infinite",
				"onERC1155BatchReceived(address,address,uint256[],uint256[],bytes)": "infinite",
				"onERC1155Received(address,address,uint256,uint256,bytes)": "infinite",
				"onERC721Received(address,address,uint256,bytes)": "infinite",
				"punish(uint256[],int256)": "776",
				"registerSelf(string)": "infinite",
				"registerTokens(address[],uint256[])": "infinite",
				"removeAdmin(address)": "infinite",
				"scores(address[])": "infinite",
				"setMinAllocation(uint256,uint256)": "529",
				"setPaymentTokens(address,uint256)": "infinite",
				"setPercentageFromAllocation(uint256)": "221",
				"setPermittedERC1155Tokens(address)": "infinite",
				"setPermittedERC20Tokens(address)": "infinite",
				"setPermittedERC721Tokens(address)": "infinite",
				"setSmartAccount(address,address)": "616",
				"smartAccount(address)": "3015",
				"supportsInterface(bytes4)": "226",
				"tokenToStandard(address)": "5125",
				"user(address)": "2779"
			},
			"internal": {
				"_create(address,string memory)": "infinite",
				"_findIndex(address)": "infinite",
				"_isAdmin(address)": "infinite",
				"moveERC1155(address,address,uint256,uint256)": "infinite",
				"moveERC20(address,address,uint256)": "infinite",
				"moveERC721(address,address,uint256)": "infinite"
			}
		},
		"methodIdentifiers": {
			"addAdmin(address)": "70480275",
			"admin(address)": "63a846f8",
			"admins(uint256)": "14bfd6d0",
			"batchSetSmartAccounts(address[],address[])": "508aa6d9",
			"batchUpdate(address[],int256[])": "48971acd",
			"create(address,string)": "a15ab08d",
			"credits(address[])": "be500fb9",
			"deactivate(uint256,bool)": "f9e93771",
			"move(address,address,uint256,uint256)": "a7e1ddc2",
			"onERC1155BatchReceived(address,address,uint256[],uint256[],bytes)": "bc197c81",
			"onERC1155Received(address,address,uint256,uint256,bytes)": "f23a6e61",
			"onERC721Received(address,address,uint256,bytes)": "150b7a02",
			"punish(uint256[],int256)": "b37bf09c",
			"registerSelf(string)": "04673196",
			"registerTokens(address[],uint256[])": "35e3e084",
			"removeAdmin(address)": "1785f53c",
			"scores(address[])": "46e7ad99",
			"setMinAllocation(uint256,uint256)": "9f56d135",
			"setPaymentTokens(address,uint256)": "b66c484e",
			"setPercentageFromAllocation(uint256)": "0ab9bb62",
			"setPermittedERC1155Tokens(address)": "10c030a3",
			"setPermittedERC20Tokens(address)": "de68a001",
			"setPermittedERC721Tokens(address)": "5709d115",
			"setSmartAccount(address,address)": "6fe86f16",
			"smartAccount(address)": "f6d8a744",
			"supportsInterface(bytes4)": "01ffc9a7",
			"tokenToStandard(address)": "c2bb8120",
			"user(address)": "81e7e20e"
		}
	},
	"abi": [
		{
			"inputs": [
				{
					"internalType": "address",
					"name": "_firstUser",
					"type": "address"
				},
				{
					"internalType": "string",
					"name": "_firstUserName",
					"type": "string"
				}
			],
			"stateMutability": "nonpayable",
			"type": "constructor"
		},
		{
			"inputs": [],
			"name": "ArrayLengthMismatch",
			"type": "error"
		},
		{
			"inputs": [],
			"name": "ForbiddenSender",
			"type": "error"
		},
		{
			"inputs": [],
			"name": "InvalidCalldata",
			"type": "error"
		},
		{
			"inputs": [
				{
					"internalType": "address",
					"name": "token",
					"type": "address"
				}
			],
			"name": "InvalidToken",
			"type": "error"
		},
		{
			"inputs": [
				{
					"internalType": "address",
					"name": "user",
					"type": "address"
				}
			],
			"name": "InvalidUser",
			"type": "error"
		},
		{
			"inputs": [],
			"name": "Locked",
			"type": "error"
		},
		{
			"inputs": [
				{
					"internalType": "address",
					"name": "nonUser",
					"type": "address"
				}
			],
			"name": "NotAUser",
			"type": "error"
		},
		{
			"anonymous": false,
			"inputs": [
				{
					"indexed": false,
					"internalType": "address",
					"name": "user",
					"type": "address"
				},
				{
					"indexed": false,
					"internalType": "address",
					"name": "smartAccount",
					"type": "address"
				},
				{
					"indexed": false,
					"internalType": "int256",
					"name": "change",
					"type": "int256"
				},
				{
					"indexed": false,
					"internalType": "int256",
					"name": "credit",
					"type": "int256"
				}
			],
			"name": "CreditUpdated",
			"type": "event"
		},
		{
			"inputs": [
				{
					"internalType": "address",
					"name": "_admin",
					"type": "address"
				}
			],
			"name": "addAdmin",
			"outputs": [
				{
					"internalType": "address[]",
					"name": "newAdmins",
					"type": "address[]"
				}
			],
			"stateMutability": "nonpayable",
			"type": "function"
		},
		{
			"inputs": [
				{
					"internalType": "address",
					"name": "admin",
					"type": "address"
				}
			],
			"name": "admin",
			"outputs": [
				{
					"internalType": "bool",
					"name": "",
					"type": "bool"
				}
			],
			"stateMutability": "view",
			"type": "function"
		},
		{
			"inputs": [
				{
					"internalType": "uint256",
					"name": "",
					"type": "uint256"
				}
			],
			"name": "admins",
			"outputs": [
				{
					"internalType": "address",
					"name": "",
					"type": "address"
				}
			],
			"stateMutability": "view",
			"type": "function"
		},
		{
			"inputs": [
				{
					"internalType": "address[]",
					"name": "users",
					"type": "address[]"
				},
				{
					"internalType": "address[]",
					"name": "_newSmartAccounts",
					"type": "address[]"
				}
			],
			"name": "batchSetSmartAccounts",
			"outputs": [
				{
					"internalType": "bool",
					"name": "",
					"type": "bool"
				}
			],
			"stateMutability": "nonpayable",
			"type": "function"
		},
		{
			"inputs": [
				{
					"internalType": "address[]",
					"name": "users",
					"type": "address[]"
				},
				{
					"internalType": "int256[]",
					"name": "_liabilities",
					"type": "int256[]"
				}
			],
			"name": "batchUpdate",
			"outputs": [],
			"stateMutability": "nonpayable",
			"type": "function"
		},
		{
			"inputs": [
				{
					"internalType": "address",
					"name": "_user",
					"type": "address"
				},
				{
					"internalType": "string",
					"name": "_username",
					"type": "string"
				}
			],
			"name": "create",
			"outputs": [
				{
					"internalType": "address",
					"name": "user",
					"type": "address"
				},
				{
					"internalType": "address",
					"name": "smartAccount",
					"type": "address"
				}
			],
			"stateMutability": "nonpayable",
			"type": "function"
		},
		{
			"inputs": [
				{
					"internalType": "address[]",
					"name": "users",
					"type": "address[]"
				}
			],
			"name": "credits",
			"outputs": [
				{
					"internalType": "int256[]",
					"name": "",
					"type": "int256[]"
				}
			],
			"stateMutability": "view",
			"type": "function"
		},
		{
			"inputs": [
				{
					"internalType": "uint256",
					"name": "userId",
					"type": "uint256"
				},
				{
					"internalType": "bool",
					"name": "refund",
					"type": "bool"
				}
			],
			"name": "deactivate",
			"outputs": [
				{
					"internalType": "bool",
					"name": "",
					"type": "bool"
				}
			],
			"stateMutability": "nonpayable",
			"type": "function"
		},
		{
			"inputs": [
				{
					"internalType": "address",
					"name": "_token",
					"type": "address"
				},
				{
					"internalType": "address",
					"name": "_to",
					"type": "address"
				},
				{
					"internalType": "uint256",
					"name": "_id",
					"type": "uint256"
				},
				{
					"internalType": "uint256",
					"name": "_amount",
					"type": "uint256"
				}
			],
			"name": "move",
			"outputs": [
				{
					"internalType": "bool",
					"name": "",
					"type": "bool"
				}
			],
			"stateMutability": "nonpayable",
			"type": "function"
		},
		{
			"inputs": [
				{
					"internalType": "address",
					"name": "operator",
					"type": "address"
				},
				{
					"internalType": "address",
					"name": "from",
					"type": "address"
				},
				{
					"internalType": "uint256[]",
					"name": "ids",
					"type": "uint256[]"
				},
				{
					"internalType": "uint256[]",
					"name": "values",
					"type": "uint256[]"
				},
				{
					"internalType": "bytes",
					"name": "data",
					"type": "bytes"
				}
			],
			"name": "onERC1155BatchReceived",
			"outputs": [
				{
					"internalType": "bytes4",
					"name": "",
					"type": "bytes4"
				}
			],
			"stateMutability": "nonpayable",
			"type": "function"
		},
		{
			"inputs": [
				{
					"internalType": "address",
					"name": "operator",
					"type": "address"
				},
				{
					"internalType": "address",
					"name": "from",
					"type": "address"
				},
				{
					"internalType": "uint256",
					"name": "id",
					"type": "uint256"
				},
				{
					"internalType": "uint256",
					"name": "value",
					"type": "uint256"
				},
				{
					"internalType": "bytes",
					"name": "data",
					"type": "bytes"
				}
			],
			"name": "onERC1155Received",
			"outputs": [
				{
					"internalType": "bytes4",
					"name": "",
					"type": "bytes4"
				}
			],
			"stateMutability": "nonpayable",
			"type": "function"
		},
		{
			"inputs": [
				{
					"internalType": "address",
					"name": "operator",
					"type": "address"
				},
				{
					"internalType": "address",
					"name": "from",
					"type": "address"
				},
				{
					"internalType": "uint256",
					"name": "tokenId",
					"type": "uint256"
				},
				{
					"internalType": "bytes",
					"name": "data",
					"type": "bytes"
				}
			],
			"name": "onERC721Received",
			"outputs": [
				{
					"internalType": "bytes4",
					"name": "",
					"type": "bytes4"
				}
			],
			"stateMutability": "nonpayable",
			"type": "function"
		},
		{
			"inputs": [
				{
					"internalType": "uint256[]",
					"name": "usersIds",
					"type": "uint256[]"
				},
				{
					"internalType": "int256",
					"name": "amounts",
					"type": "int256"
				}
			],
			"name": "punish",
			"outputs": [],
			"stateMutability": "nonpayable",
			"type": "function"
		},
		{
			"inputs": [
				{
					"internalType": "string",
					"name": "userName",
					"type": "string"
				}
			],
			"name": "registerSelf",
			"outputs": [
				{
					"internalType": "address",
					"name": "smartUserAccount",
					"type": "address"
				}
			],
			"stateMutability": "nonpayable",
			"type": "function"
		},
		{
			"inputs": [
				{
					"internalType": "address[]",
					"name": "_tokens",
					"type": "address[]"
				},
				{
					"internalType": "uint256[]",
					"name": "_types",
					"type": "uint256[]"
				}
			],
			"name": "registerTokens",
			"outputs": [
				{
					"internalType": "bool",
					"name": "",
					"type": "bool"
				}
			],
			"stateMutability": "nonpayable",
			"type": "function"
		},
		{
			"inputs": [
				{
					"internalType": "address",
					"name": "_admin",
					"type": "address"
				}
			],
			"name": "removeAdmin",
			"outputs": [
				{
					"internalType": "address[]",
					"name": "newAdmins",
					"type": "address[]"
				}
			],
			"stateMutability": "nonpayable",
			"type": "function"
		},
		{
			"inputs": [
				{
					"internalType": "address[]",
					"name": "users",
					"type": "address[]"
				}
			],
			"name": "scores",
			"outputs": [
				{
					"internalType": "int256[]",
					"name": "scores",
					"type": "int256[]"
				}
			],
			"stateMutability": "view",
			"type": "function"
		},
		{
			"inputs": [
				{
					"internalType": "uint256",
					"name": "userId",
					"type": "uint256"
				},
				{
					"internalType": "uint256",
					"name": "minAllocation",
					"type": "uint256"
				}
			],
			"name": "setMinAllocation",
			"outputs": [
				{
					"internalType": "uint256",
					"name": "newMinAllocation",
					"type": "uint256"
				}
			],
			"stateMutability": "nonpayable",
			"type": "function"
		},
		{
			"inputs": [
				{
					"internalType": "address",
					"name": "paymentTokens",
					"type": "address"
				},
				{
					"internalType": "uint256",
					"name": "tokenType",
					"type": "uint256"
				}
			],
			"name": "setPaymentTokens",
			"outputs": [
				{
					"internalType": "address[]",
					"name": "newPaymentTokens",
					"type": "address[]"
				}
			],
			"stateMutability": "nonpayable",
			"type": "function"
		},
		{
			"inputs": [
				{
					"internalType": "uint256",
					"name": "percentageFromAllocation",
					"type": "uint256"
				}
			],
			"name": "setPercentageFromAllocation",
			"outputs": [
				{
					"internalType": "uint256",
					"name": "newPercentageFromAllocation",
					"type": "uint256"
				}
			],
			"stateMutability": "nonpayable",
			"type": "function"
		},
		{
			"inputs": [
				{
					"internalType": "address",
					"name": "tokenAddress",
					"type": "address"
				}
			],
			"name": "setPermittedERC1155Tokens",
			"outputs": [
				{
					"internalType": "address[]",
					"name": "",
					"type": "address[]"
				}
			],
			"stateMutability": "nonpayable",
			"type": "function"
		},
		{
			"inputs": [
				{
					"internalType": "address",
					"name": "tokenAddress",
					"type": "address"
				}
			],
			"name": "setPermittedERC20Tokens",
			"outputs": [
				{
					"internalType": "address[]",
					"name": "newPermittedERC20Tokens",
					"type": "address[]"
				}
			],
			"stateMutability": "nonpayable",
			"type": "function"
		},
		{
			"inputs": [
				{
					"internalType": "address",
					"name": "tokenAddress",
					"type": "address"
				}
			],
			"name": "setPermittedERC721Tokens",
			"outputs": [
				{
					"internalType": "address[]",
					"name": "newPermittedERC721Tokens",
					"type": "address[]"
				}
			],
			"stateMutability": "nonpayable",
			"type": "function"
		},
		{
			"inputs": [
				{
					"internalType": "address",
					"name": "user",
					"type": "address"
				},
				{
					"internalType": "address",
					"name": "newSmartAccount",
					"type": "address"
				}
			],
			"name": "setSmartAccount",
			"outputs": [
				{
					"internalType": "bool",
					"name": "",
					"type": "bool"
				}
			],
			"stateMutability": "nonpayable",
			"type": "function"
		},
		{
			"inputs": [
				{
					"internalType": "address",
					"name": "user",
					"type": "address"
				}
			],
			"name": "smartAccount",
			"outputs": [
				{
					"internalType": "address",
					"name": "",
					"type": "address"
				}
			],
			"stateMutability": "view",
			"type": "function"
		},
		{
			"inputs": [
				{
					"internalType": "bytes4",
					"name": "interfaceId",
					"type": "bytes4"
				}
			],
			"name": "supportsInterface",
			"outputs": [
				{
					"internalType": "bool",
					"name": "",
					"type": "bool"
				}
			],
			"stateMutability": "view",
			"type": "function"
		},
		{
			"inputs": [
				{
					"internalType": "address",
					"name": "token",
					"type": "address"
				}
			],
			"name": "tokenToStandard",
			"outputs": [
				{
					"internalType": "uint256",
					"name": "",
					"type": "uint256"
				}
			],
			"stateMutability": "view",
			"type": "function"
		},
		{
			"inputs": [
				{
					"internalType": "address",
					"name": "user",
					"type": "address"
				}
			],
			"name": "user",
			"outputs": [
				{
					"internalType": "bool",
					"name": "",
					"type": "bool"
				}
			],
			"stateMutability": "view",
			"type": "function"
		},
		{
			"stateMutability": "payable",
			"type": "receive"
		}
	]
}