{
	"data": {
		"bytecode": {
			"linkReferences": {},
			"object": "610180604081815234620001e5576200001882620001e9565b60078252602082019066466163746f727960c81b82528051926200003c84620001e9565b6001845260208401603160f81b8152620000568262000205565b936101209485526200006886620003d2565b92610140938452519020948560e05251902092610100948486524660a05283519460208601917f8b73c3c69bb8fe3d512ecc4cf759cc79239f7b179b0ffacaa9a75d522b39400f83528587015260608601524660808601523060a086015260a0855260c085019480861060018060401b03871117620001d1578585525190206080523060c05261016092308452600160095560045468010000000000000000811015620001d1576001810180600455811015620001bd577f8a35acfbc15ff81a39ae7d344fd709f28e8600b4aa8c65c6b64bfe7fe36bd19b0180546001600160a01b031916309081179091555f908152600560205220805460ff191660011790556122e8948562000574863960805185611cca015260a05185611d85015260c05185611c94015260e05185611d1901525184611d3f0152518361105b01525182611084015251818181610ca30152610f730152f35b634e487b7160e01b5f52603260045260245ffd5b634e487b7160e01b5f52604160045260245ffd5b5f80fd5b604081019081106001600160401b03821117620001d157604052565b80516020919082811015620002a1575090601f8251116200024257808251920151908083106200023457501790565b825f19910360031b1b161790565b90604051809263305a27a960e01b82528060048301528251908160248401525f935b82851062000287575050604492505f838284010152601f80199101168101030190fd5b848101820151868601604401529381019385935062000264565b6001600160401b038111620001d1575f928354926001938481811c91168015620003c7575b83821014620003b357601f81116200037d575b5081601f841160011462000317575092829391839286946200030b575b50501b915f199060031b1c191617905560ff90565b015192505f80620002f6565b919083601f1981168780528488209488905b8883831062000362575050501062000349575b505050811b01905560ff90565b01515f1960f88460031b161c191690555f80806200033c565b85870151885590960195948501948793509081019062000329565b85805284601f848820920160051c820191601f860160051c015b828110620003a7575050620002d9565b87815501859062000397565b634e487b7160e01b86526022600452602486fd5b90607f1690620002c6565b8051602090818110156200045e5750601f825111620003ff57808251920151908083106200023457501790565b90604051809263305a27a960e01b82528060048301528251908160248401525f935b82851062000444575050604492505f838284010152601f80199101168101030190fd5b848101820151868601604401529381019385935062000421565b9192916001600160401b038111620001d15760019182548381811c9116801562000568575b828210146200055457601f81116200051e575b5080601f8311600114620004d45750819293945f92620004c8575b50505f19600383901b1c191690821b17905560ff90565b015190505f80620004b1565b90601f19831695845f52825f20925f905b8882106200050657505083859697106200034957505050811b01905560ff90565b808785968294968601518155019501930190620004e5565b835f5283601f835f20920160051c820191601f850160051c015b8281106200054857505062000496565b5f815501849062000538565b634e487b7160e01b5f52602260045260245ffd5b90607f16906200048356fe60806040526004361015610011575f80fd5b5f3560e01c80630ab9bb621461022a57806310c030a31461019e57806314bfd6d0146102255780631785f53c1461022057806319d8d38c1461021b5780631a0361fb146102165780631bdf413b14610211578063425385d51461020c57806346e7ad991461020757806348971acd14610202578063508aa6d9146101fd57806350ac2451146101f85780635709d1151461019e578063572b6c05146101f35780635a1320bd146101ee57806363a846f8146101e95780636b2b1d46146101e457806370480275146101df5780637da0a877146101da5780637ecebe00146101d55780638381f58a146101d057806384b0196e146101cb5780638aeb602a146101c65780639f56d135146101c1578063a87430ba146101bc578063b37bf09c146101b7578063b66c484e146101b2578063be500fb9146101ad578063c2bb8120146101a8578063ccf96b4a146101a3578063de68a0011461019e578063df905caf14610199578063f6d8a744146101945763f9e937711461018f575f80fd5b611649565b61160c565b611401565b6102e0565b61130b565b6112d0565b6111fe565b6111e2565b6111b2565b611172565b611157565b61113b565b611041565b610fe6565b610fa2565b610f5e565b610ed6565b610dff565b610dbf565b610cca565b610c76565b610c5a565b610b32565b610a3f565b6108bf565b610771565b610665565b61051b565b6104d9565b61038f565b610348565b346102455760203660031901126102455760206040515f8152f35b5f80fd5b6001600160a01b0381160361024557565b602060408183019282815260605180945201916080915f5b828110610280575050505090565b83516001600160a01b031685529381019392810192600101610272565b602090816040818301928281528551809452019301915f5b8281106102c3575050505090565b83516001600160a01b0316855293810193928101926001016102b5565b34610245576020366003190112610245576102fc600435610249565b604051806103098161025a565b0390f35b634e487b7160e01b5f52603260045260245ffd5b6004548110156103435760045f525f8051602061229383398151915201905f90565b61030d565b34610245576020366003190112610245576004356004548110156102455760045f525f8051602061229383398151915201546040516001600160a01b039091168152602090f35b34610245576020366003190112610245576004356103ac81610249565b600160095403610496575f6009556103c33361224a565b6001600160a01b0381165f8181526005602052604090205460ff16156104845761045b91610408915f52600560205261040360405f2060ff198154169055565b6121fb565b61043c61043661042161041c600454612182565b610321565b905460039190911b1c6001600160a01b031690565b91610321565b90919082549060031b9160018060a01b03809116831b921b1916179055565b610463612190565b61030961046e612121565b6104786001600955565b6040519182918261029d565b604051638129bbcd60e01b8152600490fd5b6040516303cb96db60e21b8152600490fd5b6003199060208183011261024557600435916001600160401b038311610245578260e0920301126102455760040190565b346102455760206104f16104ec366104a8565b6116e5565b509082610513575b508161050b575b506040519015158152f35b90505f610500565b91505f6104f9565b3461024557606036600319011261024557610537600435610249565b610542602435610249565b60206040515f8152f35b9181601f84011215610245578235916001600160401b038311610245576020838186019501011161024557565b9181601f84011215610245578235916001600160401b038311610245576020808501948460051b01011161024557565b60643590811515820361024557565b60a43590811515820361024557565b60e43590811515820361024557565b6101643590811515820361024557565b6102043590811515820361024557565b60443590811515820361024557565b60843590811515820361024557565b60c43590811515820361024557565b6101443590811515820361024557565b6101e43590811515820361024557565b6101a4359060ff8216820361024557565b610184359060ff8216820361024557565b3461024557610220366003190112610245576001600160401b036004803582811161024557610697903690830161054c565b5050602435828111610245576106b09036908301610579565b50506106ba6105a9565b50608435828111610245576106d29036908301610579565b50506106dc6105b8565b5060c435828111610245576106f49036908301610579565b50506106fe6105c7565b5061010435828111610245576107179036908301610579565b5050610144359182116102455761073091369101610579565b505061073a6105d6565b50610743610643565b5061074c6105e6565b5061075561227d565b604080516001600160a01b039384168152919092166020820152f35b3461024557610200366003190112610245576001600160401b0360048035828111610245576107a3903690830161054c565b50506107ad6105f6565b50606435828111610245576107c59036908301610579565b50506107cf610605565b5060a435828111610245576107e79036908301610579565b50506107f1610614565b5060e435828111610245576108099036908301610579565b5050610124359182116102455761082291369101610579565b505061082c610623565b50610835610654565b5061083e610633565b506040518061030981905f602060408401938281520152565b602060031982011261024557600435906001600160401b0382116102455761088191600401610579565b9091565b602060408183019282815260605180945201916080915f5b8281106108ab575050505090565b83518552938101939281019260010161089d565b34610245576108cd36610857565b5f91825b8281106108e5576040518061030981610885565b61093661092a61092a61091d6109046108ff868989611fb8565b6116c5565b6001600160a01b03165f90815260076020526040902090565b546001600160a01b031690565b6001600160a01b031690565b90604051809263efedc66960e01b825281600460209586935afa9081156109a0576001938792610973575b505061096c82611fd7565b52016108d1565b6109929250803d10610999575b61098a8183610a07565b810190611fc8565b5f80610961565b503d610980565b611bde565b634e487b7160e01b5f52604160045260245ffd5b6001600160401b0381116109cc57604052565b6109a5565b602081019081106001600160401b038211176109cc57604052565b60c081019081106001600160401b038211176109cc57604052565b90601f801991011681019081106001600160401b038211176109cc57604052565b6001600160401b0381116109cc5760051b60200190565b34610245576040366003190112610245576001600160401b036004358181116102455736602382011215610245578060040135610a7b81610a28565b91610a896040519384610a07565b81835260209160248385019160051b8301019136831161024557602401905b828210610ad3576024358587821161024557610acb610ad1923690600401610579565b91611ffe565b005b8380918335610ae181610249565b815201910190610aa8565b6040600319820112610245576001600160401b03916004358381116102455782610b1891600401610579565b939093926024359182116102455761088191600401610579565b3461024557610b4036610aec565b9290916001938460095403610496575f600955610b5c3361224a565b5f5b828110610b7a57610b6f6001600955565b6040515f8152602090f35b610bb5610bb1610baa610b916108ff85888a611fb8565b6001600160a01b03165f90815260066020526040902090565b5460ff1690565b1590565b610c1e57610bd061092a61091d6109046108ff85888a611fb8565b15610c1e5780610c18610be86108ff8994868a611fb8565b610bf96109046108ff85898b611fb8565b80546001600160a01b0319166001600160a01b03909216919091179055565b01610b5e565b610c2f6108ff610c56928587611fb8565b604051632e86c5bb60e21b81526001600160a01b0390911660048201529081906024820190565b0390fd5b3461024557604036600319011261024557610542602435610249565b34610245576020366003190112610245576020600435610c9581610249565b6040519060018060a01b03807f0000000000000000000000000000000000000000000000000000000000000000169116148152f35b3461024557610cd836610857565b906001908160095403610496575f9283600955610cf43361224a565b835b818110610d0b5784610d086001600955565b80f35b610d22610bb1610baa610b916108ff858789611fb8565b610dae57610d3d61092a61091d6109046108ff858789611fb8565b15610dae5780610d5e61092a61092a61091d6109046108ff8b97898b611fb8565b803b15610daa578290600460405180958193631fa5d41d60e11b83525af19182156109a0578592610d91575b5001610cf6565b80610d9e610da4926109b9565b80610f54565b5f610d8a565b8280fd5b6108ff90610c2f92610c5694611fb8565b3461024557602036600319011261024557600435610ddc81610249565b60018060a01b03165f526005602052602060ff60405f2054166040519015158152f35b3461024557610e0d36610857565b906001908160095403610496575f9283600955610e293361224a565b835b818110610e3d5784610d086001600955565b610e54610bb1610baa610b916108ff858789611fb8565b610dae57610e6f61092a61091d6109046108ff858789611fb8565b15610dae5780610e9061092a61092a61091d6109046108ff8b97898b611fb8565b803b15610daa578290600460405180958193638456cb5960e01b83525af19182156109a0578592610ec3575b5001610e2b565b80610d9e610ed0926109b9565b5f610ebc565b3461024557602036600319011261024557600435610ef381610249565b600160095403610496575f600955610f0a3361224a565b6001600160a01b0381165f908152600560205260409020805460ff1916600117905560045490680100000000000000008210156109cc5761043c8260016104639401600455610321565b5f91031261024557565b34610245575f366003190112610245576040517f00000000000000000000000000000000000000000000000000000000000000006001600160a01b03168152602090f35b34610245576020366003190112610245576020610fde600435610fc481610249565b6001600160a01b03165f9081526002602052604090205490565b604051908152f35b34610245575f366003190112610245576020600354604051908152f35b91908251928382525f5b84811061102d575050825f602080949584010152601f8019910116010190565b60208183018101518483018201520161100d565b34610245575f80600319360112611138576110ea9061107f7f0000000000000000000000000000000000000000000000000000000000000000611dab565b6110a87f0000000000000000000000000000000000000000000000000000000000000000611ea8565b91604051916110b6836109d1565b818352604051948594600f60f81b86526110dc60209360e08589015260e0880190611003565b908682036040880152611003565b904660608601523060808601528260a086015284820360c08601528080855193848152019401925b82811061112157505050500390f35b835185528695509381019392810192600101611112565b80fd5b346102455761114936610aec565b5050505060206040515f8152f35b346102455760403660031901126102455760206040515f8152f35b346102455760203660031901126102455760043561118f81610249565b60018060a01b03165f526006602052602060ff60405f2054166040519015158152f35b34610245576040366003190112610245576004356001600160401b03811161024557610ad1903690600401610579565b34610245576040366003190112610245576102fc600435610249565b346102455761120c36610857565b905f91825b818110611225576040518061030981610885565b61123c610bb1610baa610b916108ff858789611fb8565b610dae5761125761092a61091d6109046108ff858789611fb8565b15610dae5761127661092a61092a61091d6109046108ff86888a611fb8565b90604051809263281b420f60e21b825281600460209586935afa9081156109a05760019387926112b3575b50506112ac82611fd7565b5201611211565b6112c99250803d106109995761098a8183610a07565b5f806112a1565b34610245576020366003190112610245576004356112ed81610249565b60018060a01b03165f526008602052602060405f2054604051908152f35b604080600319360112610245576004356001600160401b03811161024557611337903690600401610579565b906024359261134584610249565b5f92839283916001600160a01b03871615915b81841061139b575050505034820361137c5750508061137357005b610ad191611b2c565b516370647f7960e01b8152600481019190915234602482015260449150fd5b909192946113b790856113af888686611696565b0135906116b8565b946113cf610bb1856113ca848787611696565b61190e565b6113e5575b6113dd90611683565b929190611358565b956113f96113dd91866113af8a8787611696565b9690506113d4565b61140a366104a8565b604090818101358034036115ed575f91611423816116e5565b92919082156115b157811561157c57801561153f5782611537575b508161152f575b50611465575b5050501561145557005b51630a12f52160e11b8152600490fd5b6001600160a01b0381165f90815260026020526040902080546001810190915561150c947f842fb24a83793558587a3dab2be7674da4a51d09c5542d6dd354e5d0ea70813c9392918190956114fb6114bf602087016116c5565b918a6114ce60a089018961184a565b6114ed6114dd8b9693966116c5565b93519384926020840197886118eb565b03601f198101835282610a07565b51926060880135f19485925a611b1a565b855193845290151560208401526001600160a01b031691604090a25f808061144b565b90505f611445565b91505f61143e565b8784610c5661154d886116c5565b9251636422d02b60e11b81526001600160a01b0392831660048201529190921660248201529081906044820190565b610c568861158c608088016116d2565b9051634a777ac560e11b815265ffffffffffff90911660048201529081906024820190565b610c56886115c1602088016116c5565b905163d2650cd160e01b81526001600160a01b0390911660048201523060248201529081906044820190565b82516370647f7960e01b81526004810191909152346024820152604490fd5b3461024557602036600319011261024557602060043561162b81610249565b60018060a01b038091165f526007825260405f205416604051908152f35b3461024557604036600319011261024557602435801515036102455760206040515f8152f35b634e487b7160e01b5f52601160045260245ffd5b5f1981146116915760010190565b61166f565b91908110156103435760051b8101359060de1981360301821215610245570190565b9190820180921161169157565b356116cf81610249565b90565b3565ffffffffffff811681036102455790565b906118048235916116f583610249565b602084019261180f6118096117f06117da873561171181610249565b896117d2611721610fc4836116c5565b976114ed60808401996117338b6116d2565b61174a61174360a088018861184a565b3691611897565b6020815191012091604051968795602087019960406060840135930135918b9365ffffffffffff9360e09692999897939961010087019a7f7f96328b83274ebc7c1cf4f7a3abda602b51a78b7fa1d86a2ce353d75e587cac885260018060a01b0380921660208901521660408701526060860152608085015260a08401521660c08201520152565b519020611c6b565b6117ea61174360c08b018b61184a565b90611ba4565b506117fd819792976118cd565b15966116c5565b611ab4565b916116d2565b9484611829575b509365ffffffffffff4291161015929190565b61183891945061092a906116c5565b6001600160a01b03831614925f611816565b903590601e198136030182121561024557018035906001600160401b0382116102455760200191813603831361024557565b6001600160401b0381116109cc57601f01601f191660200190565b9291926118a38261187c565b916118b16040519384610a07565b829481845281830111610245578281602093845f960137010152565b600411156118d757565b634e487b7160e01b5f52602160045260245ffd5b826014949392823701906bffffffffffffffffffffffff199060601b1681520190565b91905f9261191b816116e5565b946119ff575b826119f7575b50816119ef575b50611937575050565b6001600160a01b0382165f9081526002602052604090208054600181019091556119d394507f842fb24a83793558587a3dab2be7674da4a51d09c5542d6dd354e5d0ea70813c9190925f8061198e602085016116c5565b61199b60a086018661184a565b6119bc6119a7886116c5565b916114ed6040519384926020840196876118eb565b51916040870135906060880135f19586925a611b1a565b6040805194855291151560208501526001600160a01b031692a2565b90505f61192e565b91505f611927565b8215611a78578115611a4357806119215784611a1a856116c5565b604051636422d02b60e11b81526001600160a01b03928316600482015291166024820152604490fd5b610c56611a52608086016116d2565b604051634a777ac560e11b815265ffffffffffff90911660048201529081906024820190565b610c56611a87602086016116c5565b60405163d2650cd160e01b81526001600160a01b0390911660048201523060248201529081906044820190565b60405190602082019063572b6c0560e01b82523060248401526024835260608301918383106001600160401b038411176109cc576020935f9360405251915afa5f513d82611b0e575b5081611b07575090565b9050151590565b6020111591505f611afd565b906060603f9101350411611b2a57565bfe5b814710611b8c575f918291829182916001600160a01b03165af13d15611b87573d611b568161187c565b90611b646040519283610a07565b81525f60203d92013e5b15611b7557565b604051630a12f52160e11b8152600490fd5b611b6e565b60405163cd78605960e01b8152306004820152602490fd5b8151919060418303611bd457611bcd9250602082015190606060408401519301515f1a90611be9565b9192909190565b50505f9160029190565b6040513d5f823e3d90fd5b91907f7fffffffffffffffffffffffffffffff5d576e7357a4501ddfe92f46681b20a08411611c6057926020929160ff6080956040519485521684840152604083015260608201525f92839182805260015afa156109a05780516001600160a01b03811615611c5757918190565b50809160019190565b5050505f9160039190565b604290611c76611c91565b906040519161190160f01b8352600283015260228201522090565b307f00000000000000000000000000000000000000000000000000000000000000006001600160a01b03161480611d82575b15611cec577f000000000000000000000000000000000000000000000000000000000000000090565b60405160208101907f8b73c3c69bb8fe3d512ecc4cf759cc79239f7b179b0ffacaa9a75d522b39400f82527f000000000000000000000000000000000000000000000000000000000000000060408201527f000000000000000000000000000000000000000000000000000000000000000060608201524660808201523060a082015260a08152611d7c816109ec565b51902090565b507f00000000000000000000000000000000000000000000000000000000000000004614611cc3565b60ff8114611dbc576116cf90611f72565b506040515f805490600182811c92818116918215611e9e575b6020918286108414611e8a57858752869493602086019392918115611e6b5750600114611e0c575b5050506116cf92500382610a07565b925093611e395f80527f290decd9548b62a8d60345a988386fc84ba6bc95484008f6362f93160ef3e56390565b945f935b828510611e55575050506116cf9350015f8080611dfd565b8654858501529586019587955093810193611e3d565b925050506116cf9491925060ff19168252151560051b015f8080611dfd565b634e487b7160e01b85526022600452602485fd5b93607f1693611dd5565b60ff8114611eb9576116cf90611f72565b506040516001805480821c915f91808216918215611f68575b6020918286108414611e8a57858752869493602086019392918115611e6b5750600114611f08575050506116cf92500382610a07565b925093611f3660015f527fb10e2d527612073b26eecdfd717e6a320cf44b4afac2b0732d9fcbe2b7fa0cf690565b945f935b828510611f52575050506116cf9350015f8080611dfd565b8654858501529586019587955093810193611f3a565b93607f1693611ed2565b60ff811690601f8211611fa65760405191604083018381106001600160401b038211176109cc576040528252602082015290565b604051632cd44ac360e21b8152600490fd5b91908110156103435760051b0190565b90816020910312610245575190565b6060518110156103435760051b60800190565b80518210156103435760209160051b010190565b90916001928360095403610496575f918260095561201b3361224a565b83519381850361210f57835b858110612041575050505050505061203f6001600955565b565b612064610bb1610baa610b916120578587611fea565b516001600160a01b031690565b6120ff5761207e61092a61091d6109046120578587611fea565b156120ff5761209c61092a61092a61091d6109046120578688611fea565b6120a7828587611fb8565b35813b156120fb57604051636299a6ef60e01b81526004810191909152919086908390602490829084905af19182156109a05788926120e8575b5001612027565b80610d9e6120f5926109b9565b5f6120e1565b8680fd5b612057610c2f91610c5693611fea565b60405163512509d360e11b8152600490fd5b60405190600454808352826020918282019060045f525f80516020612293833981519152935f905b82821061215f5750505061203f92500383610a07565b85546001600160a01b031684526001958601958895509381019390910190612149565b5f1981019190821161169157565b60045480156121e7575f1981019080821015610343577f8a35acfbc15ff81a39ae7d344fd709f28e8600b4aa8c65c6b64bfe7fe36bd19a9060045f52016bffffffffffffffffffffffff60a01b8154169055600455565b634e487b7160e01b5f52603160045260245ffd5b905f80926004805492805b848110612214575050505050565b8282525f805160206122938339815191528101546001600160a01b0385811691161461224257600101612206565b955050505050565b6001600160a01b03165f9081526005602052604090205460ff161561226b57565b6040516331696e9760e21b8152600490fd5b600160095403610496575f905f90600160095556fe8a35acfbc15ff81a39ae7d344fd709f28e8600b4aa8c65c6b64bfe7fe36bd19ba26469706673582212205d15700c64c21533f56a2877e229ddfdee8a85140d8ebf0cf817df5f21e7bf4864736f6c63430008140033",
			"opcodes": "PUSH2 0x180 PUSH1 0x40 DUP2 DUP2 MSTORE CALLVALUE PUSH3 0x1E5 JUMPI PUSH3 0x18 DUP3 PUSH3 0x1E9 JUMP JUMPDEST PUSH1 0x7 DUP3 MSTORE PUSH1 0x20 DUP3 ADD SWAP1 PUSH7 0x466163746F7279 PUSH1 0xC8 SHL DUP3 MSTORE DUP1 MLOAD SWAP3 PUSH3 0x3C DUP5 PUSH3 0x1E9 JUMP JUMPDEST PUSH1 0x1 DUP5 MSTORE PUSH1 0x20 DUP5 ADD PUSH1 0x31 PUSH1 0xF8 SHL DUP2 MSTORE PUSH3 0x56 DUP3 PUSH3 0x205 JUMP JUMPDEST SWAP4 PUSH2 0x120 SWAP5 DUP6 MSTORE PUSH3 0x68 DUP7 PUSH3 0x3D2 JUMP JUMPDEST SWAP3 PUSH2 0x140 SWAP4 DUP5 MSTORE MLOAD SWAP1 KECCAK256 SWAP5 DUP6 PUSH1 0xE0 MSTORE MLOAD SWAP1 KECCAK256 SWAP3 PUSH2 0x100 SWAP5 DUP5 DUP7 MSTORE CHAINID PUSH1 0xA0 MSTORE DUP4 MLOAD SWAP5 PUSH1 0x20 DUP7 ADD SWAP2 PUSH32 0x8B73C3C69BB8FE3D512ECC4CF759CC79239F7B179B0FFACAA9A75D522B39400F DUP4 MSTORE DUP6 DUP8 ADD MSTORE PUSH1 0x60 DUP7 ADD MSTORE CHAINID PUSH1 0x80 DUP7 ADD MSTORE ADDRESS PUSH1 0xA0 DUP7 ADD MSTORE PUSH1 0xA0 DUP6 MSTORE PUSH1 0xC0 DUP6 ADD SWAP5 DUP1 DUP7 LT PUSH1 0x1 DUP1 PUSH1 0x40 SHL SUB DUP8 GT OR PUSH3 0x1D1 JUMPI DUP6 DUP6 MSTORE MLOAD SWAP1 KECCAK256 PUSH1 0x80 MSTORE ADDRESS PUSH1 0xC0 MSTORE PUSH2 0x160 SWAP3 ADDRESS DUP5 MSTORE PUSH1 0x1 PUSH1 0x9 SSTORE PUSH1 0x4 SLOAD PUSH9 0x10000000000000000 DUP2 LT ISZERO PUSH3 0x1D1 JUMPI PUSH1 0x1 DUP2 ADD DUP1 PUSH1 0x4 SSTORE DUP2 LT ISZERO PUSH3 0x1BD JUMPI PUSH32 0x8A35ACFBC15FF81A39AE7D344FD709F28E8600B4AA8C65C6B64BFE7FE36BD19B ADD DUP1 SLOAD PUSH1 0x1 PUSH1 0x1 PUSH1 0xA0 SHL SUB NOT AND ADDRESS SWAP1 DUP2 OR SWAP1 SWAP2 SSTORE PUSH0 SWAP1 DUP2 MSTORE PUSH1 0x5 PUSH1 0x20 MSTORE KECCAK256 DUP1 SLOAD PUSH1 0xFF NOT AND PUSH1 0x1 OR SWAP1 SSTORE PUSH2 0x22E8 SWAP5 DUP6 PUSH3 0x574 DUP7 CODECOPY PUSH1 0x80 MLOAD DUP6 PUSH2 0x1CCA ADD MSTORE PUSH1 0xA0 MLOAD DUP6 PUSH2 0x1D85 ADD MSTORE PUSH1 0xC0 MLOAD DUP6 PUSH2 0x1C94 ADD MSTORE PUSH1 0xE0 MLOAD DUP6 PUSH2 0x1D19 ADD MSTORE MLOAD DUP5 PUSH2 0x1D3F ADD MSTORE MLOAD DUP4 PUSH2 0x105B ADD MSTORE MLOAD DUP3 PUSH2 0x1084 ADD MSTORE MLOAD DUP2 DUP2 DUP2 PUSH2 0xCA3 ADD MSTORE PUSH2 0xF73 ADD MSTORE RETURN JUMPDEST PUSH4 0x4E487B71 PUSH1 0xE0 SHL PUSH0 MSTORE PUSH1 0x32 PUSH1 0x4 MSTORE PUSH1 0x24 PUSH0 REVERT JUMPDEST PUSH4 0x4E487B71 PUSH1 0xE0 SHL PUSH0 MSTORE PUSH1 0x41 PUSH1 0x4 MSTORE PUSH1 0x24 PUSH0 REVERT JUMPDEST PUSH0 DUP1 REVERT JUMPDEST PUSH1 0x40 DUP2 ADD SWAP1 DUP2 LT PUSH1 0x1 PUSH1 0x1 PUSH1 0x40 SHL SUB DUP3 GT OR PUSH3 0x1D1 JUMPI PUSH1 0x40 MSTORE JUMP JUMPDEST DUP1 MLOAD PUSH1 0x20 SWAP2 SWAP1 DUP3 DUP2 LT ISZERO PUSH3 0x2A1 JUMPI POP SWAP1 PUSH1 0x1F DUP3 MLOAD GT PUSH3 0x242 JUMPI DUP1 DUP3 MLOAD SWAP3 ADD MLOAD SWAP1 DUP1 DUP4 LT PUSH3 0x234 JUMPI POP OR SWAP1 JUMP JUMPDEST DUP3 PUSH0 NOT SWAP2 SUB PUSH1 0x3 SHL SHL AND OR SWAP1 JUMP JUMPDEST SWAP1 PUSH1 0x40 MLOAD DUP1 SWAP3 PUSH4 0x305A27A9 PUSH1 0xE0 SHL DUP3 MSTORE DUP1 PUSH1 0x4 DUP4 ADD MSTORE DUP3 MLOAD SWAP1 DUP2 PUSH1 0x24 DUP5 ADD MSTORE PUSH0 SWAP4 JUMPDEST DUP3 DUP6 LT PUSH3 0x287 JUMPI POP POP PUSH1 0x44 SWAP3 POP PUSH0 DUP4 DUP3 DUP5 ADD ADD MSTORE PUSH1 0x1F DUP1 NOT SWAP2 ADD AND DUP2 ADD SUB ADD SWAP1 REVERT JUMPDEST DUP5 DUP2 ADD DUP3 ADD MLOAD DUP7 DUP7 ADD PUSH1 0x44 ADD MSTORE SWAP4 DUP2 ADD SWAP4 DUP6 SWAP4 POP PUSH3 0x264 JUMP JUMPDEST PUSH1 0x1 PUSH1 0x1 PUSH1 0x40 SHL SUB DUP2 GT PUSH3 0x1D1 JUMPI PUSH0 SWAP3 DUP4 SLOAD SWAP3 PUSH1 0x1 SWAP4 DUP5 DUP2 DUP2 SHR SWAP2 AND DUP1 ISZERO PUSH3 0x3C7 JUMPI JUMPDEST DUP4 DUP3 LT EQ PUSH3 0x3B3 JUMPI PUSH1 0x1F DUP2 GT PUSH3 0x37D JUMPI JUMPDEST POP DUP2 PUSH1 0x1F DUP5 GT PUSH1 0x1 EQ PUSH3 0x317 JUMPI POP SWAP3 DUP3 SWAP4 SWAP2 DUP4 SWAP3 DUP7 SWAP5 PUSH3 0x30B JUMPI JUMPDEST POP POP SHL SWAP2 PUSH0 NOT SWAP1 PUSH1 0x3 SHL SHR NOT AND OR SWAP1 SSTORE PUSH1 0xFF SWAP1 JUMP JUMPDEST ADD MLOAD SWAP3 POP PUSH0 DUP1 PUSH3 0x2F6 JUMP JUMPDEST SWAP2 SWAP1 DUP4 PUSH1 0x1F NOT DUP2 AND DUP8 DUP1 MSTORE DUP5 DUP9 KECCAK256 SWAP5 DUP9 SWAP1 JUMPDEST DUP9 DUP4 DUP4 LT PUSH3 0x362 JUMPI POP POP POP LT PUSH3 0x349 JUMPI JUMPDEST POP POP POP DUP2 SHL ADD SWAP1 SSTORE PUSH1 0xFF SWAP1 JUMP JUMPDEST ADD MLOAD PUSH0 NOT PUSH1 0xF8 DUP5 PUSH1 0x3 SHL AND SHR NOT AND SWAP1 SSTORE PUSH0 DUP1 DUP1 PUSH3 0x33C JUMP JUMPDEST DUP6 DUP8 ADD MLOAD DUP9 SSTORE SWAP1 SWAP7 ADD SWAP6 SWAP5 DUP6 ADD SWAP5 DUP8 SWAP4 POP SWAP1 DUP2 ADD SWAP1 PUSH3 0x329 JUMP JUMPDEST DUP6 DUP1 MSTORE DUP5 PUSH1 0x1F DUP5 DUP9 KECCAK256 SWAP3 ADD PUSH1 0x5 SHR DUP3 ADD SWAP2 PUSH1 0x1F DUP7 ADD PUSH1 0x5 SHR ADD JUMPDEST DUP3 DUP2 LT PUSH3 0x3A7 JUMPI POP POP PUSH3 0x2D9 JUMP JUMPDEST DUP8 DUP2 SSTORE ADD DUP6 SWAP1 PUSH3 0x397 JUMP JUMPDEST PUSH4 0x4E487B71 PUSH1 0xE0 SHL DUP7 MSTORE PUSH1 0x22 PUSH1 0x4 MSTORE PUSH1 0x24 DUP7 REVERT JUMPDEST SWAP1 PUSH1 0x7F AND SWAP1 PUSH3 0x2C6 JUMP JUMPDEST DUP1 MLOAD PUSH1 0x20 SWAP1 DUP2 DUP2 LT ISZERO PUSH3 0x45E JUMPI POP PUSH1 0x1F DUP3 MLOAD GT PUSH3 0x3FF JUMPI DUP1 DUP3 MLOAD SWAP3 ADD MLOAD SWAP1 DUP1 DUP4 LT PUSH3 0x234 JUMPI POP OR SWAP1 JUMP JUMPDEST SWAP1 PUSH1 0x40 MLOAD DUP1 SWAP3 PUSH4 0x305A27A9 PUSH1 0xE0 SHL DUP3 MSTORE DUP1 PUSH1 0x4 DUP4 ADD MSTORE DUP3 MLOAD SWAP1 DUP2 PUSH1 0x24 DUP5 ADD MSTORE PUSH0 SWAP4 JUMPDEST DUP3 DUP6 LT PUSH3 0x444 JUMPI POP POP PUSH1 0x44 SWAP3 POP PUSH0 DUP4 DUP3 DUP5 ADD ADD MSTORE PUSH1 0x1F DUP1 NOT SWAP2 ADD AND DUP2 ADD SUB ADD SWAP1 REVERT JUMPDEST DUP5 DUP2 ADD DUP3 ADD MLOAD DUP7 DUP7 ADD PUSH1 0x44 ADD MSTORE SWAP4 DUP2 ADD SWAP4 DUP6 SWAP4 POP PUSH3 0x421 JUMP JUMPDEST SWAP2 SWAP3 SWAP2 PUSH1 0x1 PUSH1 0x1 PUSH1 0x40 SHL SUB DUP2 GT PUSH3 0x1D1 JUMPI PUSH1 0x1 SWAP2 DUP3 SLOAD DUP4 DUP2 DUP2 SHR SWAP2 AND DUP1 ISZERO PUSH3 0x568 JUMPI JUMPDEST DUP3 DUP3 LT EQ PUSH3 0x554 JUMPI PUSH1 0x1F DUP2 GT PUSH3 0x51E JUMPI JUMPDEST POP DUP1 PUSH1 0x1F DUP4 GT PUSH1 0x1 EQ PUSH3 0x4D4 JUMPI POP DUP2 SWAP3 SWAP4 SWAP5 PUSH0 SWAP3 PUSH3 0x4C8 JUMPI JUMPDEST POP POP PUSH0 NOT PUSH1 0x3 DUP4 SWAP1 SHL SHR NOT AND SWAP1 DUP3 SHL OR SWAP1 SSTORE PUSH1 0xFF SWAP1 JUMP JUMPDEST ADD MLOAD SWAP1 POP PUSH0 DUP1 PUSH3 0x4B1 JUMP JUMPDEST SWAP1 PUSH1 0x1F NOT DUP4 AND SWAP6 DUP5 PUSH0 MSTORE DUP3 PUSH0 KECCAK256 SWAP3 PUSH0 SWAP1 JUMPDEST DUP9 DUP3 LT PUSH3 0x506 JUMPI POP POP DUP4 DUP6 SWAP7 SWAP8 LT PUSH3 0x349 JUMPI POP POP POP DUP2 SHL ADD SWAP1 SSTORE PUSH1 0xFF SWAP1 JUMP JUMPDEST DUP1 DUP8 DUP6 SWAP7 DUP3 SWAP5 SWAP7 DUP7 ADD MLOAD DUP2 SSTORE ADD SWAP6 ADD SWAP4 ADD SWAP1 PUSH3 0x4E5 JUMP JUMPDEST DUP4 PUSH0 MSTORE DUP4 PUSH1 0x1F DUP4 PUSH0 KECCAK256 SWAP3 ADD PUSH1 0x5 SHR DUP3 ADD SWAP2 PUSH1 0x1F DUP6 ADD PUSH1 0x5 SHR ADD JUMPDEST DUP3 DUP2 LT PUSH3 0x548 JUMPI POP POP PUSH3 0x496 JUMP JUMPDEST PUSH0 DUP2 SSTORE ADD DUP5 SWAP1 PUSH3 0x538 JUMP JUMPDEST PUSH4 0x4E487B71 PUSH1 0xE0 SHL PUSH0 MSTORE PUSH1 0x22 PUSH1 0x4 MSTORE PUSH1 0x24 PUSH0 REVERT JUMPDEST SWAP1 PUSH1 0x7F AND SWAP1 PUSH3 0x483 JUMP INVALID PUSH1 0x80 PUSH1 0x40 MSTORE PUSH1 0x4 CALLDATASIZE LT ISZERO PUSH2 0x11 JUMPI PUSH0 DUP1 REVERT JUMPDEST PUSH0 CALLDATALOAD PUSH1 0xE0 SHR DUP1 PUSH4 0xAB9BB62 EQ PUSH2 0x22A JUMPI DUP1 PUSH4 0x10C030A3 EQ PUSH2 0x19E JUMPI DUP1 PUSH4 0x14BFD6D0 EQ PUSH2 0x225 JUMPI DUP1 PUSH4 0x1785F53C EQ PUSH2 0x220 JUMPI DUP1 PUSH4 0x19D8D38C EQ PUSH2 0x21B JUMPI DUP1 PUSH4 0x1A0361FB EQ PUSH2 0x216 JUMPI DUP1 PUSH4 0x1BDF413B EQ PUSH2 0x211 JUMPI DUP1 PUSH4 0x425385D5 EQ PUSH2 0x20C JUMPI DUP1 PUSH4 0x46E7AD99 EQ PUSH2 0x207 JUMPI DUP1 PUSH4 0x48971ACD EQ PUSH2 0x202 JUMPI DUP1 PUSH4 0x508AA6D9 EQ PUSH2 0x1FD JUMPI DUP1 PUSH4 0x50AC2451 EQ PUSH2 0x1F8 JUMPI DUP1 PUSH4 0x5709D115 EQ PUSH2 0x19E JUMPI DUP1 PUSH4 0x572B6C05 EQ PUSH2 0x1F3 JUMPI DUP1 PUSH4 0x5A1320BD EQ PUSH2 0x1EE JUMPI DUP1 PUSH4 0x63A846F8 EQ PUSH2 0x1E9 JUMPI DUP1 PUSH4 0x6B2B1D46 EQ PUSH2 0x1E4 JUMPI DUP1 PUSH4 0x70480275 EQ PUSH2 0x1DF JUMPI DUP1 PUSH4 0x7DA0A877 EQ PUSH2 0x1DA JUMPI DUP1 PUSH4 0x7ECEBE00 EQ PUSH2 0x1D5 JUMPI DUP1 PUSH4 0x8381F58A EQ PUSH2 0x1D0 JUMPI DUP1 PUSH4 0x84B0196E EQ PUSH2 0x1CB JUMPI DUP1 PUSH4 0x8AEB602A EQ PUSH2 0x1C6 JUMPI DUP1 PUSH4 0x9F56D135 EQ PUSH2 0x1C1 JUMPI DUP1 PUSH4 0xA87430BA EQ PUSH2 0x1BC JUMPI DUP1 PUSH4 0xB37BF09C EQ PUSH2 0x1B7 JUMPI DUP1 PUSH4 0xB66C484E EQ PUSH2 0x1B2 JUMPI DUP1 PUSH4 0xBE500FB9 EQ PUSH2 0x1AD JUMPI DUP1 PUSH4 0xC2BB8120 EQ PUSH2 0x1A8 JUMPI DUP1 PUSH4 0xCCF96B4A EQ PUSH2 0x1A3 JUMPI DUP1 PUSH4 0xDE68A001 EQ PUSH2 0x19E JUMPI DUP1 PUSH4 0xDF905CAF EQ PUSH2 0x199 JUMPI DUP1 PUSH4 0xF6D8A744 EQ PUSH2 0x194 JUMPI PUSH4 0xF9E93771 EQ PUSH2 0x18F JUMPI PUSH0 DUP1 REVERT JUMPDEST PUSH2 0x1649 JUMP JUMPDEST PUSH2 0x160C JUMP JUMPDEST PUSH2 0x1401 JUMP JUMPDEST PUSH2 0x2E0 JUMP JUMPDEST PUSH2 0x130B JUMP JUMPDEST PUSH2 0x12D0 JUMP JUMPDEST PUSH2 0x11FE JUMP JUMPDEST PUSH2 0x11E2 JUMP JUMPDEST PUSH2 0x11B2 JUMP JUMPDEST PUSH2 0x1172 JUMP JUMPDEST PUSH2 0x1157 JUMP JUMPDEST PUSH2 0x113B JUMP JUMPDEST PUSH2 0x1041 JUMP JUMPDEST PUSH2 0xFE6 JUMP JUMPDEST PUSH2 0xFA2 JUMP JUMPDEST PUSH2 0xF5E JUMP JUMPDEST PUSH2 0xED6 JUMP JUMPDEST PUSH2 0xDFF JUMP JUMPDEST PUSH2 0xDBF JUMP JUMPDEST PUSH2 0xCCA JUMP JUMPDEST PUSH2 0xC76 JUMP JUMPDEST PUSH2 0xC5A JUMP JUMPDEST PUSH2 0xB32 JUMP JUMPDEST PUSH2 0xA3F JUMP JUMPDEST PUSH2 0x8BF JUMP JUMPDEST PUSH2 0x771 JUMP JUMPDEST PUSH2 0x665 JUMP JUMPDEST PUSH2 0x51B JUMP JUMPDEST PUSH2 0x4D9 JUMP JUMPDEST PUSH2 0x38F JUMP JUMPDEST PUSH2 0x348 JUMP JUMPDEST CALLVALUE PUSH2 0x245 JUMPI PUSH1 0x20 CALLDATASIZE PUSH1 0x3 NOT ADD SLT PUSH2 0x245 JUMPI PUSH1 0x20 PUSH1 0x40 MLOAD PUSH0 DUP2 MSTORE RETURN JUMPDEST PUSH0 DUP1 REVERT JUMPDEST PUSH1 0x1 PUSH1 0x1 PUSH1 0xA0 SHL SUB DUP2 AND SUB PUSH2 0x245 JUMPI JUMP JUMPDEST PUSH1 0x20 PUSH1 0x40 DUP2 DUP4 ADD SWAP3 DUP3 DUP2 MSTORE PUSH1 0x60 MLOAD DUP1 SWAP5 MSTORE ADD SWAP2 PUSH1 0x80 SWAP2 PUSH0 JUMPDEST DUP3 DUP2 LT PUSH2 0x280 JUMPI POP POP POP POP SWAP1 JUMP JUMPDEST DUP4 MLOAD PUSH1 0x1 PUSH1 0x1 PUSH1 0xA0 SHL SUB AND DUP6 MSTORE SWAP4 DUP2 ADD SWAP4 SWAP3 DUP2 ADD SWAP3 PUSH1 0x1 ADD PUSH2 0x272 JUMP JUMPDEST PUSH1 0x20 SWAP1 DUP2 PUSH1 0x40 DUP2 DUP4 ADD SWAP3 DUP3 DUP2 MSTORE DUP6 MLOAD DUP1 SWAP5 MSTORE ADD SWAP4 ADD SWAP2 PUSH0 JUMPDEST DUP3 DUP2 LT PUSH2 0x2C3 JUMPI POP POP POP POP SWAP1 JUMP JUMPDEST DUP4 MLOAD PUSH1 0x1 PUSH1 0x1 PUSH1 0xA0 SHL SUB AND DUP6 MSTORE SWAP4 DUP2 ADD SWAP4 SWAP3 DUP2 ADD SWAP3 PUSH1 0x1 ADD PUSH2 0x2B5 JUMP JUMPDEST CALLVALUE PUSH2 0x245 JUMPI PUSH1 0x20 CALLDATASIZE PUSH1 0x3 NOT ADD SLT PUSH2 0x245 JUMPI PUSH2 0x2FC PUSH1 0x4 CALLDATALOAD PUSH2 0x249 JUMP JUMPDEST PUSH1 0x40 MLOAD DUP1 PUSH2 0x309 DUP2 PUSH2 0x25A JUMP JUMPDEST SUB SWAP1 RETURN JUMPDEST PUSH4 0x4E487B71 PUSH1 0xE0 SHL PUSH0 MSTORE PUSH1 0x32 PUSH1 0x4 MSTORE PUSH1 0x24 PUSH0 REVERT JUMPDEST PUSH1 0x4 SLOAD DUP2 LT ISZERO PUSH2 0x343 JUMPI PUSH1 0x4 PUSH0 MSTORE PUSH0 DUP1 MLOAD PUSH1 0x20 PUSH2 0x2293 DUP4 CODECOPY DUP2 MLOAD SWAP2 MSTORE ADD SWAP1 PUSH0 SWAP1 JUMP JUMPDEST PUSH2 0x30D JUMP JUMPDEST CALLVALUE PUSH2 0x245 JUMPI PUSH1 0x20 CALLDATASIZE PUSH1 0x3 NOT ADD SLT PUSH2 0x245 JUMPI PUSH1 0x4 CALLDATALOAD PUSH1 0x4 SLOAD DUP2 LT ISZERO PUSH2 0x245 JUMPI PUSH1 0x4 PUSH0 MSTORE PUSH0 DUP1 MLOAD PUSH1 0x20 PUSH2 0x2293 DUP4 CODECOPY DUP2 MLOAD SWAP2 MSTORE ADD SLOAD PUSH1 0x40 MLOAD PUSH1 0x1 PUSH1 0x1 PUSH1 0xA0 SHL SUB SWAP1 SWAP2 AND DUP2 MSTORE PUSH1 0x20 SWAP1 RETURN JUMPDEST CALLVALUE PUSH2 0x245 JUMPI PUSH1 0x20 CALLDATASIZE PUSH1 0x3 NOT ADD SLT PUSH2 0x245 JUMPI PUSH1 0x4 CALLDATALOAD PUSH2 0x3AC DUP2 PUSH2 0x249 JUMP JUMPDEST PUSH1 0x1 PUSH1 0x9 SLOAD SUB PUSH2 0x496 JUMPI PUSH0 PUSH1 0x9 SSTORE PUSH2 0x3C3 CALLER PUSH2 0x224A JUMP JUMPDEST PUSH1 0x1 PUSH1 0x1 PUSH1 0xA0 SHL SUB DUP2 AND PUSH0 DUP2 DUP2 MSTORE PUSH1 0x5 PUSH1 0x20 MSTORE PUSH1 0x40 SWAP1 KECCAK256 SLOAD PUSH1 0xFF AND ISZERO PUSH2 0x484 JUMPI PUSH2 0x45B SWAP2 PUSH2 0x408 SWAP2 PUSH0 MSTORE PUSH1 0x5 PUSH1 0x20 MSTORE PUSH2 0x403 PUSH1 0x40 PUSH0 KECCAK256 PUSH1 0xFF NOT DUP2 SLOAD AND SWAP1 SSTORE JUMP JUMPDEST PUSH2 0x21FB JUMP JUMPDEST PUSH2 0x43C PUSH2 0x436 PUSH2 0x421 PUSH2 0x41C PUSH1 0x4 SLOAD PUSH2 0x2182 JUMP JUMPDEST PUSH2 0x321 JUMP JUMPDEST SWAP1 SLOAD PUSH1 0x3 SWAP2 SWAP1 SWAP2 SHL SHR PUSH1 0x1 PUSH1 0x1 PUSH1 0xA0 SHL SUB AND SWAP1 JUMP JUMPDEST SWAP2 PUSH2 0x321 JUMP JUMPDEST SWAP1 SWAP2 SWAP1 DUP3 SLOAD SWAP1 PUSH1 0x3 SHL SWAP2 PUSH1 0x1 DUP1 PUSH1 0xA0 SHL SUB DUP1 SWAP2 AND DUP4 SHL SWAP3 SHL NOT AND OR SWAP1 SSTORE JUMP JUMPDEST PUSH2 0x463 PUSH2 0x2190 JUMP JUMPDEST PUSH2 0x309 PUSH2 0x46E PUSH2 0x2121 JUMP JUMPDEST PUSH2 0x478 PUSH1 0x1 PUSH1 0x9 SSTORE JUMP JUMPDEST PUSH1 0x40 MLOAD SWAP2 DUP3 SWAP2 DUP3 PUSH2 0x29D JUMP JUMPDEST PUSH1 0x40 MLOAD PUSH4 0x8129BBCD PUSH1 0xE0 SHL DUP2 MSTORE PUSH1 0x4 SWAP1 REVERT JUMPDEST PUSH1 0x40 MLOAD PUSH4 0x3CB96DB PUSH1 0xE2 SHL DUP2 MSTORE PUSH1 0x4 SWAP1 REVERT JUMPDEST PUSH1 0x3 NOT SWAP1 PUSH1 0x20 DUP2 DUP4 ADD SLT PUSH2 0x245 JUMPI PUSH1 0x4 CALLDATALOAD SWAP2 PUSH1 0x1 PUSH1 0x1 PUSH1 0x40 SHL SUB DUP4 GT PUSH2 0x245 JUMPI DUP3 PUSH1 0xE0 SWAP3 SUB ADD SLT PUSH2 0x245 JUMPI PUSH1 0x4 ADD SWAP1 JUMP JUMPDEST CALLVALUE PUSH2 0x245 JUMPI PUSH1 0x20 PUSH2 0x4F1 PUSH2 0x4EC CALLDATASIZE PUSH2 0x4A8 JUMP JUMPDEST PUSH2 0x16E5 JUMP JUMPDEST POP SWAP1 DUP3 PUSH2 0x513 JUMPI JUMPDEST POP DUP2 PUSH2 0x50B JUMPI JUMPDEST POP PUSH1 0x40 MLOAD SWAP1 ISZERO ISZERO DUP2 MSTORE RETURN JUMPDEST SWAP1 POP PUSH0 PUSH2 0x500 JUMP JUMPDEST SWAP2 POP PUSH0 PUSH2 0x4F9 JUMP JUMPDEST CALLVALUE PUSH2 0x245 JUMPI PUSH1 0x60 CALLDATASIZE PUSH1 0x3 NOT ADD SLT PUSH2 0x245 JUMPI PUSH2 0x537 PUSH1 0x4 CALLDATALOAD PUSH2 0x249 JUMP JUMPDEST PUSH2 0x542 PUSH1 0x24 CALLDATALOAD PUSH2 0x249 JUMP JUMPDEST PUSH1 0x20 PUSH1 0x40 MLOAD PUSH0 DUP2 MSTORE RETURN JUMPDEST SWAP2 DUP2 PUSH1 0x1F DUP5 ADD SLT ISZERO PUSH2 0x245 JUMPI DUP3 CALLDATALOAD SWAP2 PUSH1 0x1 PUSH1 0x1 PUSH1 0x40 SHL SUB DUP4 GT PUSH2 0x245 JUMPI PUSH1 0x20 DUP4 DUP2 DUP7 ADD SWAP6 ADD ADD GT PUSH2 0x245 JUMPI JUMP JUMPDEST SWAP2 DUP2 PUSH1 0x1F DUP5 ADD SLT ISZERO PUSH2 0x245 JUMPI DUP3 CALLDATALOAD SWAP2 PUSH1 0x1 PUSH1 0x1 PUSH1 0x40 SHL SUB DUP4 GT PUSH2 0x245 JUMPI PUSH1 0x20 DUP1 DUP6 ADD SWAP5 DUP5 PUSH1 0x5 SHL ADD ADD GT PUSH2 0x245 JUMPI JUMP JUMPDEST PUSH1 0x64 CALLDATALOAD SWAP1 DUP2 ISZERO ISZERO DUP3 SUB PUSH2 0x245 JUMPI JUMP JUMPDEST PUSH1 0xA4 CALLDATALOAD SWAP1 DUP2 ISZERO ISZERO DUP3 SUB PUSH2 0x245 JUMPI JUMP JUMPDEST PUSH1 0xE4 CALLDATALOAD SWAP1 DUP2 ISZERO ISZERO DUP3 SUB PUSH2 0x245 JUMPI JUMP JUMPDEST PUSH2 0x164 CALLDATALOAD SWAP1 DUP2 ISZERO ISZERO DUP3 SUB PUSH2 0x245 JUMPI JUMP JUMPDEST PUSH2 0x204 CALLDATALOAD SWAP1 DUP2 ISZERO ISZERO DUP3 SUB PUSH2 0x245 JUMPI JUMP JUMPDEST PUSH1 0x44 CALLDATALOAD SWAP1 DUP2 ISZERO ISZERO DUP3 SUB PUSH2 0x245 JUMPI JUMP JUMPDEST PUSH1 0x84 CALLDATALOAD SWAP1 DUP2 ISZERO ISZERO DUP3 SUB PUSH2 0x245 JUMPI JUMP JUMPDEST PUSH1 0xC4 CALLDATALOAD SWAP1 DUP2 ISZERO ISZERO DUP3 SUB PUSH2 0x245 JUMPI JUMP JUMPDEST PUSH2 0x144 CALLDATALOAD SWAP1 DUP2 ISZERO ISZERO DUP3 SUB PUSH2 0x245 JUMPI JUMP JUMPDEST PUSH2 0x1E4 CALLDATALOAD SWAP1 DUP2 ISZERO ISZERO DUP3 SUB PUSH2 0x245 JUMPI JUMP JUMPDEST PUSH2 0x1A4 CALLDATALOAD SWAP1 PUSH1 0xFF DUP3 AND DUP3 SUB PUSH2 0x245 JUMPI JUMP JUMPDEST PUSH2 0x184 CALLDATALOAD SWAP1 PUSH1 0xFF DUP3 AND DUP3 SUB PUSH2 0x245 JUMPI JUMP JUMPDEST CALLVALUE PUSH2 0x245 JUMPI PUSH2 0x220 CALLDATASIZE PUSH1 0x3 NOT ADD SLT PUSH2 0x245 JUMPI PUSH1 0x1 PUSH1 0x1 PUSH1 0x40 SHL SUB PUSH1 0x4 DUP1 CALLDATALOAD DUP3 DUP2 GT PUSH2 0x245 JUMPI PUSH2 0x697 SWAP1 CALLDATASIZE SWAP1 DUP4 ADD PUSH2 0x54C JUMP JUMPDEST POP POP PUSH1 0x24 CALLDATALOAD DUP3 DUP2 GT PUSH2 0x245 JUMPI PUSH2 0x6B0 SWAP1 CALLDATASIZE SWAP1 DUP4 ADD PUSH2 0x579 JUMP JUMPDEST POP POP PUSH2 0x6BA PUSH2 0x5A9 JUMP JUMPDEST POP PUSH1 0x84 CALLDATALOAD DUP3 DUP2 GT PUSH2 0x245 JUMPI PUSH2 0x6D2 SWAP1 CALLDATASIZE SWAP1 DUP4 ADD PUSH2 0x579 JUMP JUMPDEST POP POP PUSH2 0x6DC PUSH2 0x5B8 JUMP JUMPDEST POP PUSH1 0xC4 CALLDATALOAD DUP3 DUP2 GT PUSH2 0x245 JUMPI PUSH2 0x6F4 SWAP1 CALLDATASIZE SWAP1 DUP4 ADD PUSH2 0x579 JUMP JUMPDEST POP POP PUSH2 0x6FE PUSH2 0x5C7 JUMP JUMPDEST POP PUSH2 0x104 CALLDATALOAD DUP3 DUP2 GT PUSH2 0x245 JUMPI PUSH2 0x717 SWAP1 CALLDATASIZE SWAP1 DUP4 ADD PUSH2 0x579 JUMP JUMPDEST POP POP PUSH2 0x144 CALLDATALOAD SWAP2 DUP3 GT PUSH2 0x245 JUMPI PUSH2 0x730 SWAP2 CALLDATASIZE SWAP2 ADD PUSH2 0x579 JUMP JUMPDEST POP POP PUSH2 0x73A PUSH2 0x5D6 JUMP JUMPDEST POP PUSH2 0x743 PUSH2 0x643 JUMP JUMPDEST POP PUSH2 0x74C PUSH2 0x5E6 JUMP JUMPDEST POP PUSH2 0x755 PUSH2 0x227D JUMP JUMPDEST PUSH1 0x40 DUP1 MLOAD PUSH1 0x1 PUSH1 0x1 PUSH1 0xA0 SHL SUB SWAP4 DUP5 AND DUP2 MSTORE SWAP2 SWAP1 SWAP3 AND PUSH1 0x20 DUP3 ADD MSTORE RETURN JUMPDEST CALLVALUE PUSH2 0x245 JUMPI PUSH2 0x200 CALLDATASIZE PUSH1 0x3 NOT ADD SLT PUSH2 0x245 JUMPI PUSH1 0x1 PUSH1 0x1 PUSH1 0x40 SHL SUB PUSH1 0x4 DUP1 CALLDATALOAD DUP3 DUP2 GT PUSH2 0x245 JUMPI PUSH2 0x7A3 SWAP1 CALLDATASIZE SWAP1 DUP4 ADD PUSH2 0x54C JUMP JUMPDEST POP POP PUSH2 0x7AD PUSH2 0x5F6 JUMP JUMPDEST POP PUSH1 0x64 CALLDATALOAD DUP3 DUP2 GT PUSH2 0x245 JUMPI PUSH2 0x7C5 SWAP1 CALLDATASIZE SWAP1 DUP4 ADD PUSH2 0x579 JUMP JUMPDEST POP POP PUSH2 0x7CF PUSH2 0x605 JUMP JUMPDEST POP PUSH1 0xA4 CALLDATALOAD DUP3 DUP2 GT PUSH2 0x245 JUMPI PUSH2 0x7E7 SWAP1 CALLDATASIZE SWAP1 DUP4 ADD PUSH2 0x579 JUMP JUMPDEST POP POP PUSH2 0x7F1 PUSH2 0x614 JUMP JUMPDEST POP PUSH1 0xE4 CALLDATALOAD DUP3 DUP2 GT PUSH2 0x245 JUMPI PUSH2 0x809 SWAP1 CALLDATASIZE SWAP1 DUP4 ADD PUSH2 0x579 JUMP JUMPDEST POP POP PUSH2 0x124 CALLDATALOAD SWAP2 DUP3 GT PUSH2 0x245 JUMPI PUSH2 0x822 SWAP2 CALLDATASIZE SWAP2 ADD PUSH2 0x579 JUMP JUMPDEST POP POP PUSH2 0x82C PUSH2 0x623 JUMP JUMPDEST POP PUSH2 0x835 PUSH2 0x654 JUMP JUMPDEST POP PUSH2 0x83E PUSH2 0x633 JUMP JUMPDEST POP PUSH1 0x40 MLOAD DUP1 PUSH2 0x309 DUP2 SWAP1 PUSH0 PUSH1 0x20 PUSH1 0x40 DUP5 ADD SWAP4 DUP3 DUP2 MSTORE ADD MSTORE JUMP JUMPDEST PUSH1 0x20 PUSH1 0x3 NOT DUP3 ADD SLT PUSH2 0x245 JUMPI PUSH1 0x4 CALLDATALOAD SWAP1 PUSH1 0x1 PUSH1 0x1 PUSH1 0x40 SHL SUB DUP3 GT PUSH2 0x245 JUMPI PUSH2 0x881 SWAP2 PUSH1 0x4 ADD PUSH2 0x579 JUMP JUMPDEST SWAP1 SWAP2 JUMP JUMPDEST PUSH1 0x20 PUSH1 0x40 DUP2 DUP4 ADD SWAP3 DUP3 DUP2 MSTORE PUSH1 0x60 MLOAD DUP1 SWAP5 MSTORE ADD SWAP2 PUSH1 0x80 SWAP2 PUSH0 JUMPDEST DUP3 DUP2 LT PUSH2 0x8AB JUMPI POP POP POP POP SWAP1 JUMP JUMPDEST DUP4 MLOAD DUP6 MSTORE SWAP4 DUP2 ADD SWAP4 SWAP3 DUP2 ADD SWAP3 PUSH1 0x1 ADD PUSH2 0x89D JUMP JUMPDEST CALLVALUE PUSH2 0x245 JUMPI PUSH2 0x8CD CALLDATASIZE PUSH2 0x857 JUMP JUMPDEST PUSH0 SWAP2 DUP3 JUMPDEST DUP3 DUP2 LT PUSH2 0x8E5 JUMPI PUSH1 0x40 MLOAD DUP1 PUSH2 0x309 DUP2 PUSH2 0x885 JUMP JUMPDEST PUSH2 0x936 PUSH2 0x92A PUSH2 0x92A PUSH2 0x91D PUSH2 0x904 PUSH2 0x8FF DUP7 DUP10 DUP10 PUSH2 0x1FB8 JUMP JUMPDEST PUSH2 0x16C5 JUMP JUMPDEST PUSH1 0x1 PUSH1 0x1 PUSH1 0xA0 SHL SUB AND PUSH0 SWAP1 DUP2 MSTORE PUSH1 0x7 PUSH1 0x20 MSTORE PUSH1 0x40 SWAP1 KECCAK256 SWAP1 JUMP JUMPDEST SLOAD PUSH1 0x1 PUSH1 0x1 PUSH1 0xA0 SHL SUB AND SWAP1 JUMP JUMPDEST PUSH1 0x1 PUSH1 0x1 PUSH1 0xA0 SHL SUB AND SWAP1 JUMP JUMPDEST SWAP1 PUSH1 0x40 MLOAD DUP1 SWAP3 PUSH4 0xEFEDC669 PUSH1 0xE0 SHL DUP3 MSTORE DUP2 PUSH1 0x4 PUSH1 0x20 SWAP6 DUP7 SWAP4 GAS STATICCALL SWAP1 DUP2 ISZERO PUSH2 0x9A0 JUMPI PUSH1 0x1 SWAP4 DUP8 SWAP3 PUSH2 0x973 JUMPI JUMPDEST POP POP PUSH2 0x96C DUP3 PUSH2 0x1FD7 JUMP JUMPDEST MSTORE ADD PUSH2 0x8D1 JUMP JUMPDEST PUSH2 0x992 SWAP3 POP DUP1 RETURNDATASIZE LT PUSH2 0x999 JUMPI JUMPDEST PUSH2 0x98A DUP2 DUP4 PUSH2 0xA07 JUMP JUMPDEST DUP2 ADD SWAP1 PUSH2 0x1FC8 JUMP JUMPDEST PUSH0 DUP1 PUSH2 0x961 JUMP JUMPDEST POP RETURNDATASIZE PUSH2 0x980 JUMP JUMPDEST PUSH2 0x1BDE JUMP JUMPDEST PUSH4 0x4E487B71 PUSH1 0xE0 SHL PUSH0 MSTORE PUSH1 0x41 PUSH1 0x4 MSTORE PUSH1 0x24 PUSH0 REVERT JUMPDEST PUSH1 0x1 PUSH1 0x1 PUSH1 0x40 SHL SUB DUP2 GT PUSH2 0x9CC JUMPI PUSH1 0x40 MSTORE JUMP JUMPDEST PUSH2 0x9A5 JUMP JUMPDEST PUSH1 0x20 DUP2 ADD SWAP1 DUP2 LT PUSH1 0x1 PUSH1 0x1 PUSH1 0x40 SHL SUB DUP3 GT OR PUSH2 0x9CC JUMPI PUSH1 0x40 MSTORE JUMP JUMPDEST PUSH1 0xC0 DUP2 ADD SWAP1 DUP2 LT PUSH1 0x1 PUSH1 0x1 PUSH1 0x40 SHL SUB DUP3 GT OR PUSH2 0x9CC JUMPI PUSH1 0x40 MSTORE JUMP JUMPDEST SWAP1 PUSH1 0x1F DUP1 NOT SWAP2 ADD AND DUP2 ADD SWAP1 DUP2 LT PUSH1 0x1 PUSH1 0x1 PUSH1 0x40 SHL SUB DUP3 GT OR PUSH2 0x9CC JUMPI PUSH1 0x40 MSTORE JUMP JUMPDEST PUSH1 0x1 PUSH1 0x1 PUSH1 0x40 SHL SUB DUP2 GT PUSH2 0x9CC JUMPI PUSH1 0x5 SHL PUSH1 0x20 ADD SWAP1 JUMP JUMPDEST CALLVALUE PUSH2 0x245 JUMPI PUSH1 0x40 CALLDATASIZE PUSH1 0x3 NOT ADD SLT PUSH2 0x245 JUMPI PUSH1 0x1 PUSH1 0x1 PUSH1 0x40 SHL SUB PUSH1 0x4 CALLDATALOAD DUP2 DUP2 GT PUSH2 0x245 JUMPI CALLDATASIZE PUSH1 0x23 DUP3 ADD SLT ISZERO PUSH2 0x245 JUMPI DUP1 PUSH1 0x4 ADD CALLDATALOAD PUSH2 0xA7B DUP2 PUSH2 0xA28 JUMP JUMPDEST SWAP2 PUSH2 0xA89 PUSH1 0x40 MLOAD SWAP4 DUP5 PUSH2 0xA07 JUMP JUMPDEST DUP2 DUP4 MSTORE PUSH1 0x20 SWAP2 PUSH1 0x24 DUP4 DUP6 ADD SWAP2 PUSH1 0x5 SHL DUP4 ADD ADD SWAP2 CALLDATASIZE DUP4 GT PUSH2 0x245 JUMPI PUSH1 0x24 ADD SWAP1 JUMPDEST DUP3 DUP3 LT PUSH2 0xAD3 JUMPI PUSH1 0x24 CALLDATALOAD DUP6 DUP8 DUP3 GT PUSH2 0x245 JUMPI PUSH2 0xACB PUSH2 0xAD1 SWAP3 CALLDATASIZE SWAP1 PUSH1 0x4 ADD PUSH2 0x579 JUMP JUMPDEST SWAP2 PUSH2 0x1FFE JUMP JUMPDEST STOP JUMPDEST DUP4 DUP1 SWAP2 DUP4 CALLDATALOAD PUSH2 0xAE1 DUP2 PUSH2 0x249 JUMP JUMPDEST DUP2 MSTORE ADD SWAP2 ADD SWAP1 PUSH2 0xAA8 JUMP JUMPDEST PUSH1 0x40 PUSH1 0x3 NOT DUP3 ADD SLT PUSH2 0x245 JUMPI PUSH1 0x1 PUSH1 0x1 PUSH1 0x40 SHL SUB SWAP2 PUSH1 0x4 CALLDATALOAD DUP4 DUP2 GT PUSH2 0x245 JUMPI DUP3 PUSH2 0xB18 SWAP2 PUSH1 0x4 ADD PUSH2 0x579 JUMP JUMPDEST SWAP4 SWAP1 SWAP4 SWAP3 PUSH1 0x24 CALLDATALOAD SWAP2 DUP3 GT PUSH2 0x245 JUMPI PUSH2 0x881 SWAP2 PUSH1 0x4 ADD PUSH2 0x579 JUMP JUMPDEST CALLVALUE PUSH2 0x245 JUMPI PUSH2 0xB40 CALLDATASIZE PUSH2 0xAEC JUMP JUMPDEST SWAP3 SWAP1 SWAP2 PUSH1 0x1 SWAP4 DUP5 PUSH1 0x9 SLOAD SUB PUSH2 0x496 JUMPI PUSH0 PUSH1 0x9 SSTORE PUSH2 0xB5C CALLER PUSH2 0x224A JUMP JUMPDEST PUSH0 JUMPDEST DUP3 DUP2 LT PUSH2 0xB7A JUMPI PUSH2 0xB6F PUSH1 0x1 PUSH1 0x9 SSTORE JUMP JUMPDEST PUSH1 0x40 MLOAD PUSH0 DUP2 MSTORE PUSH1 0x20 SWAP1 RETURN JUMPDEST PUSH2 0xBB5 PUSH2 0xBB1 PUSH2 0xBAA PUSH2 0xB91 PUSH2 0x8FF DUP6 DUP9 DUP11 PUSH2 0x1FB8 JUMP JUMPDEST PUSH1 0x1 PUSH1 0x1 PUSH1 0xA0 SHL SUB AND PUSH0 SWAP1 DUP2 MSTORE PUSH1 0x6 PUSH1 0x20 MSTORE PUSH1 0x40 SWAP1 KECCAK256 SWAP1 JUMP JUMPDEST SLOAD PUSH1 0xFF AND SWAP1 JUMP JUMPDEST ISZERO SWAP1 JUMP JUMPDEST PUSH2 0xC1E JUMPI PUSH2 0xBD0 PUSH2 0x92A PUSH2 0x91D PUSH2 0x904 PUSH2 0x8FF DUP6 DUP9 DUP11 PUSH2 0x1FB8 JUMP JUMPDEST ISZERO PUSH2 0xC1E JUMPI DUP1 PUSH2 0xC18 PUSH2 0xBE8 PUSH2 0x8FF DUP10 SWAP5 DUP7 DUP11 PUSH2 0x1FB8 JUMP JUMPDEST PUSH2 0xBF9 PUSH2 0x904 PUSH2 0x8FF DUP6 DUP10 DUP12 PUSH2 0x1FB8 JUMP JUMPDEST DUP1 SLOAD PUSH1 0x1 PUSH1 0x1 PUSH1 0xA0 SHL SUB NOT AND PUSH1 0x1 PUSH1 0x1 PUSH1 0xA0 SHL SUB SWAP1 SWAP3 AND SWAP2 SWAP1 SWAP2 OR SWAP1 SSTORE JUMP JUMPDEST ADD PUSH2 0xB5E JUMP JUMPDEST PUSH2 0xC2F PUSH2 0x8FF PUSH2 0xC56 SWAP3 DUP6 DUP8 PUSH2 0x1FB8 JUMP JUMPDEST PUSH1 0x40 MLOAD PUSH4 0x2E86C5BB PUSH1 0xE2 SHL DUP2 MSTORE PUSH1 0x1 PUSH1 0x1 PUSH1 0xA0 SHL SUB SWAP1 SWAP2 AND PUSH1 0x4 DUP3 ADD MSTORE SWAP1 DUP2 SWAP1 PUSH1 0x24 DUP3 ADD SWAP1 JUMP JUMPDEST SUB SWAP1 REVERT JUMPDEST CALLVALUE PUSH2 0x245 JUMPI PUSH1 0x40 CALLDATASIZE PUSH1 0x3 NOT ADD SLT PUSH2 0x245 JUMPI PUSH2 0x542 PUSH1 0x24 CALLDATALOAD PUSH2 0x249 JUMP JUMPDEST CALLVALUE PUSH2 0x245 JUMPI PUSH1 0x20 CALLDATASIZE PUSH1 0x3 NOT ADD SLT PUSH2 0x245 JUMPI PUSH1 0x20 PUSH1 0x4 CALLDATALOAD PUSH2 0xC95 DUP2 PUSH2 0x249 JUMP JUMPDEST PUSH1 0x40 MLOAD SWAP1 PUSH1 0x1 DUP1 PUSH1 0xA0 SHL SUB DUP1 PUSH32 0x0 AND SWAP2 AND EQ DUP2 MSTORE RETURN JUMPDEST CALLVALUE PUSH2 0x245 JUMPI PUSH2 0xCD8 CALLDATASIZE PUSH2 0x857 JUMP JUMPDEST SWAP1 PUSH1 0x1 SWAP1 DUP2 PUSH1 0x9 SLOAD SUB PUSH2 0x496 JUMPI PUSH0 SWAP3 DUP4 PUSH1 0x9 SSTORE PUSH2 0xCF4 CALLER PUSH2 0x224A JUMP JUMPDEST DUP4 JUMPDEST DUP2 DUP2 LT PUSH2 0xD0B JUMPI DUP5 PUSH2 0xD08 PUSH1 0x1 PUSH1 0x9 SSTORE JUMP JUMPDEST DUP1 RETURN JUMPDEST PUSH2 0xD22 PUSH2 0xBB1 PUSH2 0xBAA PUSH2 0xB91 PUSH2 0x8FF DUP6 DUP8 DUP10 PUSH2 0x1FB8 JUMP JUMPDEST PUSH2 0xDAE JUMPI PUSH2 0xD3D PUSH2 0x92A PUSH2 0x91D PUSH2 0x904 PUSH2 0x8FF DUP6 DUP8 DUP10 PUSH2 0x1FB8 JUMP JUMPDEST ISZERO PUSH2 0xDAE JUMPI DUP1 PUSH2 0xD5E PUSH2 0x92A PUSH2 0x92A PUSH2 0x91D PUSH2 0x904 PUSH2 0x8FF DUP12 SWAP8 DUP10 DUP12 PUSH2 0x1FB8 JUMP JUMPDEST DUP1 EXTCODESIZE ISZERO PUSH2 0xDAA JUMPI DUP3 SWAP1 PUSH1 0x4 PUSH1 0x40 MLOAD DUP1 SWAP6 DUP2 SWAP4 PUSH4 0x1FA5D41D PUSH1 0xE1 SHL DUP4 MSTORE GAS CALL SWAP2 DUP3 ISZERO PUSH2 0x9A0 JUMPI DUP6 SWAP3 PUSH2 0xD91 JUMPI JUMPDEST POP ADD PUSH2 0xCF6 JUMP JUMPDEST DUP1 PUSH2 0xD9E PUSH2 0xDA4 SWAP3 PUSH2 0x9B9 JUMP JUMPDEST DUP1 PUSH2 0xF54 JUMP JUMPDEST PUSH0 PUSH2 0xD8A JUMP JUMPDEST DUP3 DUP1 REVERT JUMPDEST PUSH2 0x8FF SWAP1 PUSH2 0xC2F SWAP3 PUSH2 0xC56 SWAP5 PUSH2 0x1FB8 JUMP JUMPDEST CALLVALUE PUSH2 0x245 JUMPI PUSH1 0x20 CALLDATASIZE PUSH1 0x3 NOT ADD SLT PUSH2 0x245 JUMPI PUSH1 0x4 CALLDATALOAD PUSH2 0xDDC DUP2 PUSH2 0x249 JUMP JUMPDEST PUSH1 0x1 DUP1 PUSH1 0xA0 SHL SUB AND PUSH0 MSTORE PUSH1 0x5 PUSH1 0x20 MSTORE PUSH1 0x20 PUSH1 0xFF PUSH1 0x40 PUSH0 KECCAK256 SLOAD AND PUSH1 0x40 MLOAD SWAP1 ISZERO ISZERO DUP2 MSTORE RETURN JUMPDEST CALLVALUE PUSH2 0x245 JUMPI PUSH2 0xE0D CALLDATASIZE PUSH2 0x857 JUMP JUMPDEST SWAP1 PUSH1 0x1 SWAP1 DUP2 PUSH1 0x9 SLOAD SUB PUSH2 0x496 JUMPI PUSH0 SWAP3 DUP4 PUSH1 0x9 SSTORE PUSH2 0xE29 CALLER PUSH2 0x224A JUMP JUMPDEST DUP4 JUMPDEST DUP2 DUP2 LT PUSH2 0xE3D JUMPI DUP5 PUSH2 0xD08 PUSH1 0x1 PUSH1 0x9 SSTORE JUMP JUMPDEST PUSH2 0xE54 PUSH2 0xBB1 PUSH2 0xBAA PUSH2 0xB91 PUSH2 0x8FF DUP6 DUP8 DUP10 PUSH2 0x1FB8 JUMP JUMPDEST PUSH2 0xDAE JUMPI PUSH2 0xE6F PUSH2 0x92A PUSH2 0x91D PUSH2 0x904 PUSH2 0x8FF DUP6 DUP8 DUP10 PUSH2 0x1FB8 JUMP JUMPDEST ISZERO PUSH2 0xDAE JUMPI DUP1 PUSH2 0xE90 PUSH2 0x92A PUSH2 0x92A PUSH2 0x91D PUSH2 0x904 PUSH2 0x8FF DUP12 SWAP8 DUP10 DUP12 PUSH2 0x1FB8 JUMP JUMPDEST DUP1 EXTCODESIZE ISZERO PUSH2 0xDAA JUMPI DUP3 SWAP1 PUSH1 0x4 PUSH1 0x40 MLOAD DUP1 SWAP6 DUP2 SWAP4 PUSH4 0x8456CB59 PUSH1 0xE0 SHL DUP4 MSTORE GAS CALL SWAP2 DUP3 ISZERO PUSH2 0x9A0 JUMPI DUP6 SWAP3 PUSH2 0xEC3 JUMPI JUMPDEST POP ADD PUSH2 0xE2B JUMP JUMPDEST DUP1 PUSH2 0xD9E PUSH2 0xED0 SWAP3 PUSH2 0x9B9 JUMP JUMPDEST PUSH0 PUSH2 0xEBC JUMP JUMPDEST CALLVALUE PUSH2 0x245 JUMPI PUSH1 0x20 CALLDATASIZE PUSH1 0x3 NOT ADD SLT PUSH2 0x245 JUMPI PUSH1 0x4 CALLDATALOAD PUSH2 0xEF3 DUP2 PUSH2 0x249 JUMP JUMPDEST PUSH1 0x1 PUSH1 0x9 SLOAD SUB PUSH2 0x496 JUMPI PUSH0 PUSH1 0x9 SSTORE PUSH2 0xF0A CALLER PUSH2 0x224A JUMP JUMPDEST PUSH1 0x1 PUSH1 0x1 PUSH1 0xA0 SHL SUB DUP2 AND PUSH0 SWAP1 DUP2 MSTORE PUSH1 0x5 PUSH1 0x20 MSTORE PUSH1 0x40 SWAP1 KECCAK256 DUP1 SLOAD PUSH1 0xFF NOT AND PUSH1 0x1 OR SWAP1 SSTORE PUSH1 0x4 SLOAD SWAP1 PUSH9 0x10000000000000000 DUP3 LT ISZERO PUSH2 0x9CC JUMPI PUSH2 0x43C DUP3 PUSH1 0x1 PUSH2 0x463 SWAP5 ADD PUSH1 0x4 SSTORE PUSH2 0x321 JUMP JUMPDEST PUSH0 SWAP2 SUB SLT PUSH2 0x245 JUMPI JUMP JUMPDEST CALLVALUE PUSH2 0x245 JUMPI PUSH0 CALLDATASIZE PUSH1 0x3 NOT ADD SLT PUSH2 0x245 JUMPI PUSH1 0x40 MLOAD PUSH32 0x0 PUSH1 0x1 PUSH1 0x1 PUSH1 0xA0 SHL SUB AND DUP2 MSTORE PUSH1 0x20 SWAP1 RETURN JUMPDEST CALLVALUE PUSH2 0x245 JUMPI PUSH1 0x20 CALLDATASIZE PUSH1 0x3 NOT ADD SLT PUSH2 0x245 JUMPI PUSH1 0x20 PUSH2 0xFDE PUSH1 0x4 CALLDATALOAD PUSH2 0xFC4 DUP2 PUSH2 0x249 JUMP JUMPDEST PUSH1 0x1 PUSH1 0x1 PUSH1 0xA0 SHL SUB AND PUSH0 SWAP1 DUP2 MSTORE PUSH1 0x2 PUSH1 0x20 MSTORE PUSH1 0x40 SWAP1 KECCAK256 SLOAD SWAP1 JUMP JUMPDEST PUSH1 0x40 MLOAD SWAP1 DUP2 MSTORE RETURN JUMPDEST CALLVALUE PUSH2 0x245 JUMPI PUSH0 CALLDATASIZE PUSH1 0x3 NOT ADD SLT PUSH2 0x245 JUMPI PUSH1 0x20 PUSH1 0x3 SLOAD PUSH1 0x40 MLOAD SWAP1 DUP2 MSTORE RETURN JUMPDEST SWAP2 SWAP1 DUP3 MLOAD SWAP3 DUP4 DUP3 MSTORE PUSH0 JUMPDEST DUP5 DUP2 LT PUSH2 0x102D JUMPI POP POP DUP3 PUSH0 PUSH1 0x20 DUP1 SWAP5 SWAP6 DUP5 ADD ADD MSTORE PUSH1 0x1F DUP1 NOT SWAP2 ADD AND ADD ADD SWAP1 JUMP JUMPDEST PUSH1 0x20 DUP2 DUP4 ADD DUP2 ADD MLOAD DUP5 DUP4 ADD DUP3 ADD MSTORE ADD PUSH2 0x100D JUMP JUMPDEST CALLVALUE PUSH2 0x245 JUMPI PUSH0 DUP1 PUSH1 0x3 NOT CALLDATASIZE ADD SLT PUSH2 0x1138 JUMPI PUSH2 0x10EA SWAP1 PUSH2 0x107F PUSH32 0x0 PUSH2 0x1DAB JUMP JUMPDEST PUSH2 0x10A8 PUSH32 0x0 PUSH2 0x1EA8 JUMP JUMPDEST SWAP2 PUSH1 0x40 MLOAD SWAP2 PUSH2 0x10B6 DUP4 PUSH2 0x9D1 JUMP JUMPDEST DUP2 DUP4 MSTORE PUSH1 0x40 MLOAD SWAP5 DUP6 SWAP5 PUSH1 0xF PUSH1 0xF8 SHL DUP7 MSTORE PUSH2 0x10DC PUSH1 0x20 SWAP4 PUSH1 0xE0 DUP6 DUP10 ADD MSTORE PUSH1 0xE0 DUP9 ADD SWAP1 PUSH2 0x1003 JUMP JUMPDEST SWAP1 DUP7 DUP3 SUB PUSH1 0x40 DUP9 ADD MSTORE PUSH2 0x1003 JUMP JUMPDEST SWAP1 CHAINID PUSH1 0x60 DUP7 ADD MSTORE ADDRESS PUSH1 0x80 DUP7 ADD MSTORE DUP3 PUSH1 0xA0 DUP7 ADD MSTORE DUP5 DUP3 SUB PUSH1 0xC0 DUP7 ADD MSTORE DUP1 DUP1 DUP6 MLOAD SWAP4 DUP5 DUP2 MSTORE ADD SWAP5 ADD SWAP3 JUMPDEST DUP3 DUP2 LT PUSH2 0x1121 JUMPI POP POP POP POP SUB SWAP1 RETURN JUMPDEST DUP4 MLOAD DUP6 MSTORE DUP7 SWAP6 POP SWAP4 DUP2 ADD SWAP4 SWAP3 DUP2 ADD SWAP3 PUSH1 0x1 ADD PUSH2 0x1112 JUMP JUMPDEST DUP1 REVERT JUMPDEST CALLVALUE PUSH2 0x245 JUMPI PUSH2 0x1149 CALLDATASIZE PUSH2 0xAEC JUMP JUMPDEST POP POP POP POP PUSH1 0x20 PUSH1 0x40 MLOAD PUSH0 DUP2 MSTORE RETURN JUMPDEST CALLVALUE PUSH2 0x245 JUMPI PUSH1 0x40 CALLDATASIZE PUSH1 0x3 NOT ADD SLT PUSH2 0x245 JUMPI PUSH1 0x20 PUSH1 0x40 MLOAD PUSH0 DUP2 MSTORE RETURN JUMPDEST CALLVALUE PUSH2 0x245 JUMPI PUSH1 0x20 CALLDATASIZE PUSH1 0x3 NOT ADD SLT PUSH2 0x245 JUMPI PUSH1 0x4 CALLDATALOAD PUSH2 0x118F DUP2 PUSH2 0x249 JUMP JUMPDEST PUSH1 0x1 DUP1 PUSH1 0xA0 SHL SUB AND PUSH0 MSTORE PUSH1 0x6 PUSH1 0x20 MSTORE PUSH1 0x20 PUSH1 0xFF PUSH1 0x40 PUSH0 KECCAK256 SLOAD AND PUSH1 0x40 MLOAD SWAP1 ISZERO ISZERO DUP2 MSTORE RETURN JUMPDEST CALLVALUE PUSH2 0x245 JUMPI PUSH1 0x40 CALLDATASIZE PUSH1 0x3 NOT ADD SLT PUSH2 0x245 JUMPI PUSH1 0x4 CALLDATALOAD PUSH1 0x1 PUSH1 0x1 PUSH1 0x40 SHL SUB DUP2 GT PUSH2 0x245 JUMPI PUSH2 0xAD1 SWAP1 CALLDATASIZE SWAP1 PUSH1 0x4 ADD PUSH2 0x579 JUMP JUMPDEST CALLVALUE PUSH2 0x245 JUMPI PUSH1 0x40 CALLDATASIZE PUSH1 0x3 NOT ADD SLT PUSH2 0x245 JUMPI PUSH2 0x2FC PUSH1 0x4 CALLDATALOAD PUSH2 0x249 JUMP JUMPDEST CALLVALUE PUSH2 0x245 JUMPI PUSH2 0x120C CALLDATASIZE PUSH2 0x857 JUMP JUMPDEST SWAP1 PUSH0 SWAP2 DUP3 JUMPDEST DUP2 DUP2 LT PUSH2 0x1225 JUMPI PUSH1 0x40 MLOAD DUP1 PUSH2 0x309 DUP2 PUSH2 0x885 JUMP JUMPDEST PUSH2 0x123C PUSH2 0xBB1 PUSH2 0xBAA PUSH2 0xB91 PUSH2 0x8FF DUP6 DUP8 DUP10 PUSH2 0x1FB8 JUMP JUMPDEST PUSH2 0xDAE JUMPI PUSH2 0x1257 PUSH2 0x92A PUSH2 0x91D PUSH2 0x904 PUSH2 0x8FF DUP6 DUP8 DUP10 PUSH2 0x1FB8 JUMP JUMPDEST ISZERO PUSH2 0xDAE JUMPI PUSH2 0x1276 PUSH2 0x92A PUSH2 0x92A PUSH2 0x91D PUSH2 0x904 PUSH2 0x8FF DUP7 DUP9 DUP11 PUSH2 0x1FB8 JUMP JUMPDEST SWAP1 PUSH1 0x40 MLOAD DUP1 SWAP3 PUSH4 0x281B420F PUSH1 0xE2 SHL DUP3 MSTORE DUP2 PUSH1 0x4 PUSH1 0x20 SWAP6 DUP7 SWAP4 GAS STATICCALL SWAP1 DUP2 ISZERO PUSH2 0x9A0 JUMPI PUSH1 0x1 SWAP4 DUP8 SWAP3 PUSH2 0x12B3 JUMPI JUMPDEST POP POP PUSH2 0x12AC DUP3 PUSH2 0x1FD7 JUMP JUMPDEST MSTORE ADD PUSH2 0x1211 JUMP JUMPDEST PUSH2 0x12C9 SWAP3 POP DUP1 RETURNDATASIZE LT PUSH2 0x999 JUMPI PUSH2 0x98A DUP2 DUP4 PUSH2 0xA07 JUMP JUMPDEST PUSH0 DUP1 PUSH2 0x12A1 JUMP JUMPDEST CALLVALUE PUSH2 0x245 JUMPI PUSH1 0x20 CALLDATASIZE PUSH1 0x3 NOT ADD SLT PUSH2 0x245 JUMPI PUSH1 0x4 CALLDATALOAD PUSH2 0x12ED DUP2 PUSH2 0x249 JUMP JUMPDEST PUSH1 0x1 DUP1 PUSH1 0xA0 SHL SUB AND PUSH0 MSTORE PUSH1 0x8 PUSH1 0x20 MSTORE PUSH1 0x20 PUSH1 0x40 PUSH0 KECCAK256 SLOAD PUSH1 0x40 MLOAD SWAP1 DUP2 MSTORE RETURN JUMPDEST PUSH1 0x40 DUP1 PUSH1 0x3 NOT CALLDATASIZE ADD SLT PUSH2 0x245 JUMPI PUSH1 0x4 CALLDATALOAD PUSH1 0x1 PUSH1 0x1 PUSH1 0x40 SHL SUB DUP2 GT PUSH2 0x245 JUMPI PUSH2 0x1337 SWAP1 CALLDATASIZE SWAP1 PUSH1 0x4 ADD PUSH2 0x579 JUMP JUMPDEST SWAP1 PUSH1 0x24 CALLDATALOAD SWAP3 PUSH2 0x1345 DUP5 PUSH2 0x249 JUMP JUMPDEST PUSH0 SWAP3 DUP4 SWAP3 DUP4 SWAP2 PUSH1 0x1 PUSH1 0x1 PUSH1 0xA0 SHL SUB DUP8 AND ISZERO SWAP2 JUMPDEST DUP2 DUP5 LT PUSH2 0x139B JUMPI POP POP POP POP CALLVALUE DUP3 SUB PUSH2 0x137C JUMPI POP POP DUP1 PUSH2 0x1373 JUMPI STOP JUMPDEST PUSH2 0xAD1 SWAP2 PUSH2 0x1B2C JUMP JUMPDEST MLOAD PUSH4 0x70647F79 PUSH1 0xE0 SHL DUP2 MSTORE PUSH1 0x4 DUP2 ADD SWAP2 SWAP1 SWAP2 MSTORE CALLVALUE PUSH1 0x24 DUP3 ADD MSTORE PUSH1 0x44 SWAP2 POP REVERT JUMPDEST SWAP1 SWAP2 SWAP3 SWAP5 PUSH2 0x13B7 SWAP1 DUP6 PUSH2 0x13AF DUP9 DUP7 DUP7 PUSH2 0x1696 JUMP JUMPDEST ADD CALLDATALOAD SWAP1 PUSH2 0x16B8 JUMP JUMPDEST SWAP5 PUSH2 0x13CF PUSH2 0xBB1 DUP6 PUSH2 0x13CA DUP5 DUP8 DUP8 PUSH2 0x1696 JUMP JUMPDEST PUSH2 0x190E JUMP JUMPDEST PUSH2 0x13E5 JUMPI JUMPDEST PUSH2 0x13DD SWAP1 PUSH2 0x1683 JUMP JUMPDEST SWAP3 SWAP2 SWAP1 PUSH2 0x1358 JUMP JUMPDEST SWAP6 PUSH2 0x13F9 PUSH2 0x13DD SWAP2 DUP7 PUSH2 0x13AF DUP11 DUP8 DUP8 PUSH2 0x1696 JUMP JUMPDEST SWAP7 SWAP1 POP PUSH2 0x13D4 JUMP JUMPDEST PUSH2 0x140A CALLDATASIZE PUSH2 0x4A8 JUMP JUMPDEST PUSH1 0x40 SWAP1 DUP2 DUP2 ADD CALLDATALOAD DUP1 CALLVALUE SUB PUSH2 0x15ED JUMPI PUSH0 SWAP2 PUSH2 0x1423 DUP2 PUSH2 0x16E5 JUMP JUMPDEST SWAP3 SWAP2 SWAP1 DUP3 ISZERO PUSH2 0x15B1 JUMPI DUP2 ISZERO PUSH2 0x157C JUMPI DUP1 ISZERO PUSH2 0x153F JUMPI DUP3 PUSH2 0x1537 JUMPI JUMPDEST POP DUP2 PUSH2 0x152F JUMPI JUMPDEST POP PUSH2 0x1465 JUMPI JUMPDEST POP POP POP ISZERO PUSH2 0x1455 JUMPI STOP JUMPDEST MLOAD PUSH4 0xA12F521 PUSH1 0xE1 SHL DUP2 MSTORE PUSH1 0x4 SWAP1 REVERT JUMPDEST PUSH1 0x1 PUSH1 0x1 PUSH1 0xA0 SHL SUB DUP2 AND PUSH0 SWAP1 DUP2 MSTORE PUSH1 0x2 PUSH1 0x20 MSTORE PUSH1 0x40 SWAP1 KECCAK256 DUP1 SLOAD PUSH1 0x1 DUP2 ADD SWAP1 SWAP2 SSTORE PUSH2 0x150C SWAP5 PUSH32 0x842FB24A83793558587A3DAB2BE7674DA4A51D09C5542D6DD354E5D0EA70813C SWAP4 SWAP3 SWAP2 DUP2 SWAP1 SWAP6 PUSH2 0x14FB PUSH2 0x14BF PUSH1 0x20 DUP8 ADD PUSH2 0x16C5 JUMP JUMPDEST SWAP2 DUP11 PUSH2 0x14CE PUSH1 0xA0 DUP10 ADD DUP10 PUSH2 0x184A JUMP JUMPDEST PUSH2 0x14ED PUSH2 0x14DD DUP12 SWAP7 SWAP4 SWAP7 PUSH2 0x16C5 JUMP JUMPDEST SWAP4 MLOAD SWAP4 DUP5 SWAP3 PUSH1 0x20 DUP5 ADD SWAP8 DUP9 PUSH2 0x18EB JUMP JUMPDEST SUB PUSH1 0x1F NOT DUP2 ADD DUP4 MSTORE DUP3 PUSH2 0xA07 JUMP JUMPDEST MLOAD SWAP3 PUSH1 0x60 DUP9 ADD CALLDATALOAD CALL SWAP5 DUP6 SWAP3 GAS PUSH2 0x1B1A JUMP JUMPDEST DUP6 MLOAD SWAP4 DUP5 MSTORE SWAP1 ISZERO ISZERO PUSH1 0x20 DUP5 ADD MSTORE PUSH1 0x1 PUSH1 0x1 PUSH1 0xA0 SHL SUB AND SWAP2 PUSH1 0x40 SWAP1 LOG2 PUSH0 DUP1 DUP1 PUSH2 0x144B JUMP JUMPDEST SWAP1 POP PUSH0 PUSH2 0x1445 JUMP JUMPDEST SWAP2 POP PUSH0 PUSH2 0x143E JUMP JUMPDEST DUP8 DUP5 PUSH2 0xC56 PUSH2 0x154D DUP9 PUSH2 0x16C5 JUMP JUMPDEST SWAP3 MLOAD PUSH4 0x6422D02B PUSH1 0xE1 SHL DUP2 MSTORE PUSH1 0x1 PUSH1 0x1 PUSH1 0xA0 SHL SUB SWAP3 DUP4 AND PUSH1 0x4 DUP3 ADD MSTORE SWAP2 SWAP1 SWAP3 AND PUSH1 0x24 DUP3 ADD MSTORE SWAP1 DUP2 SWAP1 PUSH1 0x44 DUP3 ADD SWAP1 JUMP JUMPDEST PUSH2 0xC56 DUP9 PUSH2 0x158C PUSH1 0x80 DUP9 ADD PUSH2 0x16D2 JUMP JUMPDEST SWAP1 MLOAD PUSH4 0x4A777AC5 PUSH1 0xE1 SHL DUP2 MSTORE PUSH6 0xFFFFFFFFFFFF SWAP1 SWAP2 AND PUSH1 0x4 DUP3 ADD MSTORE SWAP1 DUP2 SWAP1 PUSH1 0x24 DUP3 ADD SWAP1 JUMP JUMPDEST PUSH2 0xC56 DUP9 PUSH2 0x15C1 PUSH1 0x20 DUP9 ADD PUSH2 0x16C5 JUMP JUMPDEST SWAP1 MLOAD PUSH4 0xD2650CD1 PUSH1 0xE0 SHL DUP2 MSTORE PUSH1 0x1 PUSH1 0x1 PUSH1 0xA0 SHL SUB SWAP1 SWAP2 AND PUSH1 0x4 DUP3 ADD MSTORE ADDRESS PUSH1 0x24 DUP3 ADD MSTORE SWAP1 DUP2 SWAP1 PUSH1 0x44 DUP3 ADD SWAP1 JUMP JUMPDEST DUP3 MLOAD PUSH4 0x70647F79 PUSH1 0xE0 SHL DUP2 MSTORE PUSH1 0x4 DUP2 ADD SWAP2 SWAP1 SWAP2 MSTORE CALLVALUE PUSH1 0x24 DUP3 ADD MSTORE PUSH1 0x44 SWAP1 REVERT JUMPDEST CALLVALUE PUSH2 0x245 JUMPI PUSH1 0x20 CALLDATASIZE PUSH1 0x3 NOT ADD SLT PUSH2 0x245 JUMPI PUSH1 0x20 PUSH1 0x4 CALLDATALOAD PUSH2 0x162B DUP2 PUSH2 0x249 JUMP JUMPDEST PUSH1 0x1 DUP1 PUSH1 0xA0 SHL SUB DUP1 SWAP2 AND PUSH0 MSTORE PUSH1 0x7 DUP3 MSTORE PUSH1 0x40 PUSH0 KECCAK256 SLOAD AND PUSH1 0x40 MLOAD SWAP1 DUP2 MSTORE RETURN JUMPDEST CALLVALUE PUSH2 0x245 JUMPI PUSH1 0x40 CALLDATASIZE PUSH1 0x3 NOT ADD SLT PUSH2 0x245 JUMPI PUSH1 0x24 CALLDATALOAD DUP1 ISZERO ISZERO SUB PUSH2 0x245 JUMPI PUSH1 0x20 PUSH1 0x40 MLOAD PUSH0 DUP2 MSTORE RETURN JUMPDEST PUSH4 0x4E487B71 PUSH1 0xE0 SHL PUSH0 MSTORE PUSH1 0x11 PUSH1 0x4 MSTORE PUSH1 0x24 PUSH0 REVERT JUMPDEST PUSH0 NOT DUP2 EQ PUSH2 0x1691 JUMPI PUSH1 0x1 ADD SWAP1 JUMP JUMPDEST PUSH2 0x166F JUMP JUMPDEST SWAP2 SWAP1 DUP2 LT ISZERO PUSH2 0x343 JUMPI PUSH1 0x5 SHL DUP2 ADD CALLDATALOAD SWAP1 PUSH1 0xDE NOT DUP2 CALLDATASIZE SUB ADD DUP3 SLT ISZERO PUSH2 0x245 JUMPI ADD SWAP1 JUMP JUMPDEST SWAP2 SWAP1 DUP3 ADD DUP1 SWAP3 GT PUSH2 0x1691 JUMPI JUMP JUMPDEST CALLDATALOAD PUSH2 0x16CF DUP2 PUSH2 0x249 JUMP JUMPDEST SWAP1 JUMP JUMPDEST CALLDATALOAD PUSH6 0xFFFFFFFFFFFF DUP2 AND DUP2 SUB PUSH2 0x245 JUMPI SWAP1 JUMP JUMPDEST SWAP1 PUSH2 0x1804 DUP3 CALLDATALOAD SWAP2 PUSH2 0x16F5 DUP4 PUSH2 0x249 JUMP JUMPDEST PUSH1 0x20 DUP5 ADD SWAP3 PUSH2 0x180F PUSH2 0x1809 PUSH2 0x17F0 PUSH2 0x17DA DUP8 CALLDATALOAD PUSH2 0x1711 DUP2 PUSH2 0x249 JUMP JUMPDEST DUP10 PUSH2 0x17D2 PUSH2 0x1721 PUSH2 0xFC4 DUP4 PUSH2 0x16C5 JUMP JUMPDEST SWAP8 PUSH2 0x14ED PUSH1 0x80 DUP5 ADD SWAP10 PUSH2 0x1733 DUP12 PUSH2 0x16D2 JUMP JUMPDEST PUSH2 0x174A PUSH2 0x1743 PUSH1 0xA0 DUP9 ADD DUP9 PUSH2 0x184A JUMP JUMPDEST CALLDATASIZE SWAP2 PUSH2 0x1897 JUMP JUMPDEST PUSH1 0x20 DUP2 MLOAD SWAP2 ADD KECCAK256 SWAP2 PUSH1 0x40 MLOAD SWAP7 DUP8 SWAP6 PUSH1 0x20 DUP8 ADD SWAP10 PUSH1 0x40 PUSH1 0x60 DUP5 ADD CALLDATALOAD SWAP4 ADD CALLDATALOAD SWAP2 DUP12 SWAP4 PUSH6 0xFFFFFFFFFFFF SWAP4 PUSH1 0xE0 SWAP7 SWAP3 SWAP10 SWAP9 SWAP8 SWAP4 SWAP10 PUSH2 0x100 DUP8 ADD SWAP11 PUSH32 0x7F96328B83274EBC7C1CF4F7A3ABDA602B51A78B7FA1D86A2CE353D75E587CAC DUP9 MSTORE PUSH1 0x1 DUP1 PUSH1 0xA0 SHL SUB DUP1 SWAP3 AND PUSH1 0x20 DUP10 ADD MSTORE AND PUSH1 0x40 DUP8 ADD MSTORE PUSH1 0x60 DUP7 ADD MSTORE PUSH1 0x80 DUP6 ADD MSTORE PUSH1 0xA0 DUP5 ADD MSTORE AND PUSH1 0xC0 DUP3 ADD MSTORE ADD MSTORE JUMP JUMPDEST MLOAD SWAP1 KECCAK256 PUSH2 0x1C6B JUMP JUMPDEST PUSH2 0x17EA PUSH2 0x1743 PUSH1 0xC0 DUP12 ADD DUP12 PUSH2 0x184A JUMP JUMPDEST SWAP1 PUSH2 0x1BA4 JUMP JUMPDEST POP PUSH2 0x17FD DUP2 SWAP8 SWAP3 SWAP8 PUSH2 0x18CD JUMP JUMPDEST ISZERO SWAP7 PUSH2 0x16C5 JUMP JUMPDEST PUSH2 0x1AB4 JUMP JUMPDEST SWAP2 PUSH2 0x16D2 JUMP JUMPDEST SWAP5 DUP5 PUSH2 0x1829 JUMPI JUMPDEST POP SWAP4 PUSH6 0xFFFFFFFFFFFF TIMESTAMP SWAP2 AND LT ISZERO SWAP3 SWAP2 SWAP1 JUMP JUMPDEST PUSH2 0x1838 SWAP2 SWAP5 POP PUSH2 0x92A SWAP1 PUSH2 0x16C5 JUMP JUMPDEST PUSH1 0x1 PUSH1 0x1 PUSH1 0xA0 SHL SUB DUP4 AND EQ SWAP3 PUSH0 PUSH2 0x1816 JUMP JUMPDEST SWAP1 CALLDATALOAD SWAP1 PUSH1 0x1E NOT DUP2 CALLDATASIZE SUB ADD DUP3 SLT ISZERO PUSH2 0x245 JUMPI ADD DUP1 CALLDATALOAD SWAP1 PUSH1 0x1 PUSH1 0x1 PUSH1 0x40 SHL SUB DUP3 GT PUSH2 0x245 JUMPI PUSH1 0x20 ADD SWAP2 DUP2 CALLDATASIZE SUB DUP4 SGT PUSH2 0x245 JUMPI JUMP JUMPDEST PUSH1 0x1 PUSH1 0x1 PUSH1 0x40 SHL SUB DUP2 GT PUSH2 0x9CC JUMPI PUSH1 0x1F ADD PUSH1 0x1F NOT AND PUSH1 0x20 ADD SWAP1 JUMP JUMPDEST SWAP3 SWAP2 SWAP3 PUSH2 0x18A3 DUP3 PUSH2 0x187C JUMP JUMPDEST SWAP2 PUSH2 0x18B1 PUSH1 0x40 MLOAD SWAP4 DUP5 PUSH2 0xA07 JUMP JUMPDEST DUP3 SWAP5 DUP2 DUP5 MSTORE DUP2 DUP4 ADD GT PUSH2 0x245 JUMPI DUP3 DUP2 PUSH1 0x20 SWAP4 DUP5 PUSH0 SWAP7 ADD CALLDATACOPY ADD ADD MSTORE JUMP JUMPDEST PUSH1 0x4 GT ISZERO PUSH2 0x18D7 JUMPI JUMP JUMPDEST PUSH4 0x4E487B71 PUSH1 0xE0 SHL PUSH0 MSTORE PUSH1 0x21 PUSH1 0x4 MSTORE PUSH1 0x24 PUSH0 REVERT JUMPDEST DUP3 PUSH1 0x14 SWAP5 SWAP4 SWAP3 DUP3 CALLDATACOPY ADD SWAP1 PUSH12 0xFFFFFFFFFFFFFFFFFFFFFFFF NOT SWAP1 PUSH1 0x60 SHL AND DUP2 MSTORE ADD SWAP1 JUMP JUMPDEST SWAP2 SWAP1 PUSH0 SWAP3 PUSH2 0x191B DUP2 PUSH2 0x16E5 JUMP JUMPDEST SWAP5 PUSH2 0x19FF JUMPI JUMPDEST DUP3 PUSH2 0x19F7 JUMPI JUMPDEST POP DUP2 PUSH2 0x19EF JUMPI JUMPDEST POP PUSH2 0x1937 JUMPI POP POP JUMP JUMPDEST PUSH1 0x1 PUSH1 0x1 PUSH1 0xA0 SHL SUB DUP3 AND PUSH0 SWAP1 DUP2 MSTORE PUSH1 0x2 PUSH1 0x20 MSTORE PUSH1 0x40 SWAP1 KECCAK256 DUP1 SLOAD PUSH1 0x1 DUP2 ADD SWAP1 SWAP2 SSTORE PUSH2 0x19D3 SWAP5 POP PUSH32 0x842FB24A83793558587A3DAB2BE7674DA4A51D09C5542D6DD354E5D0EA70813C SWAP2 SWAP1 SWAP3 PUSH0 DUP1 PUSH2 0x198E PUSH1 0x20 DUP6 ADD PUSH2 0x16C5 JUMP JUMPDEST PUSH2 0x199B PUSH1 0xA0 DUP7 ADD DUP7 PUSH2 0x184A JUMP JUMPDEST PUSH2 0x19BC PUSH2 0x19A7 DUP9 PUSH2 0x16C5 JUMP JUMPDEST SWAP2 PUSH2 0x14ED PUSH1 0x40 MLOAD SWAP4 DUP5 SWAP3 PUSH1 0x20 DUP5 ADD SWAP7 DUP8 PUSH2 0x18EB JUMP JUMPDEST MLOAD SWAP2 PUSH1 0x40 DUP8 ADD CALLDATALOAD SWAP1 PUSH1 0x60 DUP9 ADD CALLDATALOAD CALL SWAP6 DUP7 SWAP3 GAS PUSH2 0x1B1A JUMP JUMPDEST PUSH1 0x40 DUP1 MLOAD SWAP5 DUP6 MSTORE SWAP2 ISZERO ISZERO PUSH1 0x20 DUP6 ADD MSTORE PUSH1 0x1 PUSH1 0x1 PUSH1 0xA0 SHL SUB AND SWAP3 LOG2 JUMP JUMPDEST SWAP1 POP PUSH0 PUSH2 0x192E JUMP JUMPDEST SWAP2 POP PUSH0 PUSH2 0x1927 JUMP JUMPDEST DUP3 ISZERO PUSH2 0x1A78 JUMPI DUP2 ISZERO PUSH2 0x1A43 JUMPI DUP1 PUSH2 0x1921 JUMPI DUP5 PUSH2 0x1A1A DUP6 PUSH2 0x16C5 JUMP JUMPDEST PUSH1 0x40 MLOAD PUSH4 0x6422D02B PUSH1 0xE1 SHL DUP2 MSTORE PUSH1 0x1 PUSH1 0x1 PUSH1 0xA0 SHL SUB SWAP3 DUP4 AND PUSH1 0x4 DUP3 ADD MSTORE SWAP2 AND PUSH1 0x24 DUP3 ADD MSTORE PUSH1 0x44 SWAP1 REVERT JUMPDEST PUSH2 0xC56 PUSH2 0x1A52 PUSH1 0x80 DUP7 ADD PUSH2 0x16D2 JUMP JUMPDEST PUSH1 0x40 MLOAD PUSH4 0x4A777AC5 PUSH1 0xE1 SHL DUP2 MSTORE PUSH6 0xFFFFFFFFFFFF SWAP1 SWAP2 AND PUSH1 0x4 DUP3 ADD MSTORE SWAP1 DUP2 SWAP1 PUSH1 0x24 DUP3 ADD SWAP1 JUMP JUMPDEST PUSH2 0xC56 PUSH2 0x1A87 PUSH1 0x20 DUP7 ADD PUSH2 0x16C5 JUMP JUMPDEST PUSH1 0x40 MLOAD PUSH4 0xD2650CD1 PUSH1 0xE0 SHL DUP2 MSTORE PUSH1 0x1 PUSH1 0x1 PUSH1 0xA0 SHL SUB SWAP1 SWAP2 AND PUSH1 0x4 DUP3 ADD MSTORE ADDRESS PUSH1 0x24 DUP3 ADD MSTORE SWAP1 DUP2 SWAP1 PUSH1 0x44 DUP3 ADD SWAP1 JUMP JUMPDEST PUSH1 0x40 MLOAD SWAP1 PUSH1 0x20 DUP3 ADD SWAP1 PUSH4 0x572B6C05 PUSH1 0xE0 SHL DUP3 MSTORE ADDRESS PUSH1 0x24 DUP5 ADD MSTORE PUSH1 0x24 DUP4 MSTORE PUSH1 0x60 DUP4 ADD SWAP2 DUP4 DUP4 LT PUSH1 0x1 PUSH1 0x1 PUSH1 0x40 SHL SUB DUP5 GT OR PUSH2 0x9CC JUMPI PUSH1 0x20 SWAP4 PUSH0 SWAP4 PUSH1 0x40 MSTORE MLOAD SWAP2 GAS STATICCALL PUSH0 MLOAD RETURNDATASIZE DUP3 PUSH2 0x1B0E JUMPI JUMPDEST POP DUP2 PUSH2 0x1B07 JUMPI POP SWAP1 JUMP JUMPDEST SWAP1 POP ISZERO ISZERO SWAP1 JUMP JUMPDEST PUSH1 0x20 GT ISZERO SWAP2 POP PUSH0 PUSH2 0x1AFD JUMP JUMPDEST SWAP1 PUSH1 0x60 PUSH1 0x3F SWAP2 ADD CALLDATALOAD DIV GT PUSH2 0x1B2A JUMPI JUMP JUMPDEST INVALID JUMPDEST DUP2 SELFBALANCE LT PUSH2 0x1B8C JUMPI PUSH0 SWAP2 DUP3 SWAP2 DUP3 SWAP2 DUP3 SWAP2 PUSH1 0x1 PUSH1 0x1 PUSH1 0xA0 SHL SUB AND GAS CALL RETURNDATASIZE ISZERO PUSH2 0x1B87 JUMPI RETURNDATASIZE PUSH2 0x1B56 DUP2 PUSH2 0x187C JUMP JUMPDEST SWAP1 PUSH2 0x1B64 PUSH1 0x40 MLOAD SWAP3 DUP4 PUSH2 0xA07 JUMP JUMPDEST DUP2 MSTORE PUSH0 PUSH1 0x20 RETURNDATASIZE SWAP3 ADD RETURNDATACOPY JUMPDEST ISZERO PUSH2 0x1B75 JUMPI JUMP JUMPDEST PUSH1 0x40 MLOAD PUSH4 0xA12F521 PUSH1 0xE1 SHL DUP2 MSTORE PUSH1 0x4 SWAP1 REVERT JUMPDEST PUSH2 0x1B6E JUMP JUMPDEST PUSH1 0x40 MLOAD PUSH4 0xCD786059 PUSH1 0xE0 SHL DUP2 MSTORE ADDRESS PUSH1 0x4 DUP3 ADD MSTORE PUSH1 0x24 SWAP1 REVERT JUMPDEST DUP2 MLOAD SWAP2 SWAP1 PUSH1 0x41 DUP4 SUB PUSH2 0x1BD4 JUMPI PUSH2 0x1BCD SWAP3 POP PUSH1 0x20 DUP3 ADD MLOAD SWAP1 PUSH1 0x60 PUSH1 0x40 DUP5 ADD MLOAD SWAP4 ADD MLOAD PUSH0 BYTE SWAP1 PUSH2 0x1BE9 JUMP JUMPDEST SWAP2 SWAP3 SWAP1 SWAP2 SWAP1 JUMP JUMPDEST POP POP PUSH0 SWAP2 PUSH1 0x2 SWAP2 SWAP1 JUMP JUMPDEST PUSH1 0x40 MLOAD RETURNDATASIZE PUSH0 DUP3 RETURNDATACOPY RETURNDATASIZE SWAP1 REVERT JUMPDEST SWAP2 SWAP1 PUSH32 0x7FFFFFFFFFFFFFFFFFFFFFFFFFFFFFFF5D576E7357A4501DDFE92F46681B20A0 DUP5 GT PUSH2 0x1C60 JUMPI SWAP3 PUSH1 0x20 SWAP3 SWAP2 PUSH1 0xFF PUSH1 0x80 SWAP6 PUSH1 0x40 MLOAD SWAP5 DUP6 MSTORE AND DUP5 DUP5 ADD MSTORE PUSH1 0x40 DUP4 ADD MSTORE PUSH1 0x60 DUP3 ADD MSTORE PUSH0 SWAP3 DUP4 SWAP2 DUP3 DUP1 MSTORE PUSH1 0x1 GAS STATICCALL ISZERO PUSH2 0x9A0 JUMPI DUP1 MLOAD PUSH1 0x1 PUSH1 0x1 PUSH1 0xA0 SHL SUB DUP2 AND ISZERO PUSH2 0x1C57 JUMPI SWAP2 DUP2 SWAP1 JUMP JUMPDEST POP DUP1 SWAP2 PUSH1 0x1 SWAP2 SWAP1 JUMP JUMPDEST POP POP POP PUSH0 SWAP2 PUSH1 0x3 SWAP2 SWAP1 JUMP JUMPDEST PUSH1 0x42 SWAP1 PUSH2 0x1C76 PUSH2 0x1C91 JUMP JUMPDEST SWAP1 PUSH1 0x40 MLOAD SWAP2 PUSH2 0x1901 PUSH1 0xF0 SHL DUP4 MSTORE PUSH1 0x2 DUP4 ADD MSTORE PUSH1 0x22 DUP3 ADD MSTORE KECCAK256 SWAP1 JUMP JUMPDEST ADDRESS PUSH32 0x0 PUSH1 0x1 PUSH1 0x1 PUSH1 0xA0 SHL SUB AND EQ DUP1 PUSH2 0x1D82 JUMPI JUMPDEST ISZERO PUSH2 0x1CEC JUMPI PUSH32 0x0 SWAP1 JUMP JUMPDEST PUSH1 0x40 MLOAD PUSH1 0x20 DUP2 ADD SWAP1 PUSH32 0x8B73C3C69BB8FE3D512ECC4CF759CC79239F7B179B0FFACAA9A75D522B39400F DUP3 MSTORE PUSH32 0x0 PUSH1 0x40 DUP3 ADD MSTORE PUSH32 0x0 PUSH1 0x60 DUP3 ADD MSTORE CHAINID PUSH1 0x80 DUP3 ADD MSTORE ADDRESS PUSH1 0xA0 DUP3 ADD MSTORE PUSH1 0xA0 DUP2 MSTORE PUSH2 0x1D7C DUP2 PUSH2 0x9EC JUMP JUMPDEST MLOAD SWAP1 KECCAK256 SWAP1 JUMP JUMPDEST POP PUSH32 0x0 CHAINID EQ PUSH2 0x1CC3 JUMP JUMPDEST PUSH1 0xFF DUP2 EQ PUSH2 0x1DBC JUMPI PUSH2 0x16CF SWAP1 PUSH2 0x1F72 JUMP JUMPDEST POP PUSH1 0x40 MLOAD PUSH0 DUP1 SLOAD SWAP1 PUSH1 0x1 DUP3 DUP2 SHR SWAP3 DUP2 DUP2 AND SWAP2 DUP3 ISZERO PUSH2 0x1E9E JUMPI JUMPDEST PUSH1 0x20 SWAP2 DUP3 DUP7 LT DUP5 EQ PUSH2 0x1E8A JUMPI DUP6 DUP8 MSTORE DUP7 SWAP5 SWAP4 PUSH1 0x20 DUP7 ADD SWAP4 SWAP3 SWAP2 DUP2 ISZERO PUSH2 0x1E6B JUMPI POP PUSH1 0x1 EQ PUSH2 0x1E0C JUMPI JUMPDEST POP POP POP PUSH2 0x16CF SWAP3 POP SUB DUP3 PUSH2 0xA07 JUMP JUMPDEST SWAP3 POP SWAP4 PUSH2 0x1E39 PUSH0 DUP1 MSTORE PUSH32 0x290DECD9548B62A8D60345A988386FC84BA6BC95484008F6362F93160EF3E563 SWAP1 JUMP JUMPDEST SWAP5 PUSH0 SWAP4 JUMPDEST DUP3 DUP6 LT PUSH2 0x1E55 JUMPI POP POP POP PUSH2 0x16CF SWAP4 POP ADD PUSH0 DUP1 DUP1 PUSH2 0x1DFD JUMP JUMPDEST DUP7 SLOAD DUP6 DUP6 ADD MSTORE SWAP6 DUP7 ADD SWAP6 DUP8 SWAP6 POP SWAP4 DUP2 ADD SWAP4 PUSH2 0x1E3D JUMP JUMPDEST SWAP3 POP POP POP PUSH2 0x16CF SWAP5 SWAP2 SWAP3 POP PUSH1 0xFF NOT AND DUP3 MSTORE ISZERO ISZERO PUSH1 0x5 SHL ADD PUSH0 DUP1 DUP1 PUSH2 0x1DFD JUMP JUMPDEST PUSH4 0x4E487B71 PUSH1 0xE0 SHL DUP6 MSTORE PUSH1 0x22 PUSH1 0x4 MSTORE PUSH1 0x24 DUP6 REVERT JUMPDEST SWAP4 PUSH1 0x7F AND SWAP4 PUSH2 0x1DD5 JUMP JUMPDEST PUSH1 0xFF DUP2 EQ PUSH2 0x1EB9 JUMPI PUSH2 0x16CF SWAP1 PUSH2 0x1F72 JUMP JUMPDEST POP PUSH1 0x40 MLOAD PUSH1 0x1 DUP1 SLOAD DUP1 DUP3 SHR SWAP2 PUSH0 SWAP2 DUP1 DUP3 AND SWAP2 DUP3 ISZERO PUSH2 0x1F68 JUMPI JUMPDEST PUSH1 0x20 SWAP2 DUP3 DUP7 LT DUP5 EQ PUSH2 0x1E8A JUMPI DUP6 DUP8 MSTORE DUP7 SWAP5 SWAP4 PUSH1 0x20 DUP7 ADD SWAP4 SWAP3 SWAP2 DUP2 ISZERO PUSH2 0x1E6B JUMPI POP PUSH1 0x1 EQ PUSH2 0x1F08 JUMPI POP POP POP PUSH2 0x16CF SWAP3 POP SUB DUP3 PUSH2 0xA07 JUMP JUMPDEST SWAP3 POP SWAP4 PUSH2 0x1F36 PUSH1 0x1 PUSH0 MSTORE PUSH32 0xB10E2D527612073B26EECDFD717E6A320CF44B4AFAC2B0732D9FCBE2B7FA0CF6 SWAP1 JUMP JUMPDEST SWAP5 PUSH0 SWAP4 JUMPDEST DUP3 DUP6 LT PUSH2 0x1F52 JUMPI POP POP POP PUSH2 0x16CF SWAP4 POP ADD PUSH0 DUP1 DUP1 PUSH2 0x1DFD JUMP JUMPDEST DUP7 SLOAD DUP6 DUP6 ADD MSTORE SWAP6 DUP7 ADD SWAP6 DUP8 SWAP6 POP SWAP4 DUP2 ADD SWAP4 PUSH2 0x1F3A JUMP JUMPDEST SWAP4 PUSH1 0x7F AND SWAP4 PUSH2 0x1ED2 JUMP JUMPDEST PUSH1 0xFF DUP2 AND SWAP1 PUSH1 0x1F DUP3 GT PUSH2 0x1FA6 JUMPI PUSH1 0x40 MLOAD SWAP2 PUSH1 0x40 DUP4 ADD DUP4 DUP2 LT PUSH1 0x1 PUSH1 0x1 PUSH1 0x40 SHL SUB DUP3 GT OR PUSH2 0x9CC JUMPI PUSH1 0x40 MSTORE DUP3 MSTORE PUSH1 0x20 DUP3 ADD MSTORE SWAP1 JUMP JUMPDEST PUSH1 0x40 MLOAD PUSH4 0x2CD44AC3 PUSH1 0xE2 SHL DUP2 MSTORE PUSH1 0x4 SWAP1 REVERT JUMPDEST SWAP2 SWAP1 DUP2 LT ISZERO PUSH2 0x343 JUMPI PUSH1 0x5 SHL ADD SWAP1 JUMP JUMPDEST SWAP1 DUP2 PUSH1 0x20 SWAP2 SUB SLT PUSH2 0x245 JUMPI MLOAD SWAP1 JUMP JUMPDEST PUSH1 0x60 MLOAD DUP2 LT ISZERO PUSH2 0x343 JUMPI PUSH1 0x5 SHL PUSH1 0x80 ADD SWAP1 JUMP JUMPDEST DUP1 MLOAD DUP3 LT ISZERO PUSH2 0x343 JUMPI PUSH1 0x20 SWAP2 PUSH1 0x5 SHL ADD ADD SWAP1 JUMP JUMPDEST SWAP1 SWAP2 PUSH1 0x1 SWAP3 DUP4 PUSH1 0x9 SLOAD SUB PUSH2 0x496 JUMPI PUSH0 SWAP2 DUP3 PUSH1 0x9 SSTORE PUSH2 0x201B CALLER PUSH2 0x224A JUMP JUMPDEST DUP4 MLOAD SWAP4 DUP2 DUP6 SUB PUSH2 0x210F JUMPI DUP4 JUMPDEST DUP6 DUP2 LT PUSH2 0x2041 JUMPI POP POP POP POP POP POP POP PUSH2 0x203F PUSH1 0x1 PUSH1 0x9 SSTORE JUMP JUMPDEST JUMP JUMPDEST PUSH2 0x2064 PUSH2 0xBB1 PUSH2 0xBAA PUSH2 0xB91 PUSH2 0x2057 DUP6 DUP8 PUSH2 0x1FEA JUMP JUMPDEST MLOAD PUSH1 0x1 PUSH1 0x1 PUSH1 0xA0 SHL SUB AND SWAP1 JUMP JUMPDEST PUSH2 0x20FF JUMPI PUSH2 0x207E PUSH2 0x92A PUSH2 0x91D PUSH2 0x904 PUSH2 0x2057 DUP6 DUP8 PUSH2 0x1FEA JUMP JUMPDEST ISZERO PUSH2 0x20FF JUMPI PUSH2 0x209C PUSH2 0x92A PUSH2 0x92A PUSH2 0x91D PUSH2 0x904 PUSH2 0x2057 DUP7 DUP9 PUSH2 0x1FEA JUMP JUMPDEST PUSH2 0x20A7 DUP3 DUP6 DUP8 PUSH2 0x1FB8 JUMP JUMPDEST CALLDATALOAD DUP2 EXTCODESIZE ISZERO PUSH2 0x20FB JUMPI PUSH1 0x40 MLOAD PUSH4 0x6299A6EF PUSH1 0xE0 SHL DUP2 MSTORE PUSH1 0x4 DUP2 ADD SWAP2 SWAP1 SWAP2 MSTORE SWAP2 SWAP1 DUP7 SWAP1 DUP4 SWAP1 PUSH1 0x24 SWAP1 DUP3 SWAP1 DUP5 SWAP1 GAS CALL SWAP2 DUP3 ISZERO PUSH2 0x9A0 JUMPI DUP9 SWAP3 PUSH2 0x20E8 JUMPI JUMPDEST POP ADD PUSH2 0x2027 JUMP JUMPDEST DUP1 PUSH2 0xD9E PUSH2 0x20F5 SWAP3 PUSH2 0x9B9 JUMP JUMPDEST PUSH0 PUSH2 0x20E1 JUMP JUMPDEST DUP7 DUP1 REVERT JUMPDEST PUSH2 0x2057 PUSH2 0xC2F SWAP2 PUSH2 0xC56 SWAP4 PUSH2 0x1FEA JUMP JUMPDEST PUSH1 0x40 MLOAD PUSH4 0x512509D3 PUSH1 0xE1 SHL DUP2 MSTORE PUSH1 0x4 SWAP1 REVERT JUMPDEST PUSH1 0x40 MLOAD SWAP1 PUSH1 0x4 SLOAD DUP1 DUP4 MSTORE DUP3 PUSH1 0x20 SWAP2 DUP3 DUP3 ADD SWAP1 PUSH1 0x4 PUSH0 MSTORE PUSH0 DUP1 MLOAD PUSH1 0x20 PUSH2 0x2293 DUP4 CODECOPY DUP2 MLOAD SWAP2 MSTORE SWAP4 PUSH0 SWAP1 JUMPDEST DUP3 DUP3 LT PUSH2 0x215F JUMPI POP POP POP PUSH2 0x203F SWAP3 POP SUB DUP4 PUSH2 0xA07 JUMP JUMPDEST DUP6 SLOAD PUSH1 0x1 PUSH1 0x1 PUSH1 0xA0 SHL SUB AND DUP5 MSTORE PUSH1 0x1 SWAP6 DUP7 ADD SWAP6 DUP9 SWAP6 POP SWAP4 DUP2 ADD SWAP4 SWAP1 SWAP2 ADD SWAP1 PUSH2 0x2149 JUMP JUMPDEST PUSH0 NOT DUP2 ADD SWAP2 SWAP1 DUP3 GT PUSH2 0x1691 JUMPI JUMP JUMPDEST PUSH1 0x4 SLOAD DUP1 ISZERO PUSH2 0x21E7 JUMPI PUSH0 NOT DUP2 ADD SWAP1 DUP1 DUP3 LT ISZERO PUSH2 0x343 JUMPI PUSH32 0x8A35ACFBC15FF81A39AE7D344FD709F28E8600B4AA8C65C6B64BFE7FE36BD19A SWAP1 PUSH1 0x4 PUSH0 MSTORE ADD PUSH12 0xFFFFFFFFFFFFFFFFFFFFFFFF PUSH1 0xA0 SHL DUP2 SLOAD AND SWAP1 SSTORE PUSH1 0x4 SSTORE JUMP JUMPDEST PUSH4 0x4E487B71 PUSH1 0xE0 SHL PUSH0 MSTORE PUSH1 0x31 PUSH1 0x4 MSTORE PUSH1 0x24 PUSH0 REVERT JUMPDEST SWAP1 PUSH0 DUP1 SWAP3 PUSH1 0x4 DUP1 SLOAD SWAP3 DUP1 JUMPDEST DUP5 DUP2 LT PUSH2 0x2214 JUMPI POP POP POP POP POP JUMP JUMPDEST DUP3 DUP3 MSTORE PUSH0 DUP1 MLOAD PUSH1 0x20 PUSH2 0x2293 DUP4 CODECOPY DUP2 MLOAD SWAP2 MSTORE DUP2 ADD SLOAD PUSH1 0x1 PUSH1 0x1 PUSH1 0xA0 SHL SUB DUP6 DUP2 AND SWAP2 AND EQ PUSH2 0x2242 JUMPI PUSH1 0x1 ADD PUSH2 0x2206 JUMP JUMPDEST SWAP6 POP POP POP POP POP JUMP JUMPDEST PUSH1 0x1 PUSH1 0x1 PUSH1 0xA0 SHL SUB AND PUSH0 SWAP1 DUP2 MSTORE PUSH1 0x5 PUSH1 0x20 MSTORE PUSH1 0x40 SWAP1 KECCAK256 SLOAD PUSH1 0xFF AND ISZERO PUSH2 0x226B JUMPI JUMP JUMPDEST PUSH1 0x40 MLOAD PUSH4 0x31696E97 PUSH1 0xE2 SHL DUP2 MSTORE PUSH1 0x4 SWAP1 REVERT JUMPDEST PUSH1 0x1 PUSH1 0x9 SLOAD SUB PUSH2 0x496 JUMPI PUSH0 SWAP1 PUSH0 SWAP1 PUSH1 0x1 PUSH1 0x9 SSTORE JUMP INVALID DUP11 CALLDATALOAD 0xAC 0xFB 0xC1 PUSH0 0xF8 BYTE CODECOPY 0xAE PUSH30 0x344FD709F28E8600B4AA8C65C6B64BFE7FE36BD19BA26469706673582212 KECCAK256 0x5D ISZERO PUSH17 0xC64C21533F56A2877E229DDFDEE8A8514 0xD DUP15 0xBF 0xC 0xF8 OR 0xDF PUSH0 0x21 0xE7 0xBF BASEFEE PUSH5 0x736F6C6343 STOP ADDMOD EQ STOP CALLER "
		},
		"gasEstimates": {
			"creation": {
				"codeDepositCost": "1787200",
				"executionCost": "infinite",
				"totalCost": "infinite"
			},
			"external": {
				"addAdmin(address)": "infinite",
				"admin(address)": "2749",
				"admins(uint256)": "infinite",
				"batchPause(address[])": "infinite",
				"batchSetSmartAccounts(address[],address[])": "infinite",
				"batchSetSmartAccounts(uint256[],address[])": "infinite",
				"batchUnpause(address[])": "infinite",
				"batchUpdate(address[],int256[])": "infinite",
				"create(string,address[],uint256,bool,address[],bool,address[],bool,address[],uint256,address[],bool,uint256,uint8,bytes32,bytes32,bool)": "infinite",
				"create(string,uint256,bool,address[],bool,address[],bool,address[],uint256,address[],bool,uint256,uint8,bytes32,bytes32,bool)": "infinite",
				"credits(address[])": "infinite",
				"deactivate(uint256,bool)": "911",
				"eip712Domain()": "infinite",
				"execute((address,address,uint256,uint256,uint48,bytes,bytes))": "infinite",
				"executeBatch((address,address,uint256,uint256,uint48,bytes,bytes)[],address)": "infinite",
				"isTrustedForwarder(address)": "infinite",
				"nonces(address)": "2847",
				"number()": "2700",
				"punish(uint256[],int256)": "885",
				"removeAdmin(address)": "infinite",
				"scores(address[])": "infinite",
				"setMinAllocation(uint256,uint256)": "663",
				"setPaymentTokens(address,uint256)": "infinite",
				"setPercentageFromAllocation(uint256)": "145",
				"setPermittedERC1155Tokens(address)": "infinite",
				"setPermittedERC20Tokens(address)": "infinite",
				"setPermittedERC721Tokens(address)": "infinite",
				"setSmartAccount(uint256,address)": "466",
				"skim(address,address,uint256)": "infinite",
				"smartAccount(address)": "3120",
				"tokenToStandard(address)": "3023",
				"trustedForwarder()": "infinite",
				"users(address)": "2947",
				"verify((address,address,uint256,uint256,uint48,bytes,bytes))": "infinite"
			},
			"internal": {
				"_create(string calldata,bool,uint256,uint8,bytes32,bytes32)": "infinite",
				"_findIndex(address)": "infinite",
				"_isAdmin(address)": "infinite"
			}
		},
		"methodIdentifiers": {
			"addAdmin(address)": "70480275",
			"admin(address)": "63a846f8",
			"admins(uint256)": "14bfd6d0",
			"batchPause(address[])": "6b2b1d46",
			"batchSetSmartAccounts(address[],address[])": "508aa6d9",
			"batchSetSmartAccounts(uint256[],address[])": "8aeb602a",
			"batchUnpause(address[])": "5a1320bd",
			"batchUpdate(address[],int256[])": "48971acd",
			"create(string,address[],uint256,bool,address[],bool,address[],bool,address[],uint256,address[],bool,uint256,uint8,bytes32,bytes32,bool)": "1bdf413b",
			"create(string,uint256,bool,address[],bool,address[],bool,address[],uint256,address[],bool,uint256,uint8,bytes32,bytes32,bool)": "425385d5",
			"credits(address[])": "be500fb9",
			"deactivate(uint256,bool)": "f9e93771",
			"eip712Domain()": "84b0196e",
			"execute((address,address,uint256,uint256,uint48,bytes,bytes))": "df905caf",
			"executeBatch((address,address,uint256,uint256,uint48,bytes,bytes)[],address)": "ccf96b4a",
			"isTrustedForwarder(address)": "572b6c05",
			"nonces(address)": "7ecebe00",
			"number()": "8381f58a",
			"punish(uint256[],int256)": "b37bf09c",
			"removeAdmin(address)": "1785f53c",
			"scores(address[])": "46e7ad99",
			"setMinAllocation(uint256,uint256)": "9f56d135",
			"setPaymentTokens(address,uint256)": "b66c484e",
			"setPercentageFromAllocation(uint256)": "0ab9bb62",
			"setPermittedERC1155Tokens(address)": "10c030a3",
			"setPermittedERC20Tokens(address)": "de68a001",
			"setPermittedERC721Tokens(address)": "5709d115",
			"setSmartAccount(uint256,address)": "50ac2451",
			"skim(address,address,uint256)": "1a0361fb",
			"smartAccount(address)": "f6d8a744",
			"tokenToStandard(address)": "c2bb8120",
			"trustedForwarder()": "7da0a877",
			"users(address)": "a87430ba",
			"verify((address,address,uint256,uint256,uint48,bytes,bytes))": "19d8d38c"
		}
	},
	"abi": [
		{
			"inputs": [],
			"stateMutability": "nonpayable",
			"type": "constructor"
		},
		{
			"inputs": [
				{
					"internalType": "address",
					"name": "account",
					"type": "address"
				}
			],
			"name": "AddressInsufficientBalance",
			"type": "error"
		},
		{
			"inputs": [],
			"name": "ArrayLengthMismatch",
			"type": "error"
		},
		{
			"inputs": [
				{
					"internalType": "uint48",
					"name": "deadline",
					"type": "uint48"
				}
			],
			"name": "ERC2771ForwarderExpiredRequest",
			"type": "error"
		},
		{
			"inputs": [
				{
					"internalType": "address",
					"name": "signer",
					"type": "address"
				},
				{
					"internalType": "address",
					"name": "from",
					"type": "address"
				}
			],
			"name": "ERC2771ForwarderInvalidSigner",
			"type": "error"
		},
		{
			"inputs": [
				{
					"internalType": "uint256",
					"name": "requestedValue",
					"type": "uint256"
				},
				{
					"internalType": "uint256",
					"name": "msgValue",
					"type": "uint256"
				}
			],
			"name": "ERC2771ForwarderMismatchedValue",
			"type": "error"
		},
		{
			"inputs": [
				{
					"internalType": "address",
					"name": "target",
					"type": "address"
				},
				{
					"internalType": "address",
					"name": "forwarder",
					"type": "address"
				}
			],
			"name": "ERC2771UntrustfulTarget",
			"type": "error"
		},
		{
			"inputs": [],
			"name": "FailedInnerCall",
			"type": "error"
		},
		{
			"inputs": [],
			"name": "ForbiddenSender",
			"type": "error"
		},
		{
			"inputs": [
				{
					"internalType": "address",
					"name": "account",
					"type": "address"
				},
				{
					"internalType": "uint256",
					"name": "currentNonce",
					"type": "uint256"
				}
			],
			"name": "InvalidAccountNonce",
			"type": "error"
		},
		{
			"inputs": [],
			"name": "InvalidCalldata",
			"type": "error"
		},
		{
			"inputs": [],
			"name": "InvalidShortString",
			"type": "error"
		},
		{
			"inputs": [
				{
					"internalType": "address",
					"name": "user",
					"type": "address"
				}
			],
			"name": "InvalidUser",
			"type": "error"
		},
		{
			"inputs": [],
			"name": "Locked",
			"type": "error"
		},
		{
			"inputs": [
				{
					"internalType": "string",
					"name": "str",
					"type": "string"
				}
			],
			"name": "StringTooLong",
			"type": "error"
		},
		{
			"anonymous": false,
			"inputs": [],
			"name": "EIP712DomainChanged",
			"type": "event"
		},
		{
			"anonymous": false,
			"inputs": [
				{
					"indexed": true,
					"internalType": "address",
					"name": "signer",
					"type": "address"
				},
				{
					"indexed": false,
					"internalType": "uint256",
					"name": "nonce",
					"type": "uint256"
				},
				{
					"indexed": false,
					"internalType": "bool",
					"name": "success",
					"type": "bool"
				}
			],
			"name": "ExecutedForwardRequest",
			"type": "event"
		},
		{
			"inputs": [
				{
					"internalType": "address",
					"name": "_admin",
					"type": "address"
				}
			],
			"name": "addAdmin",
			"outputs": [
				{
					"internalType": "address[]",
					"name": "newAdmins",
					"type": "address[]"
				}
			],
			"stateMutability": "nonpayable",
			"type": "function"
		},
		{
			"inputs": [
				{
					"internalType": "address",
					"name": "",
					"type": "address"
				}
			],
			"name": "admin",
			"outputs": [
				{
					"internalType": "bool",
					"name": "",
					"type": "bool"
				}
			],
			"stateMutability": "view",
			"type": "function"
		},
		{
			"inputs": [
				{
					"internalType": "uint256",
					"name": "",
					"type": "uint256"
				}
			],
			"name": "admins",
			"outputs": [
				{
					"internalType": "address",
					"name": "",
					"type": "address"
				}
			],
			"stateMutability": "view",
			"type": "function"
		},
		{
			"inputs": [
				{
					"internalType": "address[]",
					"name": "_users",
					"type": "address[]"
				}
			],
			"name": "batchPause",
			"outputs": [],
			"stateMutability": "nonpayable",
			"type": "function"
		},
		{
			"inputs": [
				{
					"internalType": "address[]",
					"name": "_users",
					"type": "address[]"
				},
				{
					"internalType": "address[]",
					"name": "_newSmartAccounts",
					"type": "address[]"
				}
			],
			"name": "batchSetSmartAccounts",
			"outputs": [
				{
					"internalType": "bool",
					"name": "",
					"type": "bool"
				}
			],
			"stateMutability": "nonpayable",
			"type": "function"
		},
		{
			"inputs": [
				{
					"internalType": "uint256[]",
					"name": "_users",
					"type": "uint256[]"
				},
				{
					"internalType": "address[]",
					"name": "_newSmartAccounts",
					"type": "address[]"
				}
			],
			"name": "batchSetSmartAccounts",
			"outputs": [
				{
					"internalType": "bool",
					"name": "",
					"type": "bool"
				}
			],
			"stateMutability": "nonpayable",
			"type": "function"
		},
		{
			"inputs": [
				{
					"internalType": "address[]",
					"name": "_users",
					"type": "address[]"
				}
			],
			"name": "batchUnpause",
			"outputs": [],
			"stateMutability": "nonpayable",
			"type": "function"
		},
		{
			"inputs": [
				{
					"internalType": "address[]",
					"name": "_users",
					"type": "address[]"
				},
				{
					"internalType": "int256[]",
					"name": "_liabilities",
					"type": "int256[]"
				}
			],
			"name": "batchUpdate",
			"outputs": [],
			"stateMutability": "nonpayable",
			"type": "function"
		},
		{
			"inputs": [
				{
					"internalType": "string",
					"name": "_user",
					"type": "string"
				},
				{
					"internalType": "address[]",
					"name": "admins",
					"type": "address[]"
				},
				{
					"internalType": "uint256",
					"name": "minAllocation",
					"type": "uint256"
				},
				{
					"internalType": "bool",
					"name": "acceptERC20Tokens",
					"type": "bool"
				},
				{
					"internalType": "address[]",
					"name": "permittedERC20Tokens",
					"type": "address[]"
				},
				{
					"internalType": "bool",
					"name": "acceptERC721Tokens",
					"type": "bool"
				},
				{
					"internalType": "address[]",
					"name": "permittedERC721Tokens",
					"type": "address[]"
				},
				{
					"internalType": "bool",
					"name": "acceptERC1155Tokens",
					"type": "bool"
				},
				{
					"internalType": "address[]",
					"name": "permittedERC1155Tokens",
					"type": "address[]"
				},
				{
					"internalType": "uint256",
					"name": "percentageFromAllocation",
					"type": "uint256"
				},
				{
					"internalType": "address[]",
					"name": "paymentTokens",
					"type": "address[]"
				},
				{
					"internalType": "bool",
					"name": "includesNonce",
					"type": "bool"
				},
				{
					"internalType": "uint256",
					"name": "nonce",
					"type": "uint256"
				},
				{
					"internalType": "uint8",
					"name": "v",
					"type": "uint8"
				},
				{
					"internalType": "bytes32",
					"name": "r",
					"type": "bytes32"
				},
				{
					"internalType": "bytes32",
					"name": "s",
					"type": "bytes32"
				},
				{
					"internalType": "bool",
					"name": "useDefault",
					"type": "bool"
				}
			],
			"name": "create",
			"outputs": [
				{
					"internalType": "address",
					"name": "user",
					"type": "address"
				},
				{
					"internalType": "address",
					"name": "smartAccount",
					"type": "address"
				}
			],
			"stateMutability": "nonpayable",
			"type": "function"
		},
		{
			"inputs": [
				{
					"internalType": "string",
					"name": "user",
					"type": "string"
				},
				{
					"internalType": "uint256",
					"name": "minAllocation",
					"type": "uint256"
				},
				{
					"internalType": "bool",
					"name": "acceptERC20Tokens",
					"type": "bool"
				},
				{
					"internalType": "address[]",
					"name": "permittedERC20Tokens",
					"type": "address[]"
				},
				{
					"internalType": "bool",
					"name": "acceptERC721Tokens",
					"type": "bool"
				},
				{
					"internalType": "address[]",
					"name": "permittedERC721Tokens",
					"type": "address[]"
				},
				{
					"internalType": "bool",
					"name": "acceptERC1155Tokens",
					"type": "bool"
				},
				{
					"internalType": "address[]",
					"name": "permittedERC1155Tokens",
					"type": "address[]"
				},
				{
					"internalType": "uint256",
					"name": "percentageFromAllocation",
					"type": "uint256"
				},
				{
					"internalType": "address[]",
					"name": "paymentTokens",
					"type": "address[]"
				},
				{
					"internalType": "bool",
					"name": "includesNonce",
					"type": "bool"
				},
				{
					"internalType": "uint256",
					"name": "nonce",
					"type": "uint256"
				},
				{
					"internalType": "uint8",
					"name": "v",
					"type": "uint8"
				},
				{
					"internalType": "bytes32",
					"name": "r",
					"type": "bytes32"
				},
				{
					"internalType": "bytes32",
					"name": "s",
					"type": "bytes32"
				},
				{
					"internalType": "bool",
					"name": "useDefault",
					"type": "bool"
				}
			],
			"name": "create",
			"outputs": [
				{
					"internalType": "address",
					"name": "_user",
					"type": "address"
				},
				{
					"internalType": "address",
					"name": "smartAccount",
					"type": "address"
				}
			],
			"stateMutability": "nonpayable",
			"type": "function"
		},
		{
			"inputs": [
				{
					"internalType": "address[]",
					"name": "_users",
					"type": "address[]"
				}
			],
			"name": "credits",
			"outputs": [
				{
					"internalType": "int256[]",
					"name": "credits",
					"type": "int256[]"
				}
			],
			"stateMutability": "view",
			"type": "function"
		},
		{
			"inputs": [
				{
					"internalType": "uint256",
					"name": "userId",
					"type": "uint256"
				},
				{
					"internalType": "bool",
					"name": "refund",
					"type": "bool"
				}
			],
			"name": "deactivate",
			"outputs": [
				{
					"internalType": "bool",
					"name": "",
					"type": "bool"
				}
			],
			"stateMutability": "nonpayable",
			"type": "function"
		},
		{
			"inputs": [],
			"name": "eip712Domain",
			"outputs": [
				{
					"internalType": "bytes1",
					"name": "fields",
					"type": "bytes1"
				},
				{
					"internalType": "string",
					"name": "name",
					"type": "string"
				},
				{
					"internalType": "string",
					"name": "version",
					"type": "string"
				},
				{
					"internalType": "uint256",
					"name": "chainId",
					"type": "uint256"
				},
				{
					"internalType": "address",
					"name": "verifyingContract",
					"type": "address"
				},
				{
					"internalType": "bytes32",
					"name": "salt",
					"type": "bytes32"
				},
				{
					"internalType": "uint256[]",
					"name": "extensions",
					"type": "uint256[]"
				}
			],
			"stateMutability": "view",
			"type": "function"
		},
		{
			"inputs": [
				{
					"components": [
						{
							"internalType": "address",
							"name": "from",
							"type": "address"
						},
						{
							"internalType": "address",
							"name": "to",
							"type": "address"
						},
						{
							"internalType": "uint256",
							"name": "value",
							"type": "uint256"
						},
						{
							"internalType": "uint256",
							"name": "gas",
							"type": "uint256"
						},
						{
							"internalType": "uint48",
							"name": "deadline",
							"type": "uint48"
						},
						{
							"internalType": "bytes",
							"name": "data",
							"type": "bytes"
						},
						{
							"internalType": "bytes",
							"name": "signature",
							"type": "bytes"
						}
					],
					"internalType": "struct ERC2771Forwarder.ForwardRequestData",
					"name": "request",
					"type": "tuple"
				}
			],
			"name": "execute",
			"outputs": [],
			"stateMutability": "payable",
			"type": "function"
		},
		{
			"inputs": [
				{
					"components": [
						{
							"internalType": "address",
							"name": "from",
							"type": "address"
						},
						{
							"internalType": "address",
							"name": "to",
							"type": "address"
						},
						{
							"internalType": "uint256",
							"name": "value",
							"type": "uint256"
						},
						{
							"internalType": "uint256",
							"name": "gas",
							"type": "uint256"
						},
						{
							"internalType": "uint48",
							"name": "deadline",
							"type": "uint48"
						},
						{
							"internalType": "bytes",
							"name": "data",
							"type": "bytes"
						},
						{
							"internalType": "bytes",
							"name": "signature",
							"type": "bytes"
						}
					],
					"internalType": "struct ERC2771Forwarder.ForwardRequestData[]",
					"name": "requests",
					"type": "tuple[]"
				},
				{
					"internalType": "address payable",
					"name": "refundReceiver",
					"type": "address"
				}
			],
			"name": "executeBatch",
			"outputs": [],
			"stateMutability": "payable",
			"type": "function"
		},
		{
			"inputs": [
				{
					"internalType": "address",
					"name": "forwarder",
					"type": "address"
				}
			],
			"name": "isTrustedForwarder",
			"outputs": [
				{
					"internalType": "bool",
					"name": "",
					"type": "bool"
				}
			],
			"stateMutability": "view",
			"type": "function"
		},
		{
			"inputs": [
				{
					"internalType": "address",
					"name": "owner",
					"type": "address"
				}
			],
			"name": "nonces",
			"outputs": [
				{
					"internalType": "uint256",
					"name": "",
					"type": "uint256"
				}
			],
			"stateMutability": "view",
			"type": "function"
		},
		{
			"inputs": [],
			"name": "number",
			"outputs": [
				{
					"internalType": "uint256",
					"name": "",
					"type": "uint256"
				}
			],
			"stateMutability": "view",
			"type": "function"
		},
		{
			"inputs": [
				{
					"internalType": "uint256[]",
					"name": "usersIds",
					"type": "uint256[]"
				},
				{
					"internalType": "int256",
					"name": "amounts",
					"type": "int256"
				}
			],
			"name": "punish",
			"outputs": [],
			"stateMutability": "nonpayable",
			"type": "function"
		},
		{
			"inputs": [
				{
					"internalType": "address",
					"name": "_admin",
					"type": "address"
				}
			],
			"name": "removeAdmin",
			"outputs": [
				{
					"internalType": "address[]",
					"name": "newAdmins",
					"type": "address[]"
				}
			],
			"stateMutability": "nonpayable",
			"type": "function"
		},
		{
			"inputs": [
				{
					"internalType": "address[]",
					"name": "_users",
					"type": "address[]"
				}
			],
			"name": "scores",
			"outputs": [
				{
					"internalType": "int256[]",
					"name": "scores",
					"type": "int256[]"
				}
			],
			"stateMutability": "view",
			"type": "function"
		},
		{
			"inputs": [
				{
					"internalType": "uint256",
					"name": "userId",
					"type": "uint256"
				},
				{
					"internalType": "uint256",
					"name": "minAllocation",
					"type": "uint256"
				}
			],
			"name": "setMinAllocation",
			"outputs": [
				{
					"internalType": "uint256",
					"name": "newMinAllocation",
					"type": "uint256"
				}
			],
			"stateMutability": "nonpayable",
			"type": "function"
		},
		{
			"inputs": [
				{
					"internalType": "address",
					"name": "paymentTokens",
					"type": "address"
				},
				{
					"internalType": "uint256",
					"name": "tokenType",
					"type": "uint256"
				}
			],
			"name": "setPaymentTokens",
			"outputs": [
				{
					"internalType": "address[]",
					"name": "newPaymentTokens",
					"type": "address[]"
				}
			],
			"stateMutability": "nonpayable",
			"type": "function"
		},
		{
			"inputs": [
				{
					"internalType": "uint256",
					"name": "percentageFromAllocation",
					"type": "uint256"
				}
			],
			"name": "setPercentageFromAllocation",
			"outputs": [
				{
					"internalType": "uint256",
					"name": "newPercentageFromAllocation",
					"type": "uint256"
				}
			],
			"stateMutability": "nonpayable",
			"type": "function"
		},
		{
			"inputs": [
				{
					"internalType": "address",
					"name": "tokenAddress",
					"type": "address"
				}
			],
			"name": "setPermittedERC1155Tokens",
			"outputs": [
				{
					"internalType": "address[]",
					"name": "",
					"type": "address[]"
				}
			],
			"stateMutability": "nonpayable",
			"type": "function"
		},
		{
			"inputs": [
				{
					"internalType": "address",
					"name": "tokenAddress",
					"type": "address"
				}
			],
			"name": "setPermittedERC20Tokens",
			"outputs": [
				{
					"internalType": "address[]",
					"name": "newPermittedERC20Tokens",
					"type": "address[]"
				}
			],
			"stateMutability": "nonpayable",
			"type": "function"
		},
		{
			"inputs": [
				{
					"internalType": "address",
					"name": "tokenAddress",
					"type": "address"
				}
			],
			"name": "setPermittedERC721Tokens",
			"outputs": [
				{
					"internalType": "address[]",
					"name": "newPermittedERC721Tokens",
					"type": "address[]"
				}
			],
			"stateMutability": "nonpayable",
			"type": "function"
		},
		{
			"inputs": [
				{
					"internalType": "uint256",
					"name": "userId",
					"type": "uint256"
				},
				{
					"internalType": "address",
					"name": "newSmartAccount",
					"type": "address"
				}
			],
			"name": "setSmartAccount",
			"outputs": [
				{
					"internalType": "bool",
					"name": "",
					"type": "bool"
				}
			],
			"stateMutability": "nonpayable",
			"type": "function"
		},
		{
			"inputs": [
				{
					"internalType": "address",
					"name": "_token",
					"type": "address"
				},
				{
					"internalType": "address",
					"name": "_to",
					"type": "address"
				},
				{
					"internalType": "uint256",
					"name": "_id",
					"type": "uint256"
				}
			],
			"name": "skim",
			"outputs": [
				{
					"internalType": "bool",
					"name": "",
					"type": "bool"
				}
			],
			"stateMutability": "nonpayable",
			"type": "function"
		},
		{
			"inputs": [
				{
					"internalType": "address",
					"name": "",
					"type": "address"
				}
			],
			"name": "smartAccount",
			"outputs": [
				{
					"internalType": "address",
					"name": "",
					"type": "address"
				}
			],
			"stateMutability": "view",
			"type": "function"
		},
		{
			"inputs": [
				{
					"internalType": "address",
					"name": "",
					"type": "address"
				}
			],
			"name": "tokenToStandard",
			"outputs": [
				{
					"internalType": "uint256",
					"name": "",
					"type": "uint256"
				}
			],
			"stateMutability": "view",
			"type": "function"
		},
		{
			"inputs": [],
			"name": "trustedForwarder",
			"outputs": [
				{
					"internalType": "address",
					"name": "",
					"type": "address"
				}
			],
			"stateMutability": "view",
			"type": "function"
		},
		{
			"inputs": [
				{
					"internalType": "address",
					"name": "",
					"type": "address"
				}
			],
			"name": "users",
			"outputs": [
				{
					"internalType": "bool",
					"name": "",
					"type": "bool"
				}
			],
			"stateMutability": "view",
			"type": "function"
		},
		{
			"inputs": [
				{
					"components": [
						{
							"internalType": "address",
							"name": "from",
							"type": "address"
						},
						{
							"internalType": "address",
							"name": "to",
							"type": "address"
						},
						{
							"internalType": "uint256",
							"name": "value",
							"type": "uint256"
						},
						{
							"internalType": "uint256",
							"name": "gas",
							"type": "uint256"
						},
						{
							"internalType": "uint48",
							"name": "deadline",
							"type": "uint48"
						},
						{
							"internalType": "bytes",
							"name": "data",
							"type": "bytes"
						},
						{
							"internalType": "bytes",
							"name": "signature",
							"type": "bytes"
						}
					],
					"internalType": "struct ERC2771Forwarder.ForwardRequestData",
					"name": "request",
					"type": "tuple"
				}
			],
			"name": "verify",
			"outputs": [
				{
					"internalType": "bool",
					"name": "",
					"type": "bool"
				}
			],
			"stateMutability": "view",
			"type": "function"
		}
	]
}