{
	"src/SmartAccount.sol": {
		"SmartAccount": {
			"abi": [
				{
					"inputs": [
						{
							"internalType": "string",
							"name": "_name",
							"type": "string"
						}
					],
					"stateMutability": "nonpayable",
					"type": "constructor"
				},
				{
					"inputs": [],
					"name": "ForbiddenSender",
					"type": "error"
				},
				{
					"inputs": [
						{
							"internalType": "address",
							"name": "account",
							"type": "address"
						}
					],
					"name": "admin",
					"outputs": [
						{
							"internalType": "bool",
							"name": "",
							"type": "bool"
						}
					],
					"stateMutability": "view",
					"type": "function"
				},
				{
					"inputs": [
						{
							"internalType": "uint256",
							"name": "tokenIndex",
							"type": "uint256"
						},
						{
							"internalType": "uint256",
							"name": "amount",
							"type": "uint256"
						}
					],
					"name": "allocate",
					"outputs": [],
					"stateMutability": "nonpayable",
					"type": "function"
				},
				{
					"inputs": [
						{
							"internalType": "uint256",
							"name": "tokenIndex",
							"type": "uint256"
						},
						{
							"internalType": "uint256",
							"name": "amount",
							"type": "uint256"
						},
						{
							"internalType": "address",
							"name": "to",
							"type": "address"
						}
					],
					"name": "allocateDelegate",
					"outputs": [],
					"stateMutability": "nonpayable",
					"type": "function"
				},
				{
					"inputs": [
						{
							"internalType": "uint256",
							"name": "tokenIndex",
							"type": "uint256"
						},
						{
							"internalType": "uint256",
							"name": "amount",
							"type": "uint256"
						},
						{
							"internalType": "uint256",
							"name": "deadline",
							"type": "uint256"
						},
						{
							"internalType": "bool",
							"name": "includesNonce",
							"type": "bool"
						},
						{
							"internalType": "uint256",
							"name": "nonce",
							"type": "uint256"
						},
						{
							"internalType": "uint8",
							"name": "v",
							"type": "uint8"
						},
						{
							"internalType": "bytes32",
							"name": "r",
							"type": "bytes32"
						},
						{
							"internalType": "bytes32",
							"name": "s",
							"type": "bytes32"
						}
					],
					"name": "allocateWithPermit",
					"outputs": [],
					"stateMutability": "nonpayable",
					"type": "function"
				},
				{
					"inputs": [
						{
							"internalType": "uint256[]",
							"name": "tokenIndexes",
							"type": "uint256[]"
						},
						{
							"internalType": "uint256[]",
							"name": "amounts",
							"type": "uint256[]"
						},
						{
							"internalType": "uint256[]",
							"name": "deadlines",
							"type": "uint256[]"
						},
						{
							"internalType": "bool[]",
							"name": "includesNonce",
							"type": "bool[]"
						},
						{
							"internalType": "uint256[]",
							"name": "nonces",
							"type": "uint256[]"
						},
						{
							"internalType": "uint8[]",
							"name": "v",
							"type": "uint8[]"
						},
						{
							"internalType": "bytes32[]",
							"name": "r",
							"type": "bytes32[]"
						},
						{
							"internalType": "bytes32[]",
							"name": "s",
							"type": "bytes32[]"
						}
					],
					"name": "batchAllocateWithPermit",
					"outputs": [],
					"stateMutability": "nonpayable",
					"type": "function"
				},
				{
					"inputs": [
						{
							"internalType": "uint8",
							"name": "v",
							"type": "uint8"
						},
						{
							"internalType": "bytes32",
							"name": "r",
							"type": "bytes32"
						},
						{
							"internalType": "bytes32",
							"name": "s",
							"type": "bytes32"
						},
						{
							"internalType": "bytes",
							"name": "data",
							"type": "bytes"
						}
					],
					"name": "cease",
					"outputs": [],
					"stateMutability": "nonpayable",
					"type": "function"
				},
				{
					"inputs": [],
					"name": "credit",
					"outputs": [
						{
							"internalType": "int256",
							"name": "",
							"type": "int256"
						}
					],
					"stateMutability": "view",
					"type": "function"
				},
				{
					"inputs": [],
					"name": "lastUpdatedAt",
					"outputs": [
						{
							"internalType": "uint256",
							"name": "",
							"type": "uint256"
						}
					],
					"stateMutability": "view",
					"type": "function"
				},
				{
					"inputs": [],
					"name": "maxCredit",
					"outputs": [
						{
							"internalType": "uint256",
							"name": "",
							"type": "uint256"
						}
					],
					"stateMutability": "view",
					"type": "function"
				},
				{
					"inputs": [],
					"name": "name",
					"outputs": [
						{
							"internalType": "string",
							"name": "",
							"type": "string"
						}
					],
					"stateMutability": "view",
					"type": "function"
				},
				{
					"inputs": [],
					"name": "pause",
					"outputs": [],
					"stateMutability": "nonpayable",
					"type": "function"
				},
				{
					"inputs": [],
					"name": "score",
					"outputs": [
						{
							"internalType": "int256",
							"name": "",
							"type": "int256"
						}
					],
					"stateMutability": "view",
					"type": "function"
				},
				{
					"inputs": [
						{
							"internalType": "address",
							"name": "paymentTokens",
							"type": "address"
						},
						{
							"internalType": "uint256",
							"name": "tokenType",
							"type": "uint256"
						}
					],
					"name": "setPaymentTokens",
					"outputs": [
						{
							"internalType": "address[]",
							"name": "newPaymentTokens",
							"type": "address[]"
						}
					],
					"stateMutability": "nonpayable",
					"type": "function"
				},
				{
					"inputs": [
						{
							"internalType": "uint256",
							"name": "percentageFromAllocation",
							"type": "uint256"
						}
					],
					"name": "setPercentageFromAllocation",
					"outputs": [
						{
							"internalType": "uint256",
							"name": "newPercentageFromAllocation",
							"type": "uint256"
						}
					],
					"stateMutability": "nonpayable",
					"type": "function"
				},
				{
					"inputs": [
						{
							"internalType": "address",
							"name": "tokenAddress",
							"type": "address"
						}
					],
					"name": "setPermittedERC1155Tokens",
					"outputs": [
						{
							"internalType": "address[]",
							"name": "",
							"type": "address[]"
						}
					],
					"stateMutability": "nonpayable",
					"type": "function"
				},
				{
					"inputs": [
						{
							"internalType": "address",
							"name": "tokenAddress",
							"type": "address"
						}
					],
					"name": "setPermittedERC20Tokens",
					"outputs": [
						{
							"internalType": "address[]",
							"name": "newPermittedERC20Tokens",
							"type": "address[]"
						}
					],
					"stateMutability": "nonpayable",
					"type": "function"
				},
				{
					"inputs": [
						{
							"internalType": "address",
							"name": "tokenAddress",
							"type": "address"
						}
					],
					"name": "setPermittedERC721Tokens",
					"outputs": [
						{
							"internalType": "address[]",
							"name": "newPermittedERC721Tokens",
							"type": "address[]"
						}
					],
					"stateMutability": "nonpayable",
					"type": "function"
				},
				{
					"inputs": [
						{
							"internalType": "bool",
							"name": "_useDefault",
							"type": "bool"
						}
					],
					"name": "setUseDefault",
					"outputs": [
						{
							"internalType": "bool",
							"name": "",
							"type": "bool"
						}
					],
					"stateMutability": "nonpayable",
					"type": "function"
				},
				{
					"inputs": [
						{
							"internalType": "address",
							"name": "token",
							"type": "address"
						},
						{
							"internalType": "address",
							"name": "to",
							"type": "address"
						}
					],
					"name": "skim",
					"outputs": [
						{
							"internalType": "bool",
							"name": "",
							"type": "bool"
						}
					],
					"stateMutability": "nonpayable",
					"type": "function"
				},
				{
					"inputs": [
						{
							"internalType": "address",
							"name": "_token",
							"type": "address"
						}
					],
					"name": "tokenToStandard",
					"outputs": [
						{
							"internalType": "uint256",
							"name": "",
							"type": "uint256"
						}
					],
					"stateMutability": "view",
					"type": "function"
				},
				{
					"inputs": [],
					"name": "unpause",
					"outputs": [],
					"stateMutability": "nonpayable",
					"type": "function"
				},
				{
					"inputs": [
						{
							"internalType": "int256",
							"name": "amount",
							"type": "int256"
						}
					],
					"name": "update",
					"outputs": [
						{
							"internalType": "int256",
							"name": "",
							"type": "int256"
						}
					],
					"stateMutability": "nonpayable",
					"type": "function"
				},
				{
					"inputs": [],
					"name": "useDefault",
					"outputs": [
						{
							"internalType": "bool",
							"name": "",
							"type": "bool"
						}
					],
					"stateMutability": "view",
					"type": "function"
				}
			],
			"devdoc": {
				"author": "Caio Sá",
				"kind": "dev",
				"methods": {
					"admin(address)": {
						"details": "It should always match the current admins in SAFactory. So, avoid passing in constants, but always make a call to IFactory.admins().",
						"params": {
							"account": "to verify"
						}
					},
					"allocateWithPermit(uint256,uint256,uint256,bool,uint256,uint8,bytes32,bytes32)": {
						"params": {
							"amount": "amount of token to allocate",
							"deadline": "deadline for token to be allocated.",
							"includesNonce": "does the token include a nonce (e.g. DAI) Check whether a nonce can be 0 - since it probably can't, use it as a param to identify that there's no nonce.",
							"nonce": "tx's nonce for token allocation, if any.",
							"r": "sig param",
							"s": "sig param",
							"tokenIndex": "token to allocate",
							"v": "sig param"
						}
					},
					"batchAllocateWithPermit(uint256[],uint256[],uint256[],bool[],uint256[],uint8[],bytes32[],bytes32[])": {
						"params": {
							"amounts": "amounts of each token to be deposited.",
							"deadlines": "deadlines for the transfers to happen.",
							"includesNonce": "whether tokens use includes nonces",
							"nonces": "nonces for tokens. Choose an arbitrary number those who haven't nonces",
							"r": "sig param",
							"s": "sig param",
							"tokenIndexes": "tokens the user want to allocate to receive credit. Must be in inside the permitted tokens addresses chosen by the company.",
							"v": "sig param"
						}
					},
					"skim(address,address)": {
						"params": {
							"to": "to whom it should be given to, possibly being the user who sent it by accident.",
							"token": "token to be withdrawn."
						}
					},
					"tokenToStandard(address)": {
						"params": {
							"_token": "address of token."
						}
					},
					"update(int256)": {
						"params": {
							"amount": "debt or credit of user in a given time. It is used to update the `credit` mapping."
						}
					}
				},
				"stateVariables": {
					"useDefault": {
						"details": "I thought of having all users use the same value, but as it is done in the TradFi industry, users are categorized into certain thresholds - there's the Itau, but there's also the Itau Personalité, for example. So, a customization should be made possible. So, functions sould be also be accessible to be modified by admins in SA."
					}
				},
				"title": "SmartAccount",
				"version": 1
			},
			"evm": {
				"assembly": "    /* \"src/SmartAccount.sol\":671:5732  contract SmartAccount is ISmartAccount {... */\n  mstore(0x40, 0x80)\n  jumpi(tag_14, callvalue)\n  bytecodeSize\n  dup1\n  codesize\n  sub\n  dup1\n  tag_4\n  dup2\n  tag_1\n  jump\t// in\ntag_4:\n  swap3\n  dup4\n  codecopy\n  dup2\n  add\n  swap1\n  0x20\n  swap1\n  dup2\n  dup2\n  dup5\n  sub\n  slt\n  tag_14\n  jumpi\n  dup1\n  mload\n  sub(shl(0x40, 0x01), 0x01)\n  swap2\n  dup3\n  dup3\n  gt\n  tag_14\n  jumpi\n  add\n  swap2\n  0x1f\n  swap1\n  dup5\n  dup3\n  dup6\n  add\n  slt\n  iszero\n  tag_14\n  jumpi\n  dup4\n  mload\n  dup4\n  dup2\n  gt\n  tag_19\n  jumpi\n  not(0x1f)\n  swap5\n  tag_13\n  dup3\n  dup6\n  add\n  dup8\n  and\n  dup5\n  add\n  tag_1\n  jump\t// in\ntag_13:\n  swap7\n  dup3\n  dup9\n  mstore\n  dup4\n  dup4\n  dup4\n  add\n  add\n  gt\n  tag_14\n  jumpi\n  dup3\n  swap1\n  0x00\ntag_16:\n  dup4\n  dup2\n  lt\n  tag_17\n  jumpi\n  pop\n  pop\n  0x00\n  swap2\n  dup8\n  add\n  add\n  mstore\n    /* \"src/SmartAccount.sol\":1232:1233  1 */\n  0x01\n    /* \"src/SmartAccount.sol\":671:5732  contract SmartAccount is ISmartAccount {... */\n  swap4\n  dup5\n    /* \"src/SmartAccount.sol\":1232:1233  1 */\n  0x07\n    /* \"src/SmartAccount.sol\":671:5732  contract SmartAccount is ISmartAccount {... */\n  sstore\n  dup6\n  mload\n  swap4\n  dup5\n  gt\n  tag_19\n  jumpi\n  dup5\n  sload\n  dup6\n  dup2\n  dup2\n  shr\n  swap2\n  and\n  dup1\n  iszero\n  tag_21\n  jumpi\ntag_22:\n  dup4\n  dup3\n  lt\n  eq\n  tag_23\n  jumpi\n  dup4\n  dup2\n  gt\n  tag_25\n  jumpi\ntag_26:\n  pop\n  dup2\n  swap3\n  dup5\n  gt\n  0x01\n  eq\n  tag_27\n  jumpi\n  pop\n  pop\n  dup2\n  swap3\n  swap4\n  0x00\n  swap3\n  tag_29\n  jumpi\ntag_30:\n  pop\n  pop\n  not(0x00)\n  0x03\n  dup4\n  swap1\n  shl\n  shr\n  not\n  and\n  swap1\n  dup3\n  shl\n  or\n  swap1\n  sstore\ntag_31:\n  0x00\n  dup1\n  sload\n  not(sub(shl(0xa0, 0x01), 0x01))\n  and\n    /* \"src/SmartAccount.sol\":1651:1661  msg.sender */\n  caller\n    /* \"src/SmartAccount.sol\":671:5732  contract SmartAccount is ISmartAccount {... */\n  or\n  swap1\n  sstore\n  mload(0x40)\n  dataSize(sub_0)\n  swap1\n  dup2\n  dataOffset(sub_0)\n  dup3\n  codecopy\n  return\ntag_29:\n  add\n  mload\n  swap1\n  pop\n  0x00\n  dup1\n  jump(tag_30)\ntag_27:\n  0x00\n  dup6\n  dup2\n  mstore\n  dup3\n  dup2\n  keccak256\n  swap2\n  dup6\n  and\n  swap7\n  swap2\n  swap4\n  swap3\ntag_32:\n  dup8\n  dup3\n  lt\n  tag_33\n  jumpi\n  pop\n  pop\n  dup4\n  dup6\n  swap7\n  lt\n  tag_35\n  jumpi\ntag_36:\n  pop\n  pop\n  pop\n  dup2\n  shl\n  add\n  swap1\n  sstore\n  jump(tag_31)\ntag_35:\n  add\n  mload\n  not(0x00)\n  0xf8\n  dup5\n  0x03\n  shl\n  and\n  shr\n  not\n  and\n  swap1\n  sstore\n  0x00\n  dup1\n  dup1\n  jump(tag_36)\ntag_33:\n  dup1\n  dup8\n  dup6\n  swap7\n  dup3\n  swap5\n  swap7\n  dup7\n  add\n  mload\n  dup2\n  sstore\n  add\n  swap6\n  add\n  swap4\n  add\n  swap1\n  jump(tag_32)\ntag_25:\n  dup6\n  0x00\n  mstore\n  dup3\n  0x00\n  keccak256\n  dup5\n  dup1\n  dup8\n  add\n  0x05\n  shr\n  dup3\n  add\n  swap3\n  dup6\n  dup9\n  lt\n  tag_37\n  jumpi\ntag_38:\n  add\n  0x05\n  shr\n  add\n  swap1\n  dup7\n  swap1\ntag_39:\n  dup3\n  dup2\n  lt\n  tag_40\n  jumpi\n  pop\n  pop\n  jump(tag_26)\ntag_40:\n  0x00\n  dup2\n  sstore\n  add\n  dup7\n  swap1\n  jump(tag_39)\ntag_37:\n  swap3\n  pop\n  dup2\n  swap3\n  jump(tag_38)\ntag_23:\n  mstore(0x00, shl(0xe0, 0x4e487b71))\n  mstore(0x04, 0x22)\n  revert(0x00, 0x24)\ntag_21:\n  swap1\n  0x7f\n  and\n  swap1\n  jump(tag_22)\ntag_19:\n  mstore(0x00, shl(0xe0, 0x4e487b71))\n  mstore(0x04, 0x41)\n  revert(0x00, 0x24)\ntag_17:\n  dup2\n  dup2\n  add\n  dup4\n  add\n  mload\n  dup10\n  dup3\n  add\n  dup5\n  add\n  mstore\n  dup5\n  swap3\n  add\n  jump(tag_16)\ntag_14:\n  0x00\n  dup1\n  revert\ntag_1:\n  mload(0x40)\n  swap2\n  swap1\n  0x1f\n  add\n  not(0x1f)\n  and\n  dup3\n  add\n  sub(shl(0x40, 0x01), 0x01)\n  dup2\n  gt\n  dup4\n  dup3\n  lt\n  or\n  tag_19\n  jumpi\n  0x40\n  mstore\n  jump\t// out\nstop\n\nsub_0: assembly {\n        /* \"src/SmartAccount.sol\":671:5732  contract SmartAccount is ISmartAccount {... */\n      0x80\n      0x40\n      swap1\n      dup1\n      dup3\n      mstore\n      0x04\n      swap2\n      dup3\n      calldatasize\n      lt\n      iszero\n      tag_8\n      jumpi\n      0x00\n      dup1\n      revert\n    tag_8:\n      0x00\n      swap3\n      dup4\n      calldataload\n      0xe0\n      shr\n      swap3\n      dup4\n      0x06fdde03\n      eq\n      tag_10\n      jumpi\n      pop\n      dup3\n      0x0ab9bb62\n      eq\n      tag_12\n      jumpi\n      dup3\n      0x10c030a3\n      eq\n      tag_50\n      jumpi\n      dup3\n      0x172cfa4c\n      eq\n      tag_16\n      jumpi\n      dup3\n      0x3f4ba83a\n      eq\n      tag_18\n      jumpi\n      dup3\n      0x40affa94\n      eq\n      tag_20\n      jumpi\n      dup3\n      0x54aea127\n      eq\n      tag_22\n      jumpi\n      dup3\n      0x5709d115\n      eq\n      tag_50\n      jumpi\n      dup3\n      0x5d1a7355\n      eq\n      tag_26\n      jumpi\n      dup3\n      0x6299a6ef\n      eq\n      tag_28\n      jumpi\n      dup3\n      0x63a846f8\n      eq\n      tag_30\n      jumpi\n      dup3\n      0x712b772f\n      eq\n      tag_32\n      jumpi\n      dup3\n      0x8456cb59\n      eq\n      tag_34\n      jumpi\n      dup3\n      0x9d3c1c7b\n      eq\n      tag_36\n      jumpi\n      dup3\n      0xa06d083c\n      eq\n      tag_38\n      jumpi\n      dup3\n      0xb66c484e\n      eq\n      tag_40\n      jumpi\n      dup3\n      0xc2bb8120\n      eq\n      tag_42\n      jumpi\n      dup3\n      0xc550a1ca\n      eq\n      tag_44\n      jumpi\n      dup3\n      0xcfdad40a\n      eq\n      tag_46\n      jumpi\n      dup3\n      0xdd71a430\n      eq\n      tag_48\n      jumpi\n      pop\n      dup2\n      0xde68a001\n      eq\n      tag_50\n      jumpi\n      dup2\n      0xefedc669\n      eq\n      tag_52\n      jumpi\n      pop\n      0xffc08b6d\n      eq\n      tag_54\n      jumpi\n      0x00\n      dup1\n      revert\n    tag_54:\n      jumpi(tag_62, callvalue)\n      jumpi(tag_62, slt(add(not(0x03), calldatasize), 0x0100))\n      calldataload(0x64)\n      dup1\n      iszero\n      iszero\n      sub\n      tag_62\n      jumpi\n      calldataload(0xa4)\n      0xff\n      dup2\n      and\n      sub\n      tag_62\n      jumpi\n      dup1\n      return\n    tag_62:\n      dup1\n      revert\n    tag_52:\n      swap1\n      pop\n      jumpi(tag_66, callvalue)\n      dup2\n      add(calldatasize, not(0x03))\n      slt\n      tag_66\n      jumpi\n      0x20\n      swap1\n        /* \"src/SmartAccount.sol\":1099:1115  int public score */\n      0x03\n        /* \"src/SmartAccount.sol\":671:5732  contract SmartAccount is ISmartAccount {... */\n      sload\n      swap1\n      mload\n      swap1\n      dup2\n      mstore\n      return\n    tag_66:\n      pop\n      dup1\n      revert\n    tag_50:\n      tag_4\n      jump\t// in\n    tag_48:\n      dup4\n      dup3\n      jumpi(tag_66, callvalue)\n      jumpi(tag_66, slt(add(not(0x03), calldatasize), 0x80))\n      dup3\n      calldataload\n      0xff\n      dup2\n      and\n      sub\n      tag_66\n      jumpi\n      calldataload(0x64)\n      swap1\n      0xffffffffffffffff\n      swap1\n      dup2\n      dup4\n      gt\n      tag_76\n      jumpi\n      calldatasize\n      0x23\n      dup5\n      add\n      slt\n      iszero\n      tag_76\n      jumpi\n      dup3\n      dup6\n      add\n      calldataload\n      swap2\n      dup3\n      gt\n      tag_78\n      jumpi\n      swap1\n      tag_80\n      0x24\n      swap3\n      0x20\n      not(0x1f)\n      0x1f\n      dup6\n      add\n      and\n      add\n      swap1\n      mload\n      tag_1\n      jump\t// in\n    tag_80:\n      calldatasize\n      swap3\n      add\n      add\n      gt\n      tag_62\n      jumpi\n      dup1\n      return\n    tag_78:\n      shl(0xe0, 0x4e487b71)\n      dup5\n      mstore\n      0x41\n      dup6\n      mstore\n      0x24\n      dup5\n      revert\n    tag_76:\n      dup4\n      dup1\n      revert\n    tag_46:\n      swap1\n      swap2\n      pop\n      jumpi(tag_85, callvalue)\n      dup3\n      add(calldatasize, not(0x03))\n      slt\n      tag_85\n      jumpi\n      0x20\n      swap3\n      pop\n      sload\n      swap1\n      mload\n      swap1\n      dup2\n      mstore\n      return\n    tag_85:\n      dup3\n      dup1\n      revert\n    tag_44:\n      dup4\n      dup3\n      jumpi(tag_66, callvalue)\n      dup2\n      add(calldatasize, not(0x03))\n      slt\n      tag_66\n      jumpi\n      0x20\n      swap1\n      0xff\n        /* \"src/SmartAccount.sol\":1179:1201  bool public useDefault */\n      0x06\n        /* \"src/SmartAccount.sol\":671:5732  contract SmartAccount is ISmartAccount {... */\n      sload\n      and\n      swap1\n      mload\n      swap1\n      iszero\n      iszero\n      dup2\n      mstore\n      return\n    tag_42:\n      dup4\n      dup3\n      jumpi(tag_66, callvalue)\n      0x20\n      swap3\n      dup4\n      add(calldatasize, not(0x03))\n      slt\n      tag_85\n      jumpi\n      dup4\n      tag_95\n      tag_2\n      jump\t// in\n    tag_95:\n      dup5\n      sload\n      dup5\n      mload\n      shl(0xe5, 0x0615dc09)\n        /* \"src/SmartAccount.sol\":2521:2552  factory.tokenToStandard(_token) */\n      dup2\n      mstore\n      sub(shl(0xa0, 0x01), 0x01)\n        /* \"src/SmartAccount.sol\":671:5732  contract SmartAccount is ISmartAccount {... */\n      swap3\n      dup4\n      and\n        /* \"src/SmartAccount.sol\":2521:2552  factory.tokenToStandard(_token) */\n      swap5\n      dup2\n      add\n        /* \"src/SmartAccount.sol\":671:5732  contract SmartAccount is ISmartAccount {... */\n      swap5\n      swap1\n      swap5\n      mstore\n      dup4\n      swap2\n      0x24\n      swap2\n      dup4\n      swap2\n      and\n        /* \"src/SmartAccount.sol\":2521:2552  factory.tokenToStandard(_token) */\n      gas\n      staticcall\n      swap3\n      dup4\n      iszero\n      tag_96\n      jumpi\n      dup1\n      swap4\n      tag_98\n      jumpi\n        /* \"src/SmartAccount.sol\":671:5732  contract SmartAccount is ISmartAccount {... */\n    tag_99:\n      pop\n      pop\n      mload\n      swap1\n      dup2\n      mstore\n      return\n        /* \"src/SmartAccount.sol\":2521:2552  factory.tokenToStandard(_token) */\n    tag_98:\n      swap1\n      swap2\n      swap3\n      pop\n      dup4\n      dup3\n      dup2\n      returndatasize\n      dup4\n      gt\n      tag_100\n      jumpi\n    tag_101:\n      tag_102\n      dup2\n      dup4\n      tag_1\n      jump\t// in\n    tag_102:\n      dup2\n      add\n        /* \"src/SmartAccount.sol\":671:5732  contract SmartAccount is ISmartAccount {... */\n      sub\n      slt\n      tag_62\n      jumpi\n      pop\n      mload\n        /* \"src/SmartAccount.sol\":2521:2552  factory.tokenToStandard(_token) */\n      swap1\n      dup4\n      dup1\n      jump(tag_99)\n    tag_100:\n      pop\n      returndatasize\n      jump(tag_101)\n    tag_96:\n        /* \"src/SmartAccount.sol\":671:5732  contract SmartAccount is ISmartAccount {... */\n      dup3\n      mload\n      swap1\n      returndatasize\n      swap1\n      dup3\n      returndatacopy\n      returndatasize\n      swap1\n      revert\n    tag_40:\n      pop\n      dup3\n      jumpi(tag_62, callvalue)\n      dup2\n      add(calldatasize, not(0x03))\n      slt\n      tag_62\n      jumpi\n      pop\n      tag_109\n      tag_2\n      jump\t// in\n    tag_109:\n      pop\n      mload\n      dup1\n      tag_110\n      dup2\n      tag_3\n      jump\t// in\n    tag_110:\n      sub\n      swap1\n      return\n    tag_38:\n      dup4\n      dup3\n      jumpi(tag_66, callvalue)\n      dup2\n      add(calldatasize, not(0x03))\n      slt\n      tag_66\n      jumpi\n      0x20\n      swap1\n        /* \"src/SmartAccount.sol\":1076:1093  int public credit */\n      0x02\n        /* \"src/SmartAccount.sol\":671:5732  contract SmartAccount is ISmartAccount {... */\n      sload\n      swap1\n      mload\n      swap1\n      dup2\n      mstore\n      return\n    tag_36:\n      dup4\n      swap1\n      jumpi(tag_66, callvalue)\n      jumpi(tag_66, slt(add(not(0x03), calldatasize), 0x20))\n      calldataload\n      swap2\n      dup3\n      iszero\n      iszero\n      dup1\n      swap4\n      sub\n      tag_66\n      jumpi\n      0x20\n      swap3\n      0xff\n      dup1\n      not\n        /* \"src/SmartAccount.sol\":5699:5723  useDefault = _useDefault */\n      0x06\n        /* \"src/SmartAccount.sol\":671:5732  contract SmartAccount is ISmartAccount {... */\n      sload\n      and\n      swap2\n      and\n      or\n        /* \"src/SmartAccount.sol\":5699:5723  useDefault = _useDefault */\n      0x06\n        /* \"src/SmartAccount.sol\":671:5732  contract SmartAccount is ISmartAccount {... */\n      sstore\n      mload\n      swap1\n      dup2\n      mstore\n      return\n    tag_34:\n      dup4\n      jumpi(tag_62, callvalue)\n      dup1\n      add(calldatasize, not(0x03))\n      slt\n      tag_62\n      jumpi\n        /* \"src/SmartAccount.sol\":2885:2895  msg.sender */\n      tag_125\n      caller\n      tag_7\n      jump\t// in\n    tag_125:\n        /* \"src/SmartAccount.sol\":2915:2919  true */\n      0x01\n        /* \"src/SmartAccount.sol\":671:5732  contract SmartAccount is ISmartAccount {... */\n      not(0xff)\n        /* \"src/SmartAccount.sol\":2906:2919  paused = true */\n      0x08\n        /* \"src/SmartAccount.sol\":671:5732  contract SmartAccount is ISmartAccount {... */\n      sload\n      and\n      or\n        /* \"src/SmartAccount.sol\":2906:2919  paused = true */\n      0x08\n        /* \"src/SmartAccount.sol\":671:5732  contract SmartAccount is ISmartAccount {... */\n      sstore\n      dup1\n      return\n    tag_32:\n      dup4\n      dup3\n      jumpi(tag_66, callvalue)\n      dup1\n      add(calldatasize, not(0x03))\n      slt\n      tag_66\n      jumpi\n      tag_130\n      tag_2\n      jump\t// in\n    tag_130:\n      pop\n      calldataload(0x24)\n      sub(shl(0xa0, 0x01), 0x01)\n      dup2\n      and\n      sub\n      tag_66\n      jumpi\n      mload\n      swap1\n      dup2\n      mstore\n      0x20\n      swap1\n      return\n    tag_30:\n      swap2\n      pop\n      jumpi(tag_85, callvalue)\n      jumpi(tag_85, slt(add(not(0x03), calldatasize), 0x20))\n      0x20\n      tag_137\n      tag_2\n      jump\t// in\n    tag_137:\n      dup5\n      sload\n      dup4\n      mload\n      shl(0xe3, 0x0c7508df)\n        /* \"src/SmartAccount.sol\":2399:2421  factory.admin(account) */\n      dup2\n      mstore\n      sub(shl(0xa0, 0x01), 0x01)\n        /* \"src/SmartAccount.sol\":671:5732  contract SmartAccount is ISmartAccount {... */\n      swap3\n      dup4\n      and\n        /* \"src/SmartAccount.sol\":2399:2421  factory.admin(account) */\n      swap6\n      dup2\n      add\n        /* \"src/SmartAccount.sol\":671:5732  contract SmartAccount is ISmartAccount {... */\n      swap6\n      swap1\n      swap6\n      mstore\n      dup5\n      swap2\n      0x24\n      swap2\n      dup4\n      swap2\n      and\n        /* \"src/SmartAccount.sol\":2399:2421  factory.admin(account) */\n      gas\n      staticcall\n      swap2\n      dup3\n      iszero\n      tag_138\n      jumpi\n        /* \"src/SmartAccount.sol\":671:5732  contract SmartAccount is ISmartAccount {... */\n      0x20\n        /* \"src/SmartAccount.sol\":2399:2421  factory.admin(account) */\n      swap4\n      swap3\n      tag_140\n      jumpi\n        /* \"src/SmartAccount.sol\":671:5732  contract SmartAccount is ISmartAccount {... */\n    tag_141:\n      pop\n      mload\n      swap1\n      iszero\n      iszero\n      dup2\n      mstore\n      return\n        /* \"src/SmartAccount.sol\":2399:2421  factory.admin(account) */\n    tag_140:\n      tag_142\n      swap2\n      swap3\n      pop\n      dup4\n      returndatasize\n      dup2\n      gt\n      tag_143\n      jumpi\n    tag_144:\n      tag_145\n      dup2\n      dup4\n      tag_1\n      jump\t// in\n    tag_145:\n      dup2\n      add\n      swap1\n      tag_6\n      jump\t// in\n    tag_142:\n      swap1\n      0x00\n      jump(tag_141)\n    tag_143:\n      pop\n      returndatasize\n      jump(tag_144)\n    tag_138:\n        /* \"src/SmartAccount.sol\":671:5732  contract SmartAccount is ISmartAccount {... */\n      dup2\n      mload\n      returndatasize\n      dup6\n      dup3\n      returndatacopy\n      returndatasize\n      swap1\n      revert\n    tag_28:\n      swap1\n      dup4\n      jumpi(tag_62, callvalue)\n      jumpi(tag_62, slt(add(not(0x03), calldatasize), 0x20))\n      dup3\n      calldataload\n        /* \"src/SmartAccount.sol\":4506:4516  amount > 0 */\n      swap1\n      dup1\n      dup3\n      sgt\n        /* \"src/SmartAccount.sol\":4502:4534  if (amount > 0) credit += amount */\n      tag_150\n      jumpi\n        /* \"src/SmartAccount.sol\":671:5732  contract SmartAccount is ISmartAccount {... */\n    tag_151:\n        /* \"src/SmartAccount.sol\":4548:4558  amount < 0 */\n      dup1\n      dup3\n      slt\n        /* \"src/SmartAccount.sol\":4544:4576  if (amount < 0) credit -= amount */\n      swap2\n      dup3\n      tag_152\n      jumpi\n        /* \"src/SmartAccount.sol\":671:5732  contract SmartAccount is ISmartAccount {... */\n    tag_153:\n      0x20\n        /* \"src/SmartAccount.sol\":4627:4642  block.timestamp */\n      dup5\n      timestamp\n        /* \"src/SmartAccount.sol\":4611:4642  lastUpdatedAt = block.timestamp */\n      0x05\n        /* \"src/SmartAccount.sol\":671:5732  contract SmartAccount is ISmartAccount {... */\n      sstore\n        /* \"src/SmartAccount.sol\":4659:4665  credit */\n      0x02\n        /* \"src/SmartAccount.sol\":671:5732  contract SmartAccount is ISmartAccount {... */\n      sload\n      swap1\n      mload\n      swap1\n      dup2\n      mstore\n      return\n        /* \"src/SmartAccount.sol\":4544:4576  if (amount < 0) credit -= amount */\n    tag_152:\n        /* \"src/SmartAccount.sol\":4560:4576  credit -= amount */\n      0x02\n        /* \"src/SmartAccount.sol\":671:5732  contract SmartAccount is ISmartAccount {... */\n      sload\n      swap1\n      dup2\n      sub\n      swap3\n      dup1\n      iszero\n      dup3\n      dup6\n      sgt\n      and\n      swap2\n      dup5\n      slt\n      and\n      or\n      tag_154\n      jumpi\n      pop\n      0x20\n      swap3\n      pop\n        /* \"src/SmartAccount.sol\":4560:4576  credit -= amount */\n      0x02\n        /* \"src/SmartAccount.sol\":671:5732  contract SmartAccount is ISmartAccount {... */\n      sstore\n        /* \"src/SmartAccount.sol\":4544:4576  if (amount < 0) credit -= amount */\n      dup3\n      dup1\n      dup1\n      jump(tag_153)\n        /* \"src/SmartAccount.sol\":671:5732  contract SmartAccount is ISmartAccount {... */\n    tag_154:\n      shl(0xe0, 0x4e487b71)\n      dup2\n      mstore\n      0x11\n      dup5\n      mstore\n      0x24\n      swap1\n      revert\n        /* \"src/SmartAccount.sol\":4502:4534  if (amount > 0) credit += amount */\n    tag_150:\n        /* \"src/SmartAccount.sol\":4518:4534  credit += amount */\n      0x02\n        /* \"src/SmartAccount.sol\":671:5732  contract SmartAccount is ISmartAccount {... */\n      sload\n      dup3\n      dup2\n      add\n      swap1\n      dup3\n      dup5\n      dup4\n      slt\n      swap2\n      slt\n      swap1\n      dup1\n      iszero\n      dup3\n      and\n      swap2\n      iszero\n      and\n      or\n      tag_156\n      jumpi\n        /* \"src/SmartAccount.sol\":4518:4534  credit += amount */\n      0x02\n        /* \"src/SmartAccount.sol\":671:5732  contract SmartAccount is ISmartAccount {... */\n      sstore\n        /* \"src/SmartAccount.sol\":4502:4534  if (amount > 0) credit += amount */\n      jump(tag_151)\n        /* \"src/SmartAccount.sol\":671:5732  contract SmartAccount is ISmartAccount {... */\n    tag_156:\n      shl(0xe0, 0x4e487b71)\n      dup3\n      mstore\n      0x11\n      dup6\n      mstore\n      0x24\n      dup3\n      revert\n    tag_26:\n      dup4\n      jumpi(tag_62, callvalue)\n      jumpi(tag_62, slt(add(not(0x03), calldatasize), 0x60))\n      calldataload(0x44)\n      sub(shl(0xa0, 0x01), 0x01)\n      dup2\n      and\n      sub\n      tag_62\n      jumpi\n      dup1\n      return\n    tag_22:\n      dup4\n      dup3\n      jumpi(tag_66, callvalue)\n      dup2\n      add(calldatasize, not(0x03))\n      slt\n      tag_66\n      jumpi\n      0x20\n      swap1\n        /* \"src/SmartAccount.sol\":1148:1173  uint public lastUpdatedAt */\n      0x05\n        /* \"src/SmartAccount.sol\":671:5732  contract SmartAccount is ISmartAccount {... */\n      sload\n      swap1\n      mload\n      swap1\n      dup2\n      mstore\n      return\n    tag_20:\n      dup4\n      swap1\n      jumpi(tag_66, callvalue)\n      jumpi(tag_66, slt(add(not(0x03), calldatasize), 0x0100))\n      0xffffffffffffffff\n      swap1\n      dup1\n      calldataload\n      dup3\n      dup2\n      gt\n      tag_76\n      jumpi\n      tag_174\n      swap1\n      calldatasize\n      swap1\n      dup4\n      add\n      tag_5\n      jump\t// in\n    tag_174:\n      pop\n      pop\n      calldataload(0x24)\n      dup3\n      dup2\n      gt\n      tag_76\n      jumpi\n      tag_177\n      swap1\n      calldatasize\n      swap1\n      dup4\n      add\n      tag_5\n      jump\t// in\n    tag_177:\n      pop\n      pop\n      calldataload(0x44)\n      dup3\n      dup2\n      gt\n      tag_76\n      jumpi\n      tag_180\n      swap1\n      calldatasize\n      swap1\n      dup4\n      add\n      tag_5\n      jump\t// in\n    tag_180:\n      pop\n      pop\n      calldataload(0x64)\n      dup3\n      dup2\n      gt\n      tag_76\n      jumpi\n      tag_183\n      swap1\n      calldatasize\n      swap1\n      dup4\n      add\n      tag_5\n      jump\t// in\n    tag_183:\n      pop\n      pop\n      calldataload(0x84)\n      dup3\n      dup2\n      gt\n      tag_76\n      jumpi\n      tag_186\n      swap1\n      calldatasize\n      swap1\n      dup4\n      add\n      tag_5\n      jump\t// in\n    tag_186:\n      pop\n      pop\n      calldataload(0xa4)\n      dup3\n      dup2\n      gt\n      tag_76\n      jumpi\n      tag_189\n      swap1\n      calldatasize\n      swap1\n      dup4\n      add\n      tag_5\n      jump\t// in\n    tag_189:\n      pop\n      pop\n      calldataload(0xc4)\n      dup3\n      dup2\n      gt\n      tag_76\n      jumpi\n      tag_192\n      swap1\n      calldatasize\n      swap1\n      dup4\n      add\n      tag_5\n      jump\t// in\n    tag_192:\n      pop\n      pop\n      calldataload(0xe4)\n      swap2\n      dup3\n      gt\n      tag_85\n      jumpi\n      tag_195\n      swap2\n      calldatasize\n      swap2\n      add\n      tag_5\n      jump\t// in\n    tag_195:\n      pop\n      pop\n      dup1\n      return\n    tag_18:\n      dup4\n      jumpi(tag_62, callvalue)\n      dup1\n      add(calldatasize, not(0x03))\n      slt\n      tag_62\n      jumpi\n        /* \"src/SmartAccount.sol\":3009:3019  msg.sender */\n      tag_200\n      caller\n      tag_7\n      jump\t// in\n    tag_200:\n        /* \"src/SmartAccount.sol\":671:5732  contract SmartAccount is ISmartAccount {... */\n      not(0xff)\n        /* \"src/SmartAccount.sol\":3030:3044  paused = false */\n      0x08\n        /* \"src/SmartAccount.sol\":671:5732  contract SmartAccount is ISmartAccount {... */\n      sload\n      and\n        /* \"src/SmartAccount.sol\":3030:3044  paused = false */\n      0x08\n        /* \"src/SmartAccount.sol\":671:5732  contract SmartAccount is ISmartAccount {... */\n      sstore\n      dup1\n      return\n    tag_16:\n      dup4\n      dup3\n      jumpi(tag_66, callvalue)\n      add(not(0x03), calldatasize)\n      slt\n      tag_62\n      jumpi\n      dup1\n      return\n    tag_12:\n      dup4\n      dup3\n      jumpi(tag_66, callvalue)\n      jumpi(tag_66, slt(add(not(0x03), calldatasize), 0x20))\n      mload\n      swap1\n      dup2\n      mstore\n      0x20\n      swap1\n      return\n    tag_10:\n      dup3\n      swap1\n      dup6\n      jumpi(tag_62, callvalue)\n      dup1\n      add(calldatasize, not(0x03))\n      slt\n      tag_62\n      jumpi\n      dup1\n        /* \"src/SmartAccount.sol\":1052:1070  string public name */\n      0x01\n        /* \"src/SmartAccount.sol\":671:5732  contract SmartAccount is ISmartAccount {... */\n      dup1\n      sload\n      swap1\n      dup2\n      dup2\n      shr\n      swap2\n      dup2\n      dup2\n      and\n      dup1\n      iszero\n      tag_213\n      jumpi\n    tag_214:\n      0x20\n      swap9\n      dup10\n      dup6\n      lt\n      dup3\n      eq\n      tag_215\n      jumpi\n      pop\n      swap2\n      dup4\n      swap2\n      dup10\n      swap6\n      swap4\n      dup9\n      swap6\n      dup7\n      mstore\n      swap1\n      dup2\n      0x00\n      eq\n      tag_217\n      jumpi\n      pop\n      0x01\n      eq\n      tag_219\n      jumpi\n    tag_220:\n      pop\n      pop\n      tag_221\n      swap3\n      pop\n      swap6\n      swap4\n      swap3\n      swap6\n      sub\n      dup3\n      tag_1\n      jump\t// in\n    tag_221:\n      dup3\n      mload\n      swap4\n      dup3\n      dup6\n      swap4\n      dup5\n      mstore\n      dup3\n      mload\n      swap3\n      dup4\n      dup3\n      dup7\n      add\n      mstore\n      dup3\n    tag_222:\n      dup5\n      dup2\n      lt\n      tag_223\n      jumpi\n      pop\n      pop\n      pop\n      dup3\n      dup3\n      add\n      dup5\n      add\n      mstore\n      0x1f\n      add\n      not(0x1f)\n      and\n      dup2\n      add\n      sub\n      add\n      swap1\n      return\n    tag_223:\n      dup2\n      dup2\n      add\n      dup4\n      add\n      mload\n      dup9\n      dup3\n      add\n      dup9\n      add\n      mstore\n      dup8\n      swap6\n      pop\n      dup3\n      add\n      jump(tag_222)\n    tag_219:\n      dup1\n      dup7\n      mstore\n      0xb10e2d527612073b26eecdfd717e6a320cf44b4afac2b0732d9fcbe2b7fa0cf6\n      swap5\n      swap3\n      pop\n      dup6\n      swap2\n      swap1\n    tag_225:\n      dup2\n      dup4\n      lt\n      tag_226\n      jumpi\n      pop\n      dup9\n      swap5\n      pop\n      pop\n      dup3\n      add\n      add\n      tag_221\n      dup9\n      jump(tag_220)\n    tag_226:\n      dup6\n      sload\n      dup9\n      dup5\n      add\n      dup6\n      add\n      mstore\n      swap5\n      dup6\n      add\n      swap5\n      dup8\n      swap5\n      pop\n      swap2\n      dup4\n      add\n      swap2\n      jump(tag_225)\n    tag_217:\n      swap2\n      pop\n      pop\n      tag_221\n      swap5\n      swap3\n      pop\n      not(0xff)\n      and\n      dup3\n      dup5\n      add\n      mstore\n      iszero\n      iszero\n      0x05\n      shl\n      dup3\n      add\n      add\n      dup7\n      swap3\n      dup9\n      jump(tag_220)\n    tag_215:\n      shl(0xe0, 0x4e487b71)\n      dup8\n      mstore\n      0x22\n      swap1\n      mstore\n      0x24\n      dup7\n      revert\n    tag_213:\n      swap3\n      0x7f\n      and\n      swap3\n      jump(tag_214)\n    tag_1:\n      swap1\n      0x1f\n      dup1\n      not\n      swap2\n      add\n      and\n      dup2\n      add\n      swap1\n      dup2\n      lt\n      0xffffffffffffffff\n      dup3\n      gt\n      or\n      tag_228\n      jumpi\n      0x40\n      mstore\n      jump\t// out\n    tag_228:\n      mstore(0x00, shl(0xe0, 0x4e487b71))\n      mstore(0x04, 0x41)\n      revert(0x00, 0x24)\n    tag_2:\n      calldataload(0x04)\n      swap1\n      sub(shl(0xa0, 0x01), 0x01)\n      dup3\n      and\n      dup3\n      sub\n      tag_230\n      jumpi\n      jump\t// out\n    tag_230:\n      0x00\n      dup1\n      revert\n    tag_3:\n      0x20\n      0x40\n      dup2\n      dup4\n      add\n      swap3\n      dup3\n      dup2\n      mstore\n      mload(0x60)\n      dup1\n      swap5\n      mstore\n      add\n      swap2\n      0x80\n      swap2\n      0x00\n    tag_232:\n      dup3\n      dup2\n      lt\n      tag_233\n      jumpi\n      pop\n      pop\n      pop\n      pop\n      swap1\n      jump\t// out\n    tag_233:\n      dup4\n      mload\n      sub(shl(0xa0, 0x01), 0x01)\n      and\n      dup6\n      mstore\n      swap4\n      dup2\n      add\n      swap4\n      swap3\n      dup2\n      add\n      swap3\n      0x01\n      add\n      jump(tag_232)\n    tag_4:\n      jumpi(tag_230, callvalue)\n      jumpi(tag_230, slt(add(not(0x03), calldatasize), 0x20))\n      tag_239\n      tag_2\n      jump\t// in\n    tag_239:\n      pop\n      mload(0x40)\n      dup1\n      tag_110\n      dup2\n      tag_3\n      jump\t// in\n    tag_5:\n      swap2\n      dup2\n      0x1f\n      dup5\n      add\n      slt\n      iszero\n      tag_230\n      jumpi\n      dup3\n      calldataload\n      swap2\n      0xffffffffffffffff\n      dup4\n      gt\n      tag_230\n      jumpi\n      0x20\n      dup1\n      dup6\n      add\n      swap5\n      dup5\n      0x05\n      shl\n      add\n      add\n      gt\n      tag_230\n      jumpi\n      jump\t// out\n    tag_6:\n      swap1\n      dup2\n      0x20\n      swap2\n      sub\n      slt\n      tag_230\n      jumpi\n      mload\n      dup1\n      iszero\n      iszero\n      dup2\n      sub\n      tag_230\n      jumpi\n      swap1\n      jump\t// out\n        /* \"src/SmartAccount.sol\":1920:2036  function auth(address account) private {... */\n    tag_7:\n        /* \"src/SmartAccount.sol\":1974:1981  factory */\n      0x00\n        /* \"src/SmartAccount.sol\":671:5732  contract SmartAccount is ISmartAccount {... */\n      sload\n      mload(0x40)\n      shl(0xe3, 0x0c7508df)\n        /* \"src/SmartAccount.sol\":1974:1996  factory.admin(account) */\n      dup2\n      mstore\n      sub(shl(0xa0, 0x01), 0x01)\n        /* \"src/SmartAccount.sol\":671:5732  contract SmartAccount is ISmartAccount {... */\n      swap3\n      dup4\n      and\n        /* \"src/SmartAccount.sol\":1974:1996  factory.admin(account) */\n      0x04\n      dup3\n      add\n        /* \"src/SmartAccount.sol\":671:5732  contract SmartAccount is ISmartAccount {... */\n      mstore\n      swap2\n        /* \"src/SmartAccount.sol\":1974:1996  factory.admin(account) */\n      0x20\n      swap2\n        /* \"src/SmartAccount.sol\":671:5732  contract SmartAccount is ISmartAccount {... */\n      dup4\n      swap2\n      0x24\n      swap2\n      dup4\n      swap2\n      and\n        /* \"src/SmartAccount.sol\":1974:1996  factory.admin(account) */\n      gas\n      staticcall\n      swap1\n      dup2\n      iszero\n      tag_251\n      jumpi\n        /* \"src/SmartAccount.sol\":1974:1981  factory */\n      0x00\n        /* \"src/SmartAccount.sol\":1974:1996  factory.admin(account) */\n      swap2\n      tag_253\n      jumpi\n        /* \"src/SmartAccount.sol\":1920:2036  function auth(address account) private {... */\n    tag_254:\n        /* \"src/SmartAccount.sol\":1973:1996  !factory.admin(account) */\n      pop\n      iszero\n        /* \"src/SmartAccount.sol\":1969:2029  if (!factory.admin(account)) revert Errors.ForbiddenSender() */\n      tag_255\n      jumpi\n        /* \"src/SmartAccount.sol\":1920:2036  function auth(address account) private {... */\n      jump\t// out\n        /* \"src/SmartAccount.sol\":1969:2029  if (!factory.admin(account)) revert Errors.ForbiddenSender() */\n    tag_255:\n        /* \"src/SmartAccount.sol\":671:5732  contract SmartAccount is ISmartAccount {... */\n      mload(0x40)\n      shl(0xe2, 0x31696e97)\n        /* \"src/SmartAccount.sol\":2005:2029  Errors.ForbiddenSender() */\n      dup2\n      mstore\n        /* \"src/SmartAccount.sol\":1974:1996  factory.admin(account) */\n      0x04\n      swap1\n        /* \"src/SmartAccount.sol\":2005:2029  Errors.ForbiddenSender() */\n      revert\n        /* \"src/SmartAccount.sol\":1974:1996  factory.admin(account) */\n    tag_253:\n      tag_257\n      swap2\n      pop\n      0x20\n      returndatasize\n      dup2\n      gt\n      tag_143\n      jumpi\n      tag_145\n      dup2\n      dup4\n      tag_1\n      jump\t// in\n    tag_257:\n      0x00\n      jump(tag_254)\n    tag_251:\n        /* \"src/SmartAccount.sol\":671:5732  contract SmartAccount is ISmartAccount {... */\n      mload(0x40)\n      returndatasize\n        /* \"src/SmartAccount.sol\":1974:1981  factory */\n      0x00\n        /* \"src/SmartAccount.sol\":671:5732  contract SmartAccount is ISmartAccount {... */\n      dup3\n      returndatacopy\n      returndatasize\n      swap1\n      revert\n\n    auxdata: 0xa264697066735822122024171fd4c41b3e51f8f16a54fc8638eab3e7ef6daef4165effc92523d4fb600764736f6c63430008150033\n}\n",
				"bytecode": {
					"linkReferences": {},
					"object": "608060405234620002145762000bb9803803806200001d8162000218565b9283398101906020908181840312620002145780516001600160401b039182821162000214570191601f9084828501121562000214578351838111620001eb57601f1994620000728285018716840162000218565b96828852838383010111620002145782905f5b838110620001ff5750505f9187010152600193846007558551938411620001eb5784548581811c91168015620001e0575b83821014620001cc5783811162000184575b5081928411600114620001225750508192935f9262000116575b50505f19600383901b1c191690821b1790555b5f80546001600160a01b0319163317905560405161097a90816200023f8239f35b015190505f80620000e2565b5f858152828120918516969193925b8782106200016c5750508385961062000153575b505050811b019055620000f5565b01515f1960f88460031b161c191690555f808062000145565b80878596829496860151815501950193019062000131565b855f52825f208480870160051c820192858810620001c2575b0160051c019086905b828110620001b6575050620000c8565b5f8155018690620001a6565b925081926200019d565b634e487b7160e01b5f52602260045260245ffd5b90607f1690620000b6565b634e487b7160e01b5f52604160045260245ffd5b81810183015189820184015284920162000085565b5f80fd5b6040519190601f01601f191682016001600160401b03811183821017620001eb5760405256fe608060409080825260049182361015610016575f80fd5b5f92833560e01c92836306fdde0314610683575082630ab9bb621461066757826310c030a314610173578263172cfa4c146106535782633f4ba83a1461062c57826340affa941461054557826354aea127146105265782635709d115146101735782635d1a7355146104ff5782636299a6ef1461045857826363a846f8146103bf578263712b772f146103895782638456cb591461035f5782639d3c1c7b14610329578263a06d083c1461030a578263b66c484e146102df578263c2bb812014610244578263c550a1ca14610220578263cfdad40a146101fd578263dd71a4301461017857508163de68a00114610173578163efedc66914610150575063ffc08b6d14610121575f80fd5b3461014d5761010036600319011261014d576064358015150361014d5760a43560ff81160361014d5780f35b80fd5b90503461016f578160031936011261016f576020906003549051908152f35b5080fd5b610856565b83823461016f57608036600319011261016f57823560ff81160361016f576064359067ffffffffffffffff908183116101f957366023840112156101f957828501359182116101e657906101da6024926020601f19601f8501160190516107c3565b369201011161014d5780f35b634e487b7160e01b845260418552602484fd5b8380fd5b9091503461021c578260031936011261021c5760209250549051908152f35b8280fd5b83823461016f578160031936011261016f5760209060ff6006541690519015158152f35b83823461016f576020928360031936011261021c57836102626107f9565b84548451630615dc0960e51b81526001600160a01b039283169481019490945283916024918391165afa9283156102d45780936102a2575b505051908152f35b909192508382813d83116102cd575b6102bb81836107c3565b8101031261014d57505190838061029a565b503d6102b1565b8251903d90823e3d90fd5b50823461014d578160031936011261014d57506102fa6107f9565b50518061030681610813565b0390f35b83823461016f578160031936011261016f576020906002549051908152f35b83903461016f57602036600319011261016f57359182151580930361016f5760209260ff80196006541691161760065551908152f35b833461014d578060031936011261014d57610379336108c6565b600160ff19600854161760085580f35b83823461016f578060031936011261016f576103a36107f9565b506024356001600160a01b0381160361016f5751908152602090f35b91503461021c57602036600319011261021c5760206103dc6107f9565b84548351630c7508df60e31b81526001600160a01b039283169581019590955284916024918391165afa91821561044e576020939261041f575b50519015158152f35b610440919250833d8111610447575b61043881836107c3565b8101906108ae565b905f610416565b503d61042e565b81513d85823e3d90fd5b90833461014d57602036600319011261014d578235908082136104ca575b8082129182610491575b602084426005556002549051908152f35b6002549081039280158285131691841216176104b7575060209250600255828080610480565b634e487b7160e01b815260118452602490fd5b600254828101908284831291129080158216911516176104ec57600255610476565b634e487b7160e01b825260118552602482fd5b833461014d57606036600319011261014d576044356001600160a01b0381160361014d5780f35b83823461016f578160031936011261016f576020906005549051908152f35b83903461016f5761010036600319011261016f5767ffffffffffffffff9080358281116101f957610579903690830161087d565b50506024358281116101f957610592903690830161087d565b50506044358281116101f9576105ab903690830161087d565b50506064358281116101f9576105c4903690830161087d565b50506084358281116101f9576105dd903690830161087d565b505060a4358281116101f9576105f6903690830161087d565b505060c4358281116101f95761060f903690830161087d565b505060e43591821161021c576106279136910161087d565b505080f35b833461014d578060031936011261014d57610646336108c6565b60ff196008541660085580f35b83823461016f5736600319011261014d5780f35b83823461016f57602036600319011261016f5751908152602090f35b8290853461014d578060031936011261014d5780600180549081811c9181811680156107b9575b60209889851082146107a657509183918995938895865290815f14610785575060011461072a575b50506106e492509593929503826107c3565b82519382859384528251928382860152825b84811061071457505050828201840152601f01601f19168101030190f35b81810183015188820188015287955082016106f6565b8086527fb10e2d527612073b26eecdfd717e6a320cf44b4afac2b0732d9fcbe2b7fa0cf69492508591905b81831061076d5750889450508201016106e4886106d2565b85548884018501529485019487945091830191610755565b9150506106e494925060ff191682840152151560051b8201018692886106d2565b634e487b7160e01b875260229052602486fd5b92607f16926106aa565b90601f8019910116810190811067ffffffffffffffff8211176107e557604052565b634e487b7160e01b5f52604160045260245ffd5b600435906001600160a01b038216820361080f57565b5f80fd5b602060408183019282815260605180945201916080915f5b828110610839575050505090565b83516001600160a01b03168552938101939281019260010161082b565b3461080f57602036600319011261080f5761086f6107f9565b506040518061030681610813565b9181601f8401121561080f5782359167ffffffffffffffff831161080f576020808501948460051b01011161080f57565b9081602091031261080f5751801515810361080f5790565b5f54604051630c7508df60e31b81526001600160a01b0392831660048201529160209183916024918391165afa908115610939575f9161091b575b501561090957565b6040516331696e9760e21b8152600490fd5b610933915060203d81116104475761043881836107c3565b5f610901565b6040513d5f823e3d90fdfea264697066735822122024171fd4c41b3e51f8f16a54fc8638eab3e7ef6daef4165effc92523d4fb600764736f6c63430008150033",
					"opcodes": "PUSH1 0x80 PUSH1 0x40 MSTORE CALLVALUE PUSH3 0x214 JUMPI PUSH3 0xBB9 DUP1 CODESIZE SUB DUP1 PUSH3 0x1D DUP2 PUSH3 0x218 JUMP JUMPDEST SWAP3 DUP4 CODECOPY DUP2 ADD SWAP1 PUSH1 0x20 SWAP1 DUP2 DUP2 DUP5 SUB SLT PUSH3 0x214 JUMPI DUP1 MLOAD PUSH1 0x1 PUSH1 0x1 PUSH1 0x40 SHL SUB SWAP2 DUP3 DUP3 GT PUSH3 0x214 JUMPI ADD SWAP2 PUSH1 0x1F SWAP1 DUP5 DUP3 DUP6 ADD SLT ISZERO PUSH3 0x214 JUMPI DUP4 MLOAD DUP4 DUP2 GT PUSH3 0x1EB JUMPI PUSH1 0x1F NOT SWAP5 PUSH3 0x72 DUP3 DUP6 ADD DUP8 AND DUP5 ADD PUSH3 0x218 JUMP JUMPDEST SWAP7 DUP3 DUP9 MSTORE DUP4 DUP4 DUP4 ADD ADD GT PUSH3 0x214 JUMPI DUP3 SWAP1 PUSH0 JUMPDEST DUP4 DUP2 LT PUSH3 0x1FF JUMPI POP POP PUSH0 SWAP2 DUP8 ADD ADD MSTORE PUSH1 0x1 SWAP4 DUP5 PUSH1 0x7 SSTORE DUP6 MLOAD SWAP4 DUP5 GT PUSH3 0x1EB JUMPI DUP5 SLOAD DUP6 DUP2 DUP2 SHR SWAP2 AND DUP1 ISZERO PUSH3 0x1E0 JUMPI JUMPDEST DUP4 DUP3 LT EQ PUSH3 0x1CC JUMPI DUP4 DUP2 GT PUSH3 0x184 JUMPI JUMPDEST POP DUP2 SWAP3 DUP5 GT PUSH1 0x1 EQ PUSH3 0x122 JUMPI POP POP DUP2 SWAP3 SWAP4 PUSH0 SWAP3 PUSH3 0x116 JUMPI JUMPDEST POP POP PUSH0 NOT PUSH1 0x3 DUP4 SWAP1 SHL SHR NOT AND SWAP1 DUP3 SHL OR SWAP1 SSTORE JUMPDEST PUSH0 DUP1 SLOAD PUSH1 0x1 PUSH1 0x1 PUSH1 0xA0 SHL SUB NOT AND CALLER OR SWAP1 SSTORE PUSH1 0x40 MLOAD PUSH2 0x97A SWAP1 DUP2 PUSH3 0x23F DUP3 CODECOPY RETURN JUMPDEST ADD MLOAD SWAP1 POP PUSH0 DUP1 PUSH3 0xE2 JUMP JUMPDEST PUSH0 DUP6 DUP2 MSTORE DUP3 DUP2 KECCAK256 SWAP2 DUP6 AND SWAP7 SWAP2 SWAP4 SWAP3 JUMPDEST DUP8 DUP3 LT PUSH3 0x16C JUMPI POP POP DUP4 DUP6 SWAP7 LT PUSH3 0x153 JUMPI JUMPDEST POP POP POP DUP2 SHL ADD SWAP1 SSTORE PUSH3 0xF5 JUMP JUMPDEST ADD MLOAD PUSH0 NOT PUSH1 0xF8 DUP5 PUSH1 0x3 SHL AND SHR NOT AND SWAP1 SSTORE PUSH0 DUP1 DUP1 PUSH3 0x145 JUMP JUMPDEST DUP1 DUP8 DUP6 SWAP7 DUP3 SWAP5 SWAP7 DUP7 ADD MLOAD DUP2 SSTORE ADD SWAP6 ADD SWAP4 ADD SWAP1 PUSH3 0x131 JUMP JUMPDEST DUP6 PUSH0 MSTORE DUP3 PUSH0 KECCAK256 DUP5 DUP1 DUP8 ADD PUSH1 0x5 SHR DUP3 ADD SWAP3 DUP6 DUP9 LT PUSH3 0x1C2 JUMPI JUMPDEST ADD PUSH1 0x5 SHR ADD SWAP1 DUP7 SWAP1 JUMPDEST DUP3 DUP2 LT PUSH3 0x1B6 JUMPI POP POP PUSH3 0xC8 JUMP JUMPDEST PUSH0 DUP2 SSTORE ADD DUP7 SWAP1 PUSH3 0x1A6 JUMP JUMPDEST SWAP3 POP DUP2 SWAP3 PUSH3 0x19D JUMP JUMPDEST PUSH4 0x4E487B71 PUSH1 0xE0 SHL PUSH0 MSTORE PUSH1 0x22 PUSH1 0x4 MSTORE PUSH1 0x24 PUSH0 REVERT JUMPDEST SWAP1 PUSH1 0x7F AND SWAP1 PUSH3 0xB6 JUMP JUMPDEST PUSH4 0x4E487B71 PUSH1 0xE0 SHL PUSH0 MSTORE PUSH1 0x41 PUSH1 0x4 MSTORE PUSH1 0x24 PUSH0 REVERT JUMPDEST DUP2 DUP2 ADD DUP4 ADD MLOAD DUP10 DUP3 ADD DUP5 ADD MSTORE DUP5 SWAP3 ADD PUSH3 0x85 JUMP JUMPDEST PUSH0 DUP1 REVERT JUMPDEST PUSH1 0x40 MLOAD SWAP2 SWAP1 PUSH1 0x1F ADD PUSH1 0x1F NOT AND DUP3 ADD PUSH1 0x1 PUSH1 0x1 PUSH1 0x40 SHL SUB DUP2 GT DUP4 DUP3 LT OR PUSH3 0x1EB JUMPI PUSH1 0x40 MSTORE JUMP INVALID PUSH1 0x80 PUSH1 0x40 SWAP1 DUP1 DUP3 MSTORE PUSH1 0x4 SWAP2 DUP3 CALLDATASIZE LT ISZERO PUSH2 0x16 JUMPI PUSH0 DUP1 REVERT JUMPDEST PUSH0 SWAP3 DUP4 CALLDATALOAD PUSH1 0xE0 SHR SWAP3 DUP4 PUSH4 0x6FDDE03 EQ PUSH2 0x683 JUMPI POP DUP3 PUSH4 0xAB9BB62 EQ PUSH2 0x667 JUMPI DUP3 PUSH4 0x10C030A3 EQ PUSH2 0x173 JUMPI DUP3 PUSH4 0x172CFA4C EQ PUSH2 0x653 JUMPI DUP3 PUSH4 0x3F4BA83A EQ PUSH2 0x62C JUMPI DUP3 PUSH4 0x40AFFA94 EQ PUSH2 0x545 JUMPI DUP3 PUSH4 0x54AEA127 EQ PUSH2 0x526 JUMPI DUP3 PUSH4 0x5709D115 EQ PUSH2 0x173 JUMPI DUP3 PUSH4 0x5D1A7355 EQ PUSH2 0x4FF JUMPI DUP3 PUSH4 0x6299A6EF EQ PUSH2 0x458 JUMPI DUP3 PUSH4 0x63A846F8 EQ PUSH2 0x3BF JUMPI DUP3 PUSH4 0x712B772F EQ PUSH2 0x389 JUMPI DUP3 PUSH4 0x8456CB59 EQ PUSH2 0x35F JUMPI DUP3 PUSH4 0x9D3C1C7B EQ PUSH2 0x329 JUMPI DUP3 PUSH4 0xA06D083C EQ PUSH2 0x30A JUMPI DUP3 PUSH4 0xB66C484E EQ PUSH2 0x2DF JUMPI DUP3 PUSH4 0xC2BB8120 EQ PUSH2 0x244 JUMPI DUP3 PUSH4 0xC550A1CA EQ PUSH2 0x220 JUMPI DUP3 PUSH4 0xCFDAD40A EQ PUSH2 0x1FD JUMPI DUP3 PUSH4 0xDD71A430 EQ PUSH2 0x178 JUMPI POP DUP2 PUSH4 0xDE68A001 EQ PUSH2 0x173 JUMPI DUP2 PUSH4 0xEFEDC669 EQ PUSH2 0x150 JUMPI POP PUSH4 0xFFC08B6D EQ PUSH2 0x121 JUMPI PUSH0 DUP1 REVERT JUMPDEST CALLVALUE PUSH2 0x14D JUMPI PUSH2 0x100 CALLDATASIZE PUSH1 0x3 NOT ADD SLT PUSH2 0x14D JUMPI PUSH1 0x64 CALLDATALOAD DUP1 ISZERO ISZERO SUB PUSH2 0x14D JUMPI PUSH1 0xA4 CALLDATALOAD PUSH1 0xFF DUP2 AND SUB PUSH2 0x14D JUMPI DUP1 RETURN JUMPDEST DUP1 REVERT JUMPDEST SWAP1 POP CALLVALUE PUSH2 0x16F JUMPI DUP2 PUSH1 0x3 NOT CALLDATASIZE ADD SLT PUSH2 0x16F JUMPI PUSH1 0x20 SWAP1 PUSH1 0x3 SLOAD SWAP1 MLOAD SWAP1 DUP2 MSTORE RETURN JUMPDEST POP DUP1 REVERT JUMPDEST PUSH2 0x856 JUMP JUMPDEST DUP4 DUP3 CALLVALUE PUSH2 0x16F JUMPI PUSH1 0x80 CALLDATASIZE PUSH1 0x3 NOT ADD SLT PUSH2 0x16F JUMPI DUP3 CALLDATALOAD PUSH1 0xFF DUP2 AND SUB PUSH2 0x16F JUMPI PUSH1 0x64 CALLDATALOAD SWAP1 PUSH8 0xFFFFFFFFFFFFFFFF SWAP1 DUP2 DUP4 GT PUSH2 0x1F9 JUMPI CALLDATASIZE PUSH1 0x23 DUP5 ADD SLT ISZERO PUSH2 0x1F9 JUMPI DUP3 DUP6 ADD CALLDATALOAD SWAP2 DUP3 GT PUSH2 0x1E6 JUMPI SWAP1 PUSH2 0x1DA PUSH1 0x24 SWAP3 PUSH1 0x20 PUSH1 0x1F NOT PUSH1 0x1F DUP6 ADD AND ADD SWAP1 MLOAD PUSH2 0x7C3 JUMP JUMPDEST CALLDATASIZE SWAP3 ADD ADD GT PUSH2 0x14D JUMPI DUP1 RETURN JUMPDEST PUSH4 0x4E487B71 PUSH1 0xE0 SHL DUP5 MSTORE PUSH1 0x41 DUP6 MSTORE PUSH1 0x24 DUP5 REVERT JUMPDEST DUP4 DUP1 REVERT JUMPDEST SWAP1 SWAP2 POP CALLVALUE PUSH2 0x21C JUMPI DUP3 PUSH1 0x3 NOT CALLDATASIZE ADD SLT PUSH2 0x21C JUMPI PUSH1 0x20 SWAP3 POP SLOAD SWAP1 MLOAD SWAP1 DUP2 MSTORE RETURN JUMPDEST DUP3 DUP1 REVERT JUMPDEST DUP4 DUP3 CALLVALUE PUSH2 0x16F JUMPI DUP2 PUSH1 0x3 NOT CALLDATASIZE ADD SLT PUSH2 0x16F JUMPI PUSH1 0x20 SWAP1 PUSH1 0xFF PUSH1 0x6 SLOAD AND SWAP1 MLOAD SWAP1 ISZERO ISZERO DUP2 MSTORE RETURN JUMPDEST DUP4 DUP3 CALLVALUE PUSH2 0x16F JUMPI PUSH1 0x20 SWAP3 DUP4 PUSH1 0x3 NOT CALLDATASIZE ADD SLT PUSH2 0x21C JUMPI DUP4 PUSH2 0x262 PUSH2 0x7F9 JUMP JUMPDEST DUP5 SLOAD DUP5 MLOAD PUSH4 0x615DC09 PUSH1 0xE5 SHL DUP2 MSTORE PUSH1 0x1 PUSH1 0x1 PUSH1 0xA0 SHL SUB SWAP3 DUP4 AND SWAP5 DUP2 ADD SWAP5 SWAP1 SWAP5 MSTORE DUP4 SWAP2 PUSH1 0x24 SWAP2 DUP4 SWAP2 AND GAS STATICCALL SWAP3 DUP4 ISZERO PUSH2 0x2D4 JUMPI DUP1 SWAP4 PUSH2 0x2A2 JUMPI JUMPDEST POP POP MLOAD SWAP1 DUP2 MSTORE RETURN JUMPDEST SWAP1 SWAP2 SWAP3 POP DUP4 DUP3 DUP2 RETURNDATASIZE DUP4 GT PUSH2 0x2CD JUMPI JUMPDEST PUSH2 0x2BB DUP2 DUP4 PUSH2 0x7C3 JUMP JUMPDEST DUP2 ADD SUB SLT PUSH2 0x14D JUMPI POP MLOAD SWAP1 DUP4 DUP1 PUSH2 0x29A JUMP JUMPDEST POP RETURNDATASIZE PUSH2 0x2B1 JUMP JUMPDEST DUP3 MLOAD SWAP1 RETURNDATASIZE SWAP1 DUP3 RETURNDATACOPY RETURNDATASIZE SWAP1 REVERT JUMPDEST POP DUP3 CALLVALUE PUSH2 0x14D JUMPI DUP2 PUSH1 0x3 NOT CALLDATASIZE ADD SLT PUSH2 0x14D JUMPI POP PUSH2 0x2FA PUSH2 0x7F9 JUMP JUMPDEST POP MLOAD DUP1 PUSH2 0x306 DUP2 PUSH2 0x813 JUMP JUMPDEST SUB SWAP1 RETURN JUMPDEST DUP4 DUP3 CALLVALUE PUSH2 0x16F JUMPI DUP2 PUSH1 0x3 NOT CALLDATASIZE ADD SLT PUSH2 0x16F JUMPI PUSH1 0x20 SWAP1 PUSH1 0x2 SLOAD SWAP1 MLOAD SWAP1 DUP2 MSTORE RETURN JUMPDEST DUP4 SWAP1 CALLVALUE PUSH2 0x16F JUMPI PUSH1 0x20 CALLDATASIZE PUSH1 0x3 NOT ADD SLT PUSH2 0x16F JUMPI CALLDATALOAD SWAP2 DUP3 ISZERO ISZERO DUP1 SWAP4 SUB PUSH2 0x16F JUMPI PUSH1 0x20 SWAP3 PUSH1 0xFF DUP1 NOT PUSH1 0x6 SLOAD AND SWAP2 AND OR PUSH1 0x6 SSTORE MLOAD SWAP1 DUP2 MSTORE RETURN JUMPDEST DUP4 CALLVALUE PUSH2 0x14D JUMPI DUP1 PUSH1 0x3 NOT CALLDATASIZE ADD SLT PUSH2 0x14D JUMPI PUSH2 0x379 CALLER PUSH2 0x8C6 JUMP JUMPDEST PUSH1 0x1 PUSH1 0xFF NOT PUSH1 0x8 SLOAD AND OR PUSH1 0x8 SSTORE DUP1 RETURN JUMPDEST DUP4 DUP3 CALLVALUE PUSH2 0x16F JUMPI DUP1 PUSH1 0x3 NOT CALLDATASIZE ADD SLT PUSH2 0x16F JUMPI PUSH2 0x3A3 PUSH2 0x7F9 JUMP JUMPDEST POP PUSH1 0x24 CALLDATALOAD PUSH1 0x1 PUSH1 0x1 PUSH1 0xA0 SHL SUB DUP2 AND SUB PUSH2 0x16F JUMPI MLOAD SWAP1 DUP2 MSTORE PUSH1 0x20 SWAP1 RETURN JUMPDEST SWAP2 POP CALLVALUE PUSH2 0x21C JUMPI PUSH1 0x20 CALLDATASIZE PUSH1 0x3 NOT ADD SLT PUSH2 0x21C JUMPI PUSH1 0x20 PUSH2 0x3DC PUSH2 0x7F9 JUMP JUMPDEST DUP5 SLOAD DUP4 MLOAD PUSH4 0xC7508DF PUSH1 0xE3 SHL DUP2 MSTORE PUSH1 0x1 PUSH1 0x1 PUSH1 0xA0 SHL SUB SWAP3 DUP4 AND SWAP6 DUP2 ADD SWAP6 SWAP1 SWAP6 MSTORE DUP5 SWAP2 PUSH1 0x24 SWAP2 DUP4 SWAP2 AND GAS STATICCALL SWAP2 DUP3 ISZERO PUSH2 0x44E JUMPI PUSH1 0x20 SWAP4 SWAP3 PUSH2 0x41F JUMPI JUMPDEST POP MLOAD SWAP1 ISZERO ISZERO DUP2 MSTORE RETURN JUMPDEST PUSH2 0x440 SWAP2 SWAP3 POP DUP4 RETURNDATASIZE DUP2 GT PUSH2 0x447 JUMPI JUMPDEST PUSH2 0x438 DUP2 DUP4 PUSH2 0x7C3 JUMP JUMPDEST DUP2 ADD SWAP1 PUSH2 0x8AE JUMP JUMPDEST SWAP1 PUSH0 PUSH2 0x416 JUMP JUMPDEST POP RETURNDATASIZE PUSH2 0x42E JUMP JUMPDEST DUP2 MLOAD RETURNDATASIZE DUP6 DUP3 RETURNDATACOPY RETURNDATASIZE SWAP1 REVERT JUMPDEST SWAP1 DUP4 CALLVALUE PUSH2 0x14D JUMPI PUSH1 0x20 CALLDATASIZE PUSH1 0x3 NOT ADD SLT PUSH2 0x14D JUMPI DUP3 CALLDATALOAD SWAP1 DUP1 DUP3 SGT PUSH2 0x4CA JUMPI JUMPDEST DUP1 DUP3 SLT SWAP2 DUP3 PUSH2 0x491 JUMPI JUMPDEST PUSH1 0x20 DUP5 TIMESTAMP PUSH1 0x5 SSTORE PUSH1 0x2 SLOAD SWAP1 MLOAD SWAP1 DUP2 MSTORE RETURN JUMPDEST PUSH1 0x2 SLOAD SWAP1 DUP2 SUB SWAP3 DUP1 ISZERO DUP3 DUP6 SGT AND SWAP2 DUP5 SLT AND OR PUSH2 0x4B7 JUMPI POP PUSH1 0x20 SWAP3 POP PUSH1 0x2 SSTORE DUP3 DUP1 DUP1 PUSH2 0x480 JUMP JUMPDEST PUSH4 0x4E487B71 PUSH1 0xE0 SHL DUP2 MSTORE PUSH1 0x11 DUP5 MSTORE PUSH1 0x24 SWAP1 REVERT JUMPDEST PUSH1 0x2 SLOAD DUP3 DUP2 ADD SWAP1 DUP3 DUP5 DUP4 SLT SWAP2 SLT SWAP1 DUP1 ISZERO DUP3 AND SWAP2 ISZERO AND OR PUSH2 0x4EC JUMPI PUSH1 0x2 SSTORE PUSH2 0x476 JUMP JUMPDEST PUSH4 0x4E487B71 PUSH1 0xE0 SHL DUP3 MSTORE PUSH1 0x11 DUP6 MSTORE PUSH1 0x24 DUP3 REVERT JUMPDEST DUP4 CALLVALUE PUSH2 0x14D JUMPI PUSH1 0x60 CALLDATASIZE PUSH1 0x3 NOT ADD SLT PUSH2 0x14D JUMPI PUSH1 0x44 CALLDATALOAD PUSH1 0x1 PUSH1 0x1 PUSH1 0xA0 SHL SUB DUP2 AND SUB PUSH2 0x14D JUMPI DUP1 RETURN JUMPDEST DUP4 DUP3 CALLVALUE PUSH2 0x16F JUMPI DUP2 PUSH1 0x3 NOT CALLDATASIZE ADD SLT PUSH2 0x16F JUMPI PUSH1 0x20 SWAP1 PUSH1 0x5 SLOAD SWAP1 MLOAD SWAP1 DUP2 MSTORE RETURN JUMPDEST DUP4 SWAP1 CALLVALUE PUSH2 0x16F JUMPI PUSH2 0x100 CALLDATASIZE PUSH1 0x3 NOT ADD SLT PUSH2 0x16F JUMPI PUSH8 0xFFFFFFFFFFFFFFFF SWAP1 DUP1 CALLDATALOAD DUP3 DUP2 GT PUSH2 0x1F9 JUMPI PUSH2 0x579 SWAP1 CALLDATASIZE SWAP1 DUP4 ADD PUSH2 0x87D JUMP JUMPDEST POP POP PUSH1 0x24 CALLDATALOAD DUP3 DUP2 GT PUSH2 0x1F9 JUMPI PUSH2 0x592 SWAP1 CALLDATASIZE SWAP1 DUP4 ADD PUSH2 0x87D JUMP JUMPDEST POP POP PUSH1 0x44 CALLDATALOAD DUP3 DUP2 GT PUSH2 0x1F9 JUMPI PUSH2 0x5AB SWAP1 CALLDATASIZE SWAP1 DUP4 ADD PUSH2 0x87D JUMP JUMPDEST POP POP PUSH1 0x64 CALLDATALOAD DUP3 DUP2 GT PUSH2 0x1F9 JUMPI PUSH2 0x5C4 SWAP1 CALLDATASIZE SWAP1 DUP4 ADD PUSH2 0x87D JUMP JUMPDEST POP POP PUSH1 0x84 CALLDATALOAD DUP3 DUP2 GT PUSH2 0x1F9 JUMPI PUSH2 0x5DD SWAP1 CALLDATASIZE SWAP1 DUP4 ADD PUSH2 0x87D JUMP JUMPDEST POP POP PUSH1 0xA4 CALLDATALOAD DUP3 DUP2 GT PUSH2 0x1F9 JUMPI PUSH2 0x5F6 SWAP1 CALLDATASIZE SWAP1 DUP4 ADD PUSH2 0x87D JUMP JUMPDEST POP POP PUSH1 0xC4 CALLDATALOAD DUP3 DUP2 GT PUSH2 0x1F9 JUMPI PUSH2 0x60F SWAP1 CALLDATASIZE SWAP1 DUP4 ADD PUSH2 0x87D JUMP JUMPDEST POP POP PUSH1 0xE4 CALLDATALOAD SWAP2 DUP3 GT PUSH2 0x21C JUMPI PUSH2 0x627 SWAP2 CALLDATASIZE SWAP2 ADD PUSH2 0x87D JUMP JUMPDEST POP POP DUP1 RETURN JUMPDEST DUP4 CALLVALUE PUSH2 0x14D JUMPI DUP1 PUSH1 0x3 NOT CALLDATASIZE ADD SLT PUSH2 0x14D JUMPI PUSH2 0x646 CALLER PUSH2 0x8C6 JUMP JUMPDEST PUSH1 0xFF NOT PUSH1 0x8 SLOAD AND PUSH1 0x8 SSTORE DUP1 RETURN JUMPDEST DUP4 DUP3 CALLVALUE PUSH2 0x16F JUMPI CALLDATASIZE PUSH1 0x3 NOT ADD SLT PUSH2 0x14D JUMPI DUP1 RETURN JUMPDEST DUP4 DUP3 CALLVALUE PUSH2 0x16F JUMPI PUSH1 0x20 CALLDATASIZE PUSH1 0x3 NOT ADD SLT PUSH2 0x16F JUMPI MLOAD SWAP1 DUP2 MSTORE PUSH1 0x20 SWAP1 RETURN JUMPDEST DUP3 SWAP1 DUP6 CALLVALUE PUSH2 0x14D JUMPI DUP1 PUSH1 0x3 NOT CALLDATASIZE ADD SLT PUSH2 0x14D JUMPI DUP1 PUSH1 0x1 DUP1 SLOAD SWAP1 DUP2 DUP2 SHR SWAP2 DUP2 DUP2 AND DUP1 ISZERO PUSH2 0x7B9 JUMPI JUMPDEST PUSH1 0x20 SWAP9 DUP10 DUP6 LT DUP3 EQ PUSH2 0x7A6 JUMPI POP SWAP2 DUP4 SWAP2 DUP10 SWAP6 SWAP4 DUP9 SWAP6 DUP7 MSTORE SWAP1 DUP2 PUSH0 EQ PUSH2 0x785 JUMPI POP PUSH1 0x1 EQ PUSH2 0x72A JUMPI JUMPDEST POP POP PUSH2 0x6E4 SWAP3 POP SWAP6 SWAP4 SWAP3 SWAP6 SUB DUP3 PUSH2 0x7C3 JUMP JUMPDEST DUP3 MLOAD SWAP4 DUP3 DUP6 SWAP4 DUP5 MSTORE DUP3 MLOAD SWAP3 DUP4 DUP3 DUP7 ADD MSTORE DUP3 JUMPDEST DUP5 DUP2 LT PUSH2 0x714 JUMPI POP POP POP DUP3 DUP3 ADD DUP5 ADD MSTORE PUSH1 0x1F ADD PUSH1 0x1F NOT AND DUP2 ADD SUB ADD SWAP1 RETURN JUMPDEST DUP2 DUP2 ADD DUP4 ADD MLOAD DUP9 DUP3 ADD DUP9 ADD MSTORE DUP8 SWAP6 POP DUP3 ADD PUSH2 0x6F6 JUMP JUMPDEST DUP1 DUP7 MSTORE PUSH32 0xB10E2D527612073B26EECDFD717E6A320CF44B4AFAC2B0732D9FCBE2B7FA0CF6 SWAP5 SWAP3 POP DUP6 SWAP2 SWAP1 JUMPDEST DUP2 DUP4 LT PUSH2 0x76D JUMPI POP DUP9 SWAP5 POP POP DUP3 ADD ADD PUSH2 0x6E4 DUP9 PUSH2 0x6D2 JUMP JUMPDEST DUP6 SLOAD DUP9 DUP5 ADD DUP6 ADD MSTORE SWAP5 DUP6 ADD SWAP5 DUP8 SWAP5 POP SWAP2 DUP4 ADD SWAP2 PUSH2 0x755 JUMP JUMPDEST SWAP2 POP POP PUSH2 0x6E4 SWAP5 SWAP3 POP PUSH1 0xFF NOT AND DUP3 DUP5 ADD MSTORE ISZERO ISZERO PUSH1 0x5 SHL DUP3 ADD ADD DUP7 SWAP3 DUP9 PUSH2 0x6D2 JUMP JUMPDEST PUSH4 0x4E487B71 PUSH1 0xE0 SHL DUP8 MSTORE PUSH1 0x22 SWAP1 MSTORE PUSH1 0x24 DUP7 REVERT JUMPDEST SWAP3 PUSH1 0x7F AND SWAP3 PUSH2 0x6AA JUMP JUMPDEST SWAP1 PUSH1 0x1F DUP1 NOT SWAP2 ADD AND DUP2 ADD SWAP1 DUP2 LT PUSH8 0xFFFFFFFFFFFFFFFF DUP3 GT OR PUSH2 0x7E5 JUMPI PUSH1 0x40 MSTORE JUMP JUMPDEST PUSH4 0x4E487B71 PUSH1 0xE0 SHL PUSH0 MSTORE PUSH1 0x41 PUSH1 0x4 MSTORE PUSH1 0x24 PUSH0 REVERT JUMPDEST PUSH1 0x4 CALLDATALOAD SWAP1 PUSH1 0x1 PUSH1 0x1 PUSH1 0xA0 SHL SUB DUP3 AND DUP3 SUB PUSH2 0x80F JUMPI JUMP JUMPDEST PUSH0 DUP1 REVERT JUMPDEST PUSH1 0x20 PUSH1 0x40 DUP2 DUP4 ADD SWAP3 DUP3 DUP2 MSTORE PUSH1 0x60 MLOAD DUP1 SWAP5 MSTORE ADD SWAP2 PUSH1 0x80 SWAP2 PUSH0 JUMPDEST DUP3 DUP2 LT PUSH2 0x839 JUMPI POP POP POP POP SWAP1 JUMP JUMPDEST DUP4 MLOAD PUSH1 0x1 PUSH1 0x1 PUSH1 0xA0 SHL SUB AND DUP6 MSTORE SWAP4 DUP2 ADD SWAP4 SWAP3 DUP2 ADD SWAP3 PUSH1 0x1 ADD PUSH2 0x82B JUMP JUMPDEST CALLVALUE PUSH2 0x80F JUMPI PUSH1 0x20 CALLDATASIZE PUSH1 0x3 NOT ADD SLT PUSH2 0x80F JUMPI PUSH2 0x86F PUSH2 0x7F9 JUMP JUMPDEST POP PUSH1 0x40 MLOAD DUP1 PUSH2 0x306 DUP2 PUSH2 0x813 JUMP JUMPDEST SWAP2 DUP2 PUSH1 0x1F DUP5 ADD SLT ISZERO PUSH2 0x80F JUMPI DUP3 CALLDATALOAD SWAP2 PUSH8 0xFFFFFFFFFFFFFFFF DUP4 GT PUSH2 0x80F JUMPI PUSH1 0x20 DUP1 DUP6 ADD SWAP5 DUP5 PUSH1 0x5 SHL ADD ADD GT PUSH2 0x80F JUMPI JUMP JUMPDEST SWAP1 DUP2 PUSH1 0x20 SWAP2 SUB SLT PUSH2 0x80F JUMPI MLOAD DUP1 ISZERO ISZERO DUP2 SUB PUSH2 0x80F JUMPI SWAP1 JUMP JUMPDEST PUSH0 SLOAD PUSH1 0x40 MLOAD PUSH4 0xC7508DF PUSH1 0xE3 SHL DUP2 MSTORE PUSH1 0x1 PUSH1 0x1 PUSH1 0xA0 SHL SUB SWAP3 DUP4 AND PUSH1 0x4 DUP3 ADD MSTORE SWAP2 PUSH1 0x20 SWAP2 DUP4 SWAP2 PUSH1 0x24 SWAP2 DUP4 SWAP2 AND GAS STATICCALL SWAP1 DUP2 ISZERO PUSH2 0x939 JUMPI PUSH0 SWAP2 PUSH2 0x91B JUMPI JUMPDEST POP ISZERO PUSH2 0x909 JUMPI JUMP JUMPDEST PUSH1 0x40 MLOAD PUSH4 0x31696E97 PUSH1 0xE2 SHL DUP2 MSTORE PUSH1 0x4 SWAP1 REVERT JUMPDEST PUSH2 0x933 SWAP2 POP PUSH1 0x20 RETURNDATASIZE DUP2 GT PUSH2 0x447 JUMPI PUSH2 0x438 DUP2 DUP4 PUSH2 0x7C3 JUMP JUMPDEST PUSH0 PUSH2 0x901 JUMP JUMPDEST PUSH1 0x40 MLOAD RETURNDATASIZE PUSH0 DUP3 RETURNDATACOPY RETURNDATASIZE SWAP1 REVERT INVALID LOG2 PUSH5 0x6970667358 0x22 SLT KECCAK256 0x24 OR 0x1F 0xD4 0xC4 SHL RETURNDATACOPY MLOAD 0xF8 CALL PUSH11 0x54FC8638EAB3E7EF6DAEF4 AND 0x5E SELFDESTRUCT 0xC9 0x25 0x23 0xD4 0xFB PUSH1 0x7 PUSH5 0x736F6C6343 STOP ADDMOD ISZERO STOP CALLER "
				},
				"gasEstimates": {
					"creation": {
						"codeDepositCost": "485200",
						"executionCost": "infinite",
						"totalCost": "infinite"
					},
					"external": {
						"admin(address)": "infinite",
						"allocate(uint256,uint256)": "221",
						"allocateDelegate(uint256,uint256,address)": "374",
						"allocateWithPermit(uint256,uint256,uint256,bool,uint256,uint8,bytes32,bytes32)": "699",
						"batchAllocateWithPermit(uint256[],uint256[],uint256[],bool[],uint256[],uint8[],bytes32[],bytes32[])": "infinite",
						"cease(uint8,bytes32,bytes32,bytes)": "865",
						"credit()": "2592",
						"lastUpdatedAt()": "2416",
						"maxCredit()": "2681",
						"name()": "infinite",
						"pause()": "infinite",
						"score()": "2747",
						"setPaymentTokens(address,uint256)": "infinite",
						"setPercentageFromAllocation(uint256)": "200",
						"setPermittedERC1155Tokens(address)": "infinite",
						"setPermittedERC20Tokens(address)": "infinite",
						"setPermittedERC721Tokens(address)": "infinite",
						"setUseDefault(bool)": "24728",
						"skim(address,address)": "538",
						"tokenToStandard(address)": "infinite",
						"unpause()": "infinite",
						"update(int256)": "73231",
						"useDefault()": "2670"
					},
					"internal": {
						"auth(address)": "infinite"
					}
				},
				"methodIdentifiers": {
					"admin(address)": "63a846f8",
					"allocate(uint256,uint256)": "172cfa4c",
					"allocateDelegate(uint256,uint256,address)": "5d1a7355",
					"allocateWithPermit(uint256,uint256,uint256,bool,uint256,uint8,bytes32,bytes32)": "ffc08b6d",
					"batchAllocateWithPermit(uint256[],uint256[],uint256[],bool[],uint256[],uint8[],bytes32[],bytes32[])": "40affa94",
					"cease(uint8,bytes32,bytes32,bytes)": "dd71a430",
					"credit()": "a06d083c",
					"lastUpdatedAt()": "54aea127",
					"maxCredit()": "cfdad40a",
					"name()": "06fdde03",
					"pause()": "8456cb59",
					"score()": "efedc669",
					"setPaymentTokens(address,uint256)": "b66c484e",
					"setPercentageFromAllocation(uint256)": "0ab9bb62",
					"setPermittedERC1155Tokens(address)": "10c030a3",
					"setPermittedERC20Tokens(address)": "de68a001",
					"setPermittedERC721Tokens(address)": "5709d115",
					"setUseDefault(bool)": "9d3c1c7b",
					"skim(address,address)": "712b772f",
					"tokenToStandard(address)": "c2bb8120",
					"unpause()": "3f4ba83a",
					"update(int256)": "6299a6ef",
					"useDefault()": "c550a1ca"
				}
			},
			"storageLayout": {
				"storage": [
					{
						"astId": 2081,
						"contract": "src/SmartAccount.sol:SmartAccount",
						"label": "factory",
						"offset": 0,
						"slot": "0",
						"type": "t_contract(ISAFactory)2911"
					},
					{
						"astId": 2084,
						"contract": "src/SmartAccount.sol:SmartAccount",
						"label": "name",
						"offset": 0,
						"slot": "1",
						"type": "t_string_storage"
					},
					{
						"astId": 2086,
						"contract": "src/SmartAccount.sol:SmartAccount",
						"label": "credit",
						"offset": 0,
						"slot": "2",
						"type": "t_int256"
					},
					{
						"astId": 2088,
						"contract": "src/SmartAccount.sol:SmartAccount",
						"label": "score",
						"offset": 0,
						"slot": "3",
						"type": "t_int256"
					},
					{
						"astId": 2090,
						"contract": "src/SmartAccount.sol:SmartAccount",
						"label": "maxCredit",
						"offset": 0,
						"slot": "4",
						"type": "t_uint256"
					},
					{
						"astId": 2092,
						"contract": "src/SmartAccount.sol:SmartAccount",
						"label": "lastUpdatedAt",
						"offset": 0,
						"slot": "5",
						"type": "t_uint256"
					},
					{
						"astId": 2094,
						"contract": "src/SmartAccount.sol:SmartAccount",
						"label": "useDefault",
						"offset": 0,
						"slot": "6",
						"type": "t_bool"
					},
					{
						"astId": 2097,
						"contract": "src/SmartAccount.sol:SmartAccount",
						"label": "unlocked",
						"offset": 0,
						"slot": "7",
						"type": "t_uint256"
					},
					{
						"astId": 2099,
						"contract": "src/SmartAccount.sol:SmartAccount",
						"label": "paused",
						"offset": 0,
						"slot": "8",
						"type": "t_bool"
					}
				],
				"types": {
					"t_bool": {
						"encoding": "inplace",
						"label": "bool",
						"numberOfBytes": "1"
					},
					"t_contract(ISAFactory)2911": {
						"encoding": "inplace",
						"label": "contract ISAFactory",
						"numberOfBytes": "20"
					},
					"t_int256": {
						"encoding": "inplace",
						"label": "int256",
						"numberOfBytes": "32"
					},
					"t_string_storage": {
						"encoding": "bytes",
						"label": "string",
						"numberOfBytes": "32"
					},
					"t_uint256": {
						"encoding": "inplace",
						"label": "uint256",
						"numberOfBytes": "32"
					}
				}
			},
			"userdoc": {
				"kind": "user",
				"methods": {
					"admin(address)": {
						"notice": "checks whether `account` is authorized to modify user's smart account."
					},
					"allocateDelegate(uint256,uint256,address)": {
						"notice": "it permits a user to give his credits to another user, but the debt will be calculated against this SA, not the SA of the `to`."
					},
					"allocateWithPermit(uint256,uint256,uint256,bool,uint256,uint8,bytes32,bytes32)": {
						"notice": "Main function called by the company (or goblockchain?) to pull user funds to this contract and give him credit. `nonReentrant` function, but allowed to be called in different times for the same user to give him compound credit. Function uses the safeTransferFrom with permit functionality to pull tokens. This function can only be callable by the company. Why? Because precification needs to bae handled off-chain. If user calls this function directly, he can send any amount of a depretiated token and his credit can be updated, making it so that he'll have paid less than his bills. So, front-end determines precification, and the user can deposit it. Yes, he can deposit at anytime, however, he can't call it directly. To support  payments before the due data, anytime the user allocates, his credit is updated. To support direct payments, make an `if` statement that if it's not the company the `sender`, user will pay in a stablecoin - probably tether which is centralized and seems to maintain price at $1 always. Then do the math to convert to real - check whether there's a REAL-like stable coin on chain - and then do the math to roundup user payment onchain. Check whether the function implementation is protected against the company making the factory a user as well."
					},
					"batchAllocateWithPermit(uint256[],uint256[],uint256[],bool[],uint256[],uint8[],bytes32[],bytes32[])": {
						"notice": "Main function called by the company (or goblockchain?) to pull user funds to this contract and give him credit. `nonReentrant` function, but allowed to be called in different times for the same user to give him compound credit."
					},
					"cease(uint8,bytes32,bytes32,bytes)": {
						"notice": "used by company to cease a user's participation in the protocol."
					},
					"credit()": {
						"notice": "user's current credit (>0) or debt (<0) at any given time."
					},
					"maxCredit()": {
						"notice": "user's max credit calculated from user's allocation. Consequentially, it is also the maxDebt for a user."
					},
					"name()": {
						"notice": "user's name."
					},
					"pause()": {
						"notice": "pause SA' mains functionalities. Callable only by Factory on deactivate."
					},
					"score()": {
						"notice": "it increases each time the user `payback()`. It diminishes when user doesn't inccurs debt multiple times. It can be used futurely for giving a usr specific rewards according to his/her score."
					},
					"skim(address,address)": {
						"notice": "function callable by company to withdraw any tokens directly transferred to this contract by accident or leftovers from solidity's rounding arithmetic. If token to be withdrawn is the zero address, withdraw ether from contract. This function should be able to retrieve any balance from this smart account in case of a smart account upgrade so that funds can be transferred to the new one. Use safeTransfer function from SafeERC20 inside here to handle different tokens."
					},
					"tokenToStandard(address)": {
						"notice": "gets a token from its address and check whether it's a erc20 (0), erc721(1) or erc1155(2)."
					},
					"unpause()": {
						"notice": "unpauses SA's mains functionalities. Callable only by Factory on activate."
					},
					"update(int256)": {
						"notice": "only to be called by company's wallets addresses. It's called when company updates the states of the user according to their usage of the credit card off-chain. It can be called in batches to avoid block-max-gas-limit revert error in the chain being used."
					},
					"useDefault()": {
						"notice": "storage variable that is either true or false. Use default values already registered in this Factory contract for the `create` function. If false, params should be given. If true, params can be of any value and they will be discarded."
					}
				},
				"notice": "This contract should be as optimized as possible because the company will be deploying it for each user coming in, since it will represent each user's account. However, it should also be understandable for users to perform their own due diligence.",
				"version": 1
			}
		}
	}
}