{
	"src/Dummy.sol": {
		"Dummy": {
			"abi": [
				{
					"inputs": [],
					"stateMutability": "nonpayable",
					"type": "constructor"
				},
				{
					"inputs": [
						{
							"internalType": "address",
							"name": "account",
							"type": "address"
						}
					],
					"name": "AddressInsufficientBalance",
					"type": "error"
				},
				{
					"inputs": [
						{
							"internalType": "uint48",
							"name": "deadline",
							"type": "uint48"
						}
					],
					"name": "ERC2771ForwarderExpiredRequest",
					"type": "error"
				},
				{
					"inputs": [
						{
							"internalType": "address",
							"name": "signer",
							"type": "address"
						},
						{
							"internalType": "address",
							"name": "from",
							"type": "address"
						}
					],
					"name": "ERC2771ForwarderInvalidSigner",
					"type": "error"
				},
				{
					"inputs": [
						{
							"internalType": "uint256",
							"name": "requestedValue",
							"type": "uint256"
						},
						{
							"internalType": "uint256",
							"name": "msgValue",
							"type": "uint256"
						}
					],
					"name": "ERC2771ForwarderMismatchedValue",
					"type": "error"
				},
				{
					"inputs": [
						{
							"internalType": "address",
							"name": "target",
							"type": "address"
						},
						{
							"internalType": "address",
							"name": "forwarder",
							"type": "address"
						}
					],
					"name": "ERC2771UntrustfulTarget",
					"type": "error"
				},
				{
					"inputs": [],
					"name": "FailedInnerCall",
					"type": "error"
				},
				{
					"inputs": [
						{
							"internalType": "address",
							"name": "account",
							"type": "address"
						},
						{
							"internalType": "uint256",
							"name": "currentNonce",
							"type": "uint256"
						}
					],
					"name": "InvalidAccountNonce",
					"type": "error"
				},
				{
					"inputs": [],
					"name": "InvalidShortString",
					"type": "error"
				},
				{
					"inputs": [
						{
							"internalType": "string",
							"name": "str",
							"type": "string"
						}
					],
					"name": "StringTooLong",
					"type": "error"
				},
				{
					"anonymous": false,
					"inputs": [],
					"name": "EIP712DomainChanged",
					"type": "event"
				},
				{
					"anonymous": false,
					"inputs": [
						{
							"indexed": true,
							"internalType": "address",
							"name": "signer",
							"type": "address"
						},
						{
							"indexed": false,
							"internalType": "uint256",
							"name": "nonce",
							"type": "uint256"
						},
						{
							"indexed": false,
							"internalType": "bool",
							"name": "success",
							"type": "bool"
						}
					],
					"name": "ExecutedForwardRequest",
					"type": "event"
				},
				{
					"inputs": [],
					"name": "eip712Domain",
					"outputs": [
						{
							"internalType": "bytes1",
							"name": "fields",
							"type": "bytes1"
						},
						{
							"internalType": "string",
							"name": "name",
							"type": "string"
						},
						{
							"internalType": "string",
							"name": "version",
							"type": "string"
						},
						{
							"internalType": "uint256",
							"name": "chainId",
							"type": "uint256"
						},
						{
							"internalType": "address",
							"name": "verifyingContract",
							"type": "address"
						},
						{
							"internalType": "bytes32",
							"name": "salt",
							"type": "bytes32"
						},
						{
							"internalType": "uint256[]",
							"name": "extensions",
							"type": "uint256[]"
						}
					],
					"stateMutability": "view",
					"type": "function"
				},
				{
					"inputs": [
						{
							"components": [
								{
									"internalType": "address",
									"name": "from",
									"type": "address"
								},
								{
									"internalType": "address",
									"name": "to",
									"type": "address"
								},
								{
									"internalType": "uint256",
									"name": "value",
									"type": "uint256"
								},
								{
									"internalType": "uint256",
									"name": "gas",
									"type": "uint256"
								},
								{
									"internalType": "uint48",
									"name": "deadline",
									"type": "uint48"
								},
								{
									"internalType": "bytes",
									"name": "data",
									"type": "bytes"
								},
								{
									"internalType": "bytes",
									"name": "signature",
									"type": "bytes"
								}
							],
							"internalType": "struct ERC2771Forwarder.ForwardRequestData",
							"name": "request",
							"type": "tuple"
						}
					],
					"name": "execute",
					"outputs": [],
					"stateMutability": "payable",
					"type": "function"
				},
				{
					"inputs": [
						{
							"components": [
								{
									"internalType": "address",
									"name": "from",
									"type": "address"
								},
								{
									"internalType": "address",
									"name": "to",
									"type": "address"
								},
								{
									"internalType": "uint256",
									"name": "value",
									"type": "uint256"
								},
								{
									"internalType": "uint256",
									"name": "gas",
									"type": "uint256"
								},
								{
									"internalType": "uint48",
									"name": "deadline",
									"type": "uint48"
								},
								{
									"internalType": "bytes",
									"name": "data",
									"type": "bytes"
								},
								{
									"internalType": "bytes",
									"name": "signature",
									"type": "bytes"
								}
							],
							"internalType": "struct ERC2771Forwarder.ForwardRequestData[]",
							"name": "requests",
							"type": "tuple[]"
						},
						{
							"internalType": "address payable",
							"name": "refundReceiver",
							"type": "address"
						}
					],
					"name": "executeBatch",
					"outputs": [],
					"stateMutability": "payable",
					"type": "function"
				},
				{
					"inputs": [
						{
							"internalType": "address",
							"name": "forwarder",
							"type": "address"
						}
					],
					"name": "isTrustedForwarder",
					"outputs": [
						{
							"internalType": "bool",
							"name": "",
							"type": "bool"
						}
					],
					"stateMutability": "view",
					"type": "function"
				},
				{
					"inputs": [
						{
							"internalType": "address",
							"name": "owner",
							"type": "address"
						}
					],
					"name": "nonces",
					"outputs": [
						{
							"internalType": "uint256",
							"name": "",
							"type": "uint256"
						}
					],
					"stateMutability": "view",
					"type": "function"
				},
				{
					"inputs": [
						{
							"internalType": "uint256",
							"name": "_number",
							"type": "uint256"
						}
					],
					"name": "setNumber",
					"outputs": [],
					"stateMutability": "nonpayable",
					"type": "function"
				},
				{
					"inputs": [],
					"name": "trustedForwarder",
					"outputs": [
						{
							"internalType": "address",
							"name": "",
							"type": "address"
						}
					],
					"stateMutability": "view",
					"type": "function"
				},
				{
					"inputs": [
						{
							"components": [
								{
									"internalType": "address",
									"name": "from",
									"type": "address"
								},
								{
									"internalType": "address",
									"name": "to",
									"type": "address"
								},
								{
									"internalType": "uint256",
									"name": "value",
									"type": "uint256"
								},
								{
									"internalType": "uint256",
									"name": "gas",
									"type": "uint256"
								},
								{
									"internalType": "uint48",
									"name": "deadline",
									"type": "uint48"
								},
								{
									"internalType": "bytes",
									"name": "data",
									"type": "bytes"
								},
								{
									"internalType": "bytes",
									"name": "signature",
									"type": "bytes"
								}
							],
							"internalType": "struct ERC2771Forwarder.ForwardRequestData",
							"name": "request",
							"type": "tuple"
						}
					],
					"name": "verify",
					"outputs": [
						{
							"internalType": "bool",
							"name": "",
							"type": "bool"
						}
					],
					"stateMutability": "view",
					"type": "function"
				}
			],
			"devdoc": {
				"errors": {
					"AddressInsufficientBalance(address)": [
						{
							"details": "The ETH balance of the account is not enough to perform the operation."
						}
					],
					"ERC2771ForwarderExpiredRequest(uint48)": [
						{
							"details": "The request `deadline` has expired."
						}
					],
					"ERC2771ForwarderInvalidSigner(address,address)": [
						{
							"details": "The request `from` doesn't match with the recovered `signer`."
						}
					],
					"ERC2771ForwarderMismatchedValue(uint256,uint256)": [
						{
							"details": "The `requestedValue` doesn't match with the available `msgValue`."
						}
					],
					"ERC2771UntrustfulTarget(address,address)": [
						{
							"details": "The request target doesn't trust the `forwarder`."
						}
					],
					"FailedInnerCall()": [
						{
							"details": "A call to an address target failed. The target may have reverted."
						}
					],
					"InvalidAccountNonce(address,uint256)": [
						{
							"details": "The nonce used for an `account` is not the expected current nonce."
						}
					]
				},
				"events": {
					"EIP712DomainChanged()": {
						"details": "MAY be emitted to signal that the domain could have changed."
					},
					"ExecutedForwardRequest(address,uint256,bool)": {
						"details": "Emitted when a `ForwardRequest` is executed. NOTE: An unsuccessful forward request could be due to an invalid signature, an expired deadline, or simply a revert in the requested call. The contract guarantees that the relayer is not able to force the requested call to run out of gas."
					}
				},
				"kind": "dev",
				"methods": {
					"eip712Domain()": {
						"details": "See {IERC-5267}."
					},
					"execute((address,address,uint256,uint256,uint48,bytes,bytes))": {
						"details": "Executes a `request` on behalf of `signature`'s signer using the ERC-2771 protocol. The gas provided to the requested call may not be exactly the amount requested, but the call will not run out of gas. Will revert if the request is invalid or the call reverts, in this case the nonce is not consumed. Requirements: - The request value should be equal to the provided `msg.value`. - The request should be valid according to {verify}."
					},
					"executeBatch((address,address,uint256,uint256,uint48,bytes,bytes)[],address)": {
						"details": "Batch version of {execute} with optional refunding and atomic execution. In case a batch contains at least one invalid request (see {verify}), the request will be skipped and the `refundReceiver` parameter will receive back the unused requested value at the end of the execution. This is done to prevent reverting the entire batch when a request is invalid or has already been submitted. If the `refundReceiver` is the `address(0)`, this function will revert when at least one of the requests was not valid instead of skipping it. This could be useful if a batch is required to get executed atomically (at least at the top-level). For example, refunding (and thus atomicity) can be opt-out if the relayer is using a service that avoids including reverted transactions. Requirements: - The sum of the requests' values should be equal to the provided `msg.value`. - All of the requests should be valid (see {verify}) when `refundReceiver` is the zero address. NOTE: Setting a zero `refundReceiver` guarantees an all-or-nothing requests execution only for the first-level forwarded calls. In case a forwarded request calls to a contract with another subcall, the second-level call may revert without the top-level call reverting."
					},
					"isTrustedForwarder(address)": {
						"details": "Indicates whether any particular address is the trusted forwarder."
					},
					"nonces(address)": {
						"details": "Returns the next unused nonce for an address."
					},
					"trustedForwarder()": {
						"details": "Returns the address of the trusted forwarder."
					},
					"verify((address,address,uint256,uint256,uint48,bytes,bytes))": {
						"details": "Returns `true` if a request is valid for a provided `signature` at the current block timestamp. A transaction is considered valid when the target trusts this forwarder, the request hasn't expired (deadline is not met), and the signer matches the `from` parameter of the signed request. NOTE: A request may return false here but it won't cause {executeBatch} to revert if a refund receiver is provided."
					}
				},
				"version": 1
			},
			"evm": {
				"assembly": "    /* \"src/Dummy.sol\":158:439  contract Dummy is ERC2771Context, ERC2771Forwarder {... */\n  0x0180\n  dup1\n  0x40\n  mstore\n  jumpi(tag_4, callvalue)\n  tag_6\n  dup2\n  tag_1\n  jump\t// in\ntag_6:\n  0x07\n  dup2\n  mstore\n  0x20\n  dup2\n  add\n  shl(0xc8, 0x466163746f7279)\n  dup2\n  mstore\n  mload(0x40)\n  swap2\n  tag_7\n  dup4\n  tag_1\n  jump\t// in\ntag_7:\n  0x01\n  dup4\n  mstore\n  0x20\n  dup4\n  add\n  swap2\n  shl(0xf8, 0x31)\n  dup4\n  mstore\n    /* \"src/Dummy.sol\":295:337  0xAb8483F64d9C6d1EcF9b849Ae677dD3315835cb2 */\n  0xab8483f64d9c6d1ecf9b849ae677dd3315835cb2\n    /* \"lib/openzeppelin-contracts/contracts/metatx/ERC2771Context.sol\":1255:1292  _trustedForwarder = trustedForwarder_ */\n  0x80\n  mstore\n    /* \"lib/openzeppelin-contracts/contracts/utils/cryptography/EIP712.sol\":3401:3446  name.toShortStringWithFallback(_nameFallback) */\n  tag_8\n  dup3\n  tag_2\n  jump\t// in\ntag_8:\n    /* \"lib/openzeppelin-contracts/contracts/utils/cryptography/EIP712.sol\":3393:3446  _name = name.toShortStringWithFallback(_nameFallback) */\n  swap1\n  0x0140\n  swap2\n  dup3\n  mstore\n    /* \"lib/openzeppelin-contracts/contracts/utils/cryptography/EIP712.sol\":3467:3518  version.toShortStringWithFallback(_versionFallback) */\n  tag_9\n  dup6\n  tag_3\n  jump\t// in\ntag_9:\n    /* \"lib/openzeppelin-contracts/contracts/utils/cryptography/EIP712.sol\":3456:3518  _version = version.toShortStringWithFallback(_versionFallback) */\n  swap3\n  0x0160\n  swap4\n  dup5\n  mstore\n    /* \"src/Dummy.sol\":158:439  contract Dummy is ERC2771Context, ERC2771Forwarder {... */\n  mload\n    /* \"lib/openzeppelin-contracts/contracts/utils/cryptography/EIP712.sol\":3542:3564  keccak256(bytes(name)) */\n  swap1\n  keccak256\n    /* \"lib/openzeppelin-contracts/contracts/utils/cryptography/EIP712.sol\":3528:3564  _hashedName = keccak256(bytes(name)) */\n  swap3\n  0x0100\n  swap5\n  dup5\n  dup7\n  mstore\n    /* \"src/Dummy.sol\":158:439  contract Dummy is ERC2771Context, ERC2771Forwarder {... */\n  mload\n    /* \"lib/openzeppelin-contracts/contracts/utils/cryptography/EIP712.sol\":3591:3616  keccak256(bytes(version)) */\n  swap1\n  keccak256\n    /* \"lib/openzeppelin-contracts/contracts/utils/cryptography/EIP712.sol\":3574:3616  _hashedVersion = keccak256(bytes(version)) */\n  swap3\n  0x0120\n  swap1\n  dup5\n  dup3\n  mstore\n    /* \"lib/openzeppelin-contracts/contracts/utils/cryptography/EIP712.sol\":3644:3657  block.chainid */\n  chainid\n    /* \"lib/openzeppelin-contracts/contracts/utils/cryptography/EIP712.sol\":3627:3657  _cachedChainId = block.chainid */\n  0xc0\n  mstore\n    /* \"src/Dummy.sol\":158:439  contract Dummy is ERC2771Context, ERC2771Forwarder {... */\n  mload(0x40)\n    /* \"lib/openzeppelin-contracts/contracts/utils/cryptography/EIP712.sol\":4204:4284  abi.encode(TYPE_HASH, _hashedName, _hashedVersion, block.chainid, address(this)) */\n  swap5\n    /* \"src/Dummy.sol\":158:439  contract Dummy is ERC2771Context, ERC2771Forwarder {... */\n  0x20\n    /* \"lib/openzeppelin-contracts/contracts/utils/cryptography/EIP712.sol\":4204:4284  abi.encode(TYPE_HASH, _hashedName, _hashedVersion, block.chainid, address(this)) */\n  dup7\n  add\n    /* \"lib/openzeppelin-contracts/contracts/utils/cryptography/EIP712.sol\":2079:2174  keccak256(\"EIP712Domain(string name,string version,uint256 chainId,address verifyingContract)\") */\n  swap2\n  0x8b73c3c69bb8fe3d512ecc4cf759cc79239f7b179b0ffacaa9a75d522b39400f\n  dup4\n  mstore\n    /* \"src/Dummy.sol\":158:439  contract Dummy is ERC2771Context, ERC2771Forwarder {... */\n  0x40\n    /* \"lib/openzeppelin-contracts/contracts/utils/cryptography/EIP712.sol\":2079:2174  keccak256(\"EIP712Domain(string name,string version,uint256 chainId,address verifyingContract)\") */\n  dup8\n  add\n  mstore\n  0x60\n  dup7\n  add\n  mstore\n    /* \"lib/openzeppelin-contracts/contracts/utils/cryptography/EIP712.sol\":3644:3657  block.chainid */\n  chainid\n    /* \"lib/openzeppelin-contracts/contracts/metatx/ERC2771Context.sol\":1255:1292  _trustedForwarder = trustedForwarder_ */\n  0x80\n    /* \"lib/openzeppelin-contracts/contracts/utils/cryptography/EIP712.sol\":2079:2174  keccak256(\"EIP712Domain(string name,string version,uint256 chainId,address verifyingContract)\") */\n  dup7\n  add\n  mstore\n    /* \"lib/openzeppelin-contracts/contracts/utils/cryptography/EIP712.sol\":4278:4282  this */\n  address\n    /* \"lib/openzeppelin-contracts/contracts/utils/cryptography/EIP712.sol\":2079:2174  keccak256(\"EIP712Domain(string name,string version,uint256 chainId,address verifyingContract)\") */\n  0xa0\n  dup7\n  add\n  mstore\n  0xa0\n    /* \"lib/openzeppelin-contracts/contracts/utils/cryptography/EIP712.sol\":4204:4284  abi.encode(TYPE_HASH, _hashedName, _hashedVersion, block.chainid, address(this)) */\n  dup6\n  mstore\n    /* \"lib/openzeppelin-contracts/contracts/utils/cryptography/EIP712.sol\":3627:3657  _cachedChainId = block.chainid */\n  0xc0\n    /* \"src/Dummy.sol\":158:439  contract Dummy is ERC2771Context, ERC2771Forwarder {... */\n  dup6\n  add\n  swap5\n  dup1\n  dup7\n  lt\n  0x01\n  dup1\n  0x40\n  shl\n  sub\n  dup8\n  gt\n  or\n  tag_10\n  jumpi\n  dup6\n  0x40\n  mstore\n  mload\n    /* \"lib/openzeppelin-contracts/contracts/utils/cryptography/EIP712.sol\":4194:4285  keccak256(abi.encode(TYPE_HASH, _hashedName, _hashedVersion, block.chainid, address(this))) */\n  swap1\n  keccak256\n    /* \"lib/openzeppelin-contracts/contracts/utils/cryptography/EIP712.sol\":2079:2174  keccak256(\"EIP712Domain(string name,string version,uint256 chainId,address verifyingContract)\") */\n  0xa0\n    /* \"lib/openzeppelin-contracts/contracts/utils/cryptography/EIP712.sol\":3667:3715  _cachedDomainSeparator = _buildDomainSeparator() */\n  mstore\n    /* \"lib/openzeppelin-contracts/contracts/utils/cryptography/EIP712.sol\":4278:4282  this */\n  address\n    /* \"lib/openzeppelin-contracts/contracts/utils/cryptography/EIP712.sol\":3725:3752  _cachedThis = address(this) */\n  0xe0\n  mstore\n    /* \"src/Dummy.sol\":158:439  contract Dummy is ERC2771Context, ERC2771Forwarder {... */\n  dataSize(sub_0)\n  swap5\n  dup6\n  dataOffset(sub_0)\n  dup7\n  codecopy\n    /* \"lib/openzeppelin-contracts/contracts/metatx/ERC2771Context.sol\":1255:1292  _trustedForwarder = trustedForwarder_ */\n  0x80\n    /* \"src/Dummy.sol\":158:439  contract Dummy is ERC2771Context, ERC2771Forwarder {... */\n  mload\n  dup6\n  assignImmutable(\"0x77c32b454bb61eb9df9e3848d0ded3e59753acda90ae58befe564733aec82e4c\")\n    /* \"lib/openzeppelin-contracts/contracts/utils/cryptography/EIP712.sol\":2079:2174  keccak256(\"EIP712Domain(string name,string version,uint256 chainId,address verifyingContract)\") */\n  0xa0\n    /* \"src/Dummy.sol\":158:439  contract Dummy is ERC2771Context, ERC2771Forwarder {... */\n  mload\n  dup6\n  assignImmutable(\"0x267a3e43955d5ac713043fd32df2bde19a025701ea343c4467194e9c98b8fb1f\")\n    /* \"lib/openzeppelin-contracts/contracts/utils/cryptography/EIP712.sol\":3627:3657  _cachedChainId = block.chainid */\n  0xc0\n    /* \"src/Dummy.sol\":158:439  contract Dummy is ERC2771Context, ERC2771Forwarder {... */\n  mload\n  dup6\n  assignImmutable(\"0xa719e06aa69fe5611e041976601e5776ff743aefe35a016a2b5dfe8f33a5e5e9\")\n    /* \"lib/openzeppelin-contracts/contracts/utils/cryptography/EIP712.sol\":3725:3752  _cachedThis = address(this) */\n  0xe0\n    /* \"src/Dummy.sol\":158:439  contract Dummy is ERC2771Context, ERC2771Forwarder {... */\n  mload\n  dup6\n  assignImmutable(\"0x181e1e3a457d5cef39dddc6213a1adbc86226ab3d6c2e46b6b95ce30e1273fad\")\n  mload\n  dup5\n  assignImmutable(\"0xd60579bb341d0b58542358d81fbcda6dc7dd39e7447d85d21541e19a3877254c\")\n  mload\n  dup4\n  assignImmutable(\"0x995833c2a2aeb937fbc4a128bd490bc0fc9957bdfd709bbb221dc0127b96401e\")\n  mload\n  dup3\n  assignImmutable(\"0xcb53285b0d93959fe2b39d776c53c3ac62f51d590c6169c94a63eeb4e0302d5e\")\n  mload\n  dup2\n  assignImmutable(\"0x4e5048aa6ab9ce5117b653ef20524273bce16c451ef1a9c6d4f6b8e5e9fe0ca4\")\n  return\ntag_10:\n  mstore(0x00, shl(0xe0, 0x4e487b71))\n  mstore(0x04, 0x41)\n  revert(0x00, 0x24)\ntag_4:\n  0x00\n  dup1\n  revert\ntag_1:\n  0x40\n  dup2\n  add\n  swap1\n  dup2\n  lt\n  sub(shl(0x40, 0x01), 0x01)\n  dup3\n  gt\n  or\n  tag_10\n  jumpi\n  0x40\n  mstore\n  jump\t// out\n    /* \"lib/openzeppelin-contracts/contracts/utils/ShortStrings.sol\":2914:3254  function toShortStringWithFallback(string memory value, string storage store) internal returns (ShortString) {... */\ntag_2:\n    /* \"src/Dummy.sol\":158:439  contract Dummy is ERC2771Context, ERC2771Forwarder {... */\n  dup1\n  mload\n    /* \"lib/openzeppelin-contracts/contracts/utils/ShortStrings.sol\":3059:3061  32 */\n  0x20\n  swap2\n    /* \"src/Dummy.sol\":158:439  contract Dummy is ERC2771Context, ERC2771Forwarder {... */\n  swap1\n    /* \"lib/openzeppelin-contracts/contracts/utils/ShortStrings.sol\":3037:3061  bytes(value).length < 32 */\n  dup3\n  dup2\n  lt\n    /* \"lib/openzeppelin-contracts/contracts/utils/ShortStrings.sol\":3059:3061  32 */\n  iszero\n  tag_14\n  jumpi\n    /* \"src/Dummy.sol\":158:439  contract Dummy is ERC2771Context, ERC2771Forwarder {... */\n  pop\n  swap1\n    /* \"lib/openzeppelin-contracts/contracts/utils/ShortStrings.sol\":1854:1856  31 */\n  0x1f\n    /* \"src/Dummy.sol\":158:439  contract Dummy is ERC2771Context, ERC2771Forwarder {... */\n  dup3\n  mload\n    /* \"lib/openzeppelin-contracts/contracts/utils/ShortStrings.sol\":1840:1856  bstr.length > 31 */\n  gt\n    /* \"lib/openzeppelin-contracts/contracts/utils/ShortStrings.sol\":1836:1908  if (bstr.length > 31) {... */\n  tag_16\n  jumpi\n    /* \"src/Dummy.sol\":158:439  contract Dummy is ERC2771Context, ERC2771Forwarder {... */\n  dup1\n  dup3\n  mload\n  swap3\n  add\n  mload\n  swap1\n  dup1\n  dup4\n  lt\n  tag_18\n  jumpi\n    /* \"lib/openzeppelin-contracts/contracts/utils/ShortStrings.sol\":1949:1985  uint256(bytes32(bstr)) | bstr.length */\n  pop\n  or\n    /* \"lib/openzeppelin-contracts/contracts/utils/ShortStrings.sol\":3077:3104  return toShortString(value) */\n  swap1\n  jump\t// out\n    /* \"src/Dummy.sol\":158:439  contract Dummy is ERC2771Context, ERC2771Forwarder {... */\ntag_18:\n  dup3\n  not(0x00)\n  swap2\n  sub\n  0x03\n  shl\n  shl\n  and\n    /* \"lib/openzeppelin-contracts/contracts/utils/ShortStrings.sol\":1949:1985  uint256(bytes32(bstr)) | bstr.length */\n  or\n    /* \"lib/openzeppelin-contracts/contracts/utils/ShortStrings.sol\":3077:3104  return toShortString(value) */\n  swap1\n  jump\t// out\n    /* \"lib/openzeppelin-contracts/contracts/utils/ShortStrings.sol\":1836:1908  if (bstr.length > 31) {... */\ntag_16:\n    /* \"src/Dummy.sol\":158:439  contract Dummy is ERC2771Context, ERC2771Forwarder {... */\n  swap1\n  mload(0x40)\n    /* \"lib/openzeppelin-contracts/contracts/utils/ShortStrings.sol\":1879:1897  StringTooLong(str) */\n  dup1\n  swap3\n  shl(0xe0, 0x305a27a9)\n  dup3\n  mstore\n  dup1\n  0x04\n  dup4\n  add\n    /* \"src/Dummy.sol\":158:439  contract Dummy is ERC2771Context, ERC2771Forwarder {... */\n  mstore\n  dup3\n  mload\n  swap1\n  dup2\n  0x24\n  dup5\n  add\n  mstore\n    /* \"lib/openzeppelin-contracts/contracts/utils/cryptography/EIP712.sol\":3432:3445  _nameFallback */\n  0x00\n    /* \"src/Dummy.sol\":158:439  contract Dummy is ERC2771Context, ERC2771Forwarder {... */\n  swap4\ntag_20:\n  dup3\n  dup6\n  lt\n  tag_21\n  jumpi\n  pop\n  pop\n  0x44\n  swap3\n  pop\n    /* \"lib/openzeppelin-contracts/contracts/utils/cryptography/EIP712.sol\":3432:3445  _nameFallback */\n  0x00\n    /* \"src/Dummy.sol\":158:439  contract Dummy is ERC2771Context, ERC2771Forwarder {... */\n  dup4\n  dup3\n  dup5\n  add\n  add\n  mstore\n    /* \"lib/openzeppelin-contracts/contracts/utils/ShortStrings.sol\":1854:1856  31 */\n  0x1f\n    /* \"src/Dummy.sol\":158:439  contract Dummy is ERC2771Context, ERC2771Forwarder {... */\n  dup1\n  not\n  swap2\n  add\n  and\n  dup2\n  add\n    /* \"lib/openzeppelin-contracts/contracts/utils/ShortStrings.sol\":1879:1897  StringTooLong(str) */\n  sub\n  add\n  swap1\n  revert\n    /* \"src/Dummy.sol\":158:439  contract Dummy is ERC2771Context, ERC2771Forwarder {... */\ntag_21:\n  dup5\n  dup2\n  add\n  dup3\n  add\n  mload\n  dup7\n  dup7\n  add\n  0x44\n  add\n  mstore\n  swap4\n  dup2\n  add\n  swap4\n  dup6\n  swap4\n  pop\n  jump(tag_20)\n    /* \"lib/openzeppelin-contracts/contracts/utils/ShortStrings.sol\":3033:3248  if (bytes(value).length < 32) {... */\ntag_14:\n  sub(shl(0x40, 0x01), 0x01)\n    /* \"src/Dummy.sol\":158:439  contract Dummy is ERC2771Context, ERC2771Forwarder {... */\n  dup2\n  gt\n  tag_10\n  jumpi\n    /* \"lib/openzeppelin-contracts/contracts/utils/cryptography/EIP712.sol\":3432:3445  _nameFallback */\n  0x00\n    /* \"src/Dummy.sol\":158:439  contract Dummy is ERC2771Context, ERC2771Forwarder {... */\n  swap3\n  dup4\n  sload\n  swap3\n  0x01\n  swap4\n  dup5\n  dup2\n  dup2\n  shr\n  swap2\n  and\n  dup1\n  iszero\n  tag_25\n  jumpi\n    /* \"lib/openzeppelin-contracts/contracts/utils/ShortStrings.sol\":3033:3248  if (bytes(value).length < 32) {... */\ntag_26:\n    /* \"src/Dummy.sol\":158:439  contract Dummy is ERC2771Context, ERC2771Forwarder {... */\n  dup4\n  dup3\n  lt\n  eq\n  tag_27\n  jumpi\n  0x1f\n  dup2\n  gt\n  tag_29\n  jumpi\n    /* \"lib/openzeppelin-contracts/contracts/utils/ShortStrings.sol\":3033:3248  if (bytes(value).length < 32) {... */\ntag_30:\n    /* \"src/Dummy.sol\":158:439  contract Dummy is ERC2771Context, ERC2771Forwarder {... */\n  pop\n  dup2\n  0x1f\n  dup5\n  gt\n  0x01\n  eq\n  tag_31\n  jumpi\n  pop\n  swap3\n  dup3\n  swap4\n  swap2\n  dup4\n  swap3\n  dup7\n  swap5\n  tag_33\n  jumpi\ntag_34:\n  pop\n  pop\n  shl\n  swap2\n  not(0x00)\n  swap1\n  0x03\n  shl\n  shr\n  not\n  and\n  or\n  swap1\n  sstore\n    /* \"lib/openzeppelin-contracts/contracts/utils/ShortStrings.sol\":1390:1456  0x00000000000000000000000000000000000000000000000000000000000000FF */\n  0xff\n    /* \"lib/openzeppelin-contracts/contracts/utils/ShortStrings.sol\":3195:3237  return ShortString.wrap(FALLBACK_SENTINEL) */\n  swap1\n  jump\t// out\n    /* \"src/Dummy.sol\":158:439  contract Dummy is ERC2771Context, ERC2771Forwarder {... */\ntag_33:\n  add\n  mload\n  swap3\n  pop\n  0x00\n  dup1\n  jump(tag_34)\ntag_31:\n  swap2\n  swap1\n  dup4\n  not(0x1f)\n  dup2\n  and\n  dup8\n  dup1\n  mstore\n  dup5\n  dup9\n  keccak256\n  swap5\n  dup9\n  swap1\ntag_36:\n  dup9\n  dup4\n  dup4\n  lt\n  tag_37\n  jumpi\n  pop\n  pop\n  pop\n  lt\n  tag_39\n  jumpi\ntag_40:\n  pop\n  pop\n  pop\n  dup2\n  shl\n  add\n  swap1\n  sstore\n    /* \"lib/openzeppelin-contracts/contracts/utils/ShortStrings.sol\":1390:1456  0x00000000000000000000000000000000000000000000000000000000000000FF */\n  0xff\n    /* \"lib/openzeppelin-contracts/contracts/utils/ShortStrings.sol\":3195:3237  return ShortString.wrap(FALLBACK_SENTINEL) */\n  swap1\n  jump\t// out\n    /* \"src/Dummy.sol\":158:439  contract Dummy is ERC2771Context, ERC2771Forwarder {... */\ntag_39:\n  add\n  mload\n  not(0x00)\n  0xf8\n  dup5\n  0x03\n  shl\n  and\n  shr\n  not\n  and\n  swap1\n  sstore\n  0x00\n  dup1\n  dup1\n  jump(tag_40)\ntag_37:\n  dup6\n  dup8\n  add\n  mload\n  dup9\n  sstore\n  swap1\n  swap7\n  add\n  swap6\n  swap5\n  dup6\n  add\n  swap5\n  dup8\n  swap4\n  pop\n  swap1\n  dup2\n  add\n  swap1\n  jump(tag_36)\ntag_29:\n  dup6\n  dup1\n  mstore\n  dup5\n  0x1f\n  dup5\n  dup9\n  keccak256\n  swap3\n  add\n  0x05\n  shr\n  dup3\n  add\n  swap2\n  0x1f\n  dup7\n  add\n  0x05\n  shr\n  add\ntag_41:\n  dup3\n  dup2\n  lt\n  tag_42\n  jumpi\n  pop\n  pop\n  jump(tag_30)\ntag_42:\n  dup8\n  dup2\n  sstore\n  add\n  dup6\n  swap1\n  jump(tag_41)\ntag_27:\n  shl(0xe0, 0x4e487b71)\n  dup7\n  mstore\n  mstore(0x04, 0x22)\n  0x24\n  dup7\n  revert\ntag_25:\n  swap1\n  0x7f\n  and\n  swap1\n  jump(tag_26)\n    /* \"lib/openzeppelin-contracts/contracts/utils/ShortStrings.sol\":2914:3254  function toShortStringWithFallback(string memory value, string storage store) internal returns (ShortString) {... */\ntag_3:\n    /* \"src/Dummy.sol\":158:439  contract Dummy is ERC2771Context, ERC2771Forwarder {... */\n  dup1\n  mload\n    /* \"lib/openzeppelin-contracts/contracts/utils/ShortStrings.sol\":3059:3061  32 */\n  0x20\n  swap1\n    /* \"lib/openzeppelin-contracts/contracts/utils/ShortStrings.sol\":3037:3061  bytes(value).length < 32 */\n  dup2\n  dup2\n  lt\n    /* \"lib/openzeppelin-contracts/contracts/utils/ShortStrings.sol\":3059:3061  32 */\n  iszero\n  tag_44\n  jumpi\n    /* \"src/Dummy.sol\":158:439  contract Dummy is ERC2771Context, ERC2771Forwarder {... */\n  pop\n    /* \"lib/openzeppelin-contracts/contracts/utils/ShortStrings.sol\":1854:1856  31 */\n  0x1f\n    /* \"src/Dummy.sol\":158:439  contract Dummy is ERC2771Context, ERC2771Forwarder {... */\n  dup3\n  mload\n    /* \"lib/openzeppelin-contracts/contracts/utils/ShortStrings.sol\":1840:1856  bstr.length > 31 */\n  gt\n    /* \"lib/openzeppelin-contracts/contracts/utils/ShortStrings.sol\":1836:1908  if (bstr.length > 31) {... */\n  tag_46\n  jumpi\n    /* \"src/Dummy.sol\":158:439  contract Dummy is ERC2771Context, ERC2771Forwarder {... */\n  dup1\n  dup3\n  mload\n  swap3\n  add\n  mload\n  swap1\n  dup1\n  dup4\n  lt\n  tag_18\n  jumpi\n    /* \"lib/openzeppelin-contracts/contracts/utils/ShortStrings.sol\":1949:1985  uint256(bytes32(bstr)) | bstr.length */\n  pop\n  or\n    /* \"lib/openzeppelin-contracts/contracts/utils/ShortStrings.sol\":3077:3104  return toShortString(value) */\n  swap1\n  jump\t// out\n    /* \"lib/openzeppelin-contracts/contracts/utils/ShortStrings.sol\":1836:1908  if (bstr.length > 31) {... */\ntag_46:\n    /* \"src/Dummy.sol\":158:439  contract Dummy is ERC2771Context, ERC2771Forwarder {... */\n  swap1\n  mload(0x40)\n    /* \"lib/openzeppelin-contracts/contracts/utils/ShortStrings.sol\":1879:1897  StringTooLong(str) */\n  dup1\n  swap3\n  shl(0xe0, 0x305a27a9)\n  dup3\n  mstore\n  dup1\n  0x04\n  dup4\n  add\n    /* \"src/Dummy.sol\":158:439  contract Dummy is ERC2771Context, ERC2771Forwarder {... */\n  mstore\n  dup3\n  mload\n  swap1\n  dup2\n  0x24\n  dup5\n  add\n  mstore\n  0x00\n  swap4\ntag_50:\n  dup3\n  dup6\n  lt\n  tag_51\n  jumpi\n  pop\n  pop\n  0x44\n  swap3\n  pop\n  0x00\n  dup4\n  dup3\n  dup5\n  add\n  add\n  mstore\n    /* \"lib/openzeppelin-contracts/contracts/utils/ShortStrings.sol\":1854:1856  31 */\n  0x1f\n    /* \"src/Dummy.sol\":158:439  contract Dummy is ERC2771Context, ERC2771Forwarder {... */\n  dup1\n  not\n  swap2\n  add\n  and\n  dup2\n  add\n    /* \"lib/openzeppelin-contracts/contracts/utils/ShortStrings.sol\":1879:1897  StringTooLong(str) */\n  sub\n  add\n  swap1\n  revert\n    /* \"src/Dummy.sol\":158:439  contract Dummy is ERC2771Context, ERC2771Forwarder {... */\ntag_51:\n  dup5\n  dup2\n  add\n  dup3\n  add\n  mload\n  dup7\n  dup7\n  add\n  0x44\n  add\n  mstore\n  swap4\n  dup2\n  add\n  swap4\n  dup6\n  swap4\n  pop\n  jump(tag_50)\n    /* \"lib/openzeppelin-contracts/contracts/utils/ShortStrings.sol\":3033:3248  if (bytes(value).length < 32) {... */\ntag_44:\n    /* \"src/Dummy.sol\":158:439  contract Dummy is ERC2771Context, ERC2771Forwarder {... */\n  swap2\n  swap3\n  swap2\n  sub(shl(0x40, 0x01), 0x01)\n  dup2\n  gt\n  tag_10\n  jumpi\n  0x01\n  swap2\n  dup3\n  sload\n  dup4\n  dup2\n  dup2\n  shr\n  swap2\n  and\n  dup1\n  iszero\n  tag_55\n  jumpi\n    /* \"lib/openzeppelin-contracts/contracts/utils/ShortStrings.sol\":3033:3248  if (bytes(value).length < 32) {... */\ntag_56:\n    /* \"src/Dummy.sol\":158:439  contract Dummy is ERC2771Context, ERC2771Forwarder {... */\n  dup3\n  dup3\n  lt\n  eq\n  tag_57\n  jumpi\n  0x1f\n  dup2\n  gt\n  tag_59\n  jumpi\n    /* \"lib/openzeppelin-contracts/contracts/utils/ShortStrings.sol\":3033:3248  if (bytes(value).length < 32) {... */\ntag_60:\n    /* \"src/Dummy.sol\":158:439  contract Dummy is ERC2771Context, ERC2771Forwarder {... */\n  pop\n  dup1\n  0x1f\n  dup4\n  gt\n  0x01\n  eq\n  tag_61\n  jumpi\n  pop\n  dup2\n  swap3\n  swap4\n  swap5\n  0x00\n  swap3\n  tag_63\n  jumpi\ntag_64:\n  pop\n  pop\n  not(0x00)\n  0x03\n  dup4\n  swap1\n  shl\n  shr\n  not\n  and\n  swap1\n  dup3\n  shl\n  or\n  swap1\n  sstore\n    /* \"lib/openzeppelin-contracts/contracts/utils/ShortStrings.sol\":1390:1456  0x00000000000000000000000000000000000000000000000000000000000000FF */\n  0xff\n  swap1\n    /* \"lib/openzeppelin-contracts/contracts/utils/ShortStrings.sol\":3195:3237  return ShortString.wrap(FALLBACK_SENTINEL) */\n  jump\t// out\n    /* \"src/Dummy.sol\":158:439  contract Dummy is ERC2771Context, ERC2771Forwarder {... */\ntag_63:\n  add\n  mload\n  swap1\n  pop\n  0x00\n  dup1\n  jump(tag_64)\ntag_61:\n  swap1\n  not(0x1f)\n  dup4\n  and\n  swap6\n  dup5\n  0x00\n  mstore\n  dup3\n  0x00\n  keccak256\n  swap3\n  0x00\n  swap1\ntag_66:\n  dup9\n  dup3\n  lt\n  tag_67\n  jumpi\n  pop\n  pop\n  dup4\n  dup6\n  swap7\n  swap8\n  lt\n  tag_39\n  jumpi\n  pop\n  pop\n  pop\n  dup2\n  shl\n  add\n  swap1\n  sstore\n    /* \"lib/openzeppelin-contracts/contracts/utils/ShortStrings.sol\":1390:1456  0x00000000000000000000000000000000000000000000000000000000000000FF */\n  0xff\n    /* \"lib/openzeppelin-contracts/contracts/utils/ShortStrings.sol\":3195:3237  return ShortString.wrap(FALLBACK_SENTINEL) */\n  swap1\n  jump\t// out\n    /* \"src/Dummy.sol\":158:439  contract Dummy is ERC2771Context, ERC2771Forwarder {... */\ntag_67:\n  dup1\n  dup8\n  dup6\n  swap7\n  dup3\n  swap5\n  swap7\n  dup7\n  add\n  mload\n  dup2\n  sstore\n  add\n  swap6\n  add\n  swap4\n  add\n  swap1\n  jump(tag_66)\ntag_59:\n  dup4\n  0x00\n  mstore\n  dup4\n  0x1f\n  dup4\n  0x00\n  keccak256\n  swap3\n  add\n  0x05\n  shr\n  dup3\n  add\n  swap2\n  0x1f\n  dup6\n  add\n  0x05\n  shr\n  add\ntag_71:\n  dup3\n  dup2\n  lt\n  tag_72\n  jumpi\n  pop\n  pop\n  jump(tag_60)\ntag_72:\n  0x00\n  dup2\n  sstore\n  add\n  dup5\n  swap1\n  jump(tag_71)\ntag_57:\n  mstore(0x00, shl(0xe0, 0x4e487b71))\n  mstore(0x04, 0x22)\n  revert(0x00, 0x24)\ntag_55:\n  swap1\n  0x7f\n  and\n  swap1\n  jump(tag_56)\nstop\n\nsub_0: assembly {\n        /* \"src/Dummy.sol\":158:439  contract Dummy is ERC2771Context, ERC2771Forwarder {... */\n      mstore(0x40, 0x80)\n      jumpi(tag_50, iszero(lt(calldatasize, 0x04)))\n      0x00\n      dup1\n      revert\n    tag_50:\n      shr(0xe0, calldataload(0x00))\n      dup1\n      0x19d8d38c\n      eq\n      tag_52\n      jumpi\n      dup1\n      0x3fb5c1cb\n      eq\n      tag_54\n      jumpi\n      dup1\n      0x572b6c05\n      eq\n      tag_56\n      jumpi\n      dup1\n      0x7da0a877\n      eq\n      tag_58\n      jumpi\n      dup1\n      0x7ecebe00\n      eq\n      tag_60\n      jumpi\n      dup1\n      0x84b0196e\n      eq\n      tag_62\n      jumpi\n      dup1\n      0xccf96b4a\n      eq\n      tag_64\n      jumpi\n      0xdf905caf\n      eq\n      tag_66\n      jumpi\n      0x00\n      dup1\n      revert\n    tag_66:\n      tag_13\n      jump\t// in\n    tag_64:\n      tag_12\n      jump\t// in\n    tag_62:\n      tag_11\n      jump\t// in\n    tag_60:\n      tag_8\n      jump\t// in\n    tag_58:\n      tag_7\n      jump\t// in\n    tag_56:\n      tag_6\n      jump\t// in\n    tag_54:\n      tag_3\n      jump\t// in\n    tag_52:\n      jumpi(tag_68, callvalue)\n      0x20\n        /* \"lib/openzeppelin-contracts/contracts/metatx/ERC2771Forwarder.sol\":5004:5022  _validate(request) */\n      tag_70\n        /* \"src/Dummy.sol\":158:439  contract Dummy is ERC2771Context, ERC2771Forwarder {... */\n      tag_71\n      calldatasize\n      tag_1\n      jump\t// in\n    tag_71:\n        /* \"lib/openzeppelin-contracts/contracts/metatx/ERC2771Forwarder.sol\":5004:5022  _validate(request) */\n      tag_21\n      jump\t// in\n    tag_70:\n        /* \"lib/openzeppelin-contracts/contracts/metatx/ERC2771Forwarder.sol\":5039:5067  isTrustedForwarder && active */\n      pop\n      swap1\n      dup3\n      tag_72\n      jumpi\n        /* \"src/Dummy.sol\":158:439  contract Dummy is ERC2771Context, ERC2771Forwarder {... */\n    tag_73:\n        /* \"lib/openzeppelin-contracts/contracts/metatx/ERC2771Forwarder.sol\":5039:5082  isTrustedForwarder && active && signerMatch */\n      pop\n      dup2\n      tag_74\n      jumpi\n        /* \"src/Dummy.sol\":158:439  contract Dummy is ERC2771Context, ERC2771Forwarder {... */\n    tag_75:\n      pop\n      mload(0x40)\n      swap1\n      iszero\n      iszero\n      dup2\n      mstore\n      return\n        /* \"lib/openzeppelin-contracts/contracts/metatx/ERC2771Forwarder.sol\":5039:5082  isTrustedForwarder && active && signerMatch */\n    tag_74:\n      swap1\n      pop\n      dup3\n      jump(tag_75)\n        /* \"lib/openzeppelin-contracts/contracts/metatx/ERC2771Forwarder.sol\":5039:5067  isTrustedForwarder && active */\n    tag_72:\n      swap2\n      pop\n      dup4\n      jump(tag_73)\n        /* \"src/Dummy.sol\":158:439  contract Dummy is ERC2771Context, ERC2771Forwarder {... */\n    tag_68:\n      0x00\n      dup1\n      revert\n    tag_1:\n      not(0x03)\n      swap1\n      0x20\n      dup2\n      dup4\n      add\n      slt\n      tag_68\n      jumpi\n      calldataload(0x04)\n      swap2\n      0xffffffffffffffff\n      dup4\n      gt\n      tag_68\n      jumpi\n      dup3\n      0xe0\n      swap3\n      sub\n      add\n      slt\n      tag_68\n      jumpi\n      0x04\n      add\n      swap1\n      jump\t// out\n    tag_3:\n      jumpi(tag_68, callvalue)\n      jumpi(tag_68, slt(add(not(0x03), calldatasize), 0x20))\n      sstore(0x03, calldataload(0x04))\n      stop\n    tag_5:\n      sub(shl(0xa0, 0x01), 0x01)\n      dup2\n      and\n      sub\n      tag_68\n      jumpi\n      jump\t// out\n    tag_6:\n      jumpi(tag_68, callvalue)\n      jumpi(tag_68, slt(add(not(0x03), calldatasize), 0x20))\n      0x20\n      calldataload(0x04)\n      tag_92\n      dup2\n      tag_5\n      jump\t// in\n    tag_92:\n      mload(0x40)\n      swap1\n      0x01\n      dup1\n      0xa0\n      shl\n      sub\n        /* \"lib/openzeppelin-contracts/contracts/metatx/ERC2771Context.sol\":1462:1479  _trustedForwarder */\n      dup1\n      immutable(\"0x77c32b454bb61eb9df9e3848d0ded3e59753acda90ae58befe564733aec82e4c\")\n        /* \"src/Dummy.sol\":158:439  contract Dummy is ERC2771Context, ERC2771Forwarder {... */\n      and\n      swap2\n      and\n        /* \"lib/openzeppelin-contracts/contracts/metatx/ERC2771Context.sol\":1686:1717  forwarder == trustedForwarder() */\n      eq\n        /* \"src/Dummy.sol\":158:439  contract Dummy is ERC2771Context, ERC2771Forwarder {... */\n      dup2\n      mstore\n      return\n    tag_7:\n      jumpi(tag_68, callvalue)\n      jumpi(tag_68, slt(add(not(0x03), calldatasize), 0x00))\n      mload(0x40)\n        /* \"lib/openzeppelin-contracts/contracts/metatx/ERC2771Context.sol\":1462:1479  _trustedForwarder */\n      immutable(\"0x77c32b454bb61eb9df9e3848d0ded3e59753acda90ae58befe564733aec82e4c\")\n      sub(shl(0xa0, 0x01), 0x01)\n        /* \"src/Dummy.sol\":158:439  contract Dummy is ERC2771Context, ERC2771Forwarder {... */\n      and\n      dup2\n      mstore\n      0x20\n      swap1\n      return\n    tag_8:\n      jumpi(tag_68, callvalue)\n      jumpi(tag_68, slt(add(not(0x03), calldatasize), 0x20))\n      0x20\n      tag_101\n      calldataload(0x04)\n      tag_102\n      dup2\n      tag_5\n      jump\t// in\n    tag_102:\n      sub(shl(0xa0, 0x01), 0x01)\n      and\n      0x00\n      swap1\n      dup2\n      mstore\n        /* \"lib/openzeppelin-contracts/contracts/utils/Nonces.sol\":624:631  _nonces */\n      0x02\n        /* \"src/Dummy.sol\":158:439  contract Dummy is ERC2771Context, ERC2771Forwarder {... */\n      0x20\n      mstore\n      0x40\n      swap1\n      keccak256\n      sload\n      swap1\n        /* \"lib/openzeppelin-contracts/contracts/utils/Nonces.sol\":538:645  function nonces(address owner) public view virtual returns (uint256) {... */\n      jump\n        /* \"src/Dummy.sol\":158:439  contract Dummy is ERC2771Context, ERC2771Forwarder {... */\n    tag_101:\n      mload(0x40)\n      swap1\n      dup2\n      mstore\n      return\n    tag_10:\n      swap2\n      swap1\n      dup3\n      mload\n      swap3\n      dup4\n      dup3\n      mstore\n      0x00\n    tag_103:\n      dup5\n      dup2\n      lt\n      tag_104\n      jumpi\n      pop\n      pop\n      dup3\n      0x00\n      0x20\n      dup1\n      swap5\n      swap6\n      dup5\n      add\n      add\n      mstore\n      0x1f\n      dup1\n      not\n      swap2\n      add\n      and\n      add\n      add\n      swap1\n      jump\t// out\n    tag_104:\n      0x20\n      dup2\n      dup4\n      add\n      dup2\n      add\n      mload\n      dup5\n      dup4\n      add\n      dup3\n      add\n      mstore\n      add\n      jump(tag_103)\n    tag_11:\n      jumpi(tag_68, callvalue)\n      0x00\n      dup1\n      add(calldatasize, not(0x03))\n      slt\n      tag_108\n      jumpi\n      tag_110\n        /* \"lib/openzeppelin-contracts/contracts/utils/cryptography/EIP712.sol\":6099:6104  _name */\n      swap1\n        /* \"lib/openzeppelin-contracts/contracts/utils/cryptography/EIP712.sol\":6099:6140  _name.toStringWithFallback(_nameFallback) */\n      tag_111\n        /* \"lib/openzeppelin-contracts/contracts/utils/cryptography/EIP712.sol\":6099:6104  _name */\n      immutable(\"0xcb53285b0d93959fe2b39d776c53c3ac62f51d590c6169c94a63eeb4e0302d5e\")\n        /* \"lib/openzeppelin-contracts/contracts/utils/cryptography/EIP712.sol\":6099:6140  _name.toStringWithFallback(_nameFallback) */\n      tag_47\n      jump\t// in\n    tag_111:\n        /* \"lib/openzeppelin-contracts/contracts/utils/cryptography/EIP712.sol\":6554:6601  _version.toStringWithFallback(_versionFallback) */\n      tag_112\n        /* \"lib/openzeppelin-contracts/contracts/utils/cryptography/EIP712.sol\":6554:6562  _version */\n      immutable(\"0x4e5048aa6ab9ce5117b653ef20524273bce16c451ef1a9c6d4f6b8e5e9fe0ca4\")\n        /* \"lib/openzeppelin-contracts/contracts/utils/cryptography/EIP712.sol\":6554:6601  _version.toStringWithFallback(_versionFallback) */\n      tag_48\n      jump\t// in\n    tag_112:\n        /* \"src/Dummy.sol\":158:439  contract Dummy is ERC2771Context, ERC2771Forwarder {... */\n      swap2\n      mload(0x40)\n        /* \"lib/openzeppelin-contracts/contracts/metatx/ERC2771Forwarder.sol\":3070:3211  keccak256(... */\n      swap2\n      tag_113\n      dup4\n      tag_24\n      jump\t// in\n    tag_113:\n        /* \"src/Dummy.sol\":158:439  contract Dummy is ERC2771Context, ERC2771Forwarder {... */\n      dup2\n      dup4\n      mstore\n      mload(0x40)\n      swap5\n      dup6\n      swap5\n      shl(0xf8, 0x0f)\n      dup7\n      mstore\n      tag_114\n      0x20\n      swap4\n      0xe0\n      dup6\n      dup10\n      add\n      mstore\n      0xe0\n      dup9\n      add\n      swap1\n      tag_10\n      jump\t// in\n    tag_114:\n      swap1\n      dup7\n      dup3\n      sub\n      0x40\n      dup9\n      add\n      mstore\n      tag_10\n      jump\t// in\n    tag_110:\n        /* \"lib/openzeppelin-contracts/contracts/utils/cryptography/EIP712.sol\":5590:5603  block.chainid */\n      swap1\n      chainid\n        /* \"src/Dummy.sol\":158:439  contract Dummy is ERC2771Context, ERC2771Forwarder {... */\n      0x60\n      dup7\n      add\n      mstore\n        /* \"lib/openzeppelin-contracts/contracts/utils/cryptography/EIP712.sol\":5625:5629  this */\n      address\n        /* \"src/Dummy.sol\":158:439  contract Dummy is ERC2771Context, ERC2771Forwarder {... */\n      0x80\n      dup7\n      add\n      mstore\n      dup3\n      0xa0\n      dup7\n      add\n      mstore\n      dup5\n      dup3\n      sub\n      0xc0\n      dup7\n      add\n      mstore\n      dup1\n      dup1\n      dup6\n      mload\n      swap4\n      dup5\n      dup2\n      mstore\n      add\n      swap5\n      add\n      swap3\n    tag_115:\n      dup3\n      dup2\n      lt\n      tag_116\n      jumpi\n      pop\n      pop\n      pop\n      pop\n      sub\n      swap1\n      return\n    tag_116:\n      dup4\n      mload\n      dup6\n      mstore\n      dup7\n      swap6\n      pop\n      swap4\n      dup2\n      add\n      swap4\n      swap3\n      dup2\n      add\n      swap3\n        /* \"lib/openzeppelin-contracts/contracts/utils/cryptography/EIP712.sol\":6584:6600  _versionFallback */\n      0x01\n        /* \"src/Dummy.sol\":158:439  contract Dummy is ERC2771Context, ERC2771Forwarder {... */\n      add\n      jump(tag_115)\n    tag_108:\n      dup1\n      revert\n    tag_12:\n      0x40\n      dup1\n      add(calldatasize, not(0x03))\n      slt\n      tag_68\n      jumpi\n      calldataload(0x04)\n      0xffffffffffffffff\n      dup1\n      dup3\n      gt\n      tag_68\n      jumpi\n      calldatasize\n      0x23\n      dup4\n      add\n      slt\n      iszero\n      tag_68\n      jumpi\n      dup2\n      0x04\n      add\n      calldataload\n      swap1\n      dup2\n      gt\n      tag_68\n      jumpi\n      0x24\n      dup3\n      add\n      swap2\n      0x24\n      calldatasize\n      swap2\n      dup4\n      0x05\n      shl\n      add\n      add\n      gt\n      tag_68\n      jumpi\n      swap1\n      calldataload(0x24)\n      swap3\n      tag_128\n      dup5\n      tag_5\n      jump\t// in\n    tag_128:\n        /* \"lib/openzeppelin-contracts/contracts/metatx/ERC2771Forwarder.sol\":7708:7709  0 */\n      0x00\n      swap3\n      dup4\n      swap3\n      dup4\n      swap2\n      sub(shl(0xa0, 0x01), 0x01)\n        /* \"src/Dummy.sol\":158:439  contract Dummy is ERC2771Context, ERC2771Forwarder {... */\n      dup8\n      and\n        /* \"lib/openzeppelin-contracts/contracts/metatx/ERC2771Forwarder.sol\":7682:7710  refundReceiver == address(0) */\n      iszero\n      swap2\n        /* \"lib/openzeppelin-contracts/contracts/metatx/ERC2771Forwarder.sol\":7798:7817  i < requests.length */\n    tag_129:\n      dup2\n      dup5\n      lt\n      tag_130\n      jumpi\n        /* \"lib/openzeppelin-contracts/contracts/metatx/ERC2771Forwarder.sol\":8186:8195  msg.value */\n      pop\n      pop\n      pop\n      pop\n      callvalue\n        /* \"lib/openzeppelin-contracts/contracts/metatx/ERC2771Forwarder.sol\":8169:8195  requestsValue != msg.value */\n      dup3\n      sub\n        /* \"lib/openzeppelin-contracts/contracts/metatx/ERC2771Forwarder.sol\":8165:8286  if (requestsValue != msg.value) {... */\n      tag_132\n      jumpi\n        /* \"lib/openzeppelin-contracts/contracts/metatx/ERC2771Forwarder.sol\":8453:8469  refundValue != 0 */\n      pop\n      pop\n      dup1\n        /* \"lib/openzeppelin-contracts/contracts/metatx/ERC2771Forwarder.sol\":8449:8777  if (refundValue != 0) {... */\n      tag_134\n      jumpi\n        /* \"src/Dummy.sol\":158:439  contract Dummy is ERC2771Context, ERC2771Forwarder {... */\n      stop\n        /* \"lib/openzeppelin-contracts/contracts/metatx/ERC2771Forwarder.sol\":8449:8777  if (refundValue != 0) {... */\n    tag_134:\n        /* \"lib/openzeppelin-contracts/contracts/metatx/ERC2771Forwarder.sol\":8754:8765  refundValue */\n      tag_136\n      swap2\n      tag_38\n      jump\t// in\n    tag_136:\n        /* \"src/Dummy.sol\":158:439  contract Dummy is ERC2771Context, ERC2771Forwarder {... */\n      stop\n        /* \"lib/openzeppelin-contracts/contracts/metatx/ERC2771Forwarder.sol\":8165:8286  if (requestsValue != msg.value) {... */\n    tag_132:\n        /* \"src/Dummy.sol\":158:439  contract Dummy is ERC2771Context, ERC2771Forwarder {... */\n      mload\n      shl(0xe0, 0x70647f79)\n        /* \"lib/openzeppelin-contracts/contracts/metatx/ERC2771Forwarder.sol\":8218:8275  ERC2771ForwarderMismatchedValue(requestsValue, msg.value) */\n      dup2\n      mstore\n        /* \"src/Dummy.sol\":158:439  contract Dummy is ERC2771Context, ERC2771Forwarder {... */\n      0x04\n        /* \"lib/openzeppelin-contracts/contracts/metatx/ERC2771Forwarder.sol\":8218:8275  ERC2771ForwarderMismatchedValue(requestsValue, msg.value) */\n      dup2\n      add\n        /* \"src/Dummy.sol\":158:439  contract Dummy is ERC2771Context, ERC2771Forwarder {... */\n      swap2\n      swap1\n      swap2\n      mstore\n        /* \"lib/openzeppelin-contracts/contracts/metatx/ERC2771Forwarder.sol\":8186:8195  msg.value */\n      callvalue\n        /* \"src/Dummy.sol\":158:439  contract Dummy is ERC2771Context, ERC2771Forwarder {... */\n      0x24\n      dup3\n      add\n      mstore\n      0x44\n      swap2\n      pop\n        /* \"lib/openzeppelin-contracts/contracts/metatx/ERC2771Forwarder.sol\":8218:8275  ERC2771ForwarderMismatchedValue(requestsValue, msg.value) */\n      revert\n    tag_137:\n      sub\n      swap1\n      revert\n        /* \"lib/openzeppelin-contracts/contracts/metatx/ERC2771Forwarder.sol\":7819:7822  ++i */\n    tag_130:\n        /* \"lib/openzeppelin-contracts/contracts/metatx/ERC2771Forwarder.sol\":7855:7866  requests[i] */\n      swap1\n      swap2\n      swap3\n      swap5\n        /* \"lib/openzeppelin-contracts/contracts/metatx/ERC2771Forwarder.sol\":7838:7872  requestsValue += requests[i].value */\n      tag_138\n        /* \"lib/openzeppelin-contracts/contracts/metatx/ERC2771Forwarder.sol\":7855:7866  requests[i] */\n      swap1\n      dup6\n      tag_139\n      dup9\n      dup7\n      dup7\n      tag_17\n      jump\t// in\n    tag_139:\n        /* \"lib/openzeppelin-contracts/contracts/metatx/ERC2771Forwarder.sol\":7855:7872  requests[i].value */\n      add\n        /* \"src/Dummy.sol\":158:439  contract Dummy is ERC2771Context, ERC2771Forwarder {... */\n      calldataload\n        /* \"lib/openzeppelin-contracts/contracts/metatx/ERC2771Forwarder.sol\":7838:7872  requestsValue += requests[i].value */\n      swap1\n      tag_18\n      jump\t// in\n    tag_138:\n        /* \"lib/openzeppelin-contracts/contracts/metatx/ERC2771Forwarder.sol\":7910:7921  requests[i] */\n      swap5\n        /* \"lib/openzeppelin-contracts/contracts/metatx/ERC2771Forwarder.sol\":7948:7956  !success */\n      tag_140\n        /* \"lib/openzeppelin-contracts/contracts/metatx/ERC2771Forwarder.sol\":7901:7930  _execute(requests[i], atomic) */\n      tag_141\n        /* \"lib/openzeppelin-contracts/contracts/metatx/ERC2771Forwarder.sol\":7910:7921  requests[i] */\n      dup6\n      tag_142\n      dup5\n      dup8\n      dup8\n      tag_17\n      jump\t// in\n    tag_142:\n        /* \"lib/openzeppelin-contracts/contracts/metatx/ERC2771Forwarder.sol\":7901:7930  _execute(requests[i], atomic) */\n      tag_35\n      jump\t// in\n    tag_141:\n        /* \"lib/openzeppelin-contracts/contracts/metatx/ERC2771Forwarder.sol\":7948:7956  !success */\n      iszero\n      swap1\n        /* \"src/Dummy.sol\":158:439  contract Dummy is ERC2771Context, ERC2771Forwarder {... */\n      jump\n        /* \"lib/openzeppelin-contracts/contracts/metatx/ERC2771Forwarder.sol\":7948:7956  !success */\n    tag_140:\n        /* \"lib/openzeppelin-contracts/contracts/metatx/ERC2771Forwarder.sol\":7944:8023  if (!success) {... */\n      tag_143\n      jumpi\n        /* \"lib/openzeppelin-contracts/contracts/metatx/ERC2771Forwarder.sol\":7819:7822  ++i */\n    tag_144:\n      tag_145\n      swap1\n      tag_16\n      jump\t// in\n    tag_145:\n        /* \"lib/openzeppelin-contracts/contracts/metatx/ERC2771Forwarder.sol\":7787:7796  uint256 i */\n      swap3\n      swap2\n      swap1\n      jump(tag_129)\n        /* \"lib/openzeppelin-contracts/contracts/metatx/ERC2771Forwarder.sol\":7944:8023  if (!success) {... */\n    tag_143:\n        /* \"lib/openzeppelin-contracts/contracts/metatx/ERC2771Forwarder.sol\":7991:8002  requests[i] */\n      swap6\n        /* \"lib/openzeppelin-contracts/contracts/metatx/ERC2771Forwarder.sol\":7976:8008  refundValue += requests[i].value */\n      tag_146\n        /* \"lib/openzeppelin-contracts/contracts/metatx/ERC2771Forwarder.sol\":7819:7822  ++i */\n      tag_145\n        /* \"lib/openzeppelin-contracts/contracts/metatx/ERC2771Forwarder.sol\":7991:8002  requests[i] */\n      swap2\n      dup7\n      tag_139\n      dup11\n      dup8\n      dup8\n      tag_17\n      jump\t// in\n        /* \"lib/openzeppelin-contracts/contracts/metatx/ERC2771Forwarder.sol\":7976:8008  refundValue += requests[i].value */\n    tag_146:\n        /* \"lib/openzeppelin-contracts/contracts/metatx/ERC2771Forwarder.sol\":7944:8023  if (!success) {... */\n      swap7\n      swap1\n      pop\n      jump(tag_144)\n        /* \"src/Dummy.sol\":158:439  contract Dummy is ERC2771Context, ERC2771Forwarder {... */\n    tag_13:\n      tag_148\n      calldatasize\n      tag_1\n      jump\t// in\n    tag_148:\n        /* \"lib/openzeppelin-contracts/contracts/metatx/ERC2771Forwarder.sol\":5911:5924  request.value */\n      0x40\n      swap1\n      dup2\n      dup2\n      add\n        /* \"src/Dummy.sol\":158:439  contract Dummy is ERC2771Context, ERC2771Forwarder {... */\n      calldataload\n        /* \"lib/openzeppelin-contracts/contracts/metatx/ERC2771Forwarder.sol\":5898:5907  msg.value */\n      dup1\n      callvalue\n        /* \"lib/openzeppelin-contracts/contracts/metatx/ERC2771Forwarder.sol\":5898:5924  msg.value != request.value */\n      sub\n        /* \"lib/openzeppelin-contracts/contracts/metatx/ERC2771Forwarder.sol\":5894:6015  if (msg.value != request.value) {... */\n      tag_149\n      jumpi\n      0x00\n        /* \"lib/openzeppelin-contracts/contracts/metatx/ERC2771Forwarder.sol\":11237:11255  _validate(request) */\n      swap2\n      tag_151\n      dup2\n      tag_21\n      jump\t// in\n    tag_151:\n        /* \"lib/openzeppelin-contracts/contracts/metatx/ERC2771Forwarder.sol\":11492:11511  !isTrustedForwarder */\n      swap3\n      swap2\n      swap1\n      dup3\n      iszero\n        /* \"lib/openzeppelin-contracts/contracts/metatx/ERC2771Forwarder.sol\":11488:11603  if (!isTrustedForwarder) {... */\n      tag_152\n      jumpi\n        /* \"lib/openzeppelin-contracts/contracts/metatx/ERC2771Forwarder.sol\":11621:11628  !active */\n      dup2\n      iszero\n        /* \"lib/openzeppelin-contracts/contracts/metatx/ERC2771Forwarder.sol\":11617:11718  if (!active) {... */\n      tag_154\n      jumpi\n        /* \"lib/openzeppelin-contracts/contracts/metatx/ERC2771Forwarder.sol\":11736:11748  !signerMatch */\n      dup1\n      iszero\n        /* \"lib/openzeppelin-contracts/contracts/metatx/ERC2771Forwarder.sol\":11732:11841  if (!signerMatch) {... */\n      tag_156\n      jumpi\n        /* \"lib/openzeppelin-contracts/contracts/metatx/ERC2771Forwarder.sol\":11938:11971  isTrustedForwarder && signerMatch */\n      dup3\n      tag_158\n      jumpi\n        /* \"src/Dummy.sol\":158:439  contract Dummy is ERC2771Context, ERC2771Forwarder {... */\n    tag_159:\n        /* \"lib/openzeppelin-contracts/contracts/metatx/ERC2771Forwarder.sol\":11938:11981  isTrustedForwarder && signerMatch && active */\n      pop\n      dup2\n      tag_160\n      jumpi\n        /* \"src/Dummy.sol\":158:439  contract Dummy is ERC2771Context, ERC2771Forwarder {... */\n    tag_161:\n        /* \"lib/openzeppelin-contracts/contracts/metatx/ERC2771Forwarder.sol\":11934:12646  if (isTrustedForwarder && signerMatch && active) {... */\n      pop\n      tag_162\n      jumpi\n        /* \"src/Dummy.sol\":158:439  contract Dummy is ERC2771Context, ERC2771Forwarder {... */\n    tag_163:\n        /* \"lib/openzeppelin-contracts/contracts/metatx/ERC2771Forwarder.sol\":6029:6053  !_execute(request, true) */\n      pop\n      pop\n      pop\n      iszero\n        /* \"lib/openzeppelin-contracts/contracts/metatx/ERC2771Forwarder.sol\":6025:6112  if (!_execute(request, true)) {... */\n      tag_164\n      jumpi\n        /* \"src/Dummy.sol\":158:439  contract Dummy is ERC2771Context, ERC2771Forwarder {... */\n      stop\n        /* \"lib/openzeppelin-contracts/contracts/metatx/ERC2771Forwarder.sol\":6025:6112  if (!_execute(request, true)) {... */\n    tag_164:\n        /* \"src/Dummy.sol\":158:439  contract Dummy is ERC2771Context, ERC2771Forwarder {... */\n      mload\n      shl(0xe1, 0x0a12f521)\n        /* \"lib/openzeppelin-contracts/contracts/metatx/ERC2771Forwarder.sol\":6076:6101  Address.FailedInnerCall() */\n      dup2\n      mstore\n        /* \"src/Dummy.sol\":158:439  contract Dummy is ERC2771Context, ERC2771Forwarder {... */\n      0x04\n      swap1\n        /* \"lib/openzeppelin-contracts/contracts/metatx/ERC2771Forwarder.sol\":6076:6101  Address.FailedInnerCall() */\n      revert\n        /* \"lib/openzeppelin-contracts/contracts/metatx/ERC2771Forwarder.sol\":11934:12646  if (isTrustedForwarder && signerMatch && active) {... */\n    tag_162:\n      sub(shl(0xa0, 0x01), 0x01)\n        /* \"src/Dummy.sol\":158:439  contract Dummy is ERC2771Context, ERC2771Forwarder {... */\n      dup2\n      and\n      0x00\n      swap1\n      dup2\n      mstore\n        /* \"lib/openzeppelin-contracts/contracts/utils/Nonces.sol\":1121:1128  _nonces */\n      0x02\n        /* \"src/Dummy.sol\":158:439  contract Dummy is ERC2771Context, ERC2771Forwarder {... */\n      0x20\n      mstore\n      0x40\n      swap1\n      keccak256\n      dup1\n      sload\n      0x01\n      dup2\n      add\n      swap1\n      swap2\n      sstore\n        /* \"lib/openzeppelin-contracts/contracts/metatx/ERC2771Forwarder.sol\":12554:12561  request */\n      tag_166\n      swap5\n        /* \"lib/openzeppelin-contracts/contracts/metatx/ERC2771Forwarder.sol\":12582:12635  ExecutedForwardRequest(signer, currentNonce, success) */\n      0x842fb24a83793558587a3dab2be7674da4a51d09c5542d6dd354e5d0ea70813c\n      swap4\n        /* \"lib/openzeppelin-contracts/contracts/metatx/ERC2771Forwarder.sol\":12105:12122  _useNonce(signer) */\n      swap3\n      swap2\n      dup2\n      swap1\n        /* \"lib/openzeppelin-contracts/contracts/metatx/ERC2771Forwarder.sol\":12192:12202  request.to */\n      swap6\n        /* \"lib/openzeppelin-contracts/contracts/metatx/ERC2771Forwarder.sol\":12279:12323  abi.encodePacked(request.data, request.from) */\n      tag_168\n        /* \"lib/openzeppelin-contracts/contracts/metatx/ERC2771Forwarder.sol\":12192:12202  request.to */\n      tag_169\n      0x20\n      dup8\n      add\n      tag_19\n      jump\t// in\n    tag_169:\n        /* \"lib/openzeppelin-contracts/contracts/metatx/ERC2771Forwarder.sol\":12296:12308  request.data */\n      swap2\n      dup11\n      tag_170\n      0xa0\n      dup10\n      add\n      dup10\n      tag_22\n      jump\t// in\n    tag_170:\n        /* \"lib/openzeppelin-contracts/contracts/metatx/ERC2771Forwarder.sol\":12279:12323  abi.encodePacked(request.data, request.from) */\n      tag_171\n        /* \"lib/openzeppelin-contracts/contracts/metatx/ERC2771Forwarder.sol\":12310:12322  request.from */\n      tag_172\n      dup12\n      swap7\n      swap4\n      swap7\n      tag_19\n      jump\t// in\n    tag_172:\n        /* \"src/Dummy.sol\":158:439  contract Dummy is ERC2771Context, ERC2771Forwarder {... */\n      swap4\n      mload\n        /* \"lib/openzeppelin-contracts/contracts/metatx/ERC2771Forwarder.sol\":12279:12323  abi.encodePacked(request.data, request.from) */\n      swap4\n      dup5\n      swap3\n        /* \"lib/openzeppelin-contracts/contracts/metatx/ERC2771Forwarder.sol\":12192:12202  request.to */\n      0x20\n        /* \"lib/openzeppelin-contracts/contracts/metatx/ERC2771Forwarder.sol\":12279:12323  abi.encodePacked(request.data, request.from) */\n      dup5\n      add\n      swap8\n      dup9\n      tag_33\n      jump\t// in\n    tag_171:\n      sub\n        /* \"src/Dummy.sol\":158:439  contract Dummy is ERC2771Context, ERC2771Forwarder {... */\n      not(0x1f)\n        /* \"lib/openzeppelin-contracts/contracts/metatx/ERC2771Forwarder.sol\":12279:12323  abi.encodePacked(request.data, request.from) */\n      dup2\n      add\n      dup4\n      mstore\n      dup3\n      tag_26\n      jump\t// in\n    tag_168:\n        /* \"lib/openzeppelin-contracts/contracts/metatx/ERC2771Forwarder.sol\":12368:12512  assembly {... */\n      mload\n        /* \"lib/openzeppelin-contracts/contracts/metatx/ERC2771Forwarder.sol\":12154:12165  request.gas */\n      swap3\n      0x60\n      dup9\n      add\n        /* \"src/Dummy.sol\":158:439  contract Dummy is ERC2771Context, ERC2771Forwarder {... */\n      calldataload\n        /* \"lib/openzeppelin-contracts/contracts/metatx/ERC2771Forwarder.sol\":12368:12512  assembly {... */\n      call\n      swap5\n      dup6\n      swap3\n      gas\n        /* \"lib/openzeppelin-contracts/contracts/metatx/ERC2771Forwarder.sol\":12554:12561  request */\n      tag_37\n      jump\t// in\n    tag_166:\n        /* \"src/Dummy.sol\":158:439  contract Dummy is ERC2771Context, ERC2771Forwarder {... */\n      dup6\n      mload\n      swap4\n      dup5\n      mstore\n      swap1\n      iszero\n      iszero\n      0x20\n      dup5\n      add\n      mstore\n      sub(shl(0xa0, 0x01), 0x01)\n      and\n      swap2\n      0x40\n      swap1\n        /* \"lib/openzeppelin-contracts/contracts/metatx/ERC2771Forwarder.sol\":12582:12635  ExecutedForwardRequest(signer, currentNonce, success) */\n      log2\n        /* \"lib/openzeppelin-contracts/contracts/metatx/ERC2771Forwarder.sol\":11934:12646  if (isTrustedForwarder && signerMatch && active) {... */\n      0x00\n      dup1\n      dup1\n      jump(tag_163)\n        /* \"lib/openzeppelin-contracts/contracts/metatx/ERC2771Forwarder.sol\":11938:11981  isTrustedForwarder && signerMatch && active */\n    tag_160:\n      swap1\n      pop\n      0x00\n      jump(tag_161)\n        /* \"lib/openzeppelin-contracts/contracts/metatx/ERC2771Forwarder.sol\":11938:11971  isTrustedForwarder && signerMatch */\n    tag_158:\n      swap2\n      pop\n      0x00\n      jump(tag_159)\n        /* \"lib/openzeppelin-contracts/contracts/metatx/ERC2771Forwarder.sol\":11732:11841  if (!signerMatch) {... */\n    tag_156:\n        /* \"lib/openzeppelin-contracts/contracts/metatx/ERC2771Forwarder.sol\":11813:11825  request.from */\n      dup8\n      dup5\n        /* \"lib/openzeppelin-contracts/contracts/metatx/ERC2771Forwarder.sol\":11775:11826  ERC2771ForwarderInvalidSigner(signer, request.from) */\n      tag_137\n        /* \"lib/openzeppelin-contracts/contracts/metatx/ERC2771Forwarder.sol\":11813:11825  request.from */\n      tag_175\n      dup9\n      tag_19\n      jump\t// in\n    tag_175:\n        /* \"src/Dummy.sol\":158:439  contract Dummy is ERC2771Context, ERC2771Forwarder {... */\n      swap3\n      mload\n      shl(0xe1, 0x6422d02b)\n        /* \"lib/openzeppelin-contracts/contracts/metatx/ERC2771Forwarder.sol\":11775:11826  ERC2771ForwarderInvalidSigner(signer, request.from) */\n      dup2\n      mstore\n      sub(shl(0xa0, 0x01), 0x01)\n        /* \"src/Dummy.sol\":158:439  contract Dummy is ERC2771Context, ERC2771Forwarder {... */\n      swap3\n      dup4\n      and\n        /* \"lib/openzeppelin-contracts/contracts/metatx/ERC2771Forwarder.sol\":11775:11826  ERC2771ForwarderInvalidSigner(signer, request.from) */\n      0x04\n      dup3\n      add\n        /* \"src/Dummy.sol\":158:439  contract Dummy is ERC2771Context, ERC2771Forwarder {... */\n      mstore\n      swap2\n      swap1\n      swap3\n      and\n      0x24\n      dup3\n      add\n      mstore\n      swap1\n      dup2\n      swap1\n      0x44\n      dup3\n      add\n      swap1\n      jump\n        /* \"lib/openzeppelin-contracts/contracts/metatx/ERC2771Forwarder.sol\":11617:11718  if (!active) {... */\n    tag_154:\n        /* \"lib/openzeppelin-contracts/contracts/metatx/ERC2771Forwarder.sol\":11655:11703  ERC2771ForwarderExpiredRequest(request.deadline) */\n      tag_137\n        /* \"lib/openzeppelin-contracts/contracts/metatx/ERC2771Forwarder.sol\":11686:11702  request.deadline */\n      dup9\n      tag_177\n      0x80\n      dup9\n      add\n      tag_20\n      jump\t// in\n    tag_177:\n        /* \"src/Dummy.sol\":158:439  contract Dummy is ERC2771Context, ERC2771Forwarder {... */\n      swap1\n      mload\n      shl(0xe1, 0x4a777ac5)\n        /* \"lib/openzeppelin-contracts/contracts/metatx/ERC2771Forwarder.sol\":11655:11703  ERC2771ForwarderExpiredRequest(request.deadline) */\n      dup2\n      mstore\n        /* \"src/Dummy.sol\":158:439  contract Dummy is ERC2771Context, ERC2771Forwarder {... */\n      0xffffffffffff\n      swap1\n      swap2\n      and\n        /* \"lib/openzeppelin-contracts/contracts/metatx/ERC2771Forwarder.sol\":11655:11703  ERC2771ForwarderExpiredRequest(request.deadline) */\n      0x04\n      dup3\n      add\n        /* \"lib/openzeppelin-contracts/contracts/metatx/ERC2771Forwarder.sol\":3070:3211  keccak256(... */\n      mstore\n        /* \"src/Dummy.sol\":158:439  contract Dummy is ERC2771Context, ERC2771Forwarder {... */\n      swap1\n      dup2\n      swap1\n      0x24\n      dup3\n      add\n      swap1\n      jump\n        /* \"lib/openzeppelin-contracts/contracts/metatx/ERC2771Forwarder.sol\":11488:11603  if (!isTrustedForwarder) {... */\n    tag_152:\n        /* \"lib/openzeppelin-contracts/contracts/metatx/ERC2771Forwarder.sol\":11538:11588  ERC2771UntrustfulTarget(request.to, address(this)) */\n      tag_137\n        /* \"lib/openzeppelin-contracts/contracts/metatx/ERC2771Forwarder.sol\":11562:11572  request.to */\n      dup9\n      tag_179\n      0x20\n      dup9\n      add\n      tag_19\n      jump\t// in\n    tag_179:\n        /* \"src/Dummy.sol\":158:439  contract Dummy is ERC2771Context, ERC2771Forwarder {... */\n      swap1\n      mload\n      shl(0xe0, 0xd2650cd1)\n        /* \"lib/openzeppelin-contracts/contracts/metatx/ERC2771Forwarder.sol\":11538:11588  ERC2771UntrustfulTarget(request.to, address(this)) */\n      dup2\n      mstore\n      sub(shl(0xa0, 0x01), 0x01)\n        /* \"src/Dummy.sol\":158:439  contract Dummy is ERC2771Context, ERC2771Forwarder {... */\n      swap1\n      swap2\n      and\n        /* \"lib/openzeppelin-contracts/contracts/metatx/ERC2771Forwarder.sol\":11538:11588  ERC2771UntrustfulTarget(request.to, address(this)) */\n      0x04\n      dup3\n      add\n        /* \"src/Dummy.sol\":158:439  contract Dummy is ERC2771Context, ERC2771Forwarder {... */\n      mstore\n        /* \"lib/openzeppelin-contracts/contracts/metatx/ERC2771Forwarder.sol\":11582:11586  this */\n      address\n        /* \"src/Dummy.sol\":158:439  contract Dummy is ERC2771Context, ERC2771Forwarder {... */\n      0x24\n      dup3\n      add\n      mstore\n      swap1\n      dup2\n      swap1\n      0x44\n      dup3\n      add\n      swap1\n      jump\n        /* \"lib/openzeppelin-contracts/contracts/metatx/ERC2771Forwarder.sol\":5894:6015  if (msg.value != request.value) {... */\n    tag_149:\n        /* \"src/Dummy.sol\":158:439  contract Dummy is ERC2771Context, ERC2771Forwarder {... */\n      dup3\n      mload\n      shl(0xe0, 0x70647f79)\n        /* \"lib/openzeppelin-contracts/contracts/metatx/ERC2771Forwarder.sol\":5947:6004  ERC2771ForwarderMismatchedValue(request.value, msg.value) */\n      dup2\n      mstore\n        /* \"src/Dummy.sol\":158:439  contract Dummy is ERC2771Context, ERC2771Forwarder {... */\n      0x04\n        /* \"lib/openzeppelin-contracts/contracts/metatx/ERC2771Forwarder.sol\":5947:6004  ERC2771ForwarderMismatchedValue(request.value, msg.value) */\n      dup2\n      add\n        /* \"src/Dummy.sol\":158:439  contract Dummy is ERC2771Context, ERC2771Forwarder {... */\n      swap2\n      swap1\n      swap2\n      mstore\n        /* \"lib/openzeppelin-contracts/contracts/metatx/ERC2771Forwarder.sol\":5898:5907  msg.value */\n      callvalue\n        /* \"src/Dummy.sol\":158:439  contract Dummy is ERC2771Context, ERC2771Forwarder {... */\n      0x24\n      dup3\n      add\n      mstore\n      0x44\n      swap1\n        /* \"lib/openzeppelin-contracts/contracts/metatx/ERC2771Forwarder.sol\":8218:8275  ERC2771ForwarderMismatchedValue(requestsValue, msg.value) */\n      revert\n        /* \"src/Dummy.sol\":158:439  contract Dummy is ERC2771Context, ERC2771Forwarder {... */\n    tag_15:\n      mstore(0x00, shl(0xe0, 0x4e487b71))\n      mstore(0x04, 0x11)\n      revert(0x00, 0x24)\n    tag_16:\n      not(0x00)\n      dup2\n      eq\n      tag_181\n      jumpi\n      0x01\n      add\n      swap1\n      jump\t// out\n    tag_181:\n      tag_15\n      jump\t// in\n    tag_17:\n      swap2\n      swap1\n      dup2\n      lt\n      iszero\n      tag_183\n      jumpi\n      0x05\n      shl\n      dup2\n      add\n      calldataload\n      swap1\n      not(0xde)\n      dup2\n      calldatasize\n      sub\n      add\n      dup3\n      slt\n      iszero\n      tag_68\n      jumpi\n      add\n      swap1\n      jump\t// out\n    tag_183:\n      mstore(0x00, shl(0xe0, 0x4e487b71))\n      mstore(0x04, 0x32)\n      revert(0x00, 0x24)\n    tag_18:\n      swap2\n      swap1\n      dup3\n      add\n      dup1\n      swap3\n      gt\n      tag_181\n      jumpi\n      jump\t// out\n    tag_19:\n      calldataload\n      tag_189\n      dup2\n      tag_5\n      jump\t// in\n    tag_189:\n      swap1\n      jump\t// out\n    tag_20:\n      calldataload\n      0xffffffffffff\n      dup2\n      and\n      dup2\n      sub\n      tag_68\n      jumpi\n      swap1\n      jump\t// out\n        /* \"lib/openzeppelin-contracts/contracts/metatx/ERC2771Forwarder.sol\":8967:9424  function _validate(... */\n    tag_21:\n      swap1\n        /* \"lib/openzeppelin-contracts/contracts/metatx/ERC2771Forwarder.sol\":9274:9284  request.to */\n      tag_192\n        /* \"src/Dummy.sol\":158:439  contract Dummy is ERC2771Context, ERC2771Forwarder {... */\n      dup3\n      calldataload\n      swap2\n      tag_193\n      dup4\n      tag_5\n      jump\t// in\n    tag_193:\n        /* \"lib/openzeppelin-contracts/contracts/metatx/ERC2771Forwarder.sol\":10079:10089  request.to */\n      0x20\n      dup5\n      add\n        /* \"src/Dummy.sol\":158:439  contract Dummy is ERC2771Context, ERC2771Forwarder {... */\n      swap3\n        /* \"lib/openzeppelin-contracts/contracts/metatx/ERC2771Forwarder.sol\":9299:9315  request.deadline */\n      tag_194\n        /* \"lib/openzeppelin-contracts/contracts/metatx/ERC2771Forwarder.sol\":9255:9285  _isTrustedByTarget(request.to) */\n      tag_195\n        /* \"lib/openzeppelin-contracts/contracts/metatx/ERC2771Forwarder.sol\":9909:10354  _hashTypedDataV4(... */\n      tag_196\n        /* \"lib/openzeppelin-contracts/contracts/metatx/ERC2771Forwarder.sol\":9909:10324  _hashTypedDataV4(... */\n      tag_197\n        /* \"src/Dummy.sol\":158:439  contract Dummy is ERC2771Context, ERC2771Forwarder {... */\n      dup8\n      calldataload\n      tag_198\n      dup2\n      tag_5\n      jump\t// in\n    tag_198:\n        /* \"lib/openzeppelin-contracts/contracts/metatx/ERC2771Forwarder.sol\":10186:10198  request.from */\n      dup10\n        /* \"lib/openzeppelin-contracts/contracts/metatx/ERC2771Forwarder.sol\":9966:10300  abi.encode(... */\n      tag_199\n        /* \"lib/openzeppelin-contracts/contracts/metatx/ERC2771Forwarder.sol\":10179:10199  nonces(request.from) */\n      tag_200\n        /* \"lib/openzeppelin-contracts/contracts/metatx/ERC2771Forwarder.sol\":10186:10198  request.from */\n      tag_102\n      dup4\n      tag_19\n      jump\t// in\n        /* \"lib/openzeppelin-contracts/contracts/metatx/ERC2771Forwarder.sol\":10179:10199  nonces(request.from) */\n    tag_200:\n        /* \"lib/openzeppelin-contracts/contracts/metatx/ERC2771Forwarder.sol\":10221:10237  request.deadline */\n      swap8\n        /* \"lib/openzeppelin-contracts/contracts/metatx/ERC2771Forwarder.sol\":9966:10300  abi.encode(... */\n      tag_171\n        /* \"lib/openzeppelin-contracts/contracts/metatx/ERC2771Forwarder.sol\":10221:10237  request.deadline */\n      0x80\n      dup5\n      add\n      swap10\n      tag_203\n      dup12\n      tag_20\n      jump\t// in\n    tag_203:\n        /* \"lib/openzeppelin-contracts/contracts/metatx/ERC2771Forwarder.sol\":3070:3211  keccak256(... */\n      tag_204\n        /* \"lib/openzeppelin-contracts/contracts/metatx/ERC2771Forwarder.sol\":10269:10281  request.data */\n      tag_205\n      0xa0\n      dup9\n      add\n      dup9\n      tag_22\n      jump\t// in\n    tag_205:\n        /* \"lib/openzeppelin-contracts/contracts/metatx/ERC2771Forwarder.sol\":3070:3211  keccak256(... */\n      calldatasize\n      swap2\n      tag_28\n      jump\t// in\n    tag_204:\n        /* \"lib/openzeppelin-contracts/contracts/metatx/ERC2771Forwarder.sol\":10079:10089  request.to */\n      0x20\n        /* \"src/Dummy.sol\":158:439  contract Dummy is ERC2771Context, ERC2771Forwarder {... */\n      dup2\n      mload\n      swap2\n      add\n        /* \"lib/openzeppelin-contracts/contracts/metatx/ERC2771Forwarder.sol\":10259:10282  keccak256(request.data) */\n      keccak256\n        /* \"src/Dummy.sol\":158:439  contract Dummy is ERC2771Context, ERC2771Forwarder {... */\n      swap2\n        /* \"lib/openzeppelin-contracts/contracts/metatx/ERC2771Forwarder.sol\":10111:10124  request.value */\n      0x40\n        /* \"src/Dummy.sol\":158:439  contract Dummy is ERC2771Context, ERC2771Forwarder {... */\n      mload\n        /* \"lib/openzeppelin-contracts/contracts/metatx/ERC2771Forwarder.sol\":9966:10300  abi.encode(... */\n      swap7\n      dup8\n      swap6\n        /* \"lib/openzeppelin-contracts/contracts/metatx/ERC2771Forwarder.sol\":10079:10089  request.to */\n      0x20\n        /* \"lib/openzeppelin-contracts/contracts/metatx/ERC2771Forwarder.sol\":9966:10300  abi.encode(... */\n      dup8\n      add\n        /* \"lib/openzeppelin-contracts/contracts/metatx/ERC2771Forwarder.sol\":10146:10157  request.gas */\n      swap10\n        /* \"lib/openzeppelin-contracts/contracts/metatx/ERC2771Forwarder.sol\":10111:10124  request.value */\n      0x40\n        /* \"lib/openzeppelin-contracts/contracts/metatx/ERC2771Forwarder.sol\":10146:10157  request.gas */\n      0x60\n      dup5\n      add\n        /* \"src/Dummy.sol\":158:439  contract Dummy is ERC2771Context, ERC2771Forwarder {... */\n      calldataload\n        /* \"lib/openzeppelin-contracts/contracts/metatx/ERC2771Forwarder.sol\":10111:10124  request.value */\n      swap4\n      add\n        /* \"src/Dummy.sol\":158:439  contract Dummy is ERC2771Context, ERC2771Forwarder {... */\n      calldataload\n        /* \"lib/openzeppelin-contracts/contracts/metatx/ERC2771Forwarder.sol\":9966:10300  abi.encode(... */\n      swap2\n      dup12\n        /* \"lib/openzeppelin-contracts/contracts/metatx/ERC2771Forwarder.sol\":3070:3211  keccak256(... */\n      swap4\n        /* \"src/Dummy.sol\":158:439  contract Dummy is ERC2771Context, ERC2771Forwarder {... */\n      0xffffffffffff\n        /* \"lib/openzeppelin-contracts/contracts/metatx/ERC2771Forwarder.sol\":3070:3211  keccak256(... */\n      swap4\n      0xe0\n      swap7\n      swap3\n      swap10\n      swap9\n      swap8\n      swap4\n      swap10\n      0x0100\n      dup8\n      add\n        /* \"src/Dummy.sol\":158:439  contract Dummy is ERC2771Context, ERC2771Forwarder {... */\n      swap11\n        /* \"lib/openzeppelin-contracts/contracts/metatx/ERC2771Forwarder.sol\":3070:3211  keccak256(... */\n      0x7f96328b83274ebc7c1cf4f7a3abda602b51a78b7fa1d86a2ce353d75e587cac\n        /* \"src/Dummy.sol\":158:439  contract Dummy is ERC2771Context, ERC2771Forwarder {... */\n      dup9\n      mstore\n      0x01\n      dup1\n      0xa0\n      shl\n      sub\n      dup1\n      swap3\n      and\n        /* \"lib/openzeppelin-contracts/contracts/metatx/ERC2771Forwarder.sol\":3070:3211  keccak256(... */\n      0x20\n      dup10\n      add\n        /* \"src/Dummy.sol\":158:439  contract Dummy is ERC2771Context, ERC2771Forwarder {... */\n      mstore\n      and\n        /* \"lib/openzeppelin-contracts/contracts/metatx/ERC2771Forwarder.sol\":3070:3211  keccak256(... */\n      0x40\n      dup8\n      add\n        /* \"src/Dummy.sol\":158:439  contract Dummy is ERC2771Context, ERC2771Forwarder {... */\n      mstore\n        /* \"lib/openzeppelin-contracts/contracts/metatx/ERC2771Forwarder.sol\":3070:3211  keccak256(... */\n      0x60\n      dup7\n      add\n        /* \"src/Dummy.sol\":158:439  contract Dummy is ERC2771Context, ERC2771Forwarder {... */\n      mstore\n        /* \"lib/openzeppelin-contracts/contracts/metatx/ERC2771Forwarder.sol\":3070:3211  keccak256(... */\n      0x80\n      dup6\n      add\n        /* \"src/Dummy.sol\":158:439  contract Dummy is ERC2771Context, ERC2771Forwarder {... */\n      mstore\n      0xa0\n        /* \"lib/openzeppelin-contracts/contracts/metatx/ERC2771Forwarder.sol\":3070:3211  keccak256(... */\n      dup5\n      add\n        /* \"src/Dummy.sol\":158:439  contract Dummy is ERC2771Context, ERC2771Forwarder {... */\n      mstore\n      and\n        /* \"lib/openzeppelin-contracts/contracts/metatx/ERC2771Forwarder.sol\":3070:3211  keccak256(... */\n      0xc0\n      dup3\n      add\n      mstore\n      add\n        /* \"src/Dummy.sol\":158:439  contract Dummy is ERC2771Context, ERC2771Forwarder {... */\n      mstore\n        /* \"lib/openzeppelin-contracts/contracts/metatx/ERC2771Forwarder.sol\":3070:3211  keccak256(... */\n      jump\n        /* \"lib/openzeppelin-contracts/contracts/metatx/ERC2771Forwarder.sol\":9966:10300  abi.encode(... */\n    tag_199:\n        /* \"src/Dummy.sol\":158:439  contract Dummy is ERC2771Context, ERC2771Forwarder {... */\n      mload\n        /* \"lib/openzeppelin-contracts/contracts/metatx/ERC2771Forwarder.sol\":9939:10314  keccak256(... */\n      swap1\n      keccak256\n        /* \"lib/openzeppelin-contracts/contracts/metatx/ERC2771Forwarder.sol\":9909:10324  _hashTypedDataV4(... */\n      tag_43\n      jump\t// in\n    tag_197:\n        /* \"lib/openzeppelin-contracts/contracts/metatx/ERC2771Forwarder.sol\":3070:3211  keccak256(... */\n      tag_206\n        /* \"lib/openzeppelin-contracts/contracts/metatx/ERC2771Forwarder.sol\":10336:10353  request.signature */\n      tag_205\n      0xc0\n      dup12\n      add\n      dup12\n      tag_22\n      jump\t// in\n        /* \"lib/openzeppelin-contracts/contracts/metatx/ERC2771Forwarder.sol\":3070:3211  keccak256(... */\n    tag_206:\n        /* \"lib/openzeppelin-contracts/contracts/metatx/ERC2771Forwarder.sol\":9909:10354  _hashTypedDataV4(... */\n      swap1\n      tag_41\n      jump\t// in\n    tag_196:\n        /* \"lib/openzeppelin-contracts/contracts/metatx/ERC2771Forwarder.sol\":3070:3211  keccak256(... */\n      pop\n      tag_208\n      dup2\n      swap8\n      swap3\n      swap8\n      tag_30\n      jump\t// in\n    tag_208:\n        /* \"lib/openzeppelin-contracts/contracts/metatx/ERC2771Forwarder.sol\":10373:10406  err == ECDSA.RecoverError.NoError */\n      iszero\n        /* \"lib/openzeppelin-contracts/contracts/metatx/ERC2771Forwarder.sol\":9274:9284  request.to */\n      swap7\n      tag_19\n      jump\t// in\n    tag_192:\n        /* \"lib/openzeppelin-contracts/contracts/metatx/ERC2771Forwarder.sol\":9255:9285  _isTrustedByTarget(request.to) */\n      tag_36\n      jump\t// in\n    tag_195:\n        /* \"lib/openzeppelin-contracts/contracts/metatx/ERC2771Forwarder.sol\":9299:9315  request.deadline */\n      swap2\n      tag_20\n      jump\t// in\n    tag_194:\n        /* \"lib/openzeppelin-contracts/contracts/metatx/ERC2771Forwarder.sol\":9348:9384  isValid && recovered == request.from */\n      swap5\n      dup5\n      tag_209\n      jumpi\n        /* \"lib/openzeppelin-contracts/contracts/metatx/ERC2771Forwarder.sol\":8967:9424  function _validate(... */\n    tag_210:\n        /* \"lib/openzeppelin-contracts/contracts/metatx/ERC2771Forwarder.sol\":9234:9417  return (... */\n      pop\n        /* \"lib/openzeppelin-contracts/contracts/metatx/ERC2771Forwarder.sol\":9319:9334  block.timestamp */\n      swap4\n        /* \"src/Dummy.sol\":158:439  contract Dummy is ERC2771Context, ERC2771Forwarder {... */\n      0xffffffffffff\n        /* \"lib/openzeppelin-contracts/contracts/metatx/ERC2771Forwarder.sol\":9319:9334  block.timestamp */\n      timestamp\n        /* \"src/Dummy.sol\":158:439  contract Dummy is ERC2771Context, ERC2771Forwarder {... */\n      swap2\n      and\n        /* \"lib/openzeppelin-contracts/contracts/metatx/ERC2771Forwarder.sol\":9299:9334  request.deadline >= block.timestamp */\n      lt\n      iszero\n        /* \"lib/openzeppelin-contracts/contracts/metatx/ERC2771Forwarder.sol\":9234:9417  return (... */\n      swap3\n      swap2\n        /* \"lib/openzeppelin-contracts/contracts/metatx/ERC2771Forwarder.sol\":8967:9424  function _validate(... */\n      swap1\n      jump\t// out\n        /* \"lib/openzeppelin-contracts/contracts/metatx/ERC2771Forwarder.sol\":9348:9384  isValid && recovered == request.from */\n    tag_209:\n        /* \"lib/openzeppelin-contracts/contracts/metatx/ERC2771Forwarder.sol\":9359:9384  recovered == request.from */\n      tag_211\n        /* \"lib/openzeppelin-contracts/contracts/metatx/ERC2771Forwarder.sol\":9372:9384  request.from */\n      swap2\n      swap5\n      pop\n      tag_212\n      swap1\n      tag_19\n      jump\t// in\n    tag_212:\n      sub(shl(0xa0, 0x01), 0x01)\n        /* \"src/Dummy.sol\":158:439  contract Dummy is ERC2771Context, ERC2771Forwarder {... */\n      and\n      swap1\n      jump\n        /* \"lib/openzeppelin-contracts/contracts/metatx/ERC2771Forwarder.sol\":9359:9384  recovered == request.from */\n    tag_211:\n      sub(shl(0xa0, 0x01), 0x01)\n        /* \"src/Dummy.sol\":158:439  contract Dummy is ERC2771Context, ERC2771Forwarder {... */\n      dup4\n      and\n        /* \"lib/openzeppelin-contracts/contracts/metatx/ERC2771Forwarder.sol\":9359:9384  recovered == request.from */\n      eq\n      swap3\n        /* \"lib/openzeppelin-contracts/contracts/metatx/ERC2771Forwarder.sol\":9348:9384  isValid && recovered == request.from */\n      0x00\n      jump(tag_210)\n        /* \"lib/openzeppelin-contracts/contracts/metatx/ERC2771Forwarder.sol\":3070:3211  keccak256(... */\n    tag_22:\n      swap1\n      calldataload\n      swap1\n      not(0x1e)\n      dup2\n      calldatasize\n      sub\n      add\n      dup3\n      slt\n      iszero\n      tag_68\n      jumpi\n      add\n      dup1\n      calldataload\n      swap1\n      0xffffffffffffffff\n      dup3\n      gt\n      tag_68\n      jumpi\n      0x20\n      add\n      swap2\n      dup2\n      calldatasize\n      sub\n      dup4\n      sgt\n      tag_68\n      jumpi\n      jump\t// out\n    tag_23:\n        /* \"src/Dummy.sol\":158:439  contract Dummy is ERC2771Context, ERC2771Forwarder {... */\n      shl(0xe0, 0x4e487b71)\n        /* \"lib/openzeppelin-contracts/contracts/metatx/ERC2771Forwarder.sol\":3070:3211  keccak256(... */\n      0x00\n      mstore\n      mstore(0x04, 0x41)\n      revert(0x00, 0x24)\n    tag_24:\n        /* \"src/Dummy.sol\":158:439  contract Dummy is ERC2771Context, ERC2771Forwarder {... */\n      0x20\n        /* \"lib/openzeppelin-contracts/contracts/metatx/ERC2771Forwarder.sol\":3070:3211  keccak256(... */\n      dup2\n      add\n      swap1\n      dup2\n      lt\n      0xffffffffffffffff\n      dup3\n      gt\n      or\n      tag_219\n      jumpi\n      0x40\n      mstore\n      jump\t// out\n    tag_219:\n      tag_23\n      jump\t// in\n    tag_25:\n        /* \"lib/openzeppelin-contracts/contracts/utils/cryptography/EIP712.sol\":2079:2174  keccak256(\"EIP712Domain(string name,string version,uint256 chainId,address verifyingContract)\") */\n      0xc0\n        /* \"lib/openzeppelin-contracts/contracts/metatx/ERC2771Forwarder.sol\":3070:3211  keccak256(... */\n      dup2\n      add\n      swap1\n      dup2\n      lt\n      0xffffffffffffffff\n      dup3\n      gt\n      or\n      tag_219\n      jumpi\n      0x40\n      mstore\n      jump\t// out\n    tag_26:\n      swap1\n        /* \"src/Dummy.sol\":158:439  contract Dummy is ERC2771Context, ERC2771Forwarder {... */\n      0x1f\n      dup1\n      not\n      swap2\n      add\n      and\n        /* \"lib/openzeppelin-contracts/contracts/metatx/ERC2771Forwarder.sol\":3070:3211  keccak256(... */\n      dup2\n      add\n      swap1\n      dup2\n      lt\n      0xffffffffffffffff\n      dup3\n      gt\n      or\n      tag_219\n      jumpi\n      0x40\n      mstore\n      jump\t// out\n    tag_27:\n      0xffffffffffffffff\n      dup2\n      gt\n      tag_219\n      jumpi\n        /* \"src/Dummy.sol\":158:439  contract Dummy is ERC2771Context, ERC2771Forwarder {... */\n      0x1f\n      add\n      not(0x1f)\n      and\n        /* \"lib/openzeppelin-contracts/contracts/metatx/ERC2771Forwarder.sol\":3070:3211  keccak256(... */\n      0x20\n      add\n      swap1\n      jump\t// out\n    tag_28:\n      swap3\n      swap2\n      swap3\n      tag_227\n      dup3\n      tag_27\n      jump\t// in\n    tag_227:\n        /* \"src/Dummy.sol\":158:439  contract Dummy is ERC2771Context, ERC2771Forwarder {... */\n      swap2\n        /* \"lib/openzeppelin-contracts/contracts/metatx/ERC2771Forwarder.sol\":3070:3211  keccak256(... */\n      tag_228\n        /* \"src/Dummy.sol\":158:439  contract Dummy is ERC2771Context, ERC2771Forwarder {... */\n      mload(0x40)\n        /* \"lib/openzeppelin-contracts/contracts/metatx/ERC2771Forwarder.sol\":3070:3211  keccak256(... */\n      swap4\n      dup5\n      tag_26\n      jump\t// in\n    tag_228:\n      dup3\n      swap5\n      dup2\n      dup5\n      mstore\n      dup2\n      dup4\n      add\n      gt\n      tag_68\n      jumpi\n      dup3\n      dup2\n      0x20\n      swap4\n      dup5\n      0x00\n      swap7\n      add\n      calldatacopy\n      add\n      add\n      mstore\n      jump\t// out\n    tag_30:\n      0x04\n      gt\n      iszero\n      tag_231\n      jumpi\n      jump\t// out\n    tag_231:\n        /* \"src/Dummy.sol\":158:439  contract Dummy is ERC2771Context, ERC2771Forwarder {... */\n      shl(0xe0, 0x4e487b71)\n        /* \"lib/openzeppelin-contracts/contracts/metatx/ERC2771Forwarder.sol\":3070:3211  keccak256(... */\n      0x00\n      mstore\n      mstore(0x04, 0x21)\n      revert(0x00, 0x24)\n        /* \"src/Dummy.sol\":158:439  contract Dummy is ERC2771Context, ERC2771Forwarder {... */\n    tag_33:\n      dup3\n      0x14\n      swap5\n      swap4\n      swap3\n        /* \"lib/openzeppelin-contracts/contracts/metatx/ERC2771Forwarder.sol\":3070:3211  keccak256(... */\n      dup3\n      calldatacopy\n      add\n        /* \"src/Dummy.sol\":158:439  contract Dummy is ERC2771Context, ERC2771Forwarder {... */\n      swap1\n      not(0xffffffffffffffffffffffff)\n      swap1\n      0x60\n      shl\n      and\n      dup2\n      mstore\n      add\n      swap1\n      jump\t// out\n        /* \"lib/openzeppelin-contracts/contracts/metatx/ERC2771Forwarder.sol\":11009:12652  function _execute(... */\n    tag_35:\n      swap2\n      swap1\n        /* \"src/Dummy.sol\":158:439  contract Dummy is ERC2771Context, ERC2771Forwarder {... */\n      0x00\n        /* \"lib/openzeppelin-contracts/contracts/metatx/ERC2771Forwarder.sol\":11237:11255  _validate(request) */\n      swap3\n      tag_233\n      dup2\n      tag_21\n      jump\t// in\n    tag_233:\n        /* \"lib/openzeppelin-contracts/contracts/metatx/ERC2771Forwarder.sol\":11449:11851  if (requireValidRequest) {... */\n      swap5\n      tag_234\n      jumpi\n        /* \"lib/openzeppelin-contracts/contracts/metatx/ERC2771Forwarder.sol\":11009:12652  function _execute(... */\n    tag_235:\n        /* \"lib/openzeppelin-contracts/contracts/metatx/ERC2771Forwarder.sol\":11938:11971  isTrustedForwarder && signerMatch */\n      dup3\n      tag_236\n      jumpi\n        /* \"lib/openzeppelin-contracts/contracts/metatx/ERC2771Forwarder.sol\":11009:12652  function _execute(... */\n    tag_237:\n        /* \"lib/openzeppelin-contracts/contracts/metatx/ERC2771Forwarder.sol\":11938:11981  isTrustedForwarder && signerMatch && active */\n      pop\n      dup2\n      tag_238\n      jumpi\n        /* \"lib/openzeppelin-contracts/contracts/metatx/ERC2771Forwarder.sol\":11009:12652  function _execute(... */\n    tag_239:\n        /* \"lib/openzeppelin-contracts/contracts/metatx/ERC2771Forwarder.sol\":11934:12646  if (isTrustedForwarder && signerMatch && active) {... */\n      pop\n      tag_240\n      jumpi\n        /* \"lib/openzeppelin-contracts/contracts/metatx/ERC2771Forwarder.sol\":11009:12652  function _execute(... */\n      pop\n      pop\n      jump\t// out\n        /* \"lib/openzeppelin-contracts/contracts/metatx/ERC2771Forwarder.sol\":11934:12646  if (isTrustedForwarder && signerMatch && active) {... */\n    tag_240:\n      sub(shl(0xa0, 0x01), 0x01)\n        /* \"src/Dummy.sol\":158:439  contract Dummy is ERC2771Context, ERC2771Forwarder {... */\n      dup3\n      and\n      0x00\n      swap1\n      dup2\n      mstore\n        /* \"lib/openzeppelin-contracts/contracts/utils/Nonces.sol\":1121:1128  _nonces */\n      0x02\n        /* \"src/Dummy.sol\":158:439  contract Dummy is ERC2771Context, ERC2771Forwarder {... */\n      0x20\n      mstore\n      0x40\n      swap1\n      keccak256\n      dup1\n      sload\n      0x01\n      dup2\n      add\n      swap1\n      swap2\n      sstore\n        /* \"lib/openzeppelin-contracts/contracts/metatx/ERC2771Forwarder.sol\":12554:12561  request */\n      tag_242\n      swap5\n      pop\n        /* \"lib/openzeppelin-contracts/contracts/metatx/ERC2771Forwarder.sol\":12582:12635  ExecutedForwardRequest(signer, currentNonce, success) */\n      0x842fb24a83793558587a3dab2be7674da4a51d09c5542d6dd354e5d0ea70813c\n      swap2\n        /* \"lib/openzeppelin-contracts/contracts/metatx/ERC2771Forwarder.sol\":12105:12122  _useNonce(signer) */\n      swap1\n        /* \"lib/openzeppelin-contracts/contracts/metatx/ERC2771Forwarder.sol\":12192:12202  request.to */\n      swap3\n        /* \"src/Dummy.sol\":158:439  contract Dummy is ERC2771Context, ERC2771Forwarder {... */\n      0x00\n        /* \"lib/openzeppelin-contracts/contracts/metatx/ERC2771Forwarder.sol\":12192:12202  request.to */\n      dup1\n      tag_244\n      0x20\n      dup6\n      add\n      tag_19\n      jump\t// in\n    tag_244:\n        /* \"lib/openzeppelin-contracts/contracts/metatx/ERC2771Forwarder.sol\":12296:12308  request.data */\n      tag_245\n      0xa0\n      dup7\n      add\n      dup7\n      tag_22\n      jump\t// in\n    tag_245:\n        /* \"lib/openzeppelin-contracts/contracts/metatx/ERC2771Forwarder.sol\":12279:12323  abi.encodePacked(request.data, request.from) */\n      tag_246\n        /* \"lib/openzeppelin-contracts/contracts/metatx/ERC2771Forwarder.sol\":12310:12322  request.from */\n      tag_247\n      dup9\n      tag_19\n      jump\t// in\n    tag_247:\n        /* \"src/Dummy.sol\":158:439  contract Dummy is ERC2771Context, ERC2771Forwarder {... */\n      swap2\n        /* \"lib/openzeppelin-contracts/contracts/metatx/ERC2771Forwarder.sol\":12279:12323  abi.encodePacked(request.data, request.from) */\n      tag_171\n        /* \"lib/openzeppelin-contracts/contracts/metatx/ERC2771Forwarder.sol\":12232:12245  request.value */\n      0x40\n        /* \"src/Dummy.sol\":158:439  contract Dummy is ERC2771Context, ERC2771Forwarder {... */\n      mload\n        /* \"lib/openzeppelin-contracts/contracts/metatx/ERC2771Forwarder.sol\":12279:12323  abi.encodePacked(request.data, request.from) */\n      swap4\n      dup5\n      swap3\n        /* \"lib/openzeppelin-contracts/contracts/metatx/ERC2771Forwarder.sol\":12192:12202  request.to */\n      0x20\n        /* \"lib/openzeppelin-contracts/contracts/metatx/ERC2771Forwarder.sol\":12279:12323  abi.encodePacked(request.data, request.from) */\n      dup5\n      add\n      swap7\n      dup8\n      tag_33\n      jump\t// in\n    tag_246:\n        /* \"lib/openzeppelin-contracts/contracts/metatx/ERC2771Forwarder.sol\":12368:12512  assembly {... */\n      mload\n        /* \"lib/openzeppelin-contracts/contracts/metatx/ERC2771Forwarder.sol\":12232:12245  request.value */\n      swap2\n      0x40\n      dup8\n      add\n        /* \"src/Dummy.sol\":158:439  contract Dummy is ERC2771Context, ERC2771Forwarder {... */\n      calldataload\n        /* \"lib/openzeppelin-contracts/contracts/metatx/ERC2771Forwarder.sol\":12154:12165  request.gas */\n      swap1\n      0x60\n      dup9\n      add\n        /* \"src/Dummy.sol\":158:439  contract Dummy is ERC2771Context, ERC2771Forwarder {... */\n      calldataload\n        /* \"lib/openzeppelin-contracts/contracts/metatx/ERC2771Forwarder.sol\":12368:12512  assembly {... */\n      call\n      swap6\n      dup7\n      swap3\n      gas\n        /* \"lib/openzeppelin-contracts/contracts/metatx/ERC2771Forwarder.sol\":12554:12561  request */\n      tag_37\n      jump\t// in\n    tag_242:\n        /* \"lib/openzeppelin-contracts/contracts/metatx/ERC2771Forwarder.sol\":12232:12245  request.value */\n      0x40\n        /* \"src/Dummy.sol\":158:439  contract Dummy is ERC2771Context, ERC2771Forwarder {... */\n      dup1\n      mload\n      swap5\n      dup6\n      mstore\n      swap2\n      iszero\n      iszero\n      0x20\n      dup6\n      add\n      mstore\n      sub(shl(0xa0, 0x01), 0x01)\n      and\n      swap3\n        /* \"lib/openzeppelin-contracts/contracts/metatx/ERC2771Forwarder.sol\":12582:12635  ExecutedForwardRequest(signer, currentNonce, success) */\n      log2\n        /* \"lib/openzeppelin-contracts/contracts/metatx/ERC2771Forwarder.sol\":11009:12652  function _execute(... */\n      jump\t// out\n        /* \"lib/openzeppelin-contracts/contracts/metatx/ERC2771Forwarder.sol\":11938:11981  isTrustedForwarder && signerMatch && active */\n    tag_238:\n      swap1\n      pop\n      0x00\n      jump(tag_239)\n        /* \"lib/openzeppelin-contracts/contracts/metatx/ERC2771Forwarder.sol\":11938:11971  isTrustedForwarder && signerMatch */\n    tag_236:\n      swap2\n      pop\n      0x00\n      jump(tag_237)\n        /* \"lib/openzeppelin-contracts/contracts/metatx/ERC2771Forwarder.sol\":11449:11851  if (requireValidRequest) {... */\n    tag_234:\n        /* \"lib/openzeppelin-contracts/contracts/metatx/ERC2771Forwarder.sol\":11492:11511  !isTrustedForwarder */\n      dup3\n      iszero\n        /* \"lib/openzeppelin-contracts/contracts/metatx/ERC2771Forwarder.sol\":11488:11603  if (!isTrustedForwarder) {... */\n      tag_250\n      jumpi\n        /* \"lib/openzeppelin-contracts/contracts/metatx/ERC2771Forwarder.sol\":11621:11628  !active */\n      dup2\n      iszero\n        /* \"lib/openzeppelin-contracts/contracts/metatx/ERC2771Forwarder.sol\":11617:11718  if (!active) {... */\n      tag_252\n      jumpi\n        /* \"lib/openzeppelin-contracts/contracts/metatx/ERC2771Forwarder.sol\":11736:11748  !signerMatch */\n      dup1\n        /* \"lib/openzeppelin-contracts/contracts/metatx/ERC2771Forwarder.sol\":11449:11851  if (requireValidRequest) {... */\n      tag_235\n        /* \"lib/openzeppelin-contracts/contracts/metatx/ERC2771Forwarder.sol\":11732:11841  if (!signerMatch) {... */\n      jumpi\n        /* \"lib/openzeppelin-contracts/contracts/metatx/ERC2771Forwarder.sol\":11813:11825  request.from */\n      dup5\n      tag_256\n      dup6\n      tag_19\n      jump\t// in\n    tag_256:\n        /* \"src/Dummy.sol\":158:439  contract Dummy is ERC2771Context, ERC2771Forwarder {... */\n      mload(0x40)\n      shl(0xe1, 0x6422d02b)\n        /* \"lib/openzeppelin-contracts/contracts/metatx/ERC2771Forwarder.sol\":11775:11826  ERC2771ForwarderInvalidSigner(signer, request.from) */\n      dup2\n      mstore\n      sub(shl(0xa0, 0x01), 0x01)\n        /* \"src/Dummy.sol\":158:439  contract Dummy is ERC2771Context, ERC2771Forwarder {... */\n      swap3\n      dup4\n      and\n        /* \"lib/openzeppelin-contracts/contracts/metatx/ERC2771Forwarder.sol\":11775:11826  ERC2771ForwarderInvalidSigner(signer, request.from) */\n      0x04\n      dup3\n      add\n        /* \"src/Dummy.sol\":158:439  contract Dummy is ERC2771Context, ERC2771Forwarder {... */\n      mstore\n      swap2\n      and\n      0x24\n      dup3\n      add\n      mstore\n      0x44\n      swap1\n        /* \"lib/openzeppelin-contracts/contracts/metatx/ERC2771Forwarder.sol\":8218:8275  ERC2771ForwarderMismatchedValue(requestsValue, msg.value) */\n      revert\n        /* \"lib/openzeppelin-contracts/contracts/metatx/ERC2771Forwarder.sol\":11617:11718  if (!active) {... */\n    tag_252:\n        /* \"lib/openzeppelin-contracts/contracts/metatx/ERC2771Forwarder.sol\":11655:11703  ERC2771ForwarderExpiredRequest(request.deadline) */\n      tag_137\n        /* \"lib/openzeppelin-contracts/contracts/metatx/ERC2771Forwarder.sol\":11686:11702  request.deadline */\n      tag_259\n      0x80\n      dup7\n      add\n      tag_20\n      jump\t// in\n    tag_259:\n        /* \"src/Dummy.sol\":158:439  contract Dummy is ERC2771Context, ERC2771Forwarder {... */\n      mload(0x40)\n      shl(0xe1, 0x4a777ac5)\n        /* \"lib/openzeppelin-contracts/contracts/metatx/ERC2771Forwarder.sol\":11655:11703  ERC2771ForwarderExpiredRequest(request.deadline) */\n      dup2\n      mstore\n        /* \"src/Dummy.sol\":158:439  contract Dummy is ERC2771Context, ERC2771Forwarder {... */\n      0xffffffffffff\n      swap1\n      swap2\n      and\n        /* \"lib/openzeppelin-contracts/contracts/metatx/ERC2771Forwarder.sol\":11655:11703  ERC2771ForwarderExpiredRequest(request.deadline) */\n      0x04\n      dup3\n      add\n        /* \"lib/openzeppelin-contracts/contracts/metatx/ERC2771Forwarder.sol\":3070:3211  keccak256(... */\n      mstore\n        /* \"src/Dummy.sol\":158:439  contract Dummy is ERC2771Context, ERC2771Forwarder {... */\n      swap1\n      dup2\n      swap1\n      0x24\n      dup3\n      add\n      swap1\n      jump\n        /* \"lib/openzeppelin-contracts/contracts/metatx/ERC2771Forwarder.sol\":11488:11603  if (!isTrustedForwarder) {... */\n    tag_250:\n        /* \"lib/openzeppelin-contracts/contracts/metatx/ERC2771Forwarder.sol\":11538:11588  ERC2771UntrustfulTarget(request.to, address(this)) */\n      tag_137\n        /* \"lib/openzeppelin-contracts/contracts/metatx/ERC2771Forwarder.sol\":11562:11572  request.to */\n      tag_261\n      0x20\n      dup7\n      add\n      tag_19\n      jump\t// in\n    tag_261:\n        /* \"src/Dummy.sol\":158:439  contract Dummy is ERC2771Context, ERC2771Forwarder {... */\n      mload(0x40)\n      shl(0xe0, 0xd2650cd1)\n        /* \"lib/openzeppelin-contracts/contracts/metatx/ERC2771Forwarder.sol\":11538:11588  ERC2771UntrustfulTarget(request.to, address(this)) */\n      dup2\n      mstore\n      sub(shl(0xa0, 0x01), 0x01)\n        /* \"src/Dummy.sol\":158:439  contract Dummy is ERC2771Context, ERC2771Forwarder {... */\n      swap1\n      swap2\n      and\n        /* \"lib/openzeppelin-contracts/contracts/metatx/ERC2771Forwarder.sol\":11538:11588  ERC2771UntrustfulTarget(request.to, address(this)) */\n      0x04\n      dup3\n      add\n        /* \"src/Dummy.sol\":158:439  contract Dummy is ERC2771Context, ERC2771Forwarder {... */\n      mstore\n        /* \"lib/openzeppelin-contracts/contracts/metatx/ERC2771Forwarder.sol\":11582:11586  this */\n      address\n        /* \"src/Dummy.sol\":158:439  contract Dummy is ERC2771Context, ERC2771Forwarder {... */\n      0x24\n      dup3\n      add\n      mstore\n      swap1\n      dup2\n      swap1\n      0x44\n      dup3\n      add\n      swap1\n      jump\n        /* \"lib/openzeppelin-contracts/contracts/metatx/ERC2771Forwarder.sol\":12875:13979  function _isTrustedByTarget(address target) private view returns (bool) {... */\n    tag_36:\n        /* \"src/Dummy.sol\":158:439  contract Dummy is ERC2771Context, ERC2771Forwarder {... */\n      mload(0x40)\n        /* \"lib/openzeppelin-contracts/contracts/metatx/ERC2771Forwarder.sol\":12986:13052  abi.encodeCall(ERC2771Context.isTrustedForwarder, (address(this))) */\n      swap1\n      0x20\n      dup3\n      add\n      swap1\n      shl(0xe0, 0x572b6c05)\n      dup3\n      mstore\n        /* \"lib/openzeppelin-contracts/contracts/metatx/ERC2771Forwarder.sol\":13045:13049  this */\n      address\n        /* \"lib/openzeppelin-contracts/contracts/metatx/ERC2771Forwarder.sol\":12986:13052  abi.encodeCall(ERC2771Context.isTrustedForwarder, (address(this))) */\n      0x24\n      dup5\n      add\n        /* \"src/Dummy.sol\":158:439  contract Dummy is ERC2771Context, ERC2771Forwarder {... */\n      mstore\n        /* \"lib/openzeppelin-contracts/contracts/metatx/ERC2771Forwarder.sol\":12986:13052  abi.encodeCall(ERC2771Context.isTrustedForwarder, (address(this))) */\n      0x24\n      dup4\n      mstore\n        /* \"src/Dummy.sol\":158:439  contract Dummy is ERC2771Context, ERC2771Forwarder {... */\n      0x60\n        /* \"lib/openzeppelin-contracts/contracts/metatx/ERC2771Forwarder.sol\":3070:3211  keccak256(... */\n      dup4\n      add\n      swap2\n      dup4\n      dup4\n      lt\n      0xffffffffffffffff\n      dup5\n      gt\n      or\n      tag_219\n      jumpi\n        /* \"lib/openzeppelin-contracts/contracts/metatx/ERC2771Forwarder.sol\":12986:13052  abi.encodeCall(ERC2771Context.isTrustedForwarder, (address(this))) */\n      0x20\n        /* \"lib/openzeppelin-contracts/contracts/metatx/ERC2771Forwarder.sol\":3070:3211  keccak256(... */\n      swap4\n      0x00\n      swap4\n        /* \"src/Dummy.sol\":158:439  contract Dummy is ERC2771Context, ERC2771Forwarder {... */\n      0x40\n        /* \"lib/openzeppelin-contracts/contracts/metatx/ERC2771Forwarder.sol\":3070:3211  keccak256(... */\n      mstore\n        /* \"lib/openzeppelin-contracts/contracts/metatx/ERC2771Forwarder.sol\":13185:13907  assembly {... */\n      mload\n      swap2\n      gas\n      staticcall\n      mload(0x00)\n      returndatasize\n        /* \"lib/openzeppelin-contracts/contracts/metatx/ERC2771Forwarder.sol\":13924:13953  success && returnSize >= 0x20 */\n      dup3\n      tag_264\n      jumpi\n        /* \"lib/openzeppelin-contracts/contracts/metatx/ERC2771Forwarder.sol\":12875:13979  function _isTrustedByTarget(address target) private view returns (bool) {... */\n    tag_265:\n        /* \"lib/openzeppelin-contracts/contracts/metatx/ERC2771Forwarder.sol\":13924:13972  success && returnSize >= 0x20 && returnValue > 0 */\n      pop\n      dup2\n      tag_266\n      jumpi\n        /* \"lib/openzeppelin-contracts/contracts/metatx/ERC2771Forwarder.sol\":13917:13972  return success && returnSize >= 0x20 && returnValue > 0 */\n      pop\n        /* \"lib/openzeppelin-contracts/contracts/metatx/ERC2771Forwarder.sol\":12875:13979  function _isTrustedByTarget(address target) private view returns (bool) {... */\n      swap1\n      jump\t// out\n        /* \"lib/openzeppelin-contracts/contracts/metatx/ERC2771Forwarder.sol\":13924:13972  success && returnSize >= 0x20 && returnValue > 0 */\n    tag_266:\n        /* \"lib/openzeppelin-contracts/contracts/metatx/ERC2771Forwarder.sol\":13957:13972  returnValue > 0 */\n      swap1\n      pop\n      iszero\n      iszero\n        /* \"lib/openzeppelin-contracts/contracts/metatx/ERC2771Forwarder.sol\":12875:13979  function _isTrustedByTarget(address target) private view returns (bool) {... */\n      swap1\n      jump\t// out\n        /* \"lib/openzeppelin-contracts/contracts/metatx/ERC2771Forwarder.sol\":13924:13953  success && returnSize >= 0x20 */\n    tag_264:\n        /* \"lib/openzeppelin-contracts/contracts/metatx/ERC2771Forwarder.sol\":12986:13052  abi.encodeCall(ERC2771Context.isTrustedForwarder, (address(this))) */\n      0x20\n      gt\n        /* \"lib/openzeppelin-contracts/contracts/metatx/ERC2771Forwarder.sol\":13935:13953  returnSize >= 0x20 */\n      iszero\n      swap2\n      pop\n        /* \"lib/openzeppelin-contracts/contracts/metatx/ERC2771Forwarder.sol\":13924:13953  success && returnSize >= 0x20 */\n      0x00\n      jump(tag_265)\n        /* \"lib/openzeppelin-contracts/contracts/metatx/ERC2771Forwarder.sol\":14599:16797  function _checkForwardedGas(uint256 gasLeft, ForwardRequestData calldata request) private pure {... */\n    tag_37:\n      swap1\n        /* \"lib/openzeppelin-contracts/contracts/metatx/ERC2771Forwarder.sol\":16351:16362  request.gas */\n      0x60\n        /* \"lib/openzeppelin-contracts/contracts/metatx/ERC2771Forwarder.sol\":16365:16367  63 */\n      0x3f\n        /* \"lib/openzeppelin-contracts/contracts/metatx/ERC2771Forwarder.sol\":14599:16797  function _checkForwardedGas(uint256 gasLeft, ForwardRequestData calldata request) private pure {... */\n      swap2\n        /* \"lib/openzeppelin-contracts/contracts/metatx/ERC2771Forwarder.sol\":16351:16362  request.gas */\n      add\n        /* \"src/Dummy.sol\":158:439  contract Dummy is ERC2771Context, ERC2771Forwarder {... */\n      calldataload\n      div\n      gt\n        /* \"lib/openzeppelin-contracts/contracts/metatx/ERC2771Forwarder.sol\":16337:16791  if (gasLeft < request.gas / 63) {... */\n      tag_268\n      jumpi\n        /* \"lib/openzeppelin-contracts/contracts/metatx/ERC2771Forwarder.sol\":14599:16797  function _checkForwardedGas(uint256 gasLeft, ForwardRequestData calldata request) private pure {... */\n      jump\t// out\n        /* \"lib/openzeppelin-contracts/contracts/metatx/ERC2771Forwarder.sol\":16337:16791  if (gasLeft < request.gas / 63) {... */\n    tag_268:\n        /* \"lib/openzeppelin-contracts/contracts/metatx/ERC2771Forwarder.sol\":16731:16781  assembly {... */\n      invalid\n        /* \"lib/openzeppelin-contracts/contracts/utils/Address.sol\":1531:1862  function sendValue(address payable recipient, uint256 amount) internal {... */\n    tag_38:\n        /* \"lib/openzeppelin-contracts/contracts/utils/Address.sol\":1616:1637  address(this).balance */\n      dup2\n      selfbalance\n        /* \"lib/openzeppelin-contracts/contracts/utils/Address.sol\":1616:1646  address(this).balance < amount */\n      lt\n        /* \"lib/openzeppelin-contracts/contracts/utils/Address.sol\":1612:1721  if (address(this).balance < amount) {... */\n      tag_270\n      jumpi\n        /* \"lib/openzeppelin-contracts/contracts/utils/Address.sol\":1750:1783  recipient.call{value: amount}(\"\") */\n      0x00\n      swap2\n      dup3\n      swap2\n      dup3\n      swap2\n      dup3\n      swap2\n      sub(shl(0xa0, 0x01), 0x01)\n        /* \"src/Dummy.sol\":158:439  contract Dummy is ERC2771Context, ERC2771Forwarder {... */\n      and\n        /* \"lib/openzeppelin-contracts/contracts/utils/Address.sol\":1750:1783  recipient.call{value: amount}(\"\") */\n      gas\n      call\n        /* \"src/Dummy.sol\":158:439  contract Dummy is ERC2771Context, ERC2771Forwarder {... */\n      jumpi(tag_272, iszero(returndatasize))\n      returndatasize\n      tag_274\n      dup2\n      tag_27\n      jump\t// in\n    tag_274:\n      swap1\n        /* \"lib/openzeppelin-contracts/contracts/metatx/ERC2771Forwarder.sol\":3070:3211  keccak256(... */\n      tag_275\n        /* \"src/Dummy.sol\":158:439  contract Dummy is ERC2771Context, ERC2771Forwarder {... */\n      mload(0x40)\n        /* \"lib/openzeppelin-contracts/contracts/metatx/ERC2771Forwarder.sol\":3070:3211  keccak256(... */\n      swap3\n      dup4\n      tag_26\n      jump\t// in\n    tag_275:\n        /* \"src/Dummy.sol\":158:439  contract Dummy is ERC2771Context, ERC2771Forwarder {... */\n      dup2\n      mstore\n        /* \"lib/openzeppelin-contracts/contracts/utils/Address.sol\":1750:1783  recipient.call{value: amount}(\"\") */\n      0x00\n        /* \"src/Dummy.sol\":158:439  contract Dummy is ERC2771Context, ERC2771Forwarder {... */\n      0x20\n      returndatasize\n      swap3\n      add\n      returndatacopy\n    tag_276:\n        /* \"lib/openzeppelin-contracts/contracts/utils/Address.sol\":1797:1805  !success */\n      iszero\n        /* \"lib/openzeppelin-contracts/contracts/utils/Address.sol\":1793:1856  if (!success) {... */\n      tag_277\n      jumpi\n        /* \"lib/openzeppelin-contracts/contracts/utils/Address.sol\":1531:1862  function sendValue(address payable recipient, uint256 amount) internal {... */\n      jump\t// out\n        /* \"lib/openzeppelin-contracts/contracts/utils/Address.sol\":1793:1856  if (!success) {... */\n    tag_277:\n        /* \"src/Dummy.sol\":158:439  contract Dummy is ERC2771Context, ERC2771Forwarder {... */\n      mload(0x40)\n      shl(0xe1, 0x0a12f521)\n        /* \"lib/openzeppelin-contracts/contracts/utils/Address.sol\":1828:1845  FailedInnerCall() */\n      dup2\n      mstore\n      0x04\n      swap1\n      revert\n        /* \"src/Dummy.sol\":158:439  contract Dummy is ERC2771Context, ERC2771Forwarder {... */\n    tag_272:\n      jump(tag_276)\n        /* \"lib/openzeppelin-contracts/contracts/utils/Address.sol\":1612:1721  if (address(this).balance < amount) {... */\n    tag_270:\n        /* \"src/Dummy.sol\":158:439  contract Dummy is ERC2771Context, ERC2771Forwarder {... */\n      mload(0x40)\n      shl(0xe0, 0xcd786059)\n        /* \"lib/openzeppelin-contracts/contracts/utils/Address.sol\":1669:1710  AddressInsufficientBalance(address(this)) */\n      dup2\n      mstore\n        /* \"lib/openzeppelin-contracts/contracts/utils/Address.sol\":1624:1628  this */\n      address\n        /* \"lib/openzeppelin-contracts/contracts/utils/Address.sol\":1669:1710  AddressInsufficientBalance(address(this)) */\n      0x04\n      dup3\n      add\n        /* \"src/Dummy.sol\":158:439  contract Dummy is ERC2771Context, ERC2771Forwarder {... */\n      mstore\n      0x24\n      swap1\n        /* \"lib/openzeppelin-contracts/contracts/utils/Address.sol\":1669:1710  AddressInsufficientBalance(address(this)) */\n      revert\n        /* \"lib/openzeppelin-contracts/contracts/utils/cryptography/ECDSA.sol\":2129:2895  function tryRecover(bytes32 hash, bytes memory signature) internal pure returns (address, RecoverError, bytes32) {... */\n    tag_41:\n        /* \"src/Dummy.sol\":158:439  contract Dummy is ERC2771Context, ERC2771Forwarder {... */\n      dup2\n      mload\n      swap2\n        /* \"lib/openzeppelin-contracts/contracts/utils/cryptography/ECDSA.sol\":2129:2895  function tryRecover(bytes32 hash, bytes memory signature) internal pure returns (address, RecoverError, bytes32) {... */\n      swap1\n        /* \"lib/openzeppelin-contracts/contracts/utils/cryptography/ECDSA.sol\":2276:2278  65 */\n      0x41\n        /* \"lib/openzeppelin-contracts/contracts/utils/cryptography/ECDSA.sol\":2256:2278  signature.length == 65 */\n      dup4\n      sub\n        /* \"lib/openzeppelin-contracts/contracts/utils/cryptography/ECDSA.sol\":2276:2278  65 */\n      tag_279\n      jumpi\n        /* \"lib/openzeppelin-contracts/contracts/utils/cryptography/ECDSA.sol\":2739:2764  tryRecover(hash, v, r, s) */\n      tag_281\n        /* \"lib/openzeppelin-contracts/contracts/utils/cryptography/ECDSA.sol\":2539:2719  assembly {... */\n      swap3\n      pop\n      0x20\n      dup3\n      add\n      mload\n      swap1\n      0x60\n      0x40\n      dup5\n      add\n      mload\n      swap4\n      add\n      mload\n      0x00\n      byte\n        /* \"lib/openzeppelin-contracts/contracts/utils/cryptography/ECDSA.sol\":2739:2764  tryRecover(hash, v, r, s) */\n      swap1\n      tag_42\n      jump\t// in\n    tag_281:\n        /* \"lib/openzeppelin-contracts/contracts/utils/cryptography/ECDSA.sol\":2732:2764  return tryRecover(hash, v, r, s) */\n      swap2\n      swap3\n      swap1\n      swap2\n      swap1\n      jump\t// out\n        /* \"lib/openzeppelin-contracts/contracts/utils/cryptography/ECDSA.sol\":2252:2889  if (signature.length == 65) {... */\n    tag_279:\n        /* \"lib/openzeppelin-contracts/contracts/utils/cryptography/ECDSA.sol\":2795:2878  return (address(0), RecoverError.InvalidSignatureLength, bytes32(signature.length)) */\n      pop\n      pop\n        /* \"lib/openzeppelin-contracts/contracts/utils/cryptography/ECDSA.sol\":2811:2812  0 */\n      0x00\n        /* \"lib/openzeppelin-contracts/contracts/utils/cryptography/ECDSA.sol\":2795:2878  return (address(0), RecoverError.InvalidSignatureLength, bytes32(signature.length)) */\n      swap2\n        /* \"lib/openzeppelin-contracts/contracts/utils/cryptography/ECDSA.sol\":2815:2850  RecoverError.InvalidSignatureLength */\n      0x02\n        /* \"lib/openzeppelin-contracts/contracts/utils/cryptography/ECDSA.sol\":2795:2878  return (address(0), RecoverError.InvalidSignatureLength, bytes32(signature.length)) */\n      swap2\n      swap1\n      jump\t// out\n        /* \"lib/openzeppelin-contracts/contracts/utils/cryptography/ECDSA.sol\":5140:6670  function tryRecover(... */\n    tag_42:\n      swap2\n      swap1\n        /* \"lib/openzeppelin-contracts/contracts/utils/cryptography/ECDSA.sol\":6199:6265  0x7FFFFFFFFFFFFFFFFFFFFFFFFFFFFFFF5D576E7357A4501DDFE92F46681B20A0 */\n      0x7fffffffffffffffffffffffffffffff5d576e7357a4501ddfe92f46681b20a0\n        /* \"lib/openzeppelin-contracts/contracts/utils/cryptography/ECDSA.sol\":6186:6265  uint256(s) > 0x7FFFFFFFFFFFFFFFFFFFFFFFFFFFFFFF5D576E7357A4501DDFE92F46681B20A0 */\n      dup5\n      gt\n        /* \"lib/openzeppelin-contracts/contracts/utils/cryptography/ECDSA.sol\":6182:6346  if (uint256(s) > 0x7FFFFFFFFFFFFFFFFFFFFFFFFFFFFFFF5D576E7357A4501DDFE92F46681B20A0) {... */\n      tag_282\n      jumpi\n        /* \"src/Dummy.sol\":158:439  contract Dummy is ERC2771Context, ERC2771Forwarder {... */\n      swap3\n      0x20\n      swap3\n      swap2\n      0xff\n      0x80\n      swap6\n      mload(0x40)\n      swap5\n      dup6\n      mstore\n      and\n      dup5\n      dup5\n      add\n      mstore\n      0x40\n      dup4\n      add\n      mstore\n      0x60\n      dup3\n      add\n      mstore\n      0x00\n        /* \"lib/openzeppelin-contracts/contracts/utils/cryptography/ECDSA.sol\":6457:6481  ecrecover(hash, v, r, s) */\n      swap3\n      dup4\n      swap2\n      dup3\n      dup1\n      mstore\n      0x01\n      gas\n      staticcall\n      iszero\n      tag_284\n      jumpi\n      dup1\n      mload\n      sub(shl(0xa0, 0x01), 0x01)\n        /* \"src/Dummy.sol\":158:439  contract Dummy is ERC2771Context, ERC2771Forwarder {... */\n      dup2\n      and\n        /* \"lib/openzeppelin-contracts/contracts/utils/cryptography/ECDSA.sol\":6495:6515  signer == address(0) */\n      iszero\n        /* \"lib/openzeppelin-contracts/contracts/utils/cryptography/ECDSA.sol\":6491:6604  if (signer == address(0)) {... */\n      tag_286\n      jumpi\n        /* \"lib/openzeppelin-contracts/contracts/utils/cryptography/ECDSA.sol\":6614:6663  return (signer, RecoverError.NoError, bytes32(0)) */\n      swap2\n      dup2\n        /* \"lib/openzeppelin-contracts/contracts/utils/cryptography/ECDSA.sol\":5140:6670  function tryRecover(... */\n      swap1\n      jump\t// out\n        /* \"lib/openzeppelin-contracts/contracts/utils/cryptography/ECDSA.sol\":6491:6604  if (signer == address(0)) {... */\n    tag_286:\n        /* \"lib/openzeppelin-contracts/contracts/utils/cryptography/ECDSA.sol\":6531:6593  return (address(0), RecoverError.InvalidSignature, bytes32(0)) */\n      pop\n      dup1\n      swap2\n        /* \"lib/openzeppelin-contracts/contracts/utils/cryptography/ECDSA.sol\":6457:6481  ecrecover(hash, v, r, s) */\n      0x01\n        /* \"lib/openzeppelin-contracts/contracts/utils/cryptography/ECDSA.sol\":6531:6593  return (address(0), RecoverError.InvalidSignature, bytes32(0)) */\n      swap2\n      swap1\n      jump\t// out\n        /* \"lib/openzeppelin-contracts/contracts/utils/cryptography/ECDSA.sol\":6457:6481  ecrecover(hash, v, r, s) */\n    tag_284:\n        /* \"src/Dummy.sol\":158:439  contract Dummy is ERC2771Context, ERC2771Forwarder {... */\n      mload(0x40)\n      swap1\n      returndatasize\n      swap1\n      dup3\n      returndatacopy\n      returndatasize\n      swap1\n      revert\n        /* \"lib/openzeppelin-contracts/contracts/utils/cryptography/ECDSA.sol\":6182:6346  if (uint256(s) > 0x7FFFFFFFFFFFFFFFFFFFFFFFFFFFFFFF5D576E7357A4501DDFE92F46681B20A0) {... */\n    tag_282:\n        /* \"lib/openzeppelin-contracts/contracts/utils/cryptography/ECDSA.sol\":6281:6335  return (address(0), RecoverError.InvalidSignatureS, s) */\n      pop\n      pop\n      pop\n        /* \"lib/openzeppelin-contracts/contracts/utils/cryptography/ECDSA.sol\":6297:6298  0 */\n      0x00\n        /* \"lib/openzeppelin-contracts/contracts/utils/cryptography/ECDSA.sol\":6281:6335  return (address(0), RecoverError.InvalidSignatureS, s) */\n      swap2\n        /* \"lib/openzeppelin-contracts/contracts/utils/cryptography/ECDSA.sol\":6301:6331  RecoverError.InvalidSignatureS */\n      0x03\n        /* \"lib/openzeppelin-contracts/contracts/utils/cryptography/ECDSA.sol\":6281:6335  return (address(0), RecoverError.InvalidSignatureS, s) */\n      swap2\n      swap1\n      jump\t// out\n        /* \"lib/openzeppelin-contracts/contracts/utils/cryptography/EIP712.sol\":4917:5093  function _hashTypedDataV4(bytes32 structHash) internal view virtual returns (bytes32) {... */\n    tag_43:\n        /* \"lib/openzeppelin-contracts/contracts/utils/cryptography/MessageHashUtils.sol\":3515:3748  assembly {... */\n      0x42\n        /* \"lib/openzeppelin-contracts/contracts/utils/cryptography/EIP712.sol\":4917:5093  function _hashTypedDataV4(bytes32 structHash) internal view virtual returns (bytes32) {... */\n      swap1\n        /* \"lib/openzeppelin-contracts/contracts/utils/cryptography/EIP712.sol\":5053:5073  _domainSeparatorV4() */\n      tag_288\n      tag_44\n      jump\t// in\n    tag_288:\n        /* \"lib/openzeppelin-contracts/contracts/utils/cryptography/MessageHashUtils.sol\":3515:3748  assembly {... */\n      swap1\n      mload(0x40)\n      swap2\n      shl(0xf0, 0x1901)\n      dup4\n      mstore\n      0x02\n      dup4\n      add\n      mstore\n      0x22\n      dup3\n      add\n      mstore\n      keccak256\n        /* \"lib/openzeppelin-contracts/contracts/utils/cryptography/EIP712.sol\":4917:5093  function _hashTypedDataV4(bytes32 structHash) internal view virtual returns (bytes32) {... */\n      swap1\n      jump\t// out\n        /* \"lib/openzeppelin-contracts/contracts/utils/cryptography/EIP712.sol\":3845:4107  function _domainSeparatorV4() internal view returns (bytes32) {... */\n    tag_44:\n        /* \"lib/openzeppelin-contracts/contracts/utils/cryptography/EIP712.sol\":3929:3933  this */\n      address\n        /* \"lib/openzeppelin-contracts/contracts/utils/cryptography/EIP712.sol\":3938:3949  _cachedThis */\n      immutable(\"0x181e1e3a457d5cef39dddc6213a1adbc86226ab3d6c2e46b6b95ce30e1273fad\")\n      sub(shl(0xa0, 0x01), 0x01)\n        /* \"src/Dummy.sol\":158:439  contract Dummy is ERC2771Context, ERC2771Forwarder {... */\n      and\n        /* \"lib/openzeppelin-contracts/contracts/utils/cryptography/EIP712.sol\":3921:3949  address(this) == _cachedThis */\n      eq\n      dup1\n        /* \"lib/openzeppelin-contracts/contracts/utils/cryptography/EIP712.sol\":3921:3984  address(this) == _cachedThis && block.chainid == _cachedChainId */\n      tag_289\n      jumpi\n        /* \"lib/openzeppelin-contracts/contracts/utils/cryptography/EIP712.sol\":3845:4107  function _domainSeparatorV4() internal view returns (bytes32) {... */\n    tag_290:\n        /* \"lib/openzeppelin-contracts/contracts/utils/cryptography/EIP712.sol\":3917:4101  if (address(this) == _cachedThis && block.chainid == _cachedChainId) {... */\n      iszero\n      tag_291\n      jumpi\n        /* \"lib/openzeppelin-contracts/contracts/utils/cryptography/EIP712.sol\":4007:4029  _cachedDomainSeparator */\n      immutable(\"0x267a3e43955d5ac713043fd32df2bde19a025701ea343c4467194e9c98b8fb1f\")\n        /* \"lib/openzeppelin-contracts/contracts/utils/cryptography/EIP712.sol\":4000:4029  return _cachedDomainSeparator */\n      swap1\n      jump\t// out\n        /* \"lib/openzeppelin-contracts/contracts/utils/cryptography/EIP712.sol\":3917:4101  if (address(this) == _cachedThis && block.chainid == _cachedChainId) {... */\n    tag_291:\n        /* \"src/Dummy.sol\":158:439  contract Dummy is ERC2771Context, ERC2771Forwarder {... */\n      mload(0x40)\n        /* \"lib/openzeppelin-contracts/contracts/utils/cryptography/EIP712.sol\":4204:4284  abi.encode(TYPE_HASH, _hashedName, _hashedVersion, block.chainid, address(this)) */\n      0x20\n      dup2\n      add\n        /* \"src/Dummy.sol\":158:439  contract Dummy is ERC2771Context, ERC2771Forwarder {... */\n      swap1\n        /* \"lib/openzeppelin-contracts/contracts/utils/cryptography/EIP712.sol\":2079:2174  keccak256(\"EIP712Domain(string name,string version,uint256 chainId,address verifyingContract)\") */\n      0x8b73c3c69bb8fe3d512ecc4cf759cc79239f7b179b0ffacaa9a75d522b39400f\n        /* \"src/Dummy.sol\":158:439  contract Dummy is ERC2771Context, ERC2771Forwarder {... */\n      dup3\n      mstore\n        /* \"lib/openzeppelin-contracts/contracts/utils/cryptography/EIP712.sol\":4226:4237  _hashedName */\n      immutable(\"0xd60579bb341d0b58542358d81fbcda6dc7dd39e7447d85d21541e19a3877254c\")\n        /* \"src/Dummy.sol\":158:439  contract Dummy is ERC2771Context, ERC2771Forwarder {... */\n      0x40\n        /* \"lib/openzeppelin-contracts/contracts/utils/cryptography/EIP712.sol\":2079:2174  keccak256(\"EIP712Domain(string name,string version,uint256 chainId,address verifyingContract)\") */\n      dup3\n      add\n        /* \"src/Dummy.sol\":158:439  contract Dummy is ERC2771Context, ERC2771Forwarder {... */\n      mstore\n        /* \"lib/openzeppelin-contracts/contracts/utils/cryptography/EIP712.sol\":4239:4253  _hashedVersion */\n      immutable(\"0x995833c2a2aeb937fbc4a128bd490bc0fc9957bdfd709bbb221dc0127b96401e\")\n        /* \"lib/openzeppelin-contracts/contracts/utils/cryptography/EIP712.sol\":2079:2174  keccak256(\"EIP712Domain(string name,string version,uint256 chainId,address verifyingContract)\") */\n      0x60\n      dup3\n      add\n        /* \"src/Dummy.sol\":158:439  contract Dummy is ERC2771Context, ERC2771Forwarder {... */\n      mstore\n        /* \"lib/openzeppelin-contracts/contracts/utils/cryptography/EIP712.sol\":4255:4268  block.chainid */\n      chainid\n        /* \"lib/openzeppelin-contracts/contracts/utils/cryptography/EIP712.sol\":2079:2174  keccak256(\"EIP712Domain(string name,string version,uint256 chainId,address verifyingContract)\") */\n      0x80\n      dup3\n      add\n        /* \"src/Dummy.sol\":158:439  contract Dummy is ERC2771Context, ERC2771Forwarder {... */\n      mstore\n        /* \"lib/openzeppelin-contracts/contracts/utils/cryptography/EIP712.sol\":3929:3933  this */\n      address\n        /* \"src/Dummy.sol\":158:439  contract Dummy is ERC2771Context, ERC2771Forwarder {... */\n      0xa0\n        /* \"lib/openzeppelin-contracts/contracts/utils/cryptography/EIP712.sol\":2079:2174  keccak256(\"EIP712Domain(string name,string version,uint256 chainId,address verifyingContract)\") */\n      dup3\n      add\n        /* \"src/Dummy.sol\":158:439  contract Dummy is ERC2771Context, ERC2771Forwarder {... */\n      mstore\n      0xa0\n        /* \"lib/openzeppelin-contracts/contracts/utils/cryptography/EIP712.sol\":4204:4284  abi.encode(TYPE_HASH, _hashedName, _hashedVersion, block.chainid, address(this)) */\n      dup2\n      mstore\n      tag_293\n      dup2\n      tag_25\n      jump\t// in\n    tag_293:\n        /* \"src/Dummy.sol\":158:439  contract Dummy is ERC2771Context, ERC2771Forwarder {... */\n      mload\n        /* \"lib/openzeppelin-contracts/contracts/utils/cryptography/EIP712.sol\":4194:4285  keccak256(abi.encode(TYPE_HASH, _hashedName, _hashedVersion, block.chainid, address(this))) */\n      swap1\n      keccak256\n        /* \"lib/openzeppelin-contracts/contracts/utils/cryptography/EIP712.sol\":4060:4090  return _buildDomainSeparator() */\n      swap1\n      jump\t// out\n        /* \"lib/openzeppelin-contracts/contracts/utils/cryptography/EIP712.sol\":3921:3984  address(this) == _cachedThis && block.chainid == _cachedChainId */\n    tag_289:\n        /* \"lib/openzeppelin-contracts/contracts/utils/cryptography/EIP712.sol\":3970:3984  _cachedChainId */\n      pop\n      immutable(\"0xa719e06aa69fe5611e041976601e5776ff743aefe35a016a2b5dfe8f33a5e5e9\")\n        /* \"lib/openzeppelin-contracts/contracts/utils/cryptography/EIP712.sol\":3953:3966  block.chainid */\n      chainid\n        /* \"lib/openzeppelin-contracts/contracts/utils/cryptography/EIP712.sol\":3953:3984  block.chainid == _cachedChainId */\n      eq\n        /* \"lib/openzeppelin-contracts/contracts/utils/cryptography/EIP712.sol\":3921:3984  address(this) == _cachedThis && block.chainid == _cachedChainId */\n      jump(tag_290)\n        /* \"lib/openzeppelin-contracts/contracts/utils/ShortStrings.sol\":3385:3652  function toStringWithFallback(ShortString value, string storage store) internal pure returns (string memory) {... */\n    tag_47:\n        /* \"lib/openzeppelin-contracts/contracts/utils/ShortStrings.sol\":1390:1456  0x00000000000000000000000000000000000000000000000000000000000000FF */\n      0xff\n        /* \"lib/openzeppelin-contracts/contracts/utils/ShortStrings.sol\":3508:3554  ShortString.unwrap(value) != FALLBACK_SENTINEL */\n      dup2\n      eq\n        /* \"lib/openzeppelin-contracts/contracts/utils/ShortStrings.sol\":1390:1456  0x00000000000000000000000000000000000000000000000000000000000000FF */\n      tag_294\n      jumpi\n        /* \"lib/openzeppelin-contracts/contracts/utils/ShortStrings.sol\":3577:3592  toString(value) */\n      tag_189\n      swap1\n      tag_49\n      jump\t// in\n        /* \"lib/openzeppelin-contracts/contracts/utils/ShortStrings.sol\":3504:3646  if (ShortString.unwrap(value) != FALLBACK_SENTINEL) {... */\n    tag_294:\n        /* \"src/Dummy.sol\":158:439  contract Dummy is ERC2771Context, ERC2771Forwarder {... */\n      pop\n      mload(0x40)\n      0x00\n        /* \"lib/openzeppelin-contracts/contracts/utils/ShortStrings.sol\":1390:1456  0x00000000000000000000000000000000000000000000000000000000000000FF */\n      dup1\n      sload\n      swap1\n      0x01\n      dup3\n      dup2\n      shr\n      swap3\n      dup2\n      dup2\n      and\n      swap2\n      dup3\n      iszero\n      tag_297\n      jumpi\n        /* \"lib/openzeppelin-contracts/contracts/utils/ShortStrings.sol\":3504:3646  if (ShortString.unwrap(value) != FALLBACK_SENTINEL) {... */\n    tag_298:\n        /* \"lib/openzeppelin-contracts/contracts/utils/ShortStrings.sol\":1390:1456  0x00000000000000000000000000000000000000000000000000000000000000FF */\n      0x20\n      swap2\n      dup3\n      dup7\n      lt\n      dup5\n      eq\n      tag_299\n      jumpi\n        /* \"src/Dummy.sol\":158:439  contract Dummy is ERC2771Context, ERC2771Forwarder {... */\n      dup6\n      dup8\n      mstore\n      dup7\n      swap5\n        /* \"lib/openzeppelin-contracts/contracts/utils/ShortStrings.sol\":1390:1456  0x00000000000000000000000000000000000000000000000000000000000000FF */\n      swap4\n        /* \"src/Dummy.sol\":158:439  contract Dummy is ERC2771Context, ERC2771Forwarder {... */\n      0x20\n      dup7\n      add\n      swap4\n        /* \"lib/openzeppelin-contracts/contracts/utils/ShortStrings.sol\":1390:1456  0x00000000000000000000000000000000000000000000000000000000000000FF */\n      swap3\n      swap2\n      dup2\n      iszero\n      tag_302\n      jumpi\n      pop\n      0x01\n      eq\n      tag_304\n      jumpi\n    tag_305:\n      pop\n      pop\n      pop\n      tag_189\n      swap3\n      pop\n      sub\n      dup3\n      tag_26\n      jump\t// in\n    tag_304:\n      swap3\n      pop\n      swap4\n      tag_307\n        /* \"src/Dummy.sol\":158:439  contract Dummy is ERC2771Context, ERC2771Forwarder {... */\n      0x00\n        /* \"lib/openzeppelin-contracts/contracts/utils/ShortStrings.sol\":1390:1456  0x00000000000000000000000000000000000000000000000000000000000000FF */\n      dup1\n      mstore\n      0x290decd9548b62a8d60345a988386fc84ba6bc95484008f6362f93160ef3e563\n      swap1\n      jump\n    tag_307:\n      swap5\n        /* \"src/Dummy.sol\":158:439  contract Dummy is ERC2771Context, ERC2771Forwarder {... */\n      0x00\n        /* \"lib/openzeppelin-contracts/contracts/utils/ShortStrings.sol\":1390:1456  0x00000000000000000000000000000000000000000000000000000000000000FF */\n      swap4\n    tag_308:\n      dup3\n      dup6\n      lt\n      tag_309\n      jumpi\n      pop\n      pop\n      pop\n      tag_189\n      swap4\n      pop\n      add\n      0x00\n      dup1\n      dup1\n      jump(tag_305)\n    tag_309:\n      dup7\n      sload\n      dup6\n      dup6\n      add\n      mstore\n      swap6\n      dup7\n      add\n      swap6\n      dup8\n      swap6\n      pop\n      swap4\n      dup2\n      add\n      swap4\n      jump(tag_308)\n    tag_302:\n      swap3\n      pop\n      pop\n      pop\n      tag_189\n      swap5\n      swap2\n      swap3\n      pop\n      not(0xff)\n      and\n      dup3\n      mstore\n      iszero\n      iszero\n      0x05\n      shl\n      add\n      0x00\n      dup1\n      dup1\n      jump(tag_305)\n    tag_299:\n      shl(0xe0, 0x4e487b71)\n      dup6\n      mstore\n      mstore(0x04, 0x22)\n      0x24\n        /* \"src/Dummy.sol\":158:439  contract Dummy is ERC2771Context, ERC2771Forwarder {... */\n      dup6\n        /* \"lib/openzeppelin-contracts/contracts/utils/ShortStrings.sol\":1390:1456  0x00000000000000000000000000000000000000000000000000000000000000FF */\n      revert\n    tag_297:\n      swap4\n      0x7f\n      and\n      swap4\n      jump(tag_298)\n        /* \"lib/openzeppelin-contracts/contracts/utils/ShortStrings.sol\":3385:3652  function toStringWithFallback(ShortString value, string storage store) internal pure returns (string memory) {... */\n    tag_48:\n        /* \"lib/openzeppelin-contracts/contracts/utils/ShortStrings.sol\":1390:1456  0x00000000000000000000000000000000000000000000000000000000000000FF */\n      0xff\n        /* \"lib/openzeppelin-contracts/contracts/utils/ShortStrings.sol\":3508:3554  ShortString.unwrap(value) != FALLBACK_SENTINEL */\n      dup2\n      eq\n        /* \"lib/openzeppelin-contracts/contracts/utils/ShortStrings.sol\":1390:1456  0x00000000000000000000000000000000000000000000000000000000000000FF */\n      tag_311\n      jumpi\n        /* \"lib/openzeppelin-contracts/contracts/utils/ShortStrings.sol\":3577:3592  toString(value) */\n      tag_189\n      swap1\n      tag_49\n      jump\t// in\n        /* \"lib/openzeppelin-contracts/contracts/utils/ShortStrings.sol\":3504:3646  if (ShortString.unwrap(value) != FALLBACK_SENTINEL) {... */\n    tag_311:\n      pop\n        /* \"src/Dummy.sol\":158:439  contract Dummy is ERC2771Context, ERC2771Forwarder {... */\n      mload(0x40)\n        /* \"lib/openzeppelin-contracts/contracts/utils/cryptography/EIP712.sol\":6584:6600  _versionFallback */\n      0x01\n        /* \"lib/openzeppelin-contracts/contracts/utils/ShortStrings.sol\":1390:1456  0x00000000000000000000000000000000000000000000000000000000000000FF */\n      dup1\n      sload\n      dup1\n      dup3\n      shr\n      swap2\n      0x00\n      swap2\n      dup1\n      dup3\n      and\n      swap2\n      dup3\n      iszero\n      tag_314\n      jumpi\n        /* \"lib/openzeppelin-contracts/contracts/utils/ShortStrings.sol\":3504:3646  if (ShortString.unwrap(value) != FALLBACK_SENTINEL) {... */\n    tag_315:\n        /* \"lib/openzeppelin-contracts/contracts/utils/ShortStrings.sol\":1390:1456  0x00000000000000000000000000000000000000000000000000000000000000FF */\n      0x20\n      swap2\n      dup3\n      dup7\n      lt\n      dup5\n      eq\n      tag_299\n      jumpi\n        /* \"src/Dummy.sol\":158:439  contract Dummy is ERC2771Context, ERC2771Forwarder {... */\n      dup6\n      dup8\n      mstore\n      dup7\n      swap5\n        /* \"lib/openzeppelin-contracts/contracts/utils/ShortStrings.sol\":1390:1456  0x00000000000000000000000000000000000000000000000000000000000000FF */\n      swap4\n        /* \"src/Dummy.sol\":158:439  contract Dummy is ERC2771Context, ERC2771Forwarder {... */\n      0x20\n      dup7\n      add\n      swap4\n        /* \"lib/openzeppelin-contracts/contracts/utils/ShortStrings.sol\":1390:1456  0x00000000000000000000000000000000000000000000000000000000000000FF */\n      swap3\n      swap2\n      dup2\n      iszero\n      tag_302\n      jumpi\n      pop\n      0x01\n      eq\n      tag_321\n      jumpi\n      pop\n      pop\n      pop\n      tag_189\n      swap3\n      pop\n      sub\n      dup3\n      tag_26\n      jump\t// in\n    tag_321:\n      swap3\n      pop\n      swap4\n      tag_324\n        /* \"lib/openzeppelin-contracts/contracts/utils/cryptography/EIP712.sol\":6584:6600  _versionFallback */\n      0x01\n        /* \"lib/openzeppelin-contracts/contracts/utils/ShortStrings.sol\":1390:1456  0x00000000000000000000000000000000000000000000000000000000000000FF */\n      0x00\n      mstore\n      0xb10e2d527612073b26eecdfd717e6a320cf44b4afac2b0732d9fcbe2b7fa0cf6\n      swap1\n      jump\n    tag_324:\n      swap5\n      0x00\n      swap4\n    tag_325:\n      dup3\n      dup6\n      lt\n      tag_326\n      jumpi\n      pop\n      pop\n      pop\n      tag_189\n      swap4\n      pop\n      add\n      0x00\n      dup1\n      dup1\n      jump(tag_305)\n    tag_326:\n      dup7\n      sload\n      dup6\n      dup6\n      add\n      mstore\n      swap6\n      dup7\n      add\n      swap6\n      dup8\n      swap6\n      pop\n      swap4\n      dup2\n      add\n      swap4\n      jump(tag_325)\n    tag_314:\n      swap4\n      0x7f\n      and\n      swap4\n      jump(tag_315)\n        /* \"lib/openzeppelin-contracts/contracts/utils/ShortStrings.sol\":2078:2483  function toString(ShortString sstr) internal pure returns (string memory) {... */\n    tag_49:\n        /* \"lib/openzeppelin-contracts/contracts/utils/ShortStrings.sol\":2688:2692  0xFF */\n      0xff\n        /* \"lib/openzeppelin-contracts/contracts/utils/ShortStrings.sol\":2652:2692  uint256(ShortString.unwrap(sstr)) & 0xFF */\n      dup2\n      and\n        /* \"lib/openzeppelin-contracts/contracts/utils/ShortStrings.sol\":2706:2717  result > 31 */\n      swap1\n        /* \"lib/openzeppelin-contracts/contracts/utils/ShortStrings.sol\":2715:2717  31 */\n      0x1f\n        /* \"lib/openzeppelin-contracts/contracts/utils/ShortStrings.sol\":2706:2717  result > 31 */\n      dup3\n      gt\n        /* \"lib/openzeppelin-contracts/contracts/utils/ShortStrings.sol\":2702:2771  if (result > 31) {... */\n      tag_328\n      jumpi\n        /* \"lib/openzeppelin-contracts/contracts/metatx/ERC2771Forwarder.sol\":3070:3211  keccak256(... */\n      0x40\n        /* \"src/Dummy.sol\":158:439  contract Dummy is ERC2771Context, ERC2771Forwarder {... */\n      mload\n        /* \"lib/openzeppelin-contracts/contracts/metatx/ERC2771Forwarder.sol\":3070:3211  keccak256(... */\n      swap2\n      0x40\n      dup4\n      add\n      dup4\n      dup2\n      lt\n      0xffffffffffffffff\n      dup3\n      gt\n      or\n      tag_219\n      jumpi\n      0x40\n      mstore\n        /* \"lib/openzeppelin-contracts/contracts/utils/ShortStrings.sol\":2367:2457  assembly {... */\n      dup3\n      mstore\n        /* \"lib/openzeppelin-contracts/contracts/utils/ShortStrings.sol\":2311:2313  32 */\n      0x20\n        /* \"src/Dummy.sol\":158:439  contract Dummy is ERC2771Context, ERC2771Forwarder {... */\n      dup3\n      add\n        /* \"lib/openzeppelin-contracts/contracts/utils/ShortStrings.sol\":2367:2457  assembly {... */\n      mstore\n        /* \"lib/openzeppelin-contracts/contracts/utils/ShortStrings.sol\":2078:2483  function toString(ShortString sstr) internal pure returns (string memory) {... */\n      swap1\n      jump\t// out\n        /* \"lib/openzeppelin-contracts/contracts/utils/ShortStrings.sol\":2702:2771  if (result > 31) {... */\n    tag_328:\n        /* \"src/Dummy.sol\":158:439  contract Dummy is ERC2771Context, ERC2771Forwarder {... */\n      mload(0x40)\n      shl(0xe2, 0x2cd44ac3)\n        /* \"lib/openzeppelin-contracts/contracts/utils/ShortStrings.sol\":2740:2760  InvalidShortString() */\n      dup2\n      mstore\n      0x04\n      swap1\n      revert\n\n    auxdata: 0xa264697066735822122064425c091b21815b87b307f33522e3103f64892154db6d5a467389234a8ed18564736f6c63430008140033\n}\n",
				"bytecode": {
					"linkReferences": {},
					"object": "61018080604052346200017457620000178162000178565b600781526020810166466163746f727960c81b8152604051916200003b8362000178565b600183526020830191603160f81b835273ab8483f64d9c6d1ecf9b849ae677dd3315835cb26080526200006e8262000194565b90610140918252620000808562000361565b92610160938452519020926101009484865251902092610120908482524660c0526040519460208601917f8b73c3c69bb8fe3d512ecc4cf759cc79239f7b179b0ffacaa9a75d522b39400f8352604087015260608601524660808601523060a086015260a0855260c085019480861060018060401b0387111762000160578560405251902060a0523060e05261108b9485620005038639608051858181610163015261019f015260a05185610d66015260c05185610e21015260e05185610d3001525184610db501525183610ddb0152518261026a015251816102930152f35b634e487b7160e01b5f52604160045260245ffd5b5f80fd5b604081019081106001600160401b038211176200016057604052565b8051602091908281101562000230575090601f825111620001d15780825192015190808310620001c357501790565b825f19910360031b1b161790565b90604051809263305a27a960e01b82528060048301528251908160248401525f935b82851062000216575050604492505f838284010152601f80199101168101030190fd5b8481018201518686016044015293810193859350620001f3565b6001600160401b03811162000160575f928354926001938481811c9116801562000356575b838210146200034257601f81116200030c575b5081601f8411600114620002a6575092829391839286946200029a575b50501b915f199060031b1c191617905560ff90565b015192505f8062000285565b919083601f1981168780528488209488905b88838310620002f15750505010620002d8575b505050811b01905560ff90565b01515f1960f88460031b161c191690555f8080620002cb565b858701518855909601959485019487935090810190620002b8565b85805284601f848820920160051c820191601f860160051c015b8281106200033657505062000268565b87815501859062000326565b634e487b7160e01b86526022600452602486fd5b90607f169062000255565b805160209081811015620003ed5750601f8251116200038e5780825192015190808310620001c357501790565b90604051809263305a27a960e01b82528060048301528251908160248401525f935b828510620003d3575050604492505f838284010152601f80199101168101030190fd5b8481018201518686016044015293810193859350620003b0565b9192916001600160401b038111620001605760019182548381811c91168015620004f7575b82821014620004e357601f8111620004ad575b5080601f8311600114620004635750819293945f9262000457575b50505f19600383901b1c191690821b17905560ff90565b015190505f8062000440565b90601f19831695845f52825f20925f905b888210620004955750508385969710620002d857505050811b01905560ff90565b80878596829496860151815501950193019062000474565b835f5283601f835f20920160051c820191601f850160051c015b828110620004d757505062000425565b5f8155018490620004c7565b634e487b7160e01b5f52602260045260245ffd5b90607f16906200041256fe60806040526004361015610011575f80fd5b5f3560e01c806319d8d38c146100945780633fb5c1cb1461008f578063572b6c051461008a5780637da0a877146100855780637ecebe001461008057806384b0196e1461007b578063ccf96b4a146100765763df905caf14610071575f80fd5b610469565b61034a565b610250565b6101ce565b61018a565b610136565b61010c565b346100d65760206100ac6100a7366100da565b6106fe565b5090826100ce575b50816100c6575b506040519015158152f35b9050826100bb565b9150836100b4565b5f80fd5b600319906020818301126100d6576004359167ffffffffffffffff83116100d6578260e0920301126100d65760040190565b346100d65760203660031901126100d657600435600355005b6001600160a01b038116036100d657565b346100d65760203660031901126100d657602060043561015581610125565b6040519060018060a01b03807f0000000000000000000000000000000000000000000000000000000000000000169116148152f35b346100d6575f3660031901126100d6576040517f00000000000000000000000000000000000000000000000000000000000000006001600160a01b03168152602090f35b346100d65760203660031901126100d657602061020a6004356101f081610125565b6001600160a01b03165f9081526002602052604090205490565b604051908152f35b91908251928382525f5b84811061023c575050825f602080949584010152601f8019910116010190565b60208183018101518483018201520161021c565b346100d6575f80600319360112610347576102f99061028e7f0000000000000000000000000000000000000000000000000000000000000000610e47565b6102b77f0000000000000000000000000000000000000000000000000000000000000000610f44565b91604051916102c5836108b6565b818352604051948594600f60f81b86526102eb60209360e08589015260e0880190610212565b908682036040880152610212565b904660608601523060808601528260a086015284820360c08601528080855193848152019401925b82811061033057505050500390f35b835185528695509381019392810192600101610321565b80fd5b6040806003193601126100d65760043567ffffffffffffffff8082116100d657366023830112156100d65781600401359081116100d6576024820191602436918360051b0101116100d65790602435926103a384610125565b5f92839283916001600160a01b03871615915b8184106103ff57505050503482036103dc575050806103d157005b6103da91610bc7565b005b516370647f7960e01b8152600481019190915234602482015260449150fd5b0390fd5b9091929461041b908561041388868661069b565b0135906106d1565b946104376104338561042e84878761069b565b6109a8565b1590565b61044d575b61044590610688565b9291906103b6565b9561046161044591866104138a878761069b565b96905061043c565b610472366100da565b60409081810135803403610655575f9161048b816106fe565b92919082156106195781156105e45780156105a7578261059f575b5081610597575b506104cd575b505050156104bd57005b51630a12f52160e11b8152600490fd5b6001600160a01b0381165f908152600260205260409020805460018101909155610574947f842fb24a83793558587a3dab2be7674da4a51d09c5542d6dd354e5d0ea70813c939291819095610563610527602087016106de565b918a61053660a089018961086f565b6105556105458b9693966106de565b9351938492602084019788610985565b03601f1981018352826108f3565b51926060880135f19485925a610bb5565b855193845290151560208401526001600160a01b031691604090a25f80806104b3565b90505f6104ad565b91505f6104a6565b87846103fb6105b5886106de565b9251636422d02b60e11b81526001600160a01b0392831660048201529190921660248201529081906044820190565b6103fb886105f4608088016106eb565b9051634a777ac560e11b815265ffffffffffff90911660048201529081906024820190565b6103fb88610629602088016106de565b905163d2650cd160e01b81526001600160a01b0390911660048201523060248201529081906044820190565b82516370647f7960e01b81526004810191909152346024820152604490fd5b634e487b7160e01b5f52601160045260245ffd5b5f1981146106965760010190565b610674565b91908110156106bd5760051b8101359060de19813603018212156100d6570190565b634e487b7160e01b5f52603260045260245ffd5b9190820180921161069657565b356106e881610125565b90565b3565ffffffffffff811681036100d65790565b9061081d82359161070e83610125565b60208401926108286108226108096107f3873561072a81610125565b896107eb61073a6101f0836106de565b97610555608084019961074c8b6106eb565b61076361075c60a088018861086f565b3691610931565b6020815191012091604051968795602087019960406060840135930135918b9365ffffffffffff9360e09692999897939961010087019a7f7f96328b83274ebc7c1cf4f7a3abda602b51a78b7fa1d86a2ce353d75e587cac885260018060a01b0380921660208901521660408701526060860152608085015260a08401521660c08201520152565b519020610d07565b61080361075c60c08b018b61086f565b90610c3f565b5061081681979297610967565b15966106de565b610b4e565b916106eb565b9484610842575b509365ffffffffffff4291161015929190565b61085d919450610851906106de565b6001600160a01b031690565b6001600160a01b03831614925f61082f565b903590601e19813603018212156100d6570180359067ffffffffffffffff82116100d6576020019181360383136100d657565b634e487b7160e01b5f52604160045260245ffd5b6020810190811067ffffffffffffffff8211176108d257604052565b6108a2565b60c0810190811067ffffffffffffffff8211176108d257604052565b90601f8019910116810190811067ffffffffffffffff8211176108d257604052565b67ffffffffffffffff81116108d257601f01601f191660200190565b92919261093d82610915565b9161094b60405193846108f3565b8294818452818301116100d6578281602093845f960137010152565b6004111561097157565b634e487b7160e01b5f52602160045260245ffd5b826014949392823701906bffffffffffffffffffffffff199060601b1681520190565b91905f926109b5816106fe565b94610a99575b82610a91575b5081610a89575b506109d1575050565b6001600160a01b0382165f908152600260205260409020805460018101909155610a6d94507f842fb24a83793558587a3dab2be7674da4a51d09c5542d6dd354e5d0ea70813c9190925f80610a28602085016106de565b610a3560a086018661086f565b610a56610a41886106de565b91610555604051938492602084019687610985565b51916040870135906060880135f19586925a610bb5565b6040805194855291151560208501526001600160a01b031692a2565b90505f6109c8565b91505f6109c1565b8215610b12578115610add57806109bb5784610ab4856106de565b604051636422d02b60e11b81526001600160a01b03928316600482015291166024820152604490fd5b6103fb610aec608086016106eb565b604051634a777ac560e11b815265ffffffffffff90911660048201529081906024820190565b6103fb610b21602086016106de565b60405163d2650cd160e01b81526001600160a01b0390911660048201523060248201529081906044820190565b60405190602082019063572b6c0560e01b825230602484015260248352606083019183831067ffffffffffffffff8411176108d2576020935f9360405251915afa5f513d82610ba9575b5081610ba2575090565b9050151590565b6020111591505f610b98565b906060603f9101350411610bc557565bfe5b814710610c27575f918291829182916001600160a01b03165af13d15610c22573d610bf181610915565b90610bff60405192836108f3565b81525f60203d92013e5b15610c1057565b604051630a12f52160e11b8152600490fd5b610c09565b60405163cd78605960e01b8152306004820152602490fd5b8151919060418303610c6f57610c689250602082015190606060408401519301515f1a90610c79565b9192909190565b50505f9160029190565b91907f7fffffffffffffffffffffffffffffff5d576e7357a4501ddfe92f46681b20a08411610cfc57926020929160ff6080956040519485521684840152604083015260608201525f92839182805260015afa15610cf05780516001600160a01b03811615610ce757918190565b50809160019190565b604051903d90823e3d90fd5b5050505f9160039190565b604290610d12610d2d565b906040519161190160f01b8352600283015260228201522090565b307f00000000000000000000000000000000000000000000000000000000000000006001600160a01b03161480610e1e575b15610d88577f000000000000000000000000000000000000000000000000000000000000000090565b60405160208101907f8b73c3c69bb8fe3d512ecc4cf759cc79239f7b179b0ffacaa9a75d522b39400f82527f000000000000000000000000000000000000000000000000000000000000000060408201527f000000000000000000000000000000000000000000000000000000000000000060608201524660808201523060a082015260a08152610e18816108d7565b51902090565b507f00000000000000000000000000000000000000000000000000000000000000004614610d5f565b60ff8114610e58576106e89061100e565b506040515f805490600182811c92818116918215610f3a575b6020918286108414610f2657858752869493602086019392918115610f075750600114610ea8575b5050506106e8925003826108f3565b925093610ed55f80527f290decd9548b62a8d60345a988386fc84ba6bc95484008f6362f93160ef3e56390565b945f935b828510610ef1575050506106e89350015f8080610e99565b8654858501529586019587955093810193610ed9565b925050506106e89491925060ff19168252151560051b015f8080610e99565b634e487b7160e01b85526022600452602485fd5b93607f1693610e71565b60ff8114610f55576106e89061100e565b506040516001805480821c915f91808216918215611004575b6020918286108414610f2657858752869493602086019392918115610f075750600114610fa4575050506106e8925003826108f3565b925093610fd260015f527fb10e2d527612073b26eecdfd717e6a320cf44b4afac2b0732d9fcbe2b7fa0cf690565b945f935b828510610fee575050506106e89350015f8080610e99565b8654858501529586019587955093810193610fd6565b93607f1693610f6e565b60ff811690601f821161104357604051916040830183811067ffffffffffffffff8211176108d2576040528252602082015290565b604051632cd44ac360e21b8152600490fdfea264697066735822122064425c091b21815b87b307f33522e3103f64892154db6d5a467389234a8ed18564736f6c63430008140033",
					"opcodes": "PUSH2 0x180 DUP1 PUSH1 0x40 MSTORE CALLVALUE PUSH3 0x174 JUMPI PUSH3 0x17 DUP2 PUSH3 0x178 JUMP JUMPDEST PUSH1 0x7 DUP2 MSTORE PUSH1 0x20 DUP2 ADD PUSH7 0x466163746F7279 PUSH1 0xC8 SHL DUP2 MSTORE PUSH1 0x40 MLOAD SWAP2 PUSH3 0x3B DUP4 PUSH3 0x178 JUMP JUMPDEST PUSH1 0x1 DUP4 MSTORE PUSH1 0x20 DUP4 ADD SWAP2 PUSH1 0x31 PUSH1 0xF8 SHL DUP4 MSTORE PUSH20 0xAB8483F64D9C6D1ECF9B849AE677DD3315835CB2 PUSH1 0x80 MSTORE PUSH3 0x6E DUP3 PUSH3 0x194 JUMP JUMPDEST SWAP1 PUSH2 0x140 SWAP2 DUP3 MSTORE PUSH3 0x80 DUP6 PUSH3 0x361 JUMP JUMPDEST SWAP3 PUSH2 0x160 SWAP4 DUP5 MSTORE MLOAD SWAP1 KECCAK256 SWAP3 PUSH2 0x100 SWAP5 DUP5 DUP7 MSTORE MLOAD SWAP1 KECCAK256 SWAP3 PUSH2 0x120 SWAP1 DUP5 DUP3 MSTORE CHAINID PUSH1 0xC0 MSTORE PUSH1 0x40 MLOAD SWAP5 PUSH1 0x20 DUP7 ADD SWAP2 PUSH32 0x8B73C3C69BB8FE3D512ECC4CF759CC79239F7B179B0FFACAA9A75D522B39400F DUP4 MSTORE PUSH1 0x40 DUP8 ADD MSTORE PUSH1 0x60 DUP7 ADD MSTORE CHAINID PUSH1 0x80 DUP7 ADD MSTORE ADDRESS PUSH1 0xA0 DUP7 ADD MSTORE PUSH1 0xA0 DUP6 MSTORE PUSH1 0xC0 DUP6 ADD SWAP5 DUP1 DUP7 LT PUSH1 0x1 DUP1 PUSH1 0x40 SHL SUB DUP8 GT OR PUSH3 0x160 JUMPI DUP6 PUSH1 0x40 MSTORE MLOAD SWAP1 KECCAK256 PUSH1 0xA0 MSTORE ADDRESS PUSH1 0xE0 MSTORE PUSH2 0x108B SWAP5 DUP6 PUSH3 0x503 DUP7 CODECOPY PUSH1 0x80 MLOAD DUP6 DUP2 DUP2 PUSH2 0x163 ADD MSTORE PUSH2 0x19F ADD MSTORE PUSH1 0xA0 MLOAD DUP6 PUSH2 0xD66 ADD MSTORE PUSH1 0xC0 MLOAD DUP6 PUSH2 0xE21 ADD MSTORE PUSH1 0xE0 MLOAD DUP6 PUSH2 0xD30 ADD MSTORE MLOAD DUP5 PUSH2 0xDB5 ADD MSTORE MLOAD DUP4 PUSH2 0xDDB ADD MSTORE MLOAD DUP3 PUSH2 0x26A ADD MSTORE MLOAD DUP2 PUSH2 0x293 ADD MSTORE RETURN JUMPDEST PUSH4 0x4E487B71 PUSH1 0xE0 SHL PUSH0 MSTORE PUSH1 0x41 PUSH1 0x4 MSTORE PUSH1 0x24 PUSH0 REVERT JUMPDEST PUSH0 DUP1 REVERT JUMPDEST PUSH1 0x40 DUP2 ADD SWAP1 DUP2 LT PUSH1 0x1 PUSH1 0x1 PUSH1 0x40 SHL SUB DUP3 GT OR PUSH3 0x160 JUMPI PUSH1 0x40 MSTORE JUMP JUMPDEST DUP1 MLOAD PUSH1 0x20 SWAP2 SWAP1 DUP3 DUP2 LT ISZERO PUSH3 0x230 JUMPI POP SWAP1 PUSH1 0x1F DUP3 MLOAD GT PUSH3 0x1D1 JUMPI DUP1 DUP3 MLOAD SWAP3 ADD MLOAD SWAP1 DUP1 DUP4 LT PUSH3 0x1C3 JUMPI POP OR SWAP1 JUMP JUMPDEST DUP3 PUSH0 NOT SWAP2 SUB PUSH1 0x3 SHL SHL AND OR SWAP1 JUMP JUMPDEST SWAP1 PUSH1 0x40 MLOAD DUP1 SWAP3 PUSH4 0x305A27A9 PUSH1 0xE0 SHL DUP3 MSTORE DUP1 PUSH1 0x4 DUP4 ADD MSTORE DUP3 MLOAD SWAP1 DUP2 PUSH1 0x24 DUP5 ADD MSTORE PUSH0 SWAP4 JUMPDEST DUP3 DUP6 LT PUSH3 0x216 JUMPI POP POP PUSH1 0x44 SWAP3 POP PUSH0 DUP4 DUP3 DUP5 ADD ADD MSTORE PUSH1 0x1F DUP1 NOT SWAP2 ADD AND DUP2 ADD SUB ADD SWAP1 REVERT JUMPDEST DUP5 DUP2 ADD DUP3 ADD MLOAD DUP7 DUP7 ADD PUSH1 0x44 ADD MSTORE SWAP4 DUP2 ADD SWAP4 DUP6 SWAP4 POP PUSH3 0x1F3 JUMP JUMPDEST PUSH1 0x1 PUSH1 0x1 PUSH1 0x40 SHL SUB DUP2 GT PUSH3 0x160 JUMPI PUSH0 SWAP3 DUP4 SLOAD SWAP3 PUSH1 0x1 SWAP4 DUP5 DUP2 DUP2 SHR SWAP2 AND DUP1 ISZERO PUSH3 0x356 JUMPI JUMPDEST DUP4 DUP3 LT EQ PUSH3 0x342 JUMPI PUSH1 0x1F DUP2 GT PUSH3 0x30C JUMPI JUMPDEST POP DUP2 PUSH1 0x1F DUP5 GT PUSH1 0x1 EQ PUSH3 0x2A6 JUMPI POP SWAP3 DUP3 SWAP4 SWAP2 DUP4 SWAP3 DUP7 SWAP5 PUSH3 0x29A JUMPI JUMPDEST POP POP SHL SWAP2 PUSH0 NOT SWAP1 PUSH1 0x3 SHL SHR NOT AND OR SWAP1 SSTORE PUSH1 0xFF SWAP1 JUMP JUMPDEST ADD MLOAD SWAP3 POP PUSH0 DUP1 PUSH3 0x285 JUMP JUMPDEST SWAP2 SWAP1 DUP4 PUSH1 0x1F NOT DUP2 AND DUP8 DUP1 MSTORE DUP5 DUP9 KECCAK256 SWAP5 DUP9 SWAP1 JUMPDEST DUP9 DUP4 DUP4 LT PUSH3 0x2F1 JUMPI POP POP POP LT PUSH3 0x2D8 JUMPI JUMPDEST POP POP POP DUP2 SHL ADD SWAP1 SSTORE PUSH1 0xFF SWAP1 JUMP JUMPDEST ADD MLOAD PUSH0 NOT PUSH1 0xF8 DUP5 PUSH1 0x3 SHL AND SHR NOT AND SWAP1 SSTORE PUSH0 DUP1 DUP1 PUSH3 0x2CB JUMP JUMPDEST DUP6 DUP8 ADD MLOAD DUP9 SSTORE SWAP1 SWAP7 ADD SWAP6 SWAP5 DUP6 ADD SWAP5 DUP8 SWAP4 POP SWAP1 DUP2 ADD SWAP1 PUSH3 0x2B8 JUMP JUMPDEST DUP6 DUP1 MSTORE DUP5 PUSH1 0x1F DUP5 DUP9 KECCAK256 SWAP3 ADD PUSH1 0x5 SHR DUP3 ADD SWAP2 PUSH1 0x1F DUP7 ADD PUSH1 0x5 SHR ADD JUMPDEST DUP3 DUP2 LT PUSH3 0x336 JUMPI POP POP PUSH3 0x268 JUMP JUMPDEST DUP8 DUP2 SSTORE ADD DUP6 SWAP1 PUSH3 0x326 JUMP JUMPDEST PUSH4 0x4E487B71 PUSH1 0xE0 SHL DUP7 MSTORE PUSH1 0x22 PUSH1 0x4 MSTORE PUSH1 0x24 DUP7 REVERT JUMPDEST SWAP1 PUSH1 0x7F AND SWAP1 PUSH3 0x255 JUMP JUMPDEST DUP1 MLOAD PUSH1 0x20 SWAP1 DUP2 DUP2 LT ISZERO PUSH3 0x3ED JUMPI POP PUSH1 0x1F DUP3 MLOAD GT PUSH3 0x38E JUMPI DUP1 DUP3 MLOAD SWAP3 ADD MLOAD SWAP1 DUP1 DUP4 LT PUSH3 0x1C3 JUMPI POP OR SWAP1 JUMP JUMPDEST SWAP1 PUSH1 0x40 MLOAD DUP1 SWAP3 PUSH4 0x305A27A9 PUSH1 0xE0 SHL DUP3 MSTORE DUP1 PUSH1 0x4 DUP4 ADD MSTORE DUP3 MLOAD SWAP1 DUP2 PUSH1 0x24 DUP5 ADD MSTORE PUSH0 SWAP4 JUMPDEST DUP3 DUP6 LT PUSH3 0x3D3 JUMPI POP POP PUSH1 0x44 SWAP3 POP PUSH0 DUP4 DUP3 DUP5 ADD ADD MSTORE PUSH1 0x1F DUP1 NOT SWAP2 ADD AND DUP2 ADD SUB ADD SWAP1 REVERT JUMPDEST DUP5 DUP2 ADD DUP3 ADD MLOAD DUP7 DUP7 ADD PUSH1 0x44 ADD MSTORE SWAP4 DUP2 ADD SWAP4 DUP6 SWAP4 POP PUSH3 0x3B0 JUMP JUMPDEST SWAP2 SWAP3 SWAP2 PUSH1 0x1 PUSH1 0x1 PUSH1 0x40 SHL SUB DUP2 GT PUSH3 0x160 JUMPI PUSH1 0x1 SWAP2 DUP3 SLOAD DUP4 DUP2 DUP2 SHR SWAP2 AND DUP1 ISZERO PUSH3 0x4F7 JUMPI JUMPDEST DUP3 DUP3 LT EQ PUSH3 0x4E3 JUMPI PUSH1 0x1F DUP2 GT PUSH3 0x4AD JUMPI JUMPDEST POP DUP1 PUSH1 0x1F DUP4 GT PUSH1 0x1 EQ PUSH3 0x463 JUMPI POP DUP2 SWAP3 SWAP4 SWAP5 PUSH0 SWAP3 PUSH3 0x457 JUMPI JUMPDEST POP POP PUSH0 NOT PUSH1 0x3 DUP4 SWAP1 SHL SHR NOT AND SWAP1 DUP3 SHL OR SWAP1 SSTORE PUSH1 0xFF SWAP1 JUMP JUMPDEST ADD MLOAD SWAP1 POP PUSH0 DUP1 PUSH3 0x440 JUMP JUMPDEST SWAP1 PUSH1 0x1F NOT DUP4 AND SWAP6 DUP5 PUSH0 MSTORE DUP3 PUSH0 KECCAK256 SWAP3 PUSH0 SWAP1 JUMPDEST DUP9 DUP3 LT PUSH3 0x495 JUMPI POP POP DUP4 DUP6 SWAP7 SWAP8 LT PUSH3 0x2D8 JUMPI POP POP POP DUP2 SHL ADD SWAP1 SSTORE PUSH1 0xFF SWAP1 JUMP JUMPDEST DUP1 DUP8 DUP6 SWAP7 DUP3 SWAP5 SWAP7 DUP7 ADD MLOAD DUP2 SSTORE ADD SWAP6 ADD SWAP4 ADD SWAP1 PUSH3 0x474 JUMP JUMPDEST DUP4 PUSH0 MSTORE DUP4 PUSH1 0x1F DUP4 PUSH0 KECCAK256 SWAP3 ADD PUSH1 0x5 SHR DUP3 ADD SWAP2 PUSH1 0x1F DUP6 ADD PUSH1 0x5 SHR ADD JUMPDEST DUP3 DUP2 LT PUSH3 0x4D7 JUMPI POP POP PUSH3 0x425 JUMP JUMPDEST PUSH0 DUP2 SSTORE ADD DUP5 SWAP1 PUSH3 0x4C7 JUMP JUMPDEST PUSH4 0x4E487B71 PUSH1 0xE0 SHL PUSH0 MSTORE PUSH1 0x22 PUSH1 0x4 MSTORE PUSH1 0x24 PUSH0 REVERT JUMPDEST SWAP1 PUSH1 0x7F AND SWAP1 PUSH3 0x412 JUMP INVALID PUSH1 0x80 PUSH1 0x40 MSTORE PUSH1 0x4 CALLDATASIZE LT ISZERO PUSH2 0x11 JUMPI PUSH0 DUP1 REVERT JUMPDEST PUSH0 CALLDATALOAD PUSH1 0xE0 SHR DUP1 PUSH4 0x19D8D38C EQ PUSH2 0x94 JUMPI DUP1 PUSH4 0x3FB5C1CB EQ PUSH2 0x8F JUMPI DUP1 PUSH4 0x572B6C05 EQ PUSH2 0x8A JUMPI DUP1 PUSH4 0x7DA0A877 EQ PUSH2 0x85 JUMPI DUP1 PUSH4 0x7ECEBE00 EQ PUSH2 0x80 JUMPI DUP1 PUSH4 0x84B0196E EQ PUSH2 0x7B JUMPI DUP1 PUSH4 0xCCF96B4A EQ PUSH2 0x76 JUMPI PUSH4 0xDF905CAF EQ PUSH2 0x71 JUMPI PUSH0 DUP1 REVERT JUMPDEST PUSH2 0x469 JUMP JUMPDEST PUSH2 0x34A JUMP JUMPDEST PUSH2 0x250 JUMP JUMPDEST PUSH2 0x1CE JUMP JUMPDEST PUSH2 0x18A JUMP JUMPDEST PUSH2 0x136 JUMP JUMPDEST PUSH2 0x10C JUMP JUMPDEST CALLVALUE PUSH2 0xD6 JUMPI PUSH1 0x20 PUSH2 0xAC PUSH2 0xA7 CALLDATASIZE PUSH2 0xDA JUMP JUMPDEST PUSH2 0x6FE JUMP JUMPDEST POP SWAP1 DUP3 PUSH2 0xCE JUMPI JUMPDEST POP DUP2 PUSH2 0xC6 JUMPI JUMPDEST POP PUSH1 0x40 MLOAD SWAP1 ISZERO ISZERO DUP2 MSTORE RETURN JUMPDEST SWAP1 POP DUP3 PUSH2 0xBB JUMP JUMPDEST SWAP2 POP DUP4 PUSH2 0xB4 JUMP JUMPDEST PUSH0 DUP1 REVERT JUMPDEST PUSH1 0x3 NOT SWAP1 PUSH1 0x20 DUP2 DUP4 ADD SLT PUSH2 0xD6 JUMPI PUSH1 0x4 CALLDATALOAD SWAP2 PUSH8 0xFFFFFFFFFFFFFFFF DUP4 GT PUSH2 0xD6 JUMPI DUP3 PUSH1 0xE0 SWAP3 SUB ADD SLT PUSH2 0xD6 JUMPI PUSH1 0x4 ADD SWAP1 JUMP JUMPDEST CALLVALUE PUSH2 0xD6 JUMPI PUSH1 0x20 CALLDATASIZE PUSH1 0x3 NOT ADD SLT PUSH2 0xD6 JUMPI PUSH1 0x4 CALLDATALOAD PUSH1 0x3 SSTORE STOP JUMPDEST PUSH1 0x1 PUSH1 0x1 PUSH1 0xA0 SHL SUB DUP2 AND SUB PUSH2 0xD6 JUMPI JUMP JUMPDEST CALLVALUE PUSH2 0xD6 JUMPI PUSH1 0x20 CALLDATASIZE PUSH1 0x3 NOT ADD SLT PUSH2 0xD6 JUMPI PUSH1 0x20 PUSH1 0x4 CALLDATALOAD PUSH2 0x155 DUP2 PUSH2 0x125 JUMP JUMPDEST PUSH1 0x40 MLOAD SWAP1 PUSH1 0x1 DUP1 PUSH1 0xA0 SHL SUB DUP1 PUSH32 0x0 AND SWAP2 AND EQ DUP2 MSTORE RETURN JUMPDEST CALLVALUE PUSH2 0xD6 JUMPI PUSH0 CALLDATASIZE PUSH1 0x3 NOT ADD SLT PUSH2 0xD6 JUMPI PUSH1 0x40 MLOAD PUSH32 0x0 PUSH1 0x1 PUSH1 0x1 PUSH1 0xA0 SHL SUB AND DUP2 MSTORE PUSH1 0x20 SWAP1 RETURN JUMPDEST CALLVALUE PUSH2 0xD6 JUMPI PUSH1 0x20 CALLDATASIZE PUSH1 0x3 NOT ADD SLT PUSH2 0xD6 JUMPI PUSH1 0x20 PUSH2 0x20A PUSH1 0x4 CALLDATALOAD PUSH2 0x1F0 DUP2 PUSH2 0x125 JUMP JUMPDEST PUSH1 0x1 PUSH1 0x1 PUSH1 0xA0 SHL SUB AND PUSH0 SWAP1 DUP2 MSTORE PUSH1 0x2 PUSH1 0x20 MSTORE PUSH1 0x40 SWAP1 KECCAK256 SLOAD SWAP1 JUMP JUMPDEST PUSH1 0x40 MLOAD SWAP1 DUP2 MSTORE RETURN JUMPDEST SWAP2 SWAP1 DUP3 MLOAD SWAP3 DUP4 DUP3 MSTORE PUSH0 JUMPDEST DUP5 DUP2 LT PUSH2 0x23C JUMPI POP POP DUP3 PUSH0 PUSH1 0x20 DUP1 SWAP5 SWAP6 DUP5 ADD ADD MSTORE PUSH1 0x1F DUP1 NOT SWAP2 ADD AND ADD ADD SWAP1 JUMP JUMPDEST PUSH1 0x20 DUP2 DUP4 ADD DUP2 ADD MLOAD DUP5 DUP4 ADD DUP3 ADD MSTORE ADD PUSH2 0x21C JUMP JUMPDEST CALLVALUE PUSH2 0xD6 JUMPI PUSH0 DUP1 PUSH1 0x3 NOT CALLDATASIZE ADD SLT PUSH2 0x347 JUMPI PUSH2 0x2F9 SWAP1 PUSH2 0x28E PUSH32 0x0 PUSH2 0xE47 JUMP JUMPDEST PUSH2 0x2B7 PUSH32 0x0 PUSH2 0xF44 JUMP JUMPDEST SWAP2 PUSH1 0x40 MLOAD SWAP2 PUSH2 0x2C5 DUP4 PUSH2 0x8B6 JUMP JUMPDEST DUP2 DUP4 MSTORE PUSH1 0x40 MLOAD SWAP5 DUP6 SWAP5 PUSH1 0xF PUSH1 0xF8 SHL DUP7 MSTORE PUSH2 0x2EB PUSH1 0x20 SWAP4 PUSH1 0xE0 DUP6 DUP10 ADD MSTORE PUSH1 0xE0 DUP9 ADD SWAP1 PUSH2 0x212 JUMP JUMPDEST SWAP1 DUP7 DUP3 SUB PUSH1 0x40 DUP9 ADD MSTORE PUSH2 0x212 JUMP JUMPDEST SWAP1 CHAINID PUSH1 0x60 DUP7 ADD MSTORE ADDRESS PUSH1 0x80 DUP7 ADD MSTORE DUP3 PUSH1 0xA0 DUP7 ADD MSTORE DUP5 DUP3 SUB PUSH1 0xC0 DUP7 ADD MSTORE DUP1 DUP1 DUP6 MLOAD SWAP4 DUP5 DUP2 MSTORE ADD SWAP5 ADD SWAP3 JUMPDEST DUP3 DUP2 LT PUSH2 0x330 JUMPI POP POP POP POP SUB SWAP1 RETURN JUMPDEST DUP4 MLOAD DUP6 MSTORE DUP7 SWAP6 POP SWAP4 DUP2 ADD SWAP4 SWAP3 DUP2 ADD SWAP3 PUSH1 0x1 ADD PUSH2 0x321 JUMP JUMPDEST DUP1 REVERT JUMPDEST PUSH1 0x40 DUP1 PUSH1 0x3 NOT CALLDATASIZE ADD SLT PUSH2 0xD6 JUMPI PUSH1 0x4 CALLDATALOAD PUSH8 0xFFFFFFFFFFFFFFFF DUP1 DUP3 GT PUSH2 0xD6 JUMPI CALLDATASIZE PUSH1 0x23 DUP4 ADD SLT ISZERO PUSH2 0xD6 JUMPI DUP2 PUSH1 0x4 ADD CALLDATALOAD SWAP1 DUP2 GT PUSH2 0xD6 JUMPI PUSH1 0x24 DUP3 ADD SWAP2 PUSH1 0x24 CALLDATASIZE SWAP2 DUP4 PUSH1 0x5 SHL ADD ADD GT PUSH2 0xD6 JUMPI SWAP1 PUSH1 0x24 CALLDATALOAD SWAP3 PUSH2 0x3A3 DUP5 PUSH2 0x125 JUMP JUMPDEST PUSH0 SWAP3 DUP4 SWAP3 DUP4 SWAP2 PUSH1 0x1 PUSH1 0x1 PUSH1 0xA0 SHL SUB DUP8 AND ISZERO SWAP2 JUMPDEST DUP2 DUP5 LT PUSH2 0x3FF JUMPI POP POP POP POP CALLVALUE DUP3 SUB PUSH2 0x3DC JUMPI POP POP DUP1 PUSH2 0x3D1 JUMPI STOP JUMPDEST PUSH2 0x3DA SWAP2 PUSH2 0xBC7 JUMP JUMPDEST STOP JUMPDEST MLOAD PUSH4 0x70647F79 PUSH1 0xE0 SHL DUP2 MSTORE PUSH1 0x4 DUP2 ADD SWAP2 SWAP1 SWAP2 MSTORE CALLVALUE PUSH1 0x24 DUP3 ADD MSTORE PUSH1 0x44 SWAP2 POP REVERT JUMPDEST SUB SWAP1 REVERT JUMPDEST SWAP1 SWAP2 SWAP3 SWAP5 PUSH2 0x41B SWAP1 DUP6 PUSH2 0x413 DUP9 DUP7 DUP7 PUSH2 0x69B JUMP JUMPDEST ADD CALLDATALOAD SWAP1 PUSH2 0x6D1 JUMP JUMPDEST SWAP5 PUSH2 0x437 PUSH2 0x433 DUP6 PUSH2 0x42E DUP5 DUP8 DUP8 PUSH2 0x69B JUMP JUMPDEST PUSH2 0x9A8 JUMP JUMPDEST ISZERO SWAP1 JUMP JUMPDEST PUSH2 0x44D JUMPI JUMPDEST PUSH2 0x445 SWAP1 PUSH2 0x688 JUMP JUMPDEST SWAP3 SWAP2 SWAP1 PUSH2 0x3B6 JUMP JUMPDEST SWAP6 PUSH2 0x461 PUSH2 0x445 SWAP2 DUP7 PUSH2 0x413 DUP11 DUP8 DUP8 PUSH2 0x69B JUMP JUMPDEST SWAP7 SWAP1 POP PUSH2 0x43C JUMP JUMPDEST PUSH2 0x472 CALLDATASIZE PUSH2 0xDA JUMP JUMPDEST PUSH1 0x40 SWAP1 DUP2 DUP2 ADD CALLDATALOAD DUP1 CALLVALUE SUB PUSH2 0x655 JUMPI PUSH0 SWAP2 PUSH2 0x48B DUP2 PUSH2 0x6FE JUMP JUMPDEST SWAP3 SWAP2 SWAP1 DUP3 ISZERO PUSH2 0x619 JUMPI DUP2 ISZERO PUSH2 0x5E4 JUMPI DUP1 ISZERO PUSH2 0x5A7 JUMPI DUP3 PUSH2 0x59F JUMPI JUMPDEST POP DUP2 PUSH2 0x597 JUMPI JUMPDEST POP PUSH2 0x4CD JUMPI JUMPDEST POP POP POP ISZERO PUSH2 0x4BD JUMPI STOP JUMPDEST MLOAD PUSH4 0xA12F521 PUSH1 0xE1 SHL DUP2 MSTORE PUSH1 0x4 SWAP1 REVERT JUMPDEST PUSH1 0x1 PUSH1 0x1 PUSH1 0xA0 SHL SUB DUP2 AND PUSH0 SWAP1 DUP2 MSTORE PUSH1 0x2 PUSH1 0x20 MSTORE PUSH1 0x40 SWAP1 KECCAK256 DUP1 SLOAD PUSH1 0x1 DUP2 ADD SWAP1 SWAP2 SSTORE PUSH2 0x574 SWAP5 PUSH32 0x842FB24A83793558587A3DAB2BE7674DA4A51D09C5542D6DD354E5D0EA70813C SWAP4 SWAP3 SWAP2 DUP2 SWAP1 SWAP6 PUSH2 0x563 PUSH2 0x527 PUSH1 0x20 DUP8 ADD PUSH2 0x6DE JUMP JUMPDEST SWAP2 DUP11 PUSH2 0x536 PUSH1 0xA0 DUP10 ADD DUP10 PUSH2 0x86F JUMP JUMPDEST PUSH2 0x555 PUSH2 0x545 DUP12 SWAP7 SWAP4 SWAP7 PUSH2 0x6DE JUMP JUMPDEST SWAP4 MLOAD SWAP4 DUP5 SWAP3 PUSH1 0x20 DUP5 ADD SWAP8 DUP9 PUSH2 0x985 JUMP JUMPDEST SUB PUSH1 0x1F NOT DUP2 ADD DUP4 MSTORE DUP3 PUSH2 0x8F3 JUMP JUMPDEST MLOAD SWAP3 PUSH1 0x60 DUP9 ADD CALLDATALOAD CALL SWAP5 DUP6 SWAP3 GAS PUSH2 0xBB5 JUMP JUMPDEST DUP6 MLOAD SWAP4 DUP5 MSTORE SWAP1 ISZERO ISZERO PUSH1 0x20 DUP5 ADD MSTORE PUSH1 0x1 PUSH1 0x1 PUSH1 0xA0 SHL SUB AND SWAP2 PUSH1 0x40 SWAP1 LOG2 PUSH0 DUP1 DUP1 PUSH2 0x4B3 JUMP JUMPDEST SWAP1 POP PUSH0 PUSH2 0x4AD JUMP JUMPDEST SWAP2 POP PUSH0 PUSH2 0x4A6 JUMP JUMPDEST DUP8 DUP5 PUSH2 0x3FB PUSH2 0x5B5 DUP9 PUSH2 0x6DE JUMP JUMPDEST SWAP3 MLOAD PUSH4 0x6422D02B PUSH1 0xE1 SHL DUP2 MSTORE PUSH1 0x1 PUSH1 0x1 PUSH1 0xA0 SHL SUB SWAP3 DUP4 AND PUSH1 0x4 DUP3 ADD MSTORE SWAP2 SWAP1 SWAP3 AND PUSH1 0x24 DUP3 ADD MSTORE SWAP1 DUP2 SWAP1 PUSH1 0x44 DUP3 ADD SWAP1 JUMP JUMPDEST PUSH2 0x3FB DUP9 PUSH2 0x5F4 PUSH1 0x80 DUP9 ADD PUSH2 0x6EB JUMP JUMPDEST SWAP1 MLOAD PUSH4 0x4A777AC5 PUSH1 0xE1 SHL DUP2 MSTORE PUSH6 0xFFFFFFFFFFFF SWAP1 SWAP2 AND PUSH1 0x4 DUP3 ADD MSTORE SWAP1 DUP2 SWAP1 PUSH1 0x24 DUP3 ADD SWAP1 JUMP JUMPDEST PUSH2 0x3FB DUP9 PUSH2 0x629 PUSH1 0x20 DUP9 ADD PUSH2 0x6DE JUMP JUMPDEST SWAP1 MLOAD PUSH4 0xD2650CD1 PUSH1 0xE0 SHL DUP2 MSTORE PUSH1 0x1 PUSH1 0x1 PUSH1 0xA0 SHL SUB SWAP1 SWAP2 AND PUSH1 0x4 DUP3 ADD MSTORE ADDRESS PUSH1 0x24 DUP3 ADD MSTORE SWAP1 DUP2 SWAP1 PUSH1 0x44 DUP3 ADD SWAP1 JUMP JUMPDEST DUP3 MLOAD PUSH4 0x70647F79 PUSH1 0xE0 SHL DUP2 MSTORE PUSH1 0x4 DUP2 ADD SWAP2 SWAP1 SWAP2 MSTORE CALLVALUE PUSH1 0x24 DUP3 ADD MSTORE PUSH1 0x44 SWAP1 REVERT JUMPDEST PUSH4 0x4E487B71 PUSH1 0xE0 SHL PUSH0 MSTORE PUSH1 0x11 PUSH1 0x4 MSTORE PUSH1 0x24 PUSH0 REVERT JUMPDEST PUSH0 NOT DUP2 EQ PUSH2 0x696 JUMPI PUSH1 0x1 ADD SWAP1 JUMP JUMPDEST PUSH2 0x674 JUMP JUMPDEST SWAP2 SWAP1 DUP2 LT ISZERO PUSH2 0x6BD JUMPI PUSH1 0x5 SHL DUP2 ADD CALLDATALOAD SWAP1 PUSH1 0xDE NOT DUP2 CALLDATASIZE SUB ADD DUP3 SLT ISZERO PUSH2 0xD6 JUMPI ADD SWAP1 JUMP JUMPDEST PUSH4 0x4E487B71 PUSH1 0xE0 SHL PUSH0 MSTORE PUSH1 0x32 PUSH1 0x4 MSTORE PUSH1 0x24 PUSH0 REVERT JUMPDEST SWAP2 SWAP1 DUP3 ADD DUP1 SWAP3 GT PUSH2 0x696 JUMPI JUMP JUMPDEST CALLDATALOAD PUSH2 0x6E8 DUP2 PUSH2 0x125 JUMP JUMPDEST SWAP1 JUMP JUMPDEST CALLDATALOAD PUSH6 0xFFFFFFFFFFFF DUP2 AND DUP2 SUB PUSH2 0xD6 JUMPI SWAP1 JUMP JUMPDEST SWAP1 PUSH2 0x81D DUP3 CALLDATALOAD SWAP2 PUSH2 0x70E DUP4 PUSH2 0x125 JUMP JUMPDEST PUSH1 0x20 DUP5 ADD SWAP3 PUSH2 0x828 PUSH2 0x822 PUSH2 0x809 PUSH2 0x7F3 DUP8 CALLDATALOAD PUSH2 0x72A DUP2 PUSH2 0x125 JUMP JUMPDEST DUP10 PUSH2 0x7EB PUSH2 0x73A PUSH2 0x1F0 DUP4 PUSH2 0x6DE JUMP JUMPDEST SWAP8 PUSH2 0x555 PUSH1 0x80 DUP5 ADD SWAP10 PUSH2 0x74C DUP12 PUSH2 0x6EB JUMP JUMPDEST PUSH2 0x763 PUSH2 0x75C PUSH1 0xA0 DUP9 ADD DUP9 PUSH2 0x86F JUMP JUMPDEST CALLDATASIZE SWAP2 PUSH2 0x931 JUMP JUMPDEST PUSH1 0x20 DUP2 MLOAD SWAP2 ADD KECCAK256 SWAP2 PUSH1 0x40 MLOAD SWAP7 DUP8 SWAP6 PUSH1 0x20 DUP8 ADD SWAP10 PUSH1 0x40 PUSH1 0x60 DUP5 ADD CALLDATALOAD SWAP4 ADD CALLDATALOAD SWAP2 DUP12 SWAP4 PUSH6 0xFFFFFFFFFFFF SWAP4 PUSH1 0xE0 SWAP7 SWAP3 SWAP10 SWAP9 SWAP8 SWAP4 SWAP10 PUSH2 0x100 DUP8 ADD SWAP11 PUSH32 0x7F96328B83274EBC7C1CF4F7A3ABDA602B51A78B7FA1D86A2CE353D75E587CAC DUP9 MSTORE PUSH1 0x1 DUP1 PUSH1 0xA0 SHL SUB DUP1 SWAP3 AND PUSH1 0x20 DUP10 ADD MSTORE AND PUSH1 0x40 DUP8 ADD MSTORE PUSH1 0x60 DUP7 ADD MSTORE PUSH1 0x80 DUP6 ADD MSTORE PUSH1 0xA0 DUP5 ADD MSTORE AND PUSH1 0xC0 DUP3 ADD MSTORE ADD MSTORE JUMP JUMPDEST MLOAD SWAP1 KECCAK256 PUSH2 0xD07 JUMP JUMPDEST PUSH2 0x803 PUSH2 0x75C PUSH1 0xC0 DUP12 ADD DUP12 PUSH2 0x86F JUMP JUMPDEST SWAP1 PUSH2 0xC3F JUMP JUMPDEST POP PUSH2 0x816 DUP2 SWAP8 SWAP3 SWAP8 PUSH2 0x967 JUMP JUMPDEST ISZERO SWAP7 PUSH2 0x6DE JUMP JUMPDEST PUSH2 0xB4E JUMP JUMPDEST SWAP2 PUSH2 0x6EB JUMP JUMPDEST SWAP5 DUP5 PUSH2 0x842 JUMPI JUMPDEST POP SWAP4 PUSH6 0xFFFFFFFFFFFF TIMESTAMP SWAP2 AND LT ISZERO SWAP3 SWAP2 SWAP1 JUMP JUMPDEST PUSH2 0x85D SWAP2 SWAP5 POP PUSH2 0x851 SWAP1 PUSH2 0x6DE JUMP JUMPDEST PUSH1 0x1 PUSH1 0x1 PUSH1 0xA0 SHL SUB AND SWAP1 JUMP JUMPDEST PUSH1 0x1 PUSH1 0x1 PUSH1 0xA0 SHL SUB DUP4 AND EQ SWAP3 PUSH0 PUSH2 0x82F JUMP JUMPDEST SWAP1 CALLDATALOAD SWAP1 PUSH1 0x1E NOT DUP2 CALLDATASIZE SUB ADD DUP3 SLT ISZERO PUSH2 0xD6 JUMPI ADD DUP1 CALLDATALOAD SWAP1 PUSH8 0xFFFFFFFFFFFFFFFF DUP3 GT PUSH2 0xD6 JUMPI PUSH1 0x20 ADD SWAP2 DUP2 CALLDATASIZE SUB DUP4 SGT PUSH2 0xD6 JUMPI JUMP JUMPDEST PUSH4 0x4E487B71 PUSH1 0xE0 SHL PUSH0 MSTORE PUSH1 0x41 PUSH1 0x4 MSTORE PUSH1 0x24 PUSH0 REVERT JUMPDEST PUSH1 0x20 DUP2 ADD SWAP1 DUP2 LT PUSH8 0xFFFFFFFFFFFFFFFF DUP3 GT OR PUSH2 0x8D2 JUMPI PUSH1 0x40 MSTORE JUMP JUMPDEST PUSH2 0x8A2 JUMP JUMPDEST PUSH1 0xC0 DUP2 ADD SWAP1 DUP2 LT PUSH8 0xFFFFFFFFFFFFFFFF DUP3 GT OR PUSH2 0x8D2 JUMPI PUSH1 0x40 MSTORE JUMP JUMPDEST SWAP1 PUSH1 0x1F DUP1 NOT SWAP2 ADD AND DUP2 ADD SWAP1 DUP2 LT PUSH8 0xFFFFFFFFFFFFFFFF DUP3 GT OR PUSH2 0x8D2 JUMPI PUSH1 0x40 MSTORE JUMP JUMPDEST PUSH8 0xFFFFFFFFFFFFFFFF DUP2 GT PUSH2 0x8D2 JUMPI PUSH1 0x1F ADD PUSH1 0x1F NOT AND PUSH1 0x20 ADD SWAP1 JUMP JUMPDEST SWAP3 SWAP2 SWAP3 PUSH2 0x93D DUP3 PUSH2 0x915 JUMP JUMPDEST SWAP2 PUSH2 0x94B PUSH1 0x40 MLOAD SWAP4 DUP5 PUSH2 0x8F3 JUMP JUMPDEST DUP3 SWAP5 DUP2 DUP5 MSTORE DUP2 DUP4 ADD GT PUSH2 0xD6 JUMPI DUP3 DUP2 PUSH1 0x20 SWAP4 DUP5 PUSH0 SWAP7 ADD CALLDATACOPY ADD ADD MSTORE JUMP JUMPDEST PUSH1 0x4 GT ISZERO PUSH2 0x971 JUMPI JUMP JUMPDEST PUSH4 0x4E487B71 PUSH1 0xE0 SHL PUSH0 MSTORE PUSH1 0x21 PUSH1 0x4 MSTORE PUSH1 0x24 PUSH0 REVERT JUMPDEST DUP3 PUSH1 0x14 SWAP5 SWAP4 SWAP3 DUP3 CALLDATACOPY ADD SWAP1 PUSH12 0xFFFFFFFFFFFFFFFFFFFFFFFF NOT SWAP1 PUSH1 0x60 SHL AND DUP2 MSTORE ADD SWAP1 JUMP JUMPDEST SWAP2 SWAP1 PUSH0 SWAP3 PUSH2 0x9B5 DUP2 PUSH2 0x6FE JUMP JUMPDEST SWAP5 PUSH2 0xA99 JUMPI JUMPDEST DUP3 PUSH2 0xA91 JUMPI JUMPDEST POP DUP2 PUSH2 0xA89 JUMPI JUMPDEST POP PUSH2 0x9D1 JUMPI POP POP JUMP JUMPDEST PUSH1 0x1 PUSH1 0x1 PUSH1 0xA0 SHL SUB DUP3 AND PUSH0 SWAP1 DUP2 MSTORE PUSH1 0x2 PUSH1 0x20 MSTORE PUSH1 0x40 SWAP1 KECCAK256 DUP1 SLOAD PUSH1 0x1 DUP2 ADD SWAP1 SWAP2 SSTORE PUSH2 0xA6D SWAP5 POP PUSH32 0x842FB24A83793558587A3DAB2BE7674DA4A51D09C5542D6DD354E5D0EA70813C SWAP2 SWAP1 SWAP3 PUSH0 DUP1 PUSH2 0xA28 PUSH1 0x20 DUP6 ADD PUSH2 0x6DE JUMP JUMPDEST PUSH2 0xA35 PUSH1 0xA0 DUP7 ADD DUP7 PUSH2 0x86F JUMP JUMPDEST PUSH2 0xA56 PUSH2 0xA41 DUP9 PUSH2 0x6DE JUMP JUMPDEST SWAP2 PUSH2 0x555 PUSH1 0x40 MLOAD SWAP4 DUP5 SWAP3 PUSH1 0x20 DUP5 ADD SWAP7 DUP8 PUSH2 0x985 JUMP JUMPDEST MLOAD SWAP2 PUSH1 0x40 DUP8 ADD CALLDATALOAD SWAP1 PUSH1 0x60 DUP9 ADD CALLDATALOAD CALL SWAP6 DUP7 SWAP3 GAS PUSH2 0xBB5 JUMP JUMPDEST PUSH1 0x40 DUP1 MLOAD SWAP5 DUP6 MSTORE SWAP2 ISZERO ISZERO PUSH1 0x20 DUP6 ADD MSTORE PUSH1 0x1 PUSH1 0x1 PUSH1 0xA0 SHL SUB AND SWAP3 LOG2 JUMP JUMPDEST SWAP1 POP PUSH0 PUSH2 0x9C8 JUMP JUMPDEST SWAP2 POP PUSH0 PUSH2 0x9C1 JUMP JUMPDEST DUP3 ISZERO PUSH2 0xB12 JUMPI DUP2 ISZERO PUSH2 0xADD JUMPI DUP1 PUSH2 0x9BB JUMPI DUP5 PUSH2 0xAB4 DUP6 PUSH2 0x6DE JUMP JUMPDEST PUSH1 0x40 MLOAD PUSH4 0x6422D02B PUSH1 0xE1 SHL DUP2 MSTORE PUSH1 0x1 PUSH1 0x1 PUSH1 0xA0 SHL SUB SWAP3 DUP4 AND PUSH1 0x4 DUP3 ADD MSTORE SWAP2 AND PUSH1 0x24 DUP3 ADD MSTORE PUSH1 0x44 SWAP1 REVERT JUMPDEST PUSH2 0x3FB PUSH2 0xAEC PUSH1 0x80 DUP7 ADD PUSH2 0x6EB JUMP JUMPDEST PUSH1 0x40 MLOAD PUSH4 0x4A777AC5 PUSH1 0xE1 SHL DUP2 MSTORE PUSH6 0xFFFFFFFFFFFF SWAP1 SWAP2 AND PUSH1 0x4 DUP3 ADD MSTORE SWAP1 DUP2 SWAP1 PUSH1 0x24 DUP3 ADD SWAP1 JUMP JUMPDEST PUSH2 0x3FB PUSH2 0xB21 PUSH1 0x20 DUP7 ADD PUSH2 0x6DE JUMP JUMPDEST PUSH1 0x40 MLOAD PUSH4 0xD2650CD1 PUSH1 0xE0 SHL DUP2 MSTORE PUSH1 0x1 PUSH1 0x1 PUSH1 0xA0 SHL SUB SWAP1 SWAP2 AND PUSH1 0x4 DUP3 ADD MSTORE ADDRESS PUSH1 0x24 DUP3 ADD MSTORE SWAP1 DUP2 SWAP1 PUSH1 0x44 DUP3 ADD SWAP1 JUMP JUMPDEST PUSH1 0x40 MLOAD SWAP1 PUSH1 0x20 DUP3 ADD SWAP1 PUSH4 0x572B6C05 PUSH1 0xE0 SHL DUP3 MSTORE ADDRESS PUSH1 0x24 DUP5 ADD MSTORE PUSH1 0x24 DUP4 MSTORE PUSH1 0x60 DUP4 ADD SWAP2 DUP4 DUP4 LT PUSH8 0xFFFFFFFFFFFFFFFF DUP5 GT OR PUSH2 0x8D2 JUMPI PUSH1 0x20 SWAP4 PUSH0 SWAP4 PUSH1 0x40 MSTORE MLOAD SWAP2 GAS STATICCALL PUSH0 MLOAD RETURNDATASIZE DUP3 PUSH2 0xBA9 JUMPI JUMPDEST POP DUP2 PUSH2 0xBA2 JUMPI POP SWAP1 JUMP JUMPDEST SWAP1 POP ISZERO ISZERO SWAP1 JUMP JUMPDEST PUSH1 0x20 GT ISZERO SWAP2 POP PUSH0 PUSH2 0xB98 JUMP JUMPDEST SWAP1 PUSH1 0x60 PUSH1 0x3F SWAP2 ADD CALLDATALOAD DIV GT PUSH2 0xBC5 JUMPI JUMP JUMPDEST INVALID JUMPDEST DUP2 SELFBALANCE LT PUSH2 0xC27 JUMPI PUSH0 SWAP2 DUP3 SWAP2 DUP3 SWAP2 DUP3 SWAP2 PUSH1 0x1 PUSH1 0x1 PUSH1 0xA0 SHL SUB AND GAS CALL RETURNDATASIZE ISZERO PUSH2 0xC22 JUMPI RETURNDATASIZE PUSH2 0xBF1 DUP2 PUSH2 0x915 JUMP JUMPDEST SWAP1 PUSH2 0xBFF PUSH1 0x40 MLOAD SWAP3 DUP4 PUSH2 0x8F3 JUMP JUMPDEST DUP2 MSTORE PUSH0 PUSH1 0x20 RETURNDATASIZE SWAP3 ADD RETURNDATACOPY JUMPDEST ISZERO PUSH2 0xC10 JUMPI JUMP JUMPDEST PUSH1 0x40 MLOAD PUSH4 0xA12F521 PUSH1 0xE1 SHL DUP2 MSTORE PUSH1 0x4 SWAP1 REVERT JUMPDEST PUSH2 0xC09 JUMP JUMPDEST PUSH1 0x40 MLOAD PUSH4 0xCD786059 PUSH1 0xE0 SHL DUP2 MSTORE ADDRESS PUSH1 0x4 DUP3 ADD MSTORE PUSH1 0x24 SWAP1 REVERT JUMPDEST DUP2 MLOAD SWAP2 SWAP1 PUSH1 0x41 DUP4 SUB PUSH2 0xC6F JUMPI PUSH2 0xC68 SWAP3 POP PUSH1 0x20 DUP3 ADD MLOAD SWAP1 PUSH1 0x60 PUSH1 0x40 DUP5 ADD MLOAD SWAP4 ADD MLOAD PUSH0 BYTE SWAP1 PUSH2 0xC79 JUMP JUMPDEST SWAP2 SWAP3 SWAP1 SWAP2 SWAP1 JUMP JUMPDEST POP POP PUSH0 SWAP2 PUSH1 0x2 SWAP2 SWAP1 JUMP JUMPDEST SWAP2 SWAP1 PUSH32 0x7FFFFFFFFFFFFFFFFFFFFFFFFFFFFFFF5D576E7357A4501DDFE92F46681B20A0 DUP5 GT PUSH2 0xCFC JUMPI SWAP3 PUSH1 0x20 SWAP3 SWAP2 PUSH1 0xFF PUSH1 0x80 SWAP6 PUSH1 0x40 MLOAD SWAP5 DUP6 MSTORE AND DUP5 DUP5 ADD MSTORE PUSH1 0x40 DUP4 ADD MSTORE PUSH1 0x60 DUP3 ADD MSTORE PUSH0 SWAP3 DUP4 SWAP2 DUP3 DUP1 MSTORE PUSH1 0x1 GAS STATICCALL ISZERO PUSH2 0xCF0 JUMPI DUP1 MLOAD PUSH1 0x1 PUSH1 0x1 PUSH1 0xA0 SHL SUB DUP2 AND ISZERO PUSH2 0xCE7 JUMPI SWAP2 DUP2 SWAP1 JUMP JUMPDEST POP DUP1 SWAP2 PUSH1 0x1 SWAP2 SWAP1 JUMP JUMPDEST PUSH1 0x40 MLOAD SWAP1 RETURNDATASIZE SWAP1 DUP3 RETURNDATACOPY RETURNDATASIZE SWAP1 REVERT JUMPDEST POP POP POP PUSH0 SWAP2 PUSH1 0x3 SWAP2 SWAP1 JUMP JUMPDEST PUSH1 0x42 SWAP1 PUSH2 0xD12 PUSH2 0xD2D JUMP JUMPDEST SWAP1 PUSH1 0x40 MLOAD SWAP2 PUSH2 0x1901 PUSH1 0xF0 SHL DUP4 MSTORE PUSH1 0x2 DUP4 ADD MSTORE PUSH1 0x22 DUP3 ADD MSTORE KECCAK256 SWAP1 JUMP JUMPDEST ADDRESS PUSH32 0x0 PUSH1 0x1 PUSH1 0x1 PUSH1 0xA0 SHL SUB AND EQ DUP1 PUSH2 0xE1E JUMPI JUMPDEST ISZERO PUSH2 0xD88 JUMPI PUSH32 0x0 SWAP1 JUMP JUMPDEST PUSH1 0x40 MLOAD PUSH1 0x20 DUP2 ADD SWAP1 PUSH32 0x8B73C3C69BB8FE3D512ECC4CF759CC79239F7B179B0FFACAA9A75D522B39400F DUP3 MSTORE PUSH32 0x0 PUSH1 0x40 DUP3 ADD MSTORE PUSH32 0x0 PUSH1 0x60 DUP3 ADD MSTORE CHAINID PUSH1 0x80 DUP3 ADD MSTORE ADDRESS PUSH1 0xA0 DUP3 ADD MSTORE PUSH1 0xA0 DUP2 MSTORE PUSH2 0xE18 DUP2 PUSH2 0x8D7 JUMP JUMPDEST MLOAD SWAP1 KECCAK256 SWAP1 JUMP JUMPDEST POP PUSH32 0x0 CHAINID EQ PUSH2 0xD5F JUMP JUMPDEST PUSH1 0xFF DUP2 EQ PUSH2 0xE58 JUMPI PUSH2 0x6E8 SWAP1 PUSH2 0x100E JUMP JUMPDEST POP PUSH1 0x40 MLOAD PUSH0 DUP1 SLOAD SWAP1 PUSH1 0x1 DUP3 DUP2 SHR SWAP3 DUP2 DUP2 AND SWAP2 DUP3 ISZERO PUSH2 0xF3A JUMPI JUMPDEST PUSH1 0x20 SWAP2 DUP3 DUP7 LT DUP5 EQ PUSH2 0xF26 JUMPI DUP6 DUP8 MSTORE DUP7 SWAP5 SWAP4 PUSH1 0x20 DUP7 ADD SWAP4 SWAP3 SWAP2 DUP2 ISZERO PUSH2 0xF07 JUMPI POP PUSH1 0x1 EQ PUSH2 0xEA8 JUMPI JUMPDEST POP POP POP PUSH2 0x6E8 SWAP3 POP SUB DUP3 PUSH2 0x8F3 JUMP JUMPDEST SWAP3 POP SWAP4 PUSH2 0xED5 PUSH0 DUP1 MSTORE PUSH32 0x290DECD9548B62A8D60345A988386FC84BA6BC95484008F6362F93160EF3E563 SWAP1 JUMP JUMPDEST SWAP5 PUSH0 SWAP4 JUMPDEST DUP3 DUP6 LT PUSH2 0xEF1 JUMPI POP POP POP PUSH2 0x6E8 SWAP4 POP ADD PUSH0 DUP1 DUP1 PUSH2 0xE99 JUMP JUMPDEST DUP7 SLOAD DUP6 DUP6 ADD MSTORE SWAP6 DUP7 ADD SWAP6 DUP8 SWAP6 POP SWAP4 DUP2 ADD SWAP4 PUSH2 0xED9 JUMP JUMPDEST SWAP3 POP POP POP PUSH2 0x6E8 SWAP5 SWAP2 SWAP3 POP PUSH1 0xFF NOT AND DUP3 MSTORE ISZERO ISZERO PUSH1 0x5 SHL ADD PUSH0 DUP1 DUP1 PUSH2 0xE99 JUMP JUMPDEST PUSH4 0x4E487B71 PUSH1 0xE0 SHL DUP6 MSTORE PUSH1 0x22 PUSH1 0x4 MSTORE PUSH1 0x24 DUP6 REVERT JUMPDEST SWAP4 PUSH1 0x7F AND SWAP4 PUSH2 0xE71 JUMP JUMPDEST PUSH1 0xFF DUP2 EQ PUSH2 0xF55 JUMPI PUSH2 0x6E8 SWAP1 PUSH2 0x100E JUMP JUMPDEST POP PUSH1 0x40 MLOAD PUSH1 0x1 DUP1 SLOAD DUP1 DUP3 SHR SWAP2 PUSH0 SWAP2 DUP1 DUP3 AND SWAP2 DUP3 ISZERO PUSH2 0x1004 JUMPI JUMPDEST PUSH1 0x20 SWAP2 DUP3 DUP7 LT DUP5 EQ PUSH2 0xF26 JUMPI DUP6 DUP8 MSTORE DUP7 SWAP5 SWAP4 PUSH1 0x20 DUP7 ADD SWAP4 SWAP3 SWAP2 DUP2 ISZERO PUSH2 0xF07 JUMPI POP PUSH1 0x1 EQ PUSH2 0xFA4 JUMPI POP POP POP PUSH2 0x6E8 SWAP3 POP SUB DUP3 PUSH2 0x8F3 JUMP JUMPDEST SWAP3 POP SWAP4 PUSH2 0xFD2 PUSH1 0x1 PUSH0 MSTORE PUSH32 0xB10E2D527612073B26EECDFD717E6A320CF44B4AFAC2B0732D9FCBE2B7FA0CF6 SWAP1 JUMP JUMPDEST SWAP5 PUSH0 SWAP4 JUMPDEST DUP3 DUP6 LT PUSH2 0xFEE JUMPI POP POP POP PUSH2 0x6E8 SWAP4 POP ADD PUSH0 DUP1 DUP1 PUSH2 0xE99 JUMP JUMPDEST DUP7 SLOAD DUP6 DUP6 ADD MSTORE SWAP6 DUP7 ADD SWAP6 DUP8 SWAP6 POP SWAP4 DUP2 ADD SWAP4 PUSH2 0xFD6 JUMP JUMPDEST SWAP4 PUSH1 0x7F AND SWAP4 PUSH2 0xF6E JUMP JUMPDEST PUSH1 0xFF DUP2 AND SWAP1 PUSH1 0x1F DUP3 GT PUSH2 0x1043 JUMPI PUSH1 0x40 MLOAD SWAP2 PUSH1 0x40 DUP4 ADD DUP4 DUP2 LT PUSH8 0xFFFFFFFFFFFFFFFF DUP3 GT OR PUSH2 0x8D2 JUMPI PUSH1 0x40 MSTORE DUP3 MSTORE PUSH1 0x20 DUP3 ADD MSTORE SWAP1 JUMP JUMPDEST PUSH1 0x40 MLOAD PUSH4 0x2CD44AC3 PUSH1 0xE2 SHL DUP2 MSTORE PUSH1 0x4 SWAP1 REVERT INVALID LOG2 PUSH5 0x6970667358 0x22 SLT KECCAK256 PUSH5 0x425C091B21 DUP2 JUMPDEST DUP8 0xB3 SMOD RETURN CALLDATALOAD 0x22 0xE3 LT EXTCODEHASH PUSH5 0x892154DB6D GAS CHAINID PUSH20 0x89234A8ED18564736F6C63430008140033000000 "
				},
				"gasEstimates": {
					"creation": {
						"codeDepositCost": "847000",
						"executionCost": "infinite",
						"totalCost": "infinite"
					},
					"external": {
						"eip712Domain()": "infinite",
						"execute((address,address,uint256,uint256,uint48,bytes,bytes))": "infinite",
						"executeBatch((address,address,uint256,uint256,uint48,bytes,bytes)[],address)": "infinite",
						"isTrustedForwarder(address)": "infinite",
						"nonces(address)": "2517",
						"setNumber(uint256)": "22265",
						"trustedForwarder()": "infinite",
						"verify((address,address,uint256,uint256,uint48,bytes,bytes))": "infinite"
					}
				},
				"methodIdentifiers": {
					"eip712Domain()": "84b0196e",
					"execute((address,address,uint256,uint256,uint48,bytes,bytes))": "df905caf",
					"executeBatch((address,address,uint256,uint256,uint48,bytes,bytes)[],address)": "ccf96b4a",
					"isTrustedForwarder(address)": "572b6c05",
					"nonces(address)": "7ecebe00",
					"setNumber(uint256)": "3fb5c1cb",
					"trustedForwarder()": "7da0a877",
					"verify((address,address,uint256,uint256,uint48,bytes,bytes))": "19d8d38c"
				}
			},
			"storageLayout": {
				"storage": [
					{
						"astId": 1946,
						"contract": "src/Dummy.sol:Dummy",
						"label": "_nameFallback",
						"offset": 0,
						"slot": "0",
						"type": "t_string_storage"
					},
					{
						"astId": 1948,
						"contract": "src/Dummy.sol:Dummy",
						"label": "_versionFallback",
						"offset": 0,
						"slot": "1",
						"type": "t_string_storage"
					},
					{
						"astId": 925,
						"contract": "src/Dummy.sol:Dummy",
						"label": "_nonces",
						"offset": 0,
						"slot": "2",
						"type": "t_mapping(t_address,t_uint256)"
					},
					{
						"astId": 3378,
						"contract": "src/Dummy.sol:Dummy",
						"label": "number",
						"offset": 0,
						"slot": "3",
						"type": "t_uint256"
					}
				],
				"types": {
					"t_address": {
						"encoding": "inplace",
						"label": "address",
						"numberOfBytes": "20"
					},
					"t_mapping(t_address,t_uint256)": {
						"encoding": "mapping",
						"key": "t_address",
						"label": "mapping(address => uint256)",
						"numberOfBytes": "32",
						"value": "t_uint256"
					},
					"t_string_storage": {
						"encoding": "bytes",
						"label": "string",
						"numberOfBytes": "32"
					},
					"t_uint256": {
						"encoding": "inplace",
						"label": "uint256",
						"numberOfBytes": "32"
					}
				}
			},
			"userdoc": {
				"kind": "user",
				"methods": {},
				"version": 1
			}
		}
	}
}