{
  "contractName": "AccountAuthorizer",
  "abi": [
    {
      "constant": true,
      "inputs": [
        {
          "name": "",
          "type": "address"
        }
      ],
      "name": "_authorizers",
      "outputs": [
        {
          "name": "_address",
          "type": "address"
        },
        {
          "name": "entryDate",
          "type": "uint256"
        },
        {
          "name": "statusAuthorizer",
          "type": "uint8"
        },
        {
          "name": "typeAuthorizer",
          "type": "uint8"
        }
      ],
      "payable": false,
      "stateMutability": "view",
      "type": "function"
    },
    {
      "constant": true,
      "inputs": [],
      "name": "_numAuthorized",
      "outputs": [
        {
          "name": "",
          "type": "uint256"
        }
      ],
      "payable": false,
      "stateMutability": "view",
      "type": "function"
    }
  ],
  "bytecode": "0x6060604052341561000f57600080fd5b6101c08061001e6000396000f30060606040526004361061004c576000357c0100000000000000000000000000000000000000000000000000000000900463ffffffff16806358923f3014610051578063d5c33f13146100fb575b600080fd5b341561005c57600080fd5b610088600480803573ffffffffffffffffffffffffffffffffffffffff16906020019091905050610124565b604051808573ffffffffffffffffffffffffffffffffffffffff1673ffffffffffffffffffffffffffffffffffffffff1681526020018481526020018360018111156100d057fe5b60ff1681526020018260018111156100e457fe5b60ff16815260200194505050505060405180910390f35b341561010657600080fd5b61010e61018e565b6040518082815260200191505060405180910390f35b60026020528060005260406000206000915090508060000160009054906101000a900473ffffffffffffffffffffffffffffffffffffffff16908060010154908060020160009054906101000a900460ff16908060020160019054906101000a900460ff16905084565b600154815600a165627a7a72305820d7386102a42bc29803abf2eff3c12ac69d2c5de287cb266db5121efdf253b42a0029",
  "source": "pragma solidity ^0.4.18;\n\nimport \"./zeppelin/Ownable.sol\";\n\ncontract AccountAuthorizer {\n    \n    // 0 - Inactive | 1 - Active\n    enum StatusAuthorizer {INACTIVE, ACTIVE}\n    StatusAuthorizer statusAuthorizer;\n\n    // 0 - COLAB | 1 - ADVISER\n    enum TypeAuthorizer {COLAB, ADVISER}\n    TypeAuthorizer typeAuthorizer;\n\n    uint256 public _numAuthorized;    \n    mapping(address => Authorizer) public _authorizers;\n\n    //A struct to hold the Authorizer's informations\n    struct Authorizer {\n        address _address;\n        uint256 entryDate;\n        StatusAuthorizer statusAuthorizer;\n        TypeAuthorizer typeAuthorizer;\n    }\n\n    //Add transaction's authorizer\n    function addAccountAuthorizer(address authorized, int8 _typeAuthorizer) internal {\n        require(_authorizers[authorized]._address == 0x0);\n        _numAuthorized++;\n    \n        Authorizer memory authorizer;\n        authorizer._address = authorized;\n        authorizer.entryDate = now;\n        authorizer.statusAuthorizer = StatusAuthorizer.ACTIVE;\n        if (_typeAuthorizer == 1) {\n            authorizer.typeAuthorizer = TypeAuthorizer.COLAB;\n        } else {\n            authorizer.typeAuthorizer = TypeAuthorizer.ADVISER;\n        }\n        \n        _authorizers[authorized] = authorizer;\n    }\n    \n    //Remove transaction's authorizer\n    function removeAccountAuthorizer(address authorized) internal {\n         _authorizers[authorized].statusAuthorizer = StatusAuthorizer.INACTIVE;\n         if (_numAuthorized > 0) {\n            _numAuthorized--;\n         }\n    }\n}\n\ncontract CheckingAccount is Ownable, AccountAuthorizer {\n\n    //A struct to hold the Transaction's information about \n    // the transfering of tokens from an address to another\n    struct Transaction {\n        address from;\n        address to;\n        bytes32 description;\n        uint256 amount;\n        uint256 date;\n        uint8 signatureCount;\n        mapping (address => uint8) signatures;\n    }\n\n    //A struct to hold the Transaction's information about \n    // the transfering of contract's ownership from an address to another\n    struct TransactionChangeContractOwnership {\n        address from;\n        address to;\n        uint256 amount;\n        uint8 signatureCount;\n        mapping (address => uint8) signatures;\n    }\n\n    // the minimum signatures for authorize the transaction\n    uint256 private constant MIN_SIGNATURES = 2;\n    //the max authorize to add in contract\n    uint256 private constant MAX_AUTHORIZERS = 9;\n\n    uint256 private _transactionIdx;\n    uint256 private _transactionChangeContractOwnershipIdx;    \n\n    //list the pending transations\n    uint256[] private _pendingTransactions;\n    uint256[] private _pendingTransactionsChangeContractOwnership;\n\n    mapping(address => uint8) private _owners;\n    mapping (uint256 => Transaction) private _transactions;    \n    mapping (uint256 => TransactionChangeContractOwnership) private _transactionsChangeContractOwnership;\n\n    //Modifier to validate the ownership\n    modifier validOwner() {\n        require(msg.sender == owner || _authorizers[msg.sender].statusAuthorizer == StatusAuthorizer.ACTIVE);\n        _;\n    }\n\n    event DepositFunds(address from, uint256 amount);\n\n    event TransactionSendTokenCreated(address from, address to, uint256 amount, uint256 transactionId);\n    event TransactionSendTokenCompleted(address from, address to, uint256 amount, uint256 transactionId);\n    event TransactionSendTokenSigned(address by, uint256 transactionId);\n\n    event TransactionChangeContractOwnershipCreated(address from, address to, uint256 transactionId);\n    event TransactionChangeContractOwnershipCompleted(address from, address to, uint256 transactionId);\n    event TransactionChangeContractOwnershipSigned(address by, uint256 transactionId);\n    \n    function CheckingAccount() public {\n        _numAuthorized = 0;\n        owner = msg.sender;\n    }\n\n    //Receive tokens for the contract\n    function() public payable {\n        DepositFunds(msg.sender, msg.value);\n    }\n\n    function addAuthorizer(address authorized, int8 _typeAuthorizer) public onlyOwner {\n        require(_numAuthorized <= MAX_AUTHORIZERS);\n        addAccountAuthorizer(authorized, _typeAuthorizer);\n    }\n\n    function removeAuthorizer(address authorized)  public onlyOwner {\n        require(_numAuthorized > 0);\n        removeAccountAuthorizer(authorized);\n    }\n\n    //Request tokens withdraw\n    function withdraw(uint256 amount, bytes32 description) public {\n        transferTo(msg.sender, amount, description);\n    }\n\n    //Transfer tokens from Contract's balance to another address\n    function transferTo(address to, uint256 amount, bytes32 description) private {\n        require(address(this).balance >= amount);\n        uint256 transactionId = _transactionIdx++;\n\n        Transaction memory transaction;\n        transaction.from = msg.sender;\n        transaction.to = to;\n        transaction.amount = amount;\n        transaction.description = description;\n        transaction.date = now;\n        transaction.signatureCount = 0;\n\n        _transactions[transactionId] = transaction;\n        _pendingTransactions.push(transactionId);\n\n        TransactionSendTokenCreated(transaction.from, to, amount, transactionId);\n    }\n\n    //Get the pending transations to send tokens\n    function getPendingTransactionsSendToken() public validOwner view returns (uint256[]) {\n        return _pendingTransactions;\n    }\n\n    //Get the transation to send tokens\n    function getTransactionSendToken(uint256 transactionId) public validOwner view \n                                            returns (address from, address to, uint256 amount, \n                                            bytes32 description, uint256 date, uint8 signatureCount) \n    {\n        from = _transactions[transactionId].from;\n        to = _transactions[transactionId].to;\n        amount = _transactions[transactionId].amount;\n        description = _transactions[transactionId].description;\n        date = _transactions[transactionId].date;\n        signatureCount = _transactions[transactionId].signatureCount;\n    }\n\n    //Sign a transaction to send tokens\n    function signTransactionSendToken(uint256 transactionId) public validOwner {\n\n        Transaction storage transaction = _transactions[transactionId];\n\n        // Transaction must exist\n        require(0x0 != transaction.from);\n        // Creator cannot sign the transaction\n        require(msg.sender != transaction.from);\n        // Cannot sign a transaction more than once\n        require(transaction.signatures[msg.sender] == 0);\n\n        transaction.signatures[msg.sender] = 1;\n        transaction.signatureCount++;\n\n        TransactionSendTokenSigned(msg.sender, transactionId);\n\n        if (transaction.signatureCount >= MIN_SIGNATURES) {\n            require(address(this).balance >= transaction.amount);\n            transaction.to.transfer(transaction.amount);\n            TransactionSendTokenCompleted(transaction.from, transaction.to, \n                                            transaction.amount, transactionId);\n            deleteTransactionSendToken(transactionId);\n        }\n    }\n\n    //Delete a transaction to send tokens\n    function deleteTransactionSendToken(uint256 transactionId) public validOwner {\n        uint8 replace = replaceElementFromTransactionsArray(_pendingTransactions, transactionId);\n        assert(replace == 1);\n        delete _pendingTransactions[_pendingTransactions.length - 1];\n        _pendingTransactions.length--;\n        delete _transactions[transactionId];\n    }\n\n    //Transfer Contract's ownership to another address\n    function transferContractOwnershipTo(address to) public onlyOwner {\n        uint256 transactionId = _transactionChangeContractOwnershipIdx++;\n\n        TransactionChangeContractOwnership memory transaction;\n        transaction.from = msg.sender;\n        transaction.to = to;\n        transaction.signatureCount = 0;\n\n        _transactionsChangeContractOwnership[transactionId] = transaction;\n        _pendingTransactionsChangeContractOwnership.push(transactionId);\n\n        TransactionChangeContractOwnershipCreated(msg.sender, to, transactionId);\n    }\n\n    //Get the pending transations to change Contract's ownership\n    function getPendingTransactionsToChangeContractOwnership() public validOwner view returns (uint256[]) {\n        return _pendingTransactionsChangeContractOwnership;\n    }\n\n    //Get the transation to change Contract's ownership\n    function getTransactionToChangeContractOwnership(uint256 transactionId) public validOwner view \n                                            returns (address from, address to, uint256 amount, uint8 signatureCount) \n    {\n        from = _transactionsChangeContractOwnership[transactionId].from;\n        to = _transactionsChangeContractOwnership[transactionId].to;\n        amount = _transactionsChangeContractOwnership[transactionId].amount;\n        signatureCount = _transactionsChangeContractOwnership[transactionId].signatureCount;\n    }\n\n    //Sign a transaction to change Contract's ownership\n    function signTransactionToChangeContractOwnership(uint256 transactionId) public validOwner {\n\n        TransactionChangeContractOwnership storage transaction = _transactionsChangeContractOwnership[transactionId];\n\n        // Transaction must exist\n        require(0x0 != transaction.from);\n        // Receiver cannot sign the transaction\n        require(msg.sender != transaction.to);\n        // Creator cannot sign the transaction\n        require(msg.sender != transaction.from);\n        // Cannot sign a transaction more than once\n        require(transaction.signatures[msg.sender] == 0);\n\n        transaction.signatures[msg.sender] = 1;\n        transaction.signatureCount++;\n\n        TransactionChangeContractOwnershipSigned(msg.sender, transactionId);\n\n        if (transaction.signatureCount >= ((MIN_SIGNATURES/2)+1)) {\n            owner = transaction.to;\n            TransactionChangeContractOwnershipCompleted(transaction.from, transaction.to, transactionId);\n            deleteTransactionChangeContractOwnership(transactionId);\n        }\n    }\n\n    //Delete a transaction to  change Contract's ownership\n    function deleteTransactionChangeContractOwnership(uint256 transactionId) public validOwner {\n        uint8 replace = replaceElementFromTransactionsArray(_pendingTransactionsChangeContractOwnership, transactionId);\n\n        assert(replace == 1);\n        delete _pendingTransactionsChangeContractOwnership[_pendingTransactionsChangeContractOwnership.length - 1];\n        _pendingTransactionsChangeContractOwnership.length--;\n        delete _transactionsChangeContractOwnership[transactionId];\n    }\n\n    function replaceElementFromTransactionsArray(uint256[] storage transactionsArray, uint256 transactionId) \n        private returns (uint8) \n    {\n        require(transactionsArray.length > 0);\n        uint8 replace = 0;\n\n        for (uint256 i = 0; i < transactionsArray.length; i++) {\n            if (1 == replace) {\n                transactionsArray[i-1] = transactionsArray[i];\n            } else if (transactionId == transactionsArray[i]) {\n                replace = 1;\n            }\n        }\n        return replace;\n    }\n\n    function walletBalance() public constant returns (uint256) {\n        return address(this).balance;\n    }\n}",
  "sourcePath": "/Users/hgleite/Documents/henrique/GoBlockchain/smart-contract-checking-account/contracts/CheckingAccount.sol",
  "compiler": {
    "name": "solc",
    "version": "0.4.18+commit.9cf6e910.Emscripten.clang"
  },
  "schemaVersion": "1.0.1",
  "updatedAt": "2018-03-10T22:16:21.125Z"
}