{
  "contractName": "AccountAuthorizer",
  "abi": [
    {
      "constant": true,
      "inputs": [
        {
          "name": "",
          "type": "address"
        }
      ],
      "name": "_authorizers",
      "outputs": [
        {
          "name": "_address",
          "type": "address"
        },
        {
          "name": "entryDate",
          "type": "uint256"
        },
        {
          "name": "statusAuthorizer",
          "type": "uint8"
        },
        {
          "name": "typeAuthorizer",
          "type": "uint8"
        }
      ],
      "payable": false,
      "stateMutability": "view",
      "type": "function"
    },
    {
      "constant": true,
      "inputs": [],
      "name": "MAX_AUTHORIZERS",
      "outputs": [
        {
          "name": "",
          "type": "uint256"
        }
      ],
      "payable": false,
      "stateMutability": "view",
      "type": "function"
    },
    {
      "constant": false,
      "inputs": [
        {
          "name": "_authorized",
          "type": "address"
        }
      ],
      "name": "removeAuthorizer",
      "outputs": [],
      "payable": false,
      "stateMutability": "nonpayable",
      "type": "function"
    },
    {
      "constant": true,
      "inputs": [],
      "name": "owner",
      "outputs": [
        {
          "name": "",
          "type": "address"
        }
      ],
      "payable": false,
      "stateMutability": "view",
      "type": "function"
    },
    {
      "constant": true,
      "inputs": [],
      "name": "_numAuthorized",
      "outputs": [
        {
          "name": "",
          "type": "uint256"
        }
      ],
      "payable": false,
      "stateMutability": "view",
      "type": "function"
    },
    {
      "constant": false,
      "inputs": [
        {
          "name": "_authorized",
          "type": "address"
        },
        {
          "name": "_typeAuthorizer",
          "type": "uint8"
        }
      ],
      "name": "addAuthorizer",
      "outputs": [],
      "payable": false,
      "stateMutability": "nonpayable",
      "type": "function"
    },
    {
      "anonymous": false,
      "inputs": [
        {
          "indexed": true,
          "name": "previousOwner",
          "type": "address"
        },
        {
          "indexed": true,
          "name": "newOwner",
          "type": "address"
        }
      ],
      "name": "OwnershipTransferred",
      "type": "event"
    }
  ],
  "bytecode": "0x6060604052336000806101000a81548173ffffffffffffffffffffffffffffffffffffffff021916908373ffffffffffffffffffffffffffffffffffffffff1602179055506106d9806100536000396000f300606060405260043610610078576000357c0100000000000000000000000000000000000000000000000000000000900463ffffffff16806358923f301461007d57806389b9cede146101275780638b69759d146101505780638da5cb5b14610189578063d5c33f13146101de578063dcd514f714610207575b600080fd5b341561008857600080fd5b6100b4600480803573ffffffffffffffffffffffffffffffffffffffff1690602001909190505061024c565b604051808573ffffffffffffffffffffffffffffffffffffffff1673ffffffffffffffffffffffffffffffffffffffff1681526020018481526020018360018111156100fc57fe5b60ff16815260200182600181111561011057fe5b60ff16815260200194505050505060405180910390f35b341561013257600080fd5b61013a6102b6565b6040518082815260200191505060405180910390f35b341561015b57600080fd5b610187600480803573ffffffffffffffffffffffffffffffffffffffff169060200190919050506102bb565b005b341561019457600080fd5b61019c6103ad565b604051808273ffffffffffffffffffffffffffffffffffffffff1673ffffffffffffffffffffffffffffffffffffffff16815260200191505060405180910390f35b34156101e957600080fd5b6101f16103d2565b6040518082815260200191505060405180910390f35b341561021257600080fd5b61024a600480803573ffffffffffffffffffffffffffffffffffffffff1690602001909190803560ff169060200190919050506103d8565b005b60026020528060005260406000206000915090508060000160009054906101000a900473ffffffffffffffffffffffffffffffffffffffff16908060010154908060020160009054906101000a900460ff16908060020160019054906101000a900460ff16905084565b600981565b6000809054906101000a900473ffffffffffffffffffffffffffffffffffffffff1673ffffffffffffffffffffffffffffffffffffffff163373ffffffffffffffffffffffffffffffffffffffff1614151561031657600080fd5b600060015411151561032757600080fd5b6000600260008373ffffffffffffffffffffffffffffffffffffffff1673ffffffffffffffffffffffffffffffffffffffff16815260200190815260200160002060020160006101000a81548160ff0219169083600181111561038657fe5b0217905550600060015411156103aa57600160008154809291906001900391905055505b50565b6000809054906101000a900473ffffffffffffffffffffffffffffffffffffffff1681565b60015481565b6103e0610658565b6000809054906101000a900473ffffffffffffffffffffffffffffffffffffffff1673ffffffffffffffffffffffffffffffffffffffff163373ffffffffffffffffffffffffffffffffffffffff1614151561043b57600080fd5b60096001541115151561044d57600080fd5b6000600260008573ffffffffffffffffffffffffffffffffffffffff1673ffffffffffffffffffffffffffffffffffffffff16815260200190815260200160002060000160009054906101000a900473ffffffffffffffffffffffffffffffffffffffff1673ffffffffffffffffffffffffffffffffffffffff161415156104d457600080fd5b60016000815480929190600101919050555082816000019073ffffffffffffffffffffffffffffffffffffffff16908173ffffffffffffffffffffffffffffffffffffffff16815250504281602001818152505060018160400190600181111561053a57fe5b9081600181111561054757fe5b81525050818160600190600181111561055c57fe5b9081600181111561056957fe5b8152505080600260008573ffffffffffffffffffffffffffffffffffffffff1673ffffffffffffffffffffffffffffffffffffffff16815260200190815260200160002060008201518160000160006101000a81548173ffffffffffffffffffffffffffffffffffffffff021916908373ffffffffffffffffffffffffffffffffffffffff1602179055506020820151816001015560408201518160020160006101000a81548160ff0219169083600181111561062257fe5b021790555060608201518160020160016101000a81548160ff0219169083600181111561064b57fe5b0217905550905050505050565b608060405190810160405280600073ffffffffffffffffffffffffffffffffffffffff168152602001600081526020016000600181111561069557fe5b8152602001600060018111156106a757fe5b815250905600a165627a7a72305820ba563e2db9cb67373d0a00c20c45233128c4a9aac380e42fdbadccd3149ad8aa0029",
  "source": "pragma solidity ^0.4.18;\n\nimport \"./zeppelin/Ownable.sol\";\n\ncontract AccountAuthorizer is Ownable {\n    \n    //the max authorize to add in contract\n    uint256 public constant MAX_AUTHORIZERS = 9;\n\n    // 0 - Inactive | 1 - Active\n    enum StatusAuthorizer {INACTIVE, ACTIVE}\n    StatusAuthorizer statusAuthorizer;\n\n    // 0 - COLAB | 1 - ADVISER\n    enum TypeAuthorizer {COLAB, ADVISER}\n    TypeAuthorizer typeAuthorizer;\n\n    uint256 public _numAuthorized;    \n    mapping(address => Authorizer) public _authorizers;\n\n    //A struct to hold the Authorizer's informations\n    struct Authorizer {\n        address _address;\n        uint256 entryDate;\n        StatusAuthorizer statusAuthorizer;\n        TypeAuthorizer typeAuthorizer;\n    }\n\n    //Add transaction's authorizer\n    function addAuthorizer(address _authorized, TypeAuthorizer _typeAuthorizer) public onlyOwner {\n        require(_numAuthorized <= MAX_AUTHORIZERS);\n        require(_authorizers[_authorized]._address == 0x0);\n        _numAuthorized++;\n    \n        Authorizer memory authorizer;\n        authorizer._address = _authorized;\n        authorizer.entryDate = now;\n        authorizer.statusAuthorizer = StatusAuthorizer.ACTIVE;\n        authorizer.typeAuthorizer = _typeAuthorizer;\n        \n        _authorizers[_authorized] = authorizer;\n    }\n    \n    //Remove transaction's authorizer\n    function removeAuthorizer(address _authorized)  public onlyOwner {\n        require(_numAuthorized > 0);\n        _authorizers[_authorized].statusAuthorizer = StatusAuthorizer.INACTIVE;\n        if (_numAuthorized > 0) {\n            _numAuthorized--;\n        }\n    }\n}\n",
  "sourcePath": "/Users/hgleite/Documents/henrique/GoBlockchain/smart-contract-checking-account/contracts/AccountAuthorizer.sol",
  "compiler": {
    "name": "solc",
    "version": "0.4.18+commit.9cf6e910.Emscripten.clang"
  },
  "schemaVersion": "1.0.1",
  "updatedAt": "2018-03-15T00:41:57.135Z"
}