{
  "contractName": "AccountTransaction",
  "abi": [
    {
      "constant": true,
      "inputs": [
        {
          "name": "",
          "type": "address"
        }
      ],
      "name": "_authorizers",
      "outputs": [
        {
          "name": "_address",
          "type": "address"
        },
        {
          "name": "entryDate",
          "type": "uint256"
        },
        {
          "name": "statusAuthorizer",
          "type": "uint8"
        },
        {
          "name": "typeAuthorizer",
          "type": "uint8"
        }
      ],
      "payable": false,
      "stateMutability": "view",
      "type": "function"
    },
    {
      "constant": true,
      "inputs": [],
      "name": "MAX_AUTHORIZERS",
      "outputs": [
        {
          "name": "",
          "type": "uint256"
        }
      ],
      "payable": false,
      "stateMutability": "view",
      "type": "function"
    },
    {
      "constant": false,
      "inputs": [
        {
          "name": "_authorized",
          "type": "address"
        }
      ],
      "name": "removeAuthorizer",
      "outputs": [],
      "payable": false,
      "stateMutability": "nonpayable",
      "type": "function"
    },
    {
      "constant": true,
      "inputs": [],
      "name": "owner",
      "outputs": [
        {
          "name": "",
          "type": "address"
        }
      ],
      "payable": false,
      "stateMutability": "view",
      "type": "function"
    },
    {
      "constant": true,
      "inputs": [],
      "name": "MIN_SIGNATURES_COLAB",
      "outputs": [
        {
          "name": "",
          "type": "uint256"
        }
      ],
      "payable": false,
      "stateMutability": "view",
      "type": "function"
    },
    {
      "constant": true,
      "inputs": [
        {
          "name": "",
          "type": "uint256"
        }
      ],
      "name": "_pendingTransactions",
      "outputs": [
        {
          "name": "",
          "type": "uint256"
        }
      ],
      "payable": false,
      "stateMutability": "view",
      "type": "function"
    },
    {
      "constant": true,
      "inputs": [],
      "name": "_numAuthorized",
      "outputs": [
        {
          "name": "",
          "type": "uint256"
        }
      ],
      "payable": false,
      "stateMutability": "view",
      "type": "function"
    },
    {
      "constant": false,
      "inputs": [
        {
          "name": "_authorized",
          "type": "address"
        },
        {
          "name": "_typeAuthorizer",
          "type": "uint8"
        }
      ],
      "name": "addAuthorizer",
      "outputs": [],
      "payable": false,
      "stateMutability": "nonpayable",
      "type": "function"
    },
    {
      "constant": true,
      "inputs": [],
      "name": "MIN_SIGNATURES_ADVISER",
      "outputs": [
        {
          "name": "",
          "type": "uint256"
        }
      ],
      "payable": false,
      "stateMutability": "view",
      "type": "function"
    },
    {
      "anonymous": false,
      "inputs": [
        {
          "indexed": false,
          "name": "from",
          "type": "address"
        },
        {
          "indexed": false,
          "name": "to",
          "type": "address"
        },
        {
          "indexed": false,
          "name": "amount",
          "type": "uint256"
        },
        {
          "indexed": false,
          "name": "transactionId",
          "type": "uint256"
        }
      ],
      "name": "TransactionSendTokenCreated",
      "type": "event"
    },
    {
      "anonymous": false,
      "inputs": [
        {
          "indexed": false,
          "name": "from",
          "type": "address"
        },
        {
          "indexed": false,
          "name": "to",
          "type": "address"
        },
        {
          "indexed": false,
          "name": "amount",
          "type": "uint256"
        },
        {
          "indexed": false,
          "name": "transactionId",
          "type": "uint256"
        }
      ],
      "name": "TransactionSendTokenCompleted",
      "type": "event"
    },
    {
      "anonymous": false,
      "inputs": [
        {
          "indexed": false,
          "name": "by",
          "type": "address"
        },
        {
          "indexed": false,
          "name": "transactionId",
          "type": "uint256"
        }
      ],
      "name": "TransactionSendTokenSigned",
      "type": "event"
    },
    {
      "anonymous": false,
      "inputs": [
        {
          "indexed": false,
          "name": "from",
          "type": "address"
        },
        {
          "indexed": false,
          "name": "to",
          "type": "address"
        },
        {
          "indexed": false,
          "name": "transactionId",
          "type": "uint256"
        }
      ],
      "name": "TransactionChangeContractOwnershipCreated",
      "type": "event"
    },
    {
      "anonymous": false,
      "inputs": [
        {
          "indexed": false,
          "name": "from",
          "type": "address"
        },
        {
          "indexed": false,
          "name": "to",
          "type": "address"
        },
        {
          "indexed": false,
          "name": "transactionId",
          "type": "uint256"
        }
      ],
      "name": "TransactionChangeContractOwnershipCompleted",
      "type": "event"
    },
    {
      "anonymous": false,
      "inputs": [
        {
          "indexed": false,
          "name": "by",
          "type": "address"
        },
        {
          "indexed": false,
          "name": "transactionId",
          "type": "uint256"
        }
      ],
      "name": "TransactionChangeContractOwnershipSigned",
      "type": "event"
    },
    {
      "anonymous": false,
      "inputs": [
        {
          "indexed": true,
          "name": "previousOwner",
          "type": "address"
        },
        {
          "indexed": true,
          "name": "newOwner",
          "type": "address"
        }
      ],
      "name": "OwnershipTransferred",
      "type": "event"
    },
    {
      "constant": true,
      "inputs": [
        {
          "name": "_transactionId",
          "type": "uint256"
        }
      ],
      "name": "getTransactionSendToken",
      "outputs": [
        {
          "name": "from",
          "type": "address"
        },
        {
          "name": "to",
          "type": "address"
        },
        {
          "name": "amount",
          "type": "uint256"
        },
        {
          "name": "description",
          "type": "bytes32"
        },
        {
          "name": "date",
          "type": "uint256"
        },
        {
          "name": "signatureCountColab",
          "type": "uint8"
        },
        {
          "name": "signatureCountAdviser",
          "type": "uint8"
        }
      ],
      "payable": false,
      "stateMutability": "view",
      "type": "function"
    },
    {
      "constant": false,
      "inputs": [
        {
          "name": "_transactionId",
          "type": "uint256"
        }
      ],
      "name": "signTransactionSendToken",
      "outputs": [],
      "payable": false,
      "stateMutability": "nonpayable",
      "type": "function"
    },
    {
      "constant": false,
      "inputs": [
        {
          "name": "_transactionId",
          "type": "uint256"
        }
      ],
      "name": "deleteTransactionSendToken",
      "outputs": [],
      "payable": false,
      "stateMutability": "nonpayable",
      "type": "function"
    },
    {
      "constant": true,
      "inputs": [],
      "name": "getPendingTransactionsSendToken",
      "outputs": [
        {
          "name": "",
          "type": "uint256[]"
        }
      ],
      "payable": false,
      "stateMutability": "view",
      "type": "function"
    },
    {
      "constant": true,
      "inputs": [
        {
          "name": "_transactionId",
          "type": "uint256"
        }
      ],
      "name": "getTransactionToChangeContractOwnership",
      "outputs": [
        {
          "name": "from",
          "type": "address"
        },
        {
          "name": "to",
          "type": "address"
        },
        {
          "name": "amount",
          "type": "uint256"
        },
        {
          "name": "signatureCountColab",
          "type": "uint8"
        },
        {
          "name": "signatureCountAdviser",
          "type": "uint8"
        }
      ],
      "payable": false,
      "stateMutability": "view",
      "type": "function"
    },
    {
      "constant": true,
      "inputs": [],
      "name": "getPendingTransactionsToChangeContractOwnership",
      "outputs": [
        {
          "name": "",
          "type": "uint256[]"
        }
      ],
      "payable": false,
      "stateMutability": "view",
      "type": "function"
    },
    {
      "constant": false,
      "inputs": [
        {
          "name": "_transactionId",
          "type": "uint256"
        }
      ],
      "name": "signTransactionToChangeContractOwnership",
      "outputs": [],
      "payable": false,
      "stateMutability": "nonpayable",
      "type": "function"
    },
    {
      "constant": false,
      "inputs": [
        {
          "name": "_transactionId",
          "type": "uint256"
        }
      ],
      "name": "deleteTransactionChangeContractOwnership",
      "outputs": [],
      "payable": false,
      "stateMutability": "nonpayable",
      "type": "function"
    }
  ],
  "bytecode": "0x6060604052336000806101000a81548173ffffffffffffffffffffffffffffffffffffffff021916908373ffffffffffffffffffffffffffffffffffffffff1602179055506121e8806100536000396000f3006060604052600436106100f1576000357c0100000000000000000000000000000000000000000000000000000000900463ffffffff16806308fa9386146100f65780632847fcca146101195780633c6b5deb1461018357806351780055146101a657806358923f30146101c95780638121e1111461027357806389b9cede1461032a5780638b69759d146103535780638da5cb5b1461038c578063a79a4c5d146103e1578063a7f42a711461044b578063ae5a8a9714610474578063b58a506614610497578063b5ba4db1146104ce578063d5c33f131461059b578063dcd514f7146105c4578063fe33743614610609575b600080fd5b341561010157600080fd5b6101176004808035906020019091905050610632565b005b341561012457600080fd5b61012c610c44565b6040518080602001828103825283818151815260200191508051906020019060200280838360005b8381101561016f578082015181840152602081019050610154565b505050509050019250505060405180910390f35b341561018e57600080fd5b6101a46004808035906020019091905050610d6c565b005b34156101b157600080fd5b6101c76004808035906020019091905050610f28565b005b34156101d457600080fd5b610200600480803573ffffffffffffffffffffffffffffffffffffffff1690602001909190505061155f565b604051808573ffffffffffffffffffffffffffffffffffffffff1673ffffffffffffffffffffffffffffffffffffffff16815260200184815260200183600181111561024857fe5b60ff16815260200182600181111561025c57fe5b60ff16815260200194505050505060405180910390f35b341561027e57600080fd5b61029460048080359060200190919050506115c9565b604051808673ffffffffffffffffffffffffffffffffffffffff1673ffffffffffffffffffffffffffffffffffffffff1681526020018573ffffffffffffffffffffffffffffffffffffffff1673ffffffffffffffffffffffffffffffffffffffff1681526020018481526020018360ff1660ff1681526020018260ff1660ff1681526020019550505050505060405180910390f35b341561033557600080fd5b61033d61178a565b6040518082815260200191505060405180910390f35b341561035e57600080fd5b61038a600480803573ffffffffffffffffffffffffffffffffffffffff1690602001909190505061178f565b005b341561039757600080fd5b61039f611881565b604051808273ffffffffffffffffffffffffffffffffffffffff1673ffffffffffffffffffffffffffffffffffffffff16815260200191505060405180910390f35b34156103ec57600080fd5b6103f46118a6565b6040518080602001828103825283818151815260200191508051906020019060200280838360005b8381101561043757808201518184015260208101905061041c565b505050509050019250505060405180910390f35b341561045657600080fd5b61045e6119ce565b6040518082815260200191505060405180910390f35b341561047f57600080fd5b61049560048080359060200190919050506119d3565b005b34156104a257600080fd5b6104b86004808035906020019091905050611b9f565b6040518082815260200191505060405180910390f35b34156104d957600080fd5b6104ef6004808035906020019091905050611bc3565b604051808873ffffffffffffffffffffffffffffffffffffffff1673ffffffffffffffffffffffffffffffffffffffff1681526020018773ffffffffffffffffffffffffffffffffffffffff1673ffffffffffffffffffffffffffffffffffffffff16815260200186815260200185600019166000191681526020018481526020018360ff1660ff1681526020018260ff1660ff16815260200197505050505050505060405180910390f35b34156105a657600080fd5b6105ae611dc1565b6040518082815260200191505060405180910390f35b34156105cf57600080fd5b610607600480803573ffffffffffffffffffffffffffffffffffffffff1690602001909190803560ff16906020019091905050611dc7565b005b341561061457600080fd5b61061c612047565b6040518082815260200191505060405180910390f35b60008060009054906101000a900473ffffffffffffffffffffffffffffffffffffffff1673ffffffffffffffffffffffffffffffffffffffff163373ffffffffffffffffffffffffffffffffffffffff1614806106f3575060018081111561069657fe5b600260003373ffffffffffffffffffffffffffffffffffffffff1673ffffffffffffffffffffffffffffffffffffffff16815260200190815260200160002060020160009054906101000a900460ff1660018111156106f157fe5b145b15156106fe57600080fd5b6007600083815260200190815260200160002090508060000160009054906101000a900473ffffffffffffffffffffffffffffffffffffffff1673ffffffffffffffffffffffffffffffffffffffff1660001415151561075d57600080fd5b8060000160009054906101000a900473ffffffffffffffffffffffffffffffffffffffff1673ffffffffffffffffffffffffffffffffffffffff163373ffffffffffffffffffffffffffffffffffffffff16141515156107bc57600080fd5b600060018111156107c957fe5b600260003373ffffffffffffffffffffffffffffffffffffffff1673ffffffffffffffffffffffffffffffffffffffff16815260200190815260200160002060020160019054906101000a900460ff16600181111561082457fe5b141561091b5760008160060160003373ffffffffffffffffffffffffffffffffffffffff1673ffffffffffffffffffffffffffffffffffffffff16815260200190815260200160002060009054906101000a900460ff1660ff1614151561088757fe5b60018160060160003373ffffffffffffffffffffffffffffffffffffffff1673ffffffffffffffffffffffffffffffffffffffff16815260200190815260200160002060006101000a81548160ff021916908360ff16021790555080600501600081819054906101000a900460ff168092919060010191906101000a81548160ff021916908360ff16021790555050610a08565b60008160070160003373ffffffffffffffffffffffffffffffffffffffff1673ffffffffffffffffffffffffffffffffffffffff16815260200190815260200160002060009054906101000a900460ff1660ff1614151561097857fe5b60018160070160003373ffffffffffffffffffffffffffffffffffffffff1673ffffffffffffffffffffffffffffffffffffffff16815260200190815260200160002060006101000a81548160ff021916908360ff16021790555080600501600181819054906101000a900460ff168092919060010191906101000a81548160ff021916908360ff160217905550505b7f3e47e5aa905f4ce61cec03b5265cb8a2d5545931ac4343223b6e4b4f3ba169fe3383604051808373ffffffffffffffffffffffffffffffffffffffff1673ffffffffffffffffffffffffffffffffffffffff1681526020018281526020019250505060405180910390a160048160050160009054906101000a900460ff1660ff16101580610aac575060028160050160019054906101000a900460ff1660ff1610155b15610c405780600301543073ffffffffffffffffffffffffffffffffffffffff163110151515610adb57600080fd5b7f19bf3c6c7c00fe49816a330d4a34d7438e1e1d8f4ce02f35476e556b7e690a928160000160009054906101000a900473ffffffffffffffffffffffffffffffffffffffff168260010160009054906101000a900473ffffffffffffffffffffffffffffffffffffffff16836003015485604051808573ffffffffffffffffffffffffffffffffffffffff1673ffffffffffffffffffffffffffffffffffffffff1681526020018473ffffffffffffffffffffffffffffffffffffffff1673ffffffffffffffffffffffffffffffffffffffff16815260200183815260200182815260200194505050505060405180910390a1610bd7826119d3565b8060010160009054906101000a900473ffffffffffffffffffffffffffffffffffffffff1673ffffffffffffffffffffffffffffffffffffffff166108fc82600301549081150290604051600060405180830381858888f193505050501515610c3f57600080fd5b5b5050565b610c4c612102565b6000809054906101000a900473ffffffffffffffffffffffffffffffffffffffff1673ffffffffffffffffffffffffffffffffffffffff163373ffffffffffffffffffffffffffffffffffffffff161480610d0b5750600180811115610cae57fe5b600260003373ffffffffffffffffffffffffffffffffffffffff1673ffffffffffffffffffffffffffffffffffffffff16815260200190815260200160002060020160009054906101000a900460ff166001811115610d0957fe5b145b1515610d1657600080fd5b6005805480602002602001604051908101604052809291908181526020018280548015610d6257602002820191906000526020600020905b815481526020019060010190808311610d4e575b5050505050905090565b60008060009054906101000a900473ffffffffffffffffffffffffffffffffffffffff1673ffffffffffffffffffffffffffffffffffffffff163373ffffffffffffffffffffffffffffffffffffffff161480610e2d5750600180811115610dd057fe5b600260003373ffffffffffffffffffffffffffffffffffffffff1673ffffffffffffffffffffffffffffffffffffffff16815260200190815260200160002060020160009054906101000a900460ff166001811115610e2b57fe5b145b1515610e3857600080fd5b610e4360068361204c565b905060018160ff16141515610e5457fe5b6006600160068054905003815481101515610e6b57fe5b9060005260206000209001600090556006805480919060019003610e8f9190612116565b5060086000838152602001908152602001600020600080820160006101000a81549073ffffffffffffffffffffffffffffffffffffffff02191690556001820160006101000a81549073ffffffffffffffffffffffffffffffffffffffff021916905560028201600090556003820160006101000a81549060ff02191690556003820160016101000a81549060ff021916905550505050565b60008060009054906101000a900473ffffffffffffffffffffffffffffffffffffffff1673ffffffffffffffffffffffffffffffffffffffff163373ffffffffffffffffffffffffffffffffffffffff161480610fe95750600180811115610f8c57fe5b600260003373ffffffffffffffffffffffffffffffffffffffff1673ffffffffffffffffffffffffffffffffffffffff16815260200190815260200160002060020160009054906101000a900460ff166001811115610fe757fe5b145b1515610ff457600080fd5b6008600083815260200190815260200160002090508060000160009054906101000a900473ffffffffffffffffffffffffffffffffffffffff1673ffffffffffffffffffffffffffffffffffffffff1660001415151561105357600080fd5b8060010160009054906101000a900473ffffffffffffffffffffffffffffffffffffffff1673ffffffffffffffffffffffffffffffffffffffff163373ffffffffffffffffffffffffffffffffffffffff16141515156110b257600080fd5b8060000160009054906101000a900473ffffffffffffffffffffffffffffffffffffffff1673ffffffffffffffffffffffffffffffffffffffff163373ffffffffffffffffffffffffffffffffffffffff161415151561111157600080fd5b6000600181111561111e57fe5b600260003373ffffffffffffffffffffffffffffffffffffffff1673ffffffffffffffffffffffffffffffffffffffff16815260200190815260200160002060020160019054906101000a900460ff16600181111561117957fe5b14156112705760008160040160003373ffffffffffffffffffffffffffffffffffffffff1673ffffffffffffffffffffffffffffffffffffffff16815260200190815260200160002060009054906101000a900460ff1660ff161415156111dc57fe5b60018160040160003373ffffffffffffffffffffffffffffffffffffffff1673ffffffffffffffffffffffffffffffffffffffff16815260200190815260200160002060006101000a81548160ff021916908360ff16021790555080600301600081819054906101000a900460ff168092919060010191906101000a81548160ff021916908360ff1602179055505061135d565b60008160050160003373ffffffffffffffffffffffffffffffffffffffff1673ffffffffffffffffffffffffffffffffffffffff16815260200190815260200160002060009054906101000a900460ff1660ff161415156112cd57fe5b60018160050160003373ffffffffffffffffffffffffffffffffffffffff1673ffffffffffffffffffffffffffffffffffffffff16815260200190815260200160002060006101000a81548160ff021916908360ff16021790555080600301600181819054906101000a900460ff168092919060010191906101000a81548160ff021916908360ff160217905550505b7fcbc55436fc174260581d79daef0ce9e0b60d49a26960bc02144f443e138c60c73383604051808373ffffffffffffffffffffffffffffffffffffffff1673ffffffffffffffffffffffffffffffffffffffff1681526020018281526020019250505060405180910390a160048160030160009054906101000a900460ff1660ff16101580611401575060028160030160019054906101000a900460ff1660ff1610155b1561155b577f5cbd293312973eaf99a077490765a818e977880a9b8fc67a01f0f8d0ae40a3dc8160000160009054906101000a900473ffffffffffffffffffffffffffffffffffffffff168260010160009054906101000a900473ffffffffffffffffffffffffffffffffffffffff1684604051808473ffffffffffffffffffffffffffffffffffffffff1673ffffffffffffffffffffffffffffffffffffffff1681526020018373ffffffffffffffffffffffffffffffffffffffff1673ffffffffffffffffffffffffffffffffffffffff168152602001828152602001935050505060405180910390a18060010160009054906101000a900473ffffffffffffffffffffffffffffffffffffffff166000806101000a81548173ffffffffffffffffffffffffffffffffffffffff021916908373ffffffffffffffffffffffffffffffffffffffff16021790555061155a82610d6c565b5b5050565b60026020528060005260406000206000915090508060000160009054906101000a900473ffffffffffffffffffffffffffffffffffffffff16908060010154908060020160009054906101000a900460ff16908060020160019054906101000a900460ff16905084565b60008060008060008060009054906101000a900473ffffffffffffffffffffffffffffffffffffffff1673ffffffffffffffffffffffffffffffffffffffff163373ffffffffffffffffffffffffffffffffffffffff161480611690575060018081111561163357fe5b600260003373ffffffffffffffffffffffffffffffffffffffff1673ffffffffffffffffffffffffffffffffffffffff16815260200190815260200160002060020160009054906101000a900460ff16600181111561168e57fe5b145b151561169b57600080fd5b6008600087815260200190815260200160002060000160009054906101000a900473ffffffffffffffffffffffffffffffffffffffff1694506008600087815260200190815260200160002060010160009054906101000a900473ffffffffffffffffffffffffffffffffffffffff169350600860008781526020019081526020016000206002015492506008600087815260200190815260200160002060030160009054906101000a900460ff1691506008600087815260200190815260200160002060030160019054906101000a900460ff16905084848484849450945094509450945091939590929450565b600981565b6000809054906101000a900473ffffffffffffffffffffffffffffffffffffffff1673ffffffffffffffffffffffffffffffffffffffff163373ffffffffffffffffffffffffffffffffffffffff161415156117ea57600080fd5b60006001541115156117fb57600080fd5b6000600260008373ffffffffffffffffffffffffffffffffffffffff1673ffffffffffffffffffffffffffffffffffffffff16815260200190815260200160002060020160006101000a81548160ff0219169083600181111561185a57fe5b02179055506000600154111561187e57600160008154809291906001900391905055505b50565b6000809054906101000a900473ffffffffffffffffffffffffffffffffffffffff1681565b6118ae612102565b6000809054906101000a900473ffffffffffffffffffffffffffffffffffffffff1673ffffffffffffffffffffffffffffffffffffffff163373ffffffffffffffffffffffffffffffffffffffff16148061196d575060018081111561191057fe5b600260003373ffffffffffffffffffffffffffffffffffffffff1673ffffffffffffffffffffffffffffffffffffffff16815260200190815260200160002060020160009054906101000a900460ff16600181111561196b57fe5b145b151561197857600080fd5b60068054806020026020016040519081016040528092919081815260200182805480156119c457602002820191906000526020600020905b8154815260200190600101908083116119b0575b5050505050905090565b600481565b60008060009054906101000a900473ffffffffffffffffffffffffffffffffffffffff1673ffffffffffffffffffffffffffffffffffffffff163373ffffffffffffffffffffffffffffffffffffffff161480611a945750600180811115611a3757fe5b600260003373ffffffffffffffffffffffffffffffffffffffff1673ffffffffffffffffffffffffffffffffffffffff16815260200190815260200160002060020160009054906101000a900460ff166001811115611a9257fe5b145b1515611a9f57600080fd5b611aaa60058361204c565b905060018160ff16141515611abb57fe5b6005805480919060019003611ad09190612116565b506005600160058054905003815481101515611ae857fe5b90600052602060002090016000905560076000838152602001908152602001600020600080820160006101000a81549073ffffffffffffffffffffffffffffffffffffffff02191690556001820160006101000a81549073ffffffffffffffffffffffffffffffffffffffff02191690556002820160009055600382016000905560048201600090556005820160006101000a81549060ff02191690556005820160016101000a81549060ff021916905550505050565b600581815481101515611bae57fe5b90600052602060002090016000915090505481565b60008060008060008060008060009054906101000a900473ffffffffffffffffffffffffffffffffffffffff1673ffffffffffffffffffffffffffffffffffffffff163373ffffffffffffffffffffffffffffffffffffffff161480611c8d5750600180811115611c3057fe5b600260003373ffffffffffffffffffffffffffffffffffffffff1673ffffffffffffffffffffffffffffffffffffffff16815260200190815260200160002060020160009054906101000a900460ff166001811115611c8b57fe5b145b1515611c9857600080fd5b6007600089815260200190815260200160002060000160009054906101000a900473ffffffffffffffffffffffffffffffffffffffff1696506007600089815260200190815260200160002060010160009054906101000a900473ffffffffffffffffffffffffffffffffffffffff1695506007600089815260200190815260200160002060030154945060076000898152602001908152602001600020600201549350600760008981526020019081526020016000206004015492506007600089815260200190815260200160002060050160009054906101000a900460ff1691506007600089815260200190815260200160002060050160019054906101000a900460ff169050868686868686869650965096509650965096509650919395979092949650565b60015481565b611dcf612142565b6000809054906101000a900473ffffffffffffffffffffffffffffffffffffffff1673ffffffffffffffffffffffffffffffffffffffff163373ffffffffffffffffffffffffffffffffffffffff16141515611e2a57600080fd5b600960015411151515611e3c57600080fd5b6000600260008573ffffffffffffffffffffffffffffffffffffffff1673ffffffffffffffffffffffffffffffffffffffff16815260200190815260200160002060000160009054906101000a900473ffffffffffffffffffffffffffffffffffffffff1673ffffffffffffffffffffffffffffffffffffffff16141515611ec357600080fd5b60016000815480929190600101919050555082816000019073ffffffffffffffffffffffffffffffffffffffff16908173ffffffffffffffffffffffffffffffffffffffff168152505042816020018181525050600181604001906001811115611f2957fe5b90816001811115611f3657fe5b815250508181606001906001811115611f4b57fe5b90816001811115611f5857fe5b8152505080600260008573ffffffffffffffffffffffffffffffffffffffff1673ffffffffffffffffffffffffffffffffffffffff16815260200190815260200160002060008201518160000160006101000a81548173ffffffffffffffffffffffffffffffffffffffff021916908373ffffffffffffffffffffffffffffffffffffffff1602179055506020820151816001015560408201518160020160006101000a81548160ff0219169083600181111561201157fe5b021790555060608201518160020160016101000a81548160ff0219169083600181111561203a57fe5b0217905550905050505050565b600281565b600080600080858054905011151561206357600080fd5b60009150600090505b84805490508110156120f7578160ff16600114156120c357848181548110151561209257fe5b90600052602060002090015485600183038154811015156120af57fe5b9060005260206000209001819055506120ea565b84818154811015156120d157fe5b9060005260206000209001548414156120e957600191505b5b808060010191505061206c565b819250505092915050565b602060405190810160405280600081525090565b81548183558181151161213d5781836000526020600020918201910161213c9190612197565b5b505050565b608060405190810160405280600073ffffffffffffffffffffffffffffffffffffffff168152602001600081526020016000600181111561217f57fe5b81526020016000600181111561219157fe5b81525090565b6121b991905b808211156121b557600081600090555060010161219d565b5090565b905600a165627a7a72305820eeae1abf7ed966a7e77da60ce8642cc11abd93b171c4289d4dc48c36feae61120029",
  "source": "pragma solidity ^0.4.18;\n\nimport './AccountAuthorizer.sol';\n\ncontract AccountTransaction is AccountAuthorizer {\n\n    // the minimum signatures for authorize the transaction\n    uint256 public constant MIN_SIGNATURES_ADVISER = 2;\n    uint256 public constant MIN_SIGNATURES_COLAB = 4;\n\n    uint256 internal _transactionIdx;\n    uint256 internal _transactionChangeContractOwnershipIdx;    \n\n    //list the pending transations\n    uint256[] public _pendingTransactions;\n    uint256[] internal _pendingTransactionsChangeContractOwnership;\n\n    mapping (uint256 => Transaction) internal _transactions;    \n    mapping (uint256 => TransactionChangeContractOwnership) internal _transactionsChangeContractOwnership;    \n\n    event TransactionSendTokenCreated(address from, address to, uint256 amount, uint256 transactionId);\n    event TransactionSendTokenCompleted(address from, address to, uint256 amount, uint256 transactionId);\n    event TransactionSendTokenSigned(address by, uint256 transactionId);\n\n    event TransactionChangeContractOwnershipCreated(address from, address to, uint256 transactionId);\n    event TransactionChangeContractOwnershipCompleted(address from, address to, uint256 transactionId);\n    event TransactionChangeContractOwnershipSigned(address by, uint256 transactionId);\n\n    //A struct to hold the Transaction's information about \n    // the transfering of tokens from an address to another\n    struct Transaction {\n        address from;\n        address to;\n        bytes32 description;\n        uint256 amount;\n        uint256 date;\n        uint8 signatureCountColab;\n        uint8 signatureCountAdviser;\n        mapping (address => uint8) signaturesColabs;\n        mapping (address => uint8) signaturesAdviser;\n    }\n\n    //A struct to hold the Transaction's information about \n    // the transfering of contract's ownership from an address to another\n    struct TransactionChangeContractOwnership {\n        address from;\n        address to;\n        uint256 amount;\n        uint8 signatureCountColab;\n        uint8 signatureCountAdviser;\n        mapping (address => uint8) signaturesColabs;\n        mapping (address => uint8) signaturesAdviser;\n    } \n\n    //Modifier to validate the ownership\n    modifier validOwner() {\n        require(msg.sender == owner || _authorizers[msg.sender].statusAuthorizer == StatusAuthorizer.ACTIVE);\n        _;\n    }     \n\n    //Get the transation to send tokens\n    function getTransactionSendToken(uint256 _transactionId) public validOwner view \n                                            returns (address from, address to, uint256 amount, \n                                            bytes32 description, uint256 date, uint8 signatureCountColab, uint8 signatureCountAdviser) \n    {\n        from = _transactions[_transactionId].from;\n        to = _transactions[_transactionId].to;\n        amount = _transactions[_transactionId].amount;\n        description = _transactions[_transactionId].description;\n        date = _transactions[_transactionId].date;\n        signatureCountColab = _transactions[_transactionId].signatureCountColab;\n        signatureCountAdviser = _transactions[_transactionId].signatureCountAdviser;\n        return (from, to, amount, description, date, signatureCountColab, signatureCountAdviser);\n    }\n\n    //Sign a transaction to send tokens\n    function signTransactionSendToken(uint256 _transactionId) public validOwner {\n\n        Transaction storage transaction = _transactions[_transactionId];\n        // Transaction must exist\n        require(0x0 != transaction.from);\n        // Creator cannot sign the transaction\n        require(msg.sender != transaction.from);\n\n        if (_authorizers[msg.sender].typeAuthorizer == TypeAuthorizer.COLAB) {\n            // Cannot sign a transaction more than once\n            assert(transaction.signaturesColabs[msg.sender] == 0);\n            transaction.signaturesColabs[msg.sender] = 1;\n            transaction.signatureCountColab++;\n        } else {\n            // Cannot sign a transaction more than once\n            assert(transaction.signaturesAdviser[msg.sender] == 0);\n            transaction.signaturesAdviser[msg.sender] = 1;\n            transaction.signatureCountAdviser++;            \n        }\n\n        TransactionSendTokenSigned(msg.sender, _transactionId);\n\n        if (transaction.signatureCountColab >= MIN_SIGNATURES_COLAB || transaction.signatureCountAdviser >= MIN_SIGNATURES_ADVISER ) {\n            require(address(this).balance >= transaction.amount);\n            TransactionSendTokenCompleted(transaction.from, transaction.to, \n                                            transaction.amount, _transactionId);\n            deleteTransactionSendToken(_transactionId);            \n            transaction.to.transfer(transaction.amount);\n        }\n    }\n\n    //Delete a transaction to send tokens\n    function deleteTransactionSendToken(uint256 _transactionId) public validOwner {\n        uint8 replace = replaceElementFromTransactionsArray(_pendingTransactions, _transactionId);\n        assert(replace == 1);\n        _pendingTransactions.length--;\n        delete _pendingTransactions[_pendingTransactions.length - 1];\n        delete _transactions[_transactionId];\n    }\n\n    //Get the pending transations to send tokens\n    function getPendingTransactionsSendToken() public validOwner view returns (uint256[]) {\n        return _pendingTransactions;\n    }    \n\n    //Get the transation to change Contract's ownership\n    function getTransactionToChangeContractOwnership(uint256 _transactionId) public validOwner view \n                                            returns (address from, address to, uint256 amount, uint8 signatureCountColab, uint8 signatureCountAdviser) \n    {\n        from = _transactionsChangeContractOwnership[_transactionId].from;\n        to = _transactionsChangeContractOwnership[_transactionId].to;\n        amount = _transactionsChangeContractOwnership[_transactionId].amount;\n        signatureCountColab = _transactionsChangeContractOwnership[_transactionId].signatureCountColab;\n        signatureCountAdviser = _transactionsChangeContractOwnership[_transactionId].signatureCountAdviser;\n\n        return (from, to, amount, signatureCountColab, signatureCountAdviser);\n    }\n\n    //Get the pending transations to change Contract's ownership\n    function getPendingTransactionsToChangeContractOwnership() public validOwner view returns (uint256[]) {\n        return _pendingTransactionsChangeContractOwnership;\n    }\n\n    //Sign a transaction to change Contract's ownership\n    function signTransactionToChangeContractOwnership(uint256 _transactionId) public validOwner {\n\n        TransactionChangeContractOwnership storage transaction = _transactionsChangeContractOwnership[_transactionId];\n\n        // Transaction must exist\n        require(0x0 != transaction.from);\n        // Receiver cannot sign the transaction\n        require(msg.sender != transaction.to);\n        // Creator cannot sign the transaction\n        require(msg.sender != transaction.from);\n        //check the type of authorizer\n        if (_authorizers[msg.sender].typeAuthorizer == TypeAuthorizer.COLAB) {\n            // Cannot sign a transaction more than once\n            assert(transaction.signaturesColabs[msg.sender] == 0);\n            transaction.signaturesColabs[msg.sender] = 1;\n            transaction.signatureCountColab++;\n        } else {\n            // Cannot sign a transaction more than once\n            assert(transaction.signaturesAdviser[msg.sender] == 0);\n            transaction.signaturesAdviser[msg.sender] = 1;\n            transaction.signatureCountAdviser++;            \n        }\n        TransactionChangeContractOwnershipSigned(msg.sender, _transactionId);\n        if (transaction.signatureCountColab >= MIN_SIGNATURES_COLAB || transaction.signatureCountAdviser >= MIN_SIGNATURES_ADVISER ) {\n            TransactionChangeContractOwnershipCompleted(transaction.from, transaction.to, _transactionId);\n            owner = transaction.to;\n            deleteTransactionChangeContractOwnership(_transactionId);\n        }\n    }\n    \n    //Delete a transaction to  change Contract's ownership\n    function deleteTransactionChangeContractOwnership(uint256 _transactionId) public validOwner {\n        uint8 replace = replaceElementFromTransactionsArray(_pendingTransactionsChangeContractOwnership, _transactionId);\n        assert(replace == 1);\n        delete _pendingTransactionsChangeContractOwnership[_pendingTransactionsChangeContractOwnership.length - 1];\n        _pendingTransactionsChangeContractOwnership.length--;\n        delete _transactionsChangeContractOwnership[_transactionId];\n    }      \n\n    function replaceElementFromTransactionsArray(uint256[] storage _transactionsArray, uint256 _transactionId) \n        private returns (uint8) \n    {\n        require(_transactionsArray.length > 0);\n        uint8 replace = 0;\n\n        for (uint256 i = 0; i < _transactionsArray.length; i++) {\n            if (1 == replace) {\n                _transactionsArray[i-1] = _transactionsArray[i];\n            } else if (_transactionId == _transactionsArray[i]) {\n                replace = 1;\n            }\n        }\n        return replace;\n    }    \n}",
  "sourcePath": "/Users/wellington.barbosa/Documents/go-blockchain/smart-contract-checking-account/contracts/AccountTransaction.sol",
  "compiler": {
    "name": "solc",
    "version": "0.4.19+commit.c4cbbb05.Emscripten.clang"
  },
  "schemaVersion": "1.0.1",
  "updatedAt": "2018-03-20T00:33:11.318Z"
}