{
  "contractName": "CheckingAccount",
  "abi": [
    {
      "constant": true,
      "inputs": [],
      "name": "owner",
      "outputs": [
        {
          "name": "",
          "type": "address"
        }
      ],
      "payable": false,
      "stateMutability": "view",
      "type": "function"
    },
    {
      "constant": false,
      "inputs": [
        {
          "name": "newOwner",
          "type": "address"
        }
      ],
      "name": "transferOwnership",
      "outputs": [],
      "payable": false,
      "stateMutability": "nonpayable",
      "type": "function"
    },
    {
      "inputs": [],
      "payable": false,
      "stateMutability": "nonpayable",
      "type": "constructor"
    },
    {
      "payable": true,
      "stateMutability": "payable",
      "type": "fallback"
    },
    {
      "anonymous": false,
      "inputs": [
        {
          "indexed": false,
          "name": "from",
          "type": "address"
        },
        {
          "indexed": false,
          "name": "amount",
          "type": "uint256"
        }
      ],
      "name": "DepositFunds",
      "type": "event"
    },
    {
      "anonymous": false,
      "inputs": [
        {
          "indexed": false,
          "name": "from",
          "type": "address"
        },
        {
          "indexed": false,
          "name": "to",
          "type": "address"
        },
        {
          "indexed": false,
          "name": "amount",
          "type": "uint256"
        },
        {
          "indexed": false,
          "name": "transactionId",
          "type": "uint256"
        }
      ],
      "name": "TransactionSendTokenCreated",
      "type": "event"
    },
    {
      "anonymous": false,
      "inputs": [
        {
          "indexed": false,
          "name": "from",
          "type": "address"
        },
        {
          "indexed": false,
          "name": "to",
          "type": "address"
        },
        {
          "indexed": false,
          "name": "amount",
          "type": "uint256"
        },
        {
          "indexed": false,
          "name": "transactionId",
          "type": "uint256"
        }
      ],
      "name": "TransactionSendTokenCompleted",
      "type": "event"
    },
    {
      "anonymous": false,
      "inputs": [
        {
          "indexed": false,
          "name": "by",
          "type": "address"
        },
        {
          "indexed": false,
          "name": "transactionId",
          "type": "uint256"
        }
      ],
      "name": "TransactionSendTokenSigned",
      "type": "event"
    },
    {
      "anonymous": false,
      "inputs": [
        {
          "indexed": false,
          "name": "from",
          "type": "address"
        },
        {
          "indexed": false,
          "name": "to",
          "type": "address"
        },
        {
          "indexed": false,
          "name": "transactionId",
          "type": "uint256"
        }
      ],
      "name": "TransactionChangeContractOwnershipCreated",
      "type": "event"
    },
    {
      "anonymous": false,
      "inputs": [
        {
          "indexed": false,
          "name": "from",
          "type": "address"
        },
        {
          "indexed": false,
          "name": "to",
          "type": "address"
        },
        {
          "indexed": false,
          "name": "transactionId",
          "type": "uint256"
        }
      ],
      "name": "TransactionChangeContractOwnershipCompleted",
      "type": "event"
    },
    {
      "anonymous": false,
      "inputs": [
        {
          "indexed": false,
          "name": "by",
          "type": "address"
        },
        {
          "indexed": false,
          "name": "transactionId",
          "type": "uint256"
        }
      ],
      "name": "TransactionChangeContractOwnershipSigned",
      "type": "event"
    },
    {
      "anonymous": false,
      "inputs": [
        {
          "indexed": true,
          "name": "previousOwner",
          "type": "address"
        },
        {
          "indexed": true,
          "name": "newOwner",
          "type": "address"
        }
      ],
      "name": "OwnershipTransferred",
      "type": "event"
    },
    {
      "constant": false,
      "inputs": [
        {
          "name": "authorized",
          "type": "address"
        }
      ],
      "name": "addAuthorizer",
      "outputs": [],
      "payable": false,
      "stateMutability": "nonpayable",
      "type": "function"
    },
    {
      "constant": false,
      "inputs": [
        {
          "name": "authorized",
          "type": "address"
        }
      ],
      "name": "removeAuthorizer",
      "outputs": [],
      "payable": false,
      "stateMutability": "nonpayable",
      "type": "function"
    },
    {
      "constant": false,
      "inputs": [
        {
          "name": "amount",
          "type": "uint256"
        },
        {
          "name": "description",
          "type": "bytes32"
        }
      ],
      "name": "withdraw",
      "outputs": [],
      "payable": false,
      "stateMutability": "nonpayable",
      "type": "function"
    },
    {
      "constant": true,
      "inputs": [],
      "name": "getPendingTransactionsSendToken",
      "outputs": [
        {
          "name": "",
          "type": "uint256[]"
        }
      ],
      "payable": false,
      "stateMutability": "view",
      "type": "function"
    },
    {
      "constant": true,
      "inputs": [
        {
          "name": "transactionId",
          "type": "uint256"
        }
      ],
      "name": "getTransactionSendToken",
      "outputs": [
        {
          "name": "from",
          "type": "address"
        },
        {
          "name": "to",
          "type": "address"
        },
        {
          "name": "amount",
          "type": "uint256"
        },
        {
          "name": "description",
          "type": "bytes32"
        },
        {
          "name": "date",
          "type": "uint256"
        },
        {
          "name": "signatureCount",
          "type": "uint8"
        }
      ],
      "payable": false,
      "stateMutability": "view",
      "type": "function"
    },
    {
      "constant": false,
      "inputs": [
        {
          "name": "transactionId",
          "type": "uint256"
        }
      ],
      "name": "signTransactionSendToken",
      "outputs": [],
      "payable": false,
      "stateMutability": "nonpayable",
      "type": "function"
    },
    {
      "constant": false,
      "inputs": [
        {
          "name": "transactionId",
          "type": "uint256"
        }
      ],
      "name": "deleteTransactionSendToken",
      "outputs": [],
      "payable": false,
      "stateMutability": "nonpayable",
      "type": "function"
    },
    {
      "constant": false,
      "inputs": [
        {
          "name": "to",
          "type": "address"
        }
      ],
      "name": "transferContractOwnershipTo",
      "outputs": [],
      "payable": false,
      "stateMutability": "nonpayable",
      "type": "function"
    },
    {
      "constant": true,
      "inputs": [],
      "name": "getPendingTransactionsToChangeContractOwnership",
      "outputs": [
        {
          "name": "",
          "type": "uint256[]"
        }
      ],
      "payable": false,
      "stateMutability": "view",
      "type": "function"
    },
    {
      "constant": true,
      "inputs": [
        {
          "name": "transactionId",
          "type": "uint256"
        }
      ],
      "name": "getTransactionToChangeContractOwnership",
      "outputs": [
        {
          "name": "from",
          "type": "address"
        },
        {
          "name": "to",
          "type": "address"
        },
        {
          "name": "amount",
          "type": "uint256"
        },
        {
          "name": "signatureCount",
          "type": "uint8"
        }
      ],
      "payable": false,
      "stateMutability": "view",
      "type": "function"
    },
    {
      "constant": false,
      "inputs": [
        {
          "name": "transactionId",
          "type": "uint256"
        }
      ],
      "name": "signTransactionToChangeContractOwnership",
      "outputs": [],
      "payable": false,
      "stateMutability": "nonpayable",
      "type": "function"
    },
    {
      "constant": false,
      "inputs": [
        {
          "name": "transactionId",
          "type": "uint256"
        }
      ],
      "name": "deleteTransactionChangeContractOwnership",
      "outputs": [],
      "payable": false,
      "stateMutability": "nonpayable",
      "type": "function"
    },
    {
      "constant": true,
      "inputs": [],
      "name": "walletBalance",
      "outputs": [
        {
          "name": "",
          "type": "uint256"
        }
      ],
      "payable": false,
      "stateMutability": "view",
      "type": "function"
    }
  ],
  "bytecode": "0x6060604052341561000f57600080fd5b336000806101000a81548173ffffffffffffffffffffffffffffffffffffffff021916908373ffffffffffffffffffffffffffffffffffffffff160217905550600060038190555033600660006101000a81548173ffffffffffffffffffffffffffffffffffffffff021916908373ffffffffffffffffffffffffffffffffffffffff1602179055506123c3806100a76000396000f3006060604052600436106100db576000357c0100000000000000000000000000000000000000000000000000000000900463ffffffff16806308fa9386146101485780630badd5121461016b5780632847fcca146101a45780633c6b5deb1461020e5780634a4666c114610231578063517800551461026a5780638121e1111461028d5780638b69759d146103375780638da5cb5b14610370578063a79a4c5d146103c5578063a8d2021a1461042f578063ae5a8a971461045f578063b5ba4db114610482578063cd0a314b14610542578063f2fde38b1461056b575b7fd241e73300212f6df233a8e6d3146b88a9d4964e06621d54b5ff6afeba7b1b883334604051808373ffffffffffffffffffffffffffffffffffffffff1673ffffffffffffffffffffffffffffffffffffffff1681526020018281526020019250505060405180910390a1005b341561015357600080fd5b61016960048080359060200190919050506105a4565b005b341561017657600080fd5b6101a2600480803573ffffffffffffffffffffffffffffffffffffffff16906020019091905050610a28565b005b34156101af57600080fd5b6101b7610cc0565b6040518080602001828103825283818151815260200191508051906020019060200280838360005b838110156101fa5780820151818401526020810190506101df565b505050509050019250505060405180910390f35b341561021957600080fd5b61022f6004808035906020019091905050610dd7565b005b341561023c57600080fd5b610268600480803573ffffffffffffffffffffffffffffffffffffffff16906020019091905050610f6e565b005b341561027557600080fd5b61028b6004808035906020019091905050611185565b005b341561029857600080fd5b6102ae600480803590602001909190505061163d565b604051808573ffffffffffffffffffffffffffffffffffffffff1673ffffffffffffffffffffffffffffffffffffffff1681526020018473ffffffffffffffffffffffffffffffffffffffff1673ffffffffffffffffffffffffffffffffffffffff1681526020018381526020018260ff1660ff16815260200194505050505060405180910390f35b341561034257600080fd5b61036e600480803573ffffffffffffffffffffffffffffffffffffffff169060200190919050506117b4565b005b341561037b57600080fd5b61038361188d565b604051808273ffffffffffffffffffffffffffffffffffffffff1673ffffffffffffffffffffffffffffffffffffffff16815260200191505060405180910390f35b34156103d057600080fd5b6103d86118b2565b6040518080602001828103825283818151815260200191508051906020019060200280838360005b8381101561041b578082015181840152602081019050610400565b505050509050019250505060405180910390f35b341561043a57600080fd5b61045d6004808035906020019091908035600019169060200190919050506119c9565b005b341561046a57600080fd5b61048060048080359060200190919050506119d8565b005b341561048d57600080fd5b6104a36004808035906020019091905050611b7f565b604051808773ffffffffffffffffffffffffffffffffffffffff1673ffffffffffffffffffffffffffffffffffffffff1681526020018673ffffffffffffffffffffffffffffffffffffffff1673ffffffffffffffffffffffffffffffffffffffff16815260200185815260200184600019166000191681526020018381526020018260ff1660ff168152602001965050505050505060405180910390f35b341561054d57600080fd5b610555611d2d565b6040518082815260200191505060405180910390f35b341561057657600080fd5b6105a2600480803573ffffffffffffffffffffffffffffffffffffffff16906020019091905050611d4c565b005b6000600660009054906101000a900473ffffffffffffffffffffffffffffffffffffffff1673ffffffffffffffffffffffffffffffffffffffff163373ffffffffffffffffffffffffffffffffffffffff16148061065457506001600760003373ffffffffffffffffffffffffffffffffffffffff1673ffffffffffffffffffffffffffffffffffffffff16815260200190815260200160002060020160009054906101000a900460ff1660ff16145b151561065f57600080fd5b6009600083815260200190815260200160002090508060000160009054906101000a900473ffffffffffffffffffffffffffffffffffffffff1673ffffffffffffffffffffffffffffffffffffffff166000141515156106be57600080fd5b8060000160009054906101000a900473ffffffffffffffffffffffffffffffffffffffff1673ffffffffffffffffffffffffffffffffffffffff163373ffffffffffffffffffffffffffffffffffffffff161415151561071d57600080fd5b60008160060160003373ffffffffffffffffffffffffffffffffffffffff1673ffffffffffffffffffffffffffffffffffffffff16815260200190815260200160002060009054906101000a900460ff1660ff1614151561077d57600080fd5b60018160060160003373ffffffffffffffffffffffffffffffffffffffff1673ffffffffffffffffffffffffffffffffffffffff16815260200190815260200160002060006101000a81548160ff021916908360ff16021790555080600501600081819054906101000a900460ff168092919060010191906101000a81548160ff021916908360ff160217905550507f3e47e5aa905f4ce61cec03b5265cb8a2d5545931ac4343223b6e4b4f3ba169fe3383604051808373ffffffffffffffffffffffffffffffffffffffff1673ffffffffffffffffffffffffffffffffffffffff1681526020018281526020019250505060405180910390a160028160050160009054906101000a900460ff1660ff16101515610a245780600301543073ffffffffffffffffffffffffffffffffffffffff1631101515156108bf57600080fd5b8060010160009054906101000a900473ffffffffffffffffffffffffffffffffffffffff1673ffffffffffffffffffffffffffffffffffffffff166108fc82600301549081150290604051600060405180830381858888f19350505050151561092757600080fd5b7f19bf3c6c7c00fe49816a330d4a34d7438e1e1d8f4ce02f35476e556b7e690a928160000160009054906101000a900473ffffffffffffffffffffffffffffffffffffffff168260010160009054906101000a900473ffffffffffffffffffffffffffffffffffffffff16836003015485604051808573ffffffffffffffffffffffffffffffffffffffff1673ffffffffffffffffffffffffffffffffffffffff1681526020018473ffffffffffffffffffffffffffffffffffffffff1673ffffffffffffffffffffffffffffffffffffffff16815260200183815260200182815260200194505050505060405180910390a1610a23826119d8565b5b5050565b6000610a3261220a565b6000809054906101000a900473ffffffffffffffffffffffffffffffffffffffff1673ffffffffffffffffffffffffffffffffffffffff163373ffffffffffffffffffffffffffffffffffffffff16141515610a8d57600080fd5b6002600081548092919060010191905055915033816000019073ffffffffffffffffffffffffffffffffffffffff16908173ffffffffffffffffffffffffffffffffffffffff168152505082816020019073ffffffffffffffffffffffffffffffffffffffff16908173ffffffffffffffffffffffffffffffffffffffff16815250506000816060019060ff16908160ff168152505080600a600084815260200190815260200160002060008201518160000160006101000a81548173ffffffffffffffffffffffffffffffffffffffff021916908373ffffffffffffffffffffffffffffffffffffffff16021790555060208201518160010160006101000a81548173ffffffffffffffffffffffffffffffffffffffff021916908373ffffffffffffffffffffffffffffffffffffffff1602179055506040820151816002015560608201518160030160006101000a81548160ff021916908360ff16021790555090505060058054806001018281610c079190612262565b9160005260206000209001600084909190915055507f0caccb348cfa6b226d4ea17465bd66b699bd1a487c5818fc5a888ac0ce29dd4e338484604051808473ffffffffffffffffffffffffffffffffffffffff1673ffffffffffffffffffffffffffffffffffffffff1681526020018373ffffffffffffffffffffffffffffffffffffffff1673ffffffffffffffffffffffffffffffffffffffff168152602001828152602001935050505060405180910390a1505050565b610cc861228e565b600660009054906101000a900473ffffffffffffffffffffffffffffffffffffffff1673ffffffffffffffffffffffffffffffffffffffff163373ffffffffffffffffffffffffffffffffffffffff161480610d7657506001600760003373ffffffffffffffffffffffffffffffffffffffff1673ffffffffffffffffffffffffffffffffffffffff16815260200190815260200160002060020160009054906101000a900460ff1660ff16145b1515610d8157600080fd5b6004805480602002602001604051908101604052809291908181526020018280548015610dcd57602002820191906000526020600020905b815481526020019060010190808311610db9575b5050505050905090565b6000600660009054906101000a900473ffffffffffffffffffffffffffffffffffffffff1673ffffffffffffffffffffffffffffffffffffffff163373ffffffffffffffffffffffffffffffffffffffff161480610e8757506001600760003373ffffffffffffffffffffffffffffffffffffffff1673ffffffffffffffffffffffffffffffffffffffff16815260200190815260200160002060020160009054906101000a900460ff1660ff16145b1515610e9257600080fd5b610e9d600583611ea1565b905060018160ff16141515610eae57fe5b6005600160058054905003815481101515610ec557fe5b9060005260206000209001600090556005805480919060019003610ee991906122a2565b50600a6000838152602001908152602001600020600080820160006101000a81549073ffffffffffffffffffffffffffffffffffffffff02191690556001820160006101000a81549073ffffffffffffffffffffffffffffffffffffffff021916905560028201600090556003820160006101000a81549060ff021916905550505050565b610f766122ce565b6000809054906101000a900473ffffffffffffffffffffffffffffffffffffffff1673ffffffffffffffffffffffffffffffffffffffff163373ffffffffffffffffffffffffffffffffffffffff16141515610fd157600080fd5b600960035411151515610fe357600080fd5b6000600760008473ffffffffffffffffffffffffffffffffffffffff1673ffffffffffffffffffffffffffffffffffffffff16815260200190815260200160002060000160009054906101000a900473ffffffffffffffffffffffffffffffffffffffff1673ffffffffffffffffffffffffffffffffffffffff161415611077576003600081548092919060010191905055505b81816000019073ffffffffffffffffffffffffffffffffffffffff16908173ffffffffffffffffffffffffffffffffffffffff1681525050428160200181815250506001816040019060ff16908160ff168152505080600760008473ffffffffffffffffffffffffffffffffffffffff1673ffffffffffffffffffffffffffffffffffffffff16815260200190815260200160002060008201518160000160006101000a81548173ffffffffffffffffffffffffffffffffffffffff021916908373ffffffffffffffffffffffffffffffffffffffff1602179055506020820151816001015560408201518160020160006101000a81548160ff021916908360ff1602179055509050505050565b6000600660009054906101000a900473ffffffffffffffffffffffffffffffffffffffff1673ffffffffffffffffffffffffffffffffffffffff163373ffffffffffffffffffffffffffffffffffffffff16148061123557506001600760003373ffffffffffffffffffffffffffffffffffffffff1673ffffffffffffffffffffffffffffffffffffffff16815260200190815260200160002060020160009054906101000a900460ff1660ff16145b151561124057600080fd5b600a600083815260200190815260200160002090508060000160009054906101000a900473ffffffffffffffffffffffffffffffffffffffff1673ffffffffffffffffffffffffffffffffffffffff1660001415151561129f57600080fd5b8060010160009054906101000a900473ffffffffffffffffffffffffffffffffffffffff1673ffffffffffffffffffffffffffffffffffffffff163373ffffffffffffffffffffffffffffffffffffffff16141515156112fe57600080fd5b8060000160009054906101000a900473ffffffffffffffffffffffffffffffffffffffff1673ffffffffffffffffffffffffffffffffffffffff163373ffffffffffffffffffffffffffffffffffffffff161415151561135d57600080fd5b60008160040160003373ffffffffffffffffffffffffffffffffffffffff1673ffffffffffffffffffffffffffffffffffffffff16815260200190815260200160002060009054906101000a900460ff1660ff161415156113bd57600080fd5b60018160040160003373ffffffffffffffffffffffffffffffffffffffff1673ffffffffffffffffffffffffffffffffffffffff16815260200190815260200160002060006101000a81548160ff021916908360ff16021790555080600301600081819054906101000a900460ff168092919060010191906101000a81548160ff021916908360ff160217905550507fcbc55436fc174260581d79daef0ce9e0b60d49a26960bc02144f443e138c60c73383604051808373ffffffffffffffffffffffffffffffffffffffff1673ffffffffffffffffffffffffffffffffffffffff1681526020018281526020019250505060405180910390a160016002808115156114c557fe5b04018160030160009054906101000a900460ff1660ff16101515611639578060010160009054906101000a900473ffffffffffffffffffffffffffffffffffffffff16600660006101000a81548173ffffffffffffffffffffffffffffffffffffffff021916908373ffffffffffffffffffffffffffffffffffffffff1602179055507f5cbd293312973eaf99a077490765a818e977880a9b8fc67a01f0f8d0ae40a3dc8160000160009054906101000a900473ffffffffffffffffffffffffffffffffffffffff168260010160009054906101000a900473ffffffffffffffffffffffffffffffffffffffff1684604051808473ffffffffffffffffffffffffffffffffffffffff1673ffffffffffffffffffffffffffffffffffffffff1681526020018373ffffffffffffffffffffffffffffffffffffffff1673ffffffffffffffffffffffffffffffffffffffff168152602001828152602001935050505060405180910390a161163882610dd7565b5b5050565b600080600080600660009054906101000a900473ffffffffffffffffffffffffffffffffffffffff1673ffffffffffffffffffffffffffffffffffffffff163373ffffffffffffffffffffffffffffffffffffffff1614806116f157506001600760003373ffffffffffffffffffffffffffffffffffffffff1673ffffffffffffffffffffffffffffffffffffffff16815260200190815260200160002060020160009054906101000a900460ff1660ff16145b15156116fc57600080fd5b600a600086815260200190815260200160002060000160009054906101000a900473ffffffffffffffffffffffffffffffffffffffff169350600a600086815260200190815260200160002060010160009054906101000a900473ffffffffffffffffffffffffffffffffffffffff169250600a6000868152602001908152602001600020600201549150600a600086815260200190815260200160002060030160009054906101000a900460ff1690509193509193565b6000809054906101000a900473ffffffffffffffffffffffffffffffffffffffff1673ffffffffffffffffffffffffffffffffffffffff163373ffffffffffffffffffffffffffffffffffffffff1614151561180f57600080fd5b6000600760008373ffffffffffffffffffffffffffffffffffffffff1673ffffffffffffffffffffffffffffffffffffffff16815260200190815260200160002060020160006101000a81548160ff021916908360ff1602179055506000600354111561188a57600360008154809291906001900391905055505b50565b6000809054906101000a900473ffffffffffffffffffffffffffffffffffffffff1681565b6118ba61228e565b600660009054906101000a900473ffffffffffffffffffffffffffffffffffffffff1673ffffffffffffffffffffffffffffffffffffffff163373ffffffffffffffffffffffffffffffffffffffff16148061196857506001600760003373ffffffffffffffffffffffffffffffffffffffff1673ffffffffffffffffffffffffffffffffffffffff16815260200190815260200160002060020160009054906101000a900460ff1660ff16145b151561197357600080fd5b60058054806020026020016040519081016040528092919081815260200182805480156119bf57602002820191906000526020600020905b8154815260200190600101908083116119ab575b5050505050905090565b6119d4338383611f57565b5050565b6000600660009054906101000a900473ffffffffffffffffffffffffffffffffffffffff1673ffffffffffffffffffffffffffffffffffffffff163373ffffffffffffffffffffffffffffffffffffffff161480611a8857506001600760003373ffffffffffffffffffffffffffffffffffffffff1673ffffffffffffffffffffffffffffffffffffffff16815260200190815260200160002060020160009054906101000a900460ff1660ff16145b1515611a9357600080fd5b611a9e600483611ea1565b905060018160ff16141515611aaf57fe5b6004600160048054905003815481101515611ac657fe5b9060005260206000209001600090556004805480919060019003611aea91906122a2565b5060096000838152602001908152602001600020600080820160006101000a81549073ffffffffffffffffffffffffffffffffffffffff02191690556001820160006101000a81549073ffffffffffffffffffffffffffffffffffffffff02191690556002820160009055600382016000905560048201600090556005820160006101000a81549060ff021916905550505050565b600080600080600080600660009054906101000a900473ffffffffffffffffffffffffffffffffffffffff1673ffffffffffffffffffffffffffffffffffffffff163373ffffffffffffffffffffffffffffffffffffffff161480611c3657506001600760003373ffffffffffffffffffffffffffffffffffffffff1673ffffffffffffffffffffffffffffffffffffffff16815260200190815260200160002060020160009054906101000a900460ff1660ff16145b1515611c4157600080fd5b6009600088815260200190815260200160002060000160009054906101000a900473ffffffffffffffffffffffffffffffffffffffff1695506009600088815260200190815260200160002060010160009054906101000a900473ffffffffffffffffffffffffffffffffffffffff1694506009600088815260200190815260200160002060030154935060096000888152602001908152602001600020600201549250600960008881526020019081526020016000206004015491506009600088815260200190815260200160002060050160009054906101000a900460ff16905091939550919395565b60003073ffffffffffffffffffffffffffffffffffffffff1631905090565b6000809054906101000a900473ffffffffffffffffffffffffffffffffffffffff1673ffffffffffffffffffffffffffffffffffffffff163373ffffffffffffffffffffffffffffffffffffffff16141515611da757600080fd5b600073ffffffffffffffffffffffffffffffffffffffff168173ffffffffffffffffffffffffffffffffffffffff1614151515611de357600080fd5b8073ffffffffffffffffffffffffffffffffffffffff166000809054906101000a900473ffffffffffffffffffffffffffffffffffffffff1673ffffffffffffffffffffffffffffffffffffffff167f8be0079c531659141344cd1fd0a4f28419497f9722a3daafe3b4186f6b6457e060405160405180910390a3806000806101000a81548173ffffffffffffffffffffffffffffffffffffffff021916908373ffffffffffffffffffffffffffffffffffffffff16021790555050565b6000806000808580549050111515611eb857600080fd5b60009150600090505b8480549050811015611f4c578160ff1660011415611f18578481815481101515611ee757fe5b9060005260206000209001548560018303815481101515611f0457fe5b906000526020600020900181905550611f3f565b8481815481101515611f2657fe5b906000526020600020900154841415611f3e57600191505b5b8080600101915050611ec1565b819250505092915050565b6000611f61612309565b833073ffffffffffffffffffffffffffffffffffffffff163110151515611f8757600080fd5b6001600081548092919060010191905055915033816000019073ffffffffffffffffffffffffffffffffffffffff16908173ffffffffffffffffffffffffffffffffffffffff168152505084816020019073ffffffffffffffffffffffffffffffffffffffff16908173ffffffffffffffffffffffffffffffffffffffff16815250508381606001818152505082816040019060001916908160001916815250504281608001818152505060008160a0019060ff16908160ff1681525050806009600084815260200190815260200160002060008201518160000160006101000a81548173ffffffffffffffffffffffffffffffffffffffff021916908373ffffffffffffffffffffffffffffffffffffffff16021790555060208201518160010160006101000a81548173ffffffffffffffffffffffffffffffffffffffff021916908373ffffffffffffffffffffffffffffffffffffffff16021790555060408201518160020190600019169055606082015181600301556080820151816004015560a08201518160050160006101000a81548160ff021916908360ff160217905550905050600480548060010182816121439190612262565b9160005260206000209001600084909190915055507f80495c6070a2bc1d6f4e41e8996d953787b533d81fa7c3ac9a6f53bbfefb86a98160000151868685604051808573ffffffffffffffffffffffffffffffffffffffff1673ffffffffffffffffffffffffffffffffffffffff1681526020018473ffffffffffffffffffffffffffffffffffffffff1673ffffffffffffffffffffffffffffffffffffffff16815260200183815260200182815260200194505050505060405180910390a15050505050565b608060405190810160405280600073ffffffffffffffffffffffffffffffffffffffff168152602001600073ffffffffffffffffffffffffffffffffffffffff16815260200160008152602001600060ff1681525090565b815481835581811511612289578183600052602060002091820191016122889190612372565b5b505050565b602060405190810160405280600081525090565b8154818355818115116122c9578183600052602060002091820191016122c89190612372565b5b505050565b606060405190810160405280600073ffffffffffffffffffffffffffffffffffffffff16815260200160008152602001600060ff1681525090565b60c060405190810160405280600073ffffffffffffffffffffffffffffffffffffffff168152602001600073ffffffffffffffffffffffffffffffffffffffff168152602001600080191681526020016000815260200160008152602001600060ff1681525090565b61239491905b80821115612390576000816000905550600101612378565b5090565b905600a165627a7a72305820e7594da43729726b63c24220e85c95ad7a3db584235ca1dd85bd9935d539d8a40029",
  "source": "pragma solidity ^0.4.18;\n\nimport \"../node_modules/zeppelin-solidity/contracts/ownership/Ownable.sol\";\n\n\ncontract CheckingAccount is Ownable {\n\n    //A struct to hold the Authorizer's informations\n    struct Authorizer {\n        address _address;\n        uint entryDate;\n        uint8 status; // 0 - Inactive | 1 - Active\n    }\n\n    //A struct to hold the Transaction's information about \n    // the transfering of tokens from an address to another\n    struct Transaction {\n        address from;\n        address to;\n        bytes32 description;\n        uint amount;\n        uint date;\n        uint8 signatureCount;\n        mapping (address => uint8) signatures;\n    }\n\n    //A struct to hold the Transaction's information about \n    // the transfering of contract's ownership from an address to another\n    struct TransactionChangeContractOwnership {\n        address from;\n        address to;\n        uint amount;\n        uint8 signatureCount;\n        mapping (address => uint8) signatures;\n    }\n\n    uint private constant MIN_SIGNATURES = 2;\n    uint private constant MAX_AUTHORIZERS = 9;\n    uint private _transactionIdx;\n    uint private _transactionChangeContractOwnershipIdx;\n    uint private _numAuthorized;\n\n    uint[] private _pendingTransactions;\n    uint[] private _pendingTransactionsChangeContractOwnership;\n\n    address private _owner;\n\n    mapping(address => Authorizer) private _authorizers;\n    mapping(address => uint8) private _owners;\n    mapping (uint => Transaction) private _transactions;\n    mapping (uint => TransactionChangeContractOwnership) private _transactionsChangeContractOwnership;\n\n    //Modifier to validate the ownership\n    modifier validOwner() {\n        require(msg.sender == _owner || _authorizers[msg.sender].status == 1);\n        _;\n    }\n\n    event DepositFunds(address from, uint amount);\n    event TransactionSendTokenCreated(address from, address to, uint amount, uint transactionId);\n    event TransactionSendTokenCompleted(address from, address to, uint amount, uint transactionId);\n    event TransactionSendTokenSigned(address by, uint transactionId);\n\n    event TransactionChangeContractOwnershipCreated(address from, address to, uint transactionId);\n    event TransactionChangeContractOwnershipCompleted(address from, address to, uint transactionId);\n    event TransactionChangeContractOwnershipSigned(address by, uint transactionId);\n\n    function CheckingAccount() public {\n        _numAuthorized = 0;\n        _owner = msg.sender;\n    }\n\n    //Receive tokens for the contract\n    function() public payable {\n        DepositFunds(msg.sender, msg.value);\n    }\n\n    //Add transaction's authorizer\n    function addAuthorizer(address authorized) public onlyOwner {\n        require(_numAuthorized <= MAX_AUTHORIZERS);\n\n        if (_authorizers[authorized]._address == 0x0) {\n            _numAuthorized++;\n        }\n        Authorizer memory authorizer;\n        authorizer._address = authorized;\n        authorizer.entryDate = now;\n        authorizer.status = 1;\n        _authorizers[authorized] = authorizer;\n    }\n    \n    //Remove transaction's authorizer\n    function removeAuthorizer(address authorized) public onlyOwner {\n         _authorizers[authorized].status = 0;\n         if (_numAuthorized > 0) {\n            _numAuthorized--;\n         }\n    }\n\n    //Request tokens withdraw\n    function withdraw(uint amount, bytes32 description) public {\n        transferTo(msg.sender, amount, description);\n    }\n\n    //Transfer tokens from Contract's balance to another address\n    function transferTo(address to, uint amount, bytes32 description) private {\n        require(address(this).balance >= amount);\n        uint transactionId = _transactionIdx++;\n\n        Transaction memory transaction;\n        transaction.from = msg.sender;\n        transaction.to = to;\n        transaction.amount = amount;\n        transaction.description = description;\n        transaction.date = now;\n        transaction.signatureCount = 0;\n\n        _transactions[transactionId] = transaction;\n        _pendingTransactions.push(transactionId);\n\n        TransactionSendTokenCreated(transaction.from, to, amount, transactionId);\n    }\n\n    //Get the pending transations to send tokens\n    function getPendingTransactionsSendToken() public validOwner view returns (uint[]) {\n        return _pendingTransactions;\n    }\n\n    //Get the transation to send tokens\n    function getTransactionSendToken(uint transactionId) public validOwner view \n                                            returns (address from, address to, uint amount, \n                                            bytes32 description, uint date, uint8 signatureCount) \n    {\n        from = _transactions[transactionId].from;\n        to = _transactions[transactionId].to;\n        amount = _transactions[transactionId].amount;\n        description = _transactions[transactionId].description;\n        date = _transactions[transactionId].date;\n        signatureCount = _transactions[transactionId].signatureCount;\n    }\n\n    //Sign a transaction to send tokens\n    function signTransactionSendToken(uint transactionId) public validOwner {\n\n        Transaction storage transaction = _transactions[transactionId];\n\n        // Transaction must exist\n        require(0x0 != transaction.from);\n        // Creator cannot sign the transaction\n        require(msg.sender != transaction.from);\n        // Cannot sign a transaction more than once\n        require(transaction.signatures[msg.sender] == 0);\n\n        transaction.signatures[msg.sender] = 1;\n        transaction.signatureCount++;\n\n        TransactionSendTokenSigned(msg.sender, transactionId);\n\n        if (transaction.signatureCount >= MIN_SIGNATURES) {\n            require(address(this).balance >= transaction.amount);\n            transaction.to.transfer(transaction.amount);\n            TransactionSendTokenCompleted(transaction.from, transaction.to, \n                                            transaction.amount, transactionId);\n            deleteTransactionSendToken(transactionId);\n        }\n    }\n\n    //Delete a transaction to send tokens\n    function deleteTransactionSendToken(uint transactionId) public validOwner {\n        uint8 replace = replaceElementFromTransactionsArray(_pendingTransactions, transactionId);\n        assert(replace == 1);\n        delete _pendingTransactions[_pendingTransactions.length - 1];\n        _pendingTransactions.length--;\n        delete _transactions[transactionId];\n    }\n\n    //Transfer Contract's ownership to another address\n    function transferContractOwnershipTo(address to) public onlyOwner {\n        uint transactionId = _transactionChangeContractOwnershipIdx++;\n\n        TransactionChangeContractOwnership memory transaction;\n        transaction.from = msg.sender;\n        transaction.to = to;\n        transaction.signatureCount = 0;\n\n        _transactionsChangeContractOwnership[transactionId] = transaction;\n        _pendingTransactionsChangeContractOwnership.push(transactionId);\n\n        TransactionChangeContractOwnershipCreated(msg.sender, to, transactionId);\n    }\n\n    //Get the pending transations to change Contract's ownership\n    function getPendingTransactionsToChangeContractOwnership() public validOwner view returns (uint[]) {\n        return _pendingTransactionsChangeContractOwnership;\n    }\n\n    //Get the transation to change Contract's ownership\n    function getTransactionToChangeContractOwnership(uint transactionId) public validOwner view \n                                            returns (address from, address to, uint amount, uint8 signatureCount) \n    {\n        from = _transactionsChangeContractOwnership[transactionId].from;\n        to = _transactionsChangeContractOwnership[transactionId].to;\n        amount = _transactionsChangeContractOwnership[transactionId].amount;\n        signatureCount = _transactionsChangeContractOwnership[transactionId].signatureCount;\n    }\n\n    //Sign a transaction to change Contract's ownership\n    function signTransactionToChangeContractOwnership(uint transactionId) public validOwner {\n\n        TransactionChangeContractOwnership storage transaction = _transactionsChangeContractOwnership[transactionId];\n\n        // Transaction must exist\n        require(0x0 != transaction.from);\n        // Receiver cannot sign the transaction\n        require(msg.sender != transaction.to);\n        // Creator cannot sign the transaction\n        require(msg.sender != transaction.from);\n        // Cannot sign a transaction more than once\n        require(transaction.signatures[msg.sender] == 0);\n\n        transaction.signatures[msg.sender] = 1;\n        transaction.signatureCount++;\n\n        TransactionChangeContractOwnershipSigned(msg.sender, transactionId);\n\n        if (transaction.signatureCount >= ((MIN_SIGNATURES/2)+1)) {\n            _owner = transaction.to;\n            TransactionChangeContractOwnershipCompleted(transaction.from, transaction.to, transactionId);\n            deleteTransactionChangeContractOwnership(transactionId);\n        }\n    }\n\n    //Delete a transaction to  change Contract's ownership\n    function deleteTransactionChangeContractOwnership(uint transactionId) public validOwner {\n        uint8 replace = replaceElementFromTransactionsArray(_pendingTransactionsChangeContractOwnership, transactionId);\n\n        assert(replace == 1);\n        delete _pendingTransactionsChangeContractOwnership[_pendingTransactionsChangeContractOwnership.length - 1];\n        _pendingTransactionsChangeContractOwnership.length--;\n        delete _transactionsChangeContractOwnership[transactionId];\n    }\n\n    function replaceElementFromTransactionsArray(uint[] storage transactionsArray, uint transactionId) \n        private returns (uint8) \n    {\n        require(transactionsArray.length > 0);\n        uint8 replace = 0;\n\n        for (uint i = 0; i < transactionsArray.length; i++) {\n            if (1 == replace) {\n                transactionsArray[i-1] = transactionsArray[i];\n            } else if (transactionId == transactionsArray[i]) {\n                replace = 1;\n            }\n        }\n        return replace;\n    }\n\n    function walletBalance() public constant returns (uint) {\n        return address(this).balance;\n    }\n}",
  "sourcePath": "/Users/wellington.barbosa/Documents/blockchain/goblockchain/smart-contract-checking-account/contracts/CheckingAccount.sol",
  "compiler": {
    "name": "solc",
    "version": "0.4.19+commit.c4cbbb05.Emscripten.clang"
  },
  "schemaVersion": "1.0.1",
  "updatedAt": "2018-02-09T21:26:03.086Z"
}